:020000040000FA
:0600000002011A0221F5C5
:03002B000228AEFA
:0300330002289010
:0300530002226B1B
:03006B0002286701
:1000830002204BE5C754F84401F5C779012200006B
:100093000080FB120086B90003020104E479217891
:1000A30008B800028004F709D8FCE479297802B87B
:1000B30000028004F709D8FCE4900281788A79135E
:1000C3008002F0A3D8FCD9FA781A90014A7A01BACF
:1000D30000028007E493A3F608DAF97A0A7B159005
:1000E300014B780879048015E493A3AD82AE838A2B
:1000F300828B83F0A3AA82AB838D828E83D8E9D9C6
:10010300E77582307583C0740312012C7582917573
:100113008300740012012C75D00075813F7518811E
:10012300751902759F00020096C09FF59FE473D076
:100133009F22D083D082C09FE493C0E0740193C018
:10014300E0740293F59F2201FF0000B40000280031
:100153002800283075A000A000A000A0000008001F
:1001630008E001F000100010001000100010001053
:100173000050005000500010001000D00700000095
:100183000000000F0001000500307507001000019A
:100193000081FF00000000FFFFFF740692067A064D
:1001A300B606FF02020208025000A0000000E803A6
:1001B30002CD90010000A89002B3900100006515E4
:1001C30002AB90010000BF0202B39001000066156C
:1001D30002B790010000D50202B390010000671539
:1001E30002B990010000D70202B390010000681524
:1001F30002BF90080000D80202B390010000691505
:1002030002CB900100006A15FF0100FF2002CD9090
:100213000100009F9002B390010000CE1502E5900B
:10022300000000000002AD90030000060317006405
:100233000D640D640D640D640D640D640D640D6433
:100243000D640D640D640D640D4C105E10461002B8
:100253000202020202020202010D0000001001026A
:10026300CD90010000A29002B3900100001116028C
:10027300D790010000230702B39001000012160279
:10028300D5900100005B8F02B390010000131602AA
:10029300D3900100004D8F02B390010000141602A9
:1002A300CF90010000DD8E02B3900100001516020D
:1002B300C990010000958E02B3900100001616024A
:1002C300C790010000B98E02B39001000017160217
:1002D300C590010000CB8E02B390010000181602F6
:1002E300C3900100003F8F02B39001000019160272
:1002F300C1900100001A1601E8030577100AFFFFF9
:10030300FF00013075030201060000000000000039
:1003130000000000000000000000000000000000DA
:100323000000000000FFFF0600800CE803140953DF
:10033300696D706C65424C45506572697068657291
:10034300616C051250002003020A00020106030239
:10035300F0FF53696D706C6520424C452050657207
:100363006970686572616CEA140000F0140A4368EE
:100373006172616374657269737469632031000229
:10038300436861726163746572697374696320326F
:1003930000084368617261637465726973746963A9
:1003A300203300104368617261637465726973740A
:1003B3006963203400024368617261637465726922
:1003C3007374696320350002CD90010000A590028B
:1003D300B3900100002F1702DD90030000FF140209
:1003E300AF90010000301702B390010000411702E3
:1003F300DF90010000001502AF90010000421702D8
:10040300B390010000531702E190020000011502AE
:10041300AF90010000541702B3900100006517026A
:10042300E390000000021502AD90030000031502E3
:10043300AF90010000661702B39001000077170226
:10044300D190040000051502AF9001000078171247
:100453000135E79803120135FA98031201352B99F8
:1004630003120135659903120135BE990312013553
:10047300059A031201354D9A031201357C9A031232
:100483000135AB9A03120135E29A03120135299B18
:1004930003120135429B03120135979B0312013569
:1004A300B09B03120135FE9B03120135389C0312E6
:1004B3000135D4B602120135D7B70212013510B88F
:1004C3000212013533B80212013545B80212013563
:1004D30083B802120135FFB802120135C7B90212FF
:1004E3000135E9B90212013580BA02120135D2BAD7
:1004F3000212013503BB0212013510BB0212013592
:100503007ABB02120135D1BB02120135D4BB0212F0
:1005130001350DBC0212013510BC021201351ABCA3
:10052300021201356EBC02120135AFBC0212013555
:10053300E2BC021201351FBD0212013521BE0212B7
:100543000135C5BE021201352EBF021201356CBF43
:1005530002120135338D031201355B8D0312013510
:10056300888D03120135C08D031201351E8E0312CF
:1005730001356A8E03120135D18E03120135118FB5
:10058300031201354E8F031201357C8F031201359F
:100593002690031201353090031201353D9003126A
:1005A30001357090031201357C900312013594904C
:1005B300031201359E90031201355DBD031201350F
:1005C3006BBD0312013583BD031201359ABD0312BE
:1005D3000135C8C70112013572C80112013585C939
:1005E3000112013501CA011201351FCB0112013578
:1005F3005BCB01120135F6CB01120135DACC0112C6
:100603000135A6CD0112013534CF01120135A5CF35
:10061300011201355FD00112013551D101120135AB
:1006230091D10112013545D20112013577D2011260
:1006330001356DD401120135AFD401120135CDD48A
:100643000112013533D50112013502D601120135EC
:10065300C6D601120135E5D8011201358DD7021234
:10066300013577D80212013522D90212013573D927
:100673000212013523DA0212013594DA021201352E
:1006830079DB02120135ADDB02120135A6DC021261
:100693000135E3DC02120135BFDD02120135FEDD57
:1006A300021201351ADE0212013569AD031201355A
:1006B300EDAD0312013518AE0312013532AF03124B
:1006C30001352C91031201354291031201356091DA
:1006D300031201357192031201357B920312013526
:1006E300A693031201359D94031201350A95031253
:1006F30001357BDE02120135ABDF02120135E2DF89
:10070300021201352CE002120135EFE1021201352C
:10071300E89001120135749101120135D89201124A
:100723000135E492011201351F93011201358E93B5
:1007330001120135979401120135A095011201357B
:10074300679601120135C49701120135E297011230
:100753000135FF9701120135AC9801120135299932
:10076300011201355199011201351B9C011201350A
:10077300209C01120135399E01120135879E011219
:100783000135F79E01120135359F0112013511A084
:1007930001120135D1A0011201351DA1011201354C
:1007A30020A10112013564A101120135ACA101128E
:1007B3000135EBA1011201350DA20112013541A250
:1007C30001120135A4A201120135BEE30212013563
:1007D300CCE3021201351FE4021201353EE402129A
:1007E300013583E402120135C7E50212013562E6E1
:1007F30002120135A6E602120135D0E602120135D6
:100803003FE70212013585E702120135FCE70212C8
:100813000135ADE802120135DD2800120135ED285E
:10082300001201358E2900120135EA290012013523
:10083300A72A00120135C32B00120135F52B001234
:100843000135242C00120135D12D00120135483019
:1008530000120135B83200120135AA3300120135F6
:10086300A33400120135AA36001201359E39001255
:100873000135CD3A00120135D13C00120135E13D7D
:1008830000120135703F001201356140001201353D
:10089300AF40001201351E410012013542410012E2
:1008A30001359341001201353446001201353547B5
:1008B30000120135964700120135C1470012013578
:1008C300874800120135F9880312013503890312A1
:1008D30001354889031201355C8903120135EC891E
:1008E30003120135258A03120135608A031201358B
:1008F300898A03120135DD8A03120135F28A031254
:100903000135148B03120135298B031201353D8BFD
:1009130003120135528B031201358C8B03120135FF
:10092300B88B03120135018C03120135738C03124A
:100933000135B68C03120135E08C031201350B8DA2
:100943000312013572B903120135BAF501120135EB
:100953009DF60112013518F70112013553F7011203
:100963000135A4F80112013532F901120135C4FB36
:100973000112013576FC0112013582FD01120135A8
:10098300F5FE011201354EFF0112013593FB0212F0
:100993000135D6FB021201355AFC0212013531FF33
:1009A30002120135F5A803120135A7A90312013577
:1009B300A3AA03120135E2AA031201353CAB0312C9
:1009C30001353BB1031201359EB1031201353BB230
:1009D3000312013570B203120135A0B203120135BF
:1009E300DBB203120135FBB20312013549F20212E5
:1009F3000135D5F20212013594F302120135ACF43C
:100A030002120135C6F602120135458D0212013577
:100A13006A8D02120135378E021201350B8F0212D5
:100A23000135788F02120135B88F021201355490C7
:100A330002120135889102120135639202120135C7
:100A4300C292021201354E9302120135BC93021277
:100A530001354894021201358E9402120135009536
:100A630002120135929502120135339602120135B5
:100A73005396021201359B9602120135E496021237
:100A83000135009702120135269702120135A0970E
:100A930002120135AE97021201353D98021201355B
:100AA300A69802120135FDF60212013582F70212F1
:100AB3000135C4F702120135A8F80212013515F900
:100AC3000212013559F9021201359DF9021201355D
:100AD300CAF902120135F2F9021201352AFA021299
:100AE300013568FA021201358FFA0212013509FB4A
:100AF3000212013553FB02120135D0B50112013543
:100B030078B701120135A5B901120135F9B90112FE
:100B1300013524BA01120135F6BA011201353ABB87
:100B2300011201357EBB0112013591BB0112013562
:100B3300D2BB01120135FFBB011201354DBC0112BD
:100B430001358EBC01120135BCBC011201350FBD4C
:100B530001120135A6BD0112013590C00112013504
:100B6300A6C201120135E4C20112013577C4011294
:100B73000135BCC4011201352EC5011201357FC5F3
:100B830001120135B9C501120135BEC50112013586
:100B93005EC60112013594C701120135A5C70112C2
:100BA3000135D9A30212013558A40212013551AA05
:100BB3000212013557AB02120135CAAC02120135DC
:100BC30061AD021201358D5D00120135D65D001253
:100BD3000135035E00120135355E00120135425EB8
:100BE300001201354E5E00120135605E00120135C0
:100BF3003B5F00120135995F00120135CE5F001291
:100C0300013505610012013552610012013576612B
:100C130000120135E66100120135A76200120135A9
:100C23006A6300120135D86300120135956400121E
:100C33000135A86400120135266500120135B96536
:100C430000120135E06500120135486600120135D6
:100C5300996600120135EE6600120135976700129E
:100C63000135426800120135EE68001201356069F2
:100C730000120135B46900120135146A00120135FE
:100C8300446A00120135DA6A00120135FF6B001263
:100C93000135476C00120135646C00120135836C19
:100CA30000120135B26C00120135C76D0012013517
:100CB3004D6E00120135726E00120135876E0012FF
:100CC3000135FA6E001201353B6F00120135577082
:100CD30000120135F870001201354671001201351A
:100CE300B07100120135C971001201358BAD0212CA
:100CF3000135DFAD02120135EBAD02120135B5AEA0
:100D030002120135E2AE0212013510AF02120135B3
:100D13007CAF02120135B2AF02120135EBAF021202
:100D2300013503B00212013558B00212013571B01A
:100D330002120135B6B002120135C9B002120135F3
:100D4300E3B002120135F9B00212013517B20212F3
:100D5300013542B3021201352CB4021201351BB521
:100D630002120135F7FF011201350080021201352D
:100D73002F8002120135F583021201354C850212D0
:100D830001351286021201359187021201355B8803
:100D930002120135AD8802120135C78802120135EE
:100DA300F988021201350489021201354D890212B4
:100DB3000135568902120135028A02120135DB8A96
:100DC30002120135228B021201358A8B0212013580
:100DD300CC8B02120135FA8B02120135358C0212CB
:100DE30001357CA301120135FAA60112013500A7D2
:100DF3000112013555AD011201359FB101120135C3
:100E030085B5011201351495031201358A95031234
:100E13000135A095031201353096031201356D9605
:100E230003120135A79603120135E196031201352A
:100E33005497031201359597031201359E970312B8
:100E43000135AA9703120135C99703120135F397A8
:100E53000312013508980312013530980312013546
:100E6300929803120135B998031201358AED0212E3
:100E730001359DED02120135B7ED02120135E4EDA6
:100E8300021201352AEE021201355DEE021201351E
:100E93009BEE0212013500EF0212013515EF02122B
:100EA300013520EF021201352DEF0212013544EF17
:100EB3000212013552EF021201355DEF02120135C4
:100EC30069EF021201357CEF0212013587EF02123E
:100ED3000135AAEF021201354EF0021201355EF020
:100EE3000212013578F00212013595F00212013534
:100EF300B0F002120135D5F002120135E0F0021212
:100F03000135F5F00212013509F1021201356AF1DA
:100F13000212013570F10212013576F10212013528
:100F23007CF10212013594F102120135C7F102126C
:100F33000135FE71001201359572001201352D73D2
:100F4300001201351D74001201355474001201356D
:100F5300677400120135D5740012013570760012E2
:100F630001359776001201353977001201356E7716
:100F7300001201357F7700120135F8770012013531
:100F83001978001201353178001201358979001280
:100F93000135927B00120135E27D00120135E57EB9
:100FA30000120135347F00120135F2D801120135E8
:100FB300EFD901120135DADA01120135E4DA01124F
:100FC300013506DB0112013512DB0112013564DC48
:100FD3000112013593DC01120135C3DD0112013524
:100FE30005DE0112013531DF0112013507E001127F
:100FF300013559E001120135B8E001120135EFE086
:10100300011201352AE101120135C5E4011201354E
:10101300DEE40112013560E5011201356EE50112CE
:101023000135C3E501120135D1E5011201353EE673
:1010330001120135B0E601120135F6E60112013560
:10104300C99802120135EB9802120135D59A0212A2
:1010530001357A9E02120135BD9F0212013597A018
:101063000212013509B3031201352EB30312013500
:101073009FB30312013592BF021201359BBF0212C7
:101083000135A4BF02120135D5C002120135F4C2E5
:10109300021201352AC30212013564C3021201355B
:1010A3009AC302120135D4C30212013508C40212D5
:1010B300013534C4021201357DC402120135B7C4AF
:1010C30002120135FFC40212013555C50212013562
:1010D3008AC502120135E5C5021201351FC6021287
:1010E300013570C602120135A6C602120135E0C6EB
:1010F300021201350EC70212013531C70212013542
:10110300DEBE031201350ABF0312013565BF0312A8
:1011130001356FBF031201357FBF0312013563A38E
:10112300031201358AA303120135B4A30312013557
:1011330088C003120135F34800120135574B0012E2
:1011430001350E4D001201356B4D001201356D4E08
:1011530000120135F54E001201357C4F00120135A6
:10116300A14F001201359652001201350C530012A3
:101173000135FB5300120135355400120135755406
:10118300001201351556001201356A560012013559
:10119300B756001201352557001201354B5700127F
:1011A30001356557001201357B58001201358B5804
:1011B30000120135115A00120135315A001201355E
:1011C300675A00120135EB5B001201352A5C0012ED
:1011D3000135685D00120135008003120135588026
:1011E30003120135A081031201350F820312013569
:1011F300BE8203120135DD820312013531830312EE
:1012030001356F83031201352ABE031201353BBE3C
:1012130003120135D2C00312013511C10312013586
:10122300E3FF0212013580BC0312013590BC0312A7
:101233000135A5BC0312013557BD0312013586BA2A
:10124300031201350ABB0312013570BB03120135CA
:10125300BFB403120135E8B4031201354EB50312CE
:1012630001356DB503120135C1B5031201351AB647
:101273000312013555B60312013558B60312013571
:1012830034A00312013549A0031201356DA10312E5
:101293000135D7A1031201354BA20312013565A213
:1012A300031201357CA2031201358FA2031201350B
:1012B300A7A203120135BCA203120135DDA203125A
:1012C30001352EA303120135E07F00120135F07FB3
:1012D30000120135F37F00120135F87F001201354A
:1012E30061AF03120135D7B00312013538B10312D0
:1012F300013500B80312013529B80312013552B87C
:1013030003120135EBB8031201352DB90312013570
:10131300BFC702120135C9C70212013509C802123B
:10132300013552C8021201358CC802120135E2C8D8
:101333000212013501C90212013586CB02120135B1
:101343008FCB02120135E0CB0212013509CC021218
:1013530001351ECC021201358ECC021201351CCD93
:101363000212013560CD0212013588CD021201351A
:1013730007CE021201354ACE0212013587CE021280
:10138300013599CE02120135B8CE02120135C1CE14
:10139300021201358BCF0212013562B603120135F9
:1013A300B3B6031201353CB703120135A2B70312DA
:1013B300013531A6031201355BA60312013555A78A
:1013C3000312013584A7031201350AA8031201355C
:1013D30089BB0312013567AB031201359DAB0312C1
:1013E3000135D6AB031201352FAD0312013589BF89
:1013F300031201359FBF03120135A9BF0312013543
:10140300FFBF03120135817F00120135B7CF0212EE
:10141300013574D002120135AFD002120135D7D095
:101423000212013539D10212013585D1021201357B
:10143300F0D1021201356CD20212013568D30212C7
:101443000135EFD40212013572D502120135D6D51A
:1014530002120135EDD502120135E3D60212013530
:101463002FD70212013581840312013596840312AA
:1014730001354685031201358685031201359F85A3
:1014830003120135D285031201351F86031201357C
:10149300538603120135958603120135938803128F
:1014A30001357FE70112013536EB01120135C8EC36
:1014B300011201351FED011201353EED0112013517
:1014C300BCED011201354EEF0112013532F001126C
:1014D300013543F40112013517F501120135BFE857
:1014E30002120135E2EA02120135A4EB02120135C0
:1014F30028ED02120135A09C03120135089D031249
:101503000135259D03120135F09D03120135439EDC
:1015130003120135269F031201351BC10312013546
:1015230098C10312013561C103120135C4C103120D
:101533000135EDC103E066701008A3E066700A0888
:10154300A3E066700408A3E06622C3E7960809E7F0
:10155300960809E7960809E79622C3E09608A3E0F0
:101563009608A3E09608A3E09622C008C3E096F588
:101573000808A3E096420808A3E096420808A3E0FF
:101583009645087001D3D00822080808EAC0E0EBAA
:10159300C0E086F0E7A4FA180986F0E7A42AFA184F
:1015A3000986F0E7A42AFA180986F0E7A42AFA19AB
:1015B30086F0E7A4FBE5F02AFA190886F0E7A42BE6
:1015C300FBE5F03AFA190886F0E7A42BFBE5F03ABD
:1015D300FA18180986F0E7A4C5F02BFBE43AFA19C8
:1015E30008E7C5F0C6A426F6E5F03BFBE43AFA1893
:1015F30086F0E7A4F6E5F00826F6E43B08F6E43ABD
:1016030008F6D0E0FBD0E0FA22E4CFC0E0E4CEC09D
:10161300E0E4CDC0E0E4CCC0E075F020E626F608B7
:10162300E633F608E633F608E633F6181818EC3313
:10163300FCED33FDEE33FEEF33FFC3EC9709ED977B
:1016430009EE9709EF97191919400FFFEC97FC0959
:10165300ED97FD09EE97FE191906D5F0BFECF709D2
:10166300EDF709EEF709EFF7191919D0E0FCD0E00F
:10167300FDD0E0FED0E0FF226016080808C6C313C1
:10168300C618C613C618C613C618C613C6D5E0EACD
:10169300227009080808226016181818C6C333C632
:1016A30008C633C608C633C608C633C6D5E0EA2221
:1016B300E627F60809E637F60809E637F60809E6E5
:1016C30037F622E026F608A3E036F608A3E036F65E
:1016D30008A3E036F622E026F008A3E036F008A3DC
:1016E300E036F008A3E036F022C3E697F60809E6F1
:1016F30097F60809E697F60809E697F622C3E096F7
:10170300F008A3E096F008A3E096F008A3E096F0B3
:1017130022E056F608A3E056F608A3E056F608A31F
:10172300E056F622E056F008A3E056F008A3E05690
:10173300F008A3E056F022E0F608A3E0F608A3E0E1
:10174300F608A3E0F622E6F008A3E6F008A3E6F025
:1017530008A3E6F022E0FAA3E0FBA3E0FCA3E0FD8C
:1017630022E0F8A3E0F9A3E0FAA3E0FB22E8F0A368
:10177300E9F0A3EAF0A3EBF022CAC0E0E6F0A30885
:10178300DAFAD0E0FA22CAC0E0E0A3C582CCC5826F
:10179300C583CDC583F0A3C582CCC582C583CDC522
:1017A30083DAE6D0E0CA22C3E498F8E499F9121781
:1017B300EB8026C3E49AFAE49BFBE920E7E91217DE
:1017C300EBE498F8E499F922C3E498F8E499F91260
:1017D30017EBE498F8E499F9C3E49AFAE49BFB2243
:1017E300EB20E7CFE920E7E0B90010BB0008E88A67
:1017F300F084F8AAF022E4FBC8FA22EB70227B10F3
:10180300C833C8C933C9335007C39AC3DBF2800650
:101813009A50012ADBEAC833F4C8C933F4C9FA225F
:1018230075F008E4C833C8C933C933C99AC99B5092
:1018330004C92AC93BD5F0ECFBC833F4C8E4C9FAA0
:1018430022600D08C6A2E713C618C613C6D5E0F377
:1018530022600C08C6C313C618C613C6D5E0F4220B
:10186300700422600D18C6C333C608C633C6D5E05C
:10187300F41822251810AF08F518400C1519800824
:10188300F51840021519D2AF2200C0D0251810AFA9
:1018930008F518500C05198008F51850020519D2DF
:1018A300AFD0D0222518F58210AF08F518400C15DB
:1018B300198008F51840021519D2AF85198322251E
:1018C30018F582E43519F583222518F8E43519F95A
:1018D300222518FAE43519FB222518FCE43519FDF5
:1018E30022E4732518C582C0E0E51934FFC583C01F
:1018F300E0E518C3958224F810AF08858319858223
:10190300188008858319858218D2AFCEF0A3E5200D
:10191300F0A37808E608F0A3DEFAEFF0A3E581244C
:10192300FAF8E608F0A3E608F0A3E608F0A308082F
:10193300E608F0A3E608F0A315811581D0E0FED0F8
:10194300E0F8158115811581E8C0E0EEC0E022259D
:1019530018C582C0E0E51934FFC583C0E0E518C3AC
:10196300958224F910AF088583198582188008852C
:101973008319858218D2AFCEF0A3E520F0A37808AF
:10198300E608F0A3DEFAEFF0A3E58124FBF8E6080E
:10199300F0A3E608F0A30808E608F0A3E608F0A31E
:1019A30015811581D0E0FED0E0F815811581E8C0DE
:1019B300E0EEC0E022851983851882E0A3FEE0A350
:1019C300F5207808E0A3F608DFFAE0A3FFE0A3C060
:1019D300E0E0A3C0E0E0A3C0E0E0A3C0E0E0A3C078
:1019E300E010AF08858218858319800885821885E1
:1019F3008319D2AFD083D08202013285198385182F
:101A030082E0A3FEE0A3F5207808E0A3F608DFFA5E
:101A1300E0A3FFE0A3C0E0E0A3C0E0E0A3C0E0E0F8
:101A2300A3C0E010AF0885821885831980088582DA
:101A330018858319D2AFD083D08222C0D02518C590
:101A430082C0E0E51934FFC583C0E0E518C3958281
:101A530024F310AF088583198582188008858319BC
:101A6300858218D2AFC8F0A3E9F0A3EAF0A3EBF0A4
:101A7300A37908E709F0A3D8FAECF0A3EDF0A3EEFD
:101A8300F0A3EFF0A3D0E0F0A3D0E0F0A3D0E0F018
:101A9300A3E520F0A3E5F0F0A3228519838518823E
:101AA300E0C0E0A3E0F9A3E0FAA3E0FBA37808E039
:101AB300F608A3DFFAE0FCA3E0FDA3E0FEA3E0FF4A
:101AC300A3E0C0E0A3E0C0E0A3E0F5D0A3E0F520ED
:101AD300A3E0A3F5F010AF08858319858218800869
:101AE300858319858218D2AFD082D083D0E0F8D015
:101AF300E03274048006740280027401C0E0F404CE
:101B03001218A7D0E012177C227404800474028098
:101B130000CCC0E0EDC0E0E518C39CCCAD1950018A
:101B23001D10AF068C188D1980068C188D19D2AF35
:101B3300121789D0E0FDD0E0FC22D083D082E9C027
:101B4300E0E493A3C386F0C5F095F0F908E493A30A
:101B530086F0C5F095F0700BE493A3C3994005E9B3
:101B6300048002A3E475F002A42582F582E5F03532
:101B730083F583D0E0F9E493A3C0E0E493C0E022CB
:101B8300D083D082ECC0E0EDC0E0E493A3FCE49307
:101B9300A3FDED4C600D121BCFEC24FFFCED34FFD5
:101BA300FD80EFE493A3FCE493A3FDED4C600D12E1
:101BB3001C0EEC24FFFCED34FFFD80EFD0E0FDD0E4
:101BC300E0FCE493A3C0E0E493C0E022C0E0C3E4FC
:101BD3009396087401939618400FE493667008086F
:101BE300740193661870007019A3A3C3E493960855
:101BF3007401939618A3A3400DD0E0D0E0D0E00287
:101C03001BBFA3A3A3A3A3A3D0E022C0E0C0F0887B
:101C1300F0E4936670080874019366187000A8F0E6
:101C2300A3A3700BD0F0D0E0D0E0D0E0021BBFA3A1
:061C3300A3D0F0D0E02276
:101C3C00FFFFFFFFFFFFFFFF74F6121952EAFEEBE6
:101C4C00FF8C088D09EE2434F8E43FF9E8FCE9FD3B
:101C5C00121D77E0FAEE2437F582E43FF583E0F8C5
:101C6C008508F0A4C885F00A8509F0A4250AF9EACC
:101C7C0028F8E439F97A257B001217EBEA8C828D6F
:101C8C0083F0FA131313541FF8EE28F8E43FF9E825
:101C9C00245DF582E439F583E0C0E074075AF8D08E
:101CAC00E0B800028004C313D8FCA2E05003EA8021
:101CBC0020EE2436F582E43FF583E0F5F0EA84A8C3
:101CCC00F0EE28F8E43FF9E82438F582E439F5839E
:101CDC00E0F97F030219FE74F5121952EAFEEBFFCC
:101CEC00EE2434F582E43FF583E0C0E0121D77D09A
:101CFC00E0F08E828F83A3A3A3A3A3E0FAA3E0FB5F
:101D0C008E828F83A3A3A3A3A3A3A3E0FCA3E0FDD4
:101D1C00ECC39AF50AED9BF50BEE247FF508E43F36
:101D2C00F509850882F583E06401702AEE2480F5BC
:101D3C0082E43FF583121B10121D81740212188C61
:101D4C00E960137CB07D04EEFAEFFB120C80850881
:101D5C0082850983E4F0AC0AAD0BEEFAEFFB121CA2
:101D6C0044E9F91228597F040219FEEE2435F58254
:101D7C00E43FF58322C082C083851882851983E0F5
:101D8C00F8A3E0F9C3EA9CEB9D5010C3EC98ED99D5
:101D9C00401BC3EA98EB995014800EC3EA98EB9958
:101DAC004007C3EC98ED994004790180027900D08A
:101DBC0083D08222EAC39CFAEB9DFB2274ED1219AC
:101DCC0052900376E064086005E06407702C906123
:101DDC00C8E060269003A4E0F874FF68601CE87506
:101DEC00F00AA4C8AAF02AF974A628FE740339FFD5
:101DFC008E828F83A3A3A3E070057900021F61EE8E
:101E0C002468F50EE43FF50F906060E0850E828546
:101E1C000F83F0751020751105750800750900E524
:101E2C00D914F50AE5D95403F50B601FEE2482F59D
:101E3C000CE43FF50D7403650B6059E50A6017EE71
:101E4C002467F582E43FF583E0700B793DEEFAEF01
:101E5C00FB120CB080A490051BE064016023850C80
:101E6C0082850D83E060047A0480027A00E50AC35F
:101E7C009AFA95E0FB120B0C8A088B09EA4509705B
:101E8C0006120F14021E06850C82850D83E0700469
:101E9C008A108B117A008014E5D9C0E0EAF8E510BD
:101EAC0028F582E43511F583D0E0F00AEAC3950AEF
:101EBC0040E6850C82850D83E0602874FC250AF5CC
:101ECC000A7810121AF9AC0AA90BEEFAEFFB120DF4
:101EDC005E740212188CE9700AAA08AB091213A0DE
:101EEC00021E577403650B6054850A0C750D00783F
:101EFC000C121AF9AC10AD11AA08AB09120D227410
:101F0C000212188C850E82850F83E0F8748068703D
:101F1C0005750C7F8002880CE50CF50D780D121AF6
:101F2C00FD780B121AFDA90AAC08AD099003A4E0C8
:101F3C00FA7B00120944740212188C8013900376F9
:101F4C00E06408600BAC10AD11EEFAEFFB120DF46F
:101F5C00120F2079017F0C0219FE74F312195274BE
:101F6C00FC121876EAFEEBFF8909A2AFE433F50800
:101F7C00C2AFEE2463F50AE43FF50B8010AA0AAB5E
:101F8C000B120CDA1213A09004B7E004F0850A824D
:101F9C00850B83E0F8A3E0F9E849602DE82402FA08
:101FAC00E439FBEA2402F50CE43BF50D780C121A2B
:101FBC00F98A828B83E0FCA3E0F9EEFAEFFB120CBA
:101FCC00CE740212188CE960B49004B7E0604D90A6
:101FDC0004B8E0F89004B7E0C398500C740265099B
:101FEC00703A9004B9E060348E828F83A3A3A3A3CC
:101FFC00E085188285198312203874021218C2E801
:10200C001220389004B6E028F074021218DCAA18DA
:10201C00AB1979011209989004B7E4F0E508A2E035
:10202C0092AF740412188C7F060219FEF0A3E4F030
:10203C009004B7E0F82200008521878522C622C0D3
:10204C00E074EB121A3EA2AFE433F508C2AF759BF5
:10205C0000906182E0A2E05030E591A2E0502A7538
:10206C0091FE7401652170211221DE120E4E122197
:10207C00CC121B0C122603740412188CE964017028
:10208C00057901120EA8121DC8906182E0A2E550DC
:10209C005DE591A2E550577591DF900376E06407FA
:1020AC006005E06408702F1221DE74016521703E1A
:1020BC00120E4E1221CC121B0C1226037404121891
:1020CC008CE9640170057901120EA87901EEFAEF22
:1020DC00FB121F668018E0640D7013900398E004E7
:1020EC00F064287002E4F07A00E0F9120F26906197
:1020FC0082E0A2E640030221A1E591A2E6400302A0
:10210C0021A17591BF900376E064057008120E361C
:10211C00120E428003120E3C752100120EB4E9908F
:10212C000377F07900120EA8120BEA7A017B00906B
:10213C000375E0F9121370907803E06442705690C6
:10214C00051FE014F0704EC2AF12215800782AD04F
:10215C00E0F618D0E0F6E59F5407F87005750DFF12
:10216C008003750D7FC4C0E07829E6F50A08E655B2
:10217C000DF50B740B780A121854D0E0250AF89060
:10218C006270E0A2E740F8E8C333906272F09062AC
:10219C0070E0D2E0F0906181E0A2E35009E5E9A2A1
:1021AC00E3500375E9F7A3E0A2E75009E591A2E734
:1021BC00500375917FE508A2E092AF7F08021A9D4B
:1021CC008E828F83E0F8A3E0C82416F582E438F5FC
:1021DC0083229003A4E0F875F00AA4C8AAF02AF9A7
:1021EC0074A628FE740339FF22C0E0C0D0C082C0A0
:1021FC0083906183E0A2E05009E5BFA2E050037533
:10220C00BFFEE0A2E15009E5BFA2E1500375BFFD9E
:10221C00E0A2E25009E5BFA2E2500375BFFBE0A2C9
:10222C00E35009E5BFA2E3500375BFF7E0A2E45009
:10223C0009E5BFA2E4500375BFEFE0A2E55009E544
:10224C00BFA2E5500375BFDFE0A2E65009E5BFA2CF
:10225C00E6500375BFBFD083D082D0D0D0E032C05F
:10226C00E074F2121A3EE5A7A2E4500FE5A1A2E435
:10227C00500953A7EF75A1EF1222BFE5A7A2E550B5
:10228C000CE5A1A2E5500653A7DF75A1DFE5A7A2D7
:10229C00E15009E5A1A2E1500375A1FDE5A7A2E279
:1022AC00500CE5A1A2E2500653A7FB75A1FB7F01E0
:1022BC00021A9D74F8121952752101900376E0648C
:1022CC000670077A007B00120E1EA2AFE433FED21A
:1022DC00AF90037CE0640170187A207B009003754A
:1022EC00E0F912148A7A207B00900375E0F912133E
:1022FC0076906182E0D2E6F090051CE0602185C604
:10230C0022801690037BE064017008E5C654F84403
:10231C0005F5C653BEFC1220447401652160E4EE41
:10232C00A2E092AF7F010219FE0000008E238F24E1
:10233C00858228858327851882851983E0CEA3E0C2
:10234C00CF852882852783EBC9EAC8EDCBECCA750B
:10235C00F010C3E833C8E933C9EA33CAEB33CBC353
:10236C00EA9EF526EB9FF525B35004AB25AA26EC87
:10237C0033CCED33CDD5F0DAAE23AF242274E91291
:10238C00195274FA121876EAFEEBFF8C088D0912BA
:10239C000E60EAF8EBF9ECFAEDFB8E828F831217E4
:1023AC0070900376E024F7C3940550067510010273
:1023BC0024C0120D948A0A8B0BEA450B700302247D
:1023CC00BD120E548A0C8B0D120E54EA650C700360
:1023DC00EB650D60ECEEFCEFFDAA18AB19120E5A72
:1023EC00850A82850B83A3A3780C12173A90901B55
:1023FC00780C121714851882851983781412173AE1
:10240C0090901B7814121714780C791412154D50E7
:10241C001F780C79141216EC909037780C12156DFD
:10242C004047850C10850D11850E12850F138045C4
:10243C009090378514108515118516128517137811
:10244C0010790C1216EC781012156D501C751000CA
:10245C00751100751200751301781079141216ECB1
:10246C007810790C1216B3800C751001751100756B
:10247C0012007513007409781012169490908F78CE
:10248C000C12173A7810790C12160C900376E06443
:10249C0008600AE064066005E064057020909033E3
:1024AC00781012156D501690902F78101216C68059
:1024BC000C751000751100751200751300850882DB
:1024CC008509837810121749740612188C7F100234
:1024DC0019FE74F7121952120E7290051AE064016B
:1024EC007010906245E4F0A3F053F4F343FE0C53E8
:1024FC0090F3120E0CE5C654B84441F5C6E59E5453
:10250C0047644170F8906185740FF0900518E0F401
:10251C007002A3E0602C750801750900900518E0A5
:10252C007808121863E508F4FAA3E0600814600A4E
:10253C0014600C800DEA52808008EA52908003EA05
:10254C0052A079007F020219FE74F7121952E9FEAB
:10255C00EAFF74016E700C7A807B00900375E0F9D1
:10256C00121370901C40E493F46008E493F9120B7E
:10257C00CC800953C6B8E59E544770FA120E1290DF
:10258C00051AE064017003120C02900518E0F47057
:10259C0002A3E0602B750801750900900518E0781E
:1025AC0008121863E508FAA3E0600814600A1460C6
:1025BC000C800DEA42808008EA42908003EA42A037
:1025CC00120D948A088B09A808A909E8496016E538
:1025DC00E170FCE82414F582E439F583E0F874FF2B
:1025EC0068600288E174016F700A7A01900375E0EB
:1025FC00F91213FA02255074F11219528A088B0938
:10260C008C0A8D0B90901B7808121714740F1218EB
:10261C00C2780C12173A90901B780C121714780889
:10262C00790C12154D90903750107808790C1216C1
:10263C00EC780812156D4014800E780C790812167F
:10264C00EC780C12156D50047901800279007F082A
:10265C000219FE74ED1219528A088B098C0A8D0B23
:10266C0090901B780812171474131218C2780C125D
:10267C00173A90901B780C121714780C79081215D5
:10268C004D40117808790C1216ECAA08AB09AC0A6B
:10269C00AD0B8022751000751100751200751301B9
:1026AC007810790C1216EC781079081216B3AA105F
:1026BC00AB11AC12AD137F0C0219FE90901B780875
:1026CC0012173A8A828B8378081217277F04021913
:1026DC00FE74F51219528C828D83780812173A8A7F
:1026EC00828B837808121700122731C3E098F0A36D
:1026FC00E099122723401E909057780812173A8AB7
:10270C00828B8378081216D98E828F83E02420F076
:10271C00A3E0344EF080A4F08E828F83C3E094202B
:10272C00A3E0944E22EA2404F8E43BF9E8FEE9FF26
:10273C008C828D83A3A3A3A3E0F8A3E0F98E828FF0
:10274C00832274F5121952E9FE9004D2E0FAA3E048
:10275C00FBEE29F8E433F9742028F582748F39F5EF
:10276C0083E02AF508A3E03BF5097808121AF990E2
:10277C009053121758122338740212188C8A088B33
:10278C00098C0A8D0B7410780812167BAA08AB09F9
:10279C007F040219FE74F11219528A0C8B0D8C0EE7
:1027AC008D0F74111218C2121B1074111218C2E082
:1027BC002401F508A3E03400F509E4F50AF50B78DB
:1027CC000C790812158C90909B780812173A780C9B
:1027DC00790812158CAA0CAB0DAC0EAD0F12233868
:1027EC00740212188C8B09EA450960047A01800284
:1027FC007A00EC2AFCE43DFD74131218C2E0F8A335
:10280C00E0F9E8FEE9FFECF8EDF97A717B021217BA
:10281C00EB88088909E4F50AF50B8E828F8378081A
:10282C00121749ECF8EDF97A717B021217EB8A0852
:10283C008B09740578081218638E828F83A3A3A367
:10284C00A3E508F0A3E509F07F080219FEC082C0D9
:10285C0083E9906000F0D083D08222C0E074F21241
:10286C001A3EA2AFE433FED2AFE589A2E1500312C7
:10287C00126E758900C2C5751A00EEA2E092AF7F88
:10288C0001021A9DC0E074F2121A3EA2AFE433FEAC
:10289C00D2AFE58BA2E0500312126E758B00C2E82A
:1028AC0080D5C0E0C0D0E8C0E0E9C0E0A9A8D2AFB4
:1028BC00C2C7751A00E9A2E7E433F8E9A2E792AFC0
:1028CC00D0E0F9D0E0F8D0D0D0E032C2AF020000B6
:1028DC0022C082C083E99015CDF0D083D082020152
:1028EC003274F61218E6E99002E8F0900348E0F52D
:1028FC000875090074027808121863AA08AB09124B
:10290C0013E29002E91232A09002E912368D606F48
:10291C00900348E075F003A4FAABF01213E29003B5
:10292C00061232A090030612368D700B9002E9123B
:10293C00365E1213E880489003061245F27AFF7B4C
:10294C00FF1211D87A0080198A0875090074027870
:10295C000812186312409A74FF122AA0E4F0A3F034
:10296C000A900348E0F8EAC39840DD790512083074
:10297C009002E8E0F912071C7ABA7B08120AAC0242
:10298C00413D74F41218E68A088B09EB54806047B9
:10299C009002E8E0F91213588A0A8B0BAE0AAF0BBF
:1029AC00EE4F602A8E828F83E064B0701A12084258
:1029BC00E960148E828F83A3A3A3A3E0F9EE240510
:1029CC00FAE43FFB120812EEFAEFFB121346AA08C8
:1029DC00E5096480FB80047A007B00022BF074F222
:1029EC001218E674FB121876EAFEEBFFEE4F604508
:1029FC0074031218C2EEF0A3EFF0851882851983C8
:102A0C00ECF0A3EDF074021218C2E9F0AA18AB199D
:102A1C00120716E9F508707574131218C2E0F50A5E
:102A2C00A3E0F50BE50A450B60638E828F831230B1
:102A3C0029EE4F700575080280537A067B0012133D
:102A4C00E28A0C8B0DA80CA90DE8497005750813CA
:102A5C00803B88828983E4122AA0EEF0A3EF122B2C
:102A6C00BCE50AF0A3E50BF09002EC122BB590023A
:102A7C00EC6017E0FCA3E08003EAFCEBFD8C828D9C
:102A8C0083122BB570F38C828D83123CB5A908741C
:102A9C0005024872F0A31245D4A32274F21218E670
:102AAC008908890C750D007403780C121863850C59
:102ABC000A850D0B9002EBF09002E9123AC0122B32
:102ACC00B3602E1213E87900801D890C750D00740B
:102ADC0002780C1218639002E9123F598882F58330
:102AEC00A3A3E4F0A3F009900348E0F8E9C39840ED
:102AFC00D9900348E0FA850AF0A4CAA8F0850BF037
:102B0C00A428FB1213E28A0C8B0DAE0CAF0DEE4F0A
:102B1C007003022BA9900348E0FC850AF0A4CCA812
:102B2C00F0850BF0A428FD790012132E7C00803167
:102B3C008D0C750D007403780C1218638A828B83CC
:102B4C00122BAE88828983E4F0122BBBA3A3F0A3D3
:102B5C00F00DEDC3950840D8EE250AFEEF350BFFBE
:102B6C000C900348E0F8ECC39850288C0C750D00C1
:102B7C007402780C1218639002E9122BAEE824024E
:102B8C00500109FAE9FB8A828B83EEF0A3EFF07D0A
:102B9C000080BFE5089002EBF07900800279130207
:102BAC004875123F5DF922A3A3123662EA4B22A3A9
:102BBC001245D4A3A3A32274F41218E67900EAA256
:102BCC00E0501F7508F075098F7808121AF9791002
:102BDC007C047D007ACF7B1512082A740212188CA3
:102BEC00E9F980007F040219B8C082C0839002EC1E
:102BFC0012368D601C88828983A3A3E06A7003A3BC
:102C0C00E06B8882898370E8A3A3A3A312365E804D
:102C1C00047A007B000228E674F21218E674FD12A6
:102C2C001876EAFEEBFF851882851983E4F0A3F091
:102C3C0074021218C27401F012368A70141209E66A
:102C4C001213E29002EF1232A012368A7003022D98
:102C5C00B61233A0EE2404F50AE43FF50B850A8284
:102C6C00F583E024FE603C24FC607424FE607E242A
:102C7C00FE7003022D0624FE7003022D1324FE7039
:102C8C0003022D2024FE7003022D2D24FE7003025E
:102C9C002D3A24FC7003022D5B24FE7003022D736D
:102CAC00022DAF1209E69002F1EAF0A3EB122DC24D
:102CBC0012045EE96003022DAF9002F1121B108E1C
:102CCC00828F83A3A3A3A3A31245F285088285094F
:102CDC008312365E1207FA740212188C022DAFACF6
:102CEC0018AD19EEFAEFFB120848022D7EAC18ADA8
:102CFC0019EEFAEFFB12084E8078AC18AD19EEFA0B
:102D0C00EFFB120854806BAC18AD19EEFAEFFB1206
:102D1C00085A805EAC18AD19EEFAEFFB1208608011
:102D2C0051AC18AD19EEFAEFFB1208668044740230
:102D3C001218CC880C890D780C121AF9740212181E
:102D4C00DCEEFAEFFB12086C740212188C8023ACC8
:102D5C0018AD19EEFAEFFB120872E9F8701674024E
:102D6C001218C2E4F0803CAC18AD19EEFAEFFB126D
:102D7C000878E9F8E8602C8E828F83A3E0641460F5
:102D8C0022850A82850B83E09002F1F085188285FA
:102D9C00198312365E9002F21232A0E8A3122DC2F1
:102DAC00120458EEFAEFFB1207D074021218C2E0AC
:102DBC00F97403024872F07CF17D02850882850962
:102DCC00831236622274E81218E674FA12187674BA
:102DDC00041218C2ECF0A3EDF08A128B13EA24054E
:102DEC00F50EE43513F50FEA2402F510E43513F56E
:102DFC0011851082F58312365E12054E8A0A8B0BF2
:102E0C007508007C037D0079007AF17B0212132E89
:102E1C00E50E2402F516E4350FF51774021218CCE2
:102E2C00880C890D780C121AF9850E82850F83A3F4
:102E3C00A3A3A3E0F50C750D00780C121AF9E50E9E
:102E4C002405F50CE4350FF50D780C121AF98516DE
:102E5C0082851783123965120734740612188C8A0E
:102E6C000C8B0DE50C450D7003022FF2802085189C
:102E7C0082851983E088828983F00508851882850C
:102E8C001983A3E0C0E0123033D0E0F00508E50A66
:102E9C0024FBFAE50B34FFFBC3E5089AE49B4003E3
:102EAC00022FF27E007F00851282851383A3A3A3D9
:102EBC00A3E0F5097809121AFDE4F514F515781458
:102ECC00121AF97514EE7515027814121AF990028B
:102EDC00EF121B1074091218C2121B10E50A24F908
:102EEC00F9AC0CAD0D85108285118312365E12087B
:102EFC00A2740912188CE96003022F93850E828547
:102F0C000F83A3A3A3A3A3A3A3E0F89002EEE0680E
:102F1C007075E0F5148E157814121AF91245EF85B8
:102F2C000E82850F83A3A3A3A3A3A3A3A312365E30
:102F3C00121328740212188CE9604C9002F21236AB
:102F4C008D703BE4F5147814121AF97CFF7DFF792F
:102F5C000785108285118312365E12080C740212DA
:102F6C00188C1236937017850E82850F8312478C3E
:102F7C0074041218C212404D123996023026850C78
:102F8C0082850D83123029A818A9198814891578FF
:102F9C0014121AF974041218C2121B1085168285A9
:102FAC001783123296120740740412188C8A0C8BF9
:102FBC000DEE4F7003022E6F123033EE12303E12B4
:102FCC00394CEF12303EF8A3E03400F9E50C450D16
:102FDC006003022E7A8882898374FFF00508123010
:102FEC003374FFF00508E508601A1313543F1232CE
:102FFC00A612046AE960099002F212365E1213A05E
:10300C0079008016850E82850F8312478C7404120A
:10301C0018C212404D123CB5790A02391FA3A3A362
:10302C00A3E0FEA3E0FF22A8089002F2E0281239E8
:10303C004C22F00508089002F2E0282274E81218DD
:10304C00E674FA12187674021218C21232A07404C2
:10305C001218C2ECF0A3EDF074021218C2E02405B1
:10306C00123935E0F50CA3E0F50D74021218C2E02C
:10307C002402F510A3E03400F511851082F58312BB
:10308C00365E12054E750800750900EA24FCFEEB4D
:10309C0034FFFF8008050CE50C7002050DA808C371
:1030AC00EE98EF94005003023252A818A919880E1A
:1030BC00890F780E121AF9851482851583A3A3A3A0
:1030CC00A31245F6121AF9E5142405F50EE435158C
:1030DC00F50F780E121AF985148285158312329425
:1030EC00120734740612188C8A0E8B0FEA450F7077
:1030FC0003023252EA2404F516E4350FF51785164F
:10310C0082F583E0F50CA3E0F50D85188285198313
:10311C001245F28A828B83A3A3A3E0F985108285E2
:10312C00118312365E120722E9F50960030232524E
:10313C0074021218C212395CF5097809121AFDE4EE
:10314C00F512F5137812121AF97512EE751302783E
:10315C0012121AF99002EF121B1074071218C212F5
:10316C001B10EEF9AC0EAD0F851082851183123653
:10317C005E1208A2740912188CE9F5096003023278
:10318C0052E508703FE4F50EF50F780E121AF97C33
:10319C00FF7DFF790985108285118312365E120836
:1031AC000C740212188C123982700D74041218C22D
:1031BC0012328979110232869002EEE024029002DA
:1031CC00F2F080149002F2E0FA9002EEE079002422
:1031DC00025001096A497072A8089002EEE0FAE800
:1031EC002AFAE43400FBEE9AEF9B405A851682854E
:1031FC001783E0C0E09002F3123038D0E0F00508FD
:10320C00851682851783A3E0C0E0089002F3123084
:10321C0038D0E0F005089002EE1245F6121AF912B9
:10322C0045EFA808123929121316740212188C9043
:10323C0002EEE02508F50874FF650C700474FF6558
:10324C000D60030230A1E508601F9002F2E0F5F07A
:10325C00E508841232A6120470E960099002F31298
:10326C00365E1213A079008011E509700375090A06
:10327C0074041218C2123289A90902391F123AC4F5
:10328C00E50CF0A3E50DF022A3A3124881AA0CAB28
:10329C000D22A3A3EAF0A3EBF0229002F1F07CF153
:1032AC007D028510828511831236622274EC12180D
:1032BC00E674FC121876123DC574021218DC123634
:1032CC005812073A8A0C8B0DEA450D7003023390A5
:1032DC001233A0A818A919881089117810121AF99C
:1032EC007CFF7DFF790B85088285098312365E127F
:1032FC00080C740212188C123496700C850A828594
:10330C000B8312399302339D8E828F83A3A3A3A3C5
:10331C00E0F5127812121AFDE4F512F51378121278
:10332C001AF97512F17513027812121AF978101233
:10333C001AF974091218C2121B1074091218C2E07F
:10334C00F9AC0CAD0D85088285098312365E120826
:10335C00A2740912188CE9FE70157CF17D028508A7
:10336C008285098312365E120476E9700980207416
:10337C00166E70027E009002F212365E1213A0EEF0
:10338C007004800B7E01850A82850B83123CB2EEA1
:10339C00F9023CC7EE2402F508E43FF5092274EC6F
:1033AC001218E674FC121876EAFEEBFF8C0E8D0FE9
:1033BC00EE2405F508E43FF50974021218DC8508C3
:1033CC008285098312365E12073A8A0C8B0DEA4508
:1033DC000D7003023486EE2402F50AE43FF50BA8C7
:1033EC0018A919881089117810121AF97CFF7DFF21
:1033FC00790D12365812080C740212188C1234966D
:10340C00700B850882850983123993807A8E828F9E
:10341C0083A3A3A3A3E0F5127812121AFD850882E8
:10342C00850983A3A3121B107512F1751302781270
:10343C00121AF97810121AF974091218C2121B1008
:10344C0074091218C2E0F91236541208A274091247
:10345C00188CE9FE700F7CF17D0212365812047C38
:10346C00E97009802074166E70027E009002F212D0
:10347C00365E1213A0EE7004800B7E0185088285E7
:10348C000983123CB2EEF9023CC712369DF510A32B
:10349C00E0F511EA45112274E81218E674FE1218D0
:1034AC00768A168B178C148D15EA2405F50CE435E9
:1034BC0017F50DEA2402F50EE43517F50F850E828B
:1034CC00F58312365E12054E8A088B09750B007C4B
:1034DC00037D0079007AF17B0212132E750A00E548
:1034EC000814F5100424FFF508E50934FFF50980EC
:1034FC00549002F1E0FA9002EEE0F8EA28F8E43495
:10350C0000F9E50898E50999500D9002F1E0F8E50D
:10351C0010C3989002EEF0E0F512751300781212B9
:10352C001AF91245EF9002F2E02AFAA3E03400FBFC
:10353C00121316740212188C9002EEE0F89002F13D
:10354C00E028F0050A850C82850D83A3A3123F6940
:10355C0040030236399002F1E0C39508E495094026
:10356C0003023639AE0AEE2EFEE433FF123678AC87
:10357C0018AD1912460AE439FB12073A8A128B135A
:10358C00AC12AD13EC4D701B750B01123668123C6E
:10359C00B69002F2122BB560031213A0A90B7402A1
:1035AC00023921851682851783A3A3A3A3E0F50B0B
:1035BC00780B121AFDE4F512F5137812121AF9753C
:1035CC0012EE7513027812121AF99002EF121B10F8
:1035DC0074071218C2121B10A910850E82850F8356
:1035EC0012365E1208A2740912188CE9F50B709B46
:1035FC009002F212368D60030234FDE4F512F513DD
:10360C007812121AF97CFF7DFF790F850E82850FD7
:10361C008312365E12080C740212188C12369360E8
:10362C00030234FD1236681239970235AA7CF17DFB
:10363C0002850E82850F8312365E120482E96003C6
:10364C0002359D79000235AAAC0CAD0D850A828538
:10365C000B8312366222E0FAA3E0FB22123678E0EA
:10366C00FAA3E0F9EA85148285158322850C8285FC
:10367C000D83E02EF8A3E03FF98882898322900223
:10368C00EF124790E8492212369DF8A3E0F9E84979
:10369C00229002F2EAF0A3EBF09002F2E02274E83E
:1036AC001218E674FA12187674041218C21232A0A8
:1036BC008C168D1774041218C2E02405F50EA3E0C5
:1036CC003400F50F74041218C2E0240212393512BA
:1036DC00365E12054E8A0A8B0B7F007E00A818A955
:1036EC0019880889097808121AF9850E82850F83C2
:1036FC00A3A3A3A3E0F5088E097808121AF9E50E26
:10370C002405F508E4350FF5097808121AF9850E29
:10371C0082850F83A3A3123965120734740612181D
:10372C008C8A0C8B0D8029123956F00F123956F0F9
:10373C000F9002EE123CA1121AF91245EFEFF8129B
:10374C003929121316740212188C9002EEE02FFF16
:10375C00E50C450D70030237E58518828519831237
:10376C003DD7A3A3A3E0F985148285158312365E99
:10377C00120722E9FEE50C2404F510E4350DF511D1
:10378C00EE705074041218C212395CF508780812E5
:10379C001AFDE4F508F5097808121AF97508EE75A2
:1037AC0009027808121AF99002EF121B1074071212
:1037BC0018C2121B10E50A24FAF9AC0CAD0D8514D5
:1037CC008285158312365E1208A2740912188CE9D0
:1037DC00FE6039123972123CB5EF700302390C904D
:1037EC0002F2E0F5F0EF849002F1F07CF17D0285BD
:1037FC00148285158312365E120488E960099002E2
:10380C00F312365E1213A0790002391F8F08EF7085
:10381C003BE4F512F5137812121AF97CFF7DFF794F
:10382C001185148285158312365E12080C740212EF
:10383C00188C123982700912397212399602391F9A
:10384C009002EEE024049002F2F080359002EEE05B
:10385C00F89002F2E0FAE82404FCE43400FDEC6A8F
:10386C004D60030237EBE50A24FAFAE50B34FFFB53
:10387C00E50828F8E43400F9EA98EB99500302378C
:10388C00EB851082851183E0C0E09002F3E02FF805
:10389C00A3E034008882F583D0E0F00F8510828598
:1038AC001183A3E0C0E0123943D0E0F00F74021290
:1038BC0018CC880889097808121AF974021218C2EF
:1038CC00121B10850E82850F8312329412074074DE
:1038DC000412188C8A0C8B0DEA450D7003023733D9
:1038EC0074021218C2E0C0E0123943D0E0F00F7439
:1038FC00021218C2A3E0C0E0123943D0E002373BF9
:10390C00EE70027E0A850E82850F83123978123C86
:10391C00B5EEF9740612188C7F100219B89002F3E8
:10392C00E028FAA3E03400FB22F514A3E03400F500
:10393C0015851482F58322123947229002F3E02F69
:10394C00FAA3E034008A82F5832212394774FF22ED
:10395C00123AC4A3A3A3A3E022124881850E828548
:10396C000F8312366222851082851183124790854F
:10397C001682851783229002F3EAF0A3EBF09002F3
:10398C00F3124790E84922123CBBE8F0A3E9F07926
:10399C00112274EA1218E674FE1218768A088B0942
:1039AC008C128D13EA2405FEE43509FFAC18AD1911
:1039BC008E828F8312365E12073A8A0C8B0DEE24A0
:1039CC0006F50EE43FF50FEA450D7003023A96E555
:1039DC00082402F50AE43509F50B8A828B83A3A32C
:1039EC00A3E0A2E5502885188285198312365E1251
:1039FC0008968A108B11EA45116020791212365400
:103A0C008510828511831218E4E9F50C707F850E00
:103A1C0082850F83E0600979528011750C0E806DE0
:103A2C00850882850983A3A3A3A3E0F9E4F508F52F
:103A3C00097808121AF98E828F83A3A3E0F508780F
:103A4C0008121AF98E828F83A3A3A3121B108E82E5
:103A5C008F831245F21236581208A8740612188C6D
:103A6C00E9F50C7011850E82850F83E0702D1236EE
:103A7C005812048E80257416650C7011750C007428
:103A8C00181218C2123AC0E48010750C0112478843
:103A9C00851282851383E8F0A3E9F0850E82850FE9
:103AAC0083E0600479008002A90C740212188C7FE8
:103ABC000E0219B8123AC422E0F8A3E0F58388820A
:103ACC002274EC1218E674F71218768A0A8B0B8C97
:103ADC00108D11EA2405FEE4350BFF750C00AC18B3
:103AEC00AD198E828F8312365E12073A8A088B09C3
:103AFC00EA45097003023C8CE50A2402F50A5002DF
:103B0C00050B8A828B83A3A3A3E0A2E5502F851813
:103B1C008285198312365E1208968A0C8B0DEA4543
:103B2C000D604F7912AC08AD09123658850C8285A0
:103B3C000D831218E4E9F50C6003023C8F850A82B0
:103B4C00850B83E0F508A3E0F509AA08FB12088AA7
:103B5C00EA4B70197AFF7BFF12088AEA4B7003025A
:103B6C003C828A828B83E508F0A3E509F075080096
:103B7C008008750C0E023C8F05089002EBE0F8E50E
:103B8C0008C3984003023C8285080E750F0074032D
:103B9C00780E1218638A828B83A3A3E0250EF8A3F8
:103BAC00E0350F12405670D08E828F83123CAA12D1
:103BBC0032A08E828F83A3A3123CAA12329EEE24D3
:103BCC0004F508E43FF509850882F583E0888289CD
:103BDC0083A3A3A3A3F0A3E4F0EE2405F50EE43F26
:103BEC00F50F850E82F583123CAAA3A3A3A3123270
:103BFC009E7512077513007812121AF9EEFCEFFD80
:103C0C0074041218D4121316740212188CE4F512E0
:103C1C007812121AF9850882850983E0FC7D0079F7
:103C2C001712365812080C740212188C74071218DA
:103C3C00C21232A074071218C2E0FA4B603D85081C
:103C4C0082850983123CA1121AF9850E82850F8395
:103C5C001245F2121316740212188C74021218DC2C
:103C6C00123658120494E9602674071218C21236E0
:103C7C005E1213A08019750C098008750C11800355
:103C8C00750C01124788851082851183123CB5A9E9
:103C9C000C74098028E0F5087509007808221236A2
:103CAC00628882898322123CBBE8F0A3E9F022E00F
:103CBC00F8A3E0F9850E82850F8322740412188C08
:103CCC007F0C0219B874EC1218E6123DC575100081
:103CDC00EE2402F50CE43FF50D850C82F5831236CB
:103CEC005E12088A8A088B09EA45097003023DA90D
:103CFC00850A82850B83E064016003023D9EAC085B
:103D0C00AD09AA0AAB0B12087EE9606E85088285A4
:103D1C00098312302BEE2406F50AE43FF50B8E8254
:103D2C008F83A3A3121B108E828F83A3A3A3A31232
:103D3C001B10850A82850B83121B1079188E828FBB
:103D4C0083123DD712365E1208A8740612188CE93D
:103D5C00F8741668700B850A82850B83E4F0A380D7
:103D6C0014E860128E828F8312365E850E82850F68
:103D7C0083EAF0A3EBF088108018780E121AF9ACD5
:103D8C0008AD09EEFAEFFB120884740212188CE9E4
:103D9C00F510AA08AB09120890E510700E850C827C
:103DAC00850D8312365E12049A80097416651070A4
:103DBC0003751000A910023CCCEAFEEBFF8C0E8DB3
:103DCC000FEE2405F50AE43FF50B22124881850C11
:103DDC0082850D832274EA1218E6750800750900B5
:103DEC007E007F00750A00EC2402F510E43DF5110D
:103DFC008035EC65087003ED65096003023E96881A
:103E0C00828983A3A3E06A7003A3E06B707C888231
:103E1C008983A3A3A3A312478CEE28FEEF39FFEAF4
:103E2C0028FAEB39FB050A123F66503A850A0C75E5
:103E3C000D007403780C121863851082851183129F
:103E4C003F59124056601FE508450970A58C088D36
:103E5C00098882898312302988828983A3A3E02E62
:103E6C00FAA3E03F80BEE50AC394025003023F541C
:103E7C00750800750900EE4F6010EEFAEFFB121397
:103E8C009A8A0E8B0FEA450F70057900023F567522
:103E9C000B00023F29850B0C750D007403780C1276
:103EAC001863851082851183E0250CF50CA3E03591
:103EBC000DF50DE50C2406F514E4350DF5158514FA
:103ECC0082F58312405B6042E50C2404F512E43564
:103EDC000DF513851282F583121B10E50E2508FAD9
:103EEC00E50F3509FB121316740212188C85128219
:103EFC00851383E02508F508A3E03509F509851439
:103F0C008285158312365E1213A0E50B600D7C08BA
:103F1C007D007900AA0CAB0D12132E050BE50BC31B
:103F2C00950A5003023EA185108285118312478C9D
:103F3C0088828983A3A3A3A3A3A3E50EF0A3E50F13
:103F4C00122BBCEEF0A3EFF07901023ABB123F5DED
:103F5C0022E0250CF8A3E0350D229002EBE0F8E509
:103F6C000AC3982274F01218E68A0E8B0F8C0A8DF5
:103F7C000B750D00750C0080507916EE2406F508B3
:103F8C00E43FF5098E828F83A3A3121B108E828FC0
:103F9C0083A3A3A3A3121B10850882850983121B7C
:103FAC0010850E82850F83A3A312365E1208A874A7
:103FBC000612188CE9F50D7416650D706C85088267
:103FCC00850983E4F0A3F0050C9002EBE0F8E50C16
:103FDC00C3985066AA0C8A087509007403780812F5
:103FEC001863850A82850B83A3A31240A5E8FEE91A
:103FFC00FF8E828F8312405B6040EA2401F508E457
:10400C003400F5099002EBE065087002E5096014D4
:10401C0088828983A3A3A3A3A3A3A3A312368D6031
:10402C0003023F857918023F87E9609B1247887429
:10403C00101218C212404D123CB5A90D7F0802197E
:10404C00B8E0FAA3E0F5838A8222F9888289831288
:10405C004881EC4D2274F61218E67C0080010C901D
:10406C000348E0F8ECC398501E8C087509007402E4
:10407C00780812186312409AE06A7003A3E06B7020
:10408C00DDE8FAE9FB80047A007B0002413D9002F6
:10409C00E91240A58882898322E02508F8A3E0353F
:1040AC0009F92274F21218E68A088B09750A008045
:1040BC00278E828F83A3A3A3A3122BB360031213A7
:1040CC00A07C087D007900EEFAEFFB12132E8E8295
:1040DC008F83E4F0A3F0050A123F665027850A0C83
:1040EC00750D007403780C1218638508828509839A
:1040FC00A3A3E0250CFEA3E0350DFF8E828F831267
:10410C00368D70AD85088285098374FFF0A3F002AB
:10411C00487574F61218E612083C8A828B83E58285
:10412C00458370067A007B008007A3A3A3A31236F5
:10413C005E7F020219B874F41218E689088C828D1D
:10414C0083E06402703C12472BFEA3E0F9EEF87496
:10415C00026870037429697029750A02750B00785E
:10416C000A121AF974101218C2121B1074101218B9
:10417C00C2121B10A9081211EA740612188CE9F964
:10418C0080027901022BF074E81218E674FB121805
:10419C0076E9851882851983F08A168B17ECFEED6B
:1041AC00FF7510008E828F83A3A3A3E0A2E4502D91
:1041BC00741D1218C212365E1208968A828B83E521
:1041CC0082458370030245CA790AEEFCEFFDAA16FC
:1041DC00AB171218E4E9F51060030245CD741F12F9
:1041EC0018C2E0F508A3E0F50974211218C2E0F535
:1041FC000AA3E0F50B74231218C2E0F50EA3E0F548
:10420C000F8E828F83E06402600302456BA312471A
:10421C008C850882850983A3858212858313EE24FD
:10422C0006F50CE43FF50D8882898312460AF514D5
:10423C00E439F5157814121B830100002801286D50
:10424C00420700022832430328A04200296144019E
:10425C00298C4402292D4403296144042905456B0A
:10426C0045E50E450F6003024566850C82850D837E
:10427C0012478CE8FAE9FB8A828B83E0850A8285F7
:10428C000B83124615121AF98A828B83A3E0FCA3C6
:10429C00E00244EFE50E450F6003024566850A8295
:1042AC00850B837401F01245FF850882850983F024
:1042BC007C007D008E828F83A3A3A3A3E02401FA4C
:1042CC00A3E03400FB12073AEA4B60408A828B83EE
:1042DC00E02402F8850A82850B83E028F0EA2404A6
:1042EC00F8E43BF988828983E08512828513831276
:1042FC004623124615121AF98A828B83A31245F2B1
:10430C00E5082403FAE43509FB0244F4850A8285A6
:10431C000B83E02404F07C047D007900AA12AB131B
:10432C0012132E0245CDE50E450F600302456612B1
:10433C0045FFFEA3E0FF850A82850B837404F0EE33
:10434C00850882850983F0EF851282851383F074CA
:10435C00031218DCEEFAEFFB12073A8A0C8B0DEA0B
:10436C00450D70030244108A828B83A3A31230295B
:10437C0074011218CC880E890F780E121AF9740574
:10438C001218C2121B107CFF7DFF1207407404121E
:10439C00188C8B0FEA450F7033850C82850D8312B8
:1043AC0045F6121AF9850C82850D83A3121B107C1D
:1043BC00027D007AB57B9012053C740412188CE9CE
:1043CC00700A74011218C274FFF0A3F08E828F83EE
:1043DC00E064027039750C02750D00780C121AF934
:1043EC008E828F83A31245F2E5082404FAE4350982
:1043FC00FB121316740212188C850A82850B83E04B
:10440C002402800974011218C2EEF0A3EFF07401BB
:10441C001218C21245E474011218C21245DB02458F
:10442C0060E50E450F6003024566850C82850D83A1
:10443C0012487AAA16AB171211F0850A82850B83E3
:10444C007402F0850882850983EAF085128285134F
:10445C0083EB024563E50E450F600302456612458A
:10446C00FFF8A3E0F9850A82850B837402F0E885D6
:10447C000882850983F0E9851282851383024563DE
:10448C00850C82850D8312365E121310EAFAF8C37E
:10449C00950EE4950F405CE8650E450F70047A00AC
:1044AC008021851882851983E0FCE50E2CFCE4350F
:1044BC000FFDC3EC98ED94005003E08005E50ECAA7
:1044CC00C39AFAEA850A82850B83F08A0A750B0077
:1044DC00780A121AF9850C82850D83E0250EFCA34F
:1044EC00E0350FFDAA08AB09121316740212188CD2
:1044FC000245CD7510070245CDE50E450F705B8565
:10450C000C82850D8312478C850A82850B83740778
:10451C00F0888289831245DC1245D4E085128285AD
:10452C001383F0E82402FAE439FB8A828B83124568
:10453C00E48A828B831245DBA3A3122BBB1245E9C1
:10454C00F0E82405F8500109888289831245E9A313
:10455C00124623A3A3A3A3F0806775100B8062748B
:10456C001D1218C212365E12083C8A828B83E582B9
:10457C004583604A12478C880C890DE8450D603ED6
:10458C0074251218C2E0F5107810121AFD780E126C
:10459C001AF9780A121AF97808121AF9740712180B
:1045AC00C2E0F9EEFCEFFDAA16AB17850C82850D67
:1045BC00831218E4740712188CE9F5108003751037
:1045CC000EA9107405023921F088828983A322A3D5
:1045DC00E08508828509832212462AF02212462A97
:1045EC00A3A3229002EF12488122E0F50E750F0072
:1045FC00780E22850C82850D83123AC4E022E0FAF3
:10460C00A3E0F8E4C8F9EA2822F08A828B83E0F56B
:10461C000A750B00780A221245D412462A22E0852C
:10462C000882850983A3A32274EE1218E674FE1285
:10463C0018768A088B09ECFEEDFF890AAC18AD19C7
:10464C00EEFAEFFB12073A8A0C8B0DEA450D70035C
:10465C0002471C85188285198312365E12083C8A23
:10466C00828B83E58245837003024717A3A312470D
:10467C008C880E890FE8450F7003024717741412CB
:10468C0018C2E0F510A3E0F511E50AF50B780B1252
:10469C001AFD74191218C2121B107810121AF97420
:1046AC001B1218C2E0F9AC0CAD0DAA08AB09850EB3
:1046BC0082850F831218E4740512188CE9F50B70BF
:1046CC005274FE650A604C850C82850D83E0640291
:1046DC00704112472BFAA3E0F9EAF87402687003F0
:1046EC00742969702E85108285118312460AF50C87
:1046FC00E439F50D780C121AF9EEFCEFFDAA08ABB3
:10470C00091208C0740212188C8008750B0E8003F5
:10471C00750B01A90B740212188C7F0A0219B8A32D
:10472C0012479088828983E02274F61218E674FE90
:10473C00121876740C1218C212478CE885188285F0
:10474C001983F074011218C2E9F0E4F508F5097840
:10475C0008121AF97508027808121AF9740412185A
:10476C00CC880889097808121AF979FE1208A874FD
:10477C000612188C740212188C02413D8E828F83A3
:10478C0012479022E0F8A3E0F92274F71218E6EA37
:10479C00FEEBFF89089003061245F21211F0EA5461
:1047AC0002600BA908EEFAEFFB12072E80027901CA
:1047BC007F010219B874F21218E674FE121876EA28
:1047CC00FEEBFF890A7401650A60147402650A60C5
:1047DC00030248707901120ACAE96003024870EEBC
:1047EC00FAEFFB12088AEA4B6003120890A818A98A
:1047FC0019880889097808121AF9750802750900D0
:10480C007808121AF97508AD7509907808121AF91A
:10481C007CFF7DFF7A017B00120734740612188C22
:10482C008038850882850983A3A3A3A3A3A3124878
:10483C007AEEFAEFFB1211D8E4F50CF50D780C12A8
:10484C001AF974021218C2121B107CFF7DFFAA0801
:10485C00AB09120740740412188C8A088B09E508FE
:10486C00450970BE740212188C7F060219B8123AF0
:10487C00C412488122E0FCA3E0FD2274F41218E675
:10488C008A088B09ECFEEDFF9015CDE0F4604B7AB5
:10489C00097B00121340EA4B60408A828B8374B10F
:1048AC00F0A3E41248E9F08A828B83A3A3E508F015
:1048BC00A3E5091248E9A3EEF0A3EFF0740C12186B
:1048CC00C212478C8A828B83A3A3A3A3A3A3A31294
:1048DC003CB59015CDE0F912134C022BF0F08A8206
:1048EC008B83A3A3A3A32274F01218E674FA1218F4
:1048FC00768909ECFEEDFF7508008A0A8B0B780AA5
:10490C00121B3D000410194B364954496E49864917
:10491C00A449BC49DF49F7490B4A354AB04AC14A58
:10492C00D84AF34A194B194B4B4A74016509600379
:10493C00024B148E828F83E0F8C394034003024B26
:10494C0014E89016B9024AF0740265096003024B30
:10495C00148E828F831252779016BAE8F0A3E90274
:10496C004AF0740165096003024B14124B41400379
:10497C00024B14E890072C024AF07401650960039D
:10498C00024B148E828F83E0F8C394054003024BD4
:10499C0014E890072D024AF0740165096003024B7C
:1049AC0014124B414003024B14E890072E024AF0BC
:1049BC00741065096003024B14750A10750B0078AE
:1049CC000A121AF97A2F7B07121316740212188C1A
:1049DC00024B3A740165096003024B14124B4140BF
:1049EC0003024B14E890073F024AF074016509601A
:1049FC0003024B148E828F83E09016BD024AF07432
:104A0C000465096003024B148E828F83780C121795
:104A1C003A909053780C12156D5003024B1490077A
:104A2C0041780C121749024B3AE96003024B1412FD
:104A3C0006D4E9700512119C80559007D4806174DE
:104A4C000765096003024B14750A06750B00780A9A
:104A5C00121AF98E828F83A3AC82AD837402121862
:104A6C00D412131C740212188C7C007D00AA18AB93
:104A7C00198E828F83E0F9121148E9FEC3940A4023
:104A8C0003024B371206D4E9700CEEF91211A2791D
:104A9C0050121460806D74D52EF582E43407F583C2
:104AAC007401804074016509705E124B415059E8E5
:104ABC00900740802F74016509704D8E828F83E0C2
:104ACC00F8C3940A5042E89016BC8018740165092A
:104ADC0070368E828F83E0F874F928C3940A5028BC
:104AEC00E89016BEF0804774016509701B9007D3DF
:104AFC00E0F88E828F83E09007D3F0E87030E064AA
:104B0C0001702B12119080267508188021C3EA942D
:104B1C0027EB9400501574026509700F8E828F83F9
:104B2C00125D57120554E9F5088003750802A908AF
:104B3C007406024E658E828F83E0F8C3940222A91C
:104B4C0008800312188C7F040219B874F01218E64E
:104B5C0074B11218768C0A8D0B908FEA742012188F
:104B6C00DC740612178974201218DC121148E9FF44
:104B7C00745F1218C2E0F509EFC3940A4003024CAB
:104B8C00D975F006EFA4F50874411218DC7A0E748E
:104B9C00202508F912145AE97009744D1218C2E054
:104BAC00FE80027E009016B9E064027005750E015D
:104BBC008003750E007408650970047422800274F9
:104BCC00212508F50D7C1B7D00790074261218D464
:104BDC0012132E74261218DC7A1BA90D12145AE922
:104BEC00702D74401218C2E024F9C3940A5020E5C9
:104BFC000EF50D780D121AFD74271218DCEEA2E0DA
:104C0C00E433F9AA0AAB0B1205F6740112188C7C6A
:104C1C00147D007900740C1218D412132E740C121B
:104C2C0018DC7A1074242508F912145AE970347CB3
:104C3C001079FF740C1218D4121394E97025741C9B
:104C4C001218C2AC82AD837A0474252508F91214AB
:104C5C005A740C1218DCEEA2E0E433F9AA0AAB0B7E
:104C6C001205DEAC18AD197A0C74702FF912145AA7
:104C7C00E97049AA18AB191211787F00EF75F0038F
:104C8C00A4F8A9F0851882851983E58228F8E583B4
:104C9C0012542E12560F601D88828983A3A3E0F54F
:104CAC000E750F00780E121AF9AA0AAB0B1208AE89
:104CBC00740212188C0FEFC3940440C0EEA2E150A2
:104CCC000C90072BE0F9AA0AAB0B1208B47404651C
:104CDC000970289016B9E0640270207A0090073FA2
:104CEC00E060027A0190072CE0600478048002787E
:104CFC0000E84AF9AA0AAB0B1206AA7900744F0213
:104D0C004E6574F71218E61206D4E9704F9007D46A
:104D1C00E06401701512119C9007D4E4F07C0AFD3C
:104D2C00F97AD57B0712132E802A750800A808740F
:104D3C00D528FEE43407FF8E828F83E06401700B6C
:104D4C00A9081211A28E828F83E4F00508E508C32E
:104D5C00940A40D97950121460121190025746747B
:104D6C00F01218E674F0121876EAFEEBFF8C088D40
:104D7C0009750A0AE9600C14600914603B14607D23
:104D8C00024E6112118AE9F50AC3940A4003024EDD
:104D9C0061E50845097003024E61750C06750D003E
:104DAC00780C121AF9EEFCEFFDAA08AB09121316D7
:104DBC00740212188C024E61750C00750E06750F7C
:104DCC0000780E121AF9EEFCEFFDE50C75F00EA44E
:104DDC00F8A9F0744D28FA740739FB1213287402E1
:104DEC0012188CE9700B050CE50CC3940A50668004
:104DFC00CA850C0AE50AC3940A505A8049750C00FE
:104E0C00AC18AD197A1075F006E50CA42423F91230
:104E1C00145AE9701C7C1079FFAA18AB1912139460
:104E2C00E9700EEEFCEFFDAA18AB191205BAE96099
:104E3C000B050CE50CC3940A501B80C4850C0AE5C9
:104E4C000AC3940A500FE50845096009AA08AB0982
:104E5C00A90A121184A90A741012188C7F0802195D
:104E6C00B874F41218E6890975081574FF6A700392
:104E7C0074FF6B70277E00AC097A027B00EEF9128E
:104E8C001166E960037508000EEEC3940A40E8E56C
:104E9C000960537AB47B11120AEE804A120ABE8A58
:104EAC000A8B0BAE0AAF0BEE4F60387C007D00EE28
:104EBC002405FAE43FFB8E828F83A3A3A3A3E0F91E
:104ECC00121148E9F9C3940A500CAC097A027B0020
:104EDC00121166750800E509600CEEFAEFFB121171
:104EEC00B48003750814024B4B74F21218E6ECFEF6
:104EFC00EDFF750815740E1218C2E0F50AA3E0F563
:104F0C000B74FF6A700374FF6B7021750900AC0A97
:104F1C00AD0BEEFAEFFBA90912116CE960037508F1
:104F2C00000509E509C3940A503F80E2120ABE8AC3
:104F3C00828B83E5824583602D7C007D00E5822495
:104F4C0005FAE43583FBA3A3A3A3E0F9121148E906
:104F5C00F9C3940A5013AC0AAD0BEEFAEFFB121125
:104F6C006C7508008003750814A9087F060219B82F
:104F7C00C082C083900745EAF0A3EBF090072BE0CA
:104F8C00FC7D007A267B0012055490072BE0F91269
:104F9C000818025A6074EE1218E674EC1218768A2D
:104FAC00088B09EA240CF510E43509F5118A828B7B
:104FBC0083A385820C85830DEA2405F50EE435095F
:104FCC00F50FEA2409F50AE43509F50BEA2403FE8A
:104FDC00E43509FF8A828B83A3A3E024FA700302D1
:104FEC00526524FD700302518514700302507F1426
:104FFC00601024FD70030251681470030251BD024D
:10500C00526B125D5D6044E0F583888212527788A2
:10501C000C890DE8450D6033851082851183E0F510
:10502C000E780E121AFDEA240BF582E43509F5838D
:10503C00E0F9125D510A0A0AEFFB850C82850D839B
:10504C001218E4740112188C02526B850A82850BBB
:10505C0083121B109007411217581205F07402129C
:10506C00188CE9700302526B7901850A82850B83D7
:10507C00025235750A00850C82850D83E0600302AF
:10508C005135850E82850F83E0A2E0400302513535
:10509C009007DF125D6060030251357C0E7D007954
:1050AC0000AA18AB1912132E851082851183125A7F
:1050BC002BEA4B6010750A06750B00780A121AF968
:1050CC00EA2410801B125A27120ABEEA4B70030204
:1050DC00526B750A06750B00780A121AF9EA240548
:1050EC00FCE43BFD74021218D4121316740212184D
:1050FC008C850E82850F83E0A2E25004D2F08002F0
:10510C00C2F0A2F0E433F8740C1218C2125BDF1276
:10511C00117EE970117A027B0090072BE0F91213D3
:10512C0070790002526D750A15125D5D70030252A2
:10513C006B12528C700302526B850C82850D83E0CE
:10514C00FC790112527D1218E4E50A700302526BCD
:10515C00FC7903125A271259E2025260125D5D70FB
:10516C000302526B12528C700302526B850C8285B7
:10517C000D83E0FC790202525D7C007D00EA240480
:10518C00FAE43509FB8E828F83E0F9121148E9F8B5
:10519C00C3940A400302526BE508240AFCE4350967
:1051AC00FD7A0475F006E8A42425F9121454025271
:1051BC006B125A27900740E060079016BCE0F9800C
:1051CC006B9016B9E0700479058061120ABE8A0CE6
:1051DC008B0DA80CA90DE849700302526BE824044E
:1051EC00F50CE439F50D850882850983A3A3A3A3E7
:1051FC00A3A3A3E0A2E05039850C82850D83E0F5D2
:10520C0008602E850A82850B83A3E05402702274F9
:10521C000E1218DCE82405FAE439FBA9081211482F
:10522C00E9700E79038E828F83125A2B1205EA8055
:10523C002EAC0EAD0F850C82850D83E0F9125A272A
:10524C001211C0125D5D601712528C60127C0079D5
:10525C000012527D1218E48006125A27121142795C
:10526C0001741412188C7F0A0219B8E0F8A3E0F943
:10527C00228E828F83E0FAA3E0FB88828509832249
:10528C001259F0F98909E845092274F51218E674E7
:10529C00F2121876EAFE8C0A75F006E9A42420F5C1
:1052AC0008AC18AD197A0EF912145AE970467C063E
:1052BC0079FFAA18AB19121394E97038740C1218F0
:1052CC00C2125A2BEAF8E50A6005EEC8488004EED3
:1052DC00F4C858F8EA687001EB6015740C1218C227
:1052EC00E8F0A3E4F0AC18AD197A0EA90812145426
:1052FC00790180027900740E12188C7F030219B8A0
:10530C0074F21218E674E6121876890A8A088B0968
:10531C00ECFEEDFF740C1218DC7A0E75F006E9A4A5
:10532C002420F912145AE960030253F17C0679FF28
:10533C00740C1218D4121394E960030253F17470B4
:10534C00250AF50BAC18AD197A0CF912145AE96050
:10535C00030253EDAA18AB19121178E50845097030
:10536C001D7C0C7900AA18AB19121394E970727C8D
:10537C000C7D007900AA18AB1912132E8051AC18B1
:10538C00AD19AA08AB091211728A0C8B0DA80CA9C5
:10539C000DE8497022EE4F604CAC18AD197A007BC9
:1053AC0000121172EAF8EBF9EA4B603988828983B2
:1053BC00E508F0A3E509F012546AFAEE6A7001EF01
:1053CC00601FEEF04F700888828983E4F0A3F0AA86
:1053DC0018AB19121178AC18AD197A0CA90B121460
:1053EC0054790180027900741A12188C024F777468
:1053FC00F71218E67E00EE75F003A4F8A9F0EC287D
:10540C00F8ED12542EE06A7003A3E06B7006E8FA14
:10541C00E9FB800B0EEEC3940440DB7A007B0002A8
:10542C00574639F9888289832274F71218E67C0072
:10543C00EC75F003A4F8A9F0EA28F8EB12542EE06E
:10544C00F4FEA3E0F4FF88828983EEF0A3EFF01260
:10545C00546AF4F00CECC3940440D5025746E8248B
:10546C0002F582E439F583E02274F41218E674F440
:10547C00121876EAFEEBFF8C088D099007DF125D9F
:10548C0060704FEE4F70030255EEEC45097003024D
:10549C0055EE12118AE99016BFF0C3940A40337589
:1054AC000B007C0679FFE50B75F00EA4FAABF074DB
:1054BC00472AFA74073BFB121394E9600302554F19
:1054CC00050BE50BC3940A40D9750A0AE50A901638
:1054DC00BFF09016BFE0C3940A40030255EE75F07E
:1054EC0006E0A4FB9007DF125D60705CEEFCEFFD44
:1054FC007A0E74202BF91214547C0C7D0079FFAABF
:10550C0018AB1912132EAC18AD197A0C9016BFE00B
:10551C002470F9121454750A0E750B00780A121ABD
:10552C00F9EEFCEFFD9016BFE01256A7121316749D
:10553C000212188C9007DFE508F0A3E509F079005A
:10554C000255F0850B0A8084E0C8240612560960C7
:10555C00197A1B74212BF91214541255F52406F5E3
:10556C0082E438F583E4F0A380D31255F5240A12B3
:10557C00560960107A1B74222BF91214541255F52B
:10558C00240A80DB1255F5240C12560960107A108F
:10559C0074232BF91214541255F5240C80C1125596
:1055AC00FE12560960307A1074242BF9121454121E
:1055BC0055FEF582E438F583E02410FCA3E03400BA
:1055CC00FD7A0475F0069016BFE0A42425F9121498
:1055DC00541255FE80899007D3E060031211C61255
:1055EC0011BA7901740C024B4F9007DFE0F8A3E07D
:1055FC00C8229007DFE0F8A3E0C8240822F582E473
:10560C0038F583125D57EC4D2274F41218E674F2DF
:10561C00121876EAFEEBFFE9C3940A5004EE4F70C1
:10562C000479028034AC18AD197A0E75F006E9A431
:10563C002420F912145AE9F508701C750A06750B2A
:10564C0000780A121AF974021218DCEEFAEFFB1247
:10565C001316740212188CA908740E024B4F74F4B2
:10566C001218E6EAFEEBFF750800750A06750B00CA
:10567C00780A121AF9EEFCEFFDE5081256A7121380
:10568C0028740212188CE96004A908800B0508E53F
:10569C0008C3940A40D4790A024B5275F00EA4F850
:1056AC00A9F0744728FA740739FB2274F71218E62C
:1056BC00750800E50875F00EA4F8A9F0744728FEEB
:1056CC00740739FFEEFCEFFD7A0E75F006E508A4C1
:1056DC002420F912145AE960297C067D0079FFEE2A
:1056EC00FAEFFB12132E7C067D0079FFEE2CFAE408
:1056FC003FFB12132EEE240CF582E43FF583E4F00D
:10570C00A3F00508E508C3940A40A89007D3E0600D
:10571C00031211C61211BA802174F71218E67E001A
:10572C007F007C06EF1256A779FF121394E97001E3
:10573C000E0FEFC3940A40EAEEF97F010219B87418
:10574C00F71218E67E00EEF91211A2E9F90EEEC37B
:10575C00940A5003E960EF80E174F31218E674CBFD
:10576C0012187689089016BFE06508701B7A017BC9
:10577C000090072BE0F91213767A027B0090072B2E
:10578C00E0F91213761211D275F006E508A4FF7435
:10579C00202FFE74271218DC7A0EEEF912145AE937
:1057AC00600302586D7C0679FF74271218D412130B
:1057BC0094E9600302586D7C0E7D0079FF7427120A
:1057CC0018D412132E7C1B7D0079FF740C1218D484
:1057DC0012132E7C0C7D0079FFAA18AB1912132E14
:1057EC0074271218DC7A0EEEF9121454E9FE740CBC
:1057FC001218DC7A1B74212FF9121454E9F5097470
:10580C000C1218DC7A1B74222FF9121454E9F50AC5
:10581C00740C1218DC7A1074232FF9121454E9F555
:10582C000B740C1218DC7A1074242FF9121454E92E
:10583C00F50C740C1218DC7A0474252FF91214541C
:10584C00E9FFAC18AD197A0C74702508F9121454D0
:10585C00E9F8E509450A450B450C4F48CE4EFE804C
:10586C00027E00EEF9743512188C7F050219B8749B
:10587C00F71218E6E990072BF012119002574674B4
:10588C00F21218E6EAFEEBFF5480700302594A90BC
:10589C00072BE0F91213588A088B09EA45097003A3
:1058AC000259437A01E5082405F50AE43509F50B9C
:1058BC00E5082404F8E43509F9880C890D8508827B
:1058CC008B83E02450603614600624E16058805DC0
:1058DC0088828983E070598508828B83A3A3A3A354
:1058EC00A3A3A3121B10125D518508828B83A3A363
:1058FC00125A2B121154740212188C80338882891C
:10590C0083E0641E700F79008508828B83A3A31239
:10591C005A2B12114E850C82850D83E0F9AA0AAB25
:10592C000B120812800AAA08121160E9FAEA600741
:10593C00AA08AB09121346EEFAEF6480802AEE54E3
:10594C00026028EE6402FE7C007D007A007B00126F
:10595C00117EE960047A0180027A027B0090072BA9
:10596C00E0F9121370EEFAEFFB8068EEA2E05055EE
:10597C006401F508EFF509125A001211CCE96033F5
:10598C00125D5D60291259F8125277E8FEE9FFEEBC
:10599C004F601B7C007901125A008E828F83121883
:1059AC00E47C007903125A001259E21218E4121125
:1059BC00D2800C7A017B0090072BE0F9121370AAAD
:1059CC0008AB09800E54046006EE6404FA80047A75
:1059DC00007B00024F77900745E0F8A31259F0F5D1
:1059EC00838882221259F8E0F8A3E022E0F583883C
:1059FC0082A3A3229007DF125D41E0FAA3E0FB2211
:105A0C007F020219B8C082C08390072BE0F98A820A
:105A1C008B83A3125A2B1208B480398E828F83E0A9
:105A2C00FAA3E0FB22C082C08374FF121876121115
:105A3C0096E9C39402851882851983400474028008
:105A4C0002740AF0AC18AD197A0179051206F274D9
:105A5C000112188CD083D08202013274F01218E635
:105A6C0074E8121876EAFEEBFF890A8C088D097C23
:105A7C00187D007900AA18AB1912132E851882858F
:105A8C001983EEF0A3EFF090072DE0C0E074021242
:105A9C0018C2D0E0F090072EE0C0E074031218C2D8
:105AAC00D0E0F09016BEE0C0E074171218C2D0E03F
:105ABC00F09016BDE0A2E0E433FCE0A2E15004D289
:105ACC00F08002C2F0A2F0E433F8E0A2E45004D279
:105ADC00F08002C2F0A2F0E433FAE0A2E55004D266
:105AEC00F08002C2F0A2F0E433F50E750F00E0A2D4
:105AFC00E65004D2F08002C2F0A2F0E433F50C754B
:105B0C000D00E0A2E25004D2F08002C2F074151233
:105B1C0018C2E054FEFEA3E0FFEE4CFCEFFDEC548B
:105B2C00FDFCE828F8EC48F8ED54FEF9EAFBE94BEB
