:020000040000FA
:1040000077DBFFFF0100007C42424242FFFFFFFFDF
:10401000FFFFFFFFFFFFFFFFFFFFFFFFFFFFFFFFB0
:10402000000102030405060708090A0BFFFFFFFF52
:1040300002449D025181FFFFFFFFFFFFFFFFFFFFD3
:10404000FFFFFFFFFFFFFFFFFFFFFFFFFFFFFFFF80
:10405000FFFFFFFFFFFFFFFFFFFFFF02583AFFFFD9
:10406000FFFFFF02581CFFFFFFFFFFFFFFFFFFFFE7
:10407000FFFFFFFFFFFFFFFFFFFFFFFFFFFFFFFF50
:10408000FFFFFF0251F7FFFFFFFFFFFFFFFFFFFFF3
:10409000FFFFFFFFFFFFFFFFFFFFFF0257F3FFFFE1
:1040A000FFFFFFFFFFFFFFFFFFFFFFFFFFFFFFFF20
:1040B000FFFFFF024FD701FF0000B40000280028D7
:1040C00000283075A000A000A000A0000008000893
:1040D000E001F000100010001000100010001000AF
:1040E00050005000500010001000D00700000000E9
:1040F00000000F00010005003075070010000100EE
:1041000081FF00000000FFFFFF8B5AA95A915ACD92
:104110005AFF02020208025000A0000000E8030259
:104120000A91010000F9900204910100006C15024F
:10413000FC90010000BE020204910100006D150216
:104140000290010000D4020204910100006E1502E9
:104150000691010000D6020204910100006F1502D1
:104160000891080000D702020491010000701502B6
:1041700018910100007115FF0100FF20020A910152
:104180000000F090020491010000D515021A910080
:104190000000000002FE90030000050317007B6191
:1041A0007B617B617B617B617B617B617B617B612F
:1041B0007B617B617B617B61636475645D6402022A
:1041C00002020202020202010D0000001001020AB6
:1041D00091010000F39002049101000018160210F2
:1041E0009101000022070204910100001916021239
:1041F00091010000968F0204910100001A1602142A
:10420000910100006E8F0204910100001B1602163E
:1042100091010000D98E0204910100001C160228B1
:1042200091010000EB8E0204910100001D16022690
:1042300091010000B58E0204910100001E160224B7
:1042400091010000C78E0204910100001F16022296
:1042500091010000608F0204910100002016021EEF
:1042600091010000211601E8030577100A1C020ADB
:1042700091010000ED90020491010000C716102E7C
:104280008E020000180802FE900300001A080202C5
:10429000910100007C8F020491010000C716103EBE
:1042A0008E020000190802FE900300001C080202A2
:1042B00091010000EE8FFFFFFFFFFF00013075034B
:1042C00002010600000000000000000000000000E5
:1042D000000000000000000000000000000000FFDF
:1042E000FF0600800CE803140953696D706C654289
:1042F0004C455065726970686572616C05125000BA
:104300002003020A000201060302F0FF53696D70E8
:104310006C6520424C452050657269706865726119
:104320006C4369000049690A43686172616374659E
:10433000726973746963203100024368617261635A
:10434000746572697374696320320008436861722E
:104350006163746572697374696320330010436824
:1043600061726163746572697374696320340002F9
:10437000436861726163746572697374696320353F
:1043800000020A91010000F69002049101000081F0
:1043900017022C9103000006150202910100008211
:1043A000170204910100009317022E9101000007EB
:1043B000150202910100009417020491010000A56A
:1043C000170230910200000815020291010000A6B8
:1043D00017020491010000B7170232910000000992
:1043E0001502FE900300000A15020291010000B8B8
:1043F00017020491010000C9170220910400000C6B
:1044000015020291010000CA17E5C754F84404F5EB
:10441000C779012200000080FB124409B9000302A1
:104420004487E479217808B800028004F709D8FCB1
:10443000E479297802B800028004F709D8FCE490F6
:104440000280789279138002F0A3D8FCD9FA781C04
:104450009040B67A01BA00028007E493A3F608DA26
:10446000F97A117B159040B7785379048015E4935D
:10447000A3AD82AE838A828B83F0A3AA82AB838DA5
:10448000828E83D8E9D9E77582F57583F7740312B4
:1044900044AF75821475834474001244AF75D00024
:1044A00075813F751A80751B02759F00024419C003
:1044B0009FF59FE473D09F22D083D082C09FE49366
:1044C000C0E0740193C0E0740293F59F22E066702F
:1044D0001008A3E066700A08A3E066700408A3E071
:1044E0006622C3E7960809E7960809E7960809E7F0
:1044F0009622C3E09608A3E09608A3E09608A3E0FE
:104500009622C00AC3E096F50A08A3E096420A087C
:10451000A3E096420A08A3E096450A7001D3D00AA8
:1045200022080808EAC0E0EBC0E086F0E7A4FA1829
:104530000986F0E7A42AFA180986F0E7A42AFA18EF
:104540000986F0E7A42AFA1986F0E7A4FBE5F02A29
:10455000FA190886F0E7A42BFBE5F03AFA19088669
:10456000F0E7A42BFBE5F03AFA18180986F0E7A467
:10457000C5F02BFBE43AFA1908E7C5F0C6A426F605
:10458000E5F03BFBE43AFA1886F0E7A4F6E5F0081C
:1045900026F6E43B08F6E43A08F6D0E0FBD0E0FA71
:1045A00022E4CFC0E0E4CEC0E0E4CDC0E0E4CCC083
:1045B000E075F020E626F608E633F608E633F6085E
:1045C000E633F6181818EC33FCED33FDEE33FEEF4E
:1045D00033FFC3EC9709ED9709EE9709EF97191987
:1045E00019400FFFEC97FC09ED97FD09EE97FE19B6
:1045F0001906D5F0BFECF709EDF709EEF709EFF76B
:10460000191919D0E0FCD0E0FDD0E0FED0E0FF2287
:104610006016080808C6C313C618C613C618C61302
:10462000C618C613C6D5E0EA227009080808226039
:1046300016181818C6C333C608C633C608C633C60C
:1046400008C633C6D5E0EA22E627F60809E637F6BB
:104650000809E637F60809E637F622E026F608A349
:10466000E036F608A3E036F608A3E036F622E026A8
:10467000F008A3E036F008A3E036F008A3E036F037
:1046800022C3E697F60809E697F60809E697F608C2
:1046900009E697F622C3E096F008A3E096F008A397
:1046A000E096F008A3E096F022E056F608A3E05664
:1046B000F608A3E056F608A3E056F622E056F00806
:1046C000A3E056F008A3E056F008A3E056F022E07D
:1046D000F608A3E0F608A3E0F608A3E0F622E6F069
:1046E00008A3E6F008A3E6F008A3E6F022E0FAA3A8
:1046F000E0FBA3E0FCA3E0FD22E0F8A3E0F9A3E0E7
:10470000FAA3E0FB22E8F0A3E9F0A3EAF0A3EBF0C0
:1047100022CAC0E0E6F0A308DAFAD0E0FA22CAC062
:10472000E0E0A3C582CCC582C583CDC583F0A3C517
:1047300082CCC582C583CDC583DAE6D0E0CA22C368
:10474000E498F8E499F91247808026C3E49AFAE4E1
:104750009BFBE920E7E9124780E498F8E499F92205
:10476000C3E498F8E499F9124780E498F8E499F9D9
:10477000C3E49AFAE49BFB22EB20E7CFE920E7E0D1
:10478000B90010BB0008E88AF084F8AAF022E4FB24
:10479000C8FA22EB70227B10C833C8C933C9335022
:1047A00007C39AC3DBF280069A50012ADBEAC833BA
:1047B000F4C8C933F4C9FA2275F008E4C833C8C98B
:1047C00033C933C99AC99B5004C92AC93BD5F0ECF7
:1047D000FBC833F4C8E4C9FA22600D08C6A2E71387
:1047E000C618C613C6D5E0F322600C08C6C313C6AC
:1047F00018C613C6D5E0F422700422600D18C6C393
:1048000033C608C633C6D5E0F41822251A10AF08FF
:10481000F51A400C151B8008F51A4002151BD2AF83
:104820002200C0D0251A10AF08F51A500C051B80C5
:1048300008F51A5002051BD2AFD0D022251AF582F6
:1048400010AF08F51A400C151B8008F51A40021528
:104850001BD2AF851B8322251AF582E4351BF58315
:1048600022251AF8E4351BF922251AFAE4351BFB38
:1048700022251AFCE4351BFD22E473251AC582C0EB
:10488000E0E51B34FFC583C0E0E51AC3958224F838
:1048900010AF0885831B85821A800885831B85825B
:1048A0001AD2AFCEF0A3E520F0A3780AE608F0A371
:1048B000DEFAEFF0A3E58124FAF8E608F0A3E608B3
:1048C000F0A3E608F0A30808E608F0A3E608F0A3C2
:1048D00015811581D0E0FED0E0F815811581158194
:1048E000E8C0E0EEC0E022251AC582C0E0E51B3436
:1048F000FFC583C0E0E51AC3958224F910AF08858F
:10490000831B85821A800885831B85821AD2AFCECD
:10491000F0A3E520F0A3780AE608F0A3DEFAEFF0B2
:10492000A3E58124FBF8E608F0A3E608F0A3080855
:10493000E608F0A3E608F0A315811581D0E0FED0CB
:10494000E0F815811581E8C0E0EEC0E022851B8308
:10495000851A82E0A3FEE0A3F520780AE0A3F6081A
:10496000DFFAE0A3FFE0A3C0E0E0A3C0E0E0A3C063
:10497000E0E0A3C0E0E0A3C0E010AF0885821A85A4
:10498000831B800885821A85831BD2AFD083D08297
:104990000244B5851B83851A82E0A3FEE0A3F520BF
:1049A000780AE0A3F608DFFAE0A3FFE0A3C0E0E0A6
:1049B000A3C0E0E0A3C0E0E0A3C0E010AF088582A0
:1049C0001A85831B800885821A85831BD2AFD0830A
:1049D000D08222C0D0251AC582C0E0E51B34FFC5B5
:1049E00083C0E0E51AC3958224F310AF0885831BCA
:1049F00085821A800885831B85821AD2AFC8F0A3EE
:104A0000E9F0A3EAF0A3EBF0A3790AE709F0A3D851
:104A1000FAECF0A3EDF0A3EEF0A3EFF0A3D0E0F0FA
:104A2000A3D0E0F0A3D0E0F0A3E520F0A3E5F0F000
:104A3000A322851B83851A82E0C0E0A3E0F9A3E0EE
:104A4000FAA3E0FBA3780AE0F608A3DFFAE0FCA3F0
:104A5000E0FDA3E0FEA3E0FFA3E0C0E0A3E0C0E030
:104A6000A3E0F5D0A3E0F520A3E0A3F5F010AF0894
:104A700085831B85821A800885831B85821AD2AFA5
:104A8000D082D083D0E0F8D0E03274048006740283
:104A900080027401C0E0F40412483CD0E0124711D7
:104AA000227404800474028000CCC0E0EDC0E0E514
:104AB0001AC39CCCAD1B50011D10AF068C1A8D1B68
:104AC00080068C1A8D1BD2AF12471ED0E0FDD0E0BD
:104AD000FC22D083D082E9C0E0E493A3C386F0C572
:104AE000F095F0F908E493A386F0C5F095F0700B0B
:104AF000E493A3C3994005E9048002A3E475F0029E
:104B0000A42582F582E5F03583F583D0E0F9E493BE
:104B1000A3C0E0E493C0E022D083D082ECC0E0EDFB
:104B2000C0E0E493A3FCE493A3FDED4C600D124BB5
:104B300064EC24FFFCED34FFFD80EFE493A3FCE480
:104B400093A3FDED4C600D124BA3EC24FFFCED3460
:104B5000FFFD80EFD0E0FDD0E0FCE493A3C0E0E4F3
:104B600093C0E022C0E0C3E49396087401939618C2
:104B7000400FE49366700808740193661870007023
:104B800019A3A3C3E49396087401939618A3A340B2
:104B90000DD0E0D0E0D0E0024B54A3A3A3A3A3A385
:104BA000D0E022C0E0C0F088F0E49366700808749A
:104BB000019366187000A8F0A3A3700BD0F0D0E0AA
:104BC000D0E0D0E0024B54A3A3D0F0D0E022FFFF0E
:104BD00074F61248E7EAFEEBFF8C0A8D0BEE2434E4
:104BE000F8E43FF9E8FCE9FD124D03E0FAEE243762
:104BF000F582E43FF583E0F8850AF0A4C885F00C5F
:104C0000850BF0A4250CF9EA28F8E439F97A257B1C
:104C100000124780EA8C828D83F0FA131313541F1D
:104C2000F8EE28F8E43FF9E8245DF582E439F583ED
:104C3000E0C0E074075AF8D0E0B800028004C31363
:104C4000D8FCA2E05003EA8020EE2436F582E43F4F
:104C5000F583E0F5F0EA84A8F0EE28F8E43FF9E8FF
:104C60002438F582E439F583E0F97F03024993742F
:104C7000F51248E7EAFEEBFFEE2434F582E43FF557
:104C800083E0C0E0124D03D0E0F08E828F83A3A3B7
:104C9000A3A3A3E0FAA3E0FB8E828F83A3A3A3A325
:104CA000A3A3A3E0FCA3E0FDECC39AF50CED9BF5F8
:104CB0000DEE247FF50AE43FF50B850A82F583E0CB
:104CC0006401702AEE2480F582E43FF583124AA540
:104CD000124D0D7402124821E960137CAF7D04EE81
:104CE000FAEFFB126097850A82850B83E4F0AC0C27
:104CF000AD0DEEFAEFFB124BD0E9F91257E57F0448
:104D0000024993EE2435F582E43FF58322C082C048
:104D100083851A82851B83E0F8A3E0F9C3EA9CEB44
:104D20009D5010C3EC98ED99401BC3EA98EB995045
:104D300014800EC3EA98EB994007C3EC98ED9940B4
:104D400004790180027900D083D08222EAC39CFAE0
:104D5000EB9DFB2274ED1248E7900375E064086058
:104D600005E06407702C9061C8E060269003A3E022
:104D7000F874FF68601CE875F00AA4C8AAF02AF964
:104D800074A528FE740339FF8E828F83A3A3A3E04A
:104D900070057900024EEDEE2468F510E43FF51140
:104DA000906060E0851082851183F075121F751385
:104DB00005750A00750B00E5D914F50CE5D9540307
:104DC000F50D601FEE2482F50EE43FF50F740365C8
:104DD0000D6059E50C6017EE2467F582E43FF5831A
:104DE000E0700B793DEEFAEFFB1260C780A49005EE
:104DF0001AE064016023850E82850F83E060047AE7
:104E00000480027A00E50CC39AFA95E0FB125F2356
:104E10008A0A8B0BEA450B700612632B024D9285B2
:104E20000E82850F83E070048A128B137A0080143F
:104E3000E5D9C0E0EAF8E51228F582E43513F583F8
:104E4000D0E0F00AEAC3950C40E6850E82850F8318
:104E5000E0602874FC250CF50C7812124A8EAC0C1C
:104E6000A90DEEFAEFFB1261757402124821E97088
:104E70000AAA0AAB0B1267F9024DE37403650D60D1
:104E800054850C0E750F00780E124A8EAC12AD13BD
:104E9000AA0AAB0B1261397402124821851082856F
:104EA0001183E0F87480687005750E7F8002880EAB
:104EB000E50EF50F780F124A92780D124A92A90C5E
:104EC000AC0AAD0B9003A3E0FA7B00125D5B7402A9
:104ED0001248218013900375E06408600BAC12AD9A
:104EE00013EEFAEFFB12620B12633779017F0C02AB
:104EF000499374F31248E774FC12480BEAFEEBFF87
:104F0000890BA2AFE433F50AC2AFEE2463F50CE4DB
:104F10003FF50D8010AA0CAB0D1260F11267F990ED
:104F200004B6E004F0850C82850D83E0F8A3E0F977
:104F3000E849602DE82402FAE439FBEA2402F50E80
:104F4000E43BF50F780E124A8E8A828B83E0FCA335
:104F5000E0F9EEFAEFFB1260E57402124821E96015
:104F6000B49004B6E0604D9004B7E0F89004B6E069
:104F7000C398500C7402650B703A9004B8E060342A
:104F80008E828F83A3A3A3A3E0851A82851B83123D
:104F90004FC47402124857E8124FC49004B5E02879
:104FA000F07402124871AA1AAB1B7901125DAF901E
:104FB00004B6E4F0E50AA2E092AF74041248217F3F
:104FC00006024993F0A3E4F09004B6E0F822FFFF54
:104FD0008521878522C622C0E074EB1249D3A2AF97
:104FE000E433F50AC2AF759B00906182E0A2E05005
:104FF00030E591A2E0502A7591FE7401652170217F
:1050000012516A126265125158124AA112558F74D8
:1050100004124821E96401700579011262BF124D42
:1050200054906182E0A2E5505DE591A2E55057758C
:1050300091DF900375E064076005E06408702F124B
:10504000516A74016521703E126265125158124A0C
:10505000A112558F7404124821E964017005790189
:105060001262BF7901EEFAEFFB124EF28018E06493
:105070000D7013900397E004F064287002E4F07A56
:1050800000E0F912633D906182E0A2E64003025124
:105090002DE591A2E6400302512D7591BF90037555
:1050A000E06405700812624D126259800312625367
:1050B0007521001262CBE9900376F079001262BF8D
:1050C0001260017A017B00900374E0F91267C990C5
:1050D0007803E06442705690051EE014F0704EC2F2
:1050E000AF1250E400782AD0E0F618D0E0F6E59F41
:1050F0005407F87005750FFF8003750F7FC4C0E07B
:105100007829E6F50C08E6550FF50D740B780C12AE
:1051100047E9D0E0250CF8906270E0A2E740F8E89B
:10512000C333906272F0906270E0D2E0F0906181DF
:10513000E0A2E35009E5E9A2E3500375E9F7A3E033
:10514000A2E75009E591A2E7500375917FE50AA215
:10515000E092AF7F08024A328E828F83E0F8A3E0AC
:10516000C82416F582E438F583229003A3E0F8758D
:10517000F00AA4C8AAF02AF974A528FE740339FF1E
:1051800022C0E0C0D0C082C083906183E0A2E05022
:1051900009E5BFA2E0500375BFFEE0A2E15009E5BA
:1051A000BFA2E1500375BFFDE0A2E25009E5BFA236
:1051B000E2500375BFFBE0A2E35009E5BFA2E35054
:1051C0000375BFF7E0A2E45009E5BFA2E450037500
:1051D000BFEFE0A2E55009E5BFA2E5500375BFDFD0
:1051E000E0A2E65009E5BFA2E6500375BFBFD08339
:1051F000D082D0D0D0E032C0E074F21249D3E5A71B
:10520000A2E4500FE5A1A2E4500953A7EF75A1EF66
:1052100012524BE5A7A2E5500CE5A1A2E5500653BA
:10522000A7DF75A1DFE5A7A2E15009E5A1A2E15042
:105230000375A1FDE5A7A2E2500CE5A1A2E250068C
:1052400053A7FB75A1FB7F01024A3274F81248E7AD
:10525000752101900375E0640670077A007B0012E7
:105260006235A2AFE433FED2AF90037BE0640170FD
:10527000187A207B00900374E0F91268E37A207BAF
:1052800000900374E0F91267CF906182E0D2E6F0FB
:1052900090051BE0602185C622801690037AE064A9
:1052A000017008E5C654F84405F5C653BEFC124F1C
:1052B000D07401652160E4EEA2E092AF7F01024963
:1052C00093FFFFFF8E238F24858228858327851AED
:1052D00082851B83E0CEA3E0CF852882852783EBE0
:1052E000C9EAC8EDCBECCA75F010C3E833C8E9339E
:1052F000C9EA33CAEB33CBC3EA9EF526EB9FF5250B
:10530000B35004AB25AA26EC33CCED33CDD5F0DA7F
:10531000AE23AF242274E91248E774FA12480BEA6C
:10532000FEEBFF8C0A8D0B126277EAF8EBF9ECFAD0
:10533000EDFB8E828F83124705900375E024F7C33F
:105340009405500675120102544C1261AB8A0C8B05
:105350000DEA450D700302544912626B8A0E8B0FE1
:1053600012626BEA650E7003EB650F60ECEEFCEF0A
:10537000FDAA1AAB1B126271850C82850D83A3A353
:10538000780E1246CF909065780E1246A9851A8243
:10539000851B8378161246CF90906578161246A921
:1053A000780E79161244E2501F780E791612468153
:1053B000909085780E1245024047850E12850F1396
:1053C00085101485111580459090858516128517D6
:1053D000138518148519157812790E1246817812E2
:1053E000124502501C7512007513007514007515D6
:1053F00001781279161246817812790E1246488089
:105400000C75120175130075140075150074097878
:10541000121246299090C5780E1246CF7812790E56
:105420001245A1900375E06408600AE06406600517
:10543000E064057020909081781212450250169019
:10544000907D781212465B800C7512007513007502
:105450001400751500850A82850B8378121246DECA
:1054600074061248217F1002499374F71248E7121C
:105470006289900519E064017010906245E4F0A320
:10548000F053F4F343FE0C5390F3126223E5C65439
:10549000B84441F5C6E59E5447644170F890618573
:1054A000740FF0900517E0F47002A3E0602C750A09
:1054B00001750B00900517E0780A1247F8E50AF429
:1054C000FAA3E0600814600A14600C800DEA5280B0
:1054D0008008EA52908003EA52A079007F020249D4
:1054E0009374F71248E7E9FEEAFF74016E700C7AD4
:1054F000807B00900374E0F91267C9906998E49387
:10550000F46008E493F9125FE3800953C6B8E59E9E
:10551000544770FA126229900519E0640170031271
:105520006019900517E0F47002A3E0602B750A0182
:10553000750B00900517E0780A1247F8E50AFAA300
:10554000E0600814600A14600C800DEA4280800854
:10555000EA42908003EA42A01261AB8A0A8B0BA850
:105560000AA90BE8496016E5E170FCE82414F5820D
:10557000E439F583E0F874FF68600288E174016F34
:10558000700A7A01900374E0F91268530254DC74D3
:10559000F11248E78A0A8B0B8C0C8D0D9090657880
:1055A0000A1246A9740F124857780E1246CF9090EF
:1055B00065780E1246A9780A790E1244E290908519
:1055C0005010780A790E124681780A12450240146A
:1055D000800E780E790A124681780E124502500428
:1055E0007901800279007F0802499374ED1248E73F
:1055F0008A0A8B0B8C0C8D0D909065780A1246A947
:105600007413124857780E1246CF909065780E1298
:1056100046A9780E790A1244E24011780A790E12EE
:105620004681AA0AAB0BAC0CAD0D80227512007539
:1056300013007514007515017812790E12468178E1
:1056400012790A124648AA12AB13AC14AD157F0C9E
:10565000024993909065780A1246CF8A828B8378AC
:105660000A1246BC7F0402499374F51248E78C8203
:105670008D83780A1246CF8A828B83780A124695E8
:105680001256BDC3E098F0A3E0991256AF401E90A9
:10569000908D780A1246CF8A828B83780A12466EE2
:1056A0008E828F83E02420F0A3E0344EF080A4F0BB
:1056B0008E828F83C3E09420A3E0944E22EA2404D8
:1056C000F8E43BF9E8FEE9FF8C828D83A3A3A3A352
:1056D000E0F8A3E0F98E828F832274F51248E7E99F
:1056E000FE9004D1E0FAA3E0FBEE29F8E433F9746C
:1056F0003028F582748F39F583E02AF50AA3E03B60
:10570000F50B780A124A8E9090891246ED1252C417
:1057100074021248218A0A8B0B8C0C8D0D74107840
:105720000A124610AA0AAB0B7F0402499374F112C5
:1057300048E78A0E8B0F8C108D1174111248571286
:105740004AA57411124857E02401F50AA3E0340079
:10575000F50BE4F50CF50D780E790A1245219090C1
:1057600079780A1246CF780E790A124521AA0EAB33
:105770000FAC10AD111252C474021248218B0BEA07
:10578000450B60047A0180027A00EC2AFCE43DFDBE
:105790007413124857E0F8A3E0F9E8FEE9FFECF8CB
:1057A000EDF97A717B02124780880A890BE4F50CC7
:1057B000F50D8E828F83780A1246DEECF8EDF97AC9
:1057C000717B021247808A0A8B0B7405780A124794
:1057D000F88E828F83A3A3A3A3E50AF0A3E50BF0C1
:1057E0007F08024993C082C083E9906000F0D083B3
:1057F000D08222C0E074F21249D3A2AFE433FED2C9
:10580000AFE589A2E15003126691758900C2C575A2
:105810001C00EEA2E092AF7F01024A32C0E074F2B7
:105820001249D3A2AFE433FED2AFE58BA2E050031E
:10583000126691758B00C2E880D5C0E0C0D0E8C088
:10584000E0E9C0E0A9A8D2AFC2C7751C00E9A2E791
:10585000E433F8E9A2E792AFD0E0F9D0E0F8D0D095
:10586000D0E032C2AF020000221244B8C6D8031200
:1058700044B8D9D8031244B80AD9031244B844D959
:10588000031244B89DD9031244B8E4D9031244B8B2
:105890002CDA031244B85BDA031244B88ADA031232
:1058A00044B8C1DA031244B808DB031244B821DB60
:1058B000031244B876DB031244B88FDB031244B8FA
:1058C000DDDB031244B817DC031244B861EB0212AB
:1058D00044B864EC021244B89DEC021244B8C0EC27
:1058E000021244B8D2EC021244B810ED021244B8CD
:1058F0008CED021244B854EE021244B876EE021255
:1059000044B80DEF021244B85FEF021244B890EFB2
:10591000021244B89DEF021244B807F0021244B8D4
:105920005EF0021244B861F0021244B89AF002121A
:1059300044B89DF0021244B8A7F0021244B8FBF03C
:10594000021244B83CF1021244B86FF1021244B89A
:10595000ACF1021244B8AEF2021244B852F3021291
:1059600044B8BBF3021244B8F9F3021244B812CDA2
:10597000031244B83ACD031244B867CD031244B8B9
:105980009FCD031244B8FDCD031244B849CE031293
:1059900044B8B0CE031244B8F0CE031244B82DCFB1
:1059A000031244B85BCF031244B805D0031244B8C5
:1059B0000FD0031244B81CD0031244B84FD00312C6
:1059C00044B85BD0031244B873D0031244B87DD0FE
:1059D000031244B8C3F4031244B8D1F4031244B818
:1059E000E9F4031244B800F5031244B862EB011263
:1059F00044B80CEC011244B81FED011244B89BED01
:105A0000011244B8B9EE011244B8F5EE011244B8DF
:105A100090EF011244B874F0011244B840F1011241
:105A200044B8CEF2011244B83FF3011244B8F9F37E
:105A3000011244B8EBF4011244B82BF5011244B83A
:105A4000DFF5011244B811F6011244B807F801124B
:105A500044B849F8011244B867F8011244B8CDF8C7
:105A6000011244B89CF9011244B860FA011244B81A
:105A70007FFC011244B86A97031244B85498031289
:105A800044B8FF98031244B85099031244B8009ADE
:105A9000031244B8719A031244B8569B031244B8D7
:105AA0008A9B031244B8839C031244B8C09C03121F
:105AB00044B89C9D031244B8DB9D031244B8F79D83
:105AC000031244B885E6031244B809E7031244B848
:105AD00034E7031244B84EE8031244B80BD1031262
:105AE00044B821D1031244B83FD1031244B850D274
:105AF000031244B85AD2031244B885D3031244B8EF
:105B00007CD4031244B8E9D4031244B8589E03125B
:105B100044B8889F031244B8BF9F031244B809A039
:105B2000031244B8CCA1031244B882B4011244B8A1
:105B30000EB5011244B872B6011244B87EB6011215
:105B400044B8B9B6011244B828B7011244B831B804
:105B5000011244B83AB9011244B801BA011244B86A
:105B60005EBB011244B87CBB011244B899BB011260
:105B700044B846BC011244B8C3BC011244B8EBBCE3
:105B8000011244B8B5BF011244B8BABF011244B8FB
:105B9000D3C1011244B821C2011244B891C201120A
:105BA00044B8CFC2011244B8ABC3011244B86BC4AD
:105BB000011244B8B7C4011244B8BAC4011244B8BF
:105BC000FEC4011244B846C5011244B885C501128D
:105BD00044B8A7C5011244B8DBC5011244B83EC69B
:105BE000011244B89BA3031244B8A9A3031244B8FA
:105BF000FCA3031244B81BA4031244B860A403120C
:105C000044B8A4A5031244B83FA6031244B883A61F
:105C1000031244B8ADA6031244B81CA7031244B83B
:105C200062A7031244B8D9A7031244B88AA8031282
:105C300044B80080011244B81080011244B8B18009
:105C4000011244B80D81011244B8CA81011244B84E
:105C5000E682011244B81883011244B84783011246
:105C600044B8F484011244B86B87011244B8DB894C
:105C7000011244B8CD8A011244B8C68B011244B84F
:105C8000CD8D011244B8C190011244B8F0910112B7
:105C900044B8F493011244B80495011244B89396A1
:105CA000011244B88497011244B8D297011244B843
:105CB0004198011244B86598011244B8B69801128F
:105CC00044B8579D011244B8589E011244B8B99E79
:105CD000011244B8E49E011244B8AA9F011244B8CC
:105CE000D8C8031244B8E2C8031244B827C9031243
:105CF00044B83BC9031244B8CBC9031244B804CA20
:105D0000031244B83FCA031244B868CA031244B825
:105D1000BCCA031244B8D1CA031244B8F3CA03126E
:105D200044B808CB031244B81CCB031244B831CB9F
:105D3000031244B86BCB031244B897CB031244B898
:105D4000E0CB031244B852CC031244B895CC0312F2
:105D500044B8BFCC031244B8EACC031244B8D8F01C
:105D6000031244B829CE021244B80CCF021244B830
:105D700087CF021244B8C2CF021244B813D1021224
:105D800044B8A1D1021244B833D4021244B8E5D4C5
:105D9000021244B8F1D5021244B864D7021244B8D2
:105DA000BDD7021244B888C4031244B8CBC403124E
:105DB00044B84FC5031244B826C8031244B811E2D0
:105DC000031244B8C3E2031244B8BFE3031244B859
:105DD000FEE3031244B858E4031244B857EA03122E
:105DE00044B8BAEA031244B857EB031244B88CEB38
:105DF000031244B8BCEB031244B8F7EB031244B8E7
:105E000017EC031244B845B2031244B8D1B20312DE
:105E100044B890B3031244B8A8B4031244B8C2B64D
:105E2000031244B895B7021244B8BAB7021244B884
:105E300087B8021244B85BB9021244B8C8B902125A
:105E400044B808BA021244B8A4BA021244B8D8BB83
:105E5000021244B8B3BC021244B812BD021244B8D4
:105E60009EBD021244B80CBE021244B898BE021283
:105E700044B8DEBE021244B850BF021244B8E2BFBA
:105E8000021244B883C0021244B8A3C0021244B83C
:105E9000EBC0021244B834C1021244B850C102121D
:105EA00044B876C1021244B8F0C1021244B8FEC12F
:105EB000021244B88DC2021244B8F6C2021244B8AB
:105EC000F9B6031244B87EB7031244B8C0B7031240
:105ED00044B8A4B8031244B811B9031244B855B970
:105EE000031244B899B9031244B8C6B9031244B8AE
:105EF000EEB9031244B826BA031244B864BA0312C6
:105F000044B88BBA031244B805BB031244B84FBB64
:105F1000031244B86AD9011244B812DB011244B822
:105F20003FDD011244B893DD011244B8BEDD011219
:105F300044B890DE011244B8D4DE011244B818DF30
:105F4000011244B82BDF011244B86CDF011244B8CF
:105F500099DF011244B8E7DF011244B828E00112CA
:105F600044B856E0011244B8A9E0011244B840E137
:105F7000011244B82AE4011244B840E6011244B8C0
:105F80007EE6011244B811E8011244B856E8011245
:105F900044B8C8E8011244B819E9011244B853E9F9
:105FA000011244B858E9011244B8F8E9011244B8A2
:105FB0002EEB011244B83FEB011244B866D802122E
:105FC00044B8E5D8021244B8DEDE021244B8E4DF79
:105FD000021244B857E1021244B8EEE1021244B88A
:105FE00016A0011244B85FA0011244B88CA001129F
:105FF00044B8BEA0011244B8CBA0011244B8D7A047
:10600000011244B8E9A0011244B8C4A1011244B875
:1060100022A2011244B857A2011244B88EA3011261
:1060200044B8DBA3011244B8FFA3011244B86FA423
:10603000011244B830A5011244B8F3A5011244B8C6
:1060400061A6011244B81EA7011244B831A701127B
:1060500044B8AFA7011244B842A8011244B869A8D5
:10606000011244B8D1A8011244B822A9011244B8BF
:1060700077A9011244B820AA011244B8CBAA011290
:1060800044B877AB011244B8E9AB011244B83DAC57
:10609000011244B89DAC011244B8CDAC011244B811
:1060A00063AD011244B888AE011244B8D0AE0112FB
:1060B00044B8EDAE011244B80CAF011244B83BAF86
:1060C000011244B850B0011244B8D6B0011244B81D
:1060D000FBB0011244B810B1011244B883B10112EF
:1060E00044B8C4B1011244B8E0B2011244B881B35B
:1060F000011244B8CFB3011244B839B4011244B804
:1061000052B4011244B818E2021244B86CE202120E
:1061100044B878E2021244B842E3021244B86FE392
:10612000021244B89DE3021244B809E4021244B8D2
:106130003FE4021244B878E4021244B890E4021238
:1061400044B8E5E4021244B8FEE4021244B843E560
:10615000021244B856E5021244B870E5021244B87F
:1061600086E5021244B8A4E6021244B8CFE7021250
:1061700044B8B9E8021244B8A8E9021244B8EC7F66
:10618000001244B850AA021244B87FAA021244B8BE
:1061900045AE021244B89CAF021244B862B002127B
:1061A00044B8E1B1021244B8ABB2021244B8FDB235
:1061B000021244B817B3021244B849B3021244B8E9
:1061C00054B3021244B89DB3021244B8A6B30212EB
:1061D00044B852B4021244B82BB5021244B872B596
:1061E000021244B8DAB5021244B81CB6021244B81E
:1061F0004AB6021244B885B6021244B816C7011254
:1062000044B894CA011244B89ACA011244B8EFD0F3
:10621000011244B839D5011244B81FD9011244B84B
:10622000F3D4031244B869D5031244B87FD50312DE
:1062300044B80FD6031244B84CD6031244B886D6DD
:10624000031244B8C0D6031244B833D7031244B87B
:1062500074D7031244B87DD7031244B889D7031208
:1062600044B8A8D7031244B8D2D7031244B8E7D72A
:10627000031244B80FD8031244B871D8031244B8BB
:1062800098D8031244B886AD031244B899AD0312EE
:1062900044B8B3AD031244B8E0AD031244B826AE1F
:1062A000031244B859AE031244B897AE031244B86F
:1062B000FCAE031244B811AF031244B81CAF031272
:1062C00044B829AF031244B840AF031244B84EAFEC
:1062D000031244B859AF031244B865AF031244B86F
:1062E00078AF031244B883AF031244B8A6AF0312C9
:1062F00044B84AB0031244B85AB0031244B874B058
:10630000031244B891B0031244B8ACB0031244B8BD
:10631000D1B0031244B8DCB0031244B8F1B0031298
:1063200044B805B1031244B866B1031244B86CB165
:10633000031244B872B1031244B878B1031244B8DE
:1063400090B1031244B8C3B1031244B8CD9C0212F9
:1063500044B8649D021244B8FC9D021244B8EC9EFD
:10636000021244B8239F021244B8369F021244B866
:10637000A49F021244B83FA1021244B866A10212BF
:1063800044B808A2021244B83DA2021244B84EA278
:10639000021244B8C7A2021244B8E8A2021244B8DA
:1063A00000A3021244B858A4021244B861A6021213
:1063B00044B8B1A8021244B8B4A9021244B803AA5E
:1063C000021244B80080021244B8FD80021244B8A0
:1063D000E881021244B8F281021244B81482021217
:1063E00044B82082021244B87283021244B8A183D6
:1063F000021244B8D184021244B81385021244B880
:106400003F86021244B81587021244B86787021209
:1064100044B8C687021244B8FD87021244B83888CF
:10642000021244B8D38B021244B8EC8B021244B867
:106430006E8C021244B87C8C021244B8D18C0212C9
:1064400044B8DF8C021244B84C8D021244B8BE8DA1
:10645000021244B8048E021244B819C3021244B89E
:106460003BC3021244B825C5021244B8CAC802127E
:1064700044B80DCA021244B8E7CA021244B8367EC4
:10648000001244B85B7E001244B8CC7E001244B8BF
:106490001FF4021244B828F4021244B831F4021274
:1064A00044B862F5021244B881F7021244B8B7F753
:1064B000021244B8F1F7021244B827F8021244B8A5
:1064C00061F8021244B895F8021244B8C1F80212F9
:1064D00044B80AF9021244B844F9021244B88CF9DB
:1064E000021244B8E2F9021244B817FA021244B890
:1064F00072FA021244B8ACFA021244B8FDFA02125F
:1065000044B833FB021244B86DFB021244B89BFB43
:10651000021244B8BEFB021244B844F6031244B857
:1065200070F6031244B8CBF6031244B8D5F6031242
:1065300044B8E5F6031244B87FDC031244B8A6DC85
:10654000031244B8D0DC031244B84DF8031244B827
:106550009C69001244B8006C001244B8B76D001278
:1065600044B8146E001244B8166F001244B89E6FFF
:10657000001244B82570001244B84A70001244B8A2
:106580003F73001244B8B573001244B8A4740012EB
:1065900044B8DE74001244B81E75001244B8BE76CA
:1065A000001244B81377001244B86077001244B860
:1065B000CE77001244B8F477001244B80E78001277
:1065C00044B82479001244B83479001244B8BA7A35
:1065D000001244B8DA7A001244B8107B001244B8B2
:1065E000947C001244B8D37C001244B8117E00128F
:1065F00044B88FBB031244B8E7BB031244B82FBDA5
:10660000031244B89EBD031244B84DBE031244B8F1
:106610006CBE031244B8C0BE031244B8FEBE0312DF
:1066200044B890F5031244B8A1F5031244B897F8A2
:10663000031244B8D6F8031244B87BF9031244B8E5
:1066400087F9031244B8A9F9031244B8E6F3031218
:1066500044B8F6F3031244B80BF4031244B8BDF483
:10666000031244B8ECF1031244B870F2031244B8B8
:10667000D6F2031244B825EC031244B84EEC0312D0
:1066800044B8B4EC031244B8D3EC031244B827ED79
:10669000031244B880ED031244B8BBED031244B8B2
:1066A000BEED031244B88CFC011244B8A1FC0112E7
:1066B00044B8C5FD011244B82FFE011244B8A3FE30
:1066C000011244B8BDFE011244B8D4FE011244B810
:1066D000E7FE011244B8FFFE011244B814FF011294
:1066E00044B835FF011244B886FF011244B893F94B
:1066F000031244B8A3F9031244B8A6F9031244B82C
:10670000F87F001244B87DE8031244B8F3E903129D
:1067100044B854EA031244B8CE8F031244B85790D9
:10672000031244B86E90031244B83091031244B877
:106730001192031244B8AE93031244B87F9403122B
:1067400044B8D395031244B85B96031244B866EF7D
:10675000031244B88FEF031244B8B8EF031244B8E1
:1067600051F0031244B893F0031244B800800312AE
:1067700044B80A80031244B84A80031244B8938094
:10678000031244B8CD80031244B82381031244B8E5
:106790004281031244B8C783031244B8D083031262
:1067A00044B82184031244B84A84031244B85F8475
:1067B000031244B8CF84031244B85D85031244B871
:1067C000A185031244B8C985031244B84886031250
:1067D00044B88B86031244B8C886031244B8DA86DC
:1067E000031244B8F986031244B80287031244B86E
:1067F000CC87031244B8C8ED031244B819EE031253
:1068000044B8A2EE031244B808EF031244B84DDFB7
:10681000031244B877DF031244B871E0031244B89E
:10682000A0E0031244B826E1031244B8EFF20312C9
:1068300044B883E4031244B8B9E4031244B8F2E460
:10684000031244B84BE6031244B8EFF6031244B8FF
:1068500005F7031244B80FF7031244B865F70312A3
:1068600044B896F7031244B8F887031244B8B588C1
:10687000031244B8F088031244B81889031244B8CC
:106880007A89031244B8C689031244B8318A0312C4
:1068900044B8AD8A031244B8A98B031244B8308DB2
:1068A000031244B8B38D031244B8178E031244B8D0
:1068B0002E8E031244B8248F031244B8708F031233
:1068C00044B810C0031244B825C0031244B8D5C060
:1068D000031244B815C1031244B82EC1031244B8C0
:1068E00061C1031244B8AEC1031244B8E2C103123D
:1068F00044B824C2031244B822C4031244B88D8E93
:10690000021244B84492021244B8D693021244B818
:106910002D94021244B84C94021244B8CA94021244
:1069200044B85C96021244B84097021244B8519B96
:10693000021244B8259C021244B89CA8031244B821
:10694000DEAA031244B8A0AB031244B824AD03126C
:1069500044B84CFC021244B8B4FC021244B8D1FC56
:10696000021244B89CFD021244B8EFFD021244B872
:10697000D2FE021244B8E0F8031244B826F903121A
:1069800044B8BBFF011244B852F9031244B8E0FF07
:1069900002FFFFFFFFFFFFFFFFFFFFFF74F0124842
:1069A0007B74FA12480B890BECFEEDFF750A008A26
:1069B0000C8B0D780C124AD2000410C26BDF69FDFB
:1069C00069176A2F6A4D6A656A886AA06AB46ADEC6
:1069D0006A596B6A6B816B9C6BC26BC26BF46A7495
:1069E00001650B6003026BBD8E828F83E0F8C39458
:1069F000034003026BBDE89016C0026B99740265F8
:106A00000B6003026BBD8E828F831273209016C1C0
:106A1000E8F0A3E9026B997401650B6003026BBD9A
:106A2000126BEA4003026BBDE890072B026B99746E
:106A300001650B6003026BBD8E828F83E0F8C39407
:106A4000054003026BBDE890072C026B9974016549
:106A50000B6003026BBD126BEA4003026BBDE89052
:106A6000072D026B997410650B6003026BBD750CEA
:106A700010750D00780C124A8E7A2E7B0712676F04
:106A80007402124821026BE37401650B6003026B10
:106A9000BD126BEA4003026BBDE890073E026B99A2
:106AA0007401650B6003026BBD8E828F83E09016CC
:106AB000C4026B997404650B6003026BBD8E828FF8
:106AC00083780E1246CF909089780E1245025003BB
:106AD000026BBD900740780E1246DE026BE3E96060
:106AE00003026BBD125AEBE970051265B380559035
:106AF00007D380617407650B6003026BBD750C06DC
:106B0000750D00780C124A8E8E828F83A3AC82ADF5
:106B100083740212486912677574021248217C005E
:106B20007D00AA1AAB1B8E828F83E0F912655FE9A4
:106B3000FEC3940A4003026BE0125AEBE9700CEEBC
:106B4000F91265B979501268B9806D74D42EF58246
:106B5000E43407F583740180407401650B705E12A4
:106B60006BEA5059E890073F802F7401650B704D18
:106B70008E828F83E0F8C3940A5042E89016C38057
:106B8000187401650B70368E828F83E0F874F928D3
:106B9000C3940A5028E89016C5F080477401650B2D
:106BA000701B9007D2E0F88E828F83E09007D2F0BE
:106BB000E87030E06401702B1265A78026750A1812
:106BC0008021C3EA9427EB940050157402650B7082
:106BD0000F8E828F83127E0012596BE9F50A8003B3
:106BE000750A02A90A7406026F0E8E828F83E0F87E
:106BF000C3940222A90A80031248217F0402494D4E
:106C000074F012487B74B112480B8C0C8D0D90906F
:106C1000347420124871740612471E742012487191
:106C200012655FE9FF745F124857E0F50BEFC394FC
:106C30000A4003026D8275F006EFA4F50A74411252
:106C400048717A0E7420250AF91268B3E970097444
:106C50004D124857E0FE80027E009016C0E06402AC
:106C6000700575100180037510007408650B7004C1
:106C7000742280027421250AF50F7C1B7D007900A7
:106C8000742612486912678774261248717A1BA904
:106C90000F1268B3E9702D7440124857E024F9C30D
:106CA000940A5020E510F50F780F124A92742712BB
:106CB0004871EEA2E0E433F9AA0CAB0D125A0D7440
:106CC000011248217C147D007900740C124869126D
:106CD0006787740C1248717A107424250AF91268B7
:106CE000B3E970347C1079FF740C1248691267EDB7
:106CF000E97025741C124857AC82AD837A04742560
:106D0000250AF91268B3740C124871EEA2E0E4335C
:106D1000F9AA0CAB0D1259F5AC1AAD1B7A0C7470B4
:106D20002FF91268B3E97049AA1AAB1B12658F7F5D
:106D300000EF75F003A4F8A9F0851A82851B83E59E
:106D40008228F8E5831274D71276B8601D8882898C
:106D500083A3A3E0F5107511007810124A8EAA0CD7
:106D6000AB0D125CC574021248210FEFC3940440AE
:106D7000C0EEA2E1500C90072AE0F9AA0CAB0D126C
:106D80005CCB7404650B70289016C0E06402702020
:106D90007A0090073EE060027A0190072BE06004E1
:106DA000780480027800E84AF9AA0CAB0D125AC1A7
:106DB0007900744F026F0E74F712487B125AEBE998
:106DC000704F9007D3E0640170151265B39007D33C
:106DD000E4F07C0AFDF97AD47B07126787802A7574
:106DE0000A00A80A74D428FEE43407FF8E828F8339
:106DF000E06401700BA90A1265B98E828F83E4F0FA
:106E0000050AE50AC3940A40D979501268B9126597
:106E1000A70277EF74F012487B74F012480BEAFE79
:106E2000EBFF8C0A8D0B750C0AE9600C14600914D9
:106E3000603B14607D026F0A1265A1E9F50CC394F2
:106E40000A4003026F0AE50A450B7003026F0A75D8
:106E50000E06750F00780E124A8EEEFCEFFDAA0AA0
:106E6000AB0B12676F7402124821026F0A750E0095
:106E70007510067511007810124A8EEEFCEFFDE5D4
:106E80000E75F00EA4F8A9F0744C28FA740739FBBB
:106E90001267817402124821E9700B050EE50EC3DA
:106EA000940A506680CA850E0CE50CC3940A505AA9
:106EB0008049750E00AC1AAD1B7A1075F006E50E10
:106EC000A42423F91268B3E9701C7C1079FFAA1A74
:106ED000AB1B1267EDE9700EEEFCEFFDAA1AAB1BBF
:106EE0001259D1E9600B050EE50EC3940A501B80C0
:106EF000C4850E0CE50CC3940A500FE50A450B60DF
:106F000009AA0AAB0BA90C12659BA90C74101248B4
:106F1000217F0802494D74F412487B890B750A15CC
:106F200074FF6A700374FF6B70277E00AC0B7A02EB
:106F30007B00EEF912657DE96003750A000EEEC371
:106F4000940A40E8E50B60537ACB7B65125F0580BD
:106F50004A125ED58A0C8B0DAE0CAF0DEE4F603829
:106F60007C007D00EE2405FAE43FFB8E828F83A334
:106F7000A3A3A3E0F912655FE9F9C3940A500CAC2E
:106F80000B7A027B0012657D750A00E50B600CEE42
:106F9000FAEFFB1265CB8003750A14026BF474F2EE
:106FA00012487BECFEEDFF750A15740E124857E08F
:106FB000F50CA3E0F50D74FF6A700374FF6B70218C
:106FC000750B00AC0CAD0DEEFAEFFBA90B1265834F
:106FD000E96003750A00050BE50BC3940A503F8076
:106FE000E2125ED58A828B83E5824583602D7C0028
:106FF0007D00E5822405FAE43583FBA3A3A3A3E087
:10700000F912655FE9F9C3940A5013AC0CAD0DEEAB
:10701000FAEFFB126583750A008003750A14A90A4A
:107020007F0602494DC082C083900744EAF0A3EB7B
:10703000F090072AE0FC7D007A267B0012596B90C5
:10704000072AE0F9125C2F027B0974EE12487B7468
:10705000EC12480B8A0A8B0BEA240CF512E4350B70
:10706000F5138A828B83A385820E85830FEA24051C
:10707000F510E4350BF511EA2409F50CE4350BF5B0
:107080000DEA2403FEE4350BFF8A828B83A3A3E081
:1070900024FA700302730E24FD700302722E147022
:1070A0000302712814601024FD7003027211147021
:1070B00003027266027314127E066044E0F5838850
:1070C00082127320880E890FE8450F603385128283
:1070D000851383E0F5107810124A92EA240BF582AA
:1070E000E4350BF583E0F9127DFA0A0A0AEFFB8515
:1070F0000E82850F8312487974011248210273149D
:10710000850C82850D83124AA59007401246ED1228
:107110005A077402124821E9700302731479018539
:107120000C82850D830272DE750C00850E82850F40
:1071300083E060030271DE851082851183E0A2E0A6
:1071400040030271DE9007DE127E0960030271DEE9
:107150007C0E7D007900AA1AAB1B1267878512820C
:10716000851383127AD4EA4B6010750C06750D00F6
:10717000780C124A8EEA2410801B127AD0125ED547
:10718000EA4B7003027314750C06750D00780C122F
:107190004A8EEA2405FCE43BFD740212486912673A
:1071A0006F7402124821851082851183E0A2E2509B
:1071B00004D2F08002C2F0A2F0E433F8740C12485A
:1071C00057127C88126595E970117A027B0090074E
:1071D0002AE0F91267C97900027316750C15127E40
:1071E0000670030273141273357003027314850E54
:1071F00082850F83E0FC7901127326124879E50C31
:107200007003027314FC7903127AD0127A8B027322
:1072100009127E0670030273141273357003027331
:1072200014850E82850F83E0FC79020273067C00D0
:107230007D00EA2404FAE4350BFB8E828F83E0F9AB
:1072400012655FE9F8C3940A4003027314E50A2447
:107250000AFCE4350BFD7A0475F006E8A42425F950
:107260001268AD027314127AD090073FE060079065
:1072700016C3E0F9806B9016C0E070047905806158
:10728000125ED58A0E8B0FA80EA90FE84970030273
:107290007314E82404F50EE439F50F850A82850B92
:1072A00083A3A3A3A3A3A3A3E0A2E05039850E82E6
:1072B000850F83E0F50A602E850C82850D83A3E09F
:1072C00054027022740E124871E82405FAE439FB66
:1072D000A90A12655FE9700E79038E828F83127A94
:1072E000D4125A01802EAC10AD11850E82850F8309
:1072F000E0F9127AD01265D7127E06601712733544
:1073000060127C0079001273261248798006127A86
:10731000D0126559790174141248217F0A02494D2F
:10732000E0F8A3E0F9228E828F83E0FAA3E0FB88E5
:1073300082850B8322127A99F9890BE8450B227416
:10734000F512487B74F212480BEAFE8C0C75F006BD
:10735000E9A42420F50AAC1AAD1B7A0EF91268B321
:10736000E970467C0679FFAA1AAB1B1267EDE9703B
:1073700038740C124857127AD4EAF8E50C6005EE1E
:10738000C8488004EEF4C858F8EA687001EB60154C
:10739000740C124857E8F0A3E4F0AC1AAD1B7A0E57
:1073A000A90A1268AD790180027900740E12482191
:1073B0007F0302494D74F212487B74E612480B8930
:1073C0000C8A0A8B0BECFEEDFF740C1248717A0EDE
:1073D00075F006E9A42420F91268B3E96003027489
:1073E0009A7C0679FF740C1248691267EDE9600314
:1073F00002749A7470250CF50DAC1AAD1B7A0CF959
:107400001268B3E96003027496AA1AAB1B12658F67
:10741000E50A450B701D7C0C7900AA1AAB1B12679C
:10742000EDE970727C0C7D007900AA1AAB1B126723
:10743000878051AC1AAD1BAA0AAB0B1265898A0E64
:107440008B0FA80EA90FE8497022EE4F604CAC1AC2
:10745000AD1B7A007B00126589EAF8EBF9EA4B6014
:107460003988828983E50AF0A3E50BF0127513FAD7
:10747000EE6A7001EF601FEEF04F7008888289831A
:10748000E4F0A3F0AA1AAB1B12658FAC1AAD1B7AFD
:107490000CA90D1268AD790180027900741A1248A6
:1074A0002102702074F712487B7E00EE75F003A471
:1074B000F8A9F0EC28F8ED1274D7E06A7003A3E0A5
:1074C0006B7006E8FAE9FB800B0EEEC3940440DB18
:1074D0007A007B000277EF39F9888289832274F77A
:1074E00012487B7C00EC75F003A4F8A9F0EA28F8B8
:1074F000EB1274D7E0F4FEA3E0F4FF88828983EEF8
:10750000F0A3EFF0127513F4F00CECC3940440D523
:107510000277EFE82402F582E439F583E02274F47F
:1075200012487B74F412480BEAFEEBFF8C0A8D0BB9
:107530009007DE127E09704FEE4F7003027697ECD3
:10754000450B70030276971265A1E99016C6F0C349
:10755000940A4033750D007C0679FFE50D75F00E39
:10756000A4FAABF074462AFA74073BFB1267EDE904
:1075700060030275F8050DE50DC3940A40D9750C3A
:107580000AE50C9016C6F09016C6E0C3940A4003B4
:1075900002769775F006E0A4FB9007DE127E097074
:1075A0005CEEFCEFFD7A0E74202BF91268AD7C0CBA
:1075B0007D0079FFAA1AAB1B126787AC1AAD1B7A44
:1075C0000C9016C6E02470F91268AD750C0E750D9E
:1075D00000780C124A8EEEFCEFFD9016C6E0127792
:1075E0005012676F74021248219007DEE50AF0A37B
:1075F000E50BF07900027699850D0C8084E0C824B3
:10760000061276B260197A1B74212BF91268AD123A
:10761000769E2406F582E438F583E4F0A380D31245
:10762000769E240A1276B260107A1B74222BF9120D
:1076300068AD12769E240A80DB12769E240C1276A8
:10764000B260107A1074232BF91268AD12769E2462
:107650000C80C11276A71276B260307A1074242B97
:10766000F91268AD1276A7F582E438F583E02410AC
:10767000FCA3E03400FD7A0475F0069016C6E0A481
:107680002425F91268AD1276A780899007D2E060B0
:10769000031265DD1265D17901740C026BF8900755
:1076A000DEE0F8A3E0C8229007DEE0F8A3E0C824FB
:1076B0000822F582E438F583127E00EC4D2274F442
:1076C00012487B74F212480BEAFEEBFFE9C3940AFE
:1076D0005004EE4F700479028034AC1AAD1B7A0E60
:1076E00075F006E9A42420F91268B3E9F50A701CC4
:1076F000750C06750D00780C124A8E7402124871D2
:10770000EEFAEFFB12676F7402124821A90A740E99
:10771000026BF874F412487BEAFEEBFF750A007501
:107720000C06750D00780C124A8EEEFCEFFDE50A92
:107730001277501267817402124821E96004A90A85
:10774000800B050AE50AC3940A40D4790A026BFB50
:1077500075F00EA4F8A9F0744628FA740739FB22D4
:1077600074F712487B750A00E50A75F00EA4F8A9B3
:10777000F0744628FE740739FFEEFCEFFD7A0E75B3
:10778000F006E50AA42420F91268B3E960297C0612
:107790007D0079FFEEFAEFFB1267877C067D0079AA
:1077A000FFEE2CFAE43FFB126787EE240CF582E42F
:1077B0003FF583E4F0A3F0050AE50AC3940A40A864
:1077C0009007D2E060031265DD1265D1802174F765
:1077D00012487B7E007F007C06EF12775079FF1203
:1077E00067EDE970010E0FEFC3940A40EAEEF97FEE
:1077F0000102494D74F712487B7E00EEF91265B91B
:10780000E9F90EEEC3940A5003E960EF80E174F3E6
:1078100012487B74CB12480B890A9016C6E0650AA1
:10782000701B7A017B0090072AE0F91267CF7A0279
:107830007B0090072AE0F91267CF1265E975F00620
:10784000E50AA4FF74202FFE74271248717A0EEE09
:10785000F91268B3E960030279167C0679FF742790
:107860001248691267EDE960030279167C0E7D000B
:1078700079FF74271248691267877C1B7D0079FFA6
:10788000740C1248691267877C0C7D0079FFAA1A74
:10789000AB1B12678774271248717A0EEEF91268D3
:1078A000ADE9FE740C1248717A1B74212FF912682D
:1078B000ADE9F50B740C1248717A1B74222FF91282
:1078C00068ADE9F50C740C1248717A1074232FF925
:1078D0001268ADE9F50D740C1248717A1074242FFA
:1078E000F91268ADE9F50E740C1248717A0474252A
:1078F0002FF91268ADE9FFAC1AAD1B7A0C74702534
:107900000AF91268ADE9F8E50B450C450D450E4F37
:1079100048CE4EFE80027E00EEF974351248217F7B
:107920000502494D74F712487BE990072AF0126569
:10793000A70277EF74F212487BEAFEEBFF548070E7
:10794000030279F390072AE0F91267B18A0A8B0BD8
:10795000EA450B70030279EC7A01E50A2405F50C7F
:10796000E4350BF50DE50A2404F8E4350BF9880E2F
:10797000890F850A828B83E02450603614600624C8
:10798000E16058805D88828983E07059850A828B26
:1079900083A3A3A3A3A3A3A3124AA5127DFA850AD6
:1079A000828B83A3A3127AD412656B7402124821CE
:1079B000803388828983E0641E700F7900850A8293
:1079C0008B83A3A3127AD4126565850E82850F83FB
:1079D000E0F9AA0CAB0D125C29800AAA0A1265779D
:1079E000E9FAEA6007AA0AAB0B12679FEEFAEF64A6
:1079F00080802AEE54026028EE6402FE7C007D0046
:107A00007A007B00126595E960047A0180027A02AF
:107A10007B0090072AE0F91267C9EEFAEFFB806855
:107A2000EEA2E050556401F50AEFF50B127AA912A7
:107A300065E3E96033127E066029127AA112732091
:107A4000E8FEE9FFEE4F601B7C007901127AA98EF7
:107A5000828F831248797C007903127AA9127A8B7B
:107A60001248791265E9800C7A017B0090072AE0C0
:107A7000F91267C9AA0AAB0B800E54046006EE64C3
:107A800004FA80047A007B00027020900744E0F83A
:107A9000A3127A99F583888222127AA1E0F8A3E0F2
:107AA00022E0F5838882A3A3229007DE127DEAE01C
:107AB000FAA3E0FB227F0202494DC082C0839007F7
:107AC0002AE0F98A828B83A3127AD4125CCB8039A4
:107AD0008E828F83E0FAA3E0FB22C082C08374FF12
:107AE00012480B1265ADE9C39402851A82851B8387
:107AF000400474028002740AF0AC1AAD1B7A01795A
:107B000005125B097401124821D083D0820244B56A
:107B100074F012487B74E812480BEAFEEBFF890C04
:107B20008C0A8D0B7C187D007900AA1AAB1B12679A
:107B300087851A82851B83EEF0A3EFF090072CE077
:107B4000C0E07402124857D0E0F090072DE0C0E08A
:107B50007403124857D0E0F09016C5E0C0E07417E7
:107B6000124857D0E0F09016C4E0A2E0E433FCE005
:107B7000A2E15004D2F08002C2F0A2F0E433F8E0B7
:107B8000A2E45004D2F08002C2F0A2F0E433FAE0A2
:107B9000A2E55004D2F08002C2F0A2F0E433F51066
:107BA000751100E0A2E65004D2F08002C2F0A2F00B
:107BB000E433F50E750F00E0A2E25004D2F080022B
:107BC000C2F07415124857E054FEFEA3E0FFEE4CDD
:107BD000FCEFFDEC54FDFCE828F8EC48F8ED54FE11
:107BE000F9EAFBE94BF9E8FAE954FDFB740978106E
:107BF0001247F8EB451154FBFB740A780E1247F854
:107C0000EAF8EB450FF9E854FBFAA2F0E433F50E7D
:107C1000750F007402780E1247F8EA450EF87415D5
:107C2000124857E8F0A3E9F090072DE0601D750EAB
:107C300010780E124A8E7C2E7D077406124857AAC1
:107C400082AB8312676F740212482190073EE06096
:107C500011E50C60097415124857E04402F07801F0
:107C6000800278007414124857E048F090072BE027
:107C700060047804800278007414124857127C88DB
:107C80001259FB7418026F0EE048F0AC0AAD0BAA53
:107C90001AAB1B2274F712487B125D1F750A00E5B0
:107CA0000A75F00EA4F8A9F0744628FE740739FF8F
:107CB0007C0679FFEEFAEFFB1267EDE97009EEFA48
:107CC000EFFB7900125D25050AE50AC3940A40CF4F
:107CD0000277EF74F612487B74FD12480BEAFEEB54
:107CE000FF9007E0127E097039750AE2750B07787C
:107CF0000A124A8E750A02750B00780A124A8E75AE
:107D00000AFE750B90780A124A8E7CFF7DFF7A017D
:107D10007B00125B4B74061248219007E0EAF0A347
:107D2000EBF09007E0127E097003027DDC750AFF1C
:107D3000780A124A92E4F50AF50B780A124A8E7410
:107D400005124861880A890B780A124A8E74051256
:107D50004861880A890B780A124A8E9007E2124A13
:107D6000A579029007E0127DF2125CB974091248FD
:107D700021E97036851A82851B83E0FA7401124866
:107D800057E0F8E4C8F9EA28F50AE439F50BEA45C2
:107D90000B6017780A124A8E9007E0127DEAA31250
:107DA0007DF212656B7402124821E4F50AF50B7836
:107DB0000A124A8E9007E2124AA57CFF7DFF9007C7
:107DC000E0127AD4125B5774041248219007E0EA5B
:107DD000F0A3EBF09007E0127E09700479018002B5
:107DE00079007403124821027AB5E0F8A3127AA14F
:107DF000A322127E00EEFAEFFB22850C82850D8312
:107E0000E0FCA3E0FD22900744E0F8A3E0F9E84994
:107E100022C082C0839007DE127E0960109007DEC8
:107E2000127AD412679F9007DEE4F0A3F09016C692
:107E3000740AF0027B0974F712487BE990071BF083
:107E400012652F7A067B0090071BE0F9125DD97A44
:107E5000D37B63125EC37F0102494D74F412487BE9
:107E60008A0A8B0BEB5480603C90071BE0F9126789
:107E7000B18A0C8B0DAE0CAF0DEE4F601F126487F4
:107E8000E9701290156BE0F4600BEEFAEFFBE0F98D
:107E90001267A58007EEFAEFFB12679FAA0AE50BAF
:107EA0006480FB8022EAA2E050091263D9E50A64EB
:107EB00001800B5402600C1263F1E50A6402FAAB14
:107EC0000B80047A007B007F0402494D74F2124853
:107ED0007BEAFEEBFF750B018E828F83E0246E60E0
:107EE0000A24F27003027FBD027FD6A3E024F26071
:107EF0000724D0603F027FD68E828F83A3A3A3E0A6
:107F000064187004A3E0642070238E828F83A3A37F
:107F1000A3A3A3E0F8A3E0F988828983A3AA82AB94
:107F20008388828983E0F9126355E980027400F541
:107F30000B027FD9750A01EE2403F50CE43FF50D21
:107F4000EE2405F50EE43FF50F8E828F83A3A3E0A8
:107F500024FB601424FD705D850E82850F83E0F99B
:107F6000127FE01263EB8048127FE0125EE7E96463
:107F7000047045900717E0F8A3E0F9E8496039E09C
:107F8000F5838882A3A3A3A3E0F8A3E0F9E84960FE
:107F900027EE240DF582E43FF583124AA5AC0EAD21
:107FA0000F127FE088828983124879740212482177
:107FB000E9F50A8003750A00850A0B801C1263DF4D
:107FC0008E828F83A3A3A3A3A3A3127FE6EA4B60B1
:107FD000081267F98003750B00A90B7F0602494D53
:107FE000850C82850D83E0FAA3E0FB220244B5FFF5
:107FF000FFFFFFFFFFFFFFFF851C87C2AF0244B5F5
:10800000C082C083E99015D4F0D083D0820244B5F9
:1080100074F612487BE99002E7F0900347E0F50A16
:10802000750B007402780A1247F8AA0AAB0B1268A3
:108030003B9002E81289C39002E8128DB0606F9005
:108040000347E075F003A4FAABF012683B90030518
:108050001289C3900305128DB0700B9002E8128D47
:10806000811268418048900305129D157AFF7BFFBD
:108070001265EF7A0080198A0A750B007402780A7B
:108080001247F81297BD74FF1281C3E4F0A3F00AFF
:10809000900347E0F8EAC39840DD7905125C479009
:1080A00002E7E0F9125B337AD17B5C125EC302987F
:1080B0006074F412487B8A0A8B0BEB548060479003
:1080C00002E7E0F91267B18A0C8B0DAE0CAF0DEE32
:1080D0004F602A8E828F83E064B0701A125C59E977
:1080E00060148E828F83A3A3A3A3E0F9EE2405FA84
:1080F000E43FFB125C29EEFAEFFB12679FAA0AE548
:108100000B6480FB80047A007B0002831374F212FC
:10811000487B74FB12480BEAFEEBFFEE4F604574A0
:1081200003124857EEF0A3EFF0851A82851B83EC0B
:10813000F0A3EDF07402124857E9F0AA1AAB1B1233
:108140005B2DE9F50A70757413124857E0F50CA31E
:10815000E0F50DE50C450D60638E828F8312874C30
:10816000EE4F7005750A0280537A067B0012683B59
:108170008A0E8B0FA80EA90FE8497005750A1380A7
:108180003B88828983E41281C3EEF0A3EF1282DF81
:10819000E50CF0A3E50DF09002EB1282D89002EB13
:1081A0006017E0FCA3E08003EAFCEBFD8C828D838A
:1081B0001282D870F38C828D831293D8A90A740529
:1081C000029F95F0A3129CF7A32274F212487B89B8
:1081D0000A890E750F007403780E1247F8850E0C8D
:1081E000850F0D9002EAF09002E81291E31282D618
:1081F000602E1268417900801D890E750F0074028F
:10820000780E1247F89002E812967C8882F583A3D4
:10821000A3E4F0A3F009900347E0F8E9C39840D93C
:10822000900347E0FA850CF0A4CAA8F0850DF0A4ED
:1082300028FB12683B8A0E8B0FAE0EAF0FEE4F700D
:10824000030282CC900347E0FC850CF0A4CCA8F09C
:10825000850DF0A428FD79001267877C0080318DA0
:108260000E750F007403780E1247F88A828B831202
:1082700082D188828983E4F01282DEA3A3F0A3F086
:108280000DEDC3950A40D8EE250CFEEF350DFF0C21
:10829000900347E0F8ECC39850288C0E750F0074DB
:1082A00002780E1247F89002E81282D1E8240250B8
:1082B0000109FAE9FB8A828B83EEF0A3EFF07D00DF
:1082C00080BFE50A9002EAF0790080027913029FEC
:1082D00098129680F922A3A3128D85EA4B22A3124D
:1082E0009CF7A3A3A32274F412487B7900EAA2E0CE
:1082F000501F750A46750B90780A124A8E79107CC9
:10830000047D007AD67B15125C417402124821E983
:10831000F980007F0402494DC082C0839002EB12B5
:108320008DB0601C88828983A3A3E06A7003A3E0F8
:108330006B8882898370E8A3A3A3A3128D81800434
:108340007A007B0002800974F212487B74FD1248A7
:108350000BEAFEEBFF851A82851B83E4F0A3F07421
:10836000021248577401F0128DAD7014125DFD12A7
:10837000683B9002EE1289C3128DAD70030284D95E
:10838000128AC3EE2404F50CE43FF50D850C82F54A
:1083900083E024FE603C24FC607424FE607E24FEA6
:1083A000700302842924FE700302843624FE7003C5
:1083B00002844324FE700302845024FE700302846E
:1083C0005D24FC700302847E24FE70030284960206
:1083D00084D2125DFD9002F0EAF0A3EB1284E51264
:1083E0005875E960030284D29002F0124AA58E8289
:1083F0008F83A3A3A3A3A3129D15850A82850B8354
:10840000128D81125C1174021248210284D2AC1ABE
:10841000AD1BEEFAEFFB125C5F0284A1AC1AAD1B40
:10842000EEFAEFFB125C658078AC1AAD1BEEFAEF4A
:10843000FB125C6B806BAC1AAD1BEEFAEFFB125CAF
:1084400071805EAC1AAD1BEEFAEFFB125C778051C7
:10845000AC1AAD1BEEFAEFFB125C7D804474021285
:108460004861880E890F780E124A8E740212487184
:10847000EEFAEFFB125C8374021248218023AC1ADF
:10848000AD1BEEFAEFFB125C89E9F870167402126C
:108490004857E4F0803CAC1AAD1BEEFAEFFB125CDF
:1084A0008FE9F8E8602C8E828F83A3E06414602249
:1084B000850C82850D83E09002F0F0851A82851B81
:1084C00083128D819002F11289C3E8A31284E51210
:1084D000586FEEFAEFFB125BE77402124857E0F9AF
:1084E0007403029F95F07CF07D02850A82850B83E0
:1084F000128D852274E812487B74FA12480B7404BA
:10850000124857ECF0A3EDF08A148B15EA2405F518
:1085100010E43515F511EA2402F512E43515F513CA
:10852000851282F583128D811259658A0C8B0D7527
:108530000A007C037D0079007AF07B02126787E5F0
:10854000102402F518E43511F519740212486188F7
:108550000E890F780E124A8E851082851183A3A38F
:10856000A3A3E0F50E750F00780E124A8EE51024D5
:1085700005F50EE43511F50F780E124A8E85188236
:10858000851983129088125B4B74061248218A0E5B
:108590008B0FE50E450F70030287158020851A8228
:1085A000851B83E088828983F0050A851A82851BF2
:1085B00083A3E0C0E0128756D0E0F0050AE50C2462
:1085C000FBFAE50D34FFFBC3E50A9AE49B40030286
:1085D00087157E007F00851482851583A3A3A3A33E
:1085E000E0F50B780B124A92E4F516F5177816129F
:1085F0004A8E7516ED7517027816124A8E9002EEA5
:10860000124AA57409124857124AA5E50C24F9F933
:10861000AC0EAD0F851282851383128D81125CB969
:108620007409124821E960030286B685108285111B
:1086300083A3A3A3A3A3A3A3E0F89002EDE0687033
:1086400075E0F5168E177816124A8E129D12851057
:1086500082851183A3A3A3A3A3A3A3A3128D811235
:1086600067817402124821E9604C9002F1128DB0CA
:10867000703BE4F5167816124A8E7CFF7DFF790771
:10868000851282851383128D81125C237402124835
:1086900021128DB67017851082851183129EAF74DA
:1086A000041248571297701290B9028749850E82BA
:1086B000850F8312874CA81AA91B8816891778166C
:1086C000124A8E7404124857124AA58518828519D9
:1086D000831289B9125B5774041248218A0E8B0FDA
:1086E000EE4F7003028592128756EE128761129048
:1086F0006FEF128761F8A3E03400F9E50E450F60D3
:108700000302859D8882898374FFF0050A128756CB
:1087100074FFF0050AE50A601A1313543F1289C961
:10872000125881E960099002F1128D811267F9797E
:10873000008016851082851183129EAF7404124842
:10874000571297701293D8790A029042A3A3A3A359
:10875000E0FEA3E0FF22A80A9002F1E02812906F49
:1087600022F0050A089002F1E0282274E812487B02
:1087700074FA12480B74021248571289C374041217
:108780004857ECF0A3EDF07402124857E0240512AC
:108790009058E0F50EA3E0F50F7402124857E0245C
:1087A00002F512A3E03400F513851282F583128DD1
:1087B00081125965750A00750B00EA24FCFEEB3442
:1087C000FFFF8008050EE50E7002050FA80AC3EE34
:1087D00098EF94005003028975A81AA91B88108984
:1087E000117810124A8E851682851783A3A3A3A33E
:1087F000129D19124A8EE5162405F510E43517F579
:10880000117810124A8E8516828517831289B71245
:108810005B4B74061248218A108B11EA45117003D4
:10882000028975EA2404F518E43511F519851882D2
:10883000F583E0F50EA3E0F50F851A82851B831200
:108840009D158A828B83A3A3A3E0F98512828513E9
:1088500083128D81125B39E9F50B6003028975740F
:108860000212485712907FF50B780B124A92E4F5EA
:1088700014F5157814124A8E7514ED7515027814D6
:10888000124A8E9002EE124AA57407124857124AF5
:10889000A5EEF9AC10AD11851282851383128D817E
:1088A000125CB97409124821E9F50B60030289755D
:1088B000E50A703FE4F510F5117810124A8E7CFF3E
:1088C0007DFF7909851282851383128D81125C23C5
:1088D00074021248211290A5700D740412485712A8
:1088E00089AC79110289A99002EDE024029002F18D
:1088F000F080149002F1E0FA9002EDE07900240299
:108900005001096A497072A80A9002EDE0FAE82A5B
:10891000FAE43400FBEE9AEF9B405A8518828519E1
:1089200083E0C0E09002F212875BD0E0F0050A8598
:108930001882851983A3E0C0E0089002F212875BD9
:10894000D0E0F0050A9002ED129D19124A8E129D98
:1089500012A80A12904C12676F74021248219002FA
:10896000EDE0250AF50A74FF650E700474FF650FCB
:1089700060030287C4E50A601F9002F1E0F5F0E5AC
:108980000A841289C9125887E960099002F2128D8F
:10899000811267F979008011E50B7003750B0A7479
:1089A000041248571289ACA90B0290421291E7E5D4
:1089B0000EF0A3E50FF022A3A3129FA4AA0EAB0F03
:1089C00022A3A3EAF0A3EBF0229002F0F07CF07D6A
:1089D00002851282851383128D852274EC12487BE6
:1089E00074FC12480B1294E87402124871128D7BC9
:1089F000125B518A0E8B0FEA450F7003028AB31285
:108A00008AC3A81AA91B881289137812124A8E7C6D
:108A1000FF7DFF790B850A82850B83128D81125CA5
:108A2000237402124821128BB9700C850C82850DBB
:108A3000831290B6028AC08E828F83A3A3A3A3E081
:108A4000F5147814124A92E4F514F5157814124AC4
:108A50008E7514F07515027814124A8E7812124A27
:108A60008E7409124857124AA57409124857E0F942
:108A7000AC0EAD0F850A82850B83128D81125CB915
:108A80007409124821E9FE70157CF07D02850A8286
:108A9000850B83128D8112588DE970098020741620
:108AA0006E70027E009002F1128D811267F9EE70F5
:108AB00004800B7E01850C82850D831293D5EEF91F
:108AC0000293EAEE2402F50AE43FF50B2274EC125D
:108AD000487B74FC12480BEAFEEBFF8C108D11EE04
:108AE0002405F50AE43FF50B7402124871850A82E9
:108AF000850B83128D81125B518A0E8B0FEA450F15
:108B00007003028BA9EE2402F50CE43FF50DA81AC0
:108B1000A91B881289137812124A8E7CFF7DFF7977
:108B20000D128D7B125C237402124821128BB970D6
:108B30000B850A82850B831290B6807A8E828F8392
:108B4000A3A3A3A3E0F5147814124A92850A8285A0
:108B50000B83A3A3124AA57514F07515027814129D
:108B60004A8E7812124A8E7409124857124AA57416
:108B700009124857E0F9128D77125CB9740912484E
:108B800021E9FE700F7CF07D02128D7B125893E973
:108B90007009802074166E70027E009002F1128DB2
:108BA000811267F9EE7004800B7E01850A82850BC5
:108BB000831293D5EEF90293EA128DC0F512A3E069
:108BC000F513EA45132274E812487B74FE12480B31
:108BD0008A188B198C168D17EA2405F50EE43519C1
:108BE000F50FEA2402F510E43519F511851082F528
:108BF00083128D811259658A0A8B0B750D007C03D7
:108C00007D0079007AF07B02126787750C00E50A17
:108C100014F5120424FFF50AE50B34FFF50B80541C
:108C20009002F0E0FA9002EDE0F8EA28F8E434006F
:108C3000F9E50A98E50B99500D9002F0E0F8E5127D
:108C4000C3989002EDF0E0F5147515007814124AFF
:108C50008E129D129002F1E02AFAA3E03400FB127A
:108C6000676F74021248219002EDE0F89002F0E084
:108C700028F0050C850E82850F83A3A312968C40E5
:108C800003028D5C9002F0E0C3950AE4950B40036B
:108C9000028D5CAE0CEE2EFEE433FF128D9BAC1AFF
:108CA000AD1B129D2DE439FB125B518A148B15AC60
:108CB00014AD15EC4D701B750D01128D8B1293D9EF
:108CC0009002F11282D860031267F9A90D740202B2
:108CD0009044851882851983A3A3A3A3E0F50D789A
:108CE0000D124A92E4F514F5157814124A8E751493
:108CF000ED7515027814124A8E9002EE124AA57490
:108D000007124857124AA5A91285108285118312AD
:108D10008D81125CB97409124821E9F50D709B90A0
:108D200002F1128DB06003028C20E4F514F5157881
:108D300014124A8E7CFF7DFF790F85108285118386
:108D4000128D81125C237402124821128DB66003C9
:108D5000028C20128D8B1290BA028CCD7CF07D0299
:108D6000851082851183128D81125899E960030262
:108D70008CC07900028CCDAC0EAD0F850C82850DB8
:108D800083128D8522E0FAA3E0FB22128D9BE0FA8C
:108D9000A3E0F9EA85168285178322850E82850F66
:108DA00083E02EF8A3E03FF988828983229002EEC7
:108DB000129EB3E84922128DC0F8A3E0F9E84922D7
:108DC0009002F1EAF0A3EBF09002F1E02274E812D5
:108DD000487B74FA12480B74041248571289C38CEA
:108DE000188D197404124857E02405F510A3E034D7
:108DF00000F5117404124857E02402129058128DA5
:108E0000811259658A0C8B0D7F007E00A81AA91B60
:108E1000880A890B780A124A8E851082851183A3ED
:108E2000A3A3A3E0F50A8E0B780A124A8EE510245C
:108E300005F50AE43511F50B780A124A8E85108281
:108E4000851183A3A3129088125B4B7406124821EC
:108E50008A0E8B0F8029129079F00F129079F00F03
:108E60009002ED1293C4124A8E129D12EFF81290E6
:108E70004C12676F74021248219002EDE02FFFE55B
:108E80000E450F7003028F08851A82851B8312948A
:108E9000FAA3A3A3E0F9851682851783128D8112A8
:108EA0005B39E9FEE50E2404F512E4350FF513EE07
:108EB0007050740412485712907FF50A780A124ACB
:108EC00092E4F50AF50B780A124A8E750AED750BD5
:108ED00002780A124A8E9002EE124AA574071248CE
:108EE00057124AA5E50C24FAF9AC0EAD0F8516828F
:108EF000851783128D81125CB97409124821E9FE2D
:108F000060391290951293D8EF700302902F90025F
:108F1000F1E0F5F0EF849002F0F07CF07D02851630
:108F200082851783128D8112589FE960099002F2A1
:108F3000128D811267F979000290428F0AEF703B1F
:108F4000E4F514F5157814124A8E7CFF7DFF791133
:108F5000851682851783128D81125C237402124854
:108F6000211290A570091290951290B9029042902A
:108F700002EDE024049002F1F080359002EDE0F87B
:108F80009002F1E0FAE82404FCE43400FDEC6A4DC0
:108F90006003028F0EE50C24FAFAE50D34FFFBE5C1
:108FA0000A28F8E43400F9EA98EB995003028F0E8E
:108FB000851282851383E0C0E09002F2E02FF8A3CF
:108FC000E034008882F583D0E0F00F8512828513AB
:108FD00083A3E0C0E0129066D0E0F00F7402124864
:108FE00061880A890B780A124A8E74021248571255
:108FF0004AA58510828511831289B7125B577404C4
:109000001248218A0E8B0FEA450F7003028E5674A8
:1090100002124857E0C0E0129066D0E0F00F7402F0
:10902000124857A3E0C0E0129066D0E0028E5EEED8
:1090300070027E0A85108285118312909B1293D84C
:10904000EEF974061248217F1002494D9002F2E0B9
:1090500028FAA3E03400FB22F516A3E03400F5174C
:10906000851682F5832212906A229002F2E02FFA8E
:10907000A3E034008A82F5832212906A74FF2212E0
:1090800091E7A3A3A3A3E022129FA48510828511D8
:1090900083128D8522851282851383129EB38518D3
:1090A00082851983229002F2EAF0A3EBF09002F29B
:1090B000129EB3E849221293DEE8F0A3E9F0791199
:1090C0002274EA12487B74FE12480B8A0A8B0B8CBE
:1090D000148D15EA2405FEE4350BFFAC1AAD1B8E8A
:1090E000828F83128D81125B518A0E8B0FEE2406C4
:1090F000F510E43FF511EA450F70030291B9E50A56
:109100002402F50CE4350BF50D8A828B83A3A3A30F
:10911000E0A2E55028851A82851B83128D81125C9E
:10912000AD8A128B13EA451360207912128D778570
:109130001282851383124879E9F50E707F851082BB
:10914000851183E0600979528011750E0E806D855E
:109150000A82850B83A3A3A3A3E0F9E4F50AF50B28
:10916000780A124A8E8E828F83A3A3E0F50A780ACA
:10917000124A8E8E828F83A3A3A3124AA58E828F5A
:1091800083129D15128D7B125CBF7406124821E973
:10919000F50E7011851082851183E0702D128D7B84
:1091A0001258A580257416650E7011750E0074187E
:1091B0001248571291E3E48010750E01129EAB85A0
:1091C0001482851583E8F0A3E9F085108285118368
:1091D000E0600479008002A90E74021248217F0E1B
:1091E00002494D1291E722E0F8A3E0F5838882223C
:1091F00074EC12487B74F712480B8A0C8B0D8C129E
:109200008D13EA2405FEE4350DFF750E00AC1AAD92
:109210001B8E828F83128D81125B518A0A8B0BEA1F
:10922000450B70030293AFE50C2402F50C500205C8
:109230000D8A828B83A3A3A3E0A2E5502F851A8217
:10924000851B83128D81125CAD8A0E8B0FEA450F50
:10925000604F7912AC0AAD0B128D7B850E82850FA3
:1092600083124879E9F50E60030293B2850C82857A
:109270000D83E0F50AA3E0F50BAA0AFB125CA1EA54
:109280004B70197AFF7BFF125CA1EA4B70030293CB
:10929000A58A828B83E50AF0A3E50BF0750A0080AE
:1092A00008750E0E0293B2050A9002EAE0F8E50A8C
:1092B000C39840030293A5850A10751100740378C2
:1092C000101247F88A828B83A3A3E02510F8A3E04D
:1092D000351112977970D08E828F831293CD1289B7
:1092E000C38E828F83A3A31293CD1289C1EE24046F
:1092F000F50AE43FF50B850A82F583E088828983CD
:10930000A3A3A3A3F0A3E4F0EE2405F510E43FF536
:1093100011851082F5831293CDA3A3A3A31289C153
:109320007514077515007814124A8EEEFCEFFD7463
:109330000412486912676F7402124821E4F5147828
:1093400014124A8E850A82850B83E0FC7D00791712
:10935000128D7B125C237402124821740712485745
:109360001289C37407124857E0FA4B603D850A82A0
:10937000850B831293C4124A8E8510828511831245
:109380009D1512676F7402124821740212487112FF
:109390008D7B1258ABE960267407124857128D81F5
:1093A0001267F98019750E098008750E1180037512
:1093B0000E01129EAB8512828513831293D8A90EDB
:1093C00074098028E0F50A750B00780A22128D8551
:1093D00088828983221293DEE8F0A3E9F022E0F884
:1093E000A3E0F98510828511832274041248217F3D
:1093F0000C02494D74EC12487B1294E8751200EE91
:109400002402F50EE43FF50F850E82F583128D815F
:10941000125CA18A0A8B0BEA450B70030294CC857F
:109420000C82850D83E0640160030294C1AC0AAD37
:109430000BAA0CAB0D125C95E9606E850A82850B58
:109440008312874EEE2406F50CE43FF50D8E828FD5
:1094500083A3A3124AA58E828F83A3A3A3A3124A38
:10946000A5850C82850D83124AA579188E828F837B
:109470001294FA128D81125CBF7406124821E9F829
:10948000741668700B850C82850D83E4F0A380143C
:10949000E860128E828F83128D8185108285118300
:1094A000EAF0A3EBF0881280187810124A8EAC0A0A
:1094B000AD0BEEFAEFFB125C9B7402124821E9F54A
:1094C00012AA0AAB0B125CA7E512700E850E8285FC
:1094D0000F83128D811258B18009741665127003C2
:1094E000751200A9120293EFEAFEEBFF8C108D11AA
:1094F000EE2405F50CE43FF50D22129FA4850E82A3
:10950000850F832274EA12487B750A00750B007E72
:10951000007F00750C00EC2402F512E43DF5138089
:1095200035EC650A7003ED650B60030295B988821E
:109530008983A3A3E06A7003A3E06B707C888289AF
:1095400083A3A3A3A3129EAFEE28FEEF39FFEA2860
:10955000FAEB39FB050C129689503A850C0E750F03
:10956000007403780E1247F88512828513831296D1
:109570007C129779601FE50A450B70A58C0A8D0B4C
:109580008882898312874C88828983A3A3E02EFA7C
:10959000A3E03F80BEE50CC39402500302967775AA
:1095A0000A00750B00EE4F6010EEFAEFFB1267F346
:1095B0008A108B11EA451170057900029679750DB4
:1095C0000002964C850D0E750F007403780E12473D
:1095D000F8851282851383E0250EF50EA3E0350F82
:1095E000F50FE50E2406F516E4350FF517851682FE
:1095F000F58312977E6042E50E2404F514E4350FDE
:10960000F515851482F583124AA5E510250AFAE5B9
:1096100011350BFB12676F74021248218514828585
:109620001583E0250AF50AA3E0350BF50B851682B4
:10963000851783128D811267F9E50D600D7C087D19
:10964000007900AA0EAB0F126787050DE50DC395D3
:109650000C50030295C4851282851383129EAF8835
:10966000828983A3A3A3A3A3A3E510F0A3E511120A
:1096700082DFEEF0A3EFF079010291DE12968022F4
:10968000E0250EF8A3E0350F229002EAE0F8E50CA1
:10969000C3982274F012487B8A108B118C0C8D0DAC
:1096A000750F00750E0080507916EE2406F50AE459
:1096B0003FF50B8E828F83A3A3124AA58E828F83E0
:1096C000A3A3A3A3124AA5850A82850B83124AA5E8
:1096D000851082851183A3A3128D81125CBF74064D
:1096E000124821E9F50F7416650F706C850A8285A2
:1096F0000B83E4F0A3F0050E9002EAE0F8E50EC358
:10970000985066AA0E8A0A750B007403780A1247ED
:10971000F8850C82850D83A3A31297C8E8FEE9FFA4
:109720008E828F8312977E6040EA2401F50AE4342A
:1097300000F50B9002EAE0650A7002E50B60148800
:10974000828983A3A3A3A3A3A3A3A3128DB06003C1
:109750000296A879180296AAE9609B129EAB741033
:109760001248571297701293D8A90F7F0802494DDB
:10977000E0FAA3E0F5838A8222F988828983129F26
:10978000A4EC4D2274F612487B7C0080010C9003FF
:1097900047E0F8ECC398501E8C0A750B00740278F1
:1097A0000A1247F81297BDE06A7003A3E06B70DD00
:1097B000E8FAE9FB80047A007B000298609002E8F6
:1097C0001297C88882898322E0250AF8A3E0350B26
:1097D000F92274F212487B8A0A8B0B750C008027E1
:1097E0008E828F83A3A3A3A31282D660031267F98C
:1097F0007C087D007900EEFAEFFB1267878E828F7E
:1098000083E4F0A3F0050C1296895027850C0E75A1
:109810000F007403780E1247F8850A82850B83A324
:10982000A3E0250EFEA3E0350FFF8E828F83128DFD
:10983000B070AD850A82850B8374FFF0A3F0029FA0
:109840009874F612487B125C538A828B83E58245BA
:109850008370067A007B008007A3A3A3A3128D81E7
:109860007F0202494D74F412487B890A8C828D83F1
:10987000E06402703C129E4EFEA3E0F9EEF8740222
:109880006870037429697029750C02750D00780CD5
:10989000124A8E7410124857124AA5741012485773
:1098A000124AA5A90A1266017406124821E9F98034
:1098B00002790102831374E812487B74FB12480B8F
:1098C000E9851A82851B83F08A188B19ECFEEDFF5F
:1098D0007512008E828F83A3A3A3E0A2E4502D749F
:1098E0001D124857128D81125CAD8A828B83E582EE
:1098F00045837003029CED790AEEFCEFFDAA18ABDC
:1099000019124879E9F5126003029CF0741F12489D
:1099100057E0F50AA3E0F50B7421124857E0F50C67
:10992000A3E0F50D7423124857E0F510A3E0F511FC
:109930008E828F83E064026003029C8EA3129EAF2E
:10994000850A82850B83A3858214858315EE240600
:10995000F50EE43FF50F88828983129D2DF516E4FC
:1099600039F5177816124B18010000280128909934
:1099700007000228559A0328C3990029849B0129CE
:10998000AF9B0229509B0329849B0429289C8E9C11
:10999000E51045116003029C89850E82850F8312B4
:1099A0009EAFE8FAE9FB8A828B83E0850C82850D05
:1099B00083129D38124A8E8A828B83A3E0FCA3E037
:1099C000029C12E51045116003029C89850C82857A
:1099D0000D837401F0129D22850A82850B83F07C31
:1099E000007D008E828F83A3A3A3A3E02401FAA3AA
:1099F000E03400FB125B51EA4B60408A828B83E0CB
:109A00002402F8850C82850D83E028F0EA2404F80E
:109A1000E43BF988828983E0851482851583129D51
:109A200046129D38124A8E8A828B83A3129D15E5B9
:109A30000A2403FAE4350BFB029C17850C82850D82
:109A400083E02404F07C047D007900AA14AB151295
:109A50006787029CF0E51045116003029C89129D06
:109A600022FEA3E0FF850C82850D837404F0EE8551
:109A70000A82850B83F0EF851482851583F07403C9
:109A8000124871EEFAEFFB125B518A0E8B0FEA451A
:109A90000F7003029B338A828B83A3A312874C74BB
:109AA00001124861881089117810124A8E740512CB
:109AB0004857124AA57CFF7DFF125B577404124879
:109AC000218B11EA45117033850E82850F83129D1B
:109AD00019124A8E850E82850F83A3124AA57C0235
