:020000040000FA
:10400000BA48FFFF0100007C42424242FFFFFFFF2F
:10401000FFFFFFFFFFFFFFFFFFFFFFFFFFFFFFFFB0
:10402000000102030405060708090A0BFFFFFFFF52
:1040300002451C025A05FFFFFFFFFFFFFFFFFFFFC6
:10404000FFFFFFFFFFFFFFFFFFFFFFFFFFFFFFFF80
:10405000FFFFFFFFFFFFFFFFFFFFFF0260BEFFFF4D
:10406000FFFFFF0260A0FFFFFFFFFFFFFFFFFFFF5B
:10407000FFFFFFFFFFFFFFFFFFFFFFFFFFFFFFFF50
:10408000FFFFFF025A7BFFFFFFFFFFFFFFFFFFFF66
:10409000FFFFFFFFFFFFFFFFFFFFFF026077FFFF54
:1040A000FFFFFFFFFFFFFFFFFFFFFFFFFFFFFFFF20
:1040B000FFFFFF02585B01FF0000B400002800284A
:1040C00000283075A000A000A000A0000008000893
:1040D000E001F000100010001000100010001000AF
:1040E00050005000500010001000D00700000000E9
:1040F00000000F00010005003075070010000100EE
:1041000081FF00000000FFFFFF0F632D6315635167
:1041100063FF02020208025000A0000000E8030250
:1041200030920100000092022C92010000EF150273
:104130002692010000BE02022C92010000F015023E
:104140002092010000D402022C92010000F115021D
:104150001E92010000D602022C92010000F215020C
:104160001C92080000D702022C92010000F31502F5
:104170002292010000F415FF0100FF20023092019D
:1041800000001991022C92010000581602169200AC
:104190000000000002289203000005031700FF69D9
:1041A000FF69FF69FF69FF69FF69FF69FF69FF69CF
:1041B000FF69FF69FF69FF69E76CF96CE16C020256
:1041C00002020202020202010D0000001001023090
:1041D00092010000FD91022C920100009B1602103A
:1041E000920100002207022C920100009C16020E90
:1041F000920100001A90022C920100009D16020606
:1042000092010000FE8F022C920100009E1602080F
:1042100092010000578F022C920100009F16020AA3
:10422000920100008D8F022C92010000A016020C5A
:1042300092010000338F022C92010000A11602248B
:1042400092010000458F022C92010000A21602127A
:10425000920100000C90022C92010000A31602149F
:1042600092010000A41601E8030577100A1C023031
:10427000920100000392022C920100004A1710786C
:104280008E02000018080228920300001A08022A71
:10429000920100004190022C920100004A17108800
:1042A0008E02000019080228920300001C08022A4E
:1042B00092010000CF90FFFFFFFFFF000130750368
:1042C00002010600000000000000000000000000E5
:1042D000000000000000000000000000000000FFDF
:1042E000FF0600800CE803140943433235343042A2
:1042F0004C455065726970686572616C05125000BA
:104300002003020A000201060302F0FF53696D70E8
:104310006C6520424C452050657269706865726119
:104320006C0972000015720A4368617261637465FA
:10433000726973746963203100024368617261635A
:10434000746572697374696320320008436861722E
:104350006163746572697374696320330010436824
:1043600061726163746572697374696320340002F9
:10437000436861726163746572697374696320353F
:10438000000A43686172616374657269737469637A
:10439000203600023092010000FA91022C920100B6
:1043A0000004180238920300008715022A920100C7
:1043B000000518022C920100001618023A92010022
:1043C000008815022A920100001718022C920100A1
:1043D000002818023C920200008915022A9201006E
:1043E000002918022C920100003A18023E920000A7
:1043F000008A150228920300008B15022A92010000
:10440000003B18022C920100004C1802409204005C
:10441000008D15022A920100004D18022C92010015
:10442000005E180242920300009215022A920100D7
:10443000005F183031323334353637383941424332
:1044400044454600286E756C6C20706F696E74650B
:10445000722900303132333435363738396162638E
:10446000646566003F3F3F000000807F0000803FA2
:1044700000000000F9021550B743BA510000204176
:1044800000E7DB2E0000A040E5C754F84404F5C760
:1044900079012200000080FB124488B90003024524
:1044A00006E479217808B800028004F709D8FCE412
:1044B00079297802B800028004F709D8FCE4900258
:1044C00080781579148002F0A3D8FCD9FA781C9072
:1044D00040B67A01BA00028007E493A3F608DAF93D
:1044E0007A947B159040B778D279048015E493A331
:1044F000AD82AE838A828B83F0A3AA82AB838D8246
:104500008E83D8E9D9E77582107583A874041245A3
:104510002E758293758344740012452E75D00075F4
:10452000813F751A80751B02759F00024498C09FD9
:10453000F59FE473D09F22D083D082C09FE493C0C4
:10454000E0740193C0E0740293F59F22E06670105E
:1045500008A3E066700A08A3E066700408A3E0669A
:1045600022C00AC3E096F50A08A3E096420A08A30F
:10457000E096420A08A3E096420AA2D265D033E54B
:104580000A7001D3D00A22C3E7960809E796080902
:10459000E7960809E79622C3E09608A3E09608A3E9
:1045A000E09608A3E09622C00AC3E096F50A08A3A5
:1045B000E096420A08A3E096420A08A3E096450A5C
:1045C0007001D3D00A22080808E630E711124E80A5
:1045D0001245DE080808C64480C6181818221818A4
:1045E00018E9799EC608CAC608CBC608CCC6C370EF
:1045F000207996CACBCC7019798ECBCC7013798682
:10460000CC700EF9802ACA33CACB33CBCC33CC332F
:104610001930E7F2CCCBCA3350147004EA30E00D05
:10462000E4CA3ACACB3BCBCC3CCC500209C3E91319
:10463000C6CC182313C6CB18C6CA18C6F922124610
:104640007E20F01430E72B74FFFCFBFA747F80228D
:10465000E4FCFBFA7480801AB48008BC00F2BB0052
:10466000EF800F50EBF9E4C39AFAE49BFBE49CFC67
:10467000E499C6CC18C6CB18C6CA18C6F922E4C934
:10468000C608CAC608CBC6D3330308CCC63392F0DB
:10469000C3947F402E94184019C9B90704CACBCCE3
:1046A000225025C309CA33CACB33CBCC33CC33D940
:1046B000F422F4600DC9CCC313CB13CBCA13CAD9EF
:1046C000F6CC22E4FCFBFA2214FCFBFA22E62618C4
:1046D000461846184622E72719471947194722184E
:1046E0001818E60846087009E626087005E633F44F
:1046F000220822191919E70947097009E7270970E3
:1047000005E733F4220922E6084608C313460833B6
:104710006002E633F422E7094709C313470933600F
:1047200002E733F422124707602512471660201271
:1047300046CD70030246D6080808E76670101819BF
:10474000E766700A1819E76670041819E76622F41C
:1047500022124707601C12471660171246CD7007D9
:104760001246D67001D322C0D01246D67006D0D0E1
:10477000B322C32233D0D0501430E0F6C3E79608FA
:1047800009E7960809E7960809E796B32220E0D5DD
:10479000E6970809E6970809E6970809E697B3221D
:1047A000124707601B12471660161246CD7007129B
:1047B00046D6600CB322C0D01246D67005D0D022A7
:1047C000C32233D0D0501330E0EBC3E7960809E79B
:1047D000960809E7960809E7962220E0E4E697089C
:1047E00009E6970809E6970809E6972200124707A5
:1047F000604F1247166012E7548066F61246DF706B
:10480000111246D6703B090909F4F618F618F61885
:10481000F6221246F370151246CD08080860EAE643
:10482000447FF618768018E4F618F6221246CD601A
:10483000161246D67012E4F608F608F608E654801A
:10484000F609090918181822EAC0E0EBC0E0ECC02C
:10485000E0EDC0E0E687F0A4FBACF008E687F0A44A
:104860002CFCE435F0FA1809E687F0A42C4B600222
:104870007401CA35F0FCE433FB09E687F0D2F7A4F3
:104880002CCB35F0FC1908E687F0A42BCC35F0FBD7
:10489000E433FD0819E687F0D2E7A42C4ACB35F0C3
:1048A000CD3400FC09E687F0D2E7A42DCC35F0FD2D
:1048B000E433FA0918E687F0D2F7A42CCD35F0CA14
:1048C0003400FC08E687F0D2E7D2F7A42ACC35F012
:1048D0007A7E20E70B0ACB33CBCD33CDCC33CC3330
:1048E000CB3350147004ED30E00ED2F1E4CD3DCD69
:1048F000CC3CCC3B5005DA05C2F1EB547FC6330803
:10490000E63392F0FBE73309E733C39A502D2B705F
:10491000190C0D4C4D70151806E608C333700D20A8
:10492000F10AA2F013F6E418800B4024E4F630F00C
:1049300002768018F618F618F68024D33B1450102F
:1049400074FFA2F013F6187680E418F618F6800FBC
:10495000A2F013F618E63303F618ECF618EDF6D0CD
:10496000E0FDD0E0FCD0E0FBD0E0FA221247166078
:1049700046124707603DE9687008F618F618F61801
:10498000F622748067F71249A0090909748067F755
:1049900022124707601D1247167005191919801A4F
:1049A0001246DF701F1246F3C37003E6673319190E
:1049B0001940071818182208080874FFF618F61886
:1049C000F618F6221246F360171246D6702192F0BE
:1049D0001246CD7019501720F0140808080909096B
:1049E000E7F61819E7F61819E7F61819E7F622128C
:1049F00046CD60E6E869701F0808E62480F608E402
:104A000036F618547FB47F0CE654806007F6E4183D
:104A1000F618F622181822E9C6CC08C6CD08C6CE6C
:104A200008C6CFC0E0E8C0E0EAC0E0EBC0E009E9BA
:104A3000F809E7FA09E7FBE6F918E6F8C3EC98EDA0
:104A400099EE9AEBC2E7F5F0EFC2E795F0500E60F1
:104A50000CEBCFFBEACEFAE9CDF9E8CCF8EAA2E715
:104A6000D2E7FAEB33FB13F5F0EEA2E7D2E7FEEF65
:104A700033FFC5F013A2E730E601B313C5F0C3C09E
:104A8000E0C0F07F00C39BFB605E9418600F401D88
:104A900014601AD0E023F9D0E0F8024B728AF0E9F2
:104AA000486003D2F0E4AFF0FAF9F8803BEB30E471
:104AB0000D89F0EA6003D2F0E4AFF0F9CAF8EB3008
:104AC000E30D88F0EF6002D2F0AFF0E4CAC9F8EB72
:104AD00054076014FBC3EA13FAE913F9E813F8EF7B
:104AE000135002D2E0FFDBEDD0E0C0E030E739C385
:104AF000E49FFFF5F0EC98FC42F0ED99FD42F0EEFA
:104B00009AFE42F0D0E0F9D0E0F8E5F0607AE923CF
:104B1000F9EE20E742D8028067C3EF33FFEC33FCA5
:104B2000ED33FDEE33FE80EAEC28FCED39FDEE3A84
:104B3000FED0E023F9D0E0F84002801BC3EE13FE64
:104B4000ED13FDEC13FCEF135002D2E0FF08B800A8
:104B5000067F7F74FF802EEF3350178CF020F00219
:104B600060100CBC000C0DBD00080EBE000408E86F
:104B700060DFE933E813FFEE2313FE4F4D4C80084E
:104B8000E95480FFE4FEFDFCEE33EF33F47004FCE7
:104B9000FD7E80D0E0FBD0E0FAD0E0F8D0E0CFC6D8
:104BA00018CEC618CDC618CCC6F922124707700415
:104BB00018181822124716700D74FFF61819F618F7
:104BC00019F61819F622E7548066F61246CD700FD2
:104BD0001246D670F014F608F608F608F680D112E0
:104BE00046D6700CF608F608768008E6447F80EC1E
:104BF0001246F6700C1246E260BFE65480F6E4807E
:104C0000BB1246E2700519191980A5E869700C7687
:104C10003F18768018F618F6E8F922E6CDC0E018BD
:104C2000ECC0E0E633CD33CDD313F6E719FCE7193A
:104C30001933CC33C3947F400ECD9D502408E654E5
:104C400080F6E418F6800FF4043D14501408E6448E
:104C50007FF6187680E418F618F6D0E0FCD0E0FD78
:104C600022CCD313CCFD18E4C6CBC0E018E4C6CAEE
:104C7000C0E00808ED08C633E613F618E433C6753D
:104C8000F003C3CA97CA09CB97CB199C40047D088F
:104C9000802EBD0003024D5416B6FF050606081609
:104CA00018C3CA33CACB33CB33CA27CA09CB37CBD5
:104CB000193CC37D08803E187D0820E75CC633C6DA
:104CC000CA33CACB33CB33DDF1D5F0EB30E77BCA47
:104CD00097CA09CB974ACB199C406F4B7025E620A9
:104CE000E0218066187D08C3CA97CA09CB97CB1903
:104CF0009CD3C633C6CA33CACB33CB3350C9DDE7E6
:104D0000D5F0E1D3E4C636C608C636C608C636C6F0
:104D100008C636C61818188031C3CA97CA09CB9777
:104D2000CB199CB34097C633C6CA33CACB33CB33F7
:104D3000DD34D5F02EC6A2E0C640C8CA27CA09CBCA
:104D400037194A70BECB3CB480B90808E63308E690
:104D500033601F181818D0E0FAD0E0FBD0E0FCD088
:104D6000E0FD22187D08CA27CA09CB37CB193CD3EE
:104D7000808013F618E4B67F11F618B6FF0EF61809
:104D8000C60470D20808768080CAF618F618F68035
:104D9000C5080808EAC0E0EBC0E086F0E7A4FA180E
:104DA0000986F0E7A42AFA180986F0E7A42AFA1877
:104DB0000986F0E7A42AFA1986F0E7A4FBE5F02AB1
:104DC000FA190886F0E7A42BFBE5F03AFA190886F1
:104DD000F0E7A42BFBE5F03AFA18180986F0E7A4EF
:104DE000C5F02BFBE43AFA1908E7C5F0C6A426F68D
:104DF000E5F03BFBE43AFA1886F0E7A4F6E5F008A4
:104E000026F6E43B08F6E43A08F6D0E0FBD0E0FAF8
:104E100022E4CFC0E0E4CEC0E0E4CDC0E0E4CCC00A
:104E2000E075F020E626F608E633F608E633F608E5
:104E3000E633F6181818EC33FCED33FDEE33FEEFD5
:104E400033FFC3EC9709ED9709EE9709EF9719190E
:104E500019400FFFEC97FC09ED97FD09EE97FE193D
:104E60001906D5F0BFECF709EDF709EEF709EFF7F2
:104E7000191919D0E0FCD0E0FDD0E0FED0E0FF220F
:104E8000181818E4C396F608E496F608E496F608AF
:104E9000E496F6226016080808C6C313C618C6139F
:104EA000C618C613C618C613C6D5E0EA227009088C
:104EB0000808226016181818C6C333C608C633C6B9
:104EC00008C633C608C633C6D5E0EA22E627F60888
:104ED00009E637F60809E637F60809E637F622E06C
:104EE00026F608A3E036F608A3E036F608A3E03677
:104EF000F622E026F008A3E036F008A3E036F0083A
:104F0000A3E036F022C3E697F60809E697F608090B
:104F1000E697F60809E697F622C3E096F008A3E0C4
:104F200096F008A3E096F008A3E096F022E056F68B
:104F300008A3E056F608A3E056F608A3E056F622CA
:104F4000E056F008A3E056F008A3E056F008A3E00E
:104F500056F022E0F608A3E0F608A3E0F608A3E086
:104F6000F622E6F008A3E6F008A3E6F008A3E6F0D0
:104F700022E0FAA3E0FBA3E0FCA3E0FD22E0F8A31B
:104F8000E0F9A3E0FAA3E0FB22E8F0A3E9F0A3EA4A
:104F9000F0A3EBF022CAC0E0E6F0A308DAFAD0E012
:104FA000FA22CAC0E0E0A3C582CCC582C583CDC5C4
:104FB00083F0A3C582CCC582C583CDC583DAE6D094
:104FC000E0CA22C3E498F8E499F91250048026C399
:104FD000E49AFAE49BFBE920E7E9125004E498F82C
:104FE000E499F922C3E498F8E499F9125004E4989A
:104FF000F8E499F9C3E49AFAE49BFB22EB20E7CFAB
:10500000E920E7E0B90010BB0008E88AF084F8AABC
:10501000F022E4FBC8FA22EB70227B10C833C8C927
:1050200033C9335007C39AC3DBF280069A50012A72
:10503000DBEAC833F4C8C933F4C9FA2275F008E4CE
:10504000C833C8C933C933C99AC99B5004C92AC9CE
:105050003BD5F0ECFBC833F4C8E4C9FA22600D0874
:10506000C6A2E713C618C613C6D5E0F322600C0823
:10507000C6C313C618C613C6D5E0F4227004226056
:105080000D18C6C333C608C633C6D5E0F4182225AA
:105090001A10AF08F51A400C151B8008F51A4002CB
:1050A000151BD2AF2200C0D0251A10AF08F51A5038
:1050B0000C051B8008F51A5002051BD2AFD0D02278
:1050C000251AF58210AF08F51A400C151B8008F55B
:1050D0001A4002151BD2AF851B8322251AF582E4E4
:1050E000351BF58322251AF8E4351BF922251AFA17
:1050F000E4351BFB22251AFCE4351BFD22E4732555
:105100001AC582C0E0E51B34FFC583C0E0E51AC3C1
:10511000958224F810AF0885831B85821A80088544
:10512000831B85821AD2AFCEF0A3E520F0A3780AC4
:10513000E608F0A3DEFAEFF0A3E58124FAF8E6082A
:10514000F0A3E608F0A3E608F0A30808E608F0A339
:10515000E608F0A315811581D0E0FED0E0F81581B6
:1051600015811581E8C0E0EEC0E022251AC582C095
:10517000E0E51B34FFC583C0E0E51AC3958224F93E
:1051800010AF0885831B85821A800885831B858262
:105190001AD2AFCEF0A3E520F0A3780AE608F0A378
:1051A000DEFAEFF0A3E58124FBF8E608F0A3E608B9
:1051B000F0A30808E608F0A3E608F0A3158115811E
:1051C000D0E0FED0E0F815811581E8C0E0EEC0E047
:1051D00022851B83851A82E0A3FEE0A3F520780ACE
:1051E000E0A3F608DFFAE0A3FFE0A3C0E0E0A3C07D
:1051F000E0E0A3C0E0E0A3C0E0E0A3C0E010AF089F
:1052000085821A85831B800885821A85831BD2AF0D
:10521000D083D082024534851B83851A82E0A3FEA9
:10522000E0A3F520780AE0A3F608DFFAE0A3FFE0A8
:10523000A3C0E0E0A3C0E0E0A3C0E0E0A3C0E010B2
:10524000AF0885821A85831B800885821A85831B97
:10525000D2AFD083D08222C0D0251AC582C0E0E56B
:105260001B34FFC583C0E0E51AC3958224F310AF59
:105270000885831B85821A800885831B85821AD244
:10528000AFC8F0A3E9F0A3EAF0A3EBF0A3790AE733
:1052900009F0A3D8FAECF0A3EDF0A3EEF0A3EFF041
:1052A000A3D0E0F0A3D0E0F0A3D0E0F0A3E520F09D
:1052B000A3E5F0F0A322851B83851A82E0C0E0A35A
:1052C000E0F9A3E0FAA3E0FBA3780AE0F608A3DF85
:1052D000FAE0FCA3E0FDA3E0FEA3E0FFA3E0C0E052
:1052E000A3E0C0E0A3E0F5D0A3E0F520A3E0A3F5A0
:1052F000F010AF0885831B85821A800885831B8583
:10530000821AD2AFD082D083D0E0F8D0E0327404D9
:105310008006740280027401C0E0F4041250C0D010
:10532000E0124F95227404800474028000CCC0E027
:10533000EDC0E0E51AC39CCCAD1B50011D10AF06BB
:105340008C1A8D1B80068C1A8D1BD2AF124FA2D0E7
:10535000E0FDD0E0FC22D083D082E9C0E0E493A35A
:10536000C386F0C5F095F0F908E493A386F0C5F084
:1053700095F0700BE493A3C3994005E9048002A360
:10538000E475F002A42582F582E5F03583F583D03B
:10539000E0F9E493A3C0E0E493C0E022D083D0829C
:1053A000ECC0E0EDC0E0E493A3FCE493A3FDED4C7E
:1053B000600D1253E8EC24FFFCED34FFFD80EFE4B8
:1053C00093A3FCE493A3FDED4C600D125427EC2451
:1053D000FFFCED34FFFD80EFD0E0FDD0E0FCE49376
:1053E000A3C0E0E493C0E022C0E0C3E49396087455
:1053F00001939618400FE493667008087401936651
:105400001870007019A3A3C3E493960874019396CF
:1054100018A3A3400DD0E0D0E0D0E00253D8A3A35E
:10542000A3A3A3A3D0E022C0E0C0F088F0E4936679
:1054300070080874019366187000A8F0A3A3700B9D
:10544000D0F0D0E0D0E0D0E00253D8A3A3D0F0D089
:10545000E022FFFF74F612516BEAFEEBFF8C0A8D1F
:105460000BEE2434F8E43FF9E8FCE9FD125587E03F
:10547000FAEE2437F582E43FF583E0F8850AF0A4DC
:10548000C885F00C850BF0A4250CF9EA28F8E4395E
:10549000F97A257B00125004EA8C828D83F0FA138E
:1054A0001313541FF8EE28F8E43FF9E8245DF58261
:1054B000E439F583E0C0E074075AF8D0E0B80002A0
:1054C0008004C313D8FCA2E05003EA8020EE243607
:1054D000F582E43FF583E0F5F0EA84A8F0EE28F8E1
:1054E000E43FF9E82438F582E439F583E0F97F03F5
:1054F00002521774F512516BEAFEEBFFEE2434F5FD
:1055000082E43FF583E0C0E0125587D0E0F08E8260
:105510008F83A3A3A3A3A3E0FAA3E0FB8E828F83D0
:10552000A3A3A3A3A3A3A3E0FCA3E0FDECC39AF56C
:105530000CED9BF50DEE247FF50AE43FF50B850A93
:1055400082F583E06401702AEE2480F582E43FF561
:105550008312532912559174021250A5E960137CED
:10556000AF7D04EEFAEFFB12691B850A82850B837F
:10557000E4F0AC0CAD0DEEFAEFFB125454E9F91265
:1055800060697F04025217EE2435F582E43FF5830B
:1055900022C082C083851A82851B83E0F8A3E0F9CC
:1055A000C3EA9CEB9D5010C3EC98ED99401BC3EAF5
:1055B00098EB995014800EC3EA98EB994007C3EC1E
:1055C00098ED994004790180027900D083D082223D
:1055D000EAC39CFAEB9DFB2274ED12516B900375AC
:1055E000E064086005E06407702C9061C8E0602604
:1055F0009003A3E0F874FF68601CE875F00AA4C883
:10560000AAF02AF974A528FE740339FF8E828F83CD
:10561000A3A3A3E070057900025771EE2468F5108A
:10562000E43FF511906060E0851082851183F0758C
:10563000121F751305750A00750B00E5D914F50CDA
:10564000E5D95403F50D601FEE2482F50EE43FF515
:105650000F7403650D6059E50C6017EE2467F58241
:10566000E43FF583E0700B793DEEFAEFFB12694BF6
:1056700080A490051AE064016023850E82850F8363
:10568000E060047A0480027A00E50CC39AFA95E09F
:10569000FB1267A78A0A8B0BEA450B7006126BAFE9
:1056A000025616850E82850F83E070048A128B13D2
:1056B0007A008014E5D9C0E0EAF8E51228F582E422
:1056C0003513F583D0E0F00AEAC3950C40E6850E69
:1056D00082850F83E0602874FC250CF50C7812128B
:1056E0005312AC0CA90DEEFAEFFB1269F974021219
:1056F00050A5E9700AAA0AAB0B1270B9025667747A
:1057000003650D6054850C0E750F00780E12531250
:10571000AC12AD13AA0AAB0B1269BD74021250A5EC
:10572000851082851183E0F87480687005750E7F9E
:105730008002880EE50EF50F780F125316780D12C1
:105740005316A90CAC0AAD0B9003A3E0FA7B001230
:1057500065DF74021250A58013900375E064086041
:105760000BAC12AD13EEFAEFFB126A8F126BBB7922
:10577000017F0C02521774F312516B74FC12508F9C
:10578000EAFEEBFF890BA2AFE433F50AC2AFEE24C9
:1057900063F50CE43FF50D8010AA0CAB0D12697592
:1057A0001270B99004B6E004F0850C82850D83E098
:1057B000F8A3E0F9E849602DE82402FAE439FBEAAD
:1057C0002402F50EE43BF50F780E1253128A828BF9
:1057D00083E0FCA3E0F9EEFAEFFB126969740212B0
:1057E00050A5E960B49004B6E0604D9004B7E0F8CD
:1057F0009004B6E0C398500C7402650B703A9004A4
:10580000B8E060348E828F83A3A3A3A3E0851A82BD
:10581000851B8312584874021250DBE812584890D6
:1058200004B5E028F074021250F5AA1AAB1B7901F6
:105830001266339004B6E4F0E50AA2E092AF740475
:105840001250A57F06025217F0A3E4F09004B6E0D0
:10585000F822FFFF8521878522C622C0E074EB1263
:105860005257A2AFE433F50AC2AF759B0090618234
:10587000E0A2E05030E591A2E0502A7591FE74015B
:10588000652170211259EE126AE91259DC12532572
:10589000125E1374041250A5E964017005790112B7
:1058A0006B431255D8906182E0A2E5505DE591A26C
:1058B000E550577591DF900375E064076005E0647B
:1058C00008702F1259EE74016521703E126AE912B8
:1058D00059DC125325125E1374041250A5E96401B9
:1058E00070057901126B437901EEFAEFFB125776DE
:1058F0008018E0640D7013900397E004F064287042
:1059000002E4F07A00E0F9126BC1906182E0A2E655
:1059100040030259B1E591A2E640030259B17591E5
:10592000BF900375E064057008126AD1126ADD80C9
:1059300003126AD7752100126B4FE9900376F07954
:1059400000126B431268857A017B00900374E0F9C2
:10595000127089907803E06442705690051EE0143E
:10596000F0704EC2AF12596800782AD0E0F618D015
:10597000E0F6E59F5407F87005750FFF8003750F7B
:105980007FC4C0E07829E6F50C08E6550FF50D74E4
:105990000B780C12506DD0E0250CF8906270E0A2EC
:1059A000E740F8E8C333906272F0906270E0D2E0B2
:1059B000F0906181E0A2E35009E5E9A2E3500375AC
:1059C000E9F7A3E0A2E75009E591A2E7500375913A
:1059D0007FE50AA2E092AF7F080252B68E828F83E3
:1059E000E0F8A3E0C82416F582E438F5832290039A
:1059F000A3E0F875F00AA4C8AAF02AF974A528FE55
:105A0000740339FF22C0E0C0D0C082C0839061839C
:105A1000E0A2E05009E5BFA2E0500375BFFEE0A29E
:105A2000E15009E5BFA2E1500375BFFDE0A2E250DD
:105A300009E5BFA2E2500375BFFBE0A2E35009E510
:105A4000BFA2E3500375BFF7E0A2E45009E5BFA28F
:105A5000E4500375BFEFE0A2E55009E5BFA2E550B1
:105A60000375BFDFE0A2E65009E5BFA2E65003756B
:105A7000BFBFD083D082D0D0D0E032C0E074F21269
:105A80005257E5A7A2E4500FE5A1A2E4500953A79D
:105A9000EF75A1EF125ACFE5A7A2E5500CE5A1A240
:105AA000E5500653A7DF75A1DFE5A7A2E15009E5A0
:105AB000A1A2E1500375A1FDE5A7A2E2500CE5A16A
:105AC000A2E2500653A7FB75A1FB7F010252B674F8
:105AD000F812516B752101900375E0640670077A26
:105AE000007B00126AB9A2AFE433FED2AF90037B11
:105AF000E0640170187A207B00900374E0F9127161
:105B0000A37A207B00900374E0F912708F90618279
:105B1000E0D2E6F090051BE0602185C62280169059
:105B2000037AE064017008E5C654F84405F5C653ED
:105B3000BEFC1258547401652160E4EEA2E092AFFD
:105B40007F01025217FFFFFF8E238F248582288555
:105B50008327851A82851B83E0CEA3E0CF85288228
:105B6000852783EBC9EAC8EDCBECCA75F010C3E812
:105B700033C8E933C9EA33CAEB33CBC3EA9EF5260F
:105B8000EB9FF525B35004AB25AA26EC33CCED33BF
:105B9000CDD5F0DAAE23AF242274E912516B74FA3A
:105BA00012508FEAFEEBFF8C0A8D0B126AFBEAF8AB
:105BB000EBF9ECFAEDFB8E828F83124F899003751F
:105BC000E024F7C394055006751201025CD0126AF6
:105BD0002F8A0C8B0DEA450D7003025CCD126AEF23
:105BE0008A0E8B0F126AEFEA650E7003EB650F6089
:105BF000ECEEFCEFFDAA1AAB1B126AF5850C828550
:105C00000D83A3A3780E124F53909176780E124F06
:105C10002D851A82851B837816124F5390917678C2
:105C200016124F2D780E7916124587501F780E796F
:105C300016124F059091D6780E1245A74047850E53
:105C400012850F1385101485111580459091D68506
:105C500016128517138518148519157812790E12E6
:105C60004F0578121245A7501C7512007513007568
:105C7000140075150178127916124F057812790EF5
:105C8000124ECC800C751201751300751400751539
:105C90000074097812124EAD90918A780E124F530B
:105CA0007812790E124E11900375E06408600AE0D4
:105CB00064066005E0640570209091E27812124558
:105CC000A750169091F67812124EDF800C751200D4
:105CD000751300751400751500850A82850B83788D
:105CE00012124F6274061250A57F1002521774F7F9
:105CF00012516B126B0D900519E0640170109062E7
:105D000045E4F0A3F053F4F343FE0C5390F3126A0E
:105D1000A7E5C654B84441F5C6E59E5447644170B2
:105D2000F8906185740FF0900517E0F47002A3E01D
:105D3000602C750A01750B00900517E0780A125067
:105D40007CE50AF4FAA3E0600814600A14600C8091
:105D50000DEA52808008EA52908003EA52A079004E
:105D60007F0202521774F712516BE9FEEAFF7401C9
:105D70006E700C7A807B00900374E0F91270899049
:105D8000728CE493F46008E493F912686780095315
:105D9000C6B8E59E544770FA126AAD900519E064E2
:105DA00001700312689D900517E0F47002A3E06093
:105DB0002B750A01750B00900517E0780A12507CCC
:105DC000E50AFAA3E0600814600A14600C800DEA8A
:105DD00042808008EA42908003EA42A0126A2F8A39
:105DE0000A8B0BA80AA90BE8496016E5E170FCE8EC
:105DF0002414F582E439F583E0F874FF68600288C2
:105E0000E174016F700A7A01900374E0F912711362
:105E1000025D6074F112516B8A0A8B0B8C0C8D0D34
:105E2000909176780A124F2D740F1250DB780E1273
:105E30004F53909176780E124F2D780A790E1245B5
:105E4000879091D65010780A790E124F05780A1271
:105E500045A74014800E780E790A124F05780E126D
:105E600045A750047901800279007F080252177417
:105E7000ED12516B8A0A8B0B8C0C8D0D90917678FC
:105E80000A124F2D74131250DB780E124F5390915B
:105E900076780E124F2D780E790A124587401178C8
:105EA0000A790E124F05AA0AAB0BAC0CAD0D80227D
:105EB0007512007513007514007515017812790EAE
:105EC000124F057812790A124ECCAA12AB13AC14F9
:105ED000AD157F0C025217909176780A124F538AB3
:105EE000828B83780A124F407F0402521774F51296
:105EF000516B8C828D83780A124F538A828B837800
:105F00000A124F19125F41C3E098F0A3E099125FA3
:105F100033401E9091EE780A124F538A828B837819
:105F20000A124EF28E828F83E02420F0A3E0344EDA
:105F3000F080A4F08E828F83C3E09420A3E0944E7F
:105F400022EA2404F8E43BF9E8FEE9FF8C828D8321
:105F5000A3A3A3A3E0F8A3E0F98E828F832274F5B4
:105F600012516BE9FE9004D1E0FAA3E0FBEE29F8B0
:105F7000E433F974D028F582748F39F583E02AF57B
:105F80000AA3E03BF50B780A1253129091E6124FE8
:105F900071125B4874021250A58A0A8B0B8C0C8D0F
:105FA0000D7410780A124E94AA0AAB0B7F040252A9
:105FB0001774F112516B8A0E8B0F8C108D117411A6
:105FC0001250DB12532974111250DBE02401F50A40
:105FD000A3E03400F50BE4F50CF50D780E790A1208
:105FE0004D919091F2780A124F53780E790A124D22
:105FF00091AA0EAB0FAC10AD11125B487402125097
:10600000A58B0BEA450B60047A0180027A00EC2A2A
:10601000FCE43DFD74131250DBE0F8A3E0F9E8FE68
:10602000E9FFECF8EDF97A717B02125004880A89D5
:106030000BE4F50CF50D8E828F83780A124F62EC1B
:10604000F8EDF97A717B021250048A0A8B0B740501
:10605000780A12507C8E828F83A3A3A3A3E50AF053
:10606000A3E50BF07F08025217C082C083E990605D
:1060700000F0D083D08222C0E074F2125257A2AF57
:10608000E433FED2AFE589A2E15003126F1B75899C
:1060900000C2C5751C00EEA2E092AF7F010252B6AD
:1060A000C0E074F2125257A2AFE433FED2AFE58BD8
:1060B000A2E05003126F1B758B00C2E880D5C0E0D0
:1060C000C0D0E8C0E0E9C0E0A9A8D2AFC2C7751C43
:1060D00000E9A2E7E433F8E9A2E792AFD0E0F9D013
:1060E000E0F8D0D0D0E032C2AF0200002212453733
:1060F00062F00312453775F003124537A6F003121C
:106100004537E0F00312453739F10312453780F186
:1061100003124537C8F103124537F7F1031245372B
:1061200026F2031245375DF203124537A4F203123B
:106130004537BDF20312453712F3031245372BF3EF
:106140000312453779F303124537B3F3031245378A
:106150000080031245370381031245373C81031247
:1061600045375F8103124537718103124537AF818F
:10617000031245372B8203124537F382031245374A
:10618000158303124537AC8303124537FE83031290
:1061900045372F84031245373C8403124537A684C4
:1061A00003124537FD840312453700850312453736
:1061B0003985031245373C8503124537468503125E
:1061C00045379A8503124537DB85031245370E861E
:1061D000031245374B86031245374D870312453767
:1061E000F187031245375A880312453798880312FE
:1061F0004537AEE403124537D6E40312453703E5CD
:10620000031245373BE50312453799E5031245373D
:10621000E5E5031245374CE6031245378CE60312D9
:106220004537C9E603124537F7E603124537A1E7BC
:1062300003124537ABE703124537B8E7031245377A
:10624000EBE703124537F7E7031245370FE8031270
:10625000453719E8031245375BA40412453769A492
:106260000412453781A40412453798A40412453717
:10627000008002124537AA8002124537BD81021202
:1062800045373982021245375783021245379383C7
:10629000021245372E840212453712850212453705
:1062A000DE85021245376C8702124537DD87021200
:1062B0004537978802124537898902124537C989BF
:1062C000021245377D8A02124537AF8A02124537DE
:1062D000A58C02124537E78C02124537058D021254
:1062E00045376B8D021245373A8E02124537FE8EC6
:1062F000021245371D9102124537E0AF03124537B0
:10630000CAB00312453775B103124537C6B103123F
:10631000453776B203124537E7B203124537CCB39F
:106320000312453700B403124537F9B40312453759
:1063300036B50312453712B60312453751B603126C
:1063400045376DB603124537489404124537CC944F
:1063500004124537F7940412453711960412453755
:10636000A7E803124537BDE803124537DBE80312FF
:106370004537ECE903124537F6E90312453721EBBF
:106380000312453718EC0312453785EC03124537E5
:10639000CEB603124537FEB70312453735B80312A0
:1063A00045377FB80312453742BA031245371CC937
:1063B00001124537A8C9011245370CCB01124537E8
:1063C00018CB0112453753CB01124537C2CB01120E
:1063D0004537CBCC01124537D4CD011245379BCE82
:1063E00001124537F8CF0112453716D00112453753
:1063F00033D001124537E0D0011245375DD101128B
:10640000453785D1011245374FD40112453754D451
:10641000011245376DD601124537BBD601124537FB
:106420002BD70112453769D70112453745D80112DC
:10643000453705D90112453751D90112453754D98D
:106440000112453798D901124537E0D90112453775
:106450001FDA0112453741DA0112453775DA0112A8
:106460004537D8DA0112453711BC031245371FBC36
:106470000312453772BC0312453791BC03124537EE
:10648000D6BC031245371ABE03124537B5BE0312F8
:106490004537F9BE0312453723BF0312453792BF74
:1064A00003124537D8BF031245374FC00312453793
:1064B00000C10312453700800112453710800112D8
:1064C0004537B180011245370D8101124537CA8128
:1064D00001124537E682011245371883011245370C
:1064E000478301124537F484011245376B87011247
:1064F0004537DB8901124537CD8A01124537C68BF6
:1065000001124537CD8D01124537C1900112453733
:10651000F09101124537F4930112453704950112A9
:106520004537939601124537849701124537D29724
:1065300001124537419801124537659801124537D8
:10654000B69801124537579D01124537589E0112E2
:106550004537B99E01124537E49E01124537AA9F7F
:106560000112453764DC031245376EDC03124537F0
:10657000B3DC03124537C7DC0312453757DD03127E
:10658000453790DD03124537CBDD03124537F4DD87
:106590000312453748DE031245375DDE03124537E7
:1065A0007FDE0312453794DE03124537A8DE03125F
:1065B0004537BDDE03124537F7DE0312453723DFCB
:1065C000031245376CDF03124537DEDF0312453710
:1065D00021E0031245374BE00312453776E0031202
:1065E000453770A0041245373EE20212453721E3D9
:1065F000021245379CE302124537D7E302124537B2
:1066000028E502124537B6E50212453748E802127E
:106610004537FAE80212453706EA0212453779EBA8
:1066200002124537D2EB0212453714D80312453710
:1066300057D803124537DBD803124537B2DB0312B4
:106640004537EDFC031245379FFD031245379BFE8E
:1066500003124537DAFE0312453734FF031245377C
:106660001A98041245377D98041245371A99041276
:1066700045374F99041245377F9904124537BA9927
:1066800004124537DA9904124537D1C5031245374C
:106690005DC6031245371CC70312453734C80312C1
:1066A00045374ECA03124537AACB02124537CFCB26
:1066B000021245379CCC0212453770CD0212453785
:1066C000DDCD021245371DCE02124537B9CE02127A
:1066D0004537EDCF02124537C8D00212453727D1D2
:1066E00002124537B3D10212453721D20212453783
:1066F000ADD202124537F3D20212453765D30212EA
:106700004537F7D30212453798D402124537B8D42B
:106710000212453700D50212453749D502124537D6
:1067200065D5021245378BD50212453705D60212C0
:10673000453713D602124537A2D6021245370BD77A
:106740000212453785CA031245370ACB0312453773
:106750004CCB0312453730CC031245379DCC031286
:106760004537E1CC0312453725CD0312453752CDCD
:10677000031245377ACD03124537B2CD03124537A0
:10678000F0CD0312453717CE0312453791CE0312D1
:106790004537DBCE0312453704EE01124537ACEF27
:1067A00001124537D9F1011245372DF20112453753
:1067B00058F2011245372AF3011245376EF30112E0
:1067C0004537B2F301124537C5F30112453706F4D8
:1067D0000112453733F40112453781F40112453770
:1067E000C2F401124537F0F40112453743F50112A6
:1067F0004537DAF501124537C4F801124537DAFAA0
:106800000112453718FB01124537ABFC0112453721
:10681000F0FC0112453762FD01124537B3FD01124C
:106820004537EDFD01124537F2FD0112453792FE65
:1068300001124537C8FF01124537D9FF011245370C
:106840007BEC02124537FAEC02124537F3F20212E2
:106850004537F9F3021245376CF50212453703F656
:1068600002124537B0B401124537F9B40112453769
:1068700026B50112453758B50112453765B50112E5
:10688000453771B50112453783B5011245375EB6FC
:1068900001124537BCB601124537F1B60112453732
:1068A00028B80112453775B80112453799B8011259
:1068B000453709B901124537CAB9011245378DBAB2
:1068C00001124537FBBA01124537B8BB01124537F3
:1068D000CBBB0112453749BC01124537DCBC011264
:1068E000453703BD011245376BBD01124537BCBDAD
:1068F0000112453711BE01124537BABE01124537A4
:1069000065BF0112453711C00112453783C001121E
:106910004537D7C00112453737C10112453767C126
:1069200001124537FDC10112453722C30112453717
:106930006AC30112453787C301124537A6C3011246
:106940004537D5C301124537EAC40112453770C532
:106950000112453795C501124537AAC501124537C1
:106960001DC6011245375EC6011245377AC70112AE
:1069700045371BC80112453769C801124537D3C8CE
:1069800001124537ECC8011245372DF60212453782
:1069900081F6021245378DF60212453757F702127B
:1069A000453784F702124537B2F7021245371EF811
:1069B0000212453754F8021245378DF80212453756
:1069C000A5F802124537FAF80212453713F90212F8
:1069D000453758F9021245376BF90212453785F9E8
:1069E000021245379BF902124537B9FA02124537B0
:1069F000E4FB02124537CEFC02124537BDFD021200
:106A00004537F37F00124537907200124537BF7249
:106A100000124537857600124537DC77001245377E
:106A2000A27800124537217A00124537EB7A00121E
:106A300045373D7B00124537577B00124537897B30
:106A400000124537947B00124537DD7B0012453735
:106A5000E67B00124537927C001245376B7D0012B1
:106A60004537B27D001245371A7E001245375C7EED
:106A7000001245378A7E00124537C57E0012453721
:106A8000B0DB011245372EDF0112453734DF01122A
:106A9000453789E501124537D3E901124537B9ED8C
:106AA000011245378FEC0312453705ED03124537C8
:106AB0001BED03124537ABED03124537E8ED03122A
:106AC000453722EE031245375CEE03124537CFEE11
:106AD0000312453710EF0312453719EF03124537FC
:106AE00025EF0312453744EF031245376EEF0312CB
:106AF000453783EF03124537ABEF031245370DF0EF
:106B00000312453734F00312453712C103124537DB
:106B100025C1031245373FC1031245376CC103122B
:106B20004537B2C103124537E5C10312453723C2C9
:106B30000312453788C2031245379DC203124537F9
:106B4000A8C203124537B5C203124537CCC203129F
:106B50004537DAC203124537E5C203124537F1C2A1
:106B60000312453704C3031245370FC303124537D9
:106B700032C303124537D6C303124537E6C30312A7
:106B8000453700C4031245371DC40312453738C4C6
:106B9000031245375DC40312453768C403124537F5
:106BA0007DC40312453791C403124537F2C4031262
:106BB0004537F8C403124537FEC40312453704C5F0
:106BC000031245371CC5031245374FC5031245371D
:106BD00027BE02124537BEBE0212453756BF02120B
:106BE000453746C0021245377DC00212453790C076
:106BF00002124537FEC00212453799C202124537CC
:106C0000C0C20212453762C30212453797C302124F
:106C10004537A8C30212453721C40212453742C482
:106C2000021245375AC402124537B2C5021245371F
:106C3000BBC7021245370BCA021245370ECB0212F0
:106C400045375DCB021245375AA10212453757A28C
:106C50000212453742A3021245374CA302124537B0
:106C60006EA3021245377AA302124537CCA4021252
:106C70004537FBA4021245372BA6021245376DA6F5
:106C80000212453799A7021245376FA802124537FD
:106C9000C1A80212453720A90212453757A902128E
:106CA000453792A9021245372DAD0212453746AD40
:106CB00002124537C8AD02124537D6AD021245372C
:106CC0002BAE0212453739AE02124537A6AE02127C
:106CD000453718AF021245375EAF021245372ED73F
:106CE0000212453750D7021245373AD902124537BA
:106CF000DFDC0212453722DE02124537FCDE0212CB
:106D00004537E899041245370D9A041245377E9AA3
:106D100004124537BE8803124537C788031245372A
:106D2000D08803124537018A03124537208C03129D
:106D30004537568C03124537908C03124537C68C65
:106D400003124537008D03124537348D0312453742
:106D5000608D03124537A98D03124537E38D031269
:106D600045372B8E03124537818E03124537B68E79
:106D700003124537118F031245374B8F03124537E6
:106D80009C8F03124537D28F031245370C900312A4
:106D900045373A90031245375D9003124537E7A512
:106DA0000412453713A6041245376EA60412453760
:106DB00078A60412453788A6041245375BF70312FC
:106DC000453782F703124537ACF70312453768A8F9
:106DD0000412453716A0011245377AA20112453731
:106DE00031A4011245378EA40112453790A5011236
:106DF000453718A6011245379FA601124537C4A68C
:106E000001124537B9A9011245372FAA011245379A
:106E10001EAB0112453758AB0112453798AB011232
:106E2000453738AD011245378DAD01124537DAAD22
:106E30000112453748AE011245376EAE0112453793
:106E400088AE011245379EAF01124537AEAF011231
:106E5000453734B10112453754B1011245378AB173
:106E6000011245370EB3011245374DB301124537B4
:106E70008BB4011245371BCF0312453773CF031272
:106E80004537BBD0031245372AD103124537D9D134
:106E900003124537F8D1031245374CD20312453758
:106EA0008AD20312453728A50412453739A50412A2
:106EB0004537DCA504124537B2A804124537F1A8BE
:106EC00004124537CDA904124537D9A90412453714
:106ED000EFFF031245377EA3041245378EA3041239
:106EE0004537A3A30412453755A40412453784A19E
:106EF0000412453708A2041245376EA20412453722
:106F00009E9B04124537C79B041245372D9C0412E3
:106F100045374C9C04124537A09C04124537F99C18
:106F2000041245373B9D041245373E9D04124537F8
:106F30001BF40312453730F40312453765F503128D
:106F40004537CFF50312453743F6031245375DF653
:106F50000312453774F60312453787F60312453797
:106F60009FF603124537B4F603124537D5F60312E0
:106F7000453726F703124537E5A904124537F5A929
:106F800004124537F8A904124537F87F0012453737
:106F9000409604124537B6970412453717980412E5
:106FA0004537FBA90412453700AA0412453707AA42
:106FB0000412453709AA041245375FFF031245370B
:106FC000C9FF03124537D4FF03124537E4FF03120C
:106FD0004537B9A00312453742A10312453759A1DD
:106FE000031245371BA203124537FCA20312453793
:106FF00099A4031245376AA503124537BEA60312AA
:10700000453746A703124537E69E041245370F9FC2
:1070100004124537389F04124537D19F0412453773
:10702000E99F041245372BA004124537EB90031259
:107030004537F590031245373591031245377E9158
:1070400003124537B891031245370E9203124537A4
:107050002D9203124537B29403124537BB940312A5
:1070600045370C95031245373595031245374A9538
:1070700003124537BA950312453748960312453730
:107080008C9603124537B496031245373397031293
:107090004537769703124537B39703124537C5979F
:1070A00003124537E49703124537ED97031245372E
:1070B000B79803124537489D04124537999D04122D
:1070C0004537229E04124537889E0412453729FA17
:1070D0000312453753FA031245374DFB0312453768
:1070E0007CFB0312453702FC0312453787A20412CA
:1070F00045374692041245377C9204124537B592C3
:10710000041245370E940412453792A604124537EF
:10711000A8A604124537B2A60412453708A70412E0
:107120004537B1A704124537E39803124537A099B4
:1071300003124537DB9903124537039A031245378B
:10714000659A03124537B19A031245371C9B031207
:107150004537989B03124537949C031245371B9E75
:10716000031245379E9E03124537029F031245378F
:10717000199F031245370FA0031245375BA0031276
:1071800045379CD303124537B1D30312453761D439
:1071900003124537A1D403124537BAD40312453739
:1071A000EDD4031245373AD5031245376ED5031295
:1071B0004537B0D503124537AED703124537E7AF91
:1071C000021245379EB30212453730B502124537D9
:1071D00087B502124537A6B50212453724B602120A
:1071E0004537B6B7021245379AB802124537ABBCDD
:1071F000021245377FBD0212453739A704124537C1
:1072000055A803124537AFAA0312453710AC031235
:10721000453794AD031245375EAE03124537E3AEF2
:107220000312453712AF0312453770AF03124537CB
:107230009EE00312453706E10312453723E10312AE
:10724000453710E20312453776E20312453754E31F
:10725000031245372A9102124537439602124537E9
:10726000FBA80412453778A90412453741A9041236
:107270004537A4A904124537D57F0012453776FF5C
:1072800002124537A0FF02FFFFFFFFFFFFFFFFFFD6
:10729000C082C083900551E4F090055074FFF090D7
:1072A000056DE4F090056C74FFF090054DF09005CD
:1072B0004CE4F090054BF090054EF0A3027B357442
:1072C000EC1250FF90054EE0F50CA3E0F50DE50C37
:1072D000450D7006126885027638850C82850D830F
:1072E000E0F914601814601524FE601124C47003C2
:1072F00002745F24C0700302745F027638126A1D44
:107300008A0A8B0BEA240EF514E4350BF515EA24F2
:1073100002FEE4350BFF9003A2E070030273B51286
:107320006933127669F512A3E0F513AC12FDAA0ACF
:10733000AB0B126A17E9F510740265106058850AE4
:1073400082850B83E064016003027638E50A650CF0
:107350007004E50B650D60031268A9E51070241236
:107360006AE98A0E8B0F8C108D1190917E780E1227
:107370004EDF909176780E124F2D8E828F83780E8D
:10738000124F62851282851383A3A3780E124F5386
:107390009091BA027433127659126A778E828F8373
:1073A000E0FA9003A3F07902127647125776AA12F8
:1073B000AB13027635EA650C7003EB650D700302C2
:1073C00076358A828B83E064016003027638126826
:1073D000A9126AE98A0E8B0F8C108D1190916A7830
:1073E0000E124EDF780E12530E8E828F83124F7163
:1073F000125E1374041250A5E9705B126AE98A0EDA
:107400008B0F8C108D1190917E780E124EDF909123
:1074100076780E124F2D8E828F83780E124F6290E7
:107420000375E0640270268E828F83780E124F53AC
:107430009091AE780E124EDF909176780E124F2D0D
:10744000851482851583780E124F62800985148217
:1074500085158312763D90054D7401F00275639099
:1074600003A2E0700302756A126933127669F50AA5
:10747000A3E0F50B9003A3E0F875F00AA4C8AAF006
:107480002AF974A528F50C740339F50DE50C2404CC
:10749000F510E4350DF51190054CE054077003022A
:1074A0007524A3E0F9126A1D8A128B13AE12AF1372
:1074B000AC0AAD0B126A17E9F5127402651260642A
:1074C000851082851183E0F9126A718E828F83E0C4
:1074D000640170501268A9E5127026126AE98A0EDA
:1074E0008B0F8C108D1190917E780E124EDF909143
:1074F00076780E124F2D8E828F83A3A3780E124FB3
:1075000062850A82850B83A3A3780A124F53909158
:10751000BA780A124EDF909176780A124F2D1277C0
:10752000CA027626E50E650C7004E50F650D60262F
:10753000850C82850D83A3A3A3E0600B8510828553
:107540001183E0F9126A71127659126A778E828F6E
:1075500083E09003A3F079029003A3E0FA12764748
:10756000125776AA0AAB0B02763590054CE0540709
:107570007003027638A3E0F9126A1D8A0A8B0BAEFB
:107580000AAF0B8E828F83E06401600302763812AB
:1075900068A9126AE98A0E8B0F8C108D111277BEC2
:1075A00090916A780E124EDF780E12530E850A8281
:1075B0008983124F71125E1374041250A5E9706B27
:1075C000126AE98A0E8B0F8C108D1190917E780EC5
:1075D000124EDF909176780E124F2D850A82850B20
:1075E00083780E124F62EE240EF8E43FF9E8FAE9D0
:1075F000FB900375E06402701D850A82850B837819
:107600000A124F539091AE780A124EDF909176781D
:107610000A124F2D800C750AFF750BFF750CFF7554
:107620000DFF8A828B83780A124F6290054D740198
:10763000F0EEFAEFFB126A117F0C0251D174FFF0E9
:10764000A3F0A3F0A3F02275F00AA4CAA8F028FBC7
:1076500074A52AFA74033BFB22E50E2404FEE435EC
:107660000FFF8E828F83E0F922E9F875F00AA4C833
:10767000AAF02AF974A528F50E740339F50F850EC2
:1076800082F583E02274F01250FFEAFEEBFF8E8257
:107690008F83A3A3A3A3A3A3E0FAA3E0FB126ACB67
:1076A0001277BE8882F583124F71126ABF850A82F3
:1076B000850B83124F71126AB31277CA124F71127F
:1076C0006AC58E828F83E06440701BEE2412F8E45A
:1076D0003FF988828983E0906064F088828983A37F
:1076E000E09060658006906064E4F0A3F090054E41
:1076F000EEF0A3EF127AE0127FA41250FD906054D6
:10770000E41277D4A31277D4906182E0C2E6F075D8
:1077100091BFEE2415F8E43FF9880C890D8882F5B5
:1077200083E064017003126B0DE5E170FC127AD600
:10773000E0F874FF68600288E1850C82850D83742F
:1077400001F090037BE06401706F126AE98A0E8B8E
:107750000F8C108D11780E12530E850A82850B83C3
:10776000124F71125E6F74041250A58A0A8B0B8C33
:107770000C8D0D90916E780E124F53780A790E127F
:107780004D917403780A124E94E50A24F4F50AE543
:107790000B3401F50B90051BE060031270E9E4F572
:1077A0000CF50D780A12530E7A207B00900374E0DA
:1077B000F912719774041250A57F080251D1EE247A
:1077C00002F8E43FF9880A890B22EE240EF582E4E0
:1077D0003FF5832212763FA3F0A3F02274EC1250FF
:1077E000FFEAFEEBFF8C0A8D0BEE4F700302789DD3
:1077F000126AE98A0E8B0F8C108D11909166780EAB
:10780000124EDF909176780E124F2DE50A2402F584
:107810000A5002050B9091BEC082C083780E1253AD
:107820000E850A82850B83124F71125E6F740412EB
:1078300050A58A128B138C148D15D083D0827812A8
:107840001245A75058EE2402FE50010F850A82858A
:107850000B83780A124F539091C2780A124EDF7848
:107860000A12530E8E828F83124F71125E137404AC
:107870001250A5E970279091CA780E124EDF780E4B
:1078800012530E8E828F83124F71125E1374041284
:1078900050A5E9700479008006790180027902021E
:1078A000763874EE1250FF890A74FF650A703990B9
:1078B000054CE054077003027A187904126A35E91E
:1078C000640170047904801A7901126A35E964014F
:1078D00070047901800C7902126A35E9640170083C
:1078E0007902126A41027A1CA90A126A418A128B31
:1078F00013A90A126A35E964017005750B0180034A
:10790000750B00E5122402F50CE43513F50DE50ABC
:1079100014600D14607A24FE70030279B0027A18A4
:107920007902126A35E9640170497902126A418A62
:107930000E8B0FAE0EAF0FE50BA2E0502F8E828F95
:1079400083A3A3780E124F539091CE780E124EDF80
:10795000780E12530E850C82850D83124F71125EC4
:107960001374041250A5E97003027A12EEFAEFFBC9
:10797000027A1C7904126A35E96401601DE50BA2E4
:10798000E05006AA12AB1380047A007B00027A1C36
:107990007904126A35E9640170047904802C790154
:1079A000126A35E964016012E50BA2E0506A806258
:1079B0007901126A35E9640170047901800C790259
:1079C000126A35E9640170447902126A418A0E8BA9
:1079D0000FAE0EAF0FE50BA2E050918E828F83A306
:1079E000A3780E124F539091CE780E124EDF780E80
:1079F00012530E850C82850D83124F71125E137423
:107A0000041250A5E9600302796C8006E50BA2E040
:107A10005006AA12AB1380047A007B007F0A025141
:107A2000D174F41250FF890A7800900551E0600388
:107A3000027AC2E875F01CA4F8A9F0745028F50C7D
:107A4000740539F50DAE0CFF8E828F83A37401F09F
:107A50008E828F83E50AF0126AE9EAF8EBF9ECFA14
:107A6000EDFB8E828F83A3A3124F898E828F83A317
:107A7000A3A3A3A3A3E4F0A3F01277CA12763D1246
:107A80007AD67401F0EE2415F582E43FF583740193
:107A9000127AE0E4F0A3F090054CE0450AF090057E
:107AA0004BE004F06401600C7480650A6006744069
:107AB000650A700890054EEEF0A3EFF0AA0CAB0D2E
:107AC000800F780190056DE07003027A337A007BB5
:107AD000007F040251D1EE2414F582E43FF58322A5
:107AE000F0EE241AF582E43FF58322C082C0838A37
:107AF000828B83E0F8A3E0F98A828B83E4F0A3F021
:107B000088828983A3F088828983E0F4F890054C09
:107B1000E058F090054BE014F0701490054EE4F03E
:107B2000A3F0900375F0FA900374E0F912711380DA
:107B300005ED9061C6F0D083D082024534C082C08A
:107B40008390054BE0600A90054EE0FAA3E0FB80CD
:107B5000047A007B0080DFC082C083E9FB7800905C
:107B60000550E06B7016E875F01CA4F8A9F074518C
:107B700028F582740539F583E0F9800B78019005CA
:107B80006CE06B60E1790080ADC082C08390054CF1
:107B9000E0F980A274F71250FF7800E875F01CA499
:107BA000FAABF0744B2AFA74053BFBEAFCEBFDECF4
:107BB0002405FAE43DFB8A828B83E069700F8C8296
:107BC0008D83A3A3A3A3A3A3E06401600B08E8C370
:107BD000940240C77A007B007F010251D1C082C06D
:107BE0008390054B80AA74F21250FFEAFEEBFFEE81
:107BF0002400F8EF3401F9890B9061D0E088828984
:107C000083F09061D7E0FAEE240108EF3401F9889F
:107C10000C890D9061D5127D4F9061D6E0C39A54C6
:107C20007FFAEE2402127D3F70149061C5E0A2E459
:107C3000500CE0A2E75007888289837480F0126BB1
:107C4000A9850C82850D83E07019850E82850F83CE
:107C5000E070109061C5E0A2E45008E0A2E7500394
:107C6000127D5A75E1957A0080149061D3E0C0E0EE
:107C7000EAF8EE28F582E43FF583D0E0F00A8E8240
:107C8000850B83E0F8EAC39840E075E1917F060236
:107C900051D174F21250FFEAFEEBFFEE2403F8EF2D
:107CA0003401F9880A890B9061C8E088828983F0E1
:107CB0009061CFE0FAEE240408EF3401F9880C89D2
:107CC0000D9061CD127D4F9061CEE0C39A547FFA42
:107CD000EE2405127D3F70149061C5E0A2E0500CC7
:107CE000E0A2E35007888289837480F0126BAF852D
:107CF0000C82850D83E07019850E82850F83E070FC
:107D0000109061C5E0A2E05008E0A2E35003127DAC
:107D10005A126BB57A0080149061CBE0C0E0EAF8AB
:107D2000EE28F8E43F127DF9D0E0F00A850A82855A
:107D30000B83E0F8EAC39840DF75E181027C8D088F
:107D4000EF3401F9880E890FEA88828983F022E0F6
:107D5000C39A547F88828983F022850E82850F839F
:107D60007480F0850C82850D83F022C082C08390E0
:107D700061C6E0FDE0540FF075E1917C008010ECED
:107D8000F8EA28F582E43BF583E09061D2F00CEA52
:107D90002400127E0940E8EA2402127E0460049066
:107DA00061D6F0EA2401127E0460049061D5F002ED
:107DB0007B31C082C0839061C6E0FDE054F0F07575
:107DC000E1817C008010ECF8EA28F8E43B127DF9B0
:107DD000E09061CAF00CEA2403127E0940E8EA242C
:107DE00005127E0460049061CEF0EA2404127E0441
:107DF00060049061CDF0027B31F9E82480F582E4E3
:107E000039F58322127E12E022127E12E0F8ECC3D2
:107E10009822F582EB3401F58322C082C083906101
:107E200095E0C0E0EA2486127E12D0E0F0906196E0
:107E3000E0C0E0EA2487127E12D0E0F0906197E083
:107E4000C0E0EA2488127E12D0E0F0906198E0C091
:107E5000E0EA2489127E12D0E0027B35C082C08322
:107E6000EA2486127E04906195F0EA2487127E044B
:107E7000906196F0EA2488127E04906197F0EA24DB
:107E800089127E04906198027B3574F41250FF12BF
:107E90007F89126A53EEFAEFFB126A4D750C8075FA
:107EA0000D00780C1253127C007D60EE2406FAEF70
:107EB0003401FB1269BD74021250A5EEFAEFFB12F9
:107EC0006A65027AD174F21250FF127F89126A5FDA
:107ED000EEFAEFFB126A59750E09750F00780E1253
:107EE0005312EE2406FCEF3401FD7A007B60126928
:107EF000BD74021250A5750E18780E125312EE249E
:107F000010FCEF3401FD7A0A7B601269BD74021225
:107F100050A5750E2C780E125312EE245AFCEF3435
:107F200001FD7A547B601269BD74021250A5EEFA0D
:107F3000EFFB126A6BE50A75F00AA4C50AA8F028DF
:107F4000F50B74A5250AF5827403350BF583127FB2
:107F5000A4E0648070079003757408801E90167BFF
:107F6000127FAD127FAD74FFF0A37469127FB374FA
:107F700083F0A3746AF09003757407F09016891269
:107F80007FBEA3127FBE027C8D890AA80AE875F025
:107F90008AA4C8AAF02AF9748828FE740539FFEE6D
:107FA000FAEFFB22E0F8A3E0F583888222747DF0EB
:107FB000A3746AF0A3747DF0A3746AF0A32274FF23
:107FC000127FCC127FCCF0A37469F022F0A3746905
:107FD000F0A374FF22C082C0838A828B838001A3B6
:107FE000E070FCE582C39AFAE5839BFBD083D082E4
:107FF000024534024534FFFF851C87C2AF02453479
:10800000C082C083E9901657F0D083D082024534F5
:1080100074F61250FFE99002E7F0900347E0F50A8A
:10802000750B007402780A12507CAA0AAB0B12700E
:10803000FB9002E81289C39002E8128DB0606F9045
:108040000347E075F003A4FAABF01270FB90030550
:108050001289C3900305128DB0700B9002E8128D47
:10806000811271018048900305129D157AFF7BFFF4
:10807000126E737A0080198A0A750B007402780AEE
:1080800012507C1297BD74FF1281C3E4F0A3F00A72
:10809000900347E0F8EAC39840DD79051264CB907D
:1080A00002E7E0F91263B77A557B651267470298D9
:1080B0006074F41250FF8A0A8B0BEB548060479077
:1080C00002E7E0F91270718A0C8B0DAE0CAF0DEE69
:1080D0004F602A8E828F83E064B0701A1264DDE9EB
:1080E00060148E828F83A3A3A3A3E0F9EE2405FA84
:1080F000E43FFB1264ADEEFAEFFB12705FAA0AE5F3
:108100000B6480FB80047A007B0002831374F212FC
:1081100050FF74FB12508FEAFEEBFFEE4F60457488
:10812000031250DBEEF0A3EFF0851A82851B83EC7F
:10813000F0A3EDF074021250DBE9F0AA1AAB1B12A7
:1081400063B1E9F50A707574131250DBE0F50CA306
:10815000E0F50DE50C450D60638E828F8312874C30
:10816000EE4F7005750A0280537A067B001270FB91
:108170008A0E8B0FA80EA90FE8497005750A1380A7
:108180003B88828983E41281C3EEF0A3EF1282DF81
:10819000E50CF0A3E50DF09002EB1282D89002EB13
:1081A0006017E0FCA3E08003EAFCEBFD8C828D838A
:1081B0001282D870F38C828D831293D8A90A740529
:1081C000029F95F0A3129CF7A32274F21250FF892C
:1081D0000A890E750F007403780E12507C850E0C00
:1081E000850F0D9002EAF09002E81291E31282D618
:1081F000602E1271017900801D890E750F007402C6
:10820000780E12507C9002E812967C8882F583A347
:10821000A3E4F0A3F009900347E0F8E9C39840D93C
:10822000900347E0FA850CF0A4CAA8F0850DF0A4ED
:1082300028FB1270FB8A0E8B0FAE0EAF0FEE4F7045
:10824000030282CC900347E0FC850CF0A4CCA8F09C
:10825000850DF0A428FD79001270477C0080318DD7
:108260000E750F007403780E12507C8A828B831275
:1082700082D188828983E4F01282DEA3A3F0A3F086
:108280000DEDC3950A40D8EE250CFEEF350DFF0C21
:10829000900347E0F8ECC39850288C0E750F0074DB
:1082A00002780E12507C9002E81282D1E82402502B
:1082B0000109FAE9FB8A828B83EEF0A3EFF07D00DF
:1082C00080BFE50A9002EAF0790080027913029FEC
:1082D00098129680F922A3A3128D85EA4B22A3124D
:1082E0009CF7A3A3A32274F41250FF7900EAA2E042
:1082F000501F750A22750B91780A12531279107C5F
:10830000047D007A597B161264C574021250A5E9E7
:10831000F980007F040251D1C082C0839002EB1229
:108320008DB0601C88828983A3A3E06A7003A3E0F8
:108330006B8882898370E8A3A3A3A3128D81800434
:108340007A007B0002800974F21250FF74FD125013
:108350008FEAFEEBFF851A82851B83E4F0A3F0749D
:10836000021250DB7401F0128DAD7014126681128E
:1083700070FB9002EE1289C3128DAD70030284D996
:10838000128AC3EE2404F50CE43FF50D850C82F54A
:1083900083E024FE603C24FC607424FE607E24FEA6
:1083A000700302842924FE700302843624FE7003C5
:1083B00002844324FE700302845024FE700302846E
:1083C0005D24FC700302847E24FE70030284960206
:1083D00084D21266819002F0EAF0A3EB1284E512D7
:1083E00060F9E960030284D29002F01253298E8270
:1083F0008F83A3A3A3A3A3129D15850A82850B8354
:10840000128D8112649574021250A50284D2AC1AA6
:10841000AD1BEEFAEFFB1264E30284A1AC1AAD1BB4
:10842000EEFAEFFB1264E98078AC1AAD1BEEFAEFBE
:10843000FB1264EF806BAC1AAD1BEEFAEFFB12641B
:10844000F5805EAC1AAD1BEEFAEFFB1264FB8051B7
:10845000AC1AAD1BEEFAEFFB1265018044740212F8
:1084600050E5880E890F780E12531274021250F5DF
:10847000EEFAEFFB12650774021250A58023AC1AC6
:10848000AD1BEEFAEFFB12650DE9F87016740212DF
:1084900050DBE4F0803CAC1AAD1BEEFAEFFB12654A
:1084A00013E9F8E8602C8E828F83A3E064146022C5
:1084B000850C82850D83E09002F0F0851A82851B81
:1084C00083128D819002F11289C3E8A31284E51210
:1084D00060F3EEFAEFFB12646B74021250DBE0F90A
:1084E0007403029F95F07CF07D02850A82850B83E0
:1084F000128D852274E81250FF74FA12508F7404A2
:108500001250DBECF0A3EDF08A148B15EA2405F58C
:1085100010E43515F511EA2402F512E43515F513CA
:10852000851282F583128D811261E98A0C8B0D759B
:108530000A007C037D0079007AF07B02127047E527
:10854000102402F518E43511F51974021250E5886B
:108550000E890F780E125312851082851183A3A302
:10856000A3A3E0F50E750F00780E125312E5102448
:1085700005F50EE43511F50F780E125312851882A9
:108580008519831290881263CF74061250A58A0E43
:108590008B0FE50E450F70030287158020851A8228
:1085A000851B83E088828983F0050A851A82851BF2
:1085B00083A3E0C0E0128756D0E0F0050AE50C2462
:1085C000FBFAE50D34FFFBC3E50A9AE49B40030286
:1085D00087157E007F00851482851583A3A3A3A33E
:1085E000E0F50B780B125316E4F516F51778161212
:1085F00053127516ED75170278161253129002EE8B
:1086000012532974091250DB125329E50C24F9F98D
:10861000AC0EAD0F851282851383128D8112653DDC
:1086200074091250A5E960030286B685108285118F
:1086300083A3A3A3A3A3A3A3E0F89002EDE0687033
:1086400075E0F5168E177816125312129D128510CA
:1086500082851183A3A3A3A3A3A3A3A3128D811235
:10866000704174021250A5E9604C9002F1128DB075
:10867000703BE4F51678161253127CFF7DFF7907E4
:10868000851282851383128D811264A774021250A1
:10869000A5128DB67017851082851183129EAF7456
:1086A000041250DB1297701290B9028749850E822E
:1086B000850F8312874CA81AA91B8816891778166C
:1086C00012531274041250DB125329851882851933
:1086D000831289B91263DB74041250A58A0E8B0FC2
:1086E000EE4F7003028592128756EE128761129048
:1086F0006FEF128761F8A3E03400F9E50E450F60D3
:108700000302859D8882898374FFF0050A128756CB
:1087100074FFF0050AE50A601A1313543F1289C961
:10872000126105E960099002F1128D811270B97928
:10873000008016851082851183129EAF740412503A
:10874000DB1297701293D8790A029042A3A3A3A3D5
:10875000E0FEA3E0FF22A80A9002F1E02812906F49
:1087600022F0050A089002F1E0282274E81250FF76
:1087700074FA12508F74021250DB1289C3740412FF
:1087800050DBECF0A3EDF074021250DBE024051294
:108790009058E0F50EA3E0F50F74021250DBE024D0
:1087A00002F512A3E03400F513851282F583128DD1
:1087B000811261E9750A00750B00EA24FCFEEB34B6
:1087C000FFFF8008050EE50E7002050FA80AC3EE34
:1087D00098EF94005003028975A81AA91B88108984
:1087E000117810125312851682851783A3A3A3A3B1
:1087F000129D19125312E5162405F510E43517F5EC
:108800001178101253128516828517831289B712B8
:1088100063CF74061250A58A108B11EA45117003BC
:10882000028975EA2404F518E43511F519851882D2
:10883000F583E0F50EA3E0F50F851A82851B831200
:108840009D158A828B83A3A3A3E0F98512828513E9
:1088500083128D811263BDE9F50B60030289757483
:10886000021250DB12907FF50B780B125316E4F5D1
:1088700014F51578141253127514ED751502781449
:108880001253129002EE12532974071250DB125346
:1088900029EEF9AC10AD11851282851383128D81FA
:1088A00012653D74091250A5E9F50B600302897544
:1088B000E50A703FE4F510F51178101253127CFFB1
:1088C0007DFF7909851282851383128D811264A739
:1088D00074021250A51290A5700D74041250DB1290
:1088E00089AC79110289A99002EDE024029002F18D
:1088F000F080149002F1E0FA9002EDE07900240299
:108900005001096A497072A80A9002EDE0FAE82A5B
:10891000FAE43400FBEE9AEF9B405A8518828519E1
:1089200083E0C0E09002F212875BD0E0F0050A8598
:108930001882851983A3E0C0E0089002F212875BD9
:10894000D0E0F0050A9002ED129D19125312129D0B
:1089500012A80A12904C12702F74021250A59002A5
:10896000EDE0250AF50A74FF650E700474FF650FCB
:1089700060030287C4E50A601F9002F1E0F5F0E5AC
:108980000A841289C912610BE960099002F2128D02
:10899000811270B979008011E50B7003750B0A74B0
:1089A000041250DB1289ACA90B0290421291E7E548
:1089B0000EF0A3E50FF022A3A3129FA4AA0EAB0F03
:1089C00022A3A3EAF0A3EBF0229002F0F07CF07D6A
:1089D00002851282851383128D852274EC1250FF5A
:1089E00074FC12508F1294E874021250F5128D7BB1
:1089F0001263D58A0E8B0FEA450F7003028AB312F9
:108A00008AC3A81AA91B8812891378121253127CE0
:108A1000FF7DFF790B850A82850B83128D8112649D
:108A2000A774021250A5128BB9700C850C82850DAB
:108A3000831290B6028AC08E828F83A3A3A3A3E081
:108A4000F5147814125316E4F514F515781412532E
:108A5000127514F07515027814125312781212530D
:108A60001274091250DB12532974091250DBE0F919
:108A7000AC0EAD0F850A82850B83128D8112653D88
:108A800074091250A5E9FE70157CF07D02850A82FA
:108A9000850B83128D81126111E970098020741693
:108AA0006E70027E009002F1128D811270B9EE702C
:108AB00004800B7E01850C82850D831293D5EEF91F
:108AC0000293EAEE2402F50AE43FF50B2274EC125D
:108AD00050FF74FC12508FEAFEEBFF8C108D11EEEC
:108AE0002405F50AE43FF50B74021250F5850A825D
:108AF000850B83128D811263D58A0E8B0FEA450F89
:108B00007003028BA9EE2402F50CE43FF50DA81AC0
:108B1000A91B8812891378121253127CFF7DFF79EA
:108B20000D128D7B1264A774021250A5128BB970BE
:108B30000B850A82850B831290B6807A8E828F8392
:108B4000A3A3A3A3E0F5147814125316850A828513
:108B50000B83A3A31253297514F075150278141210
:108B60005312781212531274091250DB12532974E3
:108B7000091250DBE0F9128D7712653D740912502D
:108B8000A5E9FE700F7CF07D02128D7B126117E962
:108B90007009802074166E70027E009002F1128DB2
:108BA000811270B9EE7004800B7E01850A82850BFC
:108BB000831293D5EEF90293EA128DC0F512A3E069
:108BC000F513EA45132274E81250FF74FE12508F19
:108BD0008A188B198C168D17EA2405F50EE43519C1
:108BE000F50FEA2402F510E43519F511851082F528
:108BF00083128D811261E98A0A8B0B750D007C034B
:108C00007D0079007AF07B02127047750C00E50A4E
:108C100014F5120424FFF50AE50B34FFF50B80541C
:108C20009002F0E0FA9002EDE0F8EA28F8E434006F
:108C3000F9E50A98E50B99500D9002F0E0F8E5127D
:108C4000C3989002EDF0E0F51475150078141253F6
:108C500012129D129002F1E02AFAA3E03400FB12F6
:108C6000702F74021250A59002EDE0F89002F0E02F
:108C700028F0050C850E82850F83A3A312968C40E5
:108C800003028D5C9002F0E0C3950AE4950B40036B
:108C9000028D5CAE0CEE2EFEE433FF128D9BAC1AFF
:108CA000AD1B129D2DE439FB1263D58A148B15ACD4
:108CB00014AD15EC4D701B750D01128D8B1293D9EF
:108CC0009002F11282D860031270B9A90D740202E9
:108CD0009044851882851983A3A3A3A3E0F50D789A
:108CE0000D125316E4F514F5157814125312751479
:108CF000ED75150278141253129002EE1253297476
:108D0000071250DB125329A9128510828511831294
:108D10008D8112653D74091250A5E9F50D709B9087
:108D200002F1128DB06003028C20E4F514F5157881
:108D3000141253127CFF7DFF790F851082851183F9
:108D4000128D811264A774021250A5128DB66003B1
:108D5000028C20128D8B1290BA028CCD7CF07D0299
:108D6000851082851183128D8112611DE9600302D5
:108D70008CC07900028CCDAC0EAD0F850C82850DB8
:108D800083128D8522E0FAA3E0FB22128D9BE0FA8C
:108D9000A3E0F9EA85168285178322850E82850F66
:108DA00083E02EF8A3E03FF988828983229002EEC7
:108DB000129EB3E84922128DC0F8A3E0F9E84922D7
:108DC0009002F1EAF0A3EBF09002F1E02274E812D5
:108DD00050FF74FA12508F74041250DB1289C38C46
:108DE000188D1974041250DBE02405F510A3E0344B
:108DF00000F51174041250DBE02402129058128D19
:108E0000811261E98A0C8B0D7F007E00A81AA91BD4
:108E1000880A890B780A125312851082851183A360
:108E2000A3A3A3E0F50A8E0B780A125312E51024CF
:108E300005F50AE43511F50B780A125312851082F4
:108E4000851183A3A31290881263CF74061250A5D4
:108E50008A0E8B0F8029129079F00F129079F00F03
:108E60009002ED1293C4125312129D12EFF8129059
:108E70004C12702F74021250A59002EDE02FFFE506
:108E80000E450F7003028F08851A82851B8312948A
:108E9000FAA3A3A3E0F9851682851783128D8112A8
:108EA00063BDE9FEE50E2404F512E4350FF513EE7B
:108EB000705074041250DB12907FF50A780A125336
:108EC00016E4F50AF50B780A125312750AED750BC4
:108ED00002780A1253129002EE12532974071250AC
:108EE000DB125329E50C24FAF9AC0EAD0F8516827E
:108EF000851783128D8112653D74091250A5E9FE14
:108F000060391290951293D8EF700302902F90025F
:108F1000F1E0F5F0EF849002F0F07CF07D02851630
:108F200082851783128D81126123E960099002F214
:108F3000128D811270B979000290428F0AEF703B56
:108F4000E4F514F51578141253127CFF7DFF7911A6
:108F5000851682851783128D811264A774021250C0
:108F6000A51290A570091290951290B902904290A6
:108F700002EDE024049002F1F080359002EDE0F87B
:108F80009002F1E0FAE82404FCE43400FDEC6A4DC0
:108F90006003028F0EE50C24FAFAE50D34FFFBE5C1
:108FA0000A28F8E43400F9EA98EB995003028F0E8E
:108FB000851282851383E0C0E09002F2E02FF8A3CF
:108FC000E034008882F583D0E0F00F8512828513AB
:108FD00083A3E0C0E0129066D0E0F00F740212505C
:108FE000E5880A890B780A12531274021250DB12B8
:108FF00053298510828511831289B71263DB7404AB
:109000001250A58A0E8B0FEA450F7003028E56741C
:10901000021250DBE0C0E0129066D0E0F00F740264
:109020001250DBA3E0C0E0129066D0E0028E5EEE4C
:1090300070027E0A85108285118312909B1293D84C
:10904000EEF974061250A57F100251D19002F2E0A1
:1090500028FAA3E03400FB22F516A3E03400F5174C
:10906000851682F5832212906A229002F2E02FFA8E
:10907000A3E034008A82F5832212906A74FF2212E0
:1090800091E7A3A3A3A3E022129FA48510828511D8
:1090900083128D8522851282851383129EB38518D3
:1090A00082851983229002F2EAF0A3EBF09002F29B
:1090B000129EB3E849221293DEE8F0A3E9F0791199
:1090C0002274EA1250FF74FE12508F8A0A8B0B8CA6
:1090D000148D15EA2405FEE4350BFFAC1AAD1B8E8A
:1090E000828F83128D811263D58A0E8B0FEE240638
:1090F000F510E43FF511EA450F70030291B9E50A56
:109100002402F50CE4350BF50D8A828B83A3A3A30F
:10911000E0A2E55028851A82851B83128D81126595
:10912000318A128B13EA451360207912128D7785EC
:1091300012828513831250FDE9F50E707F8510822F
:10914000851183E0600979528011750E0E806D855E
:109150000A82850B83A3A3A3A3E0F9E4F50AF50B28
:10916000780A1253128E828F83A3A3E0F50A780A3D
:109170001253128E828F83A3A3A31253298E828F40
:1091800083129D15128D7B12654374061250A5E95A
:10919000F50E7011851082851183E0702D128D7B84
:1091A00012612980257416650E7011750E007418F1
:1091B0001250DB1291E3E48010750E01129EAB8514
:1091C0001482851583E8F0A3E9F085108285118368
:1091D000E0600479008002A90E74021250A57F0E8F
:1091E0000251D11291E722E0F8A3E0F583888222B0
:1091F00074EC1250FF74F712508F8A0C8B0D8C1286
:109200008D13EA2405FEE4350DFF750E00AC1AAD92
:109210001B8E828F83128D811263D58A0A8B0BEA93
:10922000450B70030293AFE50C2402F50C500205C8
:109230000D8A828B83A3A3A3E0A2E5502F851A8217
:10924000851B83128D811265318A0E8B0FEA450FC3
:10925000604F7912AC0AAD0B128D7B850E82850FA3
:10926000831250FDE9F50E60030293B2850C8285EE
:109270000D83E0F50AA3E0F50BAA0AFB126525EAC7
:109280004B70197AFF7BFF126525EA4B700302933E
:10929000A58A828B83E50AF0A3E50BF0750A0080AE
:1092A00008750E0E0293B2050A9002EAE0F8E50A8C
:1092B000C39840030293A5850A10751100740378C2
:1092C0001012507C8A828B83A3A3E02510F8A3E0C0
:1092D000351112977970D08E828F831293CD1289B7
:1092E000C38E828F83A3A31293CD1289C1EE24046F
:1092F000F50AE43FF50B850A82F583E088828983CD
:10930000A3A3A3A3F0A3E4F0EE2405F510E43FF536
:1093100011851082F5831293CDA3A3A3A31289C153
:109320007514077515007814125312EEFCEFFD74D6
:10933000041250ED12702F74021250A5E4F5147847
:1093400014125312850A82850B83E0FC7D00791785
:10935000128D7B1264A774021250A574071250DBA1
:109360001289C374071250DBE0FA4B603D850A8214
:10937000850B831293C412531285108285118312B8
:109380009D1512702F74021250A574021250F5121E
:109390008D7B12612FE9602674071250DB128D81DC
:1093A0001270B98019750E098008750E1180037549
:1093B0000E01129EAB8512828513831293D8A90EDB
:1093C00074098028E0F50A750B00780A22128D8551
:1093D00088828983221293DEE8F0A3E9F022E0F884
:1093E000A3E0F98510828511832274041250A57FB1
:1093F0000C0251D174EC1250FF1294E8751200EE79
:109400002402F50EE43FF50F850E82F583128D815F
:109410001265258A0A8B0BEA450B70030294CC85F2
:109420000C82850D83E0640160030294C1AC0AAD37
:109430000BAA0CAB0D126519E9606E850A82850BCB
:109440008312874EEE2406F50CE43FF50D8E828FD5
:1094500083A3A31253298E828F83A3A3A3A31253A2
:1094600029850C82850D8312532979188E828F836A
:109470001294FA128D8112654374061250A5E9F810
:10948000741668700B850C82850D83E4F0A380143C
:10949000E860128E828F83128D8185108285118300
:1094A000EAF0A3EBF0881280187810125312AC0A7D
:1094B000AD0BEEFAEFFB12651F74021250A5E9F531
:1094C00012AA0AAB0B12652BE512700E850E82856F
:1094D0000F83128D81126135800974166512700335
:1094E000751200A9120293EFEAFEEBFF8C108D11AA
:1094F000EE2405F50CE43FF50D22129FA4850E82A3
:10950000850F832274EA1250FF750A00750B007EE6
:10951000007F00750C00EC2402F512E43DF5138089
:1095200035EC650A7003ED650B60030295B988821E
:109530008983A3A3E06A7003A3E06B707C888289AF
:1095400083A3A3A3A3129EAFEE28FEEF39FFEA2860
:10955000FAEB39FB050C129689503A850C0E750F03
:10956000007403780E12507C851282851383129644
:109570007C129779601FE50A450B70A58C0A8D0B4C
:109580008882898312874C88828983A3A3E02EFA7C
:10959000A3E03F80BEE50CC39402500302967775AA
:1095A0000A00750B00EE4F6010EEFAEFFB1270B37D
:1095B0008A108B11EA451170057900029679750DB4
:1095C0000002964C850D0E750F007403780E125034
:1095D0007C851282851383E0250EF50EA3E0350FFE
:1095E000F50FE50E2406F516E4350FF517851682FE
:1095F000F58312977E6042E50E2404F514E4350FDE
:10960000F515851482F583125329E510250AFAE52C
:1096100011350BFB12702F74021250A58514828530
:109620001583E0250AF50AA3E0350BF50B851682B4
:10963000851783128D811270B9E50D600D7C087D50
:10964000007900AA0EAB0F127047050DE50DC3950A
:109650000C50030295C4851282851383129EAF8835
:10966000828983A3A3A3A3A3A3E510F0A3E511120A
:1096700082DFEEF0A3EFF079010291DE12968022F4
:10968000E0250EF8A3E0350F229002EAE0F8E50CA1
:10969000C3982274F01250FF8A108B118C0C8D0D20
:1096A000750F00750E0080507916EE2406F50AE459
:1096B0003FF50B8E828F83A3A31253298E828F8353
:1096C000A3A3A3A3125329850A82850B83125329CE
:1096D000851082851183A3A3128D811265437406C0
:1096E0001250A5E9F50F7416650F706C850A828516
:1096F0000B83E4F0A3F0050E9002EAE0F8E50EC358
:10970000985066AA0E8A0A750B007403780A1250E4
:109710007C850C82850D83A3A31297C8E8FEE9FF20
:109720008E828F8312977E6040EA2401F50AE4342A
:1097300000F50B9002EAE0650A7002E50B60148800
:10974000828983A3A3A3A3A3A3A3A3128DB06003C1
:109750000296A879180296AAE9609B129EAB741033
:109760001250DB1297701293D8A90F7F080251D1C3
:10977000E0FAA3E0F5838A8222F988828983129F26
:10978000A4EC4D2274F61250FF7C0080010C900373
:1097900047E0F8ECC398501E8C0A750B00740278F1
:1097A0000A12507C1297BDE06A7003A3E06B70DD73
:1097B000E8FAE9FB80047A007B000298609002E8F6
:1097C0001297C88882898322E0250AF8A3E0350B26
:1097D000F92274F21250FF8A0A8B0B750C00802755
:1097E0008E828F83A3A3A3A31282D660031270B9C3
:1097F0007C087D007900EEFAEFFB1270478E828FB5
:1098000083E4F0A3F0050C1296895027850C0E75A1
:109810000F007403780E12507C850A82850B83A397
:10982000A3E0250EFEA3E0350FFF8E828F83128DFD
:10983000B070AD850A82850B8374FFF0A3F0029FA0
:109840009874F61250FF1264D78A828B83E58245A2
:109850008370067A007B008007A3A3A3A3128D81E7
:109860007F020251D174F41250FF890A8C828D83D9
:10987000E06402703C129E4EFEA3E0F9EEF8740222
:109880006870037429697029750C02750D00780CD5
:1098900012531274101250DB12532974101250DB41
:1098A000125329A90A126E8574061250A5E9F9808F
:1098B00002790102831374E81250FF74FB12508F77
:1098C000E9851A82851B83F08A188B19ECFEEDFF5F
:1098D0007512008E828F83A3A3A3E0A2E4502D749F
:1098E0001D1250DB128D811265318A828B83E582D5
:1098F00045837003029CED790AEEFCEFFDAA18ABDC
:10990000191250FDE9F5126003029CF0741F125009
:10991000DBE0F50AA3E0F50B74211250DBE0F50C57
:10992000A3E0F50D74231250DBE0F510A3E0F51170
:109930008E828F83E064026003029C8EA3129EAF2E
:10994000850A82850B83A3858214858315EE240600
:10995000F50EE43FF50F88828983129D2DF516E4FC
:1099600039F517781612539C0100002801289099A8
:1099700007000228559A0328C3990029849B0129CE
:10998000AF9B0229509B0329849B0429289C8E9C11
:10999000E51045116003029C89850E82850F8312B4
:1099A0009EAFE8FAE9FB8A828B83E0850C82850D05
:1099B00083129D381253128A828B83A3E0FCA3E0AA
:1099C000029C12E51045116003029C89850C82857A
:1099D0000D837401F0129D22850A82850B83F07C31
:1099E000007D008E828F83A3A3A3A3E02401FAA3AA
:1099F000E03400FB1263D5EA4B60408A828B83E03F
:109A00002402F8850C82850D83E028F0EA2404F80E
:109A1000E43BF988828983E0851482851583129D51
:109A200046129D381253128A828B83A3129D15E52C
:109A30000A2403FAE4350BFB029C17850C82850D82
:109A400083E02404F07C047D007900AA14AB151295
:109A50007047029CF0E51045116003029C89129D3D
:109A600022FEA3E0FF850C82850D837404F0EE8551
:109A70000A82850B83F0EF851482851583F07403C9
:109A80001250F5EEFAEFFB1263D58A0E8B0FEA4502
:109A90000F7003029B338A828B83A3A312874C74BB
:109AA000011250E5881089117810125312740512B2
:109AB00050DB1253297CFF7DFF1263DB74041250CC
:109AC000A58B11EA45117033850E82850F83129D97
:109AD00019125312850E82850F83A31253297C021B
