:020000040000FA
:06000000020107022AC9FB
:03002B00022F168B
:03003B00022F3C55
:03004300022EC1C9
:03005300022B3F3E
:03006B00022EE77B
:1000830002291FE5C754F84401F5C779012200008E
:100093000080FB120086B900030200F1E4792178A5
:1000A30008B800028004F709D8FCE479297802B87B
:1000B30000028004F709D8FCE490028178B879152E
:1000C3008002F0A3D8FCD9FA7A387B1790013778ED
:1000D3008779048015E493A3AD82AE838A828B83F0
:1000E300F0A3AA82AB838D828E83D8E9D9E7758288
:1000F300CA7583E0740312011975829175830074C4
:100103000012011975D00075813F751881751902A8
:10011300759F00020096C09FF59FE473D09F22D085
:1001230083D082C09FE493C0E0740193C0E0740263
:1001330093F59F22FF0000B4000028002800283018
:1001430075A000A000A000A00000080008E001F0D6
:10015300001000100010001000100010005000509C
:1001630000500010001000D0070000000000000F36
:100173000001000500307507001000010081FF0039
:10018300000000FFFFFFDF06FD06E5062107FF0273
:10019300020208025000A0000000E80302D491010B
:1001A3000000A29102D091010000931702E4910193
:1001B3000000BF0202D091010000941702C8910110
:1001C3000000D50202D091010000951702C69101EB
:1001D3000000D70202D091010000961702C49108D3
:1001E3000000D80202D091010000971702C29101CA
:1001F30000009817FF0100FF2002D491010000A521
:100203009102D091010000FC1702C0910000000090
:100213000002CC9103000006031700CF0DCF0DCFD2
:100223000DCF0DCF0DCF0DCF0DCF0DCF0DCF0DCFEB
:100233000DCF0DCF0DAB10BD10A5100202020202AF
:1002430002020202010D000000100102D49101001C
:10025300009F9102D0910100003F1802A891010074
:1002630000230702D091010000401802AA91010067
:1002730000139002D091010000411802AC910100DB
:1002830000EB8F02D091010000421802B0910100EF
:1002930000378F02D091010000431802B49101008E
:1002A30000258F02D091010000441802B69101008D
:1002B30000138F02D091010000451802B89101008C
:1002C300005B8F02D091010000461802BA91010031
:1002D30000CF8F02D091010000471802CA9101009C
:1002E30000481801E8030577100AFFFFFF000130FB
:1002F300750302010600000000000000000000007A
:1003030000000000000000000000000000000000EA
:1003130000FFFF0600800CE8031409434332353421
:1003230030424C455065726970686572616C0512A4
:1003330050002003020A000201060302F0FF536982
:100343006D706C6520424C4520506572697068651C
:1003530072616C911500009D150A436861726163B7
:100363007465726973746963203100024368617252
:10037300616374657269737469632032000843684A
:100383006172616374657269737469632033001009
:10039300436861726163746572697374696320345D
:1003A300000243686172616374657269737469639F
:1003B3002035000A436861726163746572697374FE
:1003C300696320360002D4910100009C9102D09110
:1003D3000100005D1902DA910300002B1702CE9190
:1003E3000100005E1902D0910100006F1902DC9137
:1003F3000100002C1702CE91010000701902D09168
:10040300010000811902DE910200002D1702CE9136
:10041300010000821902D091010000931902E091BA
:100423000000002E1702CC910300002F1702CE917B
:10043300010000941902D091010000A51902E29174
:10044300040000311702CE91010000A61902D091D9
:10045300010000B71902BC91030000361702CE91C8
:10046300010000B819303132333435363738394169
:10047300424344454600286E756C6C20706F696E6C
:100483007465722900303132333435363738396187
:100493006263646566003F3F3F000000807F0000A9
:1004A300803F00000000F9021550B743BA51000025
:1004B300204100E7DB2E0000A040120122D7B70342
:1004C300120122EAB7031201221BB80312012255BB
:1004D300B803120122AEB803120122F5B8031201C8
:1004E300223DB9031201226CB9031201229BB90305
:1004F300120122D2B90312012219BA0312012232C4
:10050300BA0312012287BA03120122A0BA0312010D
:1005130022EEBA0312012228BB03120122D4DC0209
:10052300120122D7DD0212012210DE021201223350
:10053300DE0212012245DE0212012283DE021201D3
:1005430022FFDE02120122C7DF02120122E9DF02CB
:1005530012012280E002120122D2E00212012203E0
:10056300E10212012210E1021201227AE1021201D8
:1005730022D1E102120122D4E1021201220DE20290
:1005830012012210E2021201221AE2021201226E69
:10059300E202120122AFE202120122E2E20212019E
:1005A300221FE30212012221E402120122C5E40206
:1005B3001201222EE5021201226CE502120122F63B
:1005C300AF031201221EB0031201224BB00312012A
:1005D3002283B003120122E1B0031201222DB103E1
:1005E30012012294B103120122D4B1031201221188
:1005F300B2031201223FB203120122E9B203120134
:1006030022F3B20312012200B30312012233B30314
:100613001201223FB30312012257B30312012261D5
:10062300B30312012296DB03120122A4DB0312019E
:1006330022BCDB03120122D3DB03120122C8C8014F
:1006430012012272C90112012285CA01120122017B
:10065300CB011201221FCC011201225BCC0112013A
:1006630022F6CC01120122DACD01120122A6CE011B
:1006730012012234D001120122A5D0011201225FFE
:10068300D10112012251D20112012291D201120190
:100693002245D30112012277D3011201226DD50124
:1006A300120122AFD501120122CDD501120122334D
:1006B300D60112012202D701120122C6D70112016B
:1006C30022E5D901120122CC7800120122B6790069
:1006D300120122617A00120122B27A00120122620F
:1006E3007B00120122D37B00120122B87C0012018D
:1006F30022EC7C00120122E57D00120122227E0001
:10070300120122FE7E001201223D7F0012012259B6
:100713007F00120122CFCE0312012253CF03120115
:10072300227ECF0312012298D003120122EFB303DA
:1007330012012205B40312012223B403120122344D
:10074300B5031201223EB50312012269B603120159
:100753002260B703120122CDB703120122AFF801C1
:10076300120122DFF90112012216FA01120122609D
:10077300FA0112012223FC01120122E89101120164
:1007830022749201120122D89301120122E49301EF
:100793001201221F94011201228E94011201229749
:1007A3009501120122A096011201226797011201FD
:1007B30022C49801120122E29801120122FF98013A
:1007C300120122AC9901120122299A01120122512C
:1007D3009A011201221B9D01120122209D01120187
:1007E30022399F01120122879F01120122F79F01E3
:1007F30012012235A00112012211A101120122D1FD
:10080300A1011201221DA20112012220A201120143
:100813002264A201120122ACA201120122EBA20165
:100823001201220DA30112012241A301120122A4EC
:10083300A301120122B78703120122C58703120104
:10084300221888031201223788031201227C8803AD
:10085300120122C089031201225B8A031201229F23
:100863008A03120122C98A03120122388B0312015F
:10087300227E8B03120122F58B03120122A68C0325
:10088300120122B02F00120122C02F001201226197
:100893003000120122BD30001201227A3100120110
:1008A30022963200120122C83200120122F73200CE
:1008B300120122A434001201221B37001201228BE1
:1008C30039001201227D3A00120122763B00120107
:1008D300227D3D00120122714000120122A041003D
:1008E300120122A44300120122B444001201224344
:1008F30046001201223447001201228247001201EE
:1009030022F1470012012215480012012266480015
:10091300120122074D00120122084E001201226922
:100923004E00120122944E001201225A4F0012016E
:100933002292A3031201229CA303120122E1A30327
:10094300120122F5A30312012285A403120122BE80
:10095300A403120122F9A40312012222A503120106
:100963002276A5031201228BA503120122ADA50352
:10097300120122C2A503120122D6A503120122EB02
:10098300A50312012225A60312012251A603120177
:10099300229AA6031201220CA7031201224FA703D6
:1009A30012012279A703120122A4A70312012288AC
:1009B300D8031201229CBF021201227FC00212013E
:1009C30022FAC00212012235C10212012286C2029A
:1009D30012012214C302120122A6C50212012258D7
:1009E300C60212012264C702120122D7C8021201F1
:1009F3002230C902120122429F03120122859F0362
:100A030012012209A003120122E0A203120122888B
:100A1300FD021201223AFE0212012236FF021201E6
:100A23002275FF02120122CFFF02120122C7D00357
:100A33001201222AD103120122C7D103120122FC7F
:100A4300D1031201222CD20312012267D203120115
:100A53002287D20312012277910312012203920308
:100A6300120122C29203120122DA9303120122F429
:100A7300950312012208A9021201222DA9021201D3
:100A830022FAA902120122CEAA021201223BAB02D0
:100A93001201227BAB0212012217AC021201224B7C
:100AA300AD0212012226AE0212012285AE0212010C
:100AB3002211AF021201227FAF021201220BB002F8
:100AC30012012251B002120122C3B00212012255B7
:100AD300B102120122F6B10212012216B202120170
:100AE300225EB202120122A7B202120122C3B20293
:100AF300120122E9B20212012263B302120122712E
:100B0300B30212012200B40212012269B4021201DB
:100B1300222B9603120122B09603120122F29603AE
:100B2300120122D69703120122439803120122874E
:100B33009803120122CB9803120122F898031201A1
:100B43002220990312012258990312012296990334
:100B5300120122BD9903120122379A031201228145
:100B63009A03120122D0B60112012278B8011201B0
:100B730022A5BA01120122F9BA0112012224BB01F2
:100B8300120122F6BB011201223ABC011201227E9C
:100B9300BC0112012291BC01120122D2BC0112013B
:100BA30022FFBC011201224DBD011201228EBD01A3
:100BB300120122BCBD011201220FBE01120122A6A5
:100BC300BE0112012290C101120122A6C30112012A
:100BD30022E4C30112012277C501120122BCC5011F
:100BE3001201222EC6011201227FC601120122B96F
:100BF300C601120122BEC6011201225EC701120103
:100C03002294C801120122A5C801120122D9C902E6
:100C130012012258CA0212012251D0021201225794
:100C2300D102120122CAD20212012261D30212019D
:100C330022606400120122A96400120122D664001A
:100C430012012208650012012215650012012221FA
:100C530065001201223365001201220E66001201A3
:100C6300226C6600120122A16600120122D86700DD
:100C7300120122256800120122496800120122B9DB
:100C830068001201227A69001201223D6A001201F2
:100C930022AB6A00120122686B001201227B6B00F7
:100CA300120122F96B001201228C6C00120122B393
:100CB3006C001201221B6D001201226C6D001201E7
:100CC30022C16D001201226A6E00120122156F000B
:100CD300120122C16F001201223370001201228718
:100CE3007000120122E77000120122177100120135
:100CF30022AD7100120122D272001201221A730076
:100D03001201223773001201225673001201228549
:100D130073001201229A740012012220750012013D
:100D2300224575001201225A7500120122CD750069
:100D33001201220E76001201222A7700120122CB21
:100D43007700120122197800120122837800120120
:100D5300229C78001201228BD302120122DFD302DC
:100D6300120122EBD302120122B5D402120122E2B4
:100D7300D40212012210D5021201227CD5021201E3
:100D830022B2D502120122EBD50212012203D602AE
:100D930012012258D60212012271D602120122B682
:100DA300D602120122C9D602120122E3D60212018F
:100DB30022F9D60212012217D80212012242D902C5
:100DC3001201222CDA021201221BDB02120122F48D
:100DD300FF01120122C39B02120122F29B021201A4
:100DE30022B89F021201220FA102120122D5A102F1
:100DF30012012254A3021201221EA4021201227024
:100E0300A4021201228AA402120122BCA40212012A
:100E130022C7A40212012210A50212012219A5025F
:100E2300120122C5A5021201229EA602120122E589
:100E3300A6021201224DA7021201228FA70212015C
:100E430022BDA702120122F8A7021201227CA401EB
:100E5300120122FAA70112012200A8011201225550
:100E6300AE011201229FB20112012285B6011201C5
:100E7300229EC20312012214C3031201222AC303B6
:100E8300120122BAC303120122F7C3031201223152
:100E9300C4031201226BC403120122DEC403120134
:100EA300221FC50312012228C50312012234C503E0
:100EB30012012253C5031201227DC503120122929E
:100EC300C503120122D5C503120122B88C031201F6
:100ED30022CB8C03120122E58C03120122128D0313
:100EE300120122588D031201228B8D03120122C994
:100EF3008D031201222E8E03120122438E0312014F
:100F0300224E8E031201225B8E03120122728E0384
:100F1300120122808E031201228B8E03120122976B
:100F23008E03120122AA8E03120122B58E0312012F
:100F330022D88E031201227C8F031201228C8F038D
:100F4300120122A68F03120122C38F03120122DE94
:100F53008F031201220390031201220E9003120148
:100F63002223900312012237900312012298900347
:100F73001201229E9003120122A49003120122AABD
:100F83009003120122C29003120122F59003120171
:100F930022408E02120122D78E021201226F8F028B
:100FA3001201225F9002120122969002120122A9DD
:100FB3009002120122179102120122B2920212012F
:100FC30022D992021201227B9302120122B09302D0
:100FD300120122C193021201223A94021201225BEE
:100FE3009402120122739402120122CB9502120180
:100FF30022D49702120122249A02120122279B0271
:10100300120122769B0212012222EA011201221FFF
:10101300EB011201220AEC0112012214EC0112016C
:101023002236EC0112012242EC0112012294ED015D
:10103300120122C3ED01120122F3EE011201223546
:10104300EF0112012261F00112012237F1011201B5
:101053002289F101120122E8F1011201221FF2019A
:101063001201225AF201120122F5F5011201220E98
:10107300F60112012290F6011201229EF6011201DD
:1010830022F3F60112012201F7011201226EF70188
:10109300120122E0F70112012226F8011201228C2B
:1010A300B402120122AEB40212012298B602120156
:1010B300223DBA0212012280BB021201225ABC0253
:1010C30012012295D203120122BAD2031201222B5A
:1010D300D30312012292E5021201229BE5021201BF
:1010E30022A4E502120122D5E602120122F4E8024B
:1010F3001201222AE90212012264E9021201229A50
:10110300E902120122D4E90212012208EA021201C1
:101113002234EA021201227DEA02120122B7EA0214
:10112300120122FFEA0212012255EB021201228A66
:10113300EB02120122E5EB021201221FEC02120163
:101143002270EC02120122A6EC02120122E0EC0250
:101153001201220EED0212012231ED0212012222AE
:10116300DD031201224EDD03120122A9DD03120168
:1011730022B3DD03120122C3DD031201223DC903A1
:1011830012012264C9031201228EC9031201221D16
:10119300E103120122C64F001201222A520012015A
:1011A30022E153001201223E540012012240550055
:1011B300120122C855001201224F56001201227457
:1011C3005600120122695900120122DF590012014F
:1011D30022CE5A00120122085B00120122485B0052
:1011E300120122E85C001201223D5D001201228AF5
:1011F3005D00120122F85D001201221E5E00120141
:1012030022385E001201224E5F001201225E5F004F
:10121300120122E460001201220461001201223A49
:101223006100120122BE6200120122FD620012015E
:10123300223B6400120122C19A03120122199B036B
:10124300120122619C03120122D09C031201227F0E
:101253009D031201229E9D03120122F29D0312019E
:1012630022309E0312012263DC0312012274DC0389
:1012730012012217DD0312012267E103120122A6E4
:10128300E1031201225AE203120122CDDD0312010E
:1012930022DDDD03120122F8DD0312012260DE03E9
:1012A3001201229CD90312012220DA0312012286A1
:1012B300DA0312012273D7031201229AD703120110
:1012C30022F0D70312012242D8031201222CBF03BA
:1012D30012012241BF03120122A8C00312012212EC
:1012E300C10312012286C103120122A0C10312010C
:1012F30022B7C103120122CAC103120122E2C103B0
:10130300120122F7C10312012218C203120122693A
:10131300C20312012290BB03120122A7BB031201D5
:101323002220BC03120122F5BC03120122C7BE0313
:1013330012012203C60312012295C60312012213CE
:10134300C7031201229AC7031201222CC8031201F8
:101353002283C8031201228DC8031201229CC803F1
:10136300120122B2C803120122C5C80312012226A8
:10137300C9031201223AC9031201226ADE031201D0
:1013830022D4DE03120122DFDE03120122EFDE0389
:10139300120122E9D50312012212D6031201223BC4
:1013A300D603120122D4D603120122ECD603120172
:1013B300222ED703120122BFED02120122C9ED0230
:1013C30012012209EE0212012252EE021201228CB4
:1013D300EE02120122E2EE0212012201EF021201D9
:1013E3002286F1021201228FF102120122E0F102A0
:1013F30012012209F2021201221EF2021201228EAE
:10140300F2021201221CF30212012260F302120102
:101413002288F30212012207F4021201224AF40283
:1014230012012287F40212012299F402120122B856
:10143300F402120122C1F40212012286F502120102
:10144300224BD4031201229CD40312012225D5037B
:101453001201228BD5031201220BCC031201223578
:10146300CC031201222FCD031201225ECD03120100
:1014730022E4CD031201229FDA03120122F2FD01BD
:1014830012012228FE0112012261FE01120122BA79
:10149300FF01120122F5DF031201220BE003120107
:1014A3002215E0031201226BE003120122B2F502BE
:1014B3001201226FF602120122AAF602120122D2AF
:1014C300F60212012234F70212012280F7021201FE
:1014D30022EBF70212012267F80212012263F902DA
:1014E300120122EAFA021201226DFB02120122D139
:1014F300FB02120122E8FB02120122DEFC021201AE
:10150300222AFD02120122CCA703120122E1A70322
:1015130012012294A803120122D4A803120122ED7E
:10152300A80312012220A9031201226DA9031201AB
:1015330022A1A903120122E3A903120122D9AB03B9
:10154300120122008002120122B7830212012249F2
:101553008502120122A08502120122BF8502120117
:10156300223D8602120122CF8702120122B3880292
:10157300120122C48C02120122988D021201227DD3
:10158300DF031201220080031201223B82031201B6
:1015930022CA83031201226B8503120122358603BB
:1015A300120122BA8603120122E98603120122479D
:1015B3008703120122E6AB031201224EAC03120190
:1015C300226BAC0312012258AD03120122BEAD03FC
:1015D3001201229CAE03120122F2D9011201220B45
:1015E300DF01120122BA7F00120122E7E103120197
:1015F30022B0E10312012213E2031201223CE203AF
:10160300120122FADE0312012224DF03E0667010C6
:1016130008A3E066700A08A3E066700408A3E06606
:1016230022C008C3E096F50808A3E096420808A381
:10163300E096420808A3E0964208A2D265D033E5BB
:10164300087001D3D00822C3E7960809E796080972
:10165300E7960809E79622C3E09608A3E09608A355
:10166300E09608A3E09622C008C3E096F50808A315
:10167300E096420808A3E096420808A3E0964508CE
:101683007001D3D00822080808E630E711121F437F
:101693001216A1080808C64480C61818182218187C
:1016A30018E9799EC608CAC608CBC608CCC6C3705B
:1016B300207996CACBCC7019798ECBCC70137986EE
:1016C300CC700EF9802ACA33CACB33CBCC33CC339C
:1016D3001930E7F2CCCBCA3350147004EA30E00D72
:1016E300E4CA3ACACB3BCBCC3CCC500209C3E91386
:1016F300C6CC182313C6CB18C6CA18C6F9221217AC
:101703004120F01430E72B74FFFCFBFA747F802236
:10171300E4FCFBFA7480801AB48008BC00F2BB00BE
:10172300EF800F50EBF9E4C39AFAE49BFBE49CFCD3
:10173300E499C6CC18C6CB18C6CA18C6F922E4C9A0
:10174300C608CAC608CBC6D3330308CCC63392F047
:10175300C3947F402E94184019C9B90704CACBCC4F
:10176300225025C309CA33CACB33CBCC33CC33D9AC
:10177300F422F4600DC9CCC313CB13CBCA13CAD95B
:10178300F6CC22E4FCFBFA2214FCFBFA22E6261830
:10179300461846184622E7271947194719472218BA
:1017A3001818E60846087009E626087005E633F4BB
:1017B300220822191919E70947097009E72709704F
:1017C30005E733F4220922E6084608C31346083323
:1017D3006002E633F422E7094709C313470933607C
:1017E30002E733F4221217CA60251217D9602012B8
:1017F30017907003021799080808E7667010181904
:10180300E766700A1819E76670041819E76622F488
:10181300221217CA601C1217D9601712179070078B
:101823001217997001D322C0D01217997006D0D025
:10183300B322C32233D0D0501430E0F6C3E7960866
:1018430009E7960809E7960809E796B32220E0D549
:10185300E6970809E6970809E6970809E697B32289
:101863001217CA601B1217D960161217907007124D
:101873001799600CB322C0D01217997005D0D022EB
:10188300C32233D0D0501330E0EBC3E7960809E707
:10189300960809E7960809E7962220E0E4E6970808
:1018A30009E6970809E6970809E69722001217CA7E
:1018B300604F1217D96012E7548066F61217A270B0
:1018C30011121799703B090909F4F618F618F6185E
:1018D300F6221217B6701512179008080860EAE688
:1018E300447FF618768018E4F618F62212179060F3
:1018F300161217997012E4F608F608F608E65480F3
:10190300F609090918181822EAC0E0EBC0E0ECC098
:10191300E0EDC0E0E687F0A4FBACF008E687F0A4B6
:101923002CFCE435F0FA1809E687F0A42C4B60028E
:101933007401CA35F0FCE433FB09E687F0D2F7A45F
:101943002CCB35F0FC1908E687F0A42BCC35F0FB43
:10195300E433FD0819E687F0D2E7A42C4ACB35F02F
:10196300CD3400FC09E687F0D2E7A42DCC35F0FD99
:10197300E433FA0918E687F0D2F7A42CCD35F0CA80
:101983003400FC08E687F0D2E7D2F7A42ACC35F07E
:101993007A7E20E70B0ACB33CBCD33CDCC33CC339C
:1019A300CB3350147004ED30E00ED2F1E4CD3DCDD5
:1019B300CC3CCC3B5005DA05C2F1EB547FC633086F
:1019C300E63392F0FBE73309E733C39A502D2B70CC
:1019D300190C0D4C4D70151806E608C333700D2015
:1019E300F10AA2F013F6E418800B4024E4F630F079
:1019F30002768018F618F618F68024D33B1450109C
:101A030074FFA2F013F6187680E418F618F6800F28
:101A1300A2F013F618E63303F618ECF618EDF6D039
:101A2300E0FDD0E0FCD0E0FBD0E0FA221217D96051
:101A3300461217CA603DE9687008F618F618F618DA
:101A4300F622748067F7121A63090909748067F72D
:101A5300221217CA601D1217D97005191919801A95
:101A63001217A2701F1217B6C37003E66733191952
:101A73001940071818182208080874FFF618F618F2
:101A8300F618F6221217B66017121799702192F002
:101A93001217907019501720F01408080809090943
:101AA300E7F61819E7F61819E7F61819E7F62212F8
:101AB300179060E6E869701F0808E62480F608E4DA
:101AC30036F618547FB47F0CE654806007F6E418AA
:101AD300F618F622181822E9C6CC08C6CD08C6CED9
:101AE30008C6CFC0E0E8C0E0EAC0E0EBC0E009E927
:101AF300F809E7FA09E7FBE6F918E6F8C3EC98ED0D
:101B030099EE9AEBC2E7F5F0EFC2E795F0500E605D
:101B13000CEBCFFBEACEFAE9CDF9E8CCF8EAA2E781
:101B2300D2E7FAEB33FB13F5F0EEA2E7D2E7FEEFD1
:101B330033FFC5F013A2E730E601B313C5F0C3C00A
:101B4300E0C0F07F00C39BFB605E9418600F401DF4
:101B530014601AD0E023F9D0E0F8021C358AF0E9CA
:101B6300486003D2F0E4AFF0FAF9F8803BEB30E4DD
:101B73000D89F0EA6003D2F0E4AFF0F9CAF8EB3074
:101B8300E30D88F0EF6002D2F0AFF0E4CAC9F8EBDE
:101B930054076014FBC3EA13FAE913F9E813F8EFE7
:101BA300135002D2E0FFDBEDD0E0C0E030E739C3F1
:101BB300E49FFFF5F0EC98FC42F0ED99FD42F0EE66
:101BC3009AFE42F0D0E0F9D0E0F8E5F0607AE9233C
:101BD300F9EE20E742D8028067C3EF33FFEC33FC12
:101BE300ED33FDEE33FE80EAEC28FCED39FDEE3AF1
:101BF300FED0E023F9D0E0F84002801BC3EE13FED1
:101C0300ED13FDEC13FCEF135002D2E0FF08B80014
:101C1300067F7F74FF802EEF3350178CF020F00285
:101C230060100CBC000C0DBD00080EBE000408E8DB
:101C330060DFE933E813FFEE2313FE4F4D4C8008BA
:101C4300E95480FFE4FEFDFCEE33EF33F47004FC53
:101C5300FD7E80D0E0FBD0E0FAD0E0F8D0E0CFC644
:101C630018CEC618CDC618CCC6F9221217CA7004EE
:101C7300181818221217D9700D74FFF61819F618D0
:101C830019F61819F622E7548066F6121790700FAA
:101C930012179970F014F608F608F608F680D112B8
:101CA3001799700CF608F608768008E6447F80ECF6
:101CB3001217B9700C1217A560BFE65480F6E480C2
:101CC300BB1217A5700519191980A5E869700C7660
:101CD3003F18768018F618F6E8F922E6CDC0E0182A
:101CE300ECC0E0E633CD33CDD313F6E719FCE719A7
:101CF3001933CC33C3947F400ECD9D502408E65452
:101D030080F6E418F6800FF4043D14501408E644FA
:101D13007FF6187680E418F618F6D0E0FCD0E0FDE4
:101D230022CCD313CCFD18E4C6CBC0E018E4C6CA5A
:101D3300C0E00808ED08C633E613F618E433C675A9
:101D4300F003C3CA97CA09CB97CB199C40047D08FB
:101D5300802EBD0003021E1716B6FF0506060816E1
:101D630018C3CA33CACB33CB33CA27CA09CB37CB41
:101D7300193CC37D08803E187D0820E75CC633C646
:101D8300CA33CACB33CB33DDF1D5F0EB30E77BCAB3
:101D930097CA09CB974ACB199C406F4B7025E62015
:101DA300E0218066187D08C3CA97CA09CB97CB196F
:101DB3009CD3C633C6CA33CACB33CB3350C9DDE752
:101DC300D5F0E1D3E4C636C608C636C608C636C65D
:101DD30008C636C61818188031C3CA97CA09CB97E4
:101DE300CB199CB34097C633C6CA33CACB33CB3364
:101DF300DD34D5F02EC6A2E0C640C8CA27CA09CB37
:101E030037194A70BECB3CB480B90808E63308E6FC
:101E130033601F181818D0E0FAD0E0FBD0E0FCD0F4
:101E2300E0FD22187D08CA27CA09CB37CB193CD35A
:101E3300808013F618E4B67F11F618B6FF0EF61875
:101E4300C60470D20808768080CAF618F618F680A1
:101E5300C5080808EAC0E0EBC0E086F0E7A4FA187A
:101E63000986F0E7A42AFA180986F0E7A42AFA18E3
:101E73000986F0E7A42AFA1986F0E7A4FBE5F02A1D
:101E8300FA190886F0E7A42BFBE5F03AFA1908865D
:101E9300F0E7A42BFBE5F03AFA18180986F0E7A45B
:101EA300C5F02BFBE43AFA1908E7C5F0C6A426F6F9
:101EB300E5F03BFBE43AFA1886F0E7A4F6E5F00810
:101EC30026F6E43B08F6E43A08F6D0E0FBD0E0FA65
:101ED30022E4CFC0E0E4CEC0E0E4CDC0E0E4CCC077
:101EE300E075F020E626F608E633F608E633F60852
:101EF300E633F6181818EC33FCED33FDEE33FEEF42
:101F030033FFC3EC9709ED9709EE9709EF9719197A
:101F130019400FFFEC97FC09ED97FD09EE97FE19A9
:101F23001906D5F0BFECF709EDF709EEF709EFF75E
:101F3300191919D0E0FCD0E0FDD0E0FED0E0FF227B
:101F4300181818E4C396F608E496F608E496F6081B
:101F5300E496F6226016080808C6C313C618C6130B
:101F6300C618C613C618C613C6D5E0EA22700908F8
:101F73000808226016181818C6C333C608C633C625
:101F830008C633C608C633C6D5E0EA22E627F608F4
:101F930009E637F60809E637F60809E637F622E0D8
:101FA30026F608A3E036F608A3E036F608A3E036E3
:101FB300F622E026F008A3E036F008A3E036F008A6
:101FC300A3E036F022C3E697F60809E697F6080978
:101FD300E697F60809E697F622C3E096F008A3E031
:101FE30096F008A3E096F008A3E096F022E056F6F8
:101FF30008A3E056F608A3E056F608A3E056F62237
:10200300E056F008A3E056F008A3E056F008A3E07A
:1020130056F022E0F608A3E0F608A3E0F608A3E0F2
:10202300F622E6F008A3E6F008A3E6F008A3E6F03C
:1020330022E0FAA3E0FBA3E0FCA3E0FD22E0F8A387
:10204300E0F9A3E0FAA3E0FB22E8F0A3E9F0A3EAB6
:10205300F0A3EBF022CAC0E0E6F0A308DAFAD0E07E
:10206300FA22CAC0E0E0A3C582CCC582C583CDC530
:1020730083F0A3C582CCC582C583CDC583DAE6D000
:10208300E0CA22C3E498F8E499F91220C78026C372
:10209300E49AFAE49BFBE920E7E91220C7E498F805
:1020A300E499F922C3E498F8E499F91220C7E49873
:1020B300F8E499F9C3E49AFAE49BFB22EB20E7CF17
:1020C300E920E7E0B90010BB0008E88AF084F8AA29
:1020D300F022E4FBC8FA22EB70227B10C833C8C994
:1020E30033C9335007C39AC3DBF280069A50012ADF
:1020F300DBEAC833F4C8C933F4C9FA2275F008E43B
:10210300C833C8C933C933C99AC99B5004C92AC93A
:102113003BD5F0ECFBC833F4C8E4C9FA22600D08E0
:10212300C6A2E713C618C613C6D5E0F322600C088F
:10213300C6C313C618C613C6D5E0F42270042260C2
:102143000D18C6C333C608C633C6D5E0F418222516
:102153001810AF08F518400C15198008F51840023F
:102163001519D2AF2200C0D0251810AF08F51850AA
:102173000C05198008F51850020519D2AFD0D022EA
:102183002518F58210AF08F518400C15198008F5CD
:102193001840021519D2AF851983222518F582E458
:1021A3003519F583222518F8E43519F9222518FA8B
:1021B300E43519FB222518FCE43519FD22E47325C7
:1021C30018C582C0E0E51934FFC583C0E0E518C334
:1021D300958224F810AF08858319858218800885B5
:1021E3008319858218D2AFCEF0A3E520F0A3780837
:1021F300E608F0A3DEFAEFF0A3E58124FAF8E60897
:10220300F0A3E608F0A3E608F0A30808E608F0A3A5
:10221300E608F0A315811581D0E0FED0E0F8158122
:1022230015811581E8C0E0EEC0E0222518C582C003
:10223300E0E51934FFC583C0E0E518C3958224F9AE
:1022430010AF0885831985821880088583198582D4
:1022530018D2AFCEF0A3E520F0A37808E608F0A3E8
:10226300DEFAEFF0A3E58124FBF8E608F0A3E60825
:10227300F0A30808E608F0A3E608F0A3158115818A
:10228300D0E0FED0E0F815811581E8C0E0EEC0E0B3
:1022930022851983851882E0A3FEE0A3F520780840
:1022A300E0A3F608DFFAE0A3FFE0A3C0E0E0A3C0E9
:1022B300E0E0A3C0E0E0A3C0E0E0A3C0E010AF080B
:1022C3008582188583198008858218858319D2AF82
:1022D300D083D08202011F851983851882E0A3FE73
:1022E300E0A3F5207808E0A3F608DFFAE0A3FFE017
:1022F300A3C0E0E0A3C0E0E0A3C0E0E0A3C0E0101F
:10230300AF0885821885831980088582188583190B
:10231300D2AFD083D08222C0D02518C582C0E0E5D9
:102323001934FFC583C0E0E518C3958224F310AFC9
:10233300088583198582188008858319858218D2B8
:10234300AFC8F0A3E9F0A3EAF0A3EBF0A37908E7A1
:1023530009F0A3D8FAECF0A3EDF0A3EEF0A3EFF0AD
:10236300A3D0E0F0A3D0E0F0A3D0E0F0A3E520F009
:10237300A3E5F0F0A322851983851882E0C0E0A3CA
:10238300E0F9A3E0FAA3E0FBA37808E0F608A3DFF3
:10239300FAE0FCA3E0FDA3E0FEA3E0FFA3E0C0E0BE
:1023A300A3E0C0E0A3E0F5D0A3E0F520A3E0A3F50C
:1023B300F010AF08858319858218800885831985F5
:1023C3008218D2AFD082D083D0E0F8D0E032740448
:1023D3008006740280027401C0E0F404122183D0E9
:1023E300E0122058227404800474028000CCC0E000
:1023F300EDC0E0E518C39CCCAD1950011D10AF062C
:102403008C188D1980068C188D19D2AF122065D0C7
:10241300E0FDD0E0FC22D083D082E9C0E0E493A3C6
:10242300C386F0C5F095F0F908E493A386F0C5F0F0
:1024330095F0700BE493A3C3994005E9048002A3CC
:10244300E475F002A42582F582E5F03583F583D0A7
:10245300E0F9E493A3C0E0E493C0E022D083D08208
:10246300ECC0E0EDC0E0E493A3FCE493A3FDED4CEA
:10247300600D1224ABEC24FFFCED34FFFD80EFE490
:1024830093A3FCE493A3FDED4C600D1224EAEC242A
:10249300FFFCED34FFFD80EFD0E0FDD0E0FCE493E2
:1024A300A3C0E0E493C0E022C0E0C3E493960874C1
:1024B30001939618400FE4936670080874019366BD
:1024C3001870007019A3A3C3E4939608740193963C
:1024D30018A3A3400DD0E0D0E0D0E002249BA3A337
:1024E300A3A3A3A3D0E022C0E0C0F088F0E49366E6
:1024F30070080874019366187000A8F0A3A3700B0A
:10250300D0F0D0E0D0E0D0E002249BA3A3D0F0D061
:02251300E022C4
:1025180074F612222EEAFEEBFF8C088D09EE2434A5
:10252800F8E43FF9E8FCE9FD12264BE0FAEE24371F
:10253800F582E43FF583E0F88508F0A4C885F00A41
:102548008509F0A4250AF9EA28F8E439F97A257BFF
:10255800001220C7EA8C828D83F0FA131313541FDC
:10256800F8EE28F8E43FF9E8245DF582E439F583CC
:10257800E0C0E074075AF8D0E0B800028004C31342
:10258800D8FCA2E05003EA8020EE2436F582E43F2E
:10259800F583E0F5F0EA84A8F0EE28F8E43FF9E8DE
:1025A8002438F582E439F583E0F97F030222DA74EE
:1025B800F512222EEAFEEBFFEE2434F582E43FF515
:1025C80083E0C0E012264BD0E0F08E828F83A3A375
:1025D800A3A3A3E0FAA3E0FB8E828F83A3A3A3A304
:1025E800A3A3A3E0FCA3E0FDECC39AF50AED9BF5D9
:1025F8000BEE247FF508E43FF509850882F583E0B2
:102608006401702AEE2480F582E43FF5831223ECFE
:102618001226557402122168E960137CB07D04EE1D
:10262800FAEFFB120CEB850882850983E4F0AC0A0B
:10263800AD0BEEFAEFFB122518E9F9122EB37F0461
:102648000222DAEE2435F582E43FF58322C082C007
:1026580083851882851983E0F8A3E0F9C3EA9CEB27
:102668009D5010C3EC98ED99401BC3EA98EB995024
:1026780014800EC3EA98EB994007C3EC98ED994093
:1026880004790180027900D083D08222EAC39CFABF
:10269800EB9DFB2274ED12222E900376E064086015
:1026A80005E06407702C9061C8E060269003A4E000
:1026B800F874FF68601CE875F00AA4C8AAF02AF943
:1026C80074A628FE740339FF8E828F83A3A3A3E028
:1026D80070057900022835EE2468F50EE43FF50F01
:1026E800906060E0850E82850F83F075102075116B
:1026F80005750800750900E5D914F50AE5D95403EC
:10270800F50B601FEE2482F50CE43FF50D740365AC
:102718000B6059E50A6017EE2467F582E43FF583FC
:10272800E0700B793DEEFAEFFB120D1B80A49005CB
:102738001BE064016023850C82850D83E060047AC8
:102748000480027A00E50AC39AFA95E0FB120B7737
:102758008A088B09EA45097006120F730226DA8582
:102768000C82850D83E070048A108B117A00801426
:10277800E5D9C0E0EAF8E51028F582E43511F583DB
:10278800D0E0F00AEAC3950A40E6850C82850D83FD
:10279800E0602874FC250AF50A78101223D5AC0AE3
:1027A800A90BEEFAEFFB120DC97402122168E97049
:1027B8000AAA08AB0912144702272B7403650B6099
:1027C80054850A0C750D00780C1223D5AC10AD1188
:1027D800AA08AB09120D8D7402122168850E828534
:1027E8000F83E0F87480687005750C7F8002880C90
:1027F800E50CF50D780D1223D9780B1223D9A90A07
:10280800AC08AD099003A4E0FA7B001209AF74028A
:102818001221688013900376E06408600BAC10AD59
:1028280011EEFAEFFB120E5F120F7F79017F0C0297
:1028380022DA74F312222E74FC122152EAFEEBFF04
:102848008909A2AFE433F508C2AFEE2463F50AE4C0
:102858003FF50B8010AA0AAB0B120D4512144790D6
:1028680004B7E004F0850A82850B83E0F8A3E0F959
:10287800E849602DE82402FAE439FBEA2402F50C61
:10288800E43BF50D780C1223D58A828B83E0FCA3F8
:10289800E0F9EEFAEFFB120D397402122168E960D3
:1028A800B49004B7E0604D9004B8E0F89004B7E045
:1028B800C398500C74026509703A9004B9E060340A
:1028C8008E828F83A3A3A3A3E08518828519831220
:1028D800290C740212219EE812290C9004B6E028F3
:1028E800F074021221B8AA18AB197901120A0390E0
:1028F80004B7E4F0E508A2E092AF74041221687FFF
:10290800060222DAF0A3E4F09004B7E0F82200000F
:102918008521878522C622C0E074EB12231AA2AF54
:10292800E433F508C2AF759B00906182E0A2E050E5
:1029380030E591A2E0502A7591FE7401652170215D
:10294800122AB2120EB9122AA01223E8122C5D74B0
:1029580004122168E9640170057901120F07122633
:102968009C906182E0A2E5505DE591A2E550577523
:1029780091DF900376E064076005E06408702F1229
:102988002AB274016521703E120EB9122AA01223D0
:10299800E8122C5D7404122168E96401700579015C
:1029A800120F077901EEFAEFFB12283A8018E0645B
:1029B8000D7013900398E004F064287002E4F07A34
:1029C80000E0F9120F85906182E0A2E64003022A36
:1029D80075E591A2E64003022A757591BF900376CA
:1029E800E064057008120EA1120EAD8003120EA746
:1029F800752100120F13E9900377F07900120F0781
:102A0800120C557A017B00900375E0F912141790A7
:102A18007803E06442705690051FE014F0704EC2CF
:102A2800AF122A2C00782AD0E0F618D0E0F6E59FFD
:102A38005407F87005750DFF8003750D7FC4C0E05D
:102A48007829E6F50A08E6550DF50B740B780A1295
:102A58002130D0E0250AF8906270E0A2E740F8E85B
:102A6800C333906272F0906270E0D2E0F0906181BE
:102A7800E0A2E35009E5E9A2E3500375E9F7A3E012
:102A8800A2E75009E591A2E7500375917FE508A2F6
:102A9800E092AF7F080223798E828F83E0F8A3E06B
:102AA800C82416F582E438F583229003A4E0F8756B
:102AB800F00AA4C8AAF02AF974A628FE740339FFFC
:102AC80022C0E0C0D0C082C083906183E0A2E05001
:102AD80009E5BFA2E0500375BFFEE0A2E15009E599
:102AE800BFA2E1500375BFFDE0A2E25009E5BFA215
:102AF800E2500375BFFBE0A2E35009E5BFA2E35033
:102B08000375BFF7E0A2E45009E5BFA2E4500375DE
:102B1800BFEFE0A2E55009E5BFA2E5500375BFDFAE
:102B2800E0A2E65009E5BFA2E6500375BFBFD08317
:102B3800D082D0D0D0E032C0E074F212231AE5A7D8
:102B4800A2E4500FE5A1A2E4500953A7EF75A1EF45
:102B5800122B93E5A7A2E5500CE5A1A2E550065378
:102B6800A7DF75A1DFE5A7A2E15009E5A1A2E15021
:102B78000375A1FDE5A7A2E2500CE5A1A2E250066B
:102B880053A7FB75A1FB7F0102237974F812222E4B
:102B9800752101900376E0640670077A007B0012C5
:102BA8000E89A2AFE433FED2AF90037CE0640170DB
:102BB800187A207B00900375E0F912152B7A207B98
:102BC80000900375E0F912141D906182E0D2E6F0DE
:102BD80090051CE0602185C622801690037BE06486
:102BE800017008E5C654F84405F5C653BEFC122921
:102BF800187401652160E4EEA2E092AF7F01022221
:102C0800DA0000008E238F24858228858327851883
:102C180082851983E0CEA3E0CF852882852783EBC0
:102C2800C9EAC8EDCBECCA75F010C3E833C8E9337C
:102C3800C9EA33CAEB33CBC3EA9EF526EB9FF525E9
:102C4800B35004AB25AA26EC33CCED33CDD5F0DA5E
:102C5800AE23AF242274F112222E8A088B098C0A23
:102C68008D0B90914C7808121FF0740F12219E78EA
:102C78000C12201690914C780C121FF07808790CE1
:102C880012164A90919450107808790C121FC8783F
:102C98000812166A4014800E780C7908121FC8783A
:102CA8000C12166A50047901800279007F0802220A
:102CB800DA74ED12222E8A088B098C0A8D0B9091FA
:102CC8004C7808121FF0741312219E780C122016EB
:102CD80090914C780C121FF0780C790812164A4023
:102CE800117808790C121FC8AA08AB09AC0AAD0BF9
:102CF8008022751000751100751200751301781087
:102D0800790C121FC878107908121F8FAA10AB11FE
:102D1800AC12AD137F0C0222DA90914C7808122085
:102D2800168A828B8378081220037F040222DA74C1
:102D3800F512222E8C828D8378081220168A828BB7
:102D4800837808121FDC122D8BC3E098F0A3E0995A
:102D5800122D7D401E90918878081220168A828B49
:102D6800837808121FB58E828F83E02420F0A3E0B9
:102D7800344EF080A4F08E828F83C3E09420A3E0C9
:102D8800944E22EA2404F8E43BF9E8FEE9FF8C8239
:102D98008D83A3A3A3A3E0F8A3E0F98E828F8322F7
:102DA80074F512222EE9FE9004D2E0FAA3E0FBEEBD
:102DB80029F8E433F974B028F582748F39F583E083
:102DC8002AF508A3E03BF50978081223D590913835
:102DD800122034122C0C74021221688A088B098C78
:102DE8000A8D0B74107808121F57AA08AB097F04C4
:102DF8000222DA74F112222E8A0C8B0D8C0E8D0FA2
:102E0800741112219E1223EC741112219EE02401E8
:102E1800F508A3E03400F509E4F50AF50B780C7918
:102E280008121E5490911C7808122016780C790804
:102E3800121E54AA0CAB0DAC0EAD0F122C0C740262
:102E48001221688B09EA450960047A0180027A0038
:102E5800EC2AFCE43DFD741312219EE0F8A3E0F98E
:102E6800E8FEE9FFECF8EDF97A717B021220C788D9
:102E7800088909E4F50AF50B8E828F8378081220F9
:102E880025ECF8EDF97A717B021220C78A088B09C4
:102E98007405780812213F8E828F83A3A3A3A3E52C
:102EA80008F0A3E509F07F080222DAC082C083E9AE
:102EB800906000F0D083D08222C0E074F212231A0E
:102EC800A2AFE433FED2AFC2C0E5D1A2E45006758A
:102ED800D10F121375EEA2E092AF7F01022379C0E1
:102EE800E074F212231AA2AFE433FED2AFE589A24E
:102EF800E04006E589A2E150031212C77589007502
:102F08008900C2C5EEA2E092AF7F01022379C0E03A
:102F1800C0D0E8C0E0E9C0E0A9A8D2AFC2C7E9A222
:102F2800E7E433F8E9A2E792AFD0E0F9D0E0F8D0CF
:102F3800D0D0E032C0E0C0D0E8C0E0E9C0E0EAC0EC
:102F4800E0C082C083A2AFE433FAD2AF9009BFE0F9
:102F5800F8A3E0687008539AFBA374018022C2E9C1
:102F68009009BFE0F8740128F0743F28F582E43432
:102F780009F583E0F5C19009BFE0C394804002E4FD
:102F8800F0EAA2E092AFD083D082D0E0FAD0E0F9A4
:0E2F9800D0E0F8D0D0D0E032C2AF020000226C
:102FA800FFFFFFFFFFFFFFFFC082C083E99017FB11
:102FB800F0D083D08202011F74F61221C2E9900278
:102FC800E8F0900348E0F5087509007402780812E3
:102FD800213FAA08AB091214899002E912397390AB
:102FE80002E9123D60606F900348E075F003A4FAAF
:102FF800ABF0121489900306123973900306123D40
:1030080060700B9002E9123D3112148F80489003D2
:1030180006124CC57AFF7BFF1212377A0080198A94
:10302800087509007402780812213F12476D74FF71
:10303800123173E4F0A3F00A900348E0F8EAC39869
:1030480040DD790512089B9002E8E0F91207877ABB
:10305800257B09120B1702481074F41221C28A0842
:103068008B09EB548060479002E8E0F91213FF8A5D
:103078000A8B0BAE0AAF0BEE4F602A8E828F83E06D
:1030880064B0701A1208ADE960148E828F83A3A30E
:10309800A3A3E0F9EE2405FAE43FFB12087DEEFA5B
:1030A800EFFB1213EDAA08E5096480FB80047A009F
:1030B8007B000232C374F21221C274FB122152EA5D
:1030C800FEEBFFEE4F6045740312219EEEF0A3EF76
:1030D800F0851882851983ECF0A3EDF074021221B3
:1030E8009EE9F0AA18AB19120781E9F50870757402
:1030F8001312219EE0F50AA3E0F50BE50A450B60E3
:10310800638E828F831236FCEE4F7005750802803D
:10311800537A067B001214898A0C8B0DA80CA90D12
:10312800E8497005750813803B88828983E4123169
:1031380073EEF0A3EF12328FE50AF0A3E50BF090DF
:1031480002EC1232889002EC6017E0FCA3E08003E6
:10315800EAFCEBFD8C828D8312328870F38C828DB1
:1031680083124388A9087405024F45F0A3124CA79F
:10317800A32274F21221C28908890C750D00740308
:10318800780C12213F850C0A850D0B9002EBF0900C
:1031980002E9124193123286602E12148F79008050
:1031A8001D890C750D007402780C12213F9002E9FC
:1031B80012462C8882F583A3A3E4F0A3F0099003B8
:1031C80048E0F8E9C39840D9900348E0FA850AF046
:1031D800A4CAA8F0850BF0A428FB1214898A0C8BCA
:1031E8000DAE0CAF0DEE4F700302327C900348E039
:1031F800FC850AF0A4CCA8F0850BF0A428FD790082
:103208001213D57C0080318D0C750D007403780C79
:1032180012213F8A828B8312328188828983E4F06B
:1032280012328EA3A3F0A3F00DEDC3950840D8EE9B
:10323800250AFEEF350BFF0C900348E0F8ECC39825
:1032480050288C0C750D007402780C12213F9002E6
:10325800E9123281E82402500109FAE9FB8A828BDB
:1032680083EEF0A3EFF07D0080BFE5089002EBF05D
:10327800790080027913024F48124630F922A3A33D
:10328800123D35EA4B22A3124CA7A3A3A32274F440
:103298001221C27900EAA2E0501F75080075099151
:1032A80078081223D579107C047D007AFD7B1712EB
:1032B80008957402122168E9F980007F04022294BB
:1032C800C082C0839002EC123D60601C88828983B2
:1032D800A3A3E06A7003A3E06B8882898370E8A3E4
:1032E800A3A3A3123D3180047A007B00022FB97496
:1032F800F21221C274FD122152EAFEEBFF851882F8
:10330800851983E4F0A3F0740212219E7401F0126F
:103318003D5D7014120A511214899002EF1239732C
:10332800123D5D7003023489123A73EE2404F50AE3
:10333800E43FF50B850A82F583E024FE603C24FC1B
:10334800607424FE607E24FE70030233D924FE706C
:10335800030233E624FE70030233F324FE700302F3
:10336800340024FE700302340D24FC700302342E52
:1033780024FE7003023446023482120A519002F18C
:10338800EAF0A3EB1234951204C9E960030234820F
:103398009002F11223EC8E828F83A3A3A3A3A3121E
:1033A8004CC5850882850983123D3112086574026F
:1033B800122168023482AC18AD19EEFAEFFB12083C
:1033C800B3023451AC18AD19EEFAEFFB1208B9800C
:1033D80078AC18AD19EEFAEFFB1208BF806BAC1889
:1033E800AD19EEFAEFFB1208C5805EAC18AD19EE08
:1033F800FAEFFB1208CB8051AC18AD19EEFAEFFBCF
:103408001208D1804474021221A8880C890D780C06
:103418001223D574021221B8EEFAEFFB1208D77402
:10342800021221688023AC18AD19EEFAEFFB1208DE
:10343800DDE9F87016740212219EE4F0803CAC18A5
:10344800AD19EEFAEFFB1208E3E9F8E8602C8E827A
:103458008F83A3E064146022850A82850B83E09041
:1034680002F1F0851882851983123D319002F2121B
:103478003973E8A31234951204C3EEFAEFFB12086D
:103488003B740212219EE0F97403024F45F07CF16F
:103498007D02850882850983123D352274E8122150
:1034A800C274FA122152740412219EECF0A3EDF0BA
:1034B8008A128B13EA2405F50EE43513F50FEA2476
:1034C80002F510E43513F511851082F583123D31AC
:1034D8001205B98A0A8B0B7508007C037D007900F8
:1034E8007AF17B021213D5E50E2402F516E4350FA6
:1034F800F51774021221A8880C890D780C1223D5AF
:10350800850E82850F83A3A3A3A3E0F50C750D0098
:10351800780C1223D5E50E2405F50CE4350FF50DCE
:10352800780C1223D5851682851783124038120726
:103538009F74061221688A0C8B0DE50C450D7003EB
:103548000236C58020851882851983E088828983A0
:10355800F00508851882851983A3E0C0E0123706B4
:10356800D0E0F00508E50A24FBFAE50B34FFFBC3BD
:10357800E5089AE49B40030236C57E007F00851269
:1035880082851383A3A3A3A3E0F50978091223D99D
:10359800E4F514F51578141223D57514EE75150293
:1035A80078141223D59002EF1223EC740912219E8D
:1035B8001223ECE50A24F9F9AC0CAD0D85108285CF
:1035C8001183123D3112090D7409122168E9600353
:1035D800023666850E82850F83A3A3A3A3A3A3A3A4
:1035E800E0F89002EEE0687075E0F5148E15781436
:1035F8001223D5124CC2850E82850F83A3A3A3A3E1
:10360800A3A3A3A3123D311213CF7402122168E9B8
:10361800604C9002F2123D60703BE4F5147814128D
:1036280023D57CFF7DFF7907851082851183123DA4
:10363800311208777402122168123D667017850EE0
:1036480082850F83124E5F740412219E1247201246
:1036580040690236F9850C82850D831236FCA8185C
:10366800A9198814891578141223D5740412219E77
:103678001223EC8516828517831239691207AB74F9
:10368800041221688A0C8B0DEE4F7003023542122A
:103698003706EE12371112401FEF123711F8A3E068
:1036A8003400F9E50C450D600302354D88828983A5
:1036B80074FFF0050812370674FFF00508E5086086
:1036C8001A1313543F1239791204D5E9600990028C
:1036D800F2123D3112144779008016850E82850F4B
:1036E80083124E5F740412219E1247201243887978
:1036F8000A023FF2A3A3A3A3E0FEA3E0FF22A808C7
:103708009002F2E02812401F22F00508089002F209
:10371800E0282274E81221C274FA122152740212AB
:10372800219E123973740412219EECF0A3EDF074FB
:103738000212219EE02405124008E0F50CA3E0F5F2
:103748000D740212219EE02402F510A3E03400F566
:1037580011851082F583123D311205B9750800757F
:103768000900EA24FCFEEB34FFFF8008050CE50C99
:103778007002050DA808C3EE98EF940050030239B3
:1037880025A818A919880E890F780E1223D5851433
:1037980082851583A3A3A3A3124CC91223D5E514CC
:1037A8002405F50EE43515F50F780E1223D585148A
:1037B8008285158312396712079F74061221688A59
:1037C8000E8B0FEA450F7003023925EA2404F5161B
:1037D800E4350FF517851682F583E0F50CA3E0F5BF
:1037E8000D851882851983124CC58A828B83A3A301
:1037F800A3E0F9851082851183123D3112078DE906
:10380800F5096003023925740212219E12402FF532
:103818000978091223D9E4F512F51378121223D581
:103828007512EE75130278121223D59002EF122347
:10383800EC740712219E1223ECEEF9AC0EAD0F8545
:103848001082851183123D3112090D740912216805
:10385800E9F5096003023925E508703FE4F50EF53E
:103868000F780E1223D57CFF7DFF7909851082859C
:103878001183123D311208777402122168124055E3
:10388800700D740412219E12395C79110239599015
:1038980002EEE024029002F2F080149002F2E0FAC4
:1038A8009002EEE0790024025001096A497072A87A
:1038B800089002EEE0FAE82AFAE43400FBEE9AEF08
:1038C8009B405A851682851783E0C0E09002F31268
:1038D800370BD0E0F00508851682851783A3E0C072
:1038E800E0089002F312370BD0E0F005089002EEE2
:1038F800124CC91223D5124CC2A808123FFC12134D
:10390800BD74021221689002EEE02508F50874FFE4
:10391800650C700474FF650D6003023774E5086078
:103928001F9002F2E0F5F0E508841239791204DB01
:10393800E960099002F3123D3112144779008011B1
:10394800E509700375090A740412219E12395CA9ED
:1039580009023FF2124197E50CF0A3E50DF022A30E
:10396800A3124F54AA0CAB0D22A3A3EAF0A3EBF0C9
:10397800229002F1F07CF17D02851082851183127C
:103988003D352274EC1221C274FC12215212449863
:1039980074021221B8123D2B1207A58A0C8B0DEA6E
:1039A800450D7003023A63123A73A818A9198810D2
:1039B800891178101223D57CFF7DFF790B85088249
:1039C800850983123D311208777402122168123B6F
:1039D80069700C850A82850B83124066023A708EE4
:1039E800828F83A3A3A3A3E0F51278121223D9E44C
:1039F800F512F51378121223D57512F175130278A2
:103A0800121223D578101223D5740912219E12237D
:103A1800EC740912219EE0F9AC0CAD0D8508828585
:103A28000983123D3112090D7409122168E9FE70EB
:103A3800157CF17D02850882850983123D311204C7
:103A4800E1E97009802074166E70027E009002F21F
:103A5800123D31121447EE7004800B7E01850A82F4
:103A6800850B83124385EEF902439AEE2402F5088A
:103A7800E43FF5092274EC1221C274FC122152EAC7
:103A8800FEEBFF8C0E8D0FEE2405F508E43FF509DB
:103A980074021221B8850882850983123D31120704
:103AA800A58A0C8B0DEA450D7003023B59EE2402E2
:103AB800F50AE43FF50BA818A919881089117810A0
:103AC8001223D57CFF7DFF790D123D2B12087774E8
:103AD80002122168123B69700B85088285098312DE
:103AE8004066807A8E828F83A3A3A3A3E0F5127821
:103AF800121223D9850882850983A3A31223EC75A2
:103B080012F175130278121223D578101223D57486
:103B18000912219E1223EC740912219EE0F9123D2C
:103B28002712090D7409122168E9FE700F7CF17DD6
:103B380002123D2B1204E7E97009802074166E709A
:103B4800027E009002F2123D31121447EE7004809A
:103B58000B7E01850882850983124385EEF90243AD
:103B68009A123D70F510A3E0F511EA45112274E8A8
:103B78001221C274FE1221528A168B178C148D15CD
:103B8800EA2405F50CE43517F50DEA2402F50EE4F0
:103B98003517F50F850E82F583123D311205B98A66
:103BA800088B09750B007C037D0079007AF17B0294
:103BB8001213D5750A00E50814F5100424FFF5085A
:103BC800E50934FFF50980549002F1E0FA9002EE1D
:103BD800E0F8EA28F8E43400F9E50898E50999508E
:103BE8000D9002F1E0F8E510C3989002EEF0E0F5D0
:103BF8001275130078121223D5124CC29002F2E00B
:103C08002AFAA3E03400FB1213BD74021221689053
:103C180002EEE0F89002F1E028F0050A850C8285B2
:103C28000D83A3A312463C4003023D0C9002F1E031
:103C3800C39508E495094003023D0CAE0AEE2EFE3A
:103C4800E433FF123D4BAC18AD19124CDDE439FBDF
:103C58001207A58A128B13AC12AD13EC4D701B75AD
:103C68000B01123D3B1243899002F2123288600325
:103C7800121447A90B7402023FF485168285178334
:103C8800A3A3A3A3E0F50B780B1223D9E4F512F54F
:103C98001378121223D57512EE75130278121223B7
:103CA800D59002EF1223EC740712219E1223ECA97F
:103CB80010850E82850F83123D3112090D74091289
:103CC8002168E9F50B709B9002F2123D60600302D7
:103CD8003BD0E4F512F51378121223D57CFF7DFF53
:103CE800790F850E82850F83123D31120877740291
:103CF800122168123D666003023BD0123D3B124020
:103D08006A023C7D7CF17D02850E82850F83123D1F
:103D1800311204EDE96003023C707900023C7DAC8D
:103D28000CAD0D850A82850B83123D3522E0FAA37E
:103D3800E0FB22123D4BE0FAA3E0F9EA8514828504
:103D4800158322850C82850D83E02EF8A3E03FF9C8
:103D580088828983229002EF124E63E84922123D3D
:103D680070F8A3E0F9E849229002F2EAF0A3EBF038
:103D78009002F2E02274E81221C274FA12215274FD
:103D88000412219E1239738C168D17740412219E09
:103D9800E02405F50EA3E03400F50F740412219E0B
:103DA800E02402124008123D311205B98A0A8B0B31
:103DB8007F007E00A818A9198808890978081223A5
:103DC800D5850E82850F83A3A3A3A3E0F5088E09EA
:103DD80078081223D5E50E2405F508E4350FF50912
:103DE80078081223D5850E82850F83A3A312403845
:103DF80012079F74061221688A0C8B0D80291240C5
:103E080029F00F124029F00F9002EE12437412238A
:103E1800D5124CC2EFF8123FFC1213BD74021221E6
:103E2800689002EEE02FFFE50C450D7003023EB8E6
:103E38008518828519831244AAA3A3A3E0F98514DF
:103E480082851583123D3112078DE9FEE50C2404A5
:103E5800F510E4350DF511EE7050740412219E1220
:103E6800402FF50878081223D9E4F508F5097808F1
:103E78001223D57508EE75090278081223D5900229
:103E8800EF1223EC740712219E1223ECE50A24FAA0
:103E9800F9AC0CAD0D851482851583123D311209DC
:103EA8000D7409122168E9FE6039124045124388F1
:103EB800EF7003023FDF9002F2E0F5F0EF8490022A
:103EC800F1F07CF17D02851482851583123D311253
:103ED80004F3E960099002F3123D311214477900A6
:103EE800023FF28F08EF703BE4F512F513781212D7
:103EF80023D57CFF7DFF7911851482851583123DBA
:103F08003112087774021221681240557009124064
:103F180045124069023FF29002EEE024049002F25A
:103F2800F080359002EEE0F89002F2E0FAE824041E
:103F3800FCE43400FDEC6A4D6003023EBEE50A2451
:103F4800FAFAE50B34FFFBE50828F8E43400F9EA4F
:103F580098EB995003023EBE851082851183E0C01C
:103F6800E09002F3E02FF8A3E034008882F583D0D4
:103F7800E0F00F851082851183A3E0C0E01240169F
:103F8800D0E0F00F74021221A88808890978081275
:103F980023D5740212219E1223EC850E82850F838D
:103FA8001239671207AB74041221688A0C8B0DEA68
:103FB800450D7003023E06740212219EE0C0E01215
:103FC8004016D0E0F00F740212219EA3E0C0E01268
:103FD8004016D0E0023E0EEE70027E0A850E828503
:103FE8000F8312404B124388EEF974061221687F42
:103FF800100222949002F3E028FAA3E03400FB2296
:10400800F514A3E03400F515851482F583221240D7
:104018001A229002F3E02FFAA3E034008A82F58393
:104028002212401A74FF22124197A3A3A3A3E022ED
:10403800124F54850E82850F83123D3522851082DA
:10404800851183124E63851682851783229002F3A9
:10405800EAF0A3EBF09002F3124E63E84922124310
:104068008EE8F0A3E9F079112274EA1221C274FEF5
:104078001221528A088B098C128D13EA2405FEE45A
:104088003509FFAC18AD198E828F83123D311207A6
:10409800A58A0C8B0DEE2406F50EE43FF50FEA45D4
:1040A8000D7003024169E5082402F50AE43509F5B3
:1040B8000B8A828B83A3A3A3E0A2E55028851882EC
:1040C800851983123D311209018A108B11EA4511B5
:1040D80060207912123D278510828511831221C034
:1040E800E9F50C707F850E82850F83E060097952AF
:1040F8008011750C0E806D850882850983A3A3A3A2
:10410800A3E0F9E4F508F50978081223D58E828F23
:1041180083A3A3E0F50878081223D58E828F83A3A2
:10412800A3A31223EC8E828F83124CC5123D2B124F
:1041380009137406122168E9F50C7011850E828541
:104148000F83E0702D123D2B1204F980257416653B
:104158000C7011750C00741812219E124193E480A2
:1041680010750C01124E5B851282851383E8F0A34B
:10417800E9F0850E82850F83E0600479008002A94A
:104188000C74021221687F0E02229412419722E0D9
:10419800F8A3E0F58388822274EC1221C274F71226
:1041A80021528A0A8B0B8C108D11EA2405FEE43506
:1041B8000BFF750C00AC18AD198E828F83123D3140
:1041C8001207A58A088B09EA4509700302435FE5CF
:1041D8000A2402F50A5002050B8A828B83A3A3A343
:1041E800E0A2E5502F851882851983123D31120906
:1041F800018A0C8B0DEA450D604F7912AC08AD09A8
:10420800123D2B850C82850D831221C0E9F50C60C7
:1042180003024362850A82850B83E0F508A3E0F573
:1042280009AA08FB1208F5EA4B70197AFF7BFF12FE
:1042380008F5EA4B70030243558A828B83E508F040
:10424800A3E509F07508008008750C0E02436205A5
:10425800089002EBE0F8E508C3984003024355854F
:10426800080E750F007403780E12213F8A828B8323
:10427800A3A3E0250EF8A3E0350F12472970D08ECE
:10428800828F8312437D1239738E828F83A3A31288
:10429800437D123971EE2404F508E43FF5098508D9
:1042A80082F583E088828983A3A3A3A3F0A3E4F023
:1042B800EE2405F50EE43FF50F850E82F5831243D3
:1042C8007DA3A3A3A3123971751207751300781281
:1042D8001223D5EEFCEFFD74041221B01213BD7445
:1042E80002122168E4F51278121223D58508828516
:1042F8000983E0FC7D007917123D2B1208777402C0
:10430800122168740712219E123973740712219EB4
:10431800E0FA4B603D8508828509831243741223B5
:10432800D5850E82850F83124CC51213BD740212F7
:10433800216874021221B8123D2B1204FFE960268D
:10434800740712219E123D311214478019750C0909
:104358008008750C118003750C01124E5B85108264
:10436800851183124388A90C74098028E0F5087523
:104378000900780822123D35888289832212438EEB
:10438800E8F0A3E9F022E0F8A3E0F9850E82850FB2
:10439800832274041221687F0C02229474EC122187
:1043A800C2124498751000EE2402F50CE43FF50D96
:1043B800850C82F583123D311208F58A088B09EACB
:1043C8004509700302447C850A82850B83E06401F9
:1043D8006003024471AC08AD09AA0AAB0B1208E9E4
:1043E800E9606E8508828509831236FEEE2406F59B
:1043F8000AE43FF50B8E828F83A3A31223EC8E82EF
:104408008F83A3A3A3A31223EC850A82850B8312AF
:1044180023EC79188E828F831244AA123D31120937
:10442800137406122168E9F8741668700B850A82FD
:10443800850B83E4F0A38014E860128E828F8312C8
:104448003D31850E82850F83EAF0A3EBF08810805A
:1044580018780E1223D5AC08AD09EEFAEFFB120856
:10446800EF7402122168E9F510AA08AB091208FBDB
:10447800E510700E850C82850D83123D31120505FD
:104488008009741665107003751000A91002439F07
:10449800EAFEEBFF8C0E8D0FEE2405F50AE43FF5DE
:1044A8000B22124F54850C82850D832274EA122147
:1044B800C27508007509007E007F00750A00EC24AB
:1044C80002F510E43DF5118035EC65087003ED65E3
:1044D80009600302456988828983A3A3E06A70039F
:1044E800A3E06B707C88828983A3A3A3A3124E5F89
:1044F800EE28FEEF39FFEA28FAEB39FB050A1246E7
:1045080039503A850A0C750D007403780C12213F56
:1045180085108285118312462C124729601FE508F1
:10452800450970A58C088D09888289831236FC8814
:10453800828983A3A3E02EFAA3E03F80BEE50AC3E5
:1045480094025003024627750800750900EE4F6073
:1045580010EEFAEFFB1214418A0E8B0FEA450F702A
:10456800057900024629750B000245FC850B0C7580
:104578000D007403780C12213F851082851183E0A9
:10458800250CF50CA3E0350DF50DE50C2406F51406
:10459800E4350DF515851482F58312472E6042E542
:1045A8000C2404F512E4350DF513851282F58312F7
:1045B80023ECE50E2508FAE50F3509FB1213BD7447
:1045C80002122168851282851383E02508F508A365
:1045D800E03509F509851482851583123D311214D9
:1045E80047E50B600D7C087D007900AA0CAB0D1225
:1045F80013D5050BE50BC3950A50030245748510C6
:1046080082851183124E5F88828983A3A3A3A3A303
:10461800A3E50EF0A3E50F12328FEEF0A3EFF079C9
:104628000102418E12463022E0250CF8A3E0350D38
:10463800229002EBE0F8E50AC3982274F01221C236
:104648008A0E8B0F8C0A8D0B750D00750C0080502F
:104658007916EE2406F508E43FF5098E828F83A3C8
:10466800A31223EC8E828F83A3A3A3A31223EC852A
:1046780008828509831223EC850E82850F83A3A304
:10468800123D311209137406122168E9F50D7416EA
:10469800650D706C850882850983E4F0A3F0050C2C
:1046A8009002EBE0F8E50CC3985066AA0C8A0875EE
:1046B80009007403780812213F850A82850B83A3B9
:1046C800A3124778E8FEE9FF8E828F8312472E6097
:1046D80040EA2401F508E43400F5099002EBE065AE
:1046E800087002E509601488828983A3A3A3A3A3A1
:1046F800A3A3A3123D606003024658791802465AE4
:10470800E9609B124E5B741012219E1247201243DF
:1047180088A90D7F08022294E0FAA3E0F5838A8233
:1047280022F988828983124F54EC4D2274F61221A3
:10473800C27C0080010C900348E0F8ECC398501E3E
:104748008C087509007402780812213F12476DE041
:104758006A7003A3E06B70DDE8FAE9FB80047A0075
:104768007B000248109002E91247788882898322E8
:10477800E02508F8A3E03509F92274F21221C28A6B
:10478800088B09750A0080278E828F83A3A3A3A3B1
:1047980012328660031214477C087D007900EEFA15
:1047A800EFFB1213D58E828F83E4F0A3F0050A1273
:1047B80046395027850A0C750D007403780C1221B0
:1047C8003F850882850983A3A3E0250CFEA3E03575
:1047D8000DFF8E828F83123D6070AD85088285093A
:1047E8008374FFF0A3F0024F4874F61221C2120836
:1047F800A78A828B83E582458370067A007B0080D6
:1048080007A3A3A3A3123D317F0202229474F412DA
:1048180021C289088C828D83E06402703C124DFEAF
:10482800FEA3E0F9EEF87402687003742969702930
:10483800750A02750B00780A1223D5741012219E8E
:104848001223EC741012219E1223ECA908121249AB
:104858007406122168E9F9800279010232C374E80A
:104868001221C274FB122152E9851882851983F03E
:104878008A168B17ECFEEDFF7510008E828F83A3CE
:10488800A3A3E0A2E4502D741D12219E123D311203
:1048980009018A828B83E58245837003024C9D79E6
:1048A8000AEEFCEFFDAA16AB171221C0E9F510605D
:1048B80003024CA0741F12219EE0F508A3E0F5093D
:1048C800742112219EE0F50AA3E0F50B742312214E
:1048D8009EE0F50EA3E0F50F8E828F83E064026000
:1048E80003024C3EA3124E5F850882850983A38587
:1048F8008212858313EE2406F50CE43FF50D8882B9
:104908008983124CDDF514E439F515781412245F07
:10491800010000280128404907000228054A032809
:1049280073490029344B01295F4B0229004B0329A5
:10493800344B0429D84B3E4CE50E450F6003024C1E
:1049480039850C82850D83124E5FE8FAE9FB8A826D
:104958008B83E0850A82850B83124CE81223D58A63
:10496800828B83A3E0FCA3E0024BC2E50E450F60F7
:1049780003024C39850A82850B837401F0124CD2EC
:10498800850882850983F07C007D008E828F83A351
:10499800A3A3A3E02401FAA3E03400FB1207A5EACD
:1049A8004B60408A828B83E02402F8850A82850B5B
:1049B80083E028F0EA2404F8E43BF988828983E05C
:1049C800851282851383124CF6124CE81223D58A7D
:1049D800828B83A3124CC5E5082403FAE43509FB4E
:1049E800024BC7850A82850B83E02404F07C047D92
:1049F800007900AA12AB131213D5024CA0E50E459C
:104A08000F6003024C39124CD2FEA3E0FF850A82E4
:104A1800850B837404F0EE850882850983F0EF85A1
:104A28001282851383F074031221B8EEFAEFFB1299
:104A380007A58A0C8B0DEA450D7003024AE38A82AA
:104A48008B83A3A31236FC74011221A8880E890F48
:104A5800780E1223D5740512219E1223EC7CFF7D5B
:104A6800FF1207AB74041221688B0FEA450F7033ED
:104A7800850C82850D83124CC91223D5850C82853D
:104A88000D83A31223EC7C027D007AD27B91120560
:104A9800A77404122168E9700A740112219E74FF38
:104AA800F0A3F08E828F83E064027039750C027572
:104AB8000D00780C1223D58E828F83A3124CC5E586
:104AC800082404FAE43509FB1213BD7402122168A4
:104AD800850A82850B83E024028009740112219ED5
:104AE800EEF0A3EFF0740112219E124CB77401127C
:104AF800219E124CAE024C33E50E450F6003024C6A
:104B080039850C82850D83124F4DAA16AB171212E8
:104B18004F850A82850B837402F085088285098394
:104B2800EAF0851282851383EB024C36E50E450FB9
:104B38006003024C39124CD2F8A3E0F9850A828549
:104B48000B837402F0E8850882850983F0E98512F1
:104B580082851383024C36850C82850D83123D3184
:104B68001213B7EAFAF8C3950EE4950F405CE865AE
:104B78000E450F70047A008021851882851983E01C
:104B8800FCE50E2CFCE4350FFDC3EC98ED940050C9
:104B980003E08005E50ECAC39AFAEA850A82850B06
:104BA80083F08A0A750B00780A1223D5850C828552
:104BB8000D83E0250EFCA3E0350FFDAA08AB091212
:104BC80013BD7402122168024CA0751007024CA094
:104BD800E50E450F705B850C82850D83124E5F854F
:104BE8000A82850B837407F088828983124CAF127E
:104BF8004CA7E0851282851383F0E82402FAE43991
:104C0800FB8A828B83124CB78A828B83124CAEA3A9
:104C1800A312328E124CBCF0E82405F85001098822
:104C2800828983124CBCA3124CF6A3A3A3A3F080E1
:104C38006775100B8062741D12219E123D31120897
:104C4800A78A828B83E5824583604A124E5F880C6F
:104C5800890DE8450D603E742512219EE0F5107817
:104C6800101223D9780E1223D5780A1223D5780882
:104C78001223D5740712219EE0F9EEFCEFFDAA1667
:104C8800AB17850C82850D831221C0740712216829
:104C9800E9F510800375100EA9107405023FF4F0B1
:104CA80088828983A322A3E085088285098322124A
:104CB8004CFDF022124CFDA3A3229002EF124F5498
:104CC80022E0F50E750F00780E22850C82850D8383
:104CD800124197E022E0FAA3E0F8E4C8F9EA2822B2
:104CE800F08A828B83E0F50A750B00780A22124C51
:104CF800A7124CFD22E0850882850983A3A32274AC
:104D0800EE1221C274FE1221528A088B09ECFEEDC4
:104D1800FF890AAC18AD19EEFAEFFB1207A58A0C49
:104D28008B0DEA450D7003024DEF851882851983B6
:104D3800123D311208A78A828B83E582458370036E
:104D4800024DEAA3A3124E5F880E890FE8450F7043
:104D580003024DEA741412219EE0F510A3E0F51148
:104D6800E50AF50B780B1223D9741912219E122328
:104D7800EC78101223D5741B12219EE0F9AC0CAD0F
:104D88000DAA08AB09850E82850F831221C0740510
:104D9800122168E9F50B705274FE650A604C850CA7
:104DA80082850D83E064027041124DFEFAA3E0F99A
:104DB800EAF87402687003742969702E8510828578
:104DC8001183124CDDF50CE439F50D780C1223D55E
:104DD800EEFCEFFDAA08AB0912092B740212216838
:104DE8008008750B0E8003750B01A90B7402122144
:104DF800687F0A022294A3124E6388828983E02284
:104E080074F61221C274FE122152740C12219E12E1
:104E18004E5FE8851882851983F0740112219EE996
:104E2800F0E4F508F50978081223D5750802780822
:104E38001223D574041221A8880889097808122336
:104E4800D579FE12091374061221687402122168BA
:104E58000248108E828F83124E6322E0F8A3E0F995
:104E68002274F71221C2EAFEEBFF890890030612AA
:104E78004CC512124FEA5402600BA908EEFAEFFB78
:104E8800120799800279017F0102229474F212219B
:104E9800C274FE122152EAFEEBFF890A7401650A08
:104EA80060147402650A6003024F437901120B35DE
:104EB800E96003024F43EEFAEFFB1208F5EA4B6094
:104EC800031208FBA818A919880889097808122369
:104ED800D575080275090078081223D57508CC75B0
:104EE800099178081223D57CFF7DFF7A017B001297
:104EF800079F74061221688038850882850983A374
:104F0800A3A3A3A3A3124F4DEEFAEFFB121237E4AB
:104F1800F50CF50D780C1223D5740212219E12237C
:104F2800EC7CFF7DFFAA08AB091207AB74041221C1
:104F3800688A088B09E508450970BE740212216861
:104F48007F06022294124197124F5422E0FCA3E0FC
:104F5800FD2274F41221C28A088B09ECFEEDFF9041
:104F680017FBE0F4604B7A097B001213E7EA4B6009
:104F7800408A828B8374B1F0A3E4124FBCF08A821A
:104F88008B83A3A3E508F0A3E509124FBCA3EEF0B9
:104F9800A3EFF0740C12219E124E5F8A828B83A3BA
:104FA800A3A3A3A3A3A31243889017FBE0F91213AA
:104FB800F30232C3F08A828B83A3A3A3A32274F0E3
:104FC8001221C274FA1221528909ECFEEDFF75080C
:104FD800008A0A8B0B780A122419000410EC510974
:104FE8005027504150595077508F50B250CA50DE18
:104FF80050085183519451AB51C651EC51EC511E9C
:10500800517401650960030251E78E828F83E0F8CD
:10501800C3940340030251E7E89018E70251C374B0
:1050280002650960030251E78E828F8312594A9004
:1050380018E8E8F0A3E90251C374016509600302A6
:1050480051E712521440030251E7E890072C02512D
:10505800C37401650960030251E78E828F83E0F80B
:10506800C3940540030251E7E890072D0251C37429
:1050780001650960030251E712521440030251E727
:10508800E890072E0251C37410650960030251E7C6
:10509800750A10750B00780A1223D57A2F7B071230
:1050A80013BD740212216802520D74016509600370
:1050B8000251E712521440030251E7E890073F02F9
:1050C80051C37401650960030251E78E828F83E042
:1050D8009018EB0251C37404650960030251E78E0E
:1050E800828F83780C122016909138780C12166AE9
:1050F80050030251E7900741780C12202502520D07
:10510800E960030251E712073FE970051211FB80BD
:10511800559007D480617407650960030251E775EB
:105128000A06750B00780A1223D58E828F83A3ACEA
:1051380082AD8374021221B01213C3740212216863
:105148007C007D00AA18AB198E828F83E0F91211BA
:10515800A7E9FEC3940A400302520A12073FE97006
:105168000CEEF91212017950121501806D74D52ECA
:10517800F582E43407F58374018040740165097091
:105188005E1252145059E8900740802F7401650947
:10519800704D8E828F83E0F8C3940A5042E89018CD
:1051A800EA80187401650970368E828F83E0F8747E
:1051B800F928C3940A5028E89018ECF08047740145
:1051C8006509701B9007D3E0F88E828F83E0900703
:1051D800D3F0E87030E06401702B1211EF8026756F
:1051E80008188021C3EA9427EB94005015740265CF
:1051F80009700F8E828F8312642A1205BFE9F508A1
:105208008003750802A90874060255388E828F83B8
:10521800E0F8C3940222A90880031221687F0402DF
:10522800229474F01221C274B11221528C0A8D0B8F
:105238009090EE74201221B8740612206574201222
:1052480021B81211A7E9FF745F12219EE0F509EF5A
:10525800C3940A40030253AC75F006EFA4F5087432
:10526800411221B87A0E74202508F91214FBE9704E
:1052780009744D12219EE0FE80027E009018E7E03E
:1052880064027005750E018003750E0074086509C7
:1052980070047422800274212508F50D7C1B7D00A2
:1052A800790074261221B01213D574261221B87A07
:1052B8001BA90D1214FBE9702D744012219EE024E5
:1052C800F9C3940A5020E50EF50D780D1223D97410
:1052D800271221B8EEA2E0E433F9AA0AAB0B1206B2
:1052E8006174011221687C147D007900740C12210C
:1052F800B01213D5740C1221B87A1074242508F949
:105308001214FBE970347C1079FF740C1221B0126E
:10531800143BE97025741C12219EAC82AD837A047B
:1053280074252508F91214FB740C1221B8EEA2E0BA
:10533800E433F9AA0AAB0B120649AC18AD197A0C7A
:1053480074702FF91214FBE97049AA18AB191211DD
:10535800D77F00EF75F003A4F8A9F08518828519A6
:1053680083E58228F8E583125B01125CE2601D8800
:10537800828983A3A3E0F50E750F00780E1223D55A
:10538800AA0AAB0B12091974021221680FEFC39411
:105398000440C0EEA2E1500C90072BE0F9AA0AAB3A
:1053A8000B12091F7404650970289018E7E064025D
:1053B80070207A0090073FE060027A0190072CE0A5
:1053C8006004780480027800E84AF9AA0AAB0B1254
:1053D80007157900744F02553874F71221C2120765
:1053E8003FE9704F9007D4E0640170151211FB90EB
:1053F80007D4E4F07C0AFDF97AD57B071213D5802F
:105408002A750800A80874D528FEE43407FF8E82A0
:105418008F83E06401700BA9081212018E828F83BA
:10542800E4F00508E508C3940A40D979501215013B
:105438001211EF025E1974F01221C274F012215297
:10544800EAFEEBFF8C088D09750A0AE9600C146006
:105458000914603B14607D0255341211E9E9F50A1C
:10546800C3940A4003025534E50845097003025500
:1054780034750C06750D00780C1223D5EEFCEFFD83
:10548800AA08AB091213BD740212216802553475BB
:105498000C00750E06750F00780E1223D5EEFCEF82
:1054A800FDE50C75F00EA4F8A9F0744D28FA740700
:1054B80039FB1213CF7402122168E9700B050CE551
:1054C8000CC3940A506680CA850C0AE50AC3940A7C
:1054D800505A8049750C00AC18AD197A1075F00651
:1054E800E50CA42423F91214FBE9701C7C1079FF45
:1054F800AA18AB1912143BE9700EEEFCEFFDAA18BE
:10550800AB19120625E9600B050CE50CC3940A508B
:105518001B80C4850C0AE50AC3940A500FE50845A8
:10552800096009AA08AB09A90A1211E3A90A7410AB
:105538001221687F0802229474F41221C289097525
:10554800081574FF6A700374FF6B70277E00AC093E
:105558007A027B00EEF91211C5E960037508000EA6
:10556800EEC3940A40E8E50960537A137B12120BE4
:1055780059804A120B298A0A8B0BAE0AAF0BEE4FE1
:1055880060387C007D00EE2405FAE43FFB8E828FB4
:1055980083A3A3A3A3E0F91211A7E9F9C3940A50BE
:1055A8000CAC097A027B001211C5750800E5096088
:1055B8000CEEFAEFFB121213800375081402521E48
:1055C80074F21221C2ECFEEDFF750815740E12215B
:1055D8009EE0F50AA3E0F50B74FF6A700374FF6B95
:1055E8007021750900AC0AAD0BEEFAEFFBA90912A0
:1055F80011CBE960037508000509E509C3940A5051
:105608003F80E2120B298A828B83E5824583602DD5
:105618007C007D00E5822405FAE43583FBA3A3A37F
:10562800A3E0F91211A7E9F9C3940A5013AC0AAD23
:105638000BEEFAEFFB1211CB750800800375081406
:10564800A9087F06022294C082C083900745EAF029
:10565800A3EBF090072BE0FC7D007A267B00120577
:10566800BF90072BE0F912088302613374EE122110
:10567800C274EC1221528A088B09EA240CF510E452
:105688003509F5118A828B83A385820C85830DEAFF
:105698002405F50EE43509F50FEA2409F50AE43581
:1056A80009F50BEA2403FEE43509FF8A828B83A3FC
:1056B800A3E024FA700302593824FD7003025858F5
:1056C80014700302575214601024FD700302583BF3
:1056D80014700302589002593E1264306044E0F599
:1056E80083888212594A880C890DE8450D603385F4
:1056F8001082851183E0F50E780E1223D9EA240B67
:10570800F582E43509F583E0F91264240A0A0AEF00
:10571800FB850C82850D831221C074011221680259
:10572800593E850A82850B831223EC90074112208B
:105738003412065B7402122168E9700302593E793B
:1057480001850A82850B83025908750A00850C8237
:10575800850D83E06003025808850E82850F83E07B
:10576800A2E040030258089007DF12643360030286
:1057780058087C0E7D007900AA18AB191213D5853C
:1057880010828511831260FEEA4B6010750A067557
:105798000B00780A1223D5EA2410801B1260FA1233
:1057A8000B29EA4B700302593E750A06750B0078FF
:1057B8000A1223D5EA2405FCE43BFD74021221B049
:1057C8001213BD7402122168850E82850F83E0A230
:1057D800E25004D2F08002C2F0A2F0E433F8740C74
:1057E80012219E1262B21211DDE970117A027B0059
:1057F80090072BE0F91214177900025940750A1521
:10580800126430700302593E12595F700302593E08
:10581800850C82850D83E0FC79011259501221C054
:10582800E50A700302593EFC79031260FA1260B56A
:10583800025933126430700302593E12595F7003E3
:1058480002593E850C82850D83E0FC7902025930AD
:105858007C007D00EA2404FAE43509FB8E828F83FC
:10586800E0F91211A7E9F8C3940A400302593EE58A
:1058780008240AFCE43509FD7A0475F006E8A42436
:1058880025F91214F502593E1260FA900740E060BB
:10589800079018EAE0F9806B9018E7E07004790542
:1058A8008061120B298A0C8B0DA80CA90DE8497090
:1058B8000302593EE82404F50CE439F50D85088205
:1058C800850983A3A3A3A3A3A3A3E0A2E0503985DA
:1058D8000C82850D83E0F508602E850A82850B838E
:1058E800A3E054027022740E1221B8E82405FAE4E9
:1058F80039FBA9081211A7E9700E79038E828F83EC
:105908001260FE120655802EAC0EAD0F850C8285F6
:105918000D83E0F91260FA12121F12643060171238
:10592800595F60127C0079001259501221C080061C
:105938001260FA1211A1790174141221687F0A0207
:105948002294E0F8A3E0F9228E828F83E0FAA3E0A4
:10595800FB8882850983221260C3F98909E8450911
:105968002274F51221C274F2122152EAFE8C0A75D1
:10597800F006E9A42420F508AC18AD197A0EF9123E
:1059880014FBE970467C0679FFAA18AB1912143B80
:10599800E97038740C12219E1260FEEAF8E50A607C
:1059A80005EEC8488004EEF4C858F8EA687001EBC0
:1059B8006015740C12219EE8F0A3E4F0AC18AD1940
:1059C8007A0EA9081214F5790180027900740E1272
:1059D80021687F0302229474F21221C274E6122114
:1059E80052890A8A088B09ECFEEDFF740C1221B863
:1059F8007A0E75F006E9A42420F91214FBE9600375
:105A0800025AC47C0679FF740C1221B012143BE9C7
:105A18006003025AC47470250AF50BAC18AD197AE4
:105A28000CF91214FBE96003025AC0AA18AB191248
:105A380011D7E5084509701D7C0C7900AA18AB1927
:105A480012143BE970727C0C7D007900AA18AB191E
:105A58001213D58051AC18AD19AA08AB091211D18F
:105A68008A0C8B0DA80CA90DE8497022EE4F604CEA
:105A7800AC18AD197A007B001211D1EAF8EBF9EAFB
:105A88004B603988828983E508F0A3E509F0125B49
:105A98003DFAEE6A7001EF601FEEF04F70088882E1
:105AA8008983E4F0A3F0AA18AB191211D7AC18AD8A
:105AB800197A0CA90B1214F5790180027900741A6D
:105AC80012216802564A74F71221C27E00EE75F060
:105AD80003A4F8A9F0EC28F8ED125B01E06A700362
:105AE800A3E06B7006E8FAE9FB800B0EEEC39404A2
:105AF80040DB7A007B00025E1939F98882898322AB
:105B080074F71221C27C00EC75F003A4F8A9F0EA3E
:105B180028F8EB125B01E0F4FEA3E0F4FF88828929
:105B280083EEF0A3EFF0125B3DF4F00CECC39404A9
