:020000040000FA
:06000000020107022AC103
:03002B00022F0E93
:03003B00022F345D
:03004300022EB9D1
:03005300022B3746
:03006B00022EDF83
:10008300022917E5C754F84401F5C7790122000096
:100093000080FB120086B900030200F1E4792178A5
:1000A30008B800028004F709D8FCE479297802B87B
:1000B30000028004F709D8FCE490028178BA79152C
:1000C3008002F0A3D8FCD9FA7A3A7B1790013778EB
:1000D3008779048015E493A3AD82AE838A828B83F0
:1000E300F0A3AA82AB838D828E83D8E9D9E7758288
:1000F300BB7583DF740312011975829175830074D4
:100103000012011975D00075813F751881751902A8
:10011300759F00020096C09FF59FE473D09F22D085
:1001230083D082C09FE493C0E0740193C0E0740263
:1001330093F59F22FF0000B4000028002800283018
:1001430075A000A000A000A00000080008E001F0D6
:10015300001000100010001000100010005000509C
:1001630000500010001000D0070000000000000F36
:100173000001000500307507001000010081FF0039
:10018300000000FFFFFFDF06FD06E5062107FF0273
:10019300020208025000A0000000E803029091014F
:1001A30000005F91028C9101000095170284910178
:1001B3000000BF02028C9101000096170282910198
:1001C3000000D502028C9101000097170280910173
:1001D3000000D702028C910100009817027E91085B
:1001E3000000D802028C910100009917027C910152
:1001F30000009A17FF0100FF2002909101000062A6
:1002030091028C91010000FE17027A910000000018
:100213000002869103000006031700CF0DCF0DCF18
:100223000DCF0DCF0DCF0DCF0DCF0DCF0DCF0DCFEB
:100233000DCF0DCF0DAB10BD10A5100202020202AF
:1002430002020202010D0000001001029091010060
:10025300006591028C910100004118026C9101002C
:10026300002307028C9101000042180270910100E3
:1002730000F78F028C910100004318027291010074
:1002830000CD8F028C91010000441802749101008B
:1002930000498F028C9101000045180276910100FC
:1002A30000258F028C910100004618028A910100FB
:1002B30000138F028C9101000047180296910100F0
:1002C300005B8F028C910100004818029891010095
:1002D30000E98F028C910100004918026A91010024
:1002E300004A1801E8030577100AFFFFFF000130F9
:1002F300750302010600000000000000000000007A
:1003030000000000000000000000000000000000EA
:1003130000FFFF0600800CE8031409434332353421
:1003230030424C455065726970686572616C0512A4
:1003330050002003020A000201060302F0FF536982
:100343006D706C6520424C4520506572697068651C
:1003530072616C9115000097150A436861726163BD
:100363007465726973746963203100024368617252
:10037300616374657269737469632032000843684A
:100383006172616374657269737469632033001009
:10039300436861726163746572697374696320345D
:1003A300000243686172616374657269737469639F
:1003B3002035000A436861726163746572697374FE
:1003C30069632036000290910100005C91028C91D8
:1003D3000100005F19029C910300002D1702A691F2
:1003E3000100006019028C910100007119029E91B5
:1003F3000100002E1702A6910100007219028C91D0
:10040300010000831902A0910200002F1702A69198
:100413000100008419028C91010000951902A29138
:100423000000003017028691030000311702A691E5
:100433000100009619028C91010000A71902A491F2
:10044300040000331702A691010000A819028C9141
:10045300010000B919028891030000381702A69120
:10046300010000BA19303132333435363738394167
:10047300424344454600286E756C6C20706F696E6C
:100483007465722900303132333435363738396187
:100493006263646566003F3F3F000000807F0000A9
:1004A300803F00000000F9021550B743BA51000025
:1004B300204100E7DB2E0000A04012012263B503B8
:1004C30012012276B503120122A7B503120122E11C
:1004D300B5031201223AB60312012281B6031201B7
:1004E30022C9B603120122F8B60312012227B70369
:1004F3001201225EB703120122A5B703120122BE25
:10050300B70312012213B8031201222CB8031201FC
:10051300227AB803120122B4B803120122D4DC02F6
:10052300120122D7DD0212012210DE021201223350
:10053300DE0212012245DE0212012283DE021201D3
:1005430022FFDE02120122C7DF02120122E9DF02CB
:1005530012012280E002120122D2E00212012203E0
:10056300E10212012210E1021201227AE1021201D8
:1005730022D1E102120122D4E1021201220DE20290
:1005830012012210E2021201221AE2021201226E69
:10059300E202120122AFE202120122E2E20212019E
:1005A300221FE30212012221E402120122C5E40206
:1005B3001201222EE5021201226CE50212012282AF
:1005C300AD03120122AAAD03120122D7AD0312011A
:1005D300220FAE031201226DAE03120122B9AE0344
:1005E30012012220AF0312012260AF031201229DE8
:1005F300AF03120122CBAF0312012275B003120124
:10060300227FB0031201228CB003120122BFB00378
:10061300120122CBB003120122E3B003120122ED37
:10062300B00312012224DB0312012232DB03120185
:10063300224ADB0312012261DB0312012289C80172
:1006430012012233C90112012246CA01120122C238
:10065300CA01120122E0CB011201221CCC011201BA
:1006630022B7CC011201229BCD0112012267CE01D8
:10067300120122F5CF0112012266D00112012220BC
:10068300D10112012212D20112012252D20112010E
:100693002206D30112012238D3011201222ED501E1
:1006A30012012270D5011201228ED501120122F40A
:1006B300D501120122C3D60112012287D7011201EB
:1006C30022A6D90112012270F8011201225AF9015E
:1006D30012012205FA0112012256FA011201220621
:1006E300FB0112012277FB011201225CFC011201C2
:1006F3002290FC0112012289FD01120122C6FD0193
:10070300120122A2FE01120122E1FE01120122FDC9
:10071300FE011201225DCE03120122E1CE0312017A
:10072300220CCF0312012226D0031201227BB10334
:1007330012012291B103120122AFB103120122C0AF
:10074300B203120122CAB203120122F5B30312014A
:1007530022ECB40312012259B503120122008003D3
:10076300120122308103120122678103120122B197
:100773008103120122748303120122A99101120140
:1007830022359201120122999301120122A59301AC
:10079300120122E093011201224F94011201225807
:1007A300950112012261960112012228970112017B
:1007B30022859801120122A39801120122C09801F7
:1007C3001201226D9901120122EA990112012212EA
:1007D3009A01120122DC9C01120122E19C01120107
:1007E30022FA9E01120122489F01120122B89F01A1
:1007F300120122F69F01120122D2A00112012292BC
:10080300A101120122DEA101120122E1A1011201C3
:100813002225A2011201226DA201120122ACA20122
:10082300120122CEA20112012202A30112012265AA
:10083300A3011201224385031201225185031201F0
:1008430022A48503120122C3850312012208860311
:100853001201224C8703120122E787031201222B84
:100863008803120122558803120122C4880312014E
:10087300220A8903120122818903120122328A0387
:10088300120122A82F00120122B82F0012012259AF
:100893003000120122B53000120122723100120120
:1008A300228E3200120122C03200120122EF3200E6
:1008B3001201229C340012012213370012012283F9
:1008C3003900120122753A001201226E3B00120117
:1008D30022753D0012012269400012012298410055
:1008E3001201229C4300120122AC44001201223B5C
:1008F30046001201222C47001201227A47001201FE
:1009030022E947001201220D48001201225E48002D
:10091300120122FF4C00120122004E00120122613B
:100923004E001201228C4E00120122524F0012017E
:10093300221EA10312012228A1031201226DA10389
:1009430012012281A10312012211A2031201224AE0
:10095300A20312012285A203120122AEA2031201F5
:100963002202A30312012217A30312012239A303B4
:100973001201224EA30312012262A3031201227762
:10098300A303120122B1A303120122DDA303120167
:100993002226A40312012298A403120122DBA4033A
:1009A30012012205A50312012230A503120122160A
:1009B300D8031201229CBF021201227FC00212013E
:1009C30022FAC00212012235C10212012286C2029A
:1009D30012012214C302120122A6C50212012258D7
:1009E300C60212012264C702120122D7C8021201F1
:1009F3002230C902120122CE9C03120122119D034F
:100A0300120122959D031201226CA0031201228878
:100A1300FD021201223AFE0212012236FF021201E6
:100A23002275FF02120122CFFF0212012255D003C9
:100A3300120122B8D00312012255D1031201228AD6
:100A4300D103120122BAD103120122F5D1031201FB
:100A53002215D203120122038F031201228F8F0367
:100A63001201224E90031201226691031201228089
:100A7300930312012208A9021201222DA9021201D5
:100A830022FAA902120122CEAA021201223BAB02D0
:100A93001201227BAB0212012217AC021201224B7C
:100AA300AD0212012226AE0212012285AE0212010C
:100AB3002211AF021201227FAF021201220BB002F8
:100AC30012012251B002120122C3B00212012255B7
:100AD300B102120122F6B10212012216B202120170
:100AE300225EB202120122A7B202120122C3B20293
:100AF300120122E9B20212012263B302120122712E
:100B0300B30212012200B40212012269B4021201DB
:100B130022B793031201223C94031201227E940311
:100B2300120122629503120122CF950312012213AF
:100B3300960312012257960312012284960312018F
:100B430022AC9603120122E4960312012222970398
:100B5300120122499703120122C397031201220DA6
:100B6300980312012291B60112012239B801120130
:100B73002266BA01120122BABA01120122E5BA01B0
:100B8300120122B7BB01120122FBBB011201223F5A
:100B9300BC0112012252BC0112012293BC011201B9
:100BA30022C0BC011201220EBD011201224FBD0160
:100BB3001201227DBD01120122D0BD011201226763
:100BC300BE0112012251C10112012267C3011201A8
:100BD30022A5C30112012238C5011201227DC501DC
:100BE300120122EFC50112012240C6011201227A2D
:100BF300C6011201227FC6011201221FC701120181
:100C03002255C80112012266C801120122D9C90264
:100C130012012258CA0212012251D0021201225794
:100C2300D102120122CAD20212012261D30212019D
:100C330022586400120122A16400120122CE640032
:100C43001201220065001201220D65001201221912
:100C530065001201222B65001201220666001201B3
:100C630022646600120122996600120122D06700F5
:100C73001201221D6800120122416800120122B1F3
:100C83006800120122726900120122356A00120102
:100C930022A36A00120122606B00120122736B000F
:100CA300120122F16B00120122846C00120122ABAB
:100CB3006C00120122136D00120122646D001201F7
:100CC30022B96D00120122626E001201220D6F0023
:100CD300120122B96F001201222B70001201227F30
:100CE3007000120122DF70001201220F7100120145
:100CF30022A57100120122CA72001201221273008E
:100D03001201222F73001201224E73001201227D61
:100D1300730012012292740012012218750012014D
:100D2300223D7500120122527500120122C5750081
:100D3300120122067600120122227700120122C339
:100D430077001201221178001201227B7800120130
:100D5300229478001201228BD302120122DFD302E4
:100D6300120122EBD302120122B5D402120122E2B4
:100D7300D40212012210D5021201227CD5021201E3
:100D830022B2D502120122EBD50212012203D602AE
:100D930012012258D60212012271D602120122B682
:100DA300D602120122C9D602120122E3D60212018F
:100DB30022F9D60212012217D80212012242D902C5
:100DC3001201222CDA021201221BDB02120122FB86
:100DD300FF01120122C39B02120122F29B021201A4
:100DE30022B89F021201220FA102120122D5A102F1
:100DF30012012254A3021201221EA4021201227024
:100E0300A4021201228AA402120122BCA40212012A
:100E130022C7A40212012210A50212012219A5025F
:100E2300120122C5A5021201229EA602120122E589
:100E3300A6021201224DA7021201228FA70212015C
:100E430022BDA702120122F8A7021201223DA4012A
:100E5300120122BBA701120122C1A701120122160E
:100E6300AE0112012260B20112012246B601120143
:100E7300222AC003120122A0C003120122B6C0031A
:100E830012012246C10312012283C103120122BDB2
:100E9300C103120122F7C1031201226AC203120124
:100EA30022ABC203120122B4C203120122C0C20345
:100EB300120122DFC20312012209C3031201221EFF
:100EC300C30312012261C303120122448A031201E4
:100ED30022578A03120122718A031201229E8A0376
:100EE300120122E48A03120122178B0312012255F5
:100EF3008B03120122BA8B03120122CF8B0312013F
:100F030022DA8B03120122E78B03120122FE8B03E9
:100F13001201220C8C03120122178C0312012223CB
:100F23008C03120122368C03120122418C0312011D
:100F330022648C03120122088D03120122188D03EF
:100F4300120122328D031201224F8D031201226AF4
:100F53008D031201228F8D031201229A8D03120138
:100F630022AF8D03120122C38D03120122248E03AB
:100F73001201222A8E03120122308E03120122361D
:100F83008E031201224E8E03120122818E0312015F
:100F930022408E02120122D78E021201226F8F028B
:100FA3001201225F9002120122969002120122A9DD
:100FB3009002120122179102120122B2920212012F
:100FC30022D992021201227B9302120122B09302D0
:100FD300120122C193021201223A94021201225BEE
:100FE3009402120122739402120122CB9502120180
:100FF30022D49702120122249A02120122279B0271
:10100300120122769B02120122E3E901120122E07E
:10101300EA01120122CBEB01120122D5EB011201ED
:1010230022F7EB0112012203EC0112012255ED011B
:1010330012012284ED01120122B4EE01120122F603
:10104300EE0112012222F001120122F8F001120135
:10105300224AF101120122A9F101120122E0F10158
:101063001201221BF201120122B6F501120122CF55
:10107300F50112012251F6011201225FF60112015C
:1010830022B4F601120122C2F6011201222FF70146
:10109300120122A1F701120122E7F7011201228CAA
:1010A300B402120122AEB40212012298B602120156
:1010B300223DBA0212012280BB021201225ABC0253
:1010C30012012223D20312012248D203120122B9B0
:1010D300D20312012292E5021201229BE5021201C0
:1010E30022A4E502120122D5E602120122F4E8024B
:1010F3001201222AE90212012264E9021201229A50
:10110300E902120122D4E90212012208EA021201C1
:101113002234EA021201227DEA02120122B7EA0214
:10112300120122FFEA0212012255EB021201228A66
:10113300EB02120122E5EB021201221FEC02120163
:101143002270EC02120122A6EC02120122E0EC0250
:101153001201220EED0212012231ED02120122B020
:10116300DC03120122DCDC0312012237DD0312014E
:101173002241DD0312012251DD03120122C9C603FC
:10118300120122F0C6031201221AC7031201220E12
:10119300E003120122BE4F0012012222520012016B
:1011A30022D953001201223654001201223855006D
:1011B300120122C055001201224756001201226C6F
:1011C3005600120122615900120122D7590012015F
:1011D30022C65A00120122005B00120122405B006A
:1011E300120122E05C00120122355D00120122820D
:1011F3005D00120122F05D00120122165E00120151
:1012030022305E00120122465F00120122565F0067
:10121300120122DC6000120122FC60001201223262
:101223006100120122B66200120122F5620012016E
:10123300223364001201224D9803120122A5980360
:10124300120122ED99031201225C9A031201220B6F
:101253009B031201222A9B031201227E9B0312018C
:1012630022BC9B03120122F1DB0312012202DC03E5
:10127300120122A5DC0312012258E0031201229776
:10128300E00312012291E1031201225EFF01120128
:10129300226EFF0112012289FF01120122F1FF01D7
:1012A3001201222AD903120122AED90312012214F8
:1012B300DA0312012201D70312012228D7031201F4
:1012C300227ED703120122D0D703120122B8BC0316
:1012D300120122CDBC0312012234BE031201229E4D
:1012E300BE0312012212BF031201222CBF031201FB
:1012F3002243BF0312012256BF031201226EBF0312
:1013030012012283BF03120122A4BF03120122F59B
:10131300BF031201221CB90312012233B9031201C4
:1013230022ACB90312012281BA0312012253BC0376
:101333001201228FC30312012221C4031201229F2F
:10134300C40312012226C503120122B8C5031201E8
:10135300220FC60312012219C60312012228C60353
:101363001201223EC60312012251C603120122B208
:10137300C603120122C6C6031201225BDD0312015A
:1013830022C5DD03120122D0DD03120122E0DD03B9
:1013930012012277D503120122A0D503120122C91B
:1013A300D50312012262D6031201227AD603120157
:1013B30022BCD603120122BFED02120122C9ED02A3
:1013C30012012209EE0212012252EE021201228CB4
:1013D300EE02120122E2EE0212012201EF021201D9
:1013E3002286F1021201228FF102120122E0F102A0
:1013F30012012209F2021201221EF2021201228EAE
:10140300F2021201221CF30212012260F302120102
:101413002288F30212012207F4021201224AF40283
:1014230012012287F40212012299F402120122B856
:10143300F402120122C1F40212012286F502120102
:1014430022D9D3031201222AD403120122B3D403D3
:1014530012012219D50312012297C903120122C1D5
:10146300C903120122BBCA03120122EACA031201F1
:101473002270CB031201222DDA031201225BCC036B
:1014830012012291CC03120122CACC03120122239E
:10149300CE03120122E6DE03120122FCDE03120157
:1014A3002206DF031201225CDF03120122B2F502DE
:1014B3001201226FF602120122AAF602120122D2AF
:1014C300F60212012234F70212012280F7021201FE
:1014D30022EBF70212012267F80212012263F902DA
:1014E300120122EAFA021201226DFB02120122D139
:1014F300FB02120122E8FB02120122DEFC021201AE
:10150300222AFD0212012258A5031201226DA5030E
:1015130012012220A60312012260A60312012279DE
:10152300A603120122ACA603120122F9A60312019B
:10153300222DA7031201226FA70312012265A9031B
:10154300120122008002120122B7830212012249F2
:101553008502120122A08502120122BF8502120117
:10156300223D8602120122CF8702120122B3880292
:10157300120122C48C02120122988D021201226EE2
:10158300DE03120122C47800120122FF7A00120145
:1015930022DB7C001201227C7E00120122017F00EB
:1015A300120122307F001201228E7F00120122726B
:1015B300A903120122DAA903120122F7A9031201D6
:1015C30022E4AA031201224AAB0312012228AC032C
:1015D300120122B3D901120122CCDE01120122A190
:1015E300E0031201221EE103120122E7E0031201CC
:1015F300224AE10312012273E103120122EBDD030C
:1016030012012215DE03E066701008A3E066700A7B
:1016130008A3E066700408A3E06622C008C3E0964E
:10162300F50808A3E096420808A3E096420808A339
:10163300E0964208A2D265D033E5087001D3D00802
:1016430022C3E7960809E7960809E7960809E7968B
:1016530022C3E09608A3E09608A3E09608A3E096C9
:1016630022C008C3E096F50808A3E096420808A341
:10167300E096420808A3E09645087001D3D00822FB
:10168300080808E630E711121F3D12169B080808E8
:10169300C64480C618181822181818E9799EC60877
:1016A300CAC608CBC608CCC6C370207996CACBCCB1
:1016B3007019798ECBCC70137986CC700EF9802A91
:1016C300CA33CACB33CBCC33CC331930E7F2CCCBD0
:1016D300CA3350147004EA30E00DE4CA3ACACB3B73
:1016E300CBCC3CCC500209C3E913C6CC182313C698
:1016F300CB18C6CA18C6F92212173B20F01430E7DC
:101703002B74FFFCFBFA747F8022E4FCFBFA7480E9
:10171300801AB48008BC00F2BB00EF800F50EBF9D5
:10172300E4C39AFAE49BFBE49CFCE499C6CC18C698
:10173300CB18C6CA18C6F922E4C9C608CAC608CB5C
:10174300C6D3330308CCC63392F0C3947F402E94A0
:10175300184019C9B90704CACBCC225025C309CAFA
:1017630033CACB33CBCC33CC33D9F422F4600DC999
:10177300CCC313CB13CBCA13CAD9F6CC22E4FCFBDC
:10178300FA2214FCFBFA22E62618461846184622CB
:10179300E72719471947194722181818E608460872
:1017A3007009E626087005E633F422082219191990
:1017B300E70947097009E727097005E733F42209A8
:1017C30022E6084608C3134608336002E633F422D0
:1017D300E7094709C3134709336002E733F42212C9
:1017E30017C460251217D3602012178A70030217DB
:1017F30093080808E76670101819E766700A181945
:10180300E76670041819E76622F4221217C4601CF5
:101813001217D3601712178A70071217937001D328
:1018230022C0D01217937006D0D0B322C32233D074
:10183300D0501430E0F6C3E7960809E7960809E7A5
:10184300960809E796B32220E0D5E6970809E697BC
:101853000809E6970809E697B3221217C4601B121A
:1018630017D3601612178A7007121793600CB322EE
:10187300C0D01217937005D0D022C32233D0D050DA
:101883001330E0EBC3E7960809E7960809E79608E3
:1018930009E7962220E0E4E6970809E6970809E6B7
:1018A300970809E69722001217C4604F1217D360F6
:1018B30012E7548066F612179C7011121793703B4F
:1018C300090909F4F618F618F618F6221217B0707B
:1018D3001512178A08080860EAE6447FF61876802E
:1018E30018E4F618F62212178A601612179370126C
:1018F300E4F608F608F608E65480F609090918180C
:101903001822EAC0E0EBC0E0ECC0E0EDC0E0E687FF
:10191300F0A4FBACF008E687F0A42CFCE435F0FA65
:101923001809E687F0A42C4B60027401CA35F0FC59
:10193300E433FB09E687F0D2F7A42CCB35F0FC198E
:1019430008E687F0A42BCC35F0FBE433FD0819E659
:1019530087F0D2E7A42C4ACB35F0CD3400FC09E65E
:1019630087F0D2E7A42DCC35F0FDE433FA0918E66D
:1019730087F0D2F7A42CCD35F0CA3400FC08E687F3
:10198300F0D2E7D2F7A42ACC35F07A7E20E70B0A0F
:10199300CB33CBCD33CDCC33CC33CB3350147004DA
:1019A300ED30E00ED2F1E4CD3DCDCC3CCC3B500547
:1019B300DA05C2F1EB547FC63308E63392F0FBE756
:1019C3003309E733C39A502D2B70190C0D4C4D700E
:1019D300151806E608C333700D20F10AA2F013F6BA
:1019E300E418800B4024E4F630F002768018F618F1
:1019F300F618F68024D33B14501074FFA2F013F6AC
:101A0300187680E418F618F6800FA2F013F618E69D
:101A13003303F618ECF618EDF6D0E0FDD0E0FCD079
:101A2300E0FBD0E0FA221217D360461217C4603DE0
:101A3300E9687008F618F618F618F622748067F746
:101A4300121A5D090909748067F7221217C4601D11
:101A53001217D37005191919801A12179C701F12C7
:101A630017B0C37003E6673319191940071818181C
:101A73002208080874FFF618F618F618F62212174B
:101A8300B06017121793702192F012178A701950D1
:101A93001720F014080808090909E7F61819E7F6EA
:101AA3001819E7F61819E7F62212178A60E6E869AB
:101AB300701F0808E62480F608E436F618547FB44D
:101AC3007F0CE654806007F6E418F618F62218181F
:101AD30022E9C6CC08C6CD08C6CE08C6CFC0E0E80A
:101AE300C0E0EAC0E0EBC0E009E9F809E7FA09E77A
:101AF300FBE6F918E6F8C3EC98ED99EE9AEBC2E72A
:101B0300F5F0EFC2E795F0500E600CEBCFFBEACE99
:101B1300FAE9CDF9E8CCF8EAA2E7D2E7FAEB33FB2E
:101B230013F5F0EEA2E7D2E7FEEF33FFC5F013A201
:101B3300E730E601B313C5F0C3C0E0C0F07F00C3D4
:101B43009BFB605E9418600F401D14601AD0E02365
:101B5300F9D0E0F8021C2F8AF0E9486003D2F0E4E0
:101B6300AFF0FAF9F8803BEB30E40D89F0EA60035B
:101B7300D2F0E4AFF0F9CAF8EB30E30D88F0EF6090
:101B830002D2F0AFF0E4CAC9F8EB54076014FBC308
:101B9300EA13FAE913F9E813F8EF135002D2E0FF5E
:101BA300DBEDD0E0C0E030E739C3E49FFFF5F0ECB4
:101BB30098FC42F0ED99FD42F0EE9AFE42F0D0E03F
:101BC300F9D0E0F8E5F0607AE923F9EE20E742D8AE
:101BD300028067C3EF33FFEC33FCED33FDEE33FEDE
:101BE30080EAEC28FCED39FDEE3AFED0E023F9D093
:101BF300E0F84002801BC3EE13FEED13FDEC13FC73
:101C0300EF135002D2E0FF08B800067F7F74FF8015
:101C13002EEF3350178CF020F00260100CBC000C38
:101C23000DBD00080EBE000408E860DFE933E813C9
:101C3300FFEE2313FE4F4D4C8008E95480FFE4FE72
:101C4300FDFCEE33EF33F47004FCFD7E80D0E0FB4B
:101C5300D0E0FAD0E0F8D0E0CFC618CEC618CDC693
:101C630018CCC6F9221217C47004181818221217B8
:101C7300D3700D74FFF61819F61819F61819F62211
:101C8300E7548066F612178A700F12179370F014D8
:101C9300F608F608F608F680D1121793700CF608CA
:101CA300F608768008E6447F80EC1217B3700C12B6
:101CB300179F60BFE65480F6E480BB12179F700540
:101CC30019191980A5E869700C763F18768018F603
:101CD30018F6E8F922E6CDC0E018ECC0E0E633CD13
:101CE30033CDD313F6E719FCE7191933CC33C39477
:101CF3007F400ECD9D502408E65480F6E418F6800C
:101D03000FF4043D14501408E6447FF6187680E47B
:101D130018F618F6D0E0FCD0E0FD22CCD313CCFDAE
:101D230018E4C6CBC0E018E4C6CAC0E00808ED0852
:101D3300C633E613F618E433C675F003C3CA97CA6D
:101D430009CB97CB199C40047D08802EBD0003026C
:101D53001E1116B6FF050606081618C3CA33CACBEA
:101D630033CB33CA27CA09CB37CB193CC37D088091
:101D73003E187D0820E75CC633C6CA33CACB33CBD3
:101D830033DDF1D5F0EB30E77BCA97CA09CB974A2D
:101D9300CB199C406F4B7025E620E0218066187DAF
:101DA30008C3CA97CA09CB97CB199CD3C633C6CAF3
:101DB30033CACB33CB3350C9DDE7D5F0E1D3E4C627
:101DC30036C608C636C608C636C608C636C6181886
:101DD300188031C3CA97CA09CB97CB199CB34097D4
:101DE300C633C6CA33CACB33CB33DD34D5F02EC6A4
:101DF300A2E0C640C8CA27CA09CB37194A70BECB6E
:101E03003CB480B90808E63308E633601F18181895
:101E1300D0E0FAD0E0FBD0E0FCD0E0FD22187D0852
:101E2300CA27CA09CB37CB193CD3808013F618E4F1
:101E3300B67F11F618B6FF0EF618C60470D208085E
:101E4300768080CAF618F618F680C5080808EAC036
:101E5300E0EBC0E086F0E7A4FA180986F0E7A42ACD
:101E6300FA180986F0E7A42AFA180986F0E7A42AE3
:101E7300FA1986F0E7A4FBE5F02AFA190886F0E7D9
:101E8300A42BFBE5F03AFA190886F0E7A42BFBE54F
:101E9300F03AFA18180986F0E7A4C5F02BFBE43AE8
:101EA300FA1908E7C5F0C6A426F6E5F03BFBE43AC9
:101EB300FA1886F0E7A4F6E5F00826F6E43B08F600
:101EC300E43A08F6D0E0FBD0E0FA22E4CFC0E0E445
:101ED300CEC0E0E4CDC0E0E4CCC0E075F020E6265F
:101EE300F608E633F608E633F608E633F61818186C
:101EF300EC33FCED33FDEE33FEEF33FFC3EC970918
:101F0300ED9709EE9709EF97191919400FFFEC9711
:101F1300FC09ED97FD09EE97FE191906D5F0BFEC04
:101F2300F709EDF709EEF709EFF7191919D0E0FCF6
:101F3300D0E0FDD0E0FED0E0FF22181818E4C396ED
:101F4300F608E496F608E496F608E496F622601698
:101F5300080808C6C313C618C613C618C613C6187E
:101F6300C613C6D5E0EA22700908080822601618CD
:101F73001818C6C333C608C633C608C633C608C650
:101F830033C6D5E0EA22E627F60809E637F608095C
:101F9300E637F60809E637F622E026F608A3E03628
:101FA300F608A3E036F608A3E036F622E026F008AA
:101FB300A3E036F008A3E036F008A3E036F022C32E
:101FC300E697F60809E697F60809E697F60809E69C
:101FD30097F622C3E096F008A3E096F008A3E096F4
:101FE300F008A3E096F022E056F608A3E056F608C0
:101FF300A3E056F608A3E056F622E056F008A3E065
:1020030056F008A3E056F008A3E056F022E0F608E5
:10201300A3E0F608A3E0F608A3E0F622E6F008A39F
:10202300E6F008A3E6F008A3E6F022E0FAA3E0FB5B
:10203300A3E0FCA3E0FD22E0F8A3E0F9A3E0FAA308
:10204300E0FB22E8F0A3E9F0A3EAF0A3EBF022CA55
:10205300C0E0E6F0A308DAFAD0E0FA22CAC0E0E072
:10206300A3C582CCC582C583CDC583F0A3C582CC6D
:10207300C582C583CDC583DAE6D0E0CA22C3E4981E
:10208300F8E499F91220C18026C3E49AFAE49BFB91
:10209300E920E7E91220C1E498F8E499F922C3E4BE
:1020A30098F8E499F91220C1E498F8E499F9C3E4A3
:1020B3009AFAE49BFB22EB20E7CFE920E7E0B900A3
:1020C30010BB0008E88AF084F8AAF022E4FBC8FAFF
:1020D30022EB70227B10C833C8C933C9335007C3FE
:1020E3009AC3DBF280069A50012ADBEAC833F4C8AC
:1020F300C933F4C9FA2275F008E4C833C8C933C92F
:1021030033C99AC99B5004C92AC93BD5F0ECFBC813
:1021130033F4C8E4C9FA22600D08C6A2E713C6184F
:10212300C613C6D5E0F322600C08C6C313C618C68F
:1021330013C6D5E0F422700422600D18C6C333C65B
:1021430008C633C6D5E0F41822251810AF08F518D1
:10215300400C15198008F51840021519D2AF22005A
:10216300C0D0251810AF08F518500C05198008F5D4
:102173001850020519D2AFD0D0222518F58210AF1E
:1021830008F518400C15198008F51840021519D2E6
:10219300AF851983222518F582E43519F5832225A5
:1021A30018F8E43519F9222518FAE43519FB222524
:1021B30018FCE43519FD22E4732518C582C0E0E557
:1021C3001934FFC583C0E0E518C3958224F810AF26
:1021D300088583198582188008858319858218D21A
:1021E300AFCEF0A3E520F0A37808E608F0A3DEFA6B
:1021F300EFF0A3E58124FAF8E608F0A3E608F0A3DC
:10220300E608F0A30808E608F0A3E608F0A31581A2
:102213001581D0E0FED0E0F8158115811581E8C065
:10222300E0EEC0E0222518C582C0E0E51934FFC501
:1022330083C0E0E518C3958224F910AF088583199C
:102243008582188008858319858218D2AFCEF0A3C2
:10225300E520F0A37808E608F0A3DEFAEFF0A3E5A3
:102263008124FBF8E608F0A3E608F0A30808E608D3
:10227300F0A3E608F0A315811581D0E0FED0E0F8C5
:1022830015811581E8C0E0EEC0E022851983851829
:1022930082E0A3FEE0A3F5207808E0A3F608DFFAC6
:1022A300E0A3FFE0A3C0E0E0A3C0E0E0A3C0E0E060
:1022B300A3C0E0E0A3C0E010AF08858218858319AE
:1022C3008008858218858319D2AFD083D08202011A
:1022D3001F851983851882E0A3FEE0A3F520780803
:1022E300E0A3F608DFFAE0A3FFE0A3C0E0E0A3C0A9
:1022F300E0E0A3C0E0E0A3C0E010AF08858218854A
:1023030083198008858218858319D2AFD083D08240
:1023130022C0D02518C582C0E0E51934FFC583C0AB
:10232300E0E518C3958224F310AF088583198582ED
:10233300188008858319858218D2AFC8F0A3E9F005
:10234300A3EAF0A3EBF0A37908E709F0A3D8FAEC2A
:10235300F0A3EDF0A3EEF0A3EFF0A3D0E0F0A3D051
:10236300E0F0A3D0E0F0A3E520F0A3E5F0F0A32292
:10237300851983851882E0C0E0A3E0F9A3E0FAA3FE
:10238300E0FBA37808E0F608A3DFFAE0FCA3E0FD96
:10239300A3E0FEA3E0FFA3E0C0E0A3E0C0E0A3E06E
:1023A300F5D0A3E0F520A3E0A3F5F010AF088583F3
:1023B300198582188008858319858218D2AFD08247
:1023C300D083D0E0F8D0E032740480067402800237
:1023D3007401C0E0F40412217DD0E0122052227473
:1023E30004800474028000CCC0E0EDC0E0E518C3B3
:1023F3009CCCAD1950011D10AF068C188D198006A9
:102403008C188D19D2AF12205FD0E0FDD0E0FC22F2
:10241300D083D082E9C0E0E493A3C386F0C5F095EE
:10242300F0F908E493A386F0C5F095F0700BE493FC
:10243300A3C3994005E9048002A3E475F002A4252F
:1024430082F582E5F03583F583D0E0F9E493A3C008
:10245300E0E493C0E022D083D082ECC0E0EDC0E0A2
:10246300E493A3FCE493A3FDED4C600D1224A5ECCF
:1024730024FFFCED34FFFD80EFE493A3FCE493A37E
:10248300FDED4C600D1224E4EC24FFFCED34FFFD64
:1024930080EFD0E0FDD0E0FCE493A3C0E0E493C080
:1024A300E022C0E0C3E49396087401939618400FAA
:1024B300E49366700808740193661870007019A39A
:1024C300A3C3E49396087401939618A3A3400DD075
:1024D300E0D0E0D0E0022495A3A3A3A3A3A3D0E07C
:1024E30022C0E0C0F088F0E493667008087401939A
:1024F30066187000A8F0A3A3700BD0F0D0E0D0E072
:0C250300D0E0022495A3A3D0F0D0E02289
:1025100074F6122228EAFEEBFF8C088D09EE2434B3
:10252000F8E43FF9E8FCE9FD122643E0FAEE24372F
:10253000F582E43FF583E0F88508F0A4C885F00A49
:102540008509F0A4250AF9EA28F8E439F97A257B07
:10255000001220C1EA8C828D83F0FA131313541FEA
:10256000F8EE28F8E43FF9E8245DF582E439F583D4
:10257000E0C0E074075AF8D0E0B800028004C3134A
:10258000D8FCA2E05003EA8020EE2436F582E43F36
:10259000F583E0F5F0EA84A8F0EE28F8E43FF9E8E6
:1025A0002438F582E439F583E0F97F030222D474FC
:1025B000F5122228EAFEEBFFEE2434F582E43FF523
:1025C00083E0C0E0122643D0E0F08E828F83A3A385
:1025D000A3A3A3E0FAA3E0FB8E828F83A3A3A3A30C
:1025E000A3A3A3E0FCA3E0FDECC39AF50AED9BF5E1
:1025F0000BEE247FF508E43FF509850882F583E0BA
:102600006401702AEE2480F582E43FF5831223E60C
:1026100012264D7402122162E960137CB07D04EE33
:10262000FAEFFB120CEB850882850983E4F0AC0A13
:10263000AD0BEEFAEFFB122510E9F9122EAB7F0479
:102640000222D4EE2435F582E43FF58322C082C015
:1026500083851882851983E0F8A3E0F9C3EA9CEB2F
:102660009D5010C3EC98ED99401BC3EA98EB99502C
:1026700014800EC3EA98EB994007C3EC98ED99409B
:1026800004790180027900D083D08222EAC39CFAC7
:10269000EB9DFB2274ED122228900376E064086023
:1026A00005E06407702C9061C8E060269003A4E008
:1026B000F874FF68601CE875F00AA4C8AAF02AF94B
:1026C00074A628FE740339FF8E828F83A3A3A3E030
:1026D0007005790002282DEE2468F50EE43FF50F11
:1026E000906060E0850E82850F83F0751020751173
:1026F00005750800750900E5D914F50AE5D95403F4
:10270000F50B601FEE2482F50CE43FF50D740365B4
:102710000B6059E50A6017EE2467F582E43FF58304
:10272000E0700B793DEEFAEFFB120D1B80A49005D3
:102730001BE064016023850C82850D83E060047AD0
:102740000480027A00E50AC39AFA95E0FB120B773F
:102750008A088B09EA45097006120F730226D28592
:102760000C82850D83E070048A108B117A0080142E
:10277000E5D9C0E0EAF8E51028F582E43511F583E3
:10278000D0E0F00AEAC3950A40E6850C82850D8305
:10279000E0602874FC250AF50A78101223CFAC0AF1
:1027A000A90BEEFAEFFB120DC97402122162E97057
:1027B0000AAA08AB091214470227237403650B60A9
:1027C00054850A0C750D00780C1223CFAC10AD1196
:1027D000AA08AB09120D8D7402122162850E828542
:1027E0000F83E0F87480687005750C7F8002880C98
:1027F000E50CF50D780D1223D3780B1223D3A90A1B
:10280000AC08AD099003A4E0FA7B001209AF740292
:102810001221628013900376E06408600BAC10AD67
:1028200011EEFAEFFB120E5F120F7F79017F0C029F
:1028300022D474F312222874FC12214CEAFEEBFF1E
:102840008909A2AFE433F508C2AFEE2463F50AE4C8
:102850003FF50B8010AA0AAB0B120D4512144790DE
:1028600004B7E004F0850A82850B83E0F8A3E0F961
:10287000E849602DE82402FAE439FBEA2402F50C69
:10288000E43BF50D780C1223CF8A828B83E0FCA306
:10289000E0F9EEFAEFFB120D397402122162E960E1
:1028A000B49004B7E0604D9004B8E0F89004B7E04D
:1028B000C398500C74026509703A9004B9E0603412
:1028C0008E828F83A3A3A3A3E08518828519831228
:1028D00029047402122198E81229049004B6E02811
:1028E000F074021221B2AA18AB197901120A0390EE
:1028F00004B7E4F0E508A2E092AF74041221627F0D
:10290000060222D4F0A3E4F09004B7E0F82200001D
:102910008521878522C622C0E074EB122314A2AF62
:10292000E433F508C2AF759B00906182E0A2E050ED
:1029300030E591A2E0502A7591FE74016521702165
:10294000122AAA120EB9122A981223E2122C5574D6
:1029500004122162E9640170057901120F07122641
:1029600094906182E0A2E5505DE591A2E550577533
:1029700091DF900376E064076005E06408702F1231
:102980002AAA74016521703E120EB9122A981223E8
:10299000E2122C557404122162E964017005790178
:1029A000120F077901EEFAEFFB1228328018E0646B
:1029B0000D7013900398E004F064287002E4F07A3C
:1029C00000E0F9120F85906182E0A2E64003022A3E
:1029D0006DE591A2E64003022A6D7591BF900376E2
:1029E000E064057008120EA1120EAD8003120EA74E
:1029F000752100120F13E9900377F07900120F0789
:102A0000120C557A017B00900375E0F912141790AF
:102A10007803E06442705690051FE014F0704EC2D7
:102A2000AF122A2400782AD0E0F618D0E0F6E59F0D
:102A30005407F87005750DFF8003750D7FC4C0E065
:102A40007829E6F50A08E6550DF50B740B780A129D
:102A5000212AD0E0250AF8906270E0A2E740F8E869
:102A6000C333906272F0906270E0D2E0F0906181C6
:102A7000E0A2E35009E5E9A2E3500375E9F7A3E01A
:102A8000A2E75009E591A2E7500375917FE508A2FE
:102A9000E092AF7F080223738E828F83E0F8A3E079
:102AA000C82416F582E438F583229003A4E0F87573
:102AB000F00AA4C8AAF02AF974A628FE740339FF04
:102AC00022C0E0C0D0C082C083906183E0A2E05009
:102AD00009E5BFA2E0500375BFFEE0A2E15009E5A1
:102AE000BFA2E1500375BFFDE0A2E25009E5BFA21D
:102AF000E2500375BFFBE0A2E35009E5BFA2E3503B
:102B00000375BFF7E0A2E45009E5BFA2E4500375E6
:102B1000BFEFE0A2E55009E5BFA2E5500375BFDFB6
:102B2000E0A2E65009E5BFA2E6500375BFBFD0831F
:102B3000D082D0D0D0E032C0E074F2122314E5A7E6
:102B4000A2E4500FE5A1A2E4500953A7EF75A1EF4D
:102B5000122B8BE5A7A2E5500CE5A1A2E550065388
:102B6000A7DF75A1DFE5A7A2E15009E5A1A2E15029
:102B70000375A1FDE5A7A2E2500CE5A1A2E2500673
:102B800053A7FB75A1FB7F0102237374F81222285F
:102B9000752101900376E0640670077A007B0012CD
:102BA0000E89A2AFE433FED2AF90037CE0640170E3
:102BB000187A207B00900375E0F912152B7A207BA0
:102BC00000900375E0F912141D906182E0D2E6F0E6
:102BD00090051CE0602185C622801690037BE0648E
:102BE000017008E5C654F84405F5C653BEFC122929
:102BF000107401652160E4EEA2E092AF7F01022231
:102C0000D40000008E238F24858228858327851891
:102C100082851983E0CEA3E0CF852882852783EBC8
:102C2000C9EAC8EDCBECCA75F010C3E833C8E93384
:102C3000C9EA33CAEB33CBC3EA9EF526EB9FF525F1
:102C4000B35004AB25AA26EC33CCED33CDD5F0DA66
:102C5000AE23AF242274F11222288A088B098C0A31
:102C60008D0B90910C7808121FEA740F122198783E
:102C70000C12201090910C780C121FEA7808790C35
:102C800012164490910450107808790C121FC278E3
:102C9000081216644014800E780C7908121FC2784E
:102CA0000C12166450047901800279007F08022218
:102CB000D474ED1222288A088B098C0A8D0B90910E
:102CC0000C7808121FEA7413122198780C12201045
:102CD00090910C780C121FEA780C79081216444077
:102CE000117808790C121FC2AA08AB09AC0AAD0B07
:102CF000802275100075110075120075130178108F
:102D0000790C121FC278107908121F89AA10AB1112
:102D1000AC12AD137F0C0222D490910C78081220D3
:102D2000108A828B837808121FFD7F040222D474DC
:102D3000F51222288C828D8378081220108A828BCB
:102D4000837808121FD6122D83C3E098F0A3E09970
:102D5000122D75401E90910878081220108A828BDF
:102D6000837808121FAF8E828F83E02420F0A3E0C7
:102D7000344EF080A4F08E828F83C3E09420A3E0D1
:102D8000944E22EA2404F8E43BF9E8FEE9FF8C8241
:102D90008D83A3A3A3A3E0F8A3E0F98E828F8322FF
:102DA00074F5122228E9FE9004D2E0FAA3E0FBEECB
:102DB00029F8E433F9748E28F582748F39F583E0AD
:102DC0002AF508A3E03BF50978081223CF9090F08C
:102DD00012202E122C0474021221628A088B098C94
:102DE0000A8D0B74107808121F51AA08AB097F04D2
:102DF0000222D474F11222288A0C8B0D8C0E8D0FB6
:102E000074111221981223E67411122198E0240102
:102E1000F508A3E03400F509E4F50AF50B780C7920
:102E200008121E4E9091587808122010780C7908DC
:102E3000121E4EAA0CAB0DAC0EAD0F122C04740278
:102E40001221628B09EA450960047A0180027A0046
:102E5000EC2AFCE43DFD7413122198E0F8A3E0F99C
:102E6000E8FEE9FFECF8EDF97A717B021220C188E7
:102E7000088909E4F50AF50B8E828F837808122001
:102E80001FECF8EDF97A717B021220C18A088B09D8
:102E9000740578081221398E828F83A3A3A3A3E53A
:102EA00008F0A3E509F07F080222D4C082C083E9BC
:102EB000906000F0D083D08222C0E074F21223141C
:102EC000A2AFE433FED2AFC2C0E5D1A2E450067592
:102ED000D10F121375EEA2E092AF7F01022373C0EF
:102EE000E074F2122314A2AFE433FED2AFE589A25C
:102EF000E04006E589A2E150031212C7758900750A
:102F00008900C2C5EEA2E092AF7F01022373C0E048
:102F1000C0D0E8C0E0E9C0E0A9A8D2AFC2C7E9A22A
:102F2000E7E433F8E9A2E792AFD0E0F9D0E0F8D0D7
:102F3000D0D0E032C0E0C0D0E8C0E0E9C0E0EAC0F4
:102F4000E0C082C083A2AFE433FAD2AF9009BFE001
:102F5000F8A3E0687008539AFBA374018022C2E9C9
:102F60009009BFE0F8740128F0743F28F582E4343A
:102F700009F583E0F5C19009BFE0C394804002E405
:102F8000F0EAA2E092AFD083D082D0E0FAD0E0F9AC
:0E2F9000D0E0F8D0D0D0E032C2AF0200002274
:102FA000FFFFFFFFFFFFFFFFC082C083E99017FD17
:102FB000F0D083D08202011F74F61221BCE9900286
:102FC000E8F0900348E0F5087509007402780812EB
:102FD0002139AA08AB091214899002E912396B90C1
:102FE00002E9123D58606F900348E075F003A4FABF
:102FF000ABF012148990030612396B900306123D50
:1030000058700B9002E9123D2912148F80489003EA
:1030100006124CBD7AFF7BFF1212377A0080198AA4
:10302000087509007402780812213912476574FF87
:1030300012316BE4F0A3F00A900348E0F8EAC39879
:1030400040DD790512089B9002E8E0F91207877AC3
:10305000257B09120B1702480874F41221BC8A0858
:103060008B09EB548060479002E8E0F91213FF8A65
:103070000A8B0BAE0AAF0BEE4F602A8E828F83E075
:1030800064B0701A1208ADE960148E828F83A3A316
:10309000A3A3E0F9EE2405FAE43FFB12087DEEFA63
:1030A000EFFB1213EDAA08E5096480FB80047A00A7
:1030B0007B000232BB74F21221BC74FB12214CEA79
:1030C000FEEBFFEE4F60457403122198EEF0A3EF84
:1030D000F0851882851983ECF0A3EDF074021221BB
:1030E00098E9F0AA18AB19120781E9F50870757410
:1030F00013122198E0F50AA3E0F50BE50A450B60F1
:10310000638E828F831236F4EE4F7005750802804D
:10311000537A067B001214898A0C8B0DA80CA90D1A
:10312000E8497005750813803B88828983E4123171
:103130006BEEF0A3EF123287E50AF0A3E50BF090F7
:1031400002EC1232809002EC6017E0FCA3E08003F6
:10315000EAFCEBFD8C828D8312328070F38C828DC1
:1031600083124380A9087405024F3DF0A3124C9FBF
:10317000A32274F21221BC8908890C750D00740316
:10318000780C122139850C0A850D0B9002EBF0901A
:1031900002E912418B12327E602E12148F79008068
:1031A0001D890C750D007402780C1221399002E90A
:1031B0001246248882F583A3A3E4F0A3F0099003C8
:1031C00048E0F8E9C39840D9900348E0FA850AF04E
:1031D000A4CAA8F0850BF0A428FB1214898A0C8BD2
:1031E0000DAE0CAF0DEE4F7003023274900348E049
:1031F000FC850AF0A4CCA8F0850BF0A428FD79008A
:103200001213D57C0080318D0C750D007403780C81
:103210001221398A828B8312327988828983E4F081
:10322000123286A3A3F0A3F00DEDC3950840D8EEAB
:10323000250AFEEF350BFF0C900348E0F8ECC3982D
:1032400050288C0C750D007402780C1221399002F4
:10325000E9123279E82402500109FAE9FB8A828BEB
:1032600083EEF0A3EFF07D0080BFE5089002EBF065
:10327000790080027913024F40124628F922A3A355
:10328000123D2DEA4B22A3124C9FA3A3A32274F458
:103290001221BC7900EAA2E0501F7508D875099088
:1032A00078081223CF79107C047D007AFF7B1712F7
:1032B00008957402122162E9F980007F0402228ECF
:1032C000C082C0839002EC123D58601C88828983C2
:1032D000A3A3E06A7003A3E06B8882898370E8A3EC
:1032E000A3A3A3123D2980047A007B00022FB174AE
:1032F000F21221BC74FD12214CEAFEEBFF8518820C
:10330000851983E4F0A3F074021221987401F0127D
:103310003D557014120A511214899002EF12396B44
:10332000123D557003023481123A6BEE2404F50A03
:10333000E43FF50B850A82F583E024FE603C24FC23
:10334000607424FE607E24FE70030233D124FE707C
:10335000030233DE24FE70030233EB24FE7003020B
:1033600033F824FE700302340524FC700302342673
:1033700024FE700302343E02347A120A519002F1A4
:10338000EAF0A3EB12348D1204C9E9600302347A27
:103390009002F11223E68E828F83A3A3A3A3A3122C
:1033A0004CBD850882850983123D29120865740287
:1033B00012216202347AAC18AD19EEFAEFFB120852
:1033C000B3023449AC18AD19EEFAEFFB1208B9801C
:1033D00078AC18AD19EEFAEFFB1208BF806BAC1891
:1033E000AD19EEFAEFFB1208C5805EAC18AD19EE10
:1033F000FAEFFB1208CB8051AC18AD19EEFAEFFBD7
:103400001208D1804474021221A2880C890D780C14
:103410001223CF74021221B2EEFAEFFB1208D77416
:10342000021221628023AC18AD19EEFAEFFB1208EC
:10343000DDE9F870167402122198E4F0803CAC18B3
:10344000AD19EEFAEFFB1208E3E9F8E8602C8E8282
:103450008F83A3E064146022850A82850B83E09049
:1034600002F1F0851882851983123D299002F2122B
:10347000396BE8A312348D1204C3EEFAEFFB120885
:103480003B7402122198E0F97403024F3DF07CF185
:103490007D02850882850983123D2D2274E8122160
:1034A000BC74FA12214C7404122198ECF0A3EDF0D4
:1034B0008A128B13EA2405F50EE43513F50FEA247E
:1034C00002F510E43513F511851082F583123D29BC
:1034D0001205B98A0A8B0B7508007C037D00790000
:1034E0007AF17B021213D5E50E2402F516E4350FAE
:1034F000F51774021221A2880C890D780C1223CFC3
:10350000850E82850F83A3A3A3A3E0F50C750D00A0
:10351000780C1223CFE50E2405F50CE4350FF50DDC
:10352000780C1223CF85168285178312403012073C
:103530009F74061221628A0C8B0DE50C450D7003F9
:103540000236BD8020851882851983E088828983B0
:10355000F00508851882851983A3E0C0E01236FEC5
:10356000D0E0F00508E50A24FBFAE50B34FFFBC3C5
:10357000E5089AE49B40030236BD7E007F00851279
:1035800082851383A3A3A3A3E0F50978091223D3AB
:10359000E4F514F51578141223CF7514EE751502A1
:1035A00078141223CF9002EF1223E67409122198A7
:1035B0001223E6E50A24F9F9AC0CAD0D85108285DD
:1035C0001183123D2912090D7409122162E9600369
:1035D00002365E850E82850F83A3A3A3A3A3A3A3B4
:1035E000E0F89002EEE0687075E0F5148E1578143E
:1035F0001223CF124CBA850E82850F83A3A3A3A3F7
:10360000A3A3A3A3123D291213CF7402122162E9CE
:10361000604C9002F2123D58703BE4F5147814129D
:1036200023CF7CFF7DFF7907851082851183123DB2
:10363000291208777402122162123D5E7017850EFE
:1036400082850F83124E5774041221981247181264
:1036500040610236F1850C82850D831236F4A8187C
:10366000A9198814891578141223CF74041221988B
:103670001223E68516828517831239611207AB740F
:10368000041221628A0C8B0DEE4F700302353A1240
:1036900036FEEE123709124017EF123709F8A3E091
:1036A0003400F9E50C450D600302354588828983B5
:1036B00074FFF005081236FE74FFF00508E5086097
:1036C0001A1313543F1239711204D5E9600990029C
:1036D000F2123D2912144779008016850E82850F5B
:1036E00083124E577404122198124718124380799E
:1036F0000A023FEAA3A3A3A3E0FEA3E0FF22A808D7
:103700009002F2E02812401722F00508089002F219
:10371000E0282274E81221BC74FA12214C740212BF
:10372000219812396B7404122198ECF0A3EDF07417
:1037300002122198E02405124000E0F50CA3E0F508
:103740000D7402122198E02402F510A3E03400F574
:1037500011851082F583123D291205B9750800758F
:103760000900EA24FCFEEB34FFFF8008050CE50CA1
:103770007002050DA808C3EE98EF940050030239BB
:103780001DA818A919880E890F780E1223CF851449
:1037900082851583A3A3A3A3124CC11223CFE514E2
:1037A0002405F50EE43515F50F780E1223CF851498
:1037B0008285158312395F12079F74061221628A6F
:1037C0000E8B0FEA450F700302391DEA2404F5162B
:1037D000E4350FF517851682F583E0F50CA3E0F5C7
:1037E0000D851882851983124CBD8A828B83A3A311
:1037F000A3E0F9851082851183123D2912078DE916
:10380000F509600302391D7402122198124027F550
:103810000978091223D3E4F512F51378121223CF95
:103820007512EE75130278121223CF9002EF122355
:10383000E674071221981223E6EEF9AC0EAD0F855F
:103840001082851183123D2912090D74091221621B
:10385000E9F509600302391DE508703FE4F50EF54E
:103860000F780E1223CF7CFF7DFF790985108285AA
:103870001183123D29120877740212216212404D01
:10388000700D740412219812395479110239519033
:1038900002EEE024029002F2F080149002F2E0FACC
:1038A0009002EEE0790024025001096A497072A882
:1038B000089002EEE0FAE82AFAE43400FBEE9AEF10
:1038C0009B405A851682851783E0C0E09002F31270
:1038D0003703D0E0F00508851682851783A3E0C082
:1038E000E0089002F3123703D0E0F005089002EEF2
:1038F000124CC11223CF124CBAA808123FF4121373
:10390000BD74021221629002EEE02508F50874FFF2
:10391000650C700474FF650D600302376CE5086088
:103920001F9002F2E0F5F0E508841239711204DB11
:10393000E960099002F3123D2912144779008011C1
:10394000E509700375090A7404122198123954A903
:1039500009023FEA12418FE50CF0A3E50DF022A326
:10396000A3124F4CAA0CAB0D22A3A3EAF0A3EBF0D9
:10397000229002F1F07CF17D028510828511831284
:103980003D2D2274EC1221BC74FC12214C12449087
:1039900074021221B2123D231207A58A0C8B0DEA84
:1039A000450D7003023A5B123A6BA818A9198810EA
:1039B000891178101223CF7CFF7DFF790B85088257
:1039C000850983123D291208777402122162123B85
:1039D00061700C850A82850B8312405E023A688E04
:1039E000828F83A3A3A3A3E0F51278121223D3E45A
:1039F000F512F51378121223CF7512F175130278B0
:103A0000121223CF78101223CF7409122198122397
:103A1000E67409122198E0F9AC0CAD0D8508828599
:103A20000983123D2912090D7409122162E9FE7001
:103A3000157CF17D02850882850983123D291204D7
:103A4000E1E97009802074166E70027E009002F227
:103A5000123D29121447EE7004800B7E01850A8204
:103A6000850B8312437DEEF9024392EE2402F508A2
:103A7000E43FF5092274EC1221BC74FC12214CEADB
:103A8000FEEBFF8C0E8D0FEE2405F508E43FF509E3
:103A900074021221B2850882850983123D2912071A
:103AA000A58A0C8B0DEA450D7003023B51EE2402F2
:103AB000F50AE43FF50BA818A919881089117810A8
:103AC0001223CF7CFF7DFF790D123D2312087774FE
:103AD00002122162123B61700B85088285098312F4
:103AE000405E807A8E828F83A3A3A3A3E0F5127831
:103AF000121223D3850882850983A3A31223E675B6
:103B000012F175130278121223CF78101223CF749A
:103B1000091221981223E67409122198E0F9123D46
:103B20001F12090D7409122162E9FE700F7CF17DEC
:103B300002123D231204E7E97009802074166E70AA
:103B4000027E009002F2123D29121447EE700480AA
:103B50000B7E0185088285098312437DEEF90243BD
:103B600092123D68F510A3E0F511EA45112274E8C0
:103B70001221BC74FE12214C8A168B178C148D15E1
:103B8000EA2405F50CE43517F50DEA2402F50EE4F8
:103B90003517F50F850E82F583123D291205B98A76
:103BA000088B09750B007C037D0079007AF17B029C
:103BB0001213D5750A00E50814F5100424FFF50862
:103BC000E50934FFF50980549002F1E0FA9002EE25
:103BD000E0F8EA28F8E43400F9E50898E509995096
:103BE0000D9002F1E0F8E510C3989002EEF0E0F5D8
:103BF0001275130078121223CF124CBA9002F2E021
:103C00002AFAA3E03400FB1213BD74021221629061
:103C100002EEE0F89002F1E028F0050A850C8285BA
:103C20000D83A3A31246344003023D049002F1E049
:103C3000C39508E495094003023D04AE0AEE2EFE4A
:103C4000E433FF123D43AC18AD19124CD5E439FBF7
:103C50001207A58A128B13AC12AD13EC4D701B75B5
:103C60000B01123D331243819002F2123280600345
:103C7000121447A90B7402023FEC85168285178344
:103C8000A3A3A3A3E0F50B780B1223D3E4F512F55D
:103C90001378121223CF7512EE75130278121223C5
:103CA000CF9002EF1223E674071221981223E6A99F
:103CB00010850E82850F83123D2912090D74091299
:103CC0002162E9F50B709B9002F2123D58600302ED
:103CD0003BC8E4F512F51378121223CF7CFF7DFF69
:103CE000790F850E82850F83123D291208777402A1
:103CF000122162123D5E6003023BC8123D33124046
:103D000062023C757CF17D02850E82850F83123D37
:103D1000291204EDE96003023C687900023C75ACAD
:103D20000CAD0D850A82850B83123D2D22E0FAA38E
:103D3000E0FB22123D43E0FAA3E0F9EA8514828514
:103D4000158322850C82850D83E02EF8A3E03FF9D0
:103D500088828983229002EF124E5BE84922123D4D
:103D600068F8A3E0F9E849229002F2EAF0A3EBF048
:103D70009002F2E02274E81221BC74FA12214C7411
:103D80000412219812396B8C168D17740412219825
:103D9000E02405F50EA3E03400F50F740412219819
:103DA000E02402124000123D291205B98A0A8B0B49
:103DB0007F007E00A818A9198808890978081223AD
:103DC000CF850E82850F83A3A3A3A3E0F5088E09F8
:103DD00078081223CFE50E2405F508E4350FF50920
:103DE00078081223CF850E82850F83A3A31240305B
:103DF00012079F74061221628A0C8B0D80291240D3
:103E000021F00F124021F00F9002EE12436C1223AA
:103E1000CF124CBAEFF8123FF41213BD7402122104
:103E2000629002EEE02FFFE50C450D7003023EB0FC
:103E30008518828519831244A2A3A3A3E0F98514EF
:103E400082851583123D2912078DE9FEE50C2404B5
:103E5000F510E4350DF511EE70507404122198122E
:103E60004027F50878081223D3E4F508F509780807
:103E70001223CF7508EE75090278081223CF90023D
:103E8000EF1223E674071221981223E6E50A24FABA
:103E9000F9AC0CAD0D851482851583123D291209EC
:103EA0000D7409122162E9FE603912403D1243800F
:103EB000EF7003023FD79002F2E0F5F0EF8490023A
:103EC000F1F07CF17D02851482851583123D291263
:103ED00004F3E960099002F3123D291214477900B6
:103EE000023FEA8F08EF703BE4F512F513781212E7
:103EF00023CF7CFF7DFF7911851482851583123DC8
:103F000029120877740212216212404D7009124082
:103F10003D124061023FEA9002EEE024049002F27A
:103F2000F080359002EEE0F89002F2E0FAE8240426
:103F3000FCE43400FDEC6A4D6003023EB6E50A2461
:103F4000FAFAE50B34FFFBE50828F8E43400F9EA57
:103F500098EB995003023EB6851082851183E0C02C
:103F6000E09002F3E02FF8A3E034008882F583D0DC
:103F7000E0F00F851082851183A3E0C0E012400EAF
:103F8000D0E0F00F74021221A28808890978081283
:103F900023CF74021221981223E6850E82850F83A7
:103FA00012395F1207AB74041221628A0C8B0DEA7E
:103FB000450D7003023DFE7402122198E0C0E0122C
:103FC000400ED0E0F00F7402122198A3E0C0E0127E
:103FD000400ED0E0023E06EE70027E0A850E82851B
:103FE0000F83124043124380EEF974061221627F60
:103FF0001002228E9002F3E028FAA3E03400FB22A4
:10400000F514A3E03400F515851482F583221240DF
:1040100012229002F3E02FFAA3E034008A82F583A3
:104020002212401274FF2212418FA3A3A3A3E02205
:10403000124F4C850E82850F83123D2D22851082F2
:10404000851183124E5B851682851783229002F3B9
:10405000EAF0A3EBF09002F3124E5BE84922124320
:1040600086E8F0A3E9F079112274EA1221BC74FE0B
:1040700012214C8A088B098C128D13EA2405FEE468
:104080003509FFAC18AD198E828F83123D291207B6
:10409000A58A0C8B0DEE2406F50EE43FF50FEA45DC
:1040A0000D7003024161E5082402F50AE43509F5C3
:1040B0000B8A828B83A3A3A3E0A2E55028851882F4
:1040C000851983123D291209018A108B11EA4511C5
:1040D00060207912123D1F8510828511831221BA4A
:1040E000E9F50C707F850E82850F83E060097952B7
:1040F0008011750C0E806D850882850983A3A3A3AA
:10410000A3E0F9E4F508F50978081223CF8E828F31
:1041100083A3A3E0F50878081223CF8E828F83A3B0
:10412000A3A31223E68E828F83124CBD123D23126D
:1041300009137406122162E9F50C7011850E82854F
:104140000F83E0702D123D231204F980257416654B
:104150000C7011750C00741812219812418BE480B8
:1041600010750C01124E53851282851383E8F0A35B
:10417000E9F0850E82850F83E0600479008002A952
:104180000C74021221627F0E02228E12418F22E0F5
:10419000F8A3E0F58388822274EC1221BC74F71234
:1041A000214C8A0A8B0B8C108D11EA2405FEE43514
:1041B0000BFF750C00AC18AD198E828F83123D2950
:1041C0001207A58A088B09EA45097003024357E5DF
:1041D0000A2402F50A5002050B8A828B83A3A3A34B
:1041E000E0A2E5502F851882851983123D29120916
:1041F000018A0C8B0DEA450D604F7912AC08AD09B0
:10420000123D23850C82850D831221BAE9F50C60DD
:104210000302435A850A82850B83E0F508A3E0F583
:1042200009AA08FB1208F5EA4B70197AFF7BFF1206
:1042300008F5EA4B700302434D8A828B83E508F050
:10424000A3E509F07508008008750C0E02435A05B5
:10425000089002EBE0F8E508C398400302434D855F
:10426000080E750F007403780E1221398A828B8331
:10427000A3A3E0250EF8A3E0350F12472170D08EDE
:10428000828F8312437512396B8E828F83A3A312A0
:104290004375123969EE2404F508E43FF5098508F1
:1042A00082F583E088828983A3A3A3A3F0A3E4F02B
:1042B000EE2405F50EE43FF50F850E82F5831243DB
:1042C00075A3A3A3A3123969751207751300781299
:1042D0001223CFEEFCEFFD74041221AA1213BD7459
:1042E00002122162E4F51278121223CF850882852A
:1042F0000983E0FC7D007917123D231208777402D0
:10430000122162740712219812396B7407122198D6
:10431000E0FA4B603D85088285098312436C1223C5
:10432000CF850E82850F83124CBD1213BD7402120D
:10433000216274021221B2123D231204FFE96026A9
:104340007407122198123D291214478019750C091F
:104350008008750C118003750C01124E5385108274
:10436000851183124380A90C74098028E0F5087533
:104370000900780822123D2D888289832212438603
:10438000E8F0A3E9F022E0F8A3E0F9850E82850FBA
:10439000832274041221627F0C02228E74EC12219B
:1043A000BC124490751000EE2402F50CE43FF50DAC
:1043B000850C82F583123D291208F58A088B09EADB
:1043C00045097003024474850A82850B83E0640109
:1043D0006003024469AC08AD09AA0AAB0B1208E9F4
:1043E000E9606E8508828509831236F6EE2406F5AB
:1043F0000AE43FF50B8E828F83A3A31223E68E82FD
:104400008F83A3A3A3A31223E6850A82850B8312BD
:1044100023E679188E828F831244A2123D29120955
:10442000137406122162E9F8741668700B850A820B
:10443000850B83E4F0A38014E860128E828F8312D0
:104440003D29850E82850F83EAF0A3EBF08810806A
:1044500018780E1223CFAC08AD09EEFAEFFB120864
:10446000EF7402122162E9F510AA08AB091208FBE9
:10447000E510700E850C82850D83123D291205050D
:104480008009741665107003751000A91002439717
:10449000EAFEEBFF8C0E8D0FEE2405F50AE43FF5E6
:1044A0000B22124F4C850C82850D832274EA122157
:1044B000BC7508007509007E007F00750A00EC24B9
:1044C00002F510E43DF5118035EC65087003ED65EB
:1044D00009600302456188828983A3A3E06A7003AF
:1044E000A3E06B707C88828983A3A3A3A3124E5799
:1044F000EE28FEEF39FFEA28FAEB39FB050A1246EF
:1045000031503A850A0C750D007403780C1221396C
:10451000851082851183124624124721601FE50809
:10452000450970A58C088D09888289831236F48824
:10453000828983A3A3E02EFAA3E03F80BEE50AC3ED
:104540009402500302461F750800750900EE4F6083
:1045500010EEFAEFFB1214418A0E8B0FEA450F7032
:10456000057900024621750B000245F4850B0C7598
:104570000D007403780C122139851082851183E0B7
:10458000250CF50CA3E0350DF50DE50C2406F5140E
:10459000E4350DF515851482F5831247266042E552
:1045A0000C2404F512E4350DF513851282F58312FF
:1045B00023E6E50E2508FAE50F3509FB1213BD7455
:1045C00002122162851282851383E02508F508A373
:1045D000E03509F509851482851583123D291214E9
:1045E00047E50B600D7C087D007900AA0CAB0D122D
:1045F00013D5050BE50BC3950A500302456C8510D6
:1046000082851183124E5788828983A3A3A3A3A313
:10461000A3E50EF0A3E50F123287EEF0A3EFF079D9
:104620000102418612462822E0250CF8A3E0350D50
:10463000229002EBE0F8E50AC3982274F01221BC44
:104640008A0E8B0F8C0A8D0B750D00750C00805037
:104650007916EE2406F508E43FF5098E828F83A3D0
:10466000A31223E68E828F83A3A3A3A31223E6853E
:1046700008828509831223E6850E82850F83A3A312
:10468000123D291209137406122162E9F50D741600
:10469000650D706C850882850983E4F0A3F0050C34
:1046A0009002EBE0F8E50CC3985066AA0C8A0875F6
:1046B000090074037808122139850A82850B83A3C7
:1046C000A3124770E8FEE9FF8E828F8312472660AF
:1046D00040EA2401F508E43400F5099002EBE065B6
:1046E000087002E509601488828983A3A3A3A3A3A9
:1046F000A3A3A3123D586003024650791802465204
:10470000E9609B124E5374101221981247181243FD
:1047100080A90D7F0802228EE0FAA3E0F5838A8249
:1047200022F988828983124F4CEC4D2274F61221B3
:10473000BC7C0080010C900348E0F8ECC398501E4C
:104740008C0875090074027808122139124765E057
:104750006A7003A3E06B70DDE8FAE9FB80047A007D
:104760007B000248089002E9124770888289832200
:10477000E02508F8A3E03509F92274F21221BC8A79
:10478000088B09750A0080278E828F83A3A3A3A3B9
:1047900012327E60031214477C087D007900EEFA25
:1047A000EFFB1213D58E828F83E4F0A3F0050A127B
:1047B00046315027850A0C750D007403780C1221C0
:1047C00039850882850983A3A3E0250CFEA3E03583
:1047D0000DFF8E828F83123D5870AD85088285094A
:1047E0008374FFF0A3F0024F4074F61221BC12084C
:1047F000A78A828B83E582458370067A007B0080DE
:1048000007A3A3A3A3123D297F0202228E74F412F0
:1048100021BC89088C828D83E06402703C124DF6C5
:10482000FEA3E0F9EEF87402687003742969702938
:10483000750A02750B00780A1223CF7410122198A2
:104840001223E674101221981223E6A908121249C5
:104850007406122162E9F9800279010232BB74E820
:104860001221BC74FB12214CE9851882851983F052
:104870008A168B17ECFEEDFF7510008E828F83A3D6
:10488000A3A3E0A2E4502D741D122198123D291219
:1048900009018A828B83E58245837003024C9579F6
:1048A0000AEEFCEFFDAA16AB171221BAE9F510606B
:1048B00003024C98741F122198E0F508A3E0F50953
:1048C0007421122198E0F50AA3E0F50B742312215C
:1048D00098E0F50EA3E0F50F8E828F83E06402600E
:1048E00003024C36A3124E57850882850983A3859F
:1048F0008212858313EE2406F50CE43FF50D8882C1
:104900008983124CD5F514E439F51578141224591D
:10491000010000280128384907000228FD49032822
:104920006B4900292C4B0129574B0229F84A0329CE
:104930002C4B0429D04B364CE50E450F6003024C3E
:1049400031850C82850D83124E57E8FAE9FB8A8285
:104950008B83E0850A82850B83124CE01223CF8A79
:10496000828B83A3E0FCA3E0024BBAE50E450F6007
:1049700003024C31850A82850B837401F0124CCA04
:10498000850882850983F07C007D008E828F83A359
:10499000A3A3A3E02401FAA3E03400FB1207A5EAD5
:1049A0004B60408A828B83E02402F8850A82850B63
:1049B00083E028F0EA2404F8E43BF988828983E064
:1049C000851282851383124CEE124CE01223CF8A9B
:1049D000828B83A3124CBDE5082403FAE43509FB5E
:1049E000024BBF850A82850B83E02404F07C047DA2
:1049F000007900AA12AB131213D5024C98E50E45AC
:104A00000F6003024C31124CCAFEA3E0FF850A82FC
:104A1000850B837404F0EE850882850983F0EF85A9
:104A20001282851383F074031221B2EEFAEFFB12A7
:104A300007A58A0C8B0DEA450D7003024ADB8A82BA
:104A40008B83A3A31236F474011221A2880E890F5E
:104A5000780E1223CF74051221981223E67CFF7D75
:104A6000FF1207AB74041221628B0FEA450F7033FB
:104A7000850C82850D83124CC11223CF850C828553
:104A80000D83A31223E67C027D007A8E7B911205B2
:104A9000A77404122162E9700A740112219874FF4C
:104AA000F0A3F08E828F83E064027039750C02757A
:104AB0000D00780C1223CF8E828F83A3124CBDE59C
:104AC000082404FAE43509FB1213BD7402122162B2
:104AD000850A82850B83E0240280097401122198E3
:104AE000EEF0A3EFF07401122198124CAF74011292
:104AF0002198124CA6024C2BE50E450F6003024C88
:104B000031850C82850D83124F45AA16AB17121200
:104B10004F850A82850B837402F08508828509839C
:104B2000EAF0851282851383EB024C2EE50E450FC9
:104B30006003024C31124CCAF8A3E0F9850A828561
:104B40000B837402F0E8850882850983F0E98512F9
:104B500082851383024C2E850C82850D83123D299C
:104B60001213B7EAFAF8C3950EE4950F405CE865B6
:104B70000E450F70047A008021851882851983E024
:104B8000FCE50E2CFCE4350FFDC3EC98ED940050D1
:104B900003E08005E50ECAC39AFAEA850A82850B0E
:104BA00083F08A0A750B00780A1223CF850C828560
:104BB0000D83E0250EFCA3E0350FFDAA08AB09121A
:104BC00013BD7402122162024C98751007024C98B2
:104BD000E50E450F705B850C82850D83124E57855F
:104BE0000A82850B837407F088828983124CA7128E
:104BF0004C9FE0851282851383F0E82402FAE439A1
:104C0000FB8A828B83124CAF8A828B83124CA6A3C1
:104C1000A3123286124CB4F0E82405F8500109883A
:104C2000828983124CB4A3124CEEA3A3A3A3F080F9
:104C30006775100B8062741D122198123D291208AD
:104C4000A78A828B83E5824583604A124E57880C7F
:104C5000890DE8450D603E7425122198E0F5107825
:104C6000101223D3780E1223CF780A1223CF78089C
:104C70001223CF7407122198E0F9EEFCEFFDAA167B
:104C8000AB17850C82850D831221BA74071221623D
:104C9000E9F510800375100EA9107405023FECF0C1
:104CA00088828983A322A3E0850882850983221252
:104CB0004CF5F022124CF5A3A3229002EF124F4CB8
:104CC00022E0F50E750F00780E22850C82850D838B
:104CD00012418FE022E0FAA3E0F8E4C8F9EA2822C2
:104CE000F08A828B83E0F50A750B00780A22124C59
:104CF0009F124CF522E0850882850983A3A32274C4
:104D0000EE1221BC74FE12214C8A088B09ECFEEDD8
:104D1000FF890AAC18AD19EEFAEFFB1207A58A0C51
:104D20008B0DEA450D7003024DE7851882851983C6
:104D3000123D291208A78A828B83E582458370037E
:104D4000024DE2A3A3124E57880E890FE8450F705B
:104D500003024DE27414122198E0F510A3E0F5115E
:104D6000E50AF50B780B1223D3741912219812233C
:104D7000E678101223CF741B122198E0F9AC0CAD29
:104D80000DAA08AB09850E82850F831221BA74051E
:104D9000122162E9F50B705274FE650A604C850CB5
:104DA00082850D83E064027041124DF6FAA3E0F9AA
:104DB000EAF87402687003742969702E8510828580
:104DC0001183124CD5F50CE439F50D780C1223CF74
:104DD000EEFCEFFDAA08AB0912092B740212216246
:104DE0008008750B0E8003750B01A90B740212214C
:104DF000627F0A02228EA3124E5B88828983E022A0
:104E000074F61221BC74FE12214C740C12219812FB
:104E10004E57E8851882851983F07401122198E9AC
:104E2000F0E4F508F50978081223CF750802780830
:104E30001223CF74041221A288088909780812234A
:104E4000CF79FE12091374061221627402122162D4
:104E50000248088E828F83124E5B22E0F8A3E0F9AD
:104E60002274F71221BCEAFEEBFF890890030612B8
:104E70004CBD12124FEA5402600BA908EEFAEFFB88
:104E8000120799800279017F0102228E74F21221A9
:104E9000BC74FE12214CEAFEEBFF890A7401650A1C
:104EA00060147402650A6003024F3B7901120B35EE
:104EB000E96003024F3BEEFAEFFB1208F5EA4B60A4
:104EC000031208FBA818A919880889097808122371
:104ED000CF75080275090078081223CF750886750A
:104EE000099178081223CF7CFF7DFF7A017B0012A5
:104EF000079F74061221628038850882850983A382
:104F0000A3A3A3A3A3124F45EEFAEFFB121237E4BB
:104F1000F50CF50D780C1223CF7402122198122390
:104F2000E67CFF7DFFAA08AB091207AB74041221CF
:104F3000628A088B09E508450970BE740212216275
:104F40007F0602228E12418F124F4C22E0FCA3E01A
:104F5000FD2274F41221BC8A088B09ECFEEDFF904F
:104F600017FDE0F4604B7A097B001213E7EA4B600F
:104F7000408A828B8374B1F0A3E4124FB4F08A822A
:104F80008B83A3A3E508F0A3E509124FB4A3EEF0C9
:104F9000A3EFF0740C122198124E578A828B83A3D0
:104FA000A3A3A3A3A3A31243809017FDE0F91213B8
:104FB000F30232BBF08A828B83A3A3A3A32274F0F3
:104FC0001221BC74FA12214C8909ECFEEDFF750820
:104FD000008A0A8B0B780A122413000410E4510192
:104FE000501F50395051506F508750AA50C250D660
:104FF0005000517B518C51A351BE51E451E45116E4
:10500000517401650960030251DF8E828F83E0F8DD
:10501000C3940340030251DFE89018E90251BB74C6
:1050200002650960030251DF8E828F83125942901C
:1050300018EAE8F0A3E90251BB74016509600302B4
:1050400051DF12520C40030251DFE890072C02514D
:10505000BB7401650960030251DF8E828F83E0F823
:10506000C3940540030251DFE890072D0251BB7441
:1050700001650960030251DF12520C40030251DF47
:10508000E890072E0251BB7410650960030251DFDE
:10509000750A10750B00780A1223CF7A2F7B07123E
:1050A00013BD740212216202520574016509600386
:1050B0000251DF12520C40030251DFE890073F0219
:1050C00051BB7401650960030251DF8E828F83E05A
:1050D0009018ED0251BB7404650960030251DF8E24
:1050E000828F83780C1220109090F0780C12166446
:1050F00050030251DF900741780C12201F02520525
:10510000E960030251DF12073FE970051211FB80CD
:10511000559007D480617407650960030251DF75FB
:105120000A06750B00780A1223CF8E828F83A3ACF8
:1051300082AD8374021221AA1213C3740212216277
:105140007C007D00AA18AB198E828F83E0F91211C2
:10515000A7E9FEC3940A400302520212073FE97016
:105160000CEEF91212017950121501806D74D52ED2
:10517000F582E43407F58374018040740165097099
:105180005E12520C5059E8900740802F7401650957
:10519000704D8E828F83E0F8C3940A5042E89018D5
:1051A000EC80187401650970368E828F83E0F87484
:1051B000F928C3940A5028E89018EEF0804774014B
:1051C0006509701B9007D3E0F88E828F83E090070B
:1051D000D3F0E87030E06401702B1211EF80267577
:1051E00008188021C3EA9427EB94005015740265D7
:1051F00009700F8E828F831264221205BFE9F508B1
:105200008003750802A90874060255308E828F83C8
:10521000E0F8C3940222A90880031221627F0402ED
:10522000228E74F01221BC74B112214C8C0A8D0BA9
:105230009090C074201221B2740612205F74201264
:1052400021B21211A7E9FF745F122198E0F509EF6E
:10525000C3940A40030253A475F006EFA4F5087442
:10526000411221B27A0E74202508F91214FBE9705C
:1052700009744D122198E0FE80027E009018E9E04A
:1052800064027005750E018003750E0074086509CF
:1052900070047422800274212508F50D7C1B7D00AA
:1052A000790074261221AA1213D574261221B27A1B
:1052B0001BA90D1214FBE9702D7440122198E024F3
:1052C000F9C3940A5020E50EF50D780D1223D3741E
:1052D000271221B2EEA2E0E433F9AA0AAB0B1206C0
:1052E0006174011221627C147D007900740C12211A
:1052F000AA1213D5740C1221B27A1074242508F95D
:105300001214FBE970347C1079FF740C1221AA127C
:10531000143BE97025741C122198AC82AD837A0489
:1053200074252508F91214FB740C1221B2EEA2E0C8
:10533000E433F9AA0AAB0B120649AC18AD197A0C82
:1053400074702FF91214FBE97049AA18AB191211E5
:10535000D77F00EF75F003A4F8A9F08518828519AE
:1053600083E58228F8E583125AF9125CDA601D8819
:10537000828983A3A3E0F50E750F00780E1223CF68
:10538000AA0AAB0B12091974021221620FEFC3941F
:105390000440C0EEA2E1500C90072BE0F9AA0AAB42
:1053A0000B12091F7404650970289018E9E0640263
:1053B00070207A0090073FE060027A0190072CE0AD
:1053C0006004780480027800E84AF9AA0AAB0B125C
:1053D00007157900744F02553074F71221BC12077B
:1053E0003FE9704F9007D4E0640170151211FB90F3
:1053F00007D4E4F07C0AFDF97AD57B071213D58037
:105400002A750800A80874D528FEE43407FF8E82A8
:105410008F83E06401700BA9081212018E828F83C2
:10542000E4F00508E508C3940A40D9795012150143
:105430001211EF025E1174F01221BC74F012214CB3
:10544000EAFEEBFF8C088D09750A0AE9600C14600E
:105450000914603B14607D02552C1211E9E9F50A2C
:10546000C3940A400302552CE50845097003025510
:105470002C750C06750D00780C1223CFEEFCEFFD99
:10548000AA08AB091213BD740212216202552C75D1
:105490000C00750E06750F00780E1223CFEEFCEF90
:1054A000FDE50C75F00EA4F8A9F0744D28FA740708
:1054B00039FB1213CF7402122162E9700B050CE55F
:1054C0000CC3940A506680CA850C0AE50AC3940A84
:1054D000505A8049750C00AC18AD197A1075F00659
:1054E000E50CA42423F91214FBE9701C7C1079FF4D
:1054F000AA18AB1912143BE9700EEEFCEFFDAA18C6
:10550000AB19120625E9600B050CE50CC3940A5093
:105510001B80C4850C0AE50AC3940A500FE50845B0
:10552000096009AA08AB09A90A1211E3A90A7410B3
:105530001221627F0802228E74F41221BC8909753F
:10554000081574FF6A700374FF6B70277E00AC0946
:105550007A027B00EEF91211C5E960037508000EAE
:10556000EEC3940A40E8E50960537A137B12120BEC
:1055700059804A120B298A0A8B0BAE0AAF0BEE4FE9
:1055800060387C007D00EE2405FAE43FFB8E828FBC
:1055900083A3A3A3A3E0F91211A7E9F9C3940A50C6
:1055A0000CAC097A027B001211C5750800E5096090
:1055B0000CEEFAEFFB121213800375081402521658
:1055C00074F21221BCECFEEDFF750815740E122169
:1055D00098E0F50AA3E0F50B74FF6A700374FF6BA3
:1055E0007021750900AC0AAD0BEEFAEFFBA90912A8
:1055F00011CBE960037508000509E509C3940A5059
:105600003F80E2120B298A828B83E5824583602DDD
:105610007C007D00E5822405FAE43583FBA3A3A387
:10562000A3E0F91211A7E9F9C3940A5013AC0AAD2B
:105630000BEEFAEFFB1211CB75080080037508140E
:10564000A9087F0602228EC082C083900745EAF037
:10565000A3EBF090072BE0FC7D007A267B0012057F
:10566000BF90072BE0F912088302612B74EE122120
:10567000BC74EC12214C8A088B09EA240CF510E466
:105680003509F5118A828B83A385820C85830DEA07
:105690002405F50EE43509F50FEA2409F50AE43589
:1056A00009F50BEA2403FEE43509FF8A828B83A304
:1056B000A3E024FA700302593024FD70030258500D
:1056C00014700302574A14601024FD70030258330B
:1056D0001470030258880259361264286044E0F5B9
:1056E000838882125942880C890DE8450D60338504
:1056F0001082851183E0F50E780E1223D3EA240B75
:10570000F582E43509F583E0F912641C0A0A0AEF10
:10571000FB850C82850D831221BA7401122162026D
:105720005936850A82850B831223E69007411220A1
:105730002E12065B7402122162E970030259367957
:1057400001850A82850B83025900750A00850C8247
:10575000850D83E06003025800850E82850F83E08B
:10576000A2E040030258009007DF12642B6003029E
:1057700058007C0E7D007900AA18AB191213D5854C
:1057800010828511831260F6EA4B6010750A067567
:105790000B00780A1223CFEA2410801B1260F21249
:1057A0000B29EA4B7003025936750A06750B00780F
:1057B0000A1223CFEA2405FCE43BFD74021221AA5D
:1057C0001213BD7402122162850E82850F83E0A23E
:1057D000E25004D2F08002C2F0A2F0E433F8740C7C
:1057E0001221981262AA1211DDE970117A027B006F
:1057F00090072BE0F91214177900025938750A1531
:105800001264287003025936125957700302593630
:10581000850C82850D83E0FC79011259481221BA6A
:10582000E50A7003025936FC79031260F21260AD8A
:1058300002592B126428700302593612595770030B
:10584000025936850C82850D83E0FC7902025928C5
:105850007C007D00EA2404FAE43509FB8E828F8304
:10586000E0F91211A7E9F8C3940A4003025936E59A
:1058700008240AFCE43509FD7A0475F006E8A4243E
:1058800025F91214F50259361260F2900740E060D3
:10589000079018ECE0F9806B9018E9E07004790546
:1058A0008061120B298A0C8B0DA80CA90DE8497098
:1058B00003025936E82404F50CE439F50D85088215
:1058C000850983A3A3A3A3A3A3A3E0A2E0503985E2
:1058D0000C82850D83E0F508602E850A82850B8396
:1058E000A3E054027022740E1221B2E82405FAE4F7
:1058F00039FBA9081211A7E9700E79038E828F83F4
:105900001260F6120655802EAC0EAD0F850C828506
:105910000D83E0F91260F212121F12642860171250
:10592000595760127C0079001259481221BA80063A
:105930001260F21211A1790174141221627F0A021D
:10594000228EE0F8A3E0F9228E828F83E0FAA3E0B2
:10595000FB8882850983221260BBF98909E8450921
:105960002274F51221BC74F212214CEAFE8C0A75E5
:10597000F006E9A42420F508AC18AD197A0EF91246
:1059800014FBE970467C0679FFAA18AB1912143B88
:10599000E97038740C1221981260F6EAF8E50A6092
:1059A00005EEC8488004EEF4C858F8EA687001EBC8
:1059B0006015740C122198E8F0A3E4F0AC18AD194E
:1059C0007A0EA9081214F5790180027900740E127A
:1059D00021627F0302228E74F21221BC74E612212E
:1059E0004C890A8A088B09ECFEEDFF740C1221B277
:1059F0007A0E75F006E9A42420F91214FBE960037D
:105A0000025ABC7C0679FF740C1221AA12143BE9DD
:105A10006003025ABC7470250AF50BAC18AD197AF4
:105A20000CF91214FBE96003025AB8AA18AB191258
:105A300011D7E5084509701D7C0C7900AA18AB192F
:105A400012143BE970727C0C7D007900AA18AB1926
:105A50001213D58051AC18AD19AA08AB091211D197
:105A60008A0C8B0DA80CA90DE8497022EE4F604CF2
:105A7000AC18AD197A007B001211D1EAF8EBF9EA03
:105A80004B603988828983E508F0A3E509F0125B51
:105A900035FAEE6A7001EF601FEEF04F70088882F1
:105AA0008983E4F0A3F0AA18AB191211D7AC18AD92
:105AB000197A0CA90B1214F5790180027900741A75
:105AC00012216202564274F71221BC7E00EE75F07C
:105AD00003A4F8A9F0EC28F8ED125AF9E06A700373
:105AE000A3E06B7006E8FAE9FB800B0EEEC39404AA
:105AF00040DB7A007B00025E1139F98882898322BB
:105B000074F71221BC7C00EC75F003A4F8A9F0EA4C
:105B100028F8EB125AF9E0F4FEA3E0F4FF8882893A
:105B200083EEF0A3EFF0125B35F4F00CECC39404B9
