:020000040000FA
:06000000020107022A853F
:03002B00022ED2D0
:03003B00022EF89A
:03004300022E7D0D
:03005300022AFB83
:03006B00022EA3BF
:100083000228DBE5C754F84401F5C77901220000D3
:100093000080FB120086B900030200F1E4792178A5
:1000A30008B800028004F709D8FCE479297802B87B
:1000B30000028004F709D8FCE490028178397915AD
:1000C3008002F0A3D8FCD9FA7AB97B16900137786D
:1000D3007C79048015E493A3AD82AE838A828B83FB
:1000E300F0A3AA82AB838D828E83D8E9D9E7758288
:1000F300D57583DA740312011975829175830074BF
:100103000012011975D00075813F751881751902A8
:10011300759F00020096C09FF59FE473D09F22D085
:1001230083D082C09FE493C0E0740193C0E0740263
:1001330093F59F22FF0000B4000028002800283018
:1001430075A000A000A000A00000080008E001F0D6
:10015300001000100010001000100010005000509C
:1001630000500010001000D0070000000000000F36
:100173000001000500307507001000010081FF0039
:10018300000000FFFFFFD406F206DA061607FF029F
:10019300020208025000A0000000E803024191019E
:1001A30000008590023F910100001417023791016E
:1001B3000000BF02023F91010000151702339101B5
:1001C3000000D502023F910100001617024791017A
:1001D3000000D702023F910100001717024991085E
:1001E3000000D802023F9101000018170239910163
:1001F30000001917FF0100FF200241910100002DAB
:1002030091023F910100007D17023591000000002B
:1002130000023B9103000006031700C40DC40DC484
:100223000DC40DC40DC40DC40DC40DC40DC40DC443
:100233000DC40DC40DA010B2109A100202020202E6
:1002430002020202010D00000010010241910100AF
:10025300003091023F91010000C017025D9101003F
:10026300002307023F91010000C117025B910100C7
:10027300004490023F91010000C21702599101000E
:10028300000190023F91010000C317025791010042
:10029300008D8F023F91010000C4170255910100A8
:1002A300007B8F023F91010000C5170253910100AB
:1002B300009F8F023F91010000C617024F9101007A
:1002C30000578F023F91010000C717024D910100B3
:1002D300000F90023F91010000C817024B910100EB
:1002E30000C91701E8030577100AFFFFFF0001307B
:1002F300750302010600000000000000000000007A
:1003030000000000000000000000000000000000EA
:1003130000FFFF0600800CE803000102030405064A
:100323000708090A0B0C0D0E0F000102030001025E
:10033300030405060708090A0B0C0D0E0F00010242
:10034300030A09434332353430424C450512500009
:100353002003020A000201060302F0FF53696D70D5
:100363006C6520424C452050657269706865726106
:100373006C741500007A15010010436861726163A3
:10038300746572697374696320340010000102009C
:10039300000000000000000000000000000000005A
:1003A3005050470010000102000000000000000050
:1003B300000000000000000000504347001001004F
:1003C3000000000000000000000000000000504397
:1003D30047000241910100002A91023F9101000070
:1003E300FE18026391000000B016023B9103000067
:1003F300B116023D91010000FF18023F9101000078
:1004030010190265910000001119023B91030000CD
:10041300B316023D910100002519023F910100002E
:1004230029190267910000002A19023B9103000079
:10043300B516023D910100003E19023F91010000F3
:1004430042190251910000004319023B910300003D
:10045300B716023D91010000531930313233343560
:100463003637383941424344454600286E756C6C33
:1004730020706F696E746572290030313233343500
:1004830036373839616263646566003F3F3F000079
:1004930000807F0000803F00000000F9021550B784
:1004A30043BA510000204100E7DB2E0000A04012B8
:1004B300012226B10312012239B1031201226AB1CA
:1004C30003120122A4B103120122FDB1031201227E
:1004D30044B2031201228CB203120122BBB20312F3
:1004E3000122EAB20312012221B30312012268B3EB
:1004F3000312012281B303120122D6B30312012294
:10050300EFB3031201223DB40312012277B40312A5
:100513000122D4DC02120122D7DD0212012210DEF5
:100523000212012233DE0212012245DE02120122EF
:1005330083DE02120122FFDE02120122C7DF021252
:100543000122E9DF0212012280E002120122D2E03D
:100553000212012203E10212012210E1021201221E
:100563007AE102120122D1E102120122D4E1021244
:1005730001220DE20212012210E2021201221AE20A
:10058300021201226EE202120122AFE202120122E2
:10059300E2E2021201221FE30212012221E402120B
:1005A3000122C5E4021201222EE5021201226CE5AA
:1005B3000212012245A9031201226DA9031201228D
:1005C3009AA903120122D2A90312012230AA03120B
:1005D30001227CAA03120122E3AA0312012223AB04
:1005E3000312012260AB031201228EAB031201221C
:1005F30038AC0312012242AC031201224FAC0312A6
:10060300012282AC031201228EAC03120122A6AC9A
:1006130003120122B0AC0312012225D603120122D8
:1006230033D6031201224BD60312012262D60312E0
:1006330001224DC801120122F7C8011201220ACA80
:100643000112012286CA01120122A4CB0112012246
:10065300E0CB011201227BCC011201225FCD0112FA
:1006630001222BCE01120122B9CF011201222AD07D
:1006730001120122E4D001120122D6D1011201227A
:1006830016D201120122CAD201120122FCD2011296
:100693000122F2D40112012234D50112012252D5D2
:1006A30001120122B8D50112012287D601120122BB
:1006B3004BD7011201226AD9011201228878001254
:1006C30001227279001201221D7A001201226E7A30
:1006D300001201221E7B001201228F7B00120122D5
:1006E300747C00120122A87C00120122A17D001259
:1006F3000122DE7D00120122BA7E00120122F97E60
:1007030000120122157F00120122C5CB0312012220
:1007130049CC0312012274CC031201228ECD0312A1
:1007230001223EAD0312012254AD0312012272AD28
:100733000312012283AE031201228DAE03120122A2
:10074300B8AF03120122AFB0031201221CB103128E
:1007530001220080031201223081031201226781EA
:1007630003120122B18103120122748303120122B5
:100773006D9101120122F991011201225D9301127F
:100783000122699301120122A493011201221394FD
:10079300011201221C950112012225960112012248
:1007A300EC96011201224998011201226798011265
:1007B3000122849801120122319901120122AE997A
:1007C30001120122D69901120122A09C01120122D9
:1007D300A59C01120122BE9E011201220C9F01124F
:1007E30001227C9F01120122BA9F0112012296A0CD
:1007F3000112012256A101120122A2A1011201221A
:10080300A5A101120122E9A10112012231A20112C3
:10081300012270A20112012292A201120122C6A298
:100823000112012229A3011201224385031201228D
:10083300518503120122A48503120122C3850312E9
:1008430001220886031201224C8703120122E78743
:10085300031201222B88031201225588031201225D
:10086300C488031201220A89031201228189031217
:100873000122328A031201226C2F001201227C2FE3
:10088300001201221D3000120122793000120122D0
:100893003631001201225232001201228432001238
:1008A3000122B33200120122603400120122D73632
:1008B30000120122473900120122393A00120122A3
:1008C300323B00120122393D001201222D40001259
:1008D30001225C4100120122604300120122704494
:1008E30000120122FF4500120122F04600120122EC
:1008F3003E4700120122AD4700120122D1470012E8
:100903000122224800120122C34C00120122C44DCD
:1009130000120122254E00120122504E0012012224
:10092300164F00120122F1A003120122FBA00312B1
:10093300012240A10312012254A103120122E4A1C6
:10094300031201221DA20312012258A20312012243
:1009530081A203120122D5A203120122EAA20312E9
:1009630001220CA30312012221A30312012235A3A6
:10097300031201224AA30312012284A303120122B8
:10098300B0A303120122F9A3031201226BA40312E1
:100993000122AEA403120122D8A40312012203A54B
:1009A3000312012226D2031201229CBF021201224A
:1009B3007FC002120122FAC00212012235C10212C3
:1009C300012286C20212012214C302120122A6C509
:1009D3000212012258C60212012264C70212012226
:1009E300D7C80212012230C902120122A19C0312AC
:1009F3000122E49C03120122689D031201223FA0FD
:100A03000312012251C70312012203C80312012258
:100A1300FFC8031201223EC90312012298C903121F
:100A2300012223FE0112012286FE0112012223FF6D
:100A33000112012258FF0112012288FF0112012233
:100A4300C3FF01120122E3FF01120122448A0312B0
:100A53000122D08A031201228F8B03120122A78C59
:100A630003120122C18E0312012208A902120122DC
:100A73002DA902120122FAA902120122CEAA021200
:100A830001223BAB021201227BAB0212012217AC03
:100A9300021201224BAD0212012226AE02120122E2
:100AA30085AE0212012211AF021201227FAF0212A0
:100AB30001220BB00212012251B002120122C3B073
:100AC3000212012255B102120122F6B102120122D1
:100AD30016B2021201225EB202120122A7B2021260
:100AE3000122C3B202120122E9B20212012263B34C
:100AF3000212012271B30212012200B40212012276
:100B030069B402120122F88E031201227D8F0312AF
:100B13000122BF8F03120122A3900312012210911D
:100B2300031201225491031201229891031201220C
:100B3300C59103120122ED910312012225920312A2
:100B430001226392031201228A9203120122049367
:100B5300031201224E930312012255B60112012200
:100B6300FDB7011201222ABA011201227EBA011233
:100B73000122A9BA011201227BBB01120122BFBBD0
:100B83000112012203BC0112012216BC011201222F
:100B930057BC0112012284BC01120122D2BC0112F2
:100BA300012213BD0112012241BD0112012294BD94
:100BB300011201222BBE0112012215C101120122D1
:100BC3002BC30112012269C301120122FCC40112C9
:100BD300012241C501120122B3C50112012204C63B
:100BE300011201223EC60112012243C60112012253
:100BF300E3C60112012219C8011201222AC80112F7
:100C03000122D9C90212012258CA0212012251D06B
:100C13000212012257D102120122CAD20212012268
:100C230061D3021201221C640012012265640012C6
:100C33000122926400120122C46400120122D164D1
:100C430000120122DD6400120122EF64001201226E
:100C5300CA65001201222866001201225D66001295
:100C63000122946700120122E16700120122056844
:100C73000012012275680012012236690012012256
:100C8300F96900120122676A00120122246B001223
:100C93000122376B00120122B56B00120122486C4E
:100CA300001201226F6C00120122D76C0012012284
:100CB300286D001201227D6D00120122266E0012A2
:100CC3000122D16E001201227D6F00120122EF6F0B
:100CD30000120122437000120122A37000120122AC
:100CE300D370001201226971001201228E72001268
:100CF3000122D67200120122F37200120122127332
:100D030000120122417300120122567400120122C3
:100D1300DC74001201220175001201221675001203
:100D23000122897500120122CA7500120122E6769A
:100D330000120122877700120122D57700120122C7
:100D43003F78001201225878001201228BD302123D
:100D53000122DFD302120122EBD302120122B5D406
:100D630002120122E2D40212012210D50212012240
:100D73007CD502120122B2D502120122EBD5021256
:100D8300012203D60212012258D60212012271D681
:100D930002120122B6D602120122C9D60212012280
:100DA300E3D602120122F9D60212012217D8021247
:100DB300012242D9021201222CDA021201221BDB88
:100DC30002120122F97F00120122C39B02120122A7
:100DD300F29B02120122B89F021201220FA10212FA
:100DE3000122D5A10212012254A3021201221EA440
:100DF3000212012270A4021201228AA40212012209
:100E0300BCA402120122C7A40212012210A50212DD
:100E1300012219A502120122C5A5021201229EA6D2
:100E230002120122E5A6021201224DA7021201229B
:100E33008FA702120122BDA702120122F8A70212F4
:100E4300012201A4011201227FA70112012285A719
:100E530001120122DAAD0112012224B20112012290
:100E63000AB6011201227BB803120122F1B8031260
:100E7300012207B90312012297B903120122D4B93F
:100E8300031201220EBA0312012248BA03120122ED
:100E9300BBBA03120122FCBA0312012205BB0312DF
:100EA300012211BB0312012230BB031201225ABBE0
:100EB300031201226FBB03120122B2BB03120122F0
:100EC30003FB0212012216FB0212012230FB021263
:100ED30001225DFB02120122A3FB02120122D6FBB7
:100EE3000212012214FC0212012279FC02120122D5
:100EF3008EFC0212012299FC02120122A6FC0212AC
:100F03000122BDFC02120122CBFC02120122D6FCFB
:100F130002120122E2FC02120122F5FC021201225A
:100F230000FD0212012223FD02120122C7FD02125B
:100F33000122D7FD02120122F1FD021201220EFE4F
:100F43000212012229FE021201224EFE0212012286
:100F530059FE021201226EFE0212012282FE0212C9
:100F63000122E3FE02120122E9FE02120122EFFE38
:100F730002120122F5FE021201220DFF02120122CA
:100F830040FF02120122408E02120122D78E02126A
:100F930001226F8F021201225F90021201229690AA
:100FA30002120122A99002120122179102120122B8
:100FB300B29202120122D992021201227B930212EF
:100FC3000122B09302120122C193021201223A9428
:100FD300021201225B940212012273940212012273
:100FE300CB9502120122D49702120122249A0212F3
:100FF3000122279B02120122769B02120122A7E9FA
:1010030001120122A4EA011201228FEB0112012233
:1010130099EB01120122BBEB01120122C7EB011272
:10102300012219ED0112012248ED0112012278EE8D
:1010330001120122BAEE01120122E6EF011201228E
:10104300BCF0011201220EF1011201226DF1011215
:101053000122A4F101120122DFF1011201227AF52A
:101063000112012293F50112012215F60112012248
:1010730023F60112012278F60112012286F60112EB
:101083000122F3F60112012265F701120122ABF7E7
:10109300011201228CB402120122AEB40212012207
:1010A30098B6021201223DBA0212012280BB02123B
:1010B30001225ABC02120122BDCD03120122E2CD4C
:1010C3000312012253CE0312012292E502120122DE
:1010D3009BE502120122A4E502120122D5E60212C7
:1010E3000122F4E8021201222AE90212012264E930
:1010F300021201229AE902120122D4E90212012208
:1011030008EA0212012234EA021201227DEA0212E3
:101113000122B7EA02120122FFEA0212012255EB71
:10112300021201228AEB02120122E5EB02120122D2
:101133001FEC0212012270EC02120122A6EC021231
:101143000122E0EC021201220EED0212012231ED26
:1011530002120122B1D703120122DDD703120122A9
:1011630038D80312012242D80312012252D80312A3
:1011730001221ABF0312012241BF031201226BBFD6
:101183000312012228DB03120122824F00120122E3
:10119300E651001201229D5300120122FA5300125C
:1011A3000122FC54001201228455001201220B5625
:1011B3000012012230560012012225590012012289
:1011C3009B59001201228A5A00120122C45A0012AA
:1011D3000122045B00120122A45C00120122F95CCB
:1011E30000120122465D00120122B45D00120122A9
:1011F300DA5D00120122F45D001201220A5F00127F
:1012030001221A5F00120122A06000120122C060B5
:1012130000120122F660001201227A6200120122FA
:10122300B96200120122F76300120122209803120F
:101233000122789803120122C099031201222F9AE6
:1012430003120122DE9A03120122FD9A03120122E4
:10125300519B031201228F9B03120122F2D6031228
:10126300012203D703120122A6D70312012272DB44
:1012730003120122B1DB031201221FDC031201223C
:101283005CD8031201226CD80312012287D80312FF
:101293000122EFD8031201223AD303120122BED353
:1012A3000312012224D40312012211D103120122B9
:1012B30038D1031201228ED103120122E0D103128D
:1012C3000122ACC403120122C1C403120122C5C509
:1012D3000312012239C60312012253C6031201224B
:1012E3006AC6031201227DC60312012295C60312A8
:1012F3000122AAC603120122CBC6031201221CC774
:1013030003120122DFB403120122F6B403120122F5
:101313006FB50312012244B60312012216B8031259
:101323000122E0BB0312012272BC03120122F0BCB2
:101333000312012277BD0312012209BE0312012207
:1013430060BE031201226ABE0312012279BE031298
:1013530001228FBE03120122A2BE0312012203BF88
:101363000312012217BF03120122F9D8031201222B
:1013730062D9031201226DD9031201227DD903120E
:10138300012234D5031201225DD50312012286D531
:10139300031201229ED503120122E0D5031201227A
:1013A30095F5021201229FF502120122DFF50212C6
:1013B300012228F60212012262F602120122B8F675
:1013C30002120122D7F602120122E0F602120122D2
:1013D30031F7021201225AF7021201226FF70212A9
:1013E3000122DFF7021201226DF802120122B1F885
:1013F30002120122D9F80212012258F90212012223
:101403009BF902120122D8F902120122EAF902120F
:10141300012209FA0212012212FA02120122D7FA58
:101423000212012273CF03120122C4CF031201223D
:101433004DD003120122B3D003120122E8C10312DB
:10144300012212C2031201220CC3031201223BC365
:1014530003120122C1C3031201223DD4031201224C
:10146300C3C903120122F9C90312012232CA0312AA
:1014730001228BCB0312012200DA0312012216DAB6
:101483000312012220DA0312012276DA0312012267
:10149300BFED021201227CEE02120122B7EE02120C
:1014A3000122DFEE0212012241EF021201228DEF2F
:1014B30002120122F8EF0212012274F00212012239
:1014C30070F102120122F7F2021201227AF30212E0
:1014D3000122DEF302120122F5F302120122EBF4E0
:1014E3000212012237F5021201222BA50312012257
:1014F30040A503120122F3A50312012233A603120E
:1015030001224CA6031201227FA603120122CCA6BC
:101513000312012200A70312012242A70312012290
:1015230038A903120122008002120122B78302129A
:101533000122498502120122A08502120122BF85E0
:10154300021201223D8602120122CF8702120122DA
:10155300B38802120122C48C02120122988D021256
:10156300012288D90312012234F80112012220FA40
:101573000112012234FC01120122D5FD01120122C4
:10158300D8FD011201228E930312012253940312F8
:101593000122709403120122DD9503120122CE96DB
:1015A3000312012277D90112012290DE01120122D6
:1015B300BBDB03120122C2FF0212012201DC031270
:1015C3000122767F00120122A07F00E066701008DE
:1015D300A3E066700A08A3E066700408A3E066222D
:1015E300C008C3E096F50808A3E096420808A3E004
:1015F30096420808A3E0964208A2D265D033E508D4
:101603007001D3D00822C3E7960809E7960809E7D3
:10161300960809E79622C3E09608A3E09608A3E09C
:101623009608A3E09622C008C3E096F50808A3E055
:1016330096420808A3E096420808A3E0964508707E
:1016430001D3D00822080808E630E711121F02125E
:101653001660080808C64480C618181822181818F7
:10166300E9799EC608CAC608CBC608CCC6C3702093
:101673007996CACBCC7019798ECBCC70137986CC82
:10168300700EF9802ACA33CACB33CBCC33CC33198F
:1016930030E7F2CCCBCA3350147004EA30E00DE4E7
:1016A300CA3ACACB3BCBCC3CCC500209C3E913C6E4
:1016B300CC182313C6CB18C6CA18C6F922121700B2
:1016C30020F01430E72B74FFFCFBFA747F8022E4D4
:1016D300FCFBFA7480801AB48008BC00F2BB00EFF4
:1016E300800F50EBF9E4C39AFAE49BFBE49CFCE41F
:1016F30099C6CC18C6CB18C6CA18C6F922E4C9C6FF
:1017030008CAC608CBC6D3330308CCC63392F0C38A
:10171300947F402E94184019C9B90704CACBCC2230
:101723005025C309CA33CACB33CBCC33CC33D9F41A
:1017330022F4600DC9CCC313CB13CBCA13CAD9F699
:10174300CC22E4FCFBFA2214FCFBFA22E626184620
:101753001846184622E72719471947194722181828
:1017630018E60846087009E626087005E633F422F1
:101773000822191919E70947097009E727097005AC
:10178300E733F4220922E6084608C3134608336008
:1017930002E633F422E7094709C31347093360021A
:1017A300E733F42212178960251217986020121765
:1017B3004F7003021758080808E76670101819E7F6
:1017C30066700A1819E76670041819E76622F4228E
:1017D300121789601C121798601712174F7007129F
:1017E30017587001D322C0D01217587006D0D0B347
:1017F30022C32233D0D0501430E0F6C3E796080951
:10180300E7960809E7960809E796B32220E0D5E6AC
:10181300970809E6970809E6970809E697B322129D
:101823001789601B121798601612174F700712174B
:1018330058600CB322C0D01217587005D0D022C301
:101843002233D0D0501330E0EBC3E7960809E79674
:101853000809E7960809E7962220E0E4E6970809D5
:10186300E6970809E6970809E697220012178960A8
:101873004F1217986012E7548066F61217617011C1
:10188300121758703B090909F4F618F618F618F6FA
:1018930022121775701512174F08080860EAE644FC
:1018A3007FF618768018E4F618F62212174F6016A2
:1018B3001217587012E4F608F608F608E65480F694
:1018C30009090918181822EAC0E0EBC0E0ECC0E0EF
:1018D300EDC0E0E687F0A4FBACF008E687F0A42CAB
:1018E300FCE435F0FA1809E687F0A42C4B60027487
:1018F30001CA35F0FCE433FB09E687F0D2F7A42CE8
:10190300CB35F0FC1908E687F0A42BCC35F0FBE4CB
:1019130033FD0819E687F0D2E7A42C4ACB35F0CD86
:101923003400FC09E687F0D2E7A42DCC35F0FDE4C2
:1019330033FA0918E687F0D2F7A42CCD35F0CA3470
:1019430000FC08E687F0D2E7D2F7A42ACC35F07A78
:101953007E20E70B0ACB33CBCD33CDCC33CC33CB8B
:101963003350147004ED30E00ED2F1E4CD3DCDCC14
:101973003CCC3B5005DA05C2F1EB547FC63308E695
:101983003392F0FBE73309E733C39A502D2B7019D9
:101993000C0D4C4D70151806E608C333700D20F17D
:1019A3000AA2F013F6E418800B4024E4F630F002A8
:1019B300768018F618F618F68024D33B145010746A
:1019C300FFA2F013F6187680E418F618F6800FA23B
:1019D300F013F618E63303F618ECF618EDF6D0E03C
:1019E300FDD0E0FCD0E0FBD0E0FA2212179860466D
:1019F300121789603DE9687008F618F618F618F6AC
:101A030022748067F7121A22090909748067F72282
:101A1300121789601D1217987005191919801A1267
:101A23001761701F121775C37003E667331919190D
:101A330040071818182208080874FFF618F618F655
:101A430018F6221217756017121758702192F012A8
:101A5300174F7019501720F014080808090909E7EF
:101A6300F61819E7F61819E7F61819E7F622121708
:101A73004F60E6E869701F0808E62480F608E4363C
:101A8300F618547FB47F0CE654806007F6E418F62A
:101A930018F622181822E9C6CC08C6CD08C6CE0807
:101AA300C6CFC0E0E8C0E0EAC0E0EBC0E009E9F877
:101AB30009E7FA09E7FBE6F918E6F8C3EC98ED99AC
:101AC300EE9AEBC2E7F5F0EFC2E795F0500E600C2B
:101AD300EBCFFBEACEFAE9CDF9E8CCF8EAA2E7D2FC
:101AE300E7FAEB33FB13F5F0EEA2E7D2E7FEEF33B1
:101AF300FFC5F013A2E730E601B313C5F0C3C0E09E
:101B0300C0F07F00C39BFB605E9418600F401D1400
:101B1300601AD0E023F9D0E0F8021BF48AF0E94818
:101B23006003D2F0E4AFF0FAF9F8803BEB30E40D58
:101B330089F0EA6003D2F0E4AFF0F9CAF8EB30E3DE
:101B43000D88F0EF6002D2F0AFF0E4CAC9F8EB54AD
:101B5300076014FBC3EA13FAE913F9E813F8EF1368
:101B63005002D2E0FFDBEDD0E0C0E030E739C3E460
:101B73009FFFF5F0EC98FC42F0ED99FD42F0EE9AF0
:101B8300FE42F0D0E0F9D0E0F8E5F0607AE923F91D
:101B9300EE20E742D8028067C3EF33FFEC33FCED5E
:101BA30033FDEE33FE80EAEC28FCED39FDEE3AFE20
:101BB300D0E023F9D0E0F84002801BC3EE13FEED22
:101BC30013FDEC13FCEF135002D2E0FF08B800063C
:101BD3007F7F74FF802EEF3350178CF020F002606C
:101BE300100CBC000C0DBD00080EBE000408E8601C
:101BF300DFE933E813FFEE2313FE4F4D4C8008E972
:101C03005480FFE4FEFDFCEE33EF33F47004FCFD7F
:101C13007E80D0E0FBD0E0FAD0E0F8D0E0CFC61869
:101C2300CEC618CDC618CCC6F9221217897004186F
:101C3300181822121798700D74FFF61819F6181950
:101C4300F61819F622E7548066F612174F700F1232
:101C5300175870F014F608F608F608F680D1121734
:101C630058700CF608F608768008E6447F80EC127C
:101C73001778700C12176460BFE65480F6E480BBDB
:101C8300121764700519191980A5E869700C763F5D
:101C930018768018F618F6E8F922E6CDC0E018ECBD
:101CA300C0E0E633CD33CDD313F6E719FCE71919BA
:101CB30033CC33C3947F400ECD9D502408E654802B
:101CC300F6E418F6800FF4043D14501408E6447F3C
:101CD300F6187680E418F618F6D0E0FCD0E0FD2282
:101CE300CCD313CCFD18E4C6CBC0E018E4C6CAC0FD
:101CF300E00808ED08C633E613F618E433C675F0BA
:101D030003C3CA97CA09CB97CB199C40047D0880AB
:101D13002EBD0003021DD616B6FF050606081618CB
:101D2300C3CA33CACB33CB33CA27CA09CB37CB1980
:101D33003CC37D08803E187D0820E75CC633C6CAD5
:101D430033CACB33CB33DDF1D5F0EB30E77BCA9726
:101D5300CA09CB974ACB199C406F4B7025E620E00C
:101D6300218066187D08C3CA97CA09CB97CB199CF3
:101D7300D3C633C6CA33CACB33CB3350C9DDE7D559
:101D8300F0E1D3E4C636C608C636C608C636C6086A
:101D9300C636C61818188031C3CA97CA09CB97CB61
:101DA300199CB34097C633C6CA33CACB33CB33DD92
:101DB30034D5F02EC6A2E0C640C8CA27CA09CB371D
:101DC300194A70BECB3CB480B90808E63308E63341
:101DD300601F181818D0E0FAD0E0FBD0E0FCD0E088
:101DE300FD22187D08CA27CA09CB37CB193CD380FB
:101DF3008013F618E4B67F11F618B6FF0EF618C670
:101E03000470D20808768080CAF618F618F680C5E2
:101E1300080808EAC0E0EBC0E086F0E7A4FA180976
:101E230086F0E7A42AFA180986F0E7A42AFA180923
:101E330086F0E7A42AFA1986F0E7A4FBE5F02AFA6C
:101E4300190886F0E7A42BFBE5F03AFA190886F0A7
:101E5300E7A42BFBE5F03AFA18180986F0E7A4C5C6
:101E6300F02BFBE43AFA1908E7C5F0C6A426F6E519
:101E7300F03BFBE43AFA1886F0E7A4F6E5F008260F
:101E8300F6E43B08F6E43A08F6D0E0FBD0E0FA22A9
:101E9300E4CFC0E0E4CEC0E0E4CDC0E0E4CCC0E0F9
:101EA30075F020E626F608E633F608E633F608E68C
:101EB30033F6181818EC33FCED33FDEE33FEEF3335
:101EC300FFC3EC9709ED9709EE9709EF97191919D5
:101ED300400FFFEC97FC09ED97FD09EE97FE1919EA
:101EE30006D5F0BFECF709EDF709EEF709EFF7199F
:101EF3001919D0E0FCD0E0FDD0E0FED0E0FF2218BD
:101F03001818E4C396F608E496F608E496F608E48F
:101F130096F6226016080808C6C313C618C613C669
:101F230018C613C618C613C6D5E0EA2270090808F6
:101F330008226016181818C6C333C608C633C60865
:101F4300C633C608C633C6D5E0EA22E627F6080933
:101F5300E637F60809E637F60809E637F622E026FB
:101F6300F608A3E036F608A3E036F608A3E036F653
:101F730022E026F008A3E036F008A3E036F008A339
:101F8300E036F022C3E697F60809E697F60809E675
:101F930097F60809E697F622C3E096F008A3E096C1
:101FA300F008A3E096F008A3E096F022E056F608C6
:101FB300A3E056F608A3E056F608A3E056F622E09F
:101FC30056F008A3E056F008A3E056F008A3E05645
:101FD300F022E0F608A3E0F608A3E0F608A3E0F693
:101FE30022E6F008A3E6F008A3E6F008A3E6F02251
:101FF300E0FAA3E0FBA3E0FCA3E0FD22E0F8A3E00A
:10200300F9A3E0FAA3E0FB22E8F0A3E9F0A3EAF0E6
:10201300A3EBF022CAC0E0E6F0A308DAFAD0E0FAB4
:1020230022CAC0E0E0A3C582CCC582C583CDC583E7
:10203300F0A3C582CCC582C583CDC583DAE6D0E0E3
:10204300CA22C3E498F8E499F91220868026C3E4EF
:102053009AFAE49BFBE920E7E9122086E498F8E486
:1020630099F922C3E498F8E499F9122086E498F8E0
:10207300E499F9C3E49AFAE49BFB22EB20E7CFE966
:1020830020E7E0B90010BB0008E88AF084F8AAF062
:1020930022E4FBC8FA22EB70227B10C833C8C93391
:1020A300C9335007C39AC3DBF280069A50012ADB77
:1020B300EAC833F4C8C933F4C9FA2275F008E4C88E
:1020C30033C8C933C933C99AC99B5004C92AC93B08
:1020D300D5F0ECFBC833F4C8E4C9FA22600D08C696
:1020E300A2E713C618C613C6D5E0F322600C08C6D0
:1020F300C313C618C613C6D5E0F422700422600DBC
:1021030018C6C333C608C633C6D5E0F4182225184B
:1021130010AF08F518400C15198008F51840021582
:1021230019D2AF2200C0D0251810AF08F518500CF3
:1021330005198008F51850020519D2AFD0D0222511
:1021430018F58210AF08F518400C15198008F5181A
:1021530040021519D2AF851983222518F582E4357B
:1021630019F583222518F8E43519F9222518FAE41C
:102173003519FB222518FCE43519FD22E4732518D3
:10218300C582C0E0E51934FFC583C0E0E518C395F7
:102193008224F810AF088583198582188008858307
:1021A30019858218D2AFCEF0A3E520F0A37808E614
:1021B30008F0A3DEFAEFF0A3E58124FAF8E608F0CD
:1021C300A3E608F0A3E608F0A30808E608F0A3E6F0
:1021D30008F0A315811581D0E0FED0E0F815811534
:1021E300811581E8C0E0EEC0E0222518C582C0E079
:1021F300E51934FFC583C0E0E518C3958224F910BF
:10220300AF0885831985821880088583198582180C
:10221300D2AFCEF0A3E520F0A37808E608F0A3DE62
:10222300FAEFF0A3E58124FBF8E608F0A3E608F053
:10223300A30808E608F0A3E608F0A315811581D0EA
:10224300E0FED0E0F815811581E8C0E0EEC0E022A1
:10225300851983851882E0A3FEE0A3F5207808E0C2
:10226300A3F608DFFAE0A3FFE0A3C0E0E0A3C0E029
:10227300E0A3C0E0E0A3C0E0E0A3C0E010AF0885A6
:1022830082188583198008858218858319D2AFD077
:1022930083D08202011F851983851882E0A3FEE0A3
:1022A300A3F5207808E0A3F608DFFAE0A3FFE0A394
:1022B300C0E0E0A3C0E0E0A3C0E0E0A3C0E010AF53
:1022C300088582188583198008858218858319D229
:1022D300AFD083D08222C0D02518C582C0E0E519D3
:1022E30034FFC583C0E0E518C3958224F310AF081B
:1022F3008583198582188008858319858218D2AF52
:10230300C8F0A3E9F0A3EAF0A3EBF0A37908E70987
:10231300F0A3D8FAECF0A3EDF0A3EEF0A3EFF0A353
:10232300D0E0F0A3D0E0F0A3D0E0F0A3E520F0A349
:10233300E5F0F0A322851983851882E0C0E0A3E0CD
:10234300F9A3E0FAA3E0FBA37808E0F608A3DFFA19
:10235300E0FCA3E0FDA3E0FEA3E0FFA3E0C0E0A355
:10236300E0C0E0A3E0F5D0A3E0F520A3E0A3F5F0FF
:1023730010AF0885831985821880088583198582A3
:1023830018D2AFD082D083D0E0F8D0E0327404808A
:1023930006740280027401C0E0F404122142D0E00A
:1023A300122017227404800474028000CCC0E0ED74
:1023B300C0E0E518C39CCCAD1950011D10AF068CCD
:1023C300188D1980068C188D19D2AF122024D0E0F5
:1023D300FDD0E0FC22D083D082E9C0E0E493A3C324
:1023E30086F0C5F095F0F908E493A386F0C5F0955F
:1023F300F0700BE493A3C3994005E9048002A3E4BE
:1024030075F002A42582F582E5F03583F583D0E0EB
:10241300F9E493A3C0E0E493C0E022D083D082EC3C
:10242300C0E0EDC0E0E493A3FCE493A3FDED4C60B6
:102433000D12246AEC24FFFCED34FFFD80EFE493DE
:10244300A3FCE493A3FDED4C600D1224A9EC24FF3F
:10245300FCED34FFFD80EFD0E0FDD0E0FCE493A37E
:10246300C0E0E493C0E022C0E0C3E49396087401A3
:10247300939618400FE493667008087401936618E6
:1024830070007019A3A3C3E493960874019396187C
:10249300A3A3400DD0E0D0E0D0E002245AA3A3A32D
:1024A300A3A3A3D0E022C0E0C0F088F0E493667059
:1024B300080874019366187000A8F0A3A3700BD0EA
:1024C300F0D0E0D0E0D0E002245AA3A3D0F0D0E0D3
:1024D3002274F61221EDEAFEEBFF8C088D09EE243F
:1024E30034F8E43FF9E8FCE9FD122607E0FAEE24AC
:1024F30037F582E43FF583E0F88508F0A4C885F05A
:102503000A8509F0A4250AF9EA28F8E439F97A25B5
:102513007B00122086EA8C828D83F0FA1313135406
:102523001FF8EE28F8E43FF9E8245DF582E439F575
:1025330083E0C0E074075AF8D0E0B800028004C317
:1025430013D8FCA2E05003EA8020EE2436F582E49F
:102553003FF583E0F5F0EA84A8F0EE28F8E43FF9CC
:10256300E82438F582E439F583E0F97F0302229900
:1025730074F51221EDEAFEEBFFEE2434F582E43F1D
:10258300F583E0C0E0122607D0E0F08E828F83A3AC
:10259300A3A3A3A3E0FAA3E0FB8E828F83A3A3A349
:1025A300A3A3A3A3E0FCA3E0FDECC39AF50AED9B70
:1025B300F50BEE247FF508E43FF509850882F583E2
:1025C300E06401702AEE2480F582E43FF583122350
:1025D300AB1226117402122127E960137CB07D042B
:1025E300EEFAEFFB120CE0850882850983E4F0AC78
:1025F3000AAD0BEEFAEFFB1224D4E9F9122E6F7F2A
:1026030004022299EE2435F582E43FF58322C08249
:10261300C083851882851983E0F8A3E0F9C3EA9C97
:10262300EB9D5010C3EC98ED99401BC3EA98EB99CE
:102633005014800EC3EA98EB994007C3EC98ED99C8
:102643004004790180027900D083D08222EAC39CBE
:10265300FAEB9DFB2274ED1221ED900376E0640802
:102663006005E06407702C9061C8E060269003A4C5
:10267300E0F874FF68601CE875F00AA4C8AAF02AA1
:10268300F974A628FE740339FF8E828F83A3A3A354
:10269300E0700579000227F1EE2468F50EE43FF5BA
:1026A3000F906060E0850E82850F83F075102075B2
:1026B3001105750800750900E5D914F50AE5D95423
:1026C30003F50B601FEE2482F50CE43FF50D740354
:1026D300650B6059E50A6017EE2467F582E43FF560
:1026E30083E0700B793DEEFAEFFB120D1080A4909E
:1026F300051BE064016023850C82850D83E0600483
:102703007A0480027A00E50AC39AFA95E0FB120B79
:102713006C8A088B09EA45097006120F680226962F
:10272300850C82850D83E070048A108B117A0080FA
:1027330014E5D9C0E0EAF8E51028F582E43511F58F
:1027430083D0E0F00AEAC3950A40E6850C82850D42
:1027530083E0602874FC250AF50A7810122394ACF0
:102763000AA90BEEFAEFFB120DBE7402122127E940
:10277300700AAA08AB0912142A0226E77403650B30
:102783006054850A0C750D00780C122394AC10ADBF
:1027930011AA08AB09120D827402122127850E8239
:1027A300850F83E0F87480687005750C7F8002885C
:1027B3000CE50CF50D780D122398780B122398A9CC
:1027C3000AAC08AD099003A4E0FA7B001209A474D3
:1027D300021221278013900376E06408600BAC108B
:1027E300AD11EEFAEFFB120E54120F7479017F0C48
:1027F30002229974F31221ED74FC122111EAFEEB0B
:10280300FF8909A2AFE433F508C2AFEE2463F50AEA
:10281300E43FF50B8010AA0AAB0B120D3A12142AEF
:102823009004B7E004F0850A82850B83E0F8A3E007
:10283300F9E849602DE82402FAE439FBEA2402F5B9
:102843000CE43BF50D780C1223948A828B83E0FC15
:10285300A3E0F9EEFAEFFB120D2E7402122127E921
:1028630060B49004B7E0604D9004B8E0F89004B70A
:10287300E0C398500C74026509703A9004B9E060A3
:10288300348E828F83A3A3A3A3E085188285198343
:102893001228C8740212215DE81228C89004B6E019
:1028A30028F07402122177AA18AB1979011209F8DA
:1028B3009004B7E4F0E508A2E092AF740412212774
:1028C3007F06022299F0A3E4F09004B7E0F8220017
:1028D300008521878522C622C0E074EB1222D9A28B
:1028E300AFE433F508C2AF759B00906182E0A2E0CC
:1028F3005030E591A2E0502A7591FE740165217074
:1029030021122A6E120EAE122A5C1223A7122C1960
:102913007404122127E9640170057901120EFC1277
:102923002658906182E0A2E5505DE591A2E55057FB
:102933007591DF900376E064076005E06408702F0B
:10294300122A6E74016521703E120EAE122A5C12B9
:1029530023A7122C197404122127E9640170057945
:1029630001120EFC7901EEFAEFFB1227F68018E054
:10297300640D7013900398E004F064287002E4F08F
:102983007A00E0F9120F7A906182E0A2E640030236
:102993002A31E591A2E64003022A317591BF9003E3
:1029A30076E064057008120E96120EA28003120ED2
:1029B3009C752100120F08E9900377F07900120E3D
:1029C300FC120C4A7A017B00900375E0F91213FAAA
:1029D300907803E06442705690051FE014F0704E47
:1029E300C2AF1229E800782AD0E0F618D0E0F6E565
:1029F3009F5407F87005750DFF8003750D7FC4C0E4
:102A0300E07829E6F50A08E6550DF50B740B780A0C
:102A13001220EFD0E0250AF8906270E0A2E740F8B8
:102A2300E8C333906272F0906270E0D2E0F090619C
:102A330081E0A2E35009E5E9A2E3500375E9F7A3B6
:102A4300E0A2E75009E591A2E7500375917FE508FD
:102A5300A2E092AF7F080223388E828F83E0F8A32F
:102A6300E0C82416F582E438F583229003A4E0F845
:102A730075F00AA4C8AAF02AF974A628FE740339CB
:102A8300FF22C0E0C0D0C082C083906183E0A2E097
:102A93005009E5BFA2E0500375BFFEE0A2E1500973
:102AA300E5BFA2E1500375BFFDE0A2E25009E5BF17
:102AB300A2E2500375BFFBE0A2E35009E5BFA2E326
:102AC300500375BFF7E0A2E45009E5BFA2E4500349
:102AD30075BFEFE0A2E55009E5BFA2E5500375BF5E
:102AE300DFE0A2E65009E5BFA2E6500375BFBFD001
:102AF30083D082D0D0D0E032C0E074F21222D9E584
:102B0300A7A2E4500FE5A1A2E4500953A7EF75A1D2
:102B1300EF122B4FE5A7A2E5500CE5A1A2E5500665
:102B230053A7DF75A1DFE5A7A2E15009E5A1A2E163
:102B3300500375A1FDE5A7A2E2500CE5A1A2E25066
:102B43000653A7FB75A1FB7F0102233874F81221FA
:102B5300ED752101900376E0640670077A007B002F
:102B6300120E7EA2AFE433FED2AF90037CE0640189
:102B730070187A207B00900375E0F912150E7A2005
:102B83007B00900375E0F9121400906182E0D2E6B5
:102B9300F090051CE0602185C622801690037BE03F
:102BA30064017008E5C654F84405F5C653BEFC122B
:102BB30028D47401652160E4EEA2E092AF7F0102A4
:102BC30022990000008E238F248582288583278500
:102BD3001882851983E0CEA3E0CF852882852783D9
:102BE300EBC9EAC8EDCBECCA75F010C3E833C8E90A
:102BF30033C9EA33CAEB33CBC3EA9EF526EB9FF521
:102C030025B35004AB25AA26EC33CCED33CDD5F058
:102C1300DAAE23AF242274F11221ED8A088B098CDA
:102C23000A8D0B9090E67808121FAF740F12215D86
:102C3300780C121FD59090E6780C121FAF780879A4
:102C43000C1216099090DA50107808790C121F872D
:102C530078081216294014800E780C7908121F8701
:102C6300780C12162950047901800279007F08023A
:102C7300229974ED1221ED8A088B098C0A8D0B9031
:102C830090E67808121FAF741312215D780C121F9F
:102C9300D59090E6780C121FAF780C7908121609BC
:102CA30040117808790C121F87AA08AB09AC0AAD4A
:102CB3000B802275100075110075120075130178D1
:102CC30010790C121F8778107908121F4EAA10ABC7
:102CD30011AC12AD137F0C0222999090E678081282
:102CE3001FD58A828B837808121FC27F0402229920
:102CF30074F51221ED8C828D837808121FD58A8298
:102D03008B837808121F9B122D47C3E098F0A3E032
:102D130099122D39401E9091167808121FD58A8278
:102D23008B837808121F748E828F83E02420F0A394
:102D3300E0344EF080A4F08E828F83C3E09420A30E
:102D4300E0944E22EA2404F8E43BF9E8FEE9FF8C20
:102D5300828D83A3A3A3A3E0F8A3E0F98E828F83DC
:102D63002274F51221EDE9FE9004D2E0FAA3E0FB10
:102D7300EE29F8E433F974C228F582748F39F583A8
:102D8300E02AF508A3E03BF5097808122394909014
:102D9300FE121FF3122BC874021221278A088B0913
:102DA3008C0A8D0B74107808121F16AA08AB097FC2
:102DB3000402229974F11221ED8A0C8B0D8C0E8D75
:102DC3000F741112215D1223AB741112215DE024E3
:102DD30001F508A3E03400F509E4F50AF50B780CD6
:102DE3007908121E139090D27808121FD5780C79A7
:102DF30008121E13AA0CAB0DAC0EAD0F122BC87428
:102E0300021221278B09EA450960047A0180027ABC
:102E130000EC2AFCE43DFD741312215DE0F8A3E00D
:102E2300F9E8FEE9FFECF8EDF97A717B02122086EE
:102E330088088909E4F50AF50B8E828F83780812D6
:102E43001FE4ECF8EDF97A717B021220868A088B75
:102E530009740578081220FE8E828F83A3A3A3A38F
:102E6300E508F0A3E509F07F08022299C082C08338
:102E7300E9906000F0D083D08222C0E074F2122285
:102E8300D9A2AFE433FED2AFC2C0E5D1A2E450066B
:102E930075D10F121364EEA2E092AF7F01022338C3
:102EA300C0E074F21222D9A2AFE433FED2AFE589B7
:102EB300A2E04006E589A2E150031212BC75890025
:102EC300758900C2C5EEA2E092AF7F01022338C02C
:102ED300E0C0D0E8C0E0E9C0E0A9A8D2AFC2C7E92A
:102EE300A2E7E433F8E9A2E792AFD0E0F9D0E0F843
:102EF300D0D0D0E032C0E0C0D0E8C0E0E9C0E0EA22
:102F0300C0E0C082C083A2AFE433FAD2AF9009BF5E
:102F1300E0F8A3E0687008539AFBA374018022C20F
:102F2300E99009BFE0F8740128F0743F28F582E4C2
:102F33003409F583E0F5C19009BFE0C394804002F2
:102F4300E4F0EAA2E092AFD083D082D0E0FAD0E0FE
:0F2F5300F9D0E0F8D0D0D0E032C2AF02000022B7
:102F6400FFFFFFFFFFFFFFFFC082C083E990177CD4
:102F7400F0D083D08202011F74F6122181E99002FD
:102F8400E8F0900348E0F508750900740278081227
:102F940020FEAA08AB0912146C9002E912392F9092
:102FA40002E9123D1C606F900348E075F003A4FA37
:102FB400ABF012146C90030612392F900306123DE5
:102FC4001C700B9002E9123CED12147280489003BD
:102FD40006124C817AFF7BFF12122C7A0080198A28
:102FE40008750900740278081220FE12472974FF3C
:102FF40012312FE4F0A3F00A900348E0F8EAC398F2
:1030040040DD79051208909002E8E0F912077C7A15
:103014001A7B09120B0C0247CC74F41221818A0822
:103024008B09EB548060479002E8E0F91213E28ABE
:103034000A8B0BAE0AAF0BEE4F602A8E828F83E0B1
:1030440064B0701A1208A2E960148E828F83A3A35D
:10305400A3A3E0F9EE2405FAE43FFB120872EEFAAA
:10306400EFFB1213D0AA08E5096480FB80047A0000
:103074007B0002327F74F212218174FB122111EA67
:10308400FEEBFFEE4F6045740312215DEEF0A3EFFB
:10309400F0851882851983ECF0A3EDF074021221F7
:1030A4005DE9F0AA18AB19120776E9F50870757492
:1030B4001312215DE0F50AA3E0F50BE50A450B6068
:1030C400638E828F831236B8EE4F700575080280C6
:1030D400537A067B0012146C8A0C8B0DA80CA90D74
:1030E400E8497005750813803B88828983E41231AE
:1030F4002FEEF0A3EF12324BE50AF0A3E50BF090AC
:1031040002EC1232449002EC6017E0FCA3E080036E
:10311400EAFCEBFD8C828D8312324470F38C828D39
:1031240083124344A9087405024F01F0A3124C63AF
:10313400A32274F21221818908890C750D0074038D
:10314400780C1220FE850C0A850D0B9002EBF09092
:1031540002E912414F123242602E12147279008039
:103164001D890C750D007402780C1220FE9002E982
:103174001245E88882F583A3A3E4F0A3F009900341
:1031840048E0F8E9C39840D9900348E0FA850AF08A
:10319400A4CAA8F0850BF0A428FB12146C8A0C8B2B
:1031A4000DAE0CAF0DEE4F7003023238900348E0C1
:1031B400FC850AF0A4CCA8F0850BF0A428FD7900C6
:1031C4001213BE7C0080318D0C750D007403780CD5
:1031D4001220FE8A828B8312323D88828983E4F036
:1031E40012324AA3A3F0A3F00DEDC3950840D8EE24
:1031F400250AFEEF350BFF0C900348E0F8ECC3986A
:1032040050288C0C750D007402780C1220FE90026C
:10321400E912323DE82402500109FAE9FB8A828B63
:1032240083EEF0A3EFF07D0080BFE5089002EBF0A1
:10323400790080027913024F041245ECF922A3A30A
:10324400123CF1EA4B22A3124C63A3A3A32274F40D
:103254001221817900EAA2E0501F75089675099041
:10326400780812239479107C047D007A7E7B1712EF
:10327400088A7402122127E9F980007F040222538C
:10328400C082C0839002EC123D1C601C888289833A
:10329400A3A3E06A7003A3E06B8882898370E8A328
:1032A400A3A3A3123CED80047A007B00022F757463
:1032B400F212218174FD122111EAFEEBFF851882BE
:1032C400851983E4F0A3F0740212215D7401F012F5
:1032D4003D197014120A4612146C9002EF12392F21
:1032E400123D197003023445123A2FEE2404F50AF4
:1032F400E43FF50B850A82F583E024FE603C24FC60
:10330400607424FE607E24FE700302339524FE70F4
:10331400030233A224FE70030233AF24FE700302BF
:1033240033BC24FE70030233C924FC70030233EA65
:1033340024FE700302340202343E120A469002F163
:10334400EAF0A3EB1234511204BEE9600302343EE6
:103354009002F11223AB8E828F83A3A3A3A3A312A3
:103364004C81850882850983123CED12085A740247
:1033740012212702343EAC18AD19EEFAEFFB120805
:10338400A802340DAC18AD19EEFAEFFB1208AE80AA
:1033940078AC18AD19EEFAEFFB1208B4806BAC18D8
:1033A400AD19EEFAEFFB1208BA805EAC18AD19EE57
:1033B400FAEFFB1208C08051AC18AD19EEFAEFFB1E
:1033C4001208C680447402122167880C890D780C97
:1033D4001223947402122177EEFAEFFB1208CC74D4
:1033E400021221278023AC18AD19EEFAEFFB120864
:1033F400D2E9F87016740212215DE4F0803CAC1836
:10340400AD19EEFAEFFB1208D8E9F8E8602C8E82C9
:103414008F83A3E064146022850A82850B83E09085
:1034240002F1F0851882851983123CED9002F212A4
:10343400392FE8A31234511204B8EEFAEFFB120844
:1034440030740212215DE0F97403024F01F07CF143
:103454007D02850882850983123CF12274E81221D9
:103464008174FA122111740412215DECF0A3EDF0C1
:103474008A128B13EA2405F50EE43513F50FEA24BA
:1034840002F510E43513F511851082F583123CED35
:103494001205AE8A0A8B0B7508007C037D00790047
:1034A4007AF17B021213BEE50E2402F516E4350F01
:1034B400F5177402122167880C890D780C12239475
:1034C400850E82850F83A3A3A3A3E0F50C750D00DD
:1034D400780C122394E50E2405F50CE4350FF50D54
:1034E400780C122394851682851783123FF41207F1
:1034F4009474061221278A0C8B0DE50C450D70037C
:103504000236818020851882851983E08882898328
:10351400F00508851882851983A3E0C0E01236C23D
:10352400D0E0F00508E50A24FBFAE50B34FFFBC301
:10353400E5089AE49B40030236817E007F008512F1
:1035440082851383A3A3A3A3E0F509780912239822
:10355400E4F514F51578141223947514EE75150218
:1035640078141223949002EF1223AB740912215D94
:103574001223ABE50A24F9F9AC0CAD0D8510828554
:103584001183123CED1209027409122127E9600328
:10359400023622850E82850F83A3A3A3A3A3A3A32C
:1035A400E0F89002EEE0687075E0F5148E1578147A
:1035B400122394124C7E850E82850F83A3A3A3A3AA
:1035C400A3A3A3A3123CED1213B87402122127E99A
:1035D400604C9002F2123D1C703BE4F51478141216
:1035E40023947CFF7DFF7907851082851183123C2B
:1035F400ED12086C7402122127123D227017850EF9
:1036040082850F83124E1B740412215D1246DC1254
:1036140040250236B5850C82850D831236B8A8186C
:10362400A919881489157814122394740412215D3D
:103634001223AB8516828517831239251207A074CD
:10364400041221278A0C8B0DEE4F70030234FE12F4
:1036540036C2EE1236CD123FDBEF1236CDF8A3E0C0
:103664003400F9E50C450D6003023509888289832D
:1036740074FFF005081236C274FFF00508E508600F
:103684001A1313543F1239351204CAE9600990021F
:10369400F2123CED12142A79008016850E82850FF1
:1036A40083124E1B740412215D1246DC12434479CA
:1036B4000A023FAEA3A3A3A3E0FEA3E0FF22A8084F
:1036C4009002F2E028123FDB22F00508089002F293
:1036D400E0282274E812218174FA12211174021272
:1036E400215D12392F740412215DECF0A3EDF07406
:1036F4000212215DE02405123FC4E0F50CA3E0F5BD
:103704000D740212215DE02402F510A3E03400F5EB
:1037140011851082F583123CED1205AE7508007513
:103724000900EA24FCFEEB34FFFF8008050CE50CDD
:103734007002050DA808C3EE98EF940050030238F8
:10374400E1A818A919880E890F780E1223948514FC
:1037540082851583A3A3A3A3124C85122394E51495
:103764002405F50EE43515F50F780E12239485140F
:103774008285158312392312079474061221278A2D
:103784000E8B0FEA450F70030238E1EA2404F516A4
:10379400E4350FF517851682F583E0F50CA3E0F503
:1037A4000D851882851983124C818A828B83A3A389
:1037B400A3E0F9851082851183123CED120782E99A
:1037C400F50960030238E1740212215D123FEBF542
:1037D400097809122398E4F512F513781212239448
:1037E4007512EE75130278121223949002EF1223CD
:1037F400AB740712215D1223ABEEF9AC0EAD0F854D
:103804001082851183123CED1209027409122127DA
:10381400E9F50960030238E1E508703FE4F50EF5C7
:103824000F780E1223947CFF7DFF79098510828521
:103834001183123CED12086C7402122127124011FC
:10384400700D740412215D12391879110239159022
:1038540002EEE024029002F2F080149002F2E0FA08
:103864009002EEE0790024025001096A497072A8BE
:10387400089002EEE0FAE82AFAE43400FBEE9AEF4C
:103884009B405A851682851783E0C0E09002F312AC
:1038940036C7D0E0F00508851682851783A3E0C0FB
:1038A400E0089002F31236C7D0E0F005089002EE6B
:1038B400124C85122394124C7EA808123FB812139E
:1038C400A674021221279002EEE02508F50874FF81
:1038D400650C700474FF650D6003023730E5086001
:1038E4001F9002F2E0F5F0E508841239351204D095
:1038F400E960099002F3123CED12142A7900801158
:10390400E509700375090A740412215D123918A9B6
:1039140009023FAE124153E50CF0A3E50DF022A3DA
:10392400A3124F10AA0CAB0D22A3A3EAF0A3EBF051
:10393400229002F1F07CF17D0285108285118312C0
:103944003CF12274EC12218174FC122111124454B2
:103954007402122177123CE712079A8A0C8B0DEA43
:10396400450D7003023A1F123A2FA818A91988109E
:10397400891178101223947CFF7DFF790B850882CE
:10398400850983123CED12086C7402122127123B44
:1039940025700C850A82850B83124022023A2C8EF4
:1039A400828F83A3A3A3A3E0F5127812122398E4D1
:1039B400F512F51378121223947512F17513027827
:1039C400121223947810122394740912215D122385
:1039D400AB740912215DE0F9AC0CAD0D850882854C
:1039E4000983123CED1209027409122127E9FE70C1
:1039F400157CF17D02850882850983123CED120451
:103A0400D6E97009802074166E70027E009002F26E
:103A1400123CED12142AEE7004800B7E01850A829A
:103A2400850B83124341EEF9024356EE2402F50856
:103A3400E43FF5092274EC12218174FC122111EA8D
:103A4400FEEBFF8C0E8D0FEE2405F508E43FF5091F
:103A54007402122177850882850983123CED1207CE
:103A64009A8A0C8B0DEA450D7003023B15EE240275
:103A7400F50AE43FF50BA818A919881089117810E4
:103A84001223947CFF7DFF790D123CE712086C74BD
:103A940002122127123B25700B85088285098312A7
:103AA4004022807A8E828F83A3A3A3A3E0F51278A9
:103AB40012122398850882850983A3A31223AB7568
:103AC40012F175130278121223947810122394744D
:103AD4000912215D1223AB740912215DE0F9123C35
:103AE400E31209027409122127E9FE700F7CF17DAB
:103AF40002123CE71204DCE97009802074166E702F
:103B0400027E009002F2123CED12142AEE70048040
:103B14000B7E01850882850983124341EEF9024335
:103B240056123D2CF510A3E0F511EA45112274E874
:103B340012218174FE1221118A168B178C148D1593
:103B4400EA2405F50CE43517F50DEA2402F50EE434
:103B54003517F50F850E82F583123CED1205AE8AFA
:103B6400088B09750B007C037D0079007AF17B02D8
:103B74001213BE750A00E50814F5100424FFF508B5
:103B8400E50934FFF50980549002F1E0FA9002EE61
:103B9400E0F8EA28F8E43400F9E50898E5099950D2
:103BA4000D9002F1E0F8E510C3989002EEF0E0F514
:103BB400127513007812122394124C7E9002F2E0D4
:103BC4002AFAA3E03400FB1213A6740212212790F0
:103BD40002EEE0F89002F1E028F0050A850C8285F7
:103BE4000D83A3A31245F84003023CC89002F1E000
:103BF400C39508E495094003023CC8AE0AEE2EFEC4
:103C0400E433FF123D07AC18AD19124C99E439FBAB
:103C140012079A8A128B13AC12AD13EC4D701B75FC
:103C24000B01123CF71243459002F2123244600336
:103C340012142AA90B7402023FB0851682851783D9
:103C4400A3A3A3A3E0F50B780B122398E4F512F5D4
:103C54001378121223947512EE751302781212233C
:103C6400949002EF1223AB740712215D1223ABA9C7
:103C740010850E82850F83123CED1209027409121D
:103C84002127E9F50B709B9002F2123D1C600302A0
:103C94003B8CE4F512F51378121223947CFF7DFF1C
:103CA400790F850E82850F83123CED12086C740225
:103CB400122127123D226003023B8C123CF7124072
:103CC40026023C397CF17D02850E82850F83123CED
:103CD400ED1204E2E96003023C2C7900023C39ACA9
:103CE4000CAD0D850A82850B83123CF122E0FAA308
:103CF400E0FB22123D07E0FAA3E0F9EA851482858D
:103D0400158322850C82850D83E02EF8A3E03FF90C
:103D140088828983229002EF124E1FE84922123DC5
:103D24002CF8A3E0F9E849229002F2EAF0A3EBF0C0
:103D34009002F2E02274E812218174FA12211174C3
:103D44000412215D12392F8C168D17740412215D13
:103D5400E02405F50EA3E03400F50F740412215D90
:103D6400E02402123FC4123CED1205AE8A0A8B0B0A
:103D74007F007E00A818A9198808890978081223E9
:103D840094850E82850F83A3A3A3A3E0F5088E096F
:103D94007808122394E50E2405F508E4350FF50997
:103DA4007808122394850E82850F83A3A3123FF40F
:103DB40012079474061221278A0C8B0D8029123F56
:103DC400E5F00F123FE5F00F9002EE12433012239C
:103DD40094124C7EEFF8123FB81213A6740212210B
:103DE400279002EEE02FFFE50C450D7003023E74B0
:103DF400851882851983124466A3A3A3E0F9851468
:103E040082851583123CED120782E9FEE50C240439
:103E1400F510E4350DF511EE7050740412215D12A5
:103E24003FEBF5087808122398E4F508F5097808BB
:103E34001223947508EE75090278081223949002EF
:103E4400EF1223AB740712215D1223ABE50A24FAA7
:103E5400F9AC0CAD0D851482851583123CED120965
:103E6400027409122127E9FE603912400112434409
:103E7400EF7003023F9B9002F2E0F5F0EF849002B2
:103E8400F1F07CF17D02851482851583123CED12DC
:103E940004E8E960099002F3123CED12142A790057
:103EA400023FAE8F08EF703BE4F512F5137812125F
:103EB40023947CFF7DFF7911851482851583123C40
:103EC400ED12086C7402122127124011700912407D
:103ED40001124025023FAE9002EEE024049002F26B
:103EE400F080359002EEE0F89002F2E0FAE8240463
:103EF400FCE43400FDEC6A4D6003023E7AE50A24DA
:103F0400FAFAE50B34FFFBE50828F8E43400F9EA93
:103F140098EB995003023E7A851082851183E0C0A4
:103F2400E09002F3E02FF8A3E034008882F583D018
:103F3400E0F00F851082851183A3E0C0E0123FD228
:103F4400D0E0F00F740212216788088909780812FA
:103F54002394740212215D1223AB850E82850F8394
:103F64001239231207A074041221278A0C8B0DEA3C
:103F7400450D7003023DC2740212215DE0C0E012DF
:103F84003FD2D0E0F00F740212215DA3E0C0E01232
:103F94003FD2D0E0023DCAEE70027E0A850E8285D1
:103FA4000F83124007124344EEF974061221277F4F
:103FB400100222539002F3E028FAA3E03400FB221B
:103FC400F514A3E03400F515851482F58322123F1D
:103FD400D6229002F3E02FFAA3E034008A82F5831C
:103FE40022123FD674FF22124153A3A3A3A3E022BB
:103FF400124F10850E82850F83123CF122851082A8
:10400400851183124E1F851682851783229002F331
:10401400EAF0A3EBF09002F3124E1FE84922124398
:104024004AE8F0A3E9F079112274EA12218174FEBE
:104034001221118A088B098C128D13EA2405FEE4DF
:104044003509FFAC18AD198E828F83123CED12072F
:104054009A8A0C8B0DEE2406F50EE43FF50FEA4523
:104064000D7003024125E5082402F50AE43509F53B
:104074000B8A828B83A3A3A3E0A2E5502885188230
:10408400851983123CED1208F68A108B11EA45114A
:1040940060207912123CE385108285118312217FFE
:1040A400E9F50C707F850E82850F83E060097952F3
:1040B4008011750C0E806D850882850983A3A3A3E6
:1040C400A3E0F9E4F508F50978081223948E828FA9
:1040D40083A3A3E0F50878081223948E828F83A328
:1040E400A3A31223AB8E828F83124C81123CE7125E
:1040F40009087406122127E9F50C7011850E8285D2
:104104000F83E0702D123CE71204EE8025741665CF
:104114000C7011750C00741812215D12414FE4806B
:1041240010750C01124E17851282851383E8F0A3D3
:10413400E9F0850E82850F83E0600479008002A98E
:104144000C74021221277F0E02225312415322E0E3
:10415400F8A3E0F58388822274EC12218174F712AB
:1041640021118A0A8B0B8C108D11EA2405FEE4358B
:104174000BFF750C00AC18AD198E828F83123CEDC9
:1041840012079A8A088B09EA4509700302431BE562
:104194000A2402F50A5002050B8A828B83A3A3A387
:1041A400E0A2E5502F851882851983123CED120890
:1041B400F68A0C8B0DEA450D604F7912AC08AD09F7
:1041C400123CE7850C82850D8312217FE9F50C6092
:1041D4000302431E850A82850B83E0F508A3E0F5FC
:1041E40009AA08FB1208EAEA4B70197AFF7BFF124E
:1041F40008EAEA4B70030243118A828B83E508F0D4
:10420400A3E509F07508008008750C0E02431E052D
:10421400089002EBE0F8E508C398400302431185D7
:10422400080E750F007403780E1220FE8A828B83A9
:10423400A3A3E0250EF8A3E0350F1246E570D08E57
:10424400828F8312433912392F8E828F83A3A31254
:10425400433912392DEE2404F508E43FF5098508A5
:1042640082F583E088828983A3A3A3A3F0A3E4F067
:10427400EE2405F50EE43FF50F850E82F583124317
:1042840039A3A3A3A312392D75120775130078124D
:10429400122394EEFCEFFD740412216F1213A67422
:1042A40002122127E4F512781212239485088285DC
:1042B4000983E0FC7D007917123CE712086C740254
:1042C400122127740712215D12392F740712215D00
:1042D400E0FA4B603D85088285098312433012233E
:1042E40094850E82850F83124C811213A6740212D8
:1042F40021277402122177123CE71204F4E96026A4
:10430400740712215D123CED12142A8019750C09F0
:104314008008750C118003750C01124E17851082EC
:10432400851183124344A90C74098028E0F50875AB
:104334000900780822123CF1888289832212434AB8
:10434400E8F0A3E9F022E0F8A3E0F9850E82850FF6
:10435400832274041221277F0C02225374EC12214D
:1043640081124454751000EE2402F50CE43FF50D5F
:10437400850C82F583123CED1208EA8A088B09EA5F
:1043840045097003024438850A82850B83E0640181
:10439400600302442DAC08AD09AA0AAB0B1208DE77
:1043A400E9606E8508828509831236BAEE2406F523
:1043B4000AE43FF50B8E828F83A3A31223AB8E8274
:1043C4008F83A3A3A3A31223AB850A82850B831235
:1043D40023AB79188E828F83124466123CED120946
:1043E400087406122127E9F8741668700B850A828E
:1043F400850B83E4F0A38014E860128E828F83120D
:104404003CED850E82850F83EAF0A3EBF0881080E3
:1044140018780E122394AC08AD09EEFAEFFB1208DB
:10442400E47402122127E9F510AA08AB091208F076
:10443400E510700E850C82850D83123CED1204FA92
:104444008009741665107003751000A91002435B8F
:10445400EAFEEBFF8C0E8D0FEE2405F50AE43FF522
:104464000B22124F10850C82850D832274EA1221CF
:10447400817508007509007E007F00750A00EC2430
:1044840002F510E43DF5118035EC65087003ED6527
:1044940009600302452588828983A3A3E06A700327
:1044A400A3E06B707C88828983A3A3A3A3124E1B11
:1044B400EE28FEEF39FFEA28FAEB39FB050A12452C
:1044C400F5503A850A0C750D007403780C1220FE21
:1044D4008510828511831245E81246E5601FE508C0
:1044E400450970A58C088D09888289831236B8889D
:1044F400828983A3A3E02EFAA3E03F80BEE50AC32A
:10450400940250030245E3750800750900EE4F60FC
:1045140010EEFAEFFB1214248A0E8B0FEA450F708B
:104524000579000245E5750B000245B8850B0C754D
:104534000D007403780C1220FE851082851183E02F
:10454400250CF50CA3E0350DF50DE50C2406F5144A
:10455400E4350DF515851482F5831246EA6042E5CB
:104564000C2404F512E4350DF513851282F583123B
:1045740023ABE50E2508FAE50F3509FB1213A674E3
:1045840002122127851282851383E02508F508A3EA
:10459400E03509F509851482851583123CED121462
:1045A4002AE50B600D7C087D007900AA0CAB0D1286
:1045B40013BE050BE50BC3950A5003024530851065
:1045C40082851183124E1B88828983A3A3A3A3A38C
:1045D400A3E50EF0A3E50F12324BEEF0A3EFF07952
:1045E4000102414A1245EC22E0250CF8A3E0350D06
:1045F400229002EBE0F8E50AC3982274F0122181BC
:104604008A0E8B0F8C0A8D0B750D00750C00805073
:104614007916EE2406F508E43FF5098E828F83A30C
:10462400A31223AB8E828F83A3A3A3A31223AB85F0
:1046340008828509831223AB850E82850F83A3A389
:10464400123CED1209087406122127E9F50D7416BF
:10465400650D706C850882850983E4F0A3F0050C70
:104664009002EBE0F8E50CC3985066AA0C8A087532
:104674000900740378081220FE850A82850B83A33F
:10468400A3124734E8FEE9FF8E828F831246EA6064
:1046940040EA2401F508E43400F5099002EBE065F2
:1046A400087002E509601488828983A3A3A3A3A3E5
:1046B400A3A3A3123D1C60030246147918024616F4
:1046C400E9609B124E17741012215D1246DC1243EE
:1046D40044A90D7F08022253E0FAA3E0F5838A82FD
:1046E40022F988828983124F10EC4D2274F612212C
:1046F400817C0080010C900348E0F8ECC398501EC4
:104704008C08750900740278081220FE124729E00B
:104714006A7003A3E06B70DDE8FAE9FB80047A00B9
:104724007B000247CC9002E91247348882898322B5
:10473400E02508F8A3E03509F92274F21221818AF0
:10474400088B09750A0080278E828F83A3A3A3A3F5
:10475400123242600312142A7C087D007900EEFABA
:10476400EFFB1213BE8E828F83E4F0A3F0050A12CE
:1047740045F55027850A0C750D007403780C12203A
:10478400FE850882850983A3A3E0250CFEA3E035FA
:104794000DFF8E828F83123D1C70AD8508828509C2
:1047A4008374FFF0A3F0024F0474F61221811208FF
:1047B4009C8A828B83E582458370067A007B008025
:1047C40007A3A3A3A3123CED7F0202225374F412A5
:1047D400218189088C828D83E06402703C124DBA79
:1047E400FEA3E0F9EEF87402687003742969702975
:1047F400750A02750B00780A122394741012215D55
:104804001223AB741012215D1223ABA90812123EBD
:104814007406122127E9F98002790102327F74E8D3
:1048240012218174FB122111E9851882851983F004
:104834008A168B17ECFEEDFF7510008E828F83A312
:10484400A3A3E0A2E4502D741D12215D123CED12CD
:1048540008F68A828B83E58245837003024C59797A
:104864000AEEFCEFFDAA16AB1712217FE9F51060E2
:1048740003024C5C741F12215DE0F508A3E0F50906
:10488400742112215DE0F50AA3E0F50B74231221D3
:104894005DE0F50EA3E0F50F8E828F83E064026085
:1048A40003024BFAA3124E1B850882850983A38554
:1048B4008212858313EE2406F50CE43FF50D8882FD
:1048C4008983124C99F514E439F515781412241ED1
:1048D400010000280128FC4807000228C1490328D8
:1048E4002F490029F04A01291B4B0229BC4A0329FC
:1048F400F04A0429944BFA4BE50E450F6003024B32
:10490400F5850C82850D83124E1BE8FAE9FB8A8239
:104914008B83E0850A82850B83124CA41223948A2C
:10492400828B83A3E0FCA3E0024B7EE50E450F607F
:1049340003024BF5850A82850B837401F0124C8EB9
:10494400850882850983F07C007D008E828F83A395
:10495400A3A3A3E02401FAA3E03400FB12079AEA1C
:104964004B60408A828B83E02402F8850A82850B9F
:1049740083E028F0EA2404F8E43BF988828983E0A0
:10498400851282851383124CB2124CA41223948A8A
:10499400828B83A3124C81E5082403FAE43509FBD6
:1049A400024B83850A82850B83E02404F07C047D1A
:1049B400007900AA12AB131213BE024C5CE50E453B
:1049C4000F6003024BF5124C8EFEA3E0FF850A82B2
:1049D400850B837404F0EE850882850983F0EF85E6
:1049E4001282851383F07403122177EEFAEFFB121F
:1049F400079A8A0C8B0DEA450D7003024A9F8A823E
:104A04008B83A3A31236B87401122167880E890F11
:104A1400780E122394740512215D1223AB7CFF7D62
:104A2400FF1207A074041221278B0FEA450F70337D
:104A3400850C82850D83124C85122394850C828506
:104A44000D83A31223AB7C027D007A697B9112054E
:104A54009C7404122127E9700A740112215D74FF09
:104A6400F0A3F08E828F83E064027039750C0275B6
:104A74000D00780C1223948E828F83A3124C81E54F
:104A8400082404FAE43509FB1213A6740212212740
:104A9400850A82850B83E024028009740112215D5A
:104AA400EEF0A3EFF0740112215D124C7374011245
:104AB400215D124C6A024BEFE50E450F6003024B79
:104AC400F5850C82850D83124F09AA16AB171212B5
:104AD40044850A82850B837402F0850882850983E4
:104AE400EAF0851282851383EB024BF2E50E450F43
:104AF4006003024BF5124C8EF8A3E0F9850A828517
:104B04000B837402F0E8850882850983F0E9851235
:104B140082851383024BF2850C82850D83123CED52
:104B24001213A0EAFAF8C3950EE4950F405CE86509
:104B34000E450F70047A008021851882851983E060
:104B4400FCE50E2CFCE4350FFDC3EC98ED9400500D
:104B540003E08005E50ECAC39AFAEA850A82850B4A
:104B640083F08A0A750B00780A122394850C8285D7
:104B74000D83E0250EFCA3E0350FFDAA08AB091256
:104B840013A67402122127024C5C751007024C5CB8
:104B9400E50E450F705B850C82850D83124E1B85D7
:104BA4000A82850B837407F088828983124C6B1206
:104BB4004C63E0851282851383F0E82402FAE43919
:104BC400FB8A828B83124C738A828B83124C6AA376
:104BD400A312324A124C78F0E82405F850010988EF
:104BE400828983124C78A3124CB2A3A3A3A3F080AE
:104BF4006775100B8062741D12215D123CED120862
:104C04009C8A828B83E5824583604A124E1B880C02
:104C1400890DE8450D603E742512215DE0F510789C
:104C240010122398780E122394780A122394780889
:104C3400122394740712215DE0F9EEFCEFFDAA162D
:104C4400AB17850C82850D8312217F7407122127EF
:104C5400E9F510800375100EA9107405023FB0F039
:104C640088828983A322A3E085088285098322128E
:104C74004CB9F022124CB9A3A3229002EF124F10A8
:104C840022E0F50E750F00780E22850C82850D83C7
:104C9400124153E022E0FAA3E0F8E4C8F9EA28223A
:104CA400F08A828B83E0F50A750B00780A22124C95
:104CB40063124CB922E0850882850983A3A3227478
:104CC400EE12218174FE1221118A088B09ECFEED8B
:104CD400FF890AAC18AD19EEFAEFFB12079A8A0C99
:104CE4008B0DEA450D7003024DAB8518828519833F
:104CF400123CED12089C8A828B83E5824583700303
:104D0400024DA6A3A3124E1B880E890FE8450F700F
:104D140003024DA6741412215DE0F510A3E0F51111
:104D2400E50AF50B780B122398741912215D1223EE
:104D3400AB7810122394741B12215DE0F9AC0CAD16
:104D44000DAA08AB09850E82850F8312217F740595
:104D5400122127E9F50B705274FE650A604C850C2C
:104D640082850D83E064027041124DBAFAA3E0F922
:104D7400EAF87402687003742969702E85108285BC
:104D84001183124C99F50CE439F50D780C12239427
:104D9400EEFCEFFDAA08AB091209207402122127C8
:104DA4008008750B0E8003750B01A90B7402122188
:104DB400277F0A022253A3124E1F88828983E0228E
:104DC40074F612218174FE122111740C12215D12E9
:104DD4004E1BE8851882851983F0740112215DE960
:104DE400F0E4F508F50978081223947508027808A8
:104DF40012239474041221678808890978081223FD
:104E04009479FE12090874061221277402122127CC
:104E14000247CC8E828F83124E1F22E0F8A3E0F962
:104E24002274F7122181EAFEEBFF8908900306122F
:104E34004C81121244EA5402600BA908EEFAEFFB0B
:104E440012078E800279017F0102225374F212212B
:104E54008174FE122111EAFEEBFF890A7401650ACE
:104E640060147402650A6003024EFF7901120B2A72
:104E7400E96003024EFFEEFAEFFB1208EAEA4B6028
:104E8400031208F0A818A9198808890978081223B8
:104E940094750802750900780812239475083B7507
:104EA400099178081223947CFF7DFF7A017B00121C
:104EB400079474061221278038850882850983A304
:104EC400A3A3A3A3A3124F09EEFAEFFB12122CE43F
:104ED400F50CF50D780C122394740212215D122343
:104EE400AB7CFF7DFFAA08AB091207A07404122152
:104EF400278A088B09E508450970BE740212212728
:104F04007F06022253124153124F1022E0FCA3E009
:104F1400FD2274F41221818A088B09ECFEEDFF90C6
:104F2400177CE0F4604B7A097B001213CAEA4B60E9
:104F3400408A828B8374B1F0A3E4124F78F08A82A2
:104F44008B83A3A3E508F0A3E509124F78A3EEF041
:104F5400A3EFF0740C12215D124E1B8A828B83A383
:104F6400A3A3A3A3A3A312434490177CE0F91213B1
:104F7400D602327FF08A828B83A3A3A3A32274F088
:104F840012218174FA1221118909ECFEEDFF7508D2
:104F9400008A0A8B0B780A1223D8000410A851C582
:104FA4004FE34FFD4F155033504B506E5086509A7F
:104FB40050C4503F51505167518251A851A851DA01
:104FC400507401650960030251A38E828F83E0F857
:104FD400C3940340030251A3E890186802517F74FC
:104FE40002650960030251A38E828F8312590690D1
:104FF4001869E8F0A3E902517F74016509600302AE
:1050040051A31251D040030251A3E890072C02513E
:105014007F7401650960030251A38E828F83E0F8D7
:10502400C3940540030251A3E890072D02517F74F5
:1050340001650960030251A31251D040030251A338
:10504400E890072E02517F7410650960030251A392
:10505400750A10750B00780A1223947A2F7B0712B5
:1050640013A674021221270251C974016509600351
:105074000251A31251D040030251A3E890073F020A
:10508400517F7401650960030251A38E828F83E00E
:1050940090186C02517F7404650960030251A38E59
:1050A400828F83780C121FD59090FE780C121629EB
:1050B40050030251A3900741780C121FE40251C916
:1050C400E960030251A3120734E970051211F0805C
:1050D400559007D480617407650960030251A37574
:1050E4000A06750B00780A1223948E828F83A3AC70
:1050F40082AD83740212216F1213AC740212212741
:105104007C007D00AA18AB198E828F83E0F91211FE
:105114009CE9FEC3940A40030251C6120734E970A5
:105124000CEEF91211F679501214E4806D74D52E38
:10513400F582E43407F583740180407401650970D5
:105144005E1251D05059E8900740802F74016509D0
:10515400704D8E828F83E0F8C3940A5042E8901811
:105164006B80187401650970368E828F83E0F87441
:10517400F928C3940A5028E890186DF08047740108
:105184006509701B9007D3E0F88E828F83E0900747
:10519400D3F0E87030E06401702B1211E4802675BE
:1051A40008188021C3EA9427EB9400501574026513
:1051B40009700F8E828F831263E61205B4E9F50835
:1051C4008003750802A90874060254F48E828F8342
:1051D400E0F8C3940222A90880031221277F040265
:1051E400225374F012218174B11221118C0A8D0B97
:1051F4009090AE7420122177740612202474201229
:10520400217712119CE9FF745F12215DE0F509EF2B
:10521400C3940A400302536875F006EFA4F50874BA
:10522400411221777A0E74202508F91214DEE970F0
:1052340009744D12215DE0FE80027E00901868E042
:1052440064027005750E018003750E00740865090B
:1052540070047422800274212508F50D7C1B7D00E6
:105264007900742612216F1213BE74261221777AE4
:105274001BA90D1214DEE9702D744012215DE02487
:10528400F9C3940A5020E50EF50D780D1223987495
:1052940027122177EEA2E0E433F9AA0AAB0B120637
:1052A4005674011221277C147D007900740C12219C
:1052B4006F1213BE740C1221777A1074242508F926
:1052C4001214DEE970347C1079FF740C12216F1211
:1052D400141EE97025741C12215DAC82AD837A041E
:1052E40074252508F91214DE740C122177EEA2E05D
:1052F400E433F9AA0AAB0B12063EAC18AD197A0CCA
:1053040074702FF91214DEE97049AA18AB1912113E
:10531400CC7F00EF75F003A4F8A9F08518828519F5
:1053240083E58228F8E583125ABD125C9E601D88CD
:10533400828983A3A3E0F50E750F00780E122394DF
:10534400AA0AAB0B12090E74021221270FEFC394A1
:105354000440C0EEA2E1500C90072BE0F9AA0AAB7E
:105364000B120914740465097028901868E064022B
:1053740070207A0090073FE060027A0190072CE0E9
:105384006004780480027800E84AF9AA0AAB0B1298
:10539400070A7900744F0254F474F712218112073A
:1053A40034E9704F9007D4E0640170151211F09045
:1053B40007D4E4F07C0AFDF97AD57B071213BE808A
:1053C4002A750800A80874D528FEE43407FF8E82E5
:1053D4008F83E06401700BA9081211F68E828F830B
:1053E400E4F00508E508C3940A40D979501214E49E
:1053F4001211E4025DD574F012218174F0122111AE
:10540400EAFEEBFF8C088D09750A0AE9600C14604A
:105414000914603B14607D0254F01211DEE9F50AB0
:10542400C3940A40030254F0E5084509700302548A
:10543400F0750C06750D00780C122394EEFCEFFD4C
:10544400AA08AB091213A674021221270254F0759C
:105454000C00750E06750F00780E122394EEFCEF07
:10546400FDE50C75F00EA4F8A9F0744D28FA740744
:1054740039FB1213B87402122127E9700B050CE5ED
:105484000CC3940A506680CA850C0AE50AC3940AC0
:10549400505A8049750C00AC18AD197A1075F00695
:1054A400E50CA42423F91214DEE9701C7C1079FFA6
:1054B400AA18AB1912141EE9700EEEFCEFFDAA181F
:1054C400AB1912061AE9600B050CE50CC3940A50DB
:1054D4001B80C4850C0AE50AC3940A500FE50845ED
:1054E400096009AA08AB09A90A1211D8A90A7410FB
:1054F4001221277F0802225374F41221818909752D
:10550400081574FF6A700374FF6B70277E00AC0982
:105514007A027B00EEF91211BAE960037508000EF5
:10552400EEC3940A40E8E50960537A087B12120B33
:105534004E804A120B1E8A0A8B0BAE0AAF0BEE4F3B
:1055440060387C007D00EE2405FAE43FFB8E828FF8
:1055540083A3A3A3A3E0F912119CE9F9C3940A500D
:105564000CAC097A027B001211BA750800E50960D7
:105574000CEEFAEFFB12120880037508140251DADC
:1055840074F2122181ECFEEDFF750815740E1221E0
:105594005DE0F50AA3E0F50B74FF6A700374FF6B1A
:1055A4007021750900AC0AAD0BEEFAEFFBA90912E4
:1055B40011C0E960037508000509E509C3940A50A0
:1055C4003F80E2120B1E8A828B83E5824583602D25
:1055D4007C007D00E5822405FAE43583FBA3A3A3C4
:1055E400A3E0F912119CE9F9C3940A5013AC0AAD73
:1055F4000BEEFAEFFB1211C0750800800375081456
:10560400A9087F06022253C082C083900745EAF0AE
:10561400A3EBF090072BE0FC7D007A267B001205BB
:10562400B490072BE0F91208780260EF74EE1221AF
:105634008174EC1221118A088B09EA240CF510E418
:105644003509F5118A828B83A385820C85830DEA43
:105654002405F50EE43509F50FEA2409F50AE435C5
:1056640009F50BEA2403FEE43509FF8A828B83A340
:10567400A3E024FA70030258F424FD7003025814C2
:1056840014700302570E14601024FD70030257F7C0
:1056940014700302584C0258FA1263EC6044E0F5AB
:1056A400838882125906880C890DE8450D6033857C
:1056B4001082851183E0F50E780E122398EA240BEC
:1056C400F582E43509F583E0F91263E00A0A0AEF8A
:1056D400FB850C82850D8312217F74011221270220
:1056E40058FA850A82850B831223AB900741121F57
:1056F400F31206507402122127E970030258FA7952
:1057040001850A82850B830258C4750A00850C82C0
:10571400850D83E060030257C4850E82850F83E004
:10572400A2E040030257C49007DF1263EF60030254
:1057340057C47C0E7D007900AA18AB191213BE85DC
:1057440010828511831260BAEA4B6010750A0675DF
:105754000B00780A122394EA2410801B1260B612FC
:105764000B1EEA4B70030258FA750A06750B007893
:105774000A122394EA2405FCE43BFD740212216F0F
:105784001213A67402122127850E82850F83E0A2CC
:10579400E25004D2F08002C2F0A2F0E433F8740CB8
:1057A40012215D12626E1211D2E970117A027B002D
:1057B40090072BE0F91213FA79000258FC750A15C8
:1057C4001263EC70030258FA12591B70030258FA60
:1057D400850C82850D83E0FC790112590C12217F1E
:1057E400E50A70030258FAFC79031260B61260717C
:1057F4000258EF1263EC70030258FA12591B70033B
:105804000258FA850C82850D83E0FC79020258EC7B
:105814007C007D00EA2404FAE43509FB8E828F8340
:10582400E0F912119CE9F8C3940A40030258FAE51E
:1058340008240AFCE43509FD7A0475F006E8A4247A
:1058440025F91214D80258FA1260B6900740E060A5
:105854000790186BE0F9806B901868E07004790584
:105864008061120B1E8A0C8B0DA80CA90DE84970DF
:10587400030258FAE82404F50CE439F50D8508828E
:10588400850983A3A3A3A3A3A3A3E0A2E05039851E
:105894000C82850D83E0F508602E850A82850B83D2
:1058A400A3E054027022740E122177E82405FAE46E
:1058B40039FBA90812119CE9700E79038E828F833B
:1058C4001260BA12064A802EAC0EAD0F850C82858A
:1058D4000D83E0F91260B61212141263EC60171211
:1058E400591B60127C00790012590C12217F80062A
:1058F4001260B6121196790174141221277F0A02DC
:105904002253E0F8A3E0F9228E828F83E0FAA3E029
:10591400FB88828509832212607FF98909E8450999
:105924002274F512218174F2122111EAFE8C0A7597
:10593400F006E9A42420F508AC18AD197A0EF91282
:1059440014DEE970467C0679FFAA18AB1912141EFE
:10595400E97038740C12215D1260BAEAF8E50A6045
:1059640005EEC8488004EEF4C858F8EA687001EB04
:105974006015740C12215DE8F0A3E4F0AC18AD19C5
:105984007A0EA9081214D8790180027900740E12D3
:1059940021277F0302225374F212218174E612211B
:1059A40011890A8A088B09ECFEEDFF740C12217729
:1059B4007A0E75F006E9A42420F91214DEE96003D6
:1059C400025A807C0679FF740C12216F12141EE9AE
:1059D4006003025A807470250AF50BAC18AD197A6D
:1059E4000CF91214DEE96003025A7CAA18AB1912EE
:1059F40011CCE5084509701D7C0C7900AA18AB1977
:105A040012141EE970727C0C7D007900AA18AB197F
:105A14001213BE8051AC18AD19AA08AB091211C6F5
:105A24008A0C8B0DA80CA90DE8497022EE4F604C2E
:105A3400AC18AD197A007B001211C6EAF8EBF9EA4A
:105A44004B603988828983E508F0A3E509F0125A8E
:105A5400F9FAEE6A7001EF601FEEF04F7008888269
:105A64008983E4F0A3F0AA18AB191211CCAC18ADD9
:105A7400197A0CA90B1214D8790180027900741ACE
:105A840012212702560674F71221817E00EE75F06A
:105A940003A4F8A9F0EC28F8ED125ABDE06A7003EB
:105AA400A3E06B7006E8FAE9FB800B0EEEC39404E6
:105AB40040DB7A007B00025DD539F9888289832234
:105AC40074F71221817C00EC75F003A4F8A9F0EAC4
:105AD40028F8EB125ABDE0F4FEA3E0F4FF888289B3
:105AE40083EEF0A3EFF0125AF9F4F00CECC3940433
:105AF40040D5025DD5E82402F582E439F583E0223D
:105B040074F412218174F4122111EAFEEBFF8C0863
:105B14008D099007DF1263EF704FEE4F7003025C44
:105B24007DEC45097003025C7D1211DEE990186E6C
