:020000040000FA
:0600000002010702220DBF
:03002B0002265A50
:03003B000226801A
:030043000226058D
:0300530002228303
:03006B0002262B3F
:10008300022063E5C754F84401F5C7790122000053
:100093000080FB120086B900030200F1E4792178A5
:1000A30008B800028004F709D8FCE479297802B87B
:1000B30000028004F709D8FCE490028178397915AD
:1000C3008002F0A3D8FCD9FA7AB97B16900137786D
:1000D3002579048015E493A3AD82AE838A828B8352
:1000E300F0A3AA82AB838D828E83D8E9D9E7758288
:1000F300847583C07403120119758291758300742A
:100103000012011975D00075813F751881751902A8
:10011300759F00020096C09FF59FE473D09F22D085
:1001230083D082C09FE493C0E0740193C0E0740263
:1001330093F59F22FF0000B4000028002800283018
:1001430075A000A000A000A00000080008E001F0D6
:10015300001000100010001000100010005000509C
:1001630000500010001000D0070000000000000F36
:100173000001000500307507001000010081FF0039
:10018300000000FFFFFF7D069B068306BF06FF02FC
:10019300020208025000A0000000E80302EB9001F5
:1001A3000000299002E590010000141702F190016C
:1001B3000000BF0202E590010000151702EF900155
:1001C3000000D50202E590010000161702E7900136
:1001D3000000D70202E590010000171702E3900820
:1001E3000000D80202E590010000181702DB90011D
:1001F30000001917FF0100FF2002EB90010000D25D
:100203009002E5900100007D1702DD9000000000E0
:100213000002DF90030000060317006D0D6D0D6DE6
:100223000D6D0D6D0D6D0D6D0D6D0D6D0D6D0D6DFB
:100233000D6D0D6D0D49105B104310020202020299
:1002430002020202010D000000100102EB90010006
:1002530000D89002E590010000C01702059101004B
:1002630000230702E590010000C11702039101007A
:1002730000E88F02E590010000C21702FF90010021
:1002830000BF8F02E590010000C31702FD9001003B
:10029300004B8F02E590010000C41702FB900100A0
:1002A300005D8F02E590010000C51702F99001007F
:1002B30000158F02E590010000C61702F7900100B8
:1002C30000398F02E590010000C71702F590010085
:1002D30000CD8F02E590010000C81702F3900100E2
:1002E30000C91701E8030577100AFFFFFF0001307B
:1002F300750302010600000000000000000000007A
:1003030000000000000000000000000000000000EA
:1003130000FFFF0600800CE803000102030405064A
:100323000708090A0B0C0D0E0F000102030001025E
:10033300030405060708090A0B0C0D0E0F00010242
:10034300030A09434332353430424C450512500009
:100353002003020A000201060302F0FF53696D70D5
:100363006C6520424C452050657269706865726106
:100373006C171500001D1510436861726163746585
:100383007269737469632034001000010200000075
:1003930000000000000000000000000000005050BA
:1003A30047001000010200000000000000000000F0
:1003B300000000000000005043470010010000004F
:1003C3000000000000000000000000005043470050
:1003D30002EB90010000D59002E590010000FC18AB
:1003E300020B91000000B01602DF90030000B1166B
:1003F30002E190010000FD1802E5900100000E19D2
:10040300020D910000000F1902DF90030000B316E4
:1004130002E190010000231902E590010000271971
:10042300020F91000000281902DF90030000B516A7
:1004330002E1900100003C1902E59001000040191F
:10044300020191000000411902DF90030000B7167A
:1004530002E19001000051191201220699031201D1
:10046300221999031201224A990312012284990342
:10047300120122DD9903120122249A031201226C34
:100483009A031201229B9A03120122CA9A031201B0
:1004930022019B03120122489B03120122619B0349
:1004A300120122B69B03120122CF9B031201221DCC
:1004B3009C03120122579C0312012201B60212016E
:1004C3002204B7021201223DB70212012260B702D1
:1004D30012012272B702120122B0B7021201222CBA
:1004E300B802120122F4B80212012216B902120153
:1004F30022ADB902120122FFB90212012230BA025F
:100503001201223DBA02120122A7BA02120122FEEF
:10051300BA0212012201BB021201223ABB021201EA
:10052300223DBB0212012247BB021201229BBB02E6
:10053300120122DCBB021201220FBC021201224C67
:10054300BC021201224EBD02120122F2BD021201AF
:10055300225BBE0212012299BE02120122259103DF
:100563001201224D91031201227A9103120122B248
:1005730091031201221092031201225C92031201D1
:1005830022C3920312012203930312012240930315
:100593001201226E930312012218940312012222E4
:1005A30094031201222F9403120122629403120175
:1005B300226E940312012286940312012290940363
:1005C3001201224CBC031201225ABC0312012272F3
:1005D300BC0312012289BC03120122F5C7011201D7
:1005E300229FC801120122B2C9011201222ECA019F
:1005F3001201224CCB0112012288CB0112012223CA
:10060300CC0112012207CD01120122D3CD01120127
:100613002261CF01120122D2CF011201228CD0011B
:100623001201227ED101120122BED10112012272D6
:10063300D201120122A4D2011201229AD401120181
:1006430022DCD401120122FAD40112012260D50165
:100653001201222FD601120122F3D6011201221216
:10066300D901120122C2CE02120122ACCF02120121
:100673002257D002120122A8D00212012258D1021D
:10068300120122C9D102120122AED202120122E2C8
:10069300D202120122DBD30212012218D402120168
:1006A30022F4D40212012233D5021201224FD502C1
:1006B30012012233B103120122B7B103120122E264
:1006C300B103120122FCB2031201221E950312018F
:1006D30022349503120122529503120122639603D9
:1006E3001201226D96031201229897031201228FA1
:1006F3009803120122FC9803120122A4E0021201C2
:1007030022D4E1021201220BE20212012255E2027B
:1007130012012218E402120122159101120122A1F1
:100723009101120122059301120122119301120179
:10073300224C9301120122BB9301120122C49401A2
:10074300120122CD9501120122949601120122F188
:1007530097011201220F98011201222C9801120114
:1007630022D998011201225699011201227E990180
:10077300120122489C011201224D9C0112012266A2
:100783009E01120122B49E01120122249F01120133
:1007930022629F011201223EA001120122FEA0014A
:1007A3001201224AA1011201224DA101120122913B
:1007B300A101120122D9A10112012218A2011201E1
:1007C300223AA2011201226EA201120122D1A20138
:1007D300120122E7E502120122F5E5021201224885
:1007E300E60212012267E602120122ACE6021201BE
:1007F30022F0E7021201228BE802120122CFE80263
:10080300120122F9E80212012268E902120122AE62
:10081300E90212012225EA02120122D6EA0212019A
:1008230022F42600120122042700120122A5270028
:10083300120122012800120122BE2800120122DA2D
:1008430029001201220C2A001201223B2A00120164
:1008530022E82B001201225F2E00120122CF30006A
:10086300120122C13100120122BA3200120122C147
:100873003400120122B53700120122E438001201BC
:1008830022E83A00120122F83B00120122873D00C0
:10089300120122783E00120122C63E0012012235C7
:1008A3003F00120122593F00120122AA3F00120108
:1008B300224B44001201224C4500120122AD450097
:1008C300120122D845001201229E4600120122D1B4
:1008D3008803120122DB88031201222089031201FB
:1008E30022348903120122C48903120122FD8903E0
:1008F300120122388A03120122618A03120122B5EE
:100903008A03120122CA8A03120122EC8A0312010A
:1009130022018B03120122158B031201222A8B035E
:10092300120122648B03120122908B03120122D93C
:100933008B031201224B8C031201228E8C031201B2
:1009430022B88C03120122E38C031201224DB80357
:10095300120122C99802120122AC99021201222724
:100963009A02120122629A02120122B39B0212011D
:1009730022419C02120122D39E02120122859F0270
:1009830012012291A00212012204A2021201225D8D
:10099300A202120122818403120122C484031201E0
:1009A300224885031201221F880312012283FD02BC
:1009B30012012235FE0212012231FF0212012270BE
:1009C300FF02120122CAFF021201222BB3031201FA
:1009D300228EB3031201222BB40312012260B4034B
:1009E30012012290B403120122CBB403120122EBB1
:1009F300B403120122A7EF0212012233F002120103
:100A030022F2F0021201220AF20212012224F4025B
:100A1300120122458D021201226A8D021201223730
:100A23008E021201220B8F02120122788F02120111
:100A330022B88F02120122549002120122889102DD
:100A4300120122639202120122C292021201224E69
:100A53009302120122BC9302120122489402120152
:100A6300228E940212012200950212012292950213
:100A73001201223396021201225396021201229B83
:100A83009602120122E49602120122009702120139
:100A930022269702120122A09702120122AE970288
:100AA3001201223D9802120122A698021201225B32
:100AB300F402120122E0F40212012222F5021201D1
:100AC3002206F60212012273F602120122B7F6027F
:100AD300120122FBF60212012228F7021201225010
:100AE300F70212012288F702120122C6F70212014D
:100AF30022EDF70212012267F802120122B1F80275
:100B0300120122FDB501120122A5B701120122D261
:100B1300B90112012226BA0112012251BA011201AE
:100B23002223BB0112012267BB01120122ABBB01CD
:100B3300120122BEBB01120122FFBB011201222CB2
:100B4300BC011201227ABC01120122BBBC011201B9
:100B530022E9BC011201223CBD01120122D3BD01D5
:100B6300120122BDC001120122D3C20112012211BE
:100B7300C301120122A4C401120122E9C40112011A
:100B8300225BC501120122ACC501120122E6C50197
:100B9300120122EBC5011201228BC601120122C1EF
:100BA300C701120122D2C70112012206A3021201B8
:100BB3002285A3021201227EA90212012284AA0223
:100BC300120122F7AB021201228EAC02120122A4FF
:100BD3005B00120122ED5B001201221A5C0012017C
:100BE300224C5C00120122595C00120122655C0058
:100BF300120122775C00120122525D00120122B021
:100C03005D00120122E55D001201221C5F0012014A
:100C130022695F001201228D5F00120122FD5F0035
:100C2300120122BE6000120122816100120122EF33
:100C33006100120122AC6200120122BF62001201A4
:100C4300223D6300120122D06300120122F76300E8
:100C53001201225F6400120122B064001201220516
:100C63006500120122AE65001201225966001201CD
:100C730022056700120122776700120122CB670069
:100C83001201222B68001201225B6800120122F17B
:100C93006800120122166A001201225E6A00120124
:100CA300227B6A001201229A6A00120122C96A0099
:100CB300120122DE6B00120122646C0012012289F0
:100CC3006C001201229E6C00120122116D001201B0
:100CD30022526D001201226E6E001201220F6F006C
:100CE3001201225D6F00120122C76F00120122E080
:100CF3006F00120122B8AC021201220CAD021201E4
:100D03002218AD02120122E2AD021201220FAE023D
:100D13001201223DAE02120122A9AE02120122DF0C
:100D2300AE0212012218AF0212012230AF021201E9
:100D33002285AF021201229EAF02120122E3AF020B
:100D4300120122F6AF0212012210B0021201222672
:100D5300B00212012244B1021201226FB202120147
:100D63002259B30212012248B402120122FC7F006D
:100D73001201220080021201222F8002120122F5A9
:100D830083021201224C85021201221286021201F1
:100D9300229187021201225B8802120122AD88028E
:100DA300120122C78802120122F9880212012204C9
:100DB30089021201224D890212012256890212016F
:100DC30022028A02120122DB8A02120122228B02F0
:100DD3001201228A8B02120122CC8B02120122FA07
:100DE3008B02120122358C02120122A9A3011201E6
:100DF3002227A7011201222DA70112012282AD0190
:100E0300120122CCB101120122B2B5011201225BFF
:100E1300A003120122D1A003120122E7A0031201B1
:100E23002277A103120122B4A103120122EEA1032E
:100E330012012228A2031201229BA203120122DC27
:100E4300A203120122E5A203120122F1A20312015D
:100E53002210A3031201223AA3031201224FA30378
:100E630012012292A303120122E8EA02120122FBD9
:100E7300EA0212012215EB0212012242EB021201D5
:100E83002288EB02120122BBEB02120122F9EB02D0
:100E93001201225EEC0212012273EC021201227E85
:100EA300EC021201228BEC02120122A2EC021201CB
:100EB30022B0EC02120122BBEC02120122C7EC02A7
:100EC300120122DAEC02120122E5EC0212012208DD
:100ED300ED02120122ACED02120122BCED0212015D
:100EE30022D6ED02120122F3ED021201220EEE02CE
:100EF30012012233EE021201223EEE0212012253AC
:100F0300EE0212012267EE02120122C8EE02120162
:100F130022CEEE02120122D4EE02120122DAEE02F6
:100F2300120122F2EE0212012225EF021201225FC8
:100F3300E701120122F6E7011201228EE8011201F4
:100F4300227EE901120122B5E901120122C8E90159
:100F530012012236EA01120122D1EB01120122F819
:100F6300EB011201229AEC01120122CFEC011201D2
:100F730022E0EC0112012259ED011201227AED0166
:100F830012012292ED01120122EAEE01120122F373
:100F9300F00112012243F30112012246F40112016E
:100FA3002295F4011201221070001201220D71002A
:100FB300120122F87100120122027200120122248E
:100FC3007200120122307200120122827300120198
:100FD30022B17300120122E1740012012223750071
:100FE3001201224F76001201222577001201227787
:100FF3007700120122D677001201220D7800120128
:1010030022487800120122E37B00120122FC7B00BC
:101013001201227E7C001201228C7C00120122E14B
:101023007C00120122EF7C001201225C7D00120180
:1010330022CE7D00120122147E00120122E2F4016D
:1010430012012204F501120122EEF601120122938C
:10105300FA01120122D6FB01120122B0FC01120196
:1010630022F9B4031201221EB5031201228FB50324
:10107300120122BFBE02120122C8BE02120122D1F6
:10108300BE0212012202C00212012221C202120177
:101093002257C20212012291C202120122C7C202C6
:1010A30012012201C30212012235C302120122617D
:1010B300C302120122AAC302120122E4C3021201D3
:1010C300222CC40212012282C402120122B7C402DA
:1010D30012012212C5021201224CC5021201229DE5
:1010E300C502120122D3C5021201220DC60212014A
:1010F300223BC6021201225EC602120122D8BD03A0
:1011030012012204BE031201225FBE0312012269EF
:10111300BE0312012279BE03120122FAA6031201B1
:101123002221A7031201224BA703120122B27F003F
:101133001201220A47001201226E490012012225E0
:101143004B00120122824B00120122844C00120137
:10115300220C4D00120122934D00120122B84D00C2
:10116300120122AD5000120122235100120122125A
:1011730052001201224C52001201228C5200120121
:10118300222C5400120122815400120122CE540059
:101193001201223C55001201226255001201227CE9
:1011A3005500120122925600120122A2560012018A
:1011B300222858001201224858001201227E5800AA
:1011C300120122025A00120122415A001201227F07
:1011D3005B001201220080031201225880031201D6
:1011E30022A081031201220F8203120122BE820375
:1011F300120122DD82031201223183031201226FC5
:10120300830312012219BD031201222ABD03120115
:1012130022CDBD03120122D7C00312012216C1033E
:10122300120122B0C10312012283BE0312012293D1
:10123300BE03120122AEBE0312012216BF03120126
:101243002261B903120122E5B9031201224BBA0349
:101253001201229D7E00120122C47E001201221A75
:101263007F001201226C7F001201228CAC03120159
:1012730022A1AC03120122A5AD0312012219AE0370
:1012830012012233AE031201224AAE031201225D80
:10129300AE0312012275AE031201228AAE031201BC
:1012A30022ABAE03120122FCAE03120122BF9C0348
:1012B300120122D69C031201224F9D031201222404
:1012C3009E03120122F69F03120122C0A3031201FF
:1012D3002252A403120122D0A40312012257A50310
:1012E300120122E9A50312012240A6031201224A98
:1012F300A60312012259A6031201226FA6031201AB
:101303002282A603120122E3A603120122F7A603F7
:1013130012012220BF0312012289BF03120122946A
:10132300BF03120122A4BF031201225BBB031201FC
:101333002284BB03120122ADBB03120122C5BB03EE
:1013430012012207BC0312012236DB0212012240E2
:10135300DB0212012280DB02120122C9DB0212012D
:101363002203DC0212012259DC0212012278DC0280
:1013730012012281DC02120122D2DC02120122FBC1
:10138300DC0212012210DD0212012280DD021201B1
:10139300220EDE0212012252DE021201227ADE0244
:1013A300120122F9DE021201223CDF02120122792C
:1013B300DF021201228BDF02120122AADF021201D5
:1013C30022B3DF0212012278E002120122AFB60338
:1013D30012012200B70312012289B703120122EF7F
:1013E300B703120122C8A903120122F2A9031201B1
:1013F30022ECAA031201221BAB03120122A1AB03AD
:1014030012012264BA0312012231AF0312012267CF
:10141300AF03120122A0AF03120122F9B00312019C
:1014230022AFBF03120122C5BF03120122CFBF03A4
:1014330012012225C003120122ECC602120122A9C5
:10144300C702120122E4C7021201220CC8021201D0
:10145300226EC802120122BAC80212012225C90251
:10146300120122A1C9021201229DCA0212012224E1
:10147300CC02120122A7CC021201220BCD021201CF
:101483002222CD0212012218CE0212012264CE02C0
:101493001201220B8D03120122208D03120122D38C
:1014A3008D03120122138E031201222C8E031201CB
:1014B300225F8E03120122AC8E03120122E08E03FF
:1014C300120122228F031201221891031201221FFB
:1014D300D901120122D6DC0112012268DE011201B8
:1014E30022BFDE01120122DEDE011201225CDF01D6
:1014F300120122EEE001120122D2E101120122E3E4
:10150300E501120122B7E601120122B0D502120150
:10151300228FD70212012247D902120122E8DA02EE
:10152300120122EBDA02120122F1F802120122B6B1
:10153300F902120122D3F90212012240FB02120125
:101543002231FC0212012220C10312012266C103CF
:1015530012012292C103E066701008A3E066700ACC
:1015630008A3E066700408A3E06622C3E7960809AF
:10157300E7960809E7960809E79622C3E09608A3C9
:10158300E09608A3E09608A3E09622C008C3E0967D
:10159300F50808A3E096420808A3E096420808A3CA
:1015A300E09645087001D3D00822080808EAC0E095
:1015B300EBC0E086F0E7A4FA180986F0E7A42AFA5C
:1015C300180986F0E7A42AFA180986F0E7A42AFA8C
:1015D3001986F0E7A4FBE5F02AFA190886F0E7A4D8
:1015E3002BFBE5F03AFA190886F0E7A42BFBE5F0AC
:1015F3003AFA18180986F0E7A4C5F02BFBE43AFA87
:101603001908E7C5F0C6A426F6E5F03BFBE43AFA71
:101613001886F0E7A4F6E5F00826F6E43B08F6E4BE
:101623003A08F6D0E0FBD0E0FA22E4CFC0E0E4CE03
:10163300C0E0E4CDC0E0E4CCC0E075F020E626F6DF
:1016430008E633F608E633F608E633F6181818EC1E
:1016530033FCED33FDEE33FEEF33FFC3EC9709EDBF
:101663009709EE9709EF97191919400FFFEC97FCAB
:1016730009ED97FD09EE97FE191906D5F0BFECF7B2
:1016830009EDF709EEF709EFF7191919D0E0FCD0C6
:10169300E0FDD0E0FED0E0FF226016080808C6C3D4
:1016A30013C618C613C618C613C618C613C6D5E084
:1016B300EA227009080808226016181818C6C333EE
:1016C300C608C633C608C633C608C633C6D5E0EA5D
:1016D30022E627F60809E637F60809E637F6080989
:1016E300E637F622E026F608A3E036F608A3E0364E
:1016F300F608A3E036F622E026F008A3E036F00869
:10170300A3E036F008A3E036F022C3E697F6080913
:10171300E697F60809E697F60809E697F622C3E086
:1017230096F008A3E096F008A3E096F008A3E096ED
:10173300F022E056F608A3E056F608A3E056F608B2
:10174300A3E056F622E056F008A3E056F008A3E023
:1017530056F008A3E056F022E0F608A3E0F608A34B
:10176300E0F608A3E0F622E6F008A3E6F008A3E615
:10177300F008A3E6F022E0FAA3E0FBA3E0FCA3E079
:10178300FD22E0F8A3E0F9A3E0FAA3E0FB22E8F0EE
:10179300A3E9F0A3EAF0A3EBF022CAC0E0E6F0A3CA
:1017A30008DAFAD0E0FA22CAC0E0E0A3C582CCC5C9
:1017B30082C583CDC583F0A3C582CCC582C583CD45
:1017C300C583DAE6D0E0CA22C3E498F8E499F912B3
:1017D300180C8026C3E49AFAE49BFBE920E7E9129C
:1017E300180CE498F8E499F922C3E498F8E499F919
:1017F30012180CE498F8E499F9C3E49AFAE49BFB11
:1018030022EB20E7CFE920E7E0B90010BB0008E8AE
:101813008AF084F8AAF022E4FBC8FA22EB70227B58
:1018230010C833C8C933C9335007C39AC3DBF28026
:10183300069A50012ADBEAC833F4C8C933F4C9FA5B
:101843002275F008E4C833C8C933C933C99AC99BA0
:101853005004C92AC93BD5F0ECFBC833F4C8E4C92A
:10186300FA22600D08C6A2E713C618C613C6D5E050
:10187300F322600C08C6C313C618C613C6D5E0F41A
:1018830022700422600D18C6C333C608C633C6D5FA
:10189300E0F41822251810AF08F518400C1519802C
:1018A30008F51840021519D2AF2200C0D025181030
:1018B300AF08F518500C05198008F51850020519E2
:1018C300D2AFD0D0222518F58210AF08F518400CFE
:1018D30015198008F51840021519D2AF851983220E
:1018E3002518F582E43519F583222518F8E435190E
:1018F300F9222518FAE43519FB222518FCE43519D9
:10190300FD22E4732518C582C0E0E51934FFC583C1
:10191300C0E0E518C3958224F810AF0885831985C4
:1019230082188008858319858218D2AFCEF0A3E58B
:1019330020F0A37808E608F0A3DEFAEFF0A3E58130
:1019430024FAF8E608F0A3E608F0A3E608F0A308F3
:1019530008E608F0A3E608F0A315811581D0E0FEA0
:10196300D0E0F8158115811581E8C0E0EEC0E022D2
:101973002518C582C0E0E51934FFC583C0E0E5182A
:10198300C3958224F910AF088583198582188008CE
:10199300858319858218D2AFCEF0A3E520F0A37812
:1019A30008E608F0A3DEFAEFF0A3E58124FBF8E6EE
:1019B30008F0A3E608F0A30808E608F0A3E608F099
:1019C300A315811581D0E0FED0E0F815811581E8DB
:1019D300C0E0EEC0E022851983851882E0A3FEE013
:1019E300A3F5207808E0A3F608DFFAE0A3FFE0A35D
:1019F300C0E0E0A3C0E0E0A3C0E0E0A3C0E0E0A358
:101A0300C0E010AF08858218858319800885821885
:101A1300858319D2AFD083D08202011F85198385B4
:101A23001882E0A3FEE0A3F5207808E0A3F608DF20
:101A3300FAE0A3FFE0A3C0E0E0A3C0E0E0A3C0E0BE
:101A4300E0A3C0E010AF088582188583198008855C
:101A53008218858319D2AFD083D08222C0D02518B3
:101A6300C582C0E0E51934FFC583C0E0E518C3951E
:101A73008224F310AF088583198582188008858333
:101A830019858218D2AFC8F0A3E9F0A3EAF0A3EB5B
:101A9300F0A37908E709F0A3D8FAECF0A3EDF0A3DB
:101AA300EEF0A3EFF0A3D0E0F0A3D0E0F0A3D0E0FA
:101AB300F0A3E520F0A3E5F0F0A3228519838518B0
:101AC30082E0C0E0A3E0F9A3E0FAA3E0FBA3780877
:101AD300E0F608A3DFFAE0FCA3E0FDA3E0FEA3E049
:101AE300FFA3E0C0E0A3E0C0E0A3E0F5D0A3E0F5EE
:101AF30020A3E0A3F5F010AF088583198582188031
:101B030008858319858218D2AFD082D083D0E0F8BC
:101B1300D0E03274048006740280027401C0E0F4E1
:101B2300041218C8D0E012179D22740480047402B2
:101B33008000CCC0E0EDC0E0E518C39CCCAD1950EB
:101B4300011D10AF068C188D1980068C188D19D2C3
:101B5300AF1217AAD0E0FDD0E0FC22D083D082E9F7
:101B6300C0E0E493A3C386F0C5F095F0F908E493CD
:101B7300A386F0C5F095F0700BE493A3C3994005D9
:101B8300E9048002A3E475F002A42582F582E5F05E
:101B93003583F583D0E0F9E493A3C0E0E493C0E098
:101BA30022D083D082ECC0E0EDC0E0E493A3FCE458
:101BB30093A3FDED4C600D121BF0EC24FFFCED3400
:101BC300FFFD80EFE493A3FCE493A3FDED4C600DD4
:101BD300121C2FEC24FFFCED34FFFD80EFD0E0FD61
:101BE300D0E0FCE493A3C0E0E493C0E022C0E0C3F0
:101BF300E49396087401939618400FE49366700873
:101C030008740193661870007019A3A3C3E4939634
:101C1300087401939618A3A3400DD0E0D0E0D0E060
:101C2300021BE0A3A3A3A3A3A3D0E022C0E0C0F0C0
:101C330088F0E4936670080874019366187000A82E
:101C4300F0A3A3700BD0F0D0E0D0E0D0E0021BE013
:071C5300A3A3D0F0D0E022B2
:101C5C0074F6121973EAFEEBFF8C088D09EE24342E
:101C6C00F8E43FF9E8FCE9FD121D8FE0FAEE2437A9
:101C7C00F582E43FF583E0F88508F0A4C885F00A06
:101C8C008509F0A4250AF9EA28F8E439F97A257BC4
:101C9C000012180CEA8C828D83F0FA131313541F64
:101CAC00F8EE28F8E43FF9E8245DF582E439F58391
:101CBC00E0C0E074075AF8D0E0B800028004C31307
:101CCC00D8FCA2E05003EA8020EE2436F582E43FF3
:101CDC00F583E0F5F0EA84A8F0EE28F8E43FF9E8A3
:101CEC002438F582E439F583E0F97F03021A1F7476
:101CFC00F5121973EAFEEBFFEE2434F582E43FF59E
:101D0C0083E0C0E0121D8FD0E0F08E828F83A3A3FE
:101D1C00A3A3A3E0FAA3E0FB8E828F83A3A3A3A3C8
:101D2C00A3A3A3E0FCA3E0FDECC39AF50AED9BF59D
:101D3C000BEE247FF508E43FF509850882F583E076
:101D4C006401702AEE2480F582E43FF583121B3186
:101D5C00121D9974021218ADE960137CB07D04EE6B
:101D6C00FAEFFB120C89850882850983E4F0AC0A32
:101D7C00AD0BEEFAEFFB121C5CE9F91225F77F04B0
:101D8C00021A1FEE2435F582E43FF58322C082C08F
:101D9C0083851882851983E0F8A3E0F9C3EA9CEBEC
:101DAC009D5010C3EC98ED99401BC3EA98EB9950E9
:101DBC0014800EC3EA98EB994007C3EC98ED994058
:101DCC0004790180027900D083D08222EAC39CFA84
:101DDC00EB9DFB2274ED121973900376E06408609E
:101DEC0005E06407702C9061C8E060269003A4E0C5
:101DFC00F874FF68601CE875F00AA4C8AAF02AF908
:101E0C0074A628FE740339FF8E828F83A3A3A3E0EC
:101E1C0070057900021F79EE2468F50EE43FF50F8A
:101E2C00906060E0850E82850F83F075102075112F
:101E3C0005750800750900E5D914F50AE5D95403B0
:101E4C00F50B601FEE2482F50CE43FF50D74036571
:101E5C000B6059E50A6017EE2467F582E43FF583C1
:101E6C00E0700B793DEEFAEFFB120CB980A49005F3
:101E7C001BE064016023850C82850D83E060047A8D
:101E8C000480027A00E50AC39AFA95E0FB120B155E
:101E9C008A088B09EA45097006120F11021E1E856D
:101EAC000C82850D83E070048A108B117A008014EB
:101EBC00E5D9C0E0EAF8E51028F582E43511F583A0
:101ECC00D0E0F00AEAC3950A40E6850C82850D83C2
:101EDC00E0602874FC250AF50A7810121B1AAC0A6B
:101EEC00A90BEEFAEFFB120D6774021218ADE97034
:101EFC000AAA08AB091213D3021E6F7403650B6098
:101F0C0054850A0C750D00780C121B1AAC10AD110F
:101F1C00AA08AB09120D2B74021218AD850E82851E
:101F2C000F83E0F87480687005750C7F8002880C54
:101F3C00E50CF50D780D121B1E780B121B1EA90A51
:101F4C00AC08AD099003A4E0FA7B0012094D7402B1
:101F5C001218AD8013900376E06408600BAC10ADE2
:101F6C0011EEFAEFFB120DFD120F1D79017F0C0221
:101F7C001A1F74F312197374FC121897EAFEEBFF14
:101F8C008909A2AFE433F508C2AFEE2463F50AE485
:101F9C003FF50B8010AA0AAB0B120CE31213D39073
:101FAC0004B7E004F0850A82850B83E0F8A3E0F91E
:101FBC00E849602DE82402FAE439FBEA2402F50C26
:101FCC00E43BF50D780C121B1A8A828B83E0FCA380
:101FDC00E0F9EEFAEFFB120CD774021218ADE960BF
:101FEC00B49004B7E0604D9004B8E0F89004B7E00A
:101FFC00C398500C74026509703A9004B9E06034CF
:10200C008E828F83A3A3A3A3E085188285198312E4
:10201C00205074021218E3E81220509004B6E02805
:10202C00F074021218FDAA18AB1979011209A190CB
:10203C0004B7E4F0E508A2E092AF74041218AD7F87
:10204C0006021A1FF0A3E4F09004B7E0F822000097
:10205C008521878522C622C0E074EB121A5FA2AFDD
:10206C00E433F508C2AF759B00906182E0A2E050AA
:10207C0030E591A2E0502A7591FE74016521702122
:10208C001221F6120E571221E4121B2D1223A174E9
:10209C00041218ADE9640170057901120EA5121D28
:1020AC00E0906182E0A2E5505DE591A2E5505775A4
:1020BC0091DF900376E064076005E06408702F12EE
:1020CC0021F674016521703E120E571221E4121B89
:1020DC002D1223A174041218ADE964017005790165
:1020EC00120EA57901EEFAEFFB121F7E8018E06448
:1020FC000D7013900398E004F064287002E4F07AF9
:10210C0000E0F9120F23906182E0A2E64003022165
:10211C00B9E591A2E640030221B97591BF9003760F
:10212C00E064057008120E3F120E4B8003120E4530
:10213C00752100120EB1E9900377F07900120EA50B
:10214C00120BF37A017B00900375E0F91213A39044
:10215C007803E06442705690051FE014F0704EC294
:10216C00AF12217000782AD0E0F618D0E0F6E59F87
:10217C005407F87005750DFF8003750D7FC4C0E022
:10218C007829E6F50A08E6550DF50B740B780A125A
:10219C001875D0E0250AF8906270E0A2E740F8E8E4
:1021AC00C333906272F0906270E0D2E0F090618183
:1021BC00E0A2E35009E5E9A2E3500375E9F7A3E0D7
:1021CC00A2E75009E591A2E7500375917FE508A2BB
:1021DC00E092AF7F08021ABE8E828F83E0F8A3E0F4
:1021EC00C82416F582E438F583229003A4E0F87530
:1021FC00F00AA4C8AAF02AF974A628FE740339FFC1
:10220C0022C0E0C0D0C082C083906183E0A2E050C5
:10221C0009E5BFA2E0500375BFFEE0A2E15009E55D
:10222C00BFA2E1500375BFFDE0A2E25009E5BFA2D9
:10223C00E2500375BFFBE0A2E35009E5BFA2E350F7
:10224C000375BFF7E0A2E45009E5BFA2E4500375A3
:10225C00BFEFE0A2E55009E5BFA2E5500375BFDF73
:10226C00E0A2E65009E5BFA2E6500375BFBFD083DC
:10227C00D082D0D0D0E032C0E074F2121A5FE5A761
:10228C00A2E4500FE5A1A2E4500953A7EF75A1EF0A
:10229C001222D7E5A7A2E5500CE5A1A2E550065302
:1022AC00A7DF75A1DFE5A7A2E15009E5A1A2E150E6
:1022BC000375A1FDE5A7A2E2500CE5A1A2E2500630
:1022CC0053A7FB75A1FB7F01021ABE74F812197398
:1022DC00752101900376E0640670077A007B00128A
:1022EC000E27A2AFE433FED2AF90037CE064017002
:1022FC00187A207B00900375E0F91214B77A207BD2
:10230C0000900375E0F91213A9906182E0D2E6F017
:10231C0090051CE0602185C622801690037BE0644A
:10232C00017008E5C654F84405F5C653BEFC1220EE
:10233C005C7401652160E4EEA2E092AF7F01021AA9
:10234C001F0000008E238F24858228858327851803
:10235C0082851983E0CEA3E0CF852882852783EB85
:10236C00C9EAC8EDCBECCA75F010C3E833C8E93341
:10237C00C9EA33CAEB33CBC3EA9EF526EB9FF525AE
:10238C00B35004AB25AA26EC33CCED33CDD5F0DA23
:10239C00AE23AF242274F11219738A088B098C0AAC
:1023AC008D0B90906E7808121735740F1218E37815
:1023BC000C12175B90906E780C1217357808790C0C
:1023CC0012156E90908650107808790C12170D78B3
:1023DC000812158E4014800E780C790812170D789F
:1023EC000C12158E50047901800279007F08021AB4
:1023FC001F74ED1219738A088B098C0A8D0B90903F
:10240C006E780812173574131218E3780C12175BD8
:10241C0090906E780C121735780C790812156E4066
:10242C00117808790C12170DAA08AB09AC0AAD0B80
:10243C00802275100075110075120075130178104B
:10244C00790C12170D781079081216D4AA10AB114A
:10245C00AC12AD137F0C021A1F90906E78081217F5
:10246C005B8A828B8378081217487F04021A1F74C8
:10247C00F51219738C828D83780812175B8A828B04
:10248C008378081217211224CFC3E098F0A3E099A7
:10249C001224C1401E9090BE780812175B8A828B62
:1024AC008378081216FA8E828F83E02420F0A3E042
:1024BC00344EF080A4F08E828F83C3E09420A3E08E
:1024CC00944E22EA2404F8E43BF9E8FEE9FF8C82FE
:1024DC008D83A3A3A3A3E0F8A3E0F98E828F8322BC
:1024EC0074F5121973E9FE9004D2E0FAA3E0FBEE46
:1024FC0029F8E433F9748028F582748F39F583E078
:10250C002AF508A3E03BF5097808121B1A9090B243
:10251C0012177912235074021218AD8A088B098C89
:10252C000A8D0B7410780812169CAA08AB097F044C
:10253C00021A1F74F11219738A0C8B0D8C0E8D0FED
:10254C0074111218E3121B3174111218E3E02401F8
:10255C00F508A3E03400F509E4F50AF50B780C79DD
:10256C00081215AD90907E780812175B780C7908DC
:10257C001215ADAA0CAB0DAC0EAD0F12235074029C
:10258C001218AD8B09EA450960047A0180027A00C1
:10259C00EC2AFCE43DFD74131218E3E0F8A3E0F917
:1025AC00E8FEE9FFECF8EDF97A717B0212180C8861
:1025BC00088909E4F50AF50B8E828F8378081217C7
:1025CC006AECF8EDF97A717B0212180C8A088B0907
:1025DC00740578081218848E828F83A3A3A3A3E5B5
:1025EC0008F0A3E509F07F08021A1FC082C083E936
:1025FC00906000F0D083D08222C0E074F2121A5F97
:10260C00A2AFE433FED2AFC2C0E5D1A2E45006754E
:10261C00D10F12130DEEA2E092AF7F01021ABEC0D1
:10262C00E074F2121A5FA2AFE433FED2AFE589A2D6
:10263C00E04006E589A2E150031212657589007528
:10264C008900C2C5EEA2E092AF7F01021ABEC0E0C3
:10265C00C0D0E8C0E0E9C0E0A9A8D2AFC2C7E9A2E7
:10266C00E7E433F8E9A2E792AFD0E0F9D0E0F8D094
:10267C00D0D0E032C0E0C0D0E8C0E0E9C0E0EAC0B1
:10268C00E0C082C083A2AFE433FAD2AF9009BFE0BE
:10269C00F8A3E0687008539AFBA374018022C2E986
:1026AC009009BFE0F8740128F0743F28F582E434F7
:1026BC0009F583E0F5C19009BFE0C394804002E4C2
:1026CC00F0EAA2E092AFD083D082D0E0FAD0E0F969
:0E26DC00D0E0F8D0D0D0E032C2AF0200002231
:1026EC00FFFFFFFFFFFFFFFFC082C083E990177C55
:1026FC00F0D083D08202011F74F6121907E9900200
:10270C00E8F0900348E0F5087509007402780812A7
:10271C001884AA08AB091214159002E91230B7906C
:10272C0002E91234A4606F900348E075F003A4FA38
:10273C00ABF01214159003061230B7900306123446
:10274C00A4700B9002E912347512141B804890038C
:10275C00061244097AFF7BFF1211D57A0080198A80
:10276C000875090074027808121884123EB174FFBF
:10277C001228B7E4F0A3F00A900348E0F8EAC398F3
:10278C0040DD79051208399002E8E0F91207257A44
:10279C00C37B08120AB5023F5474F41219078A0855
:1027AC008B09EB548060479002E8E0F912138B8A96
:1027BC000A8B0BAE0AAF0BEE4F602A8E828F83E032
:1027CC0064B0701A12084BE960148E828F83A3A335
:1027DC00A3A3E0F9EE2405FAE43FFB12081BEEFA82
:1027EC00EFFB121379AA08E5096480FB80047A00D8
:1027FC007B00022A0774F212190774FB121897EA6D
:10280C00FEEBFFEE4F604574031218E3EEF0A3EFFE
:10281C00F0851882851983ECF0A3EDF07402121880
:10282C00E3E9F0AA18AB1912071FE9F508707574E3
:10283C00131218E3E0F50AA3E0F50BE50A450B606B
:10284C00638E828F83122E40EE4F700575080280C6
:10285C00537A067B001214158A0C8B0DA80CA90D4B
:10286C00E8497005750813803B88828983E4122837
:10287C00B7EEF0A3EF1229D3E50AF0A3E50BF09025
:10288C0002EC1229CC9002EC6017E0FCA3E0800370
:10289C00EAFCEBFD8C828D831229CC70F38C828D3B
:1028AC0083123ACCA9087405024689F0A31243EBB3
:1028BC00A32274F21219078908890C750D00740390
:1028CC00780C121884850C0A850D0B9002EBF09095
:1028DC0002E91238D71229CA602E12141B79008013
:1028EC001D890C750D007402780C1218849002E985
:1028FC00123D708882F583A3A3E4F0A3F009900342
:10290C0048E0F8E9C39840D9900348E0FA850AF00A
:10291C00A4CAA8F0850BF0A428FB1214158A0C8B02
:10292C000DAE0CAF0DEE4F70030229C0900348E0C2
:10293C00FC850AF0A4CCA8F0850BF0A428FD790046
:10294C001213677C0080318D0C750D007403780CAC
:10295C001218848A828B831229C588828983E4F0B9
:10296C001229D2A3A3F0A3F00DEDC3950840D8EE25
:10297C00250AFEEF350BFF0C900348E0F8ECC398EA
:10298C0050288C0C750D007402780C12188490026F
:10299C00E91229C5E82402500109FAE9FB8A828B65
:1029AC0083EEF0A3EFF07D0080BFE5089002EBF022
:1029BC0079008002791302468C123D74F922A3A38C
:1029CC00123479EA4B22A31243EBA3A3A32274F48F
:1029DC001219077900EAA2E0501F75084E7509908C
:1029EC007808121B1A79107C047D007A7E7B1712F2
:1029FC00083374021218ADE9F980007F040219D96A
:102A0C00C082C0839002EC1234A4601C888289833B
:102A1C00A3A3E06A7003A3E06B8882898370E8A3A8
:102A2C00A3A3A312347580047A007B000226FD74E4
:102A3C00F212190774FD121897EAFEEBFF85188243
:102A4C00851983E4F0A3F074021218E37401F012F8
:102A5C0034A170141209EF1214159002EF1230B752
:102A6C001234A17003022BCD1231B7EE2404F50AF7
:102A7C00E43FF50B850A82F583E024FE603C24FCE0
:102A8C00607424FE607E24FE7003022B1D24FE70F5
:102A9C0003022B2A24FE7003022B3724FE70030240
:102AAC002B4424FE7003022B5124FC7003022B7266
:102ABC0024FE7003022B8A022BC61209EF9002F13E
:102ACC00EAF0A3EB122BD9120467E96003022BC6C0
:102ADC009002F1121B318E828F83A3A3A3A3A312A6
:102AEC00440985088285098312347512080374021F
:102AFC001218AD022BC6AC18AD19EEFAEFFB12088A
:102B0C0051022B95AC18AD19EEFAEFFB1208578059
:102B1C0078AC18AD19EEFAEFFB12085D806BAC18AF
:102B2C00AD19EEFAEFFB120863805EAC18AD19EE2E
:102B3C00FAEFFB1208698051AC18AD19EEFAEFFBF5
:102B4C0012086F804474021218ED880C890D780CF1
:102B5C00121B1A74021218FDEEFAEFFB12087574B0
:102B6C00021218AD8023AC18AD19EEFAEFFB120867
:102B7C007BE9F8701674021218E3E4F0803CAC1890
:102B8C00AD19EEFAEFFB120881E9F8E8602C8E82A1
:102B9C008F83A3E064146022850A82850B83E09006
:102BAC0002F1F08518828519831234759002F212A5
:102BBC0030B7E8A3122BD9120461EEFAEFFB12071F
:102BCC00D974021218E3E0F97403024689F07CF11F
:102BDC007D028508828509831234792274E81219E2
:102BEC000774FA12189774041218E3ECF0A3EDF0C2
:102BFC008A128B13EA2405F50EE43513F50FEA243B
:102C0C0002F510E43513F511851082F58312347535
:102C1C001205578A0A8B0B7508007C037D0079001E
:102C2C007AF17B02121367E50E2402F516E4350FD8
:102C3C00F51774021218ED880C890D780C121B1AFA
:102C4C00850E82850F83A3A3A3A3E0F50C750D005D
:102C5C00780C121B1AE50E2405F50CE4350FF50D56
:102C6C00780C121B1A85168285178312377C120773
:102C7C003D74061218AD8A0C8B0DE50C450D7003D6
:102C8C00022E098020851882851983E08882898329
:102C9C00F00508851882851983A3E0C0E0122E4A3E
:102CAC00D0E0F00508E50A24FBFAE50B34FFFBC382
:102CBC00E5089AE49B4003022E097E007F008512F2
:102CCC0082851383A3A3A3A3E0F5097809121B1E25
:102CDC00E4F514F5157814121B1A7514EE7515021B
:102CEC007814121B1A9002EF121B3174091218E39C
:102CFC00121B31E50A24F9F9AC0CAD0D8510828557
:102D0C0011831234751208AB74091218ADE9600303
:102D1C00022DAA850E82850F83A3A3A3A3A3A3A32D
:102D2C00E0F89002EEE0687075E0F5148E157814FA
:102D3C00121B1A124406850E82850F83A3A3A3A32C
:102D4C00A3A3A3A312347512136174021218ADE974
:102D5C00604C9002F21234A4703BE4F51478141217
:102D6C001B1A7CFF7DFF7907851082851183123435
:102D7C007512081574021218AD1234AA7017850E4C
:102D8C0082850F831245A374041218E3123E641259
:102D9C0037AD022E3D850C82850D83122E40A8186E
:102DAC00A919881489157814121B1A74041218E3C3
:102DBC00121B318516828517831230AD12074974A8
:102DCC00041218AD8A0C8B0DEE4F7003022C861278
:102DDC002E4AEE122E55123763EF122E55F8A3E041
:102DEC003400F9E50C450D6003022C91888289832F
:102DFC0074FFF00508122E4A74FFF00508E5086010
:102E0C001A1313543F1230BD120473E96009900277
:102E1C00F21234751213D379008016850E82850F49
:102E2C00831245A374041218E3123E64123ACC794F
:102E3C000A023736A3A3A3A3E0FEA3E0FF22A8084F
:102E4C009002F2E02812376322F00508089002F293
:102E5C00E0282274E812190774FA121897740212F7
:102E6C0018E31230B774041218E3ECF0A3EDF0740D
:102E7C00021218E3E0240512374CE0F50CA3E0F540
:102E8C000D74021218E3E02402F510A3E03400F5EF
:102E9C0011851082F583123475120557750800756B
:102EAC000900EA24FCFEEB34FFFF8008050CE50C5E
:102EBC007002050DA808C3EE98EF94005003023081
:102ECC0069A818A919880E890F780E121B1A851477
:102EDC0082851583A3A3A3A312440D121B1AE51418
:102EEC002405F50EE43515F50F780E121B1A851412
:102EFC00828515831230AB12073D74061218AD8A09
:102F0C000E8B0FEA450F7003023069EA2404F516A4
:102F1C00E4350FF517851682F583E0F50CA3E0F583
:102F2C000D8518828519831244098A828B83A3A389
:102F3C00A3E0F985108285118312347512072BE9F1
:102F4C00F509600302306974021218E3123773F545
:102F5C00097809121B1EE4F512F5137812121B1ACC
:102F6C007512EE7513027812121B1A9002EF121BD7
:102F7C003174071218E3121B31EEF9AC0EAD0F854C
:102F8C0010828511831234751208AB74091218ADB6
:102F9C00E9F5096003023069E508703FE4F50EF5C8
:102FAC000F780E121B1A7CFF7DFF79098510828524
:102FBC00118312347512081574021218AD12379958
:102FCC00700D74041218E31230A0791102309D9028
:102FDC0002EEE024029002F2F080149002F2E0FA89
:102FEC009002EEE0790024025001096A497072A83F
:102FFC00089002EEE0FAE82AFAE43400FBEE9AEFCD
:10300C009B405A851682851783E0C0E09002F3122C
:10301C002E4FD0E0F00508851682851783A3E0C0FB
:10302C00E0089002F3122E4FD0E0F005089002EE6B
:10303C0012440D121B1A124406A808123740121320
:10304C004F74021218AD9002EEE02508F50874FFDB
:10305C00650C700474FF650D6003022EB8E5086002
:10306C001F9002F2E0F5F0E508841230BD120479ED
:10307C00E960099002F31234751213D379008011B0
:10308C00E509700375090A74041218E31230A0A93B
:10309C00090237361238DBE50CF0A3E50DF022A35C
:1030AC00A3124698AA0CAB0D22A3A3EAF0A3EBF053
:1030BC00229002F1F07CF17D028510828511831241
:1030CC0034792274EC12190774FC121897123BDC39
:1030DC0074021218FD12346F1207438A0C8B0DEA1E
:1030EC00450D70030231A71231B7A818A919881021
:1030FC0089117810121B1A7CFF7DFF790B850882D1
:10310C0085098312347512081574021218AD123227
:10311C00AD700C850A82850B831237AA0231B48EEE
:10312C00828F83A3A3A3A3E0F5127812121B1EE4D3
:10313C00F512F5137812121B1A7512F17513027829
:10314C0012121B1A7810121B1A74091218E3121B94
:10315C003174091218E3E0F9AC0CAD0D85088285C9
:10316C0009831234751208AB74091218ADE9FE709C
:10317C00157CF17D02850882850983123475120451
:10318C007FE97009802074166E70027E009002F246
:10319C001234751213D3EE7004800B7E01850A82F3
:1031AC00850B83123AC9EEF9023ADEEE2402F508D9
:1031BC00E43FF5092274EC12190774FC121897EA13
:1031CC00FEEBFF8C0E8D0FEE2405F508E43FF509A0
:1031DC0074021218FD850882850983123475120752
:1031EC00438A0C8B0DEA450D700302329DEE2402CE
:1031FC00F50AE43FF50BA818A91988108911781065
:10320C00121B1A7CFF7DFF790D12346F1208157496
:10321C00021218AD1232AD700B850882850983122B
:10322C0037AA807A8E828F83A3A3A3A3E0F51278AA
:10323C0012121B1E850882850983A3A3121B3175EC
:10324C0012F17513027812121B1A7810121B1A74D1
:10325C00091218E3121B3174091218E3E0F9123445
:10326C006B1208AB74091218ADE9FE700F7CF17D7E
:10327C000212346F120485E97009802074166E7086
:10328C00027E009002F21234751213D3EE70048099
:10329C000B7E01850882850983123AC9EEF9023A40
:1032AC00DE1234B4F510A3E0F511EA45112274E8EE
:1032BC0012190774FE1218978A168B178C148D1519
:1032CC00EA2405F50CE43517F50DEA2402F50EE4B5
:1032DC003517F50F850E82F5831234751205578A52
:1032EC00088B09750B007C037D0079007AF17B0259
:1032FC00121367750A00E50814F5100424FFF5088D
:10330C00E50934FFF50980549002F1E0FA9002EEE1
:10331C00E0F8EA28F8E43400F9E50898E509995052
:10332C000D9002F1E0F8E510C3989002EEF0E0F594
:10333C00127513007812121B1A1244069002F2E056
:10334C002AFAA3E03400FB12134F74021218AD904A
:10335C0002EEE0F89002F1E028F0050A850C828577
:10336C000D83A3A3123D8040030234509002F1E080
:10337C00C39508E495094003023450AE0AEE2EFEC4
:10338C00E433FF12348FAC18AD19124421E439FB2D
:10339C001207438A128B13AC12AD13EC4D701B75D4
:1033AC000B0112347F123ACD9002F21229CC600339
:1033BC001213D3A90B740202373885168285178332
:1033CC00A3A3A3A3E0F50B780B121B1EE4F512F5D7
:1033DC00137812121B1A7512EE7513027812121B47
:1033EC001A9002EF121B3174071218E3121B31A949
:1033FC0010850E82850F831234751208AB74091276
:10340C0018ADE9F50B709B9002F21234A460030224
:10341C003314E4F512F5137812121B1A7CFF7DFF9E
:10342C00790F850E82850F8312347512081574027C
:10343C001218AD1234AA600302331412347F1237FF
:10344C00AE0233C17CF17D02850E82850F8312346E
:10345C007512048BE960030233B479000233C1ACFA
:10346C000CAD0D850A82850B8312347922E0FAA308
:10347C00E0FB2212348FE0FAA3E0F9EA851482858E
:10348C00158322850C82850D83E02EF8A3E03FF98D
:10349C0088828983229002EF1245A7E849221234D0
:1034AC00B4F8A3E0F9E849229002F2EAF0A3EBF0B9
:1034BC009002F2E02274E812190774FA1218977449
:1034CC00041218E31230B78C168D1774041218E31B
:1034DC00E02405F50EA3E03400F50F74041218E394
:1034EC00E0240212374C1234751205578A0A8B0BE2
:1034FC007F007E00A818A919880889097808121B72
:10350C001A850E82850F83A3A3A3A3E0F5088E0969
:10351C007808121B1AE50E2405F508E4350FF50999
:10352C007808121B1A850E82850F83A3A312377C91
:10353C0012073D74061218AD8A0C8B0D80291237B8
:10354C006DF00F12376DF00F9002EE123AB8121B9D
:10355C001A124406EFF812374012134F7402121865
:10356C00AD9002EEE02FFFE50C450D70030235FC2B
:10357C00851882851983123BEEA3A3A3E0F9851469
:10358C008285158312347512072BE9FEE50C240491
:10359C00F510E4350DF511EE705074041218E312A9
:1035AC003773F5087808121B1EE4F508F50978083E
:1035BC00121B1A7508EE7509027808121B1A900274
:1035CC00EF121B3174071218E3121B31E50A24FAAF
:1035DC00F9AC0CAD0D851482851583123475120867
:1035EC00AB74091218ADE9FE6039123789123ACC66
:1035FC00EF70030237239002F2E0F5F0EF849002B3
:10360C00F1F07CF17D0285148285158312347512DC
:10361C000491E960099002F31234751213D3790006
:10362C000237368F08EF703BE4F512F5137812125F
:10363C001B1A7CFF7DFF791185148285158312344A
:10364C007512081574021218AD12379970091237D9
:10365C00891237AD0237369002EEE024049002F264
:10366C00F080359002EEE0F89002F2E0FAE82404E3
:10367C00FCE43400FDEC6A4D6003023602E50A24DA
:10368C00FAFAE50B34FFFBE50828F8E43400F9EA14
:10369C0098EB995003023602851082851183E0C0A5
:1036AC00E09002F3E02FF8A3E034008882F583D099
:1036BC00E0F00F851082851183A3E0C0E012375A29
:1036CC00D0E0F00F74021218ED88088909780812FE
:1036DC001B1A74021218E3121B31850E82850F839C
:1036EC001230AB12074974041218AD8A0C8B0DEA18
:1036FC00450D700302354A74021218E3E0C0E01263
:10370C00375AD0E0F00F74021218E3A3E0C0E012B5
:10371C00375AD0E0023552EE70027E0A850E828551
:10372C000F8312378F123ACCEEF974061218AD7F54
:10373C00100219D99002F3E028FAA3E03400FB221E
:10374C00F514A3E03400F515851482F583221237A5
:10375C005E229002F3E02FFAA3E034008A82F58314
:10376C002212375E74FF221238DBA3A3A3A3E0223C
:10377C00124698850E82850F831234792285108229
:10378C008511831245A7851682851783229002F333
:10379C00EAF0A3EBF09002F31245A7E84922123AA3
:1037AC00D2E8F0A3E9F079112274EA12190774FE39
:1037BC001218978A088B098C128D13EA2405FEE4E3
:1037CC003509FFAC18AD198E828F83123475120730
:1037DC00438A0C8B0DEE2406F50EE43FF50FEA45FB
:1037EC000D70030238ADE5082402F50AE43509F53D
:1037FC000B8A828B83A3A3A3E0A2E55028851882B1
:10380C0085198312347512089F8A108B11EA4511A1
:10381C006020791212346B85108285118312190580
:10382C00E9F50C707F850E82850F83E06009795273
:10383C008011750C0E806D850882850983A3A3A366
:10384C00A3E0F9E4F508F5097808121B1A8E828FAB
:10385C0083A3A3E0F5087808121B1A8E828F83A32A
:10386C00A3A3121B318E828F8312440912346F1260
:10387C0008B174061218ADE9F50C7011850E82852D
:10388C000F83E0702D12346F120497802574166527
:10389C000C7011750C0074181218E31238D7E480F0
:1038AC0010750C0112459F851282851383E8F0A3D5
:1038BC00E9F0850E82850F83E0600479008002A90F
:1038CC000C74021218AD7F0E0219D91238DB22E0EB
:1038DC00F8A3E0F58388822274EC12190774F712AE
:1038EC0018978A0A8B0B8C108D11EA2405FEE4358F
:1038FC000BFF750C00AC18AD198E828F83123475CA
:10390C001207438A088B09EA45097003023AA3E5BA
:10391C000A2402F50A5002050B8A828B83A3A3A307
:10392C00E0A2E5502F851882851983123475120890
:10393C009F8A0C8B0DEA450D604F7912AC08AD09CE
:10394C0012346F850C82850D83121905E9F50C6014
:10395C0003023AA6850A82850B83E0F508A3E0F5FD
:10396C0009AA08FB120893EA4B70197AFF7BFF1225
:10397C000893EA4B7003023A998A828B83E508F02C
:10398C00A3E509F07508008008750C0E023AA6052F
:10399C00089002EBE0F8E508C3984003023A9985D9
:1039AC00080E750F007403780E1218848A828B83AC
:1039BC00A3A3E0250EF8A3E0350F123E6D70D08E58
:1039CC00828F83123AC11230B78E828F83A3A312D7
:1039DC003AC11230B5EE2404F508E43FF509850828
:1039EC0082F583E088828983A3A3A3A3F0A3E4F0E8
:1039FC00EE2405F50EE43FF50F850E82F583123AA1
:103A0C00C1A3A3A3A31230B57512077513007812C6
:103A1C00121B1AEEFCEFFD74041218F512134F74FE
:103A2C00021218ADE4F5127812121B1A8508828561
:103A3C000983E0FC7D00791712346F1208157402AB
:103A4C001218AD74071218E31230B774071218E38A
:103A5C00E0FA4B603D850882850983123AB8121B47
:103A6C001A850E82850F8312440912134F740212A9
:103A7C0018AD74021218FD12346F12049DE9602601
:103A8C0074071218E31234751213D38019750C09CC
:103A9C008008750C118003750C0112459F851082EE
:103AAC00851183123ACCA90C74098028E0F50875AD
:103ABC0009007808221234798882898322123AD23A
:103ACC00E8F0A3E9F022E0F8A3E0F9850E82850F77
:103ADC00832274041218AD7F0C0219D974EC1219DC
:103AEC0007123BDC751000EE2402F50CE43FF50DDB
:103AFC00850C82F5831234751208938A088B09EAB7
:103B0C0045097003023BC0850A82850B83E0640182
:103B1C006003023BB5AC08AD09AA0AAB0B120887CF
:103B2C00E9606E850882850983122E42EE2406F523
:103B3C000AE43FF50B8E828F83A3A3121B318E8276
:103B4C008F83A3A3A3A3121B31850A82850B831237
:103B5C001B3179188E828F83123BEE12347512084A
:103B6C00B174061218ADE9F8741668700B850A82E8
:103B7C00850B83E4F0A38014E860128E828F83128D
:103B8C003475850E82850F83EAF0A3EBF0881080E4
:103B9C0018780E121B1AAC08AD09EEFAEFFB1208DE
:103BAC008D74021218ADE9F510AA08AB0912089928
:103BBC00E510700E850C82850D831234751204A3EA
:103BCC008009741665107003751000A910023AE391
:103BDC00EAFEEBFF8C0E8D0FEE2405F50AE43FF5A3
:103BEC000B22124698850C82850D832274EA1219D9
:103BFC00077508007509007E007F00750A00EC242B
:103C0C0002F510E43DF5118035EC65087003ED65A7
:103C1C00096003023CAD88828983A3A3E06A700328
:103C2C00A3E06B707C88828983A3A3A3A31245A312
:103C3C00EE28FEEF39FFEA28FAEB39FB050A123DB4
:103C4C007D503A850A0C750D007403780C1218849B
:103C5C00851082851183123D70123E6D601FE50840
:103C6C00450970A58C088D0988828983122E40889D
:103C7C00828983A3A3E02EFAA3E03F80BEE50AC3AA
:103C8C0094025003023D6B750800750900EE4F60FD
:103C9C0010EEFAEFFB1213CD8A0E8B0FEA450F7064
:103CAC00057900023D6D750B00023D40850B0C75CE
:103CBC000D007403780C121884851082851183E032
:103CCC00250CF50CA3E0350DF50DE50C2406F514CB
:103CDC00E4350DF515851482F583123E726042E5CC
:103CEC000C2404F512E4350DF513851282F58312BC
:103CFC001B31E50E2508FAE50F3509FB12134F743D
:103D0C00021218AD851282851383E02508F508A3ED
:103D1C00E03509F509851482851583123475121363
:103D2C00D3E50B600D7C087D007900AA0CAB0D125D
:103D3C001367050BE50BC3950A5003023CB88510BD
:103D4C00828511831245A388828983A3A3A3A3A38D
:103D5C00A3E50EF0A3E50F1229D3EEF0A3EFF07953
:103D6C00010238D2123D7422E0250CF8A3E0350D87
:103D7C00229002EBE0F8E50AC3982274F0121907BE
:103D8C008A0E8B0F8C0A8D0B750D00750C008050F4
:103D9C007916EE2406F508E43FF5098E828F83A38D
:103DAC00A3121B318E828F83A3A3A3A3121B318575
:103DBC000882850983121B31850E82850F83A3A38C
:103DCC001234751208B174061218ADE9F50D74169B
:103DDC00650D706C850882850983E4F0A3F0050CF1
:103DEC009002EBE0F8E50CC3985066AA0C8A0875B3
:103DFC00090074037808121884850A82850B83A342
:103E0C00A3123EBCE8FEE9FF8E828F83123E7260E5
:103E1C0040EA2401F508E43400F5099002EBE06572
:103E2C00087002E509601488828983A3A3A3A3A365
:103E3C00A3A3A31234A46003023D9C7918023D9EF7
:103E4C00E9609B12459F74101218E3123E64123AFB
:103E5C00CCA90D7F080219D9E0FAA3E0F5838A8278
:103E6C0022F988828983124698EC4D2274F6121935
:103E7C00077C0080010C900348E0F8ECC398501EBE
:103E8C008C0875090074027808121884123EB1E08F
:103E9C006A7003A3E06B70DDE8FAE9FB80047A003A
:103EAC007B00023F549002E9123EBC888289832237
:103EBC00E02508F8A3E03509F92274F21219078AF3
:103ECC00088B09750A0080278E828F83A3A3A3A376
:103EDC001229CA60031213D37C087D007900EEFA14
:103EEC00EFFB1213678E828F83E4F0A3F0050A12A6
:103EFC003D7D5027850A0C750D007403780C121843
:103F0C0084850882850983A3A3E0250CFEA3E035F4
:103F1C000DFF8E828F831234A470AD8508828509C3
:103F2C008374FFF0A3F002468C74F6121907120882
:103F3C00458A828B83E582458370067A007B0080FC
:103F4C0007A3A3A3A31234757F020219D974F41228
:103F5C00190789088C828D83E06402703C124542FB
:103F6C00FEA3E0F9EEF874026870037429697029F5
:103F7C00750A02750B00780A121B1A74101218E3DA
:103F8C00121B3174101218E3121B31A9081211E71D
:103F9C0074061218ADE9F980027901022A0774E857
:103FAC0012190774FB121897E9851882851983F08A
:103FBC008A168B17ECFEEDFF7510008E828F83A393
:103FCC00A3A3E0A2E4502D741D1218E31234751251
:103FDC00089F8A828B83E582458370030243E179D3
:103FEC000AEEFCEFFDAA16AB17121905E9F51060E5
:103FFC00030243E4741F1218E3E0F508A3E0F5098B
:10400C0074211218E3E0F50AA3E0F50B74231218DF
:10401C00E3E0F50EA3E0F50F8E828F83E06402607F
:10402C0003024382A31245A3850882850983A385D5
:10403C008212858313EE2406F50CE43FF50D88827D
:10404C008983124421F514E439F5157814121BA454
:10405C000100002801288440070002284941032858
:10406C00B740002978420129A3420229444203297E
:10407C00784204291C438243E50E450F600302433A
:10408C007D850C82850D831245A3E8FAE9FB8A82B3
:10409C008B83E0850A82850B8312442C121B1A8AAF
:1040AC00828B83A3E0FCA3E0024306E50E450F6080
:1040BC000302437D850A82850B837401F01244163A
:1040CC00850882850983F07C007D008E828F83A316
:1040DC00A3A3A3E02401FAA3E03400FB120743EAF4
:1040EC004B60408A828B83E02402F8850A82850B20
:1040FC0083E028F0EA2404F8E43BF988828983E021
:10410C0085128285138312443A12442C121B1A8A8C
:10411C00828B83A3124409E5082403FAE43509FBD6
:10412C0002430B850A82850B83E02404F07C047D1A
:10413C00007900AA12AB131213670243E4E50E4593
:10414C000F600302437D124416FEA3E0FF850A8232
:10415C00850B837404F0EE850882850983F0EF8566
:10416C001282851383F074031218FDEEFAEFFB1222
:10417C0007438A0C8B0DEA450D70030242278A8295
:10418C008B83A3A3122E4074011218ED880E890F95
:10419C00780E121B1A74051218E3121B317CFF7D6A
:1041AC00FF12074974041218AD8B0FEA450F7033D8
:1041BC00850C82850D8312440D121B1A850C828589
:1041CC000D83A3121B317C027D007AE97B901205D2
:1041DC004574041218ADE9700A74011218E374FFE7
:1041EC00F0A3F08E828F83E064027039750C027537
:1041FC000D00780C121B1A8E828F83A3124409E5D2
:10420C00082404FAE43509FB12134F74021218AD9A
:10421C00850A82850B83E02402800974011218E35D
:10422C00EEF0A3EFF074011218E31243FB740112C9
:10423C0018E31243F2024377E50E450F6003024385
:10424C007D850C82850D83124691AA16AB1712112F
:10425C00ED850A82850B837402F0850882850983BB
:10426C00EAF0851282851383EB02437AE50E450F43
:10427C00600302437D124416F8A3E0F9850A828597
:10428C000B837402F0E8850882850983F0E98512B6
:10429C008285138302437A850C82850D83123475D3
:1042AC00121349EAFAF8C3950EE4950F405CE865E1
:1042BC000E450F70047A008021851882851983E0E1
:1042CC00FCE50E2CFCE4350FFDC3EC98ED9400508E
:1042DC0003E08005E50ECAC39AFAEA850A82850BCB
:1042EC0083F08A0A750B00780A121B1A850C8285DA
:1042FC000D83E0250EFCA3E0350FFDAA08AB0912D7
:10430C00134F74021218AD0243E47510070243E414
:10431C00E50E450F705B850C82850D831245A385D8
:10432C000A82850B837407F0888289831243F31207
:10433C0043EBE0851282851383F0E82402FAE4391A
:10434C00FB8A828B831243FB8A828B831243F2A3F8
:10435C00A31229D2124400F0E82405F85001098870
:10436C00828983124400A312443AA3A3A3A3F0802E
:10437C006775100B8062741D1218E31234751208E5
:10438C00458A828B83E5824583604A1245A3880C5B
:10439C00890DE8450D603E74251218E3E0F51078A0
:1043AC0010121B1E780E121B1A780A121B1A780890
:1043BC00121B1A74071218E3E0F9EEFCEFFDAA16B3
:1043CC00AB17850C82850D8312190574071218AD75
:1043DC00E9F510800375100EA9107405023738F03A
:1043EC0088828983A322A3E085088285098322120F
:1043FC004441F022124441A3A3229002EF124698AA
:10440C0022E0F50E750F00780E22850C82850D8347
:10441C001238DBE022E0FAA3E0F8E4C8F9EA28223B
:10442C00F08A828B83E0F50A750B00780A2212431E
:10443C00EB12444122E0850882850983A3A32274F0
:10444C00EE12190774FE1218978A088B09ECFEED10
:10445C00FF890AAC18AD19EEFAEFFB1207438A0C70
:10446C008B0DEA450D70030245338518828519833F
:10447C001234751208458A828B83E582458370035A
:10448C0002452EA3A31245A3880E890FE8450F7091
:10449C000302452E74141218E3E0F510A3E0F51195
:1044AC00E50AF50B780B121B1E74191218E3121B7C
:1044BC00317810121B1A741B1218E3E0F9AC0CAD16
:1044CC000DAA08AB09850E82850F83121905740598
:1044DC001218ADE9F50B705274FE650A604C850C30
:1044EC0082850D83E064027041124542FAA3E0F923
:1044FC00EAF87402687003742969702E851082853D
:10450C001183124421F50CE439F50D780C121B1AA9
:10451C00EEFCEFFDAA08AB091208C974021218AD23
:10452C008008750B0E8003750B01A90B7402121811
:10453C00AD7F0A0219D9A31245A788828983E0228C
:10454C0074F612190774FE121897740C1218E312F1
:10455C0045A3E8851882851983F074011218E3E9E4
:10456C00F0E4F508F5097808121B1A7508027808AA
:10457C00121B1A74041218ED880889097808121B8A
:10458C001A79FE1208B174061218AD74021218AD25
:10459C00023F548E828F831245A722E0F8A3E0F9E4
:1045AC002274F7121907EAFEEBFF89089003061232
:1045BC0044091211EDEA5402600BA908EEFAEFFB64
:1045CC00120737800279017F010219D974F212198E
:1045DC000774FE121897EAFEEBFF890A7401650A4C
:1045EC0060147402650A60030246877901120AD3CB
:1045FC00E96003024687EEFAEFFB120893EA4B6080
:10460C0003120899A818A919880889097808121B97
:10461C001A7508027509007808121B1A7508DF75DF
:10462C0009907808121B1A7CFF7DFF7A017B00121F
:10463C00073D74061218AD8038850882850983A35E
:10464C00A3A3A3A3A3124691EEFAEFFB1211D5E498
:10465C00F50CF50D780C121B1A74021218E3121BD0
:10466C00317CFF7DFFAA08AB0912074974041218AC
:10467C00AD8A088B09E508450970BE74021218ADA5
:10468C007F060219D91238DB12469822E0FCA3E00F
:10469C00FD2274F41219078A088B09ECFEEDFF90C9
:1046AC00177CE0F4604B7A097B00121373EA4B60C1
:1046BC00408A828B8374B1F0A3E4124700F08A82A3
:1046CC008B83A3A3E508F0A3E509124700A3EEF042
:1046DC00A3EFF0740C1218E31245A38A828B83A308
:1046EC00A3A3A3A3A3A3123ACC90177CE0F91213B3
:1046FC007F022A07F08A828B83A3A3A3A32274F0E0
:10470C0012190774FA1218978909ECFEEDFF750857
:10471C00008A0A8B0B780A121B5E00041030494D7C
:10472C00476B4785479D47BB47D347F6470E482203
:10473C00484C48C748D848EF480A49304930496284
:10474C004874016509600302492B8E828F83E0F85F
:10475C00C39403400302492BE8901868024907747C
:10476C00026509600302492B8E828F8312508E9052
:10477C001869E8F0A3E902490774016509600302AE
:10478C00492B124958400302492BE890072C024947
:10479C000774016509600302492B8E828F83E0F850
:1047AC00C39405400302492BE890072D0249077476
:1047BC00016509600302492B124958400302492B39
:1047CC00E890072E02490774106509600302492B13
:1047DC00750A10750B00780A121B1A7A2F7B0712B8
:1047EC00134F74021218AD0249517401650960032C
:1047FC0002492B124958400302492BE890073F020B
:10480C00490774016509600302492B8E828F83E08E
:10481C0090186C02490774046509600302492B8ED9
:10482C00828F83780C12175B9090B2780C12158ED5
:10483C00500302492B900741780C12176A02495118
:10484C00E9600302492B1206DDE97005121199800B
:10485C00559007D4806174076509600302492B7574
:10486C000A06750B00780A121B1A8E828F83A3AC72
:10487C0082AD8374021218F512135574021218AD1E
:10488C007C007D00AA18AB198E828F83E0F912117F
:10489C0045E9FEC3940A400302494E1206DDE97055
:1048AC000CEEF912119F795012148D806D74D52E67
:1048BC00F582E43407F58374018040740165097056
:1048CC005E1249585059E8900740802F74016509D1
:1048DC00704D8E828F83E0F8C3940A5042E8901892
:1048EC006B80187401650970368E828F83E0F874C2
:1048FC00F928C3940A5028E890186DF08047740189
:10490C006509701B9007D3E0F88E828F83E09007C7
:10491C00D3F0E87030E06401702B12118D80267595
:10492C0008188021C3EA9427EB9400501574026593
:10493C0009700F8E828F83125B6E12055DE9F5088C
:10494C008003750802A9087406024C7C8E828F8342
:10495C00E0F8C3940222A90880031218AD7F040268
:10496C0019D974F012190774B11218978C0A8D0B9F
:10497C0090905474201218FD74061217AA74201209
:10498C0018FD121145E9FF745F1218E3E0F509EF09
:10499C00C3940A4003024AF075F006EFA4F50874BC
:1049AC00411218FD7A0E74202508F9121487E9704B
:1049BC0009744D1218E3E0FE80027E00901868E046
:1049CC0064027005750E018003750E00740865098C
:1049DC0070047422800274212508F50D7C1B7D0067
:1049EC00790074261218F512136774261218FD7AC2
:1049FC001BA90D121487E9702D74401218E3E024E2
:104A0C00F9C3940A5020E50EF50D780D121B1E7497
:104A1C00271218FDEEA2E0E433F9AA0AAB0B12053B
:104A2C00FF74011218AD7C147D007900740C1218FF
:104A3C00F5121367740C1218FD7A1074242508F9FA
:104A4C00121487E970347C1079FF740C1218F5126B
:104A5C0013C7E97025741C1218E3AC82AD837A0479
:104A6C0074252508F9121487740C1218FDEEA2E0B7
:104A7C00E433F9AA0AAB0B1205E7AC18AD197A0CA2
:104A8C0074702FF9121487E97049AA18AB19121116
:104A9C00757F00EF75F003A4F8A9F08518828519CD
:104AAC0083E58228F8E583125245125426601D884E
:104ABC00828983A3A3E0F50E750F00780E121B1AE2
:104ACC00AA0AAB0B1208B774021218AD0FEFC394FD
:104ADC000440C0EEA2E1500C90072BE0F9AA0AABFF
:104AEC000B1208BD740465097028901868E0640204
:104AFC0070207A0090073FE060027A0190072CE06A
:104B0C006004780480027800E84AF9AA0AAB0B1218
:104B1C0006B37900744F024C7C74F7121907120615
:104B2C00DDE9704F9007D4E0640170151211999073
:104B3C0007D4E4F07C0AFDF97AD57B071213678061
:104B4C002A750800A80874D528FEE43407FF8E8265
:104B5C008F83E06401700BA90812119F8E828F83E2
:104B6C00E4F00508E508C3940A40D9795012148D75
:104B7C0012118D02555D74F012190774F01218970A
:104B8C00EAFEEBFF8C088D09750A0AE9600C1460CB
:104B9C000914603B14607D024C78121187E9F50A08
:104BAC00C3940A4003024C78E50845097003024C93
:104BBC0078750C06750D00780C121B1AEEFCEFFDC7
:104BCC00AA08AB0912134F74021218AD024C787577
:104BDC000C00750E06750F00780E121B1AEEFCEF0A
:104BEC00FDE50C75F00EA4F8A9F0744D28FA7407C5
:104BFC0039FB12136174021218ADE9700B050CE548
:104C0C000CC3940A506680CA850C0AE50AC3940A40
:104C1C00505A8049750C00AC18AD197A1075F00615
:104C2C00E50CA42423F9121487E9701C7C1079FF7D
:104C3C00AA18AB191213C7E9700EEEFCEFFDAA18F7
:104C4C00AB191205C3E9600B050CE50CC3940A50B3
:104C5C001B80C4850C0AE50AC3940A500FE508456D
:104C6C00096009AA08AB09A90A121181A90A7410D2
:104C7C001218AD7F080219D974F412190789097535
:104C8C00081574FF6A700374FF6B70277E00AC0903
:104C9C007A027B00EEF9121163E960037508000ECD
:104CAC00EEC3940A40E8E50960537AB17B11120A0D
:104CBC00F7804A120AC78A0A8B0BAE0AAF0BEE4F6B
:104CCC0060387C007D00EE2405FAE43FFB8E828F79
:104CDC0083A3A3A3A3E0F9121145E9F9C3940A50E5
:104CEC000CAC097A027B00121163750800E50960AF
:104CFC000CEEFAEFFB1211B1800375081402496235
:104D0C0074F2121907ECFEEDFF750815740E1218EB
:104D1C00E3E0F50AA3E0F50B74FF6A700374FF6B14
:104D2C007021750900AC0AAD0BEEFAEFFBA9091264
:104D3C001169E960037508000509E509C3940A5077
:104D4C003F80E2120AC78A828B83E5824583602DFD
:104D5C007C007D00E5822405FAE43583FBA3A3A344
:104D6C00A3E0F9121145E9F9C3940A5013AC0AAD4A
:104D7C000BEEFAEFFB12116975080080037508142D
:104D8C00A9087F060219D9C082C083900745EAF0B2
:104D9C00A3EBF090072BE0FC7D007A267B0012053C
:104DAC005D90072BE0F912082102587774EE121966
:104DBC000774EC1218978A088B09EA240CF510E496
:104DCC003509F5118A828B83A385820C85830DEAC4
:104DDC002405F50EE43509F50FEA2409F50AE43546
:104DEC0009F50BEA2403FEE43509FF8A828B83A3C1
:104DFC00A3E024FA700302507C24FD7003024F9C44
:104E0C00147003024E9614601024FD7003024F7F41
:104E1C00147003024FD4025082125B746044E0F5AC
:104E2C0083888212508E880C890DE8450D6033857D
:104E3C001082851183E0F50E780E121B1EEA240BEE
:104E4C00F582E43509F583E0F9125B680A0A0AEF8A
:104E5C00FB850C82850D8312190574011218AD02A5
:104E6C005082850A82850B83121B319007411217E1
:104E7C00791205F974021218ADE9700302508279A7
:104E8C0001850A82850B8302504C750A00850C82C1
:104E9C00850D83E06003024F4C850E82850F83E005
:104EAC00A2E04003024F4C9007DF125B77600302D5
:104EBC004F4C7C0E7D007900AA18AB191213678534
:104ECC001082851183125842EA4B6010750A0675E0
:104EDC000B00780A121B1AEA2410801B12583E127F
:104EEC000AC7EA4B7003025082750A06750B0078EC
:104EFC000A121B1AEA2405FCE43BFD74021218F595
:104F0C0012134F74021218AD850E82850F83E0A226
:104F1C00E25004D2F08002C2F0A2F0E433F8740C38
:104F2C001218E31259F612117BE970117A027B0008
:104F3C0090072BE0F91213A37900025084750A151F
:104F4C00125B7470030250821250A37003025082E1
:104F5C00850C82850D83E0FC7901125094121905A1
:104F6C00E50A7003025082FC790312583E1257F97D
:104F7C00025077125B7470030250821250A37003BC
:104F8C00025082850C82850D83E0FC7902025074FC
:104F9C007C007D00EA2404FAE43509FB8E828F83C1
:104FAC00E0F9121145E9F8C3940A4003025082E576
:104FBC0008240AFCE43509FD7A0475F006E8A424FB
:104FCC0025F912148102508212583E900740E0607D
:104FDC000790186BE0F9806B901868E07004790505
:104FEC008061120AC78A0C8B0DA80CA90DE84970B8
:104FFC0003025082E82404F50CE439F50D8508828F
:10500C00850983A3A3A3A3A3A3A3E0A2E05039859E
:10501C000C82850D83E0F508602E850A82850B8352
:10502C00A3E054027022740E1218FDE82405FAE471
:10503C0039FBA908121145E9700E79038E828F8312
:10504C001258421205F3802EAC0EAD0F850C8285E2
:10505C000D83E0F912583E1211BD125B74601712E9
:10506C0050A360127C00790012509412190580062E
:10507C0012583E12113F790174141218AD7F0A02B6
:10508C0019D9E0F8A3E0F9228E828F83E0FAA3E02D
:10509C00FB888285098322125807F98909E845099A
:1050AC002274F512190774F2121897EAFE8C0A751D
:1050BC00F006E9A42420F508AC18AD197A0EF91203
:1050CC001487E970467C0679FFAA18AB191213C72E
:1050DC00E97038740C1218E3125842EAF8E50A60C9
:1050EC0005EEC8488004EEF4C858F8EA687001EB85
:1050FC006015740C1218E3E8F0A3E4F0AC18AD19C9
:10510C007A0EA908121481790180027900740E12AA
:10511C0018AD7F030219D974F212190774E612182C
:10512C0097890A8A088B09ECFEEDFF740C1218FDA6
:10513C007A0E75F006E9A42420F9121487E96003AD
:10514C000252087C0679FF740C1218F51213C7E989
:10515C0060030252087470250AF50BAC18AD197A6D
:10516C000CF9121487E96003025204AA18AB191245
:10517C001175E5084509701D7C0C7900AA18AB194E
:10518C001213C7E970727C0C7D007900AA18AB1958
:10519C001213678051AC18AD19AA08AB0912116F24
:1051AC008A0C8B0DA80CA90DE8497022EE4F604CAF
:1051BC00AC18AD197A007B0012116FEAF8EBF9EA22
:1051CC004B603988828983E508F0A3E509F0125217
:1051DC0081FAEE6A7001EF601FEEF04F7008888262
:1051EC008983E4F0A3F0AA18AB19121175AC18ADB1
:1051FC00197A0CA90B121481790180027900741AA6
:10520C001218AD024D8E74F71219077E00EE75F070
:10521C0003A4F8A9F0EC28F8ED125245E06A7003EB
:10522C00A3E06B7006E8FAE9FB800B0EEEC3940466
:10523C0040DB7A007B0002555D39F9888289832234
:10524C0074F71219077C00EC75F003A4F8A9F0EAC6
:10525C0028F8EB125245E0F4FEA3E0F4FF888289B3
:10526C0083EEF0A3EFF0125281F4F00CECC3940433
:10527C0040D502555DE82402F582E439F583E0223D
:10528C0074F412190774F4121897EAFEEBFF8C08E9
:10529C008D099007DF125B77704FEE4F700302544D
:1052AC0005EC45097003025405121187E990186E3C
:1052BC00F0C3940A4033750B007C0679FFE50B753F
:1052CC00F00EA4FAABF074472AFA74073BFB1213E6
:1052DC00C7E96003025366050BE50BC3940A40D97A
:1052EC00750A0AE50A90186EF090186EE0C3940ADD
:1052FC00400302540575F006E0A4FB9007DF125B37
:10530C0077705CEEFCEFFD7A0E74202BF912148191
:10531C007C0C7D0079FFAA18AB19121367AC18AD81
:10532C00197A0C90186EE02470F9121481750A0E1B
:10533C00750B00780A121B1AEEFCEFFD90186EE04C
:10534C001254BE12134F74021218AD9007DFE50809
:10535C00F0A3E509F07900025407850B0A8084E07C
:10536C00C8240612542060197A1B74212BF91214CC
:10537C008112540C2406F582E438F583E4F0A38002
:10538C00D312540C240A12542060107A1B74222B52
:10539C00F912148112540C240A80DB12540C240CC4
:1053AC0012542060107A1074232BF91214811254A9
:1053BC000C240C80C112541512542060307A1074D5
:1053CC00242BF9121481125415F582E438F583E07C
:1053DC002410FCA3E03400FD7A0475F00690186EDE
:1053EC00E0A42425F912148112541580899007D356
:1053FC00E060031211C31211B77901740C024966F3
:10540C009007DFE0F8A3E0C8229007DFE0F8A3E004
:10541C00C8240822F582E438F583125B6EEC4D2229
:10542C0074F412190774F2121897EAFEEBFFE9C331
:10543C00940A5004EE4F700479028034AC18AD1904
:10544C007A0E75F006E9A42420F9121487E9F50800
:10545C00701C750A06750B00780A121B1A7402125E
:10546C0018FDEEFAEFFB12134F74021218ADA908D7
:10547C00740E02496674F4121907EAFEEBFF750804
:10548C0000750A06750B00780A121B1AEEFCEFFD6C
:10549C00E5081254BE12136174021218ADE96004CF
:1054AC00A908800B0508E508C3940A40D4790A02C0
:1054BC00496975F00EA4F8A9F0744728FA740739F5
:1054CC00FB2274F7121907750800E50875F00EA495
:1054DC00F8A9F0744728FE740739FFEEFCEFFD7A4B
:1054EC000E75F006E508A42420F9121487E960294A
:1054FC007C067D0079FFEEFAEFFB1213677C067DCC
:10550C000079FFEE2CFAE43FFB121367EE240CF546
:10551C0082E43FF583E4F0A3F00508E508C3940AA0
:10552C0040A89007D3E060031211C31211B7802179
:10553C0074F71219077E007F007C06EF1254BE79B7
:10554C00FF1213C7E970010E0FEFC3940A40EAEE85
:10555C00F97F010219D974F71219077E00EEF912BE
:10556C00119FE9F90EEEC3940A5003E960EF80E154
:10557C0074F312190774CB121897890890186EE0FF
:10558C006508701B7A017B0090072BE0F91213A9B8
:10559C007A027B0090072BE0F91213A91211CF7538
:1055AC00F006E508A4FF74202FFE74271218FD7A6C
:1055BC000EEEF9121487E960030256847C0679FF1B
:1055CC0074271218F51213C7E960030256847C0E77
:1055DC007D0079FF74271218F51213677C1B7D0070
:1055EC0079FF740C1218F51213677C0C7D0079FF8F
:1055FC00AA18AB1912136774271218FD7A0EEEF95C
:10560C00121481E9FE740C1218FD7A1B74212FF907
:10561C00121481E9F509740C1218FD7A1B74222FEF
:10562C00F9121481E9F50A740C1218FD7A1074231E
:10563C002FF9121481E9F50B740C1218FD7A107401
:10564C00242FF9121481E9F50C740C1218FD7A044C
:10565C0074252FF9121481E9FFAC18AD197A0C746A
:10566C00702508F9121481E9F8E509450A450B453E
:10567C000C4F48CE4EFE80027E00EEF974351218A7
:10568C00AD7F050219D974F7121907E990072BF0B1
:10569C0012118D02555D74F2121907EAFEEBFF54DC
:1056AC0080700302576190072BE0F912138B8A0864
:1056BC008B09EA4509700302575A7A01E50824055B
:1056CC00F50AE43509F50BE5082404F8E43509F985
:1056DC00880C890D8508828B83E024506036146019
:1056EC000624E16058805D88828983E070598508C2
:1056FC00828B83A3A3A3A3A3A3A3121B31125B6866
:10570C008508828B83A3A312584212115174021282
:10571C0018AD803388828983E0641E700F79008510
:10572C0008828B83A3A312584212114B850C8285DD
:10573C000D83E0F9AA0AAB0B12081B800AAA081207
:10574C00115DE9FAEA6007AA08AB09121379EEFABF
:10575C00EF6480802AEE54026028EE6402FE7C0026
:10576C007D007A007B0012117BE960047A018002D3
:10577C007A027B0090072BE0F91213A3EEFAEFFBF1
:10578C008068EEA2E050556401F508EFF509125857
:10579C00171211C9E96033125B74602912580F1289
:1057AC00508EE8FEE9FFEE4F601B7C007901125829
:1057BC00178E828F831219057C00790312581712E9
:1057CC0057F91219051211CF800C7A017B00900742
:1057DC002BE0F91213A3AA08AB09800E540460063F
:1057EC00EE6404FA80047A007B00024D8E9007452B
:1057FC00E0F8A3125807F58388822212580FE0F8BC
:10580C00A3E022E0F5838882A3A3229007DF125B3A
:10581C0058E0FAA3E0FB227F020219D9C082C083B0
:10582C0090072BE0F98A828B83A31258421208BD91
:10583C0080398E828F83E0FAA3E0FB22C082C08382
:10584C0074FF121897121193E9C39402851882857C
:10585C001983400474028002740AF0AC18AD197AF2
:10586C000179051206FB74011218ADD083D08202A7
:10587C00011F74F012190774E8121897EAFEEBFF77
:10588C00890A8C088D097C187D007900AA18AB193F
:10589C00121367851882851983EEF0A3EFF0900739
:1058AC002DE0C0E074021218E3D0E0F090072EE077
:1058BC00C0E074031218E3D0E0F090186DE0C0E083
:1058CC0074171218E3D0E0F090186CE0A2E0E43307
:1058DC00FCE0A2E15004D2F08002C2F0A2F0E4336A
:1058EC00F8E0A2E45004D2F08002C2F0A2F0E4335B
:1058FC00FAE0A2E55004D2F08002C2F0A2F0E43348
:10590C00F50E750F00E0A2E65004D2F08002C2F052
:10591C00A2F0E433F50C750D00E0A2E25004D2F0D5
:10592C008002C2F074151218E3E054FEFEA3E0FFEF
:10593C00EE4CFCEFFDEC54FDFCE828F8EC48F8EDDF
:10594C0054FEF9EAFBE94BF9E8FAE954FDFB74095A
:10595C00780E121884EB450F54FBFB740A780C126A
:10596C001884EAF8EB450DF9E854FBFAA2F0E4339D
:10597C00F50C750D007402780C121884EA450CF8BD
:10598C0074151218E3E8F0A3E9F090072EE0601DFF
:10599C00750C10780C121B1A7C2F7D0774061218CC
:1059AC00E3AA82AB8312134F74021218AD90073F17
:1059BC00E06011E50A600974151218E3E04402F086
:1059CC0078018002780074141218E3E048F0900714
:1059DC002CE0600478048002780074141218E3122E
:1059EC0059F61205ED7418024C7CE048F0AC08AD89
:1059FC0009AA18AB192274F71219071209117508A4
:105A0C0000E50875F00EA4F8A9F0744728FE740799
:105A1C0039FF7C0679FFEEFAEFFB1213C7E9700928
:105A2C00EEFAEFFB79001209170508E508C3940A92
:105A3C0040CF02555D74F612190774FD121897EADF
:105A4C00FEEBFF9007E1125B7770397508E375097F
:105A5C00077808121B1A7508027509007808121BC2
:105A6C001A7508DF7509907808121B1A7CFF7DFFE8
:105A7C007A017B0012073D74061218AD9007E1EA1B
:105A8C00F0A3EBF09007E1125B777003025B4A75B1
:105A9C0008FF7808121B1EE4F508F5097808121B9C
:105AAC001A74051218ED880889097808121B1A74E3
:105ABC00051218ED880889097808121B1A9007E35B
:105ACC00121B3179029007E1125B601208AB74096A
:105ADC001218ADE97036851882851983E0FA7401C5
:105AEC001218E3E0F8E4C8F9EA28F508E439F509F6
:105AFC00EA450960177808121B1A9007E1125B58E7
:105B0C00A3125B6012115174021218ADE4F508F582
:105B1C00097808121B1A9007E3121B317CFF7DFFDA
:105B2C009007E112584212074974041218AD9007FD
