:020000040000FA
:060000000201070221A12C
:03002B000225EEBD
:03003B0002261486
:03004300022599FA
:030053000222176F
:03006B000225BFAC
:10008300021FF7E5C754F84401F5C77901220000C0
:100093000080FB120086B900030200F1E4792178A5
:1000A30008B800028004F709D8FCE479297802B87B
:1000B30000028004F709D8FCE490028178317915B5
:1000C3008002F0A3D8FCD9FA7AB17B169001377875
:1000D300BA79038015E493A3AD82AE838A828B83BE
:1000E300F0A3AA82AB838D828E83D8E9D9E7758288
:1000F3002B7583BE74031201197582917583007485
:100103000012011975D00075813F751881751902A8
:10011300759F00020096C09FF59FE473D09F22D085
:1001230083D082C09FE493C0E0740193C0E0740263
:1001330093F59F22FF0000B4000028002800283018
:1001430075A000A000A000A00000080008E001F0D6
:10015300001000100010001000100010005000509C
:1001630000500010001000D0070000000000000F36
:100173000001000500307507001000010081FF0039
:10018300000000FFFFFF1206300618065406FF02A8
:10019300020208025000A0000000E80302EB9001F5
:1001A3000000D59002E3900100000C1702F19001CA
:1001B3000000BF0202E3900100000D1702E7900167
:1001C3000000D50202E3900100000E1702E5900142
:1001D3000000D70202E3900100000F1702E190082C
:1001E3000000D80202E390010000101702DB900127
:1001F30000001117FF0100FF2002EB90010000D85F
:100203009002E390010000751702DD9000000000EA
:100213000002DF9003000006031700020D020D0227
:100223000D020D020D020D020D020D020D020D0253
:100233000D020D020DDE0FF00FD80F0202020202B3
:1002430002020202010D000000100102EB90010006
:1002530000299002E390010000B817020591010004
:1002630000230702E390010000B917020391010084
:1002730000E88F02E390010000BA1702FF9001002B
:1002830000BF8F02E390010000BB1702FD90010045
:10029300005D8F02E390010000BC1702FB90010098
:1002A30000278F02E390010000BD1702F9900100BF
:1002B30000158F02E390010000BE1702F7900100C2
:1002C300004B8F02E390010000BF1702F59001007D
:1002D30000CD8F02E390010000C01702F3900100EC
:1002E30000C11701E8030577100AFFFFFF00013083
:1002F300750302010600000000000000000000007A
:1003030000000000000000000000000000000000EA
:1003130000FFFF0600800CE8030A0943433235342B
:1003230030424C45051250002003020A0002010628
:100333000302F0FF53696D706C6520424C452050F9
:1003430065726970686572616CAC140000B2141058
:10035300436861726163746572697374696320349D
:10036300000A50756C736553656E736F72000000FD
:100373000000000A0100000000000000000000006F
:10038300000000004543470000000000000000009B
:10039300000000000002EB90010000D29002E39005
:1003A300010000CC18020B91000000AC1602DF9094
:1003B300030000AD1602EF90010000CD1802E39098
:1003C300010000DE18020D91030000AF1602EF904A
:1003D300010000DF1802E390010000F01802019110
:1003E300030000F11802EF9001000001191201222D
:1003F300859403120122989403120122C9940312D3
:1004030001220395031201225C9503120122A39595
:1004130003120122EB95031201221A960312012201
:10042300499603120122809603120122C7960312F2
:100433000122E096031201223597031201224E97FF
:10044300031201229C9703120122D6970312012261
:1004530001B60212012204B7021201223DB70212B1
:10046300012260B70212012272B702120122B0B751
:10047300021201222CB802120122F4B80212012244
:1004830016B902120122ADB902120122FFB90212FA
:10049300012230BA021201223DBA02120122A7BA86
:1004A30002120122FEBA0212012201BB0212012230
:1004B3003ABB021201223DBB0212012247BB0212C8
:1004C30001229BBB02120122DCBB021201220FBCE0
:1004D300021201224CBC021201224EBD0212012261
:1004E300F2BD021201225BBE0212012299BE021268
:1004F3000122A48C03120122CC8C03120122F98C59
:1005030003120122318D031201228F8D0312012266
:10051300DB8D03120122428E03120122828E03120B
:100523000122BF8E03120122ED8E03120122978F47
:1005330003120122A18F03120122AE8F03120122A3
:10054300E18F03120122ED8F0312012205900312A2
:1005530001220F9003120122F3B90312012201BAFF
:100563000312012219BA0312012230BA0312012223
:10057300F3C7011201229DC801120122B0C9011261
:1005830001222CCA011201224ACB0112012286CB7D
:100593000112012221CC0112012205CD01120122F7
:1005A300D1CD011201225FCF01120122D0CF01125E
:1005B30001228AD0011201227CD101120122BCD175
:1005C3000112012270D201120122A2D201120122D0
:1005D30098D401120122DAD401120122F8D40112B3
:1005E30001225ED5011201222DD601120122F1D67C
:1005F3000112012210D901120122C2CE02120122DC
:10060300ACCF0212012257D002120122A8D002124B
:10061300012258D102120122C9D102120122AED203
:1006230002120122E2D202120122DBD302120122C0
:1006330018D402120122F4D40212012233D5021279
:1006430001224FD50212012293AF0312012217B0E8
:100653000312012242B0031201225CB103120122F0
:100663009D9003120122B39003120122D190031231
:100673000122E29103120122EC910312012217934A
:10068300031201220E94031201227B94031201220E
:100693001EDB021201224EDC0212012285DC021251
:1006A3000122CFDC0212012292DE021201221391F7
:1006B300011201229F9101120122039301120122CF
:1006C3000F93011201224A9301120122B9930112DD
:1006D3000122C29401120122CB95011201229296AA
:1006E30001120122EF97011201220D98011201223A
:1006F3002A9801120122D79801120122549901125A
:1007030001227C9901120122469C011201224B9C79
:1007130001120122649E01120122B29E01120122E2
:10072300229F01120122609F011201223CA00112AB
:100733000122FCA00112012248A1011201224BA1B6
:10074300011201228FA101120122D7A1011201225C
:1007530016A20112012238A2011201226CA2011277
:100763000122CFA20112012261E0021201226FE0F5
:1007730002120122C2E002120122E1E0021201226E
:1007830026E1021201226AE20212012205E30212A9
:10079300012249E30212012273E302120122E2E37E
:1007A3000212012228E4021201229FE40212012212
:1007B30050E5021201228826001201229826001217
:1007C3000122392700120122952700120122522803
:1007D300001201226E2900120122A0290012012217
:1007E300CF29001201227C2B00120122F32D0012CB
:1007F30001226330001201225531001201224E32D0
:10080300001201225534001201224937001201223D
:100813007838001201227C3A001201228C3B00122C
:1008230001221B3D001201220C3E001201225A3EFE
:1008330000120122C93E00120122ED3E00120122E4
:100843003E3F00120122DF4300120122E044001266
:1008530001224145001201226C4500120122324659
:10086300001201225084031201225A84031201222E
:100873009F8403120122B3840312012243850312CE
:1008830001227C8503120122B78503120122E08530
:100893000312012234860312012249860312012224
:1008A3006B860312012280860312012294860312AF
:1008B3000122A98603120122E386031201220F8774
:1008C30003120122588703120122CA87031201224D
:1008D3000D88031201223788031201226288031252
:1008E3000122F4B503120122C99802120122AC9924
:1008F30002120122279A02120122629A0212012293
:10090300B39B02120122419C02120122D39E0212C6
:100913000122859F0212012291A00212012204A248
:10092300021201225DA2021201220080031201229F
:10093300438003120122C780031201229E83031204
:1009430001221FAB03120122D1AB03120122CDAC52
:10095300031201220CAD0312012266AD0312012220
:10096300317E00120122947E00120122317F001297
:100973000122667F00120122967F00120122D17F9D
:1009830000120122F17F0012012218EF021201224C
:10099300A4EF0212012263F0021201227BF1021280
:1009A300012295F302120122458D021201226A8D62
:1009B30002120122378E021201220B8F0212012230
:1009C300788F02120122B88F021201225490021270
:1009D3000122889102120122639202120122C29221
:1009E300021201224E9302120122BC93021201222F
:1009F3004894021201228E940212012200950212DF
:100A03000122929502120122339602120122539679
:100A1300021201229B9602120122E4960212012283
:100A2300009702120122269702120122A0970212B6
:100A33000122AE97021201223D9802120122A698CA
:100A430002120122CCF30212012251F402120122FA
:100A530093F40212012277F502120122E4F5021245
:100A6300012228F6021201226CF60212012299F6E3
:100A730002120122C1F602120122F9F60212012228
:100A830037F7021201225EF702120122D8F702128F
:100A9300012222F802120122FBB501120122A3B79F
:100AA30001120122D0B90112012224BA011201223A
:100AB3004FBA0112012221BB0112012265BB0112AF
:100AC3000122A9BB01120122BCBB01120122FDBB01
:100AD300011201222ABC0112012278BC0112012257
:100AE300B9BC01120122E7BC011201223ABD011275
:100AF3000122D1BD01120122BBC001120122D1C2C8
:100B0300011201220FC301120122A2C40112012208
:100B1300E7C40112012259C501120122AAC501121B
:100B23000122E4C501120122E9C50112012289C68D
:100B330001120122BFC701120122D0C701120122F3
:100B430006A30212012285A3021201227EA9021228
:100B5300012284AA02120122F7AB021201228EACF7
:100B630002120122385B00120122815B0012012272
:100B7300AE5B00120122E05B00120122ED5B00126A
:100B83000122F95B001201220B5C00120122E65CD8
:100B930000120122445D00120122795D001201223C
:100BA300B05E00120122FD5E00120122215F0012DD
:100BB3000122915F0012012252600012012215618D
:100BC30000120122836100120122406200120122FD
:100BD300536200120122D1620012012264630012E7
:100BE30001228B6300120122F36300120122446489
:100BF30000120122996400120122426500120122AF
:100C0300ED65001201229966001201220B670012A2
:100C130001225F6700120122BF6700120122EF6702
:100C230000120122856800120122AA690012012222
:100C3300F269001201220F6A001201222E6A0012C9
:100C430001225D6A00120122726B00120122F86B0D
:100C5300001201221D6C00120122326C00120122CB
:100C6300A56C00120122E66C00120122026E001232
:100C73000122A36E00120122F16E001201225B6FAA
:100C830000120122746F00120122B8AC0212012279
:100C93000CAD0212012218AD02120122E2AD0212C2
:100CA30001220FAE021201223DAE02120122A9AEB1
:100CB30002120122DFAE0212012218AF0212012238
:100CC30030AF0212012285AF021201229EAF02123F
:100CD3000122E3AF02120122F6AF0212012210B089
:100CE3000212012226B00212012244B10212012291
:100CF3006FB20212012259B30212012248B4021246
:100D03000122F0FF011201220080021201222F8032
:100D130002120122F583021201224C8502120122E2
:100D23001286021201229187021201225B880212AB
:100D33000122AD8802120122C78802120122F9881A
:100D4300021201220489021201224D890212012298
:100D5300568902120122028A02120122DB8A02123E
:100D63000122228B021201228A8B02120122CC8BD6
:100D730002120122FA8B02120122358C0212012285
:100D8300A7A30112012225A7011201222BA70112F9
:100D9300012280AD01120122CAB101120122B0B5B4
:100DA30001120122DA9B03120122509C0312012239
:100DB300669C03120122F69C03120122339D031247
:100DC30001226D9D03120122A79D031201221A9E87
:100DD300031201225B9E03120122649E031201226D
:100DE300709E031201228F9E03120122B99E0312E9
:100DF3000122CE9E03120122119F0312012259EAFE
:100E0300021201226CEA0212012286EA0212012274
:100E1300B3EA02120122F9EA021201222CEB0212B6
:100E230001226AEB02120122CFEB02120122E4EB50
:100E330002120122EFEB02120122FCEB0212012249
:100E430013EC0212012221EC021201222CEC0212F9
:100E5300012238EC021201224BEC0212012256EC61
:100E63000212012279EC021201221DED021201226B
:100E73002DED0212012247ED0212012264ED02124E
:100E830001227FED02120122A4ED02120122AFED35
:100E930002120122C4ED02120122D8ED0212012234
:100EA30039EE021201223FEE0212012245EE021236
:100EB30001224BEE0212012263EE0212012296EE90
:100EC300021201225DE701120122F4E7011201225D
:100ED3008CE8011201227CE901120122B3E901121B
:100EE3000122C6E90112012234EA01120122CFEBE9
:100EF30001120122F6EB0112012298EC01120122E8
:100F0300CDEC01120122DEEC0112012257ED011298
:100F1300012278ED0112012290ED01120122E8EE87
:100F230001120122F1F00112012241F30112012207
:100F330044F40112012293F401120122A46F00125E
:100F43000122A170001201228C71001201229671FC
:100F530000120122B87100120122C4710012012291
:100F630016730012012245730012012275740012D8
:100F73000122B77400120122E37500120122B9762F
:100F8300001201220B77001201226A77001201225C
:100F9300A17700120122DC7700120122777B001275
:100FA3000122907B00120122127C00120122207C7C
:100FB30000120122757C00120122837C001201229F
:100FC300F07C00120122627D00120122A87D001232
:100FD3000122E0F40112012202F501120122ECF6D2
:100FE3000112012291FA01120122D4FB0112012202
:100FF300AEFC011201228BB103120122B0B1031224
:10100300012221B203120122BFBE02120122C8BE75
:1010130002120122D1BE0212012202C002120122D7
:1010230021C20212012257C20212012291C20212EC
:101033000122C7C20212012201C30212012235C3D7
:101043000212012261C302120122AAC30212012267
:10105300E4C3021201222CC40212012282C402122E
:101063000122B7C40212012212C5021201224CC589
:10107300021201229DC502120122D3C502120122CE
:101083000DC6021201223BC6021201225EC60212E3
:1010930001227FBB03120122ABBB0312012206BC58
:1010A3000312012210BC0312012220BC03120122ED
:1010B300E3FC021201220AFD0212012234FD021294
:1010C3000122B1FF021201229E46001201220249AF
:1010D30000120122B94A00120122164B001201220A
:1010E300184C00120122A04C00120122274D0012BD
:1010F30001224C4D00120122415000120122B7502F
:1011030000120122A65100120122E0510012012215
:10111300205200120122C053001201221554001262
:101123000122625400120122D05400120122F6540B
:10113300001201221055001201222656001201222C
:10114300365600120122BC5700120122DC5700124E
:101153000122125800120122965900120122D55978
:1011630000120122135B0012012262F80212012213
:10117300BAF80212012202FA0212012271FA0212D1
:10118300012220FB021201223FFB0212012293FBE8
:1011930002120122D1FB02120122C0BA0312012260
:1011A300D1BA0312012274BB031201227EBE0312C1
:1011B3000122BDBE0312012257BF031201222ABC22
:1011C300031201223ABC0312012255BC031201226D
:1011D300BDBC0312012208B7031201228CB703120C
:1011E3000122F2B703120122DFB40312012206B572
:1011F300031201225CB503120122AEB503120122D0
:101203007AA8031201228FA80312012293A90312C1
:10121300012207AA0312012221AA0312012238AADA
:10122300031201224BAA0312012263AA0312012211
:1012330078AA0312012299AA03120122EAAA03122D
:1012430001223E9803120122559803120122CE98DF
:1012530003120122A39903120122759B0312012297
:101263007CA2031201220EA3031201228CA30312F8
:10127300012213A403120122A5A403120122FCA438
:101283000312012206A50312012215A5031201224E
:101293002BA5031201223EA5031201229FA50312CF
:1012A3000122B3A503120122C7BC0312012230BDE0
:1012B300031201223BBD031201224BBD0312012283
:1012C30002B9031201222BB90312012254B90312EA
:1012D30001226CB903120122AEB903120122B0D567
:1012E30002120122BAD502120122FAD502120122F8
:1012F30043D6021201227DD602120122D3D6021254
:101303000122F2D602120122FBD6021201224CD78D
:101313000212012275D7021201228AD70212012278
:10132300FAD70212012288D802120122CCD8021263
:101333000122F4D80212012273D902120122B6D972
:1013430002120122F3D90212012205DA021201224A
:1013530024DA021201222DDA02120122F2DA021237
:10136300012241B30312012292B3031201221BB4DF
:101373000312012281B403120122B6A50312012232
:10138300E0A503120122DAA60312012209A7031220
:1013930001228FA7031201220BB80312012291AD80
:1013A30003120122C7AD0312012200AE0312012270
:1013B30059AF0312012256BD031201226CBD031261
:1013C300012276BD03120122CCBD03120122ECC619
:1013D30002120122A9C702120122E4C7021201224A
:1013E3000CC8021201226EC802120122BAC80212EC
:1013F300012225C902120122A1C9021201229DCA9A
:101403000212012224CC02120122A7CC02120122D1
:101413000BCD0212012222CD0212012218CE02129A
:10142300012264CE021201228A88031201229F88BC
:10143300031201225289031201229289031201220B
:10144300AB8903120122DE89031201222B8A0312C4
:1014530001225F8A03120122A18A03120122978CBF
:10146300031201221DD901120122D4DC011201222F
:1014730066DE01120122BDDE01120122DCDE011251
:1014830001225ADF01120122ECE001120122D0E114
:1014930001120122E1E501120122B5E60112012246
:1014A30062E50212012241E7021201226AE80212F6
:1014B30001220BEA021201220EEA021201223F9FCD
:1014C30003120122A79F03120122C49F03120122C8
:1014D30068A00312012253A103120122C7BE031203
:1014E30001220DBF0312012239BF03E06670100809
:1014F300A3E066700A08A3E066700408A3E066220E
:10150300C3E7960809E7960809E7960809E79622CC
:10151300C3E09608A3E09608A3E09608A3E096220A
:10152300C008C3E096F50808A3E096420808A3E0C4
:1015330096420808A3E09645087001D3D008220814
:101543000808EAC0E0EBC0E086F0E7A4FA180986D1
:10155300F0E7A42AFA180986F0E7A42AFA180986FC
:10156300F0E7A42AFA1986F0E7A4FBE5F02AFA19B2
:101573000886F0E7A42BFBE5F03AFA190886F0E7B2
:10158300A42BFBE5F03AFA18180986F0E7A4C5F096
:101593002BFBE43AFA1908E7C5F0C6A426F6E5F0F2
:1015A3003BFBE43AFA1886F0E7A4F6E5F00826F6E2
:1015B300E43B08F6E43A08F6D0E0FBD0E0FA22E494
:1015C300CFC0E0E4CEC0E0E4CDC0E0E4CCC0E07541
:1015D300F020E626F608E633F608E633F608E633A7
:1015E300F6181818EC33FCED33FDEE33FEEF33FF42
:1015F300C3EC9709ED9709EE9709EF97191919406D
:101603000FFFEC97FC09ED97FD09EE97FE191906FC
:10161300D5F0BFECF709EDF709EEF709EFF7191964
:1016230019D0E0FCD0E0FDD0E0FED0E0FF22601650
:10163300080808C6C313C618C613C618C613C618A7
:10164300C613C6D5E0EA22700908080822601618F6
:101653001818C6C333C608C633C608C633C608C679
:1016630033C6D5E0EA22E627F60809E637F6080985
:10167300E637F60809E637F622E026F608A3E03651
:10168300F608A3E036F608A3E036F622E026F008D3
:10169300A3E036F008A3E036F008A3E036F022C357
:1016A300E697F60809E697F60809E697F60809E6C5
:1016B30097F622C3E096F008A3E096F008A3E0961D
:1016C300F008A3E096F022E056F608A3E056F608E9
:1016D300A3E056F608A3E056F622E056F008A3E08E
:1016E30056F008A3E056F008A3E056F022E0F6080F
:1016F300A3E0F608A3E0F608A3E0F622E6F008A3C9
:10170300E6F008A3E6F008A3E6F022E0FAA3E0FB84
:10171300A3E0FCA3E0FD22E0F8A3E0F9A3E0FAA331
:10172300E0FB22E8F0A3E9F0A3EAF0A3EBF022CA7E
:10173300C0E0E6F0A308DAFAD0E0FA22CAC0E0E09B
:10174300A3C582CCC582C583CDC583F0A3C582CC96
:10175300C582C583CDC583DAE6D0E0CA22C3E49847
:10176300F8E499F91217A18026C3E49AFAE49BFBE3
:10177300E920E7E91217A1E498F8E499F922C3E410
:1017830098F8E499F91217A1E498F8E499F9C3E4F5
:101793009AFAE49BFB22EB20E7CFE920E7E0B900CC
:1017A30010BB0008E88AF084F8AAF022E4FBC8FA28
:1017B30022EB70227B10C833C8C933C9335007C327
:1017C3009AC3DBF280069A50012ADBEAC833F4C8D5
:1017D300C933F4C9FA2275F008E4C833C8C933C958
:1017E30033C99AC99B5004C92AC93BD5F0ECFBC83D
:1017F30033F4C8E4C9FA22600D08C6A2E713C61879
:10180300C613C6D5E0F322600C08C6C313C618C6B8
:1018130013C6D5E0F422700422600D18C6C333C684
:1018230008C633C6D5E0F41822251810AF08F518FA
:10183300400C15198008F51840021519D2AF220083
:10184300C0D0251810AF08F518500C05198008F5FD
:101853001850020519D2AFD0D0222518F58210AF47
:1018630008F518400C15198008F51840021519D20F
:10187300AF851983222518F582E43519F5832225CE
:1018830018F8E43519F9222518FAE43519FB22254D
:1018930018FCE43519FD22E4732518C582C0E0E580
:1018A3001934FFC583C0E0E518C3958224F810AF4F
:1018B300088583198582188008858319858218D243
:1018C300AFCEF0A3E520F0A37808E608F0A3DEFA94
:1018D300EFF0A3E58124FAF8E608F0A3E608F0A305
:1018E300E608F0A30808E608F0A3E608F0A31581CC
:1018F3001581D0E0FED0E0F8158115811581E8C08F
:10190300E0EEC0E0222518C582C0E0E51934FFC52A
:1019130083C0E0E518C3958224F910AF08858319C5
:101923008582188008858319858218D2AFCEF0A3EB
:10193300E520F0A37808E608F0A3DEFAEFF0A3E5CC
:101943008124FBF8E608F0A3E608F0A30808E608FC
:10195300F0A3E608F0A315811581D0E0FED0E0F8EE
:1019630015811581E8C0E0EEC0E022851983851852
:1019730082E0A3FEE0A3F5207808E0A3F608DFFAEF
:10198300E0A3FFE0A3C0E0E0A3C0E0E0A3C0E0E089
:10199300A3C0E0E0A3C0E010AF08858218858319D7
:1019A3008008858218858319D2AFD083D082020143
:1019B3001F851983851882E0A3FEE0A3F52078082C
:1019C300E0A3F608DFFAE0A3FFE0A3C0E0E0A3C0D2
:1019D300E0E0A3C0E0E0A3C0E010AF088582188573
:1019E30083198008858218858319D2AFD083D0826A
:1019F30022C0D02518C582C0E0E51934FFC583C0D5
:101A0300E0E518C3958224F310AF08858319858216
:101A1300188008858319858218D2AFC8F0A3E9F02E
:101A2300A3EAF0A3EBF0A37908E709F0A3D8FAEC53
:101A3300F0A3EDF0A3EEF0A3EFF0A3D0E0F0A3D07A
:101A4300E0F0A3D0E0F0A3E520F0A3E5F0F0A322BB
:101A5300851983851882E0C0E0A3E0F9A3E0FAA327
:101A6300E0FBA37808E0F608A3DFFAE0FCA3E0FDBF
:101A7300A3E0FEA3E0FFA3E0C0E0A3E0C0E0A3E097
:101A8300F5D0A3E0F520A3E0A3F5F010AF0885831C
:101A9300198582188008858319858218D2AFD08270
:101AA300D083D0E0F8D0E032740480067402800260
:101AB3007401C0E0F40412185DD0E01217322274EE
:101AC30004800474028000CCC0E0EDC0E0E518C3DC
:101AD3009CCCAD1950011D10AF068C188D198006D2
:101AE3008C188D19D2AF12173FD0E0FDD0E0FC2245
:101AF300D083D082E9C0E0E493A3C386F0C5F09518
:101B0300F0F908E493A386F0C5F095F0700BE49325
:101B1300A3C3994005E9048002A3E475F002A42558
:101B230082F582E5F03583F583D0E0F9E493A3C031
:101B3300E0E493C0E022D083D082ECC0E0EDC0E0CB
:101B4300E493A3FCE493A3FDED4C600D121B85EC21
:101B530024FFFCED34FFFD80EFE493A3FCE493A3A7
:101B6300FDED4C600D121BC4EC24FFFCED34FFFDB6
:101B730080EFD0E0FDD0E0FCE493A3C0E0E493C0A9
:101B8300E022C0E0C3E49396087401939618400FD3
:101B9300E49366700808740193661870007019A3C3
:101BA300A3C3E49396087401939618A3A3400DD09E
:101BB300E0D0E0D0E0021B75A3A3A3A3A3A3D0E0CE
:101BC30022C0E0C0F088F0E49366700808740193C3
:101BD30066187000A8F0A3A3700BD0F0D0E0D0E09B
:0C1BE300D0E0021B75A3A3D0F0D0E022DC
:101BF00074F6121908EAFEEBFF8C088D09EE243406
:101C0000F8E43FF9E8FCE9FD121D23E0FAEE243781
:101C1000F582E43FF583E0F88508F0A4C885F00A72
:101C20008509F0A4250AF9EA28F8E439F97A257B30
:101C3000001217A1EA8C828D83F0FA131313541F3C
:101C4000F8EE28F8E43FF9E8245DF582E439F583FD
:101C5000E0C0E074075AF8D0E0B800028004C31373
:101C6000D8FCA2E05003EA8020EE2436F582E43F5F
:101C7000F583E0F5F0EA84A8F0EE28F8E43FF9E80F
:101C80002438F582E439F583E0F97F030219B4744E
:101C9000F5121908EAFEEBFFEE2434F582E43FF575
:101CA00083E0C0E0121D23D0E0F08E828F83A3A3D7
:101CB000A3A3A3E0FAA3E0FB8E828F83A3A3A3A335
:101CC000A3A3A3E0FCA3E0FDECC39AF50AED9BF50A
:101CD0000BEE247FF508E43FF509850882F583E0E3
:101CE0006401702AEE2480F582E43FF583121AC65F
:101CF000121D2D7402121842E960137CB07D04EEAF
:101D0000FAEFFB120C1E850882850983E4F0AC0A09
:101D1000AD0BEEFAEFFB121BF0E9F912258B7F04F5
:101D20000219B4EE2435F582E43FF58322C082C067
:101D300083851882851983E0F8A3E0F9C3EA9CEB58
:101D40009D5010C3EC98ED99401BC3EA98EB995055
:101D500014800EC3EA98EB994007C3EC98ED9940C4
:101D600004790180027900D083D08222EAC39CFAF0
:101D7000EB9DFB2274ED121908900376E064086075
:101D800005E06407702C9061C8E060269003A4E031
:101D9000F874FF68601CE875F00AA4C8AAF02AF974
:101DA00074A628FE740339FF8E828F83A3A3A3E059
:101DB00070057900021F0DEE2468F50EE43FF50F63
:101DC000906060E0850E82850F83F075102075119C
:101DD00005750800750900E5D914F50AE5D954031D
:101DE000F50B601FEE2482F50CE43FF50D740365DE
:101DF0000B6059E50A6017EE2467F582E43FF5832E
:101E0000E0700B793DEEFAEFFB120C4E80A49005CA
:101E10001BE064016023850C82850D83E060047AF9
:101E20000480027A00E50AC39AFA95E0FB120AAA36
:101E30008A088B09EA45097006120EA6021DB285B2
:101E40000C82850D83E070048A108B117A00801457
:101E5000E5D9C0E0EAF8E51028F582E43511F5830C
:101E6000D0E0F00AEAC3950A40E6850C82850D832E
:101E7000E0602874FC250AF50A7810121AAFAC0A43
:101E8000A90BEEFAEFFB120CFC7402121842E97077
:101E90000AAA08AB09121368021E037403650B60DB
:101EA00054850A0C750D00780C121AAFAC10AD11E8
:101EB000AA08AB09120CC07402121842850E828562
:101EC0000F83E0F87480687005750C7F8002880CC1
:101ED000E50CF50D780D121AB3780B121AB3A90A96
:101EE000AC08AD099003A4E0FA7B001208E274028A
:101EF0001218428013900376E06408600BAC10ADBA
:101F000011EEFAEFFB120D92120EB279017F0C0264
:101F100019B474F312190874FC12182CEAFEEBFFC2
:101F20008909A2AFE433F508C2AFEE2463F50AE4F1
:101F30003FF50B8010AA0AAB0B120C7812136890B5
:101F400004B7E004F0850A82850B83E0F8A3E0F98A
:101F5000E849602DE82402FAE439FBEA2402F50C92
:101F6000E43BF50D780C121AAF8A828B83E0FCA358
:101F7000E0F9EEFAEFFB120C6C7402121842E96001
:101F8000B49004B7E0604D9004B8E0F89004B7E076
:101F9000C398500C74026509703A9004B9E060343B
:101FA0008E828F83A3A3A3A3E08518828519831251
:101FB0001FE47402121878E8121FE49004B6E028B7
:101FC000F07402121892AA18AB197901120936900E
:101FD00004B7E4F0E508A2E092AF74041218427F5F
:101FE000060219B4F0A3E4F09004B7E0F822000070
:101FF0008521878522C622C0E074EB1219F4A2AFB6
:10200000E433F508C2AF759B00906182E0A2E05016
:1020100030E591A2E0502A7591FE7401652170218E
:1020200012218A120DEC122178121AC21223357471
:1020300004121842E9640170057901120E3A121D6A
:1020400074906182E0A2E5505DE591A2E55057757C
:1020500091DF900376E064076005E06408702F125A
:10206000218A74016521703E120DEC122178121A3A
:10207000C21223357404121842E964017005790113
:10208000120E3A7901EEFAEFFB121F128018E0648B
:102090000D7013900398E004F064287002E4F07A65
:1020A00000E0F9120EB8906182E0A2E6400302213E
:1020B0004DE591A2E6400302214D7591BF90037654
:1020C000E064057008120DD4120DE08003120DDAE1
:1020D000752100120E46E9900377F07900120E3A4E
:1020E000120B887A017B00900375E0F91213389087
:1020F0007803E06442705690051FE014F0704EC201
:10210000AF12210400782AD0E0F618D0E0F6E59F5F
:102110005407F87005750DFF8003750D7FC4C0E08E
:102120007829E6F50A08E6550DF50B740B780A12C6
:10213000180AD0E0250AF8906270E0A2E740F8E8BB
:10214000C333906272F0906270E0D2E0F0906181EF
:10215000E0A2E35009E5E9A2E3500375E9F7A3E043
:10216000A2E75009E591A2E7500375917FE508A227
:10217000E092AF7F08021A538E828F83E0F8A3E0CB
:10218000C82416F582E438F583229003A4E0F8759C
:10219000F00AA4C8AAF02AF974A628FE740339FF2D
:1021A00022C0E0C0D0C082C083906183E0A2E05032
:1021B00009E5BFA2E0500375BFFEE0A2E15009E5CA
:1021C000BFA2E1500375BFFDE0A2E25009E5BFA246
:1021D000E2500375BFFBE0A2E35009E5BFA2E35064
:1021E0000375BFF7E0A2E45009E5BFA2E450037510
:1021F000BFEFE0A2E55009E5BFA2E5500375BFDFE0
:10220000E0A2E65009E5BFA2E6500375BFBFD08348
:10221000D082D0D0D0E032C0E074F21219F4E5A739
:10222000A2E4500FE5A1A2E4500953A7EF75A1EF76
:1022300012226BE5A7A2E5500CE5A1A2E5500653DA
:10224000A7DF75A1DFE5A7A2E15009E5A1A2E15052
:102250000375A1FDE5A7A2E2500CE5A1A2E250069C
:1022600053A7FB75A1FB7F01021A5374F8121908DA
:10227000752101900376E0640670077A007B0012F6
:102280000DBCA2AFE433FED2AF90037CE0640170DA
:10229000187A207B00900375E0F912144C7A207BA9
:1022A00000900375E0F912133E906182E0D2E6F0EF
:1022B00090051CE0602185C622801690037BE064B7
:1022C000017008E5C654F84405F5C653BEFC121F5C
:1022D000F07401652160E4EEA2E092AF7F01021983
:1022E000B40000008E238F248582288583278518DB
:1022F00082851983E0CEA3E0CF852882852783EBF2
:10230000C9EAC8EDCBECCA75F010C3E833C8E933AD
:10231000C9EA33CAEB33CBC3EA9EF526EB9FF5251A
:10232000B35004AB25AA26EC33CCED33CDD5F0DA8F
:10233000AE23AF242274F11219088A088B098C0A83
:102340008D0B90909678081216CA740F1218787830
:102350000C1216F0909096780C1216CA7808790C28
:1023600012150390908250107808790C1216A278FA
:10237000081215234014800E780C79081216A278E2
:102380000C12152350047901800279007F0802198C
:10239000B474ED1219088A088B098C0A8D0B909081
:1023A0009678081216CA7413121878780C1216F060
:1023B000909096780C1216CA780C79081215034082
:1023C000117808790C1216A2AA08AB09AC0AAD0B59
:1023D00080227510007511007512007513017810B8
:1023E000790C1216A278107908121669AA10AB118E
:1023F000AC12AD137F0C0219B490909678081216A7
:10240000F08A828B8378081216DD7F040219B47477
:10241000F51219088C828D8378081216F08A828B47
:102420008378081216B6122463C3E098F0A3E099EB
:10243000122455401E9090BE78081216F08A828BA6
:1024400083780812168F8E828F83E02420F0A3E019
:10245000344EF080A4F08E828F83C3E09420A3E0FA
:10246000944E22EA2404F8E43BF9E8FEE9FF8C826A
:102470008D83A3A3A3A3E0F8A3E0F98E828F832228
:1024800074F5121908E9FE9004D2E0FAA3E0FBEE1D
:1024900029F8E433F9748028F582748F39F583E0E4
:1024A0002AF508A3E03BF5097808121AAF9090B21C
:1024B00012170E1222E474021218428A088B098C39
:1024C0000A8D0B74107808121631AA08AB097F0424
:1024D0000219B474F11219088A0C8B0D8C0E8D0F31
:1024E0007411121878121AC67411121878E02401A7
:1024F000F508A3E03400F509E4F50AF50B780C794A
:102500000812154290907E78081216F0780C79081F
:10251000121542AA0CAB0DAC0EAD0F1222E47402E0
:102520001218428B09EA450960047A0180027A0098
:10253000EC2AFCE43DFD7413121878E0F8A3E0F9EE
:10254000E8FEE9FFECF8EDF97A717B021217A18839
:10255000088909E4F50AF50B8E828F837808121634
:10256000FFECF8EDF97A717B021217A18A088B094A
:10257000740578081218198E828F83A3A3A3A3E58C
:1025800008F0A3E509F07F080219B4C082C083E90E
:10259000906000F0D083D08222C0E074F21219F46F
:1025A000A2AFE433FED2AFC2C0E5D1A2E4500675BB
:1025B000D10F1212A2EEA2E092AF7F01021A53C015
:1025C000E074F21219F4A2AFE433FED2AFE589A2AF
:1025D000E04006E589A2E150031211FA7589007501
:1025E0008900C2C5EEA2E092AF7F01021A53C0E09B
:1025F000C0D0E8C0E0E9C0E0A9A8D2AFC2C7E9A254
:10260000E7E433F8E9A2E792AFD0E0F9D0E0F8D000
:10261000D0D0E032C0E0C0D0E8C0E0E9C0E0EAC01D
:10262000E0C082C083A2AFE433FAD2AF9009BFE02A
:10263000F8A3E0687008539AFBA374018022C2E9F2
:102640009009BFE0F8740128F0743F28F582E43463
:1026500009F583E0F5C19009BFE0C394804002E42E
:10266000F0EAA2E092AFD083D082D0E0FAD0E0F9D5
:0E267000D0E0F8D0D0D0E032C2AF020000229D
:10268000FFFFFFFFFFFFFFFFC082C083E9901774C9
:10269000F0D083D08202011F74F612189CE99002D8
:1026A000E8F0900348E0F508750900740278081214
:1026B0001819AA08AB091213AA9002E912304B901C
:1026C00002E9123438606F900348E075F003A4FA11
:1026D000ABF01213AA90030612304B90030612348B
:1026E00038700B9002E91234091213B0804890033D
:1026F0000612439D7AFF7BFF12116A7A0080198AC5
:102700000875090074027808121819123E4574FF02
:1027100012284BE4F0A3F00A900348E0F8EAC398CB
:1027200040DD79051207CE9002E8E0F91206BA7A88
:10273000587B08120A4A023EE874F412189C8A0870
:102740008B09EB548060479002E8E0F91213208A6D
:102750000A8B0BAE0AAF0BEE4F602A8E828F83E09E
:1027600064B0701A1207E0E960148E828F83A3A30D
:10277000A3A3E0F9EE2405FAE43FFB1207B0EEFA5A
:10278000EFFB12130EAA08E5096480FB80047A00AF
:102790007B0002299B74F212189C74FB12182CEA1D
:1027A000FEEBFFEE4F60457403121878EEF0A3EFD6
:1027B000F0851882851983ECF0A3EDF074021218ED
:1027C00078E9F0AA18AB191206B4E9F50870757427
:1027D00013121878E0F50AA3E0F50BE50A450B6043
:1027E000638E828F83122DD4EE4F700575080280A0
:1027F000537A067B001213AA8A0C8B0DA80CA90D24
:10280000E8497005750813803B88828983E41228A3
:102810004BEEF0A3EF122967E50AF0A3E50BF09069
:1028200002EC1229609002EC6017E0FCA3E0800348
:10283000EAFCEBFD8C828D8312296070F38C828D13
:1028400083123A60A908740502461DF0A312437F63
:10285000A32274F212189C8908890C750D00740368
:10286000780C121819850C0A850D0B9002EBF0906C
:1028700002E912386B12295E602E1213B0790080C3
:102880001D890C750D007402780C1218199002E95C
:10289000123D048882F583A3A3E4F0A3F00990031A
:1028A00048E0F8E9C39840D9900348E0FA850AF077
:1028B000A4CAA8F0850BF0A428FB1213AA8A0C8BDB
:1028C0000DAE0CAF0DEE4F7003022954900348E09B
:1028D000FC850AF0A4CCA8F0850BF0A428FD7900B3
:1028E0001212FC7C0080318D0C750D007403780C85
:1028F0001218198A828B8312295988828983E4F0FD
:10290000122966A3A3F0A3F00DEDC3950840D8EEFD
:10291000250AFEEF350BFF0C900348E0F8ECC39856
:1029200050288C0C750D007402780C121819900246
:10293000E9122959E82402500109FAE9FB8A828B3D
:1029400083EEF0A3EFF07D0080BFE5089002EBF08E
:10295000790080027913024620123D08F922A3A3D0
:1029600012340DEA4B22A312437FA3A3A32274F4D3
:1029700012189C7900EAA2E0501F75084275099070
:102980007808121AAF79107C047D007A767B1712D2
:1029900007C87402121842E9F980007F0402196E18
:1029A000C082C0839002EC123438601C8882898314
:1029B000A3A3E06A7003A3E06B8882898370E8A315
:1029C000A3A3A312340980047A007B000226917429
:1029D000F212189C74FD12182CEAFEEBFF85188287
:1029E000851983E4F0A3F074021218787401F012D0
:1029F000343570141209841213AA9002EF12304B6E
:102A00001234357003022B6112314BEE2404F50AA7
:102A1000E43FF50B850A82F583E024FE603C24FC4C
:102A2000607424FE607E24FE7003022AB124FE70CE
:102A300003022ABE24FE7003022ACB24FE70030286
:102A40002AD824FE7003022AE524FC7003022B0618
:102A500024FE7003022B1E022B5A1209849002F1ED
:102A6000EAF0A3EB122B6D1203FCE96003022B5A70
:102A70009002F1121AC68E828F83A3A3A3A3A3127E
:102A8000439D8508828509831234091207987402D0
:102A9000121842022B5AAC18AD19EEFAEFFB1207CE
:102AA000E6022B29AC18AD19EEFAEFFB1207EC8009
:102AB00078AC18AD19EEFAEFFB1207F2806BAC1888
:102AC000AD19EEFAEFFB1207F8805EAC18AD19EE07
:102AD000FAEFFB1207FE8051AC18AD19EEFAEFFBCE
:102AE00012080480447402121882880C890D780C34
:102AF000121AAF7402121892EEFAEFFB12080A745F
:102B0000021218428023AC18AD19EEFAEFFB12083E
:102B100010E9F870167402121878E4F0803CAC18D2
:102B2000AD19EEFAEFFB120816E9F8E8602C8E8278
:102B30008F83A3E064146022850A82850B83E09072
:102B400002F1F08518828519831234099002F2127D
:102B5000304BE8A3122B6D1203F6EEFAEFFB1207CF
:102B60006E7402121878E0F9740302461DF07CF1CD
:102B70007D0285088285098312340D2274E81218BB
:102B80009C74FA12182C7404121878ECF0A3EDF06F
:102B90008A128B13EA2405F50EE43513F50FEA24A7
:102BA00002F510E43513F511851082F5831234090E
:102BB0001204EC8A0A8B0B7508007C037D007900F7
:102BC0007AF17B021212FCE50E2402F516E4350FB1
:102BD000F5177402121882880C890D780C121AAF3E
:102BE000850E82850F83A3A3A3A3E0F50C750D00CA
:102BF000780C121AAFE50E2405F50CE4350FF50D2F
:102C0000780C121AAF8516828517831237101206B8
:102C1000D274061218428A0C8B0DE50C450D700318
:102C2000022D9D8020851882851983E08882898302
:102C3000F00508851882851983A3E0C0E0122DDE17
:102C4000D0E0F00508E50A24FBFAE50B34FFFBC3EE
:102C5000E5089AE49B4003022D9D7E007F008512CB
:102C600082851383A3A3A3A3E0F5097809121AB3FD
:102C7000E4F514F5157814121AAF7514EE751502F3
:102C80007814121AAF9002EF121AC674091218784B
:102C9000121AC6E50A24F9F9AC0CAD0D851082852F
:102CA00011831234091208407409121842E96003B2
:102CB000022D3E850E82850F83A3A3A3A3A3A3A306
:102CC000E0F89002EEE0687075E0F5148E15781467
:102CD000121AAF12439A850E82850F83A3A3A3A372
:102CE000A3A3A3A31234091212F67402121842E924
:102CF000604C9002F2123438703BE4F514781412F0
:102D00001AAF7CFF7DFF790785108285118312340D
:102D1000091207AA740212184212343E7017850E67
:102D200082850F831245377404121878123DF81209
:102D30003741022DD1850C82850D83122DD4A81820
:102D4000A919881489157814121AAF740412187806
:102D5000121AC68516828517831230411206DE7458
:102D6000041218428A0C8B0DEE4F7003022C1A12BB
:102D70002DDEEE122DE91236F7EF122DE9F8A3E061
:102D80003400F9E50C450D6003022C258882898307
:102D900074FFF00508122DDE74FFF00508E50860E9
:102DA0001A1313543F123051120408E960099002BB
:102DB000F212340912136879008016850E82850F8D
:102DC000831245377404121878123DF8123A60796C
:102DD0000A0236CAA3A3A3A3E0FEA3E0FF22A80829
:102DE0009002F2E0281236F722F00508089002F26D
:102DF000E0282274E812189C74FA12182C7402123B
:102E0000187812304B7404121878ECF0A3EDF074BB
:102E100002121878E024051236E0E0F50CA3E0F584
:102E20000D7402121878E02402F510A3E03400F5C6
:102E300011851082F5831234091204EC75080075AF
:102E40000900EA24FCFEEB34FFFF8008050CE50CCA
:102E50007002050DA808C3EE98EF94005003022FEE
:102E6000FDA818A919880E890F780E121AAF8514BB
:102E700082851583A3A3A3A31243A1121AAFE5145D
:102E80002405F50EE43515F50F780E121AAF8514EA
:102E90008285158312303F1206D274061218428AB8
:102EA0000E8B0FEA450F7003022FFDEA2404F5167E
:102EB000E4350FF517851682F583E0F50CA3E0F5F0
:102EC0000D85188285198312439D8A828B83A3A363
:102ED000A3E0F98510828511831234091206C0E936
:102EE000F5096003022FFD7402121878123707F5F6
:102EF000097809121AB3E4F512F5137812121AAF11
:102F00007512EE7513027812121AAF9002EF121AB0
:102F1000C67407121878121AC6EEF9AC0EAD0F85FA
:102F20001082851183123409120840740912184264
:102F3000E9F5096003022FFDE508703FE4F50EF5A1
:102F40000F780E121AAF7CFF7DFF790985108285FC
:102F500011831234091207AA740212184212372D73
:102F6000700D7404121878123034791102303190D7
:102F700002EEE024029002F2F080149002F2E0FAF5
:102F80009002EEE0790024025001096A497072A8AB
:102F9000089002EEE0FAE82AFAE43400FBEE9AEF39
:102FA0009B405A851682851783E0C0E09002F31299
:102FB0002DE3D0E0F00508851682851783A3E0C0D5
:102FC000E0089002F3122DE3D0E0F005089002EE45
:102FD0001243A1121AAF12439AA8081236D4121241
:102FE000E474021218429002EEE02508F50874FF1E
:102FF000650C700474FF650D6003022E4CE50860DB
:103000001F9002F2E0F5F0E5088412305112040E30
:10301000E960099002F312340912136879008011F3
:10302000E509700375090A7404121878123034A97E
:10303000090236CA12386FE50CF0A3E50DF022A3A1
:10304000A312462CAA0CAB0D22A3A3EAF0A3EBF02B
:10305000229002F1F07CF17D0285108285118312AD
:10306000340D2274EC12189C74FC12182C123B7054
:1030700074021218921234031206D88A0C8B0DEACD
:10308000450D700302313B12314BA818A919881065
:1030900089117810121AAF7CFF7DFF790B850882A9
:1030A0008509831234091207AA74021218421232D7
:1030B00041700C850A82850B8312373E0231488E9F
:1030C000828F83A3A3A3A3E0F5127812121AB3E4AC
:1030D000F512F5137812121AAF7512F17513027802
:1030E00012121AAF7810121AAF7409121878121A45
:1030F000C67409121878E0F9AC0CAD0D850882850C
:1031000009831234091208407409121842E9FE704A
:10311000157CF17D02850882850983123409120429
:1031200014E97009802074166E70027E009002F21D
:10313000123409121368EE7004800B7E01850A8236
:10314000850B83123A5DEEF9023A72EE2402F5081D
:10315000E43FF5092274EC12189C74FC12182CEA56
:10316000FEEBFF8C0E8D0FEE2405F508E43FF5090C
:103170007402121892850882850983123409120696
:10318000D88A0C8B0DEA450D7003023231EE240211
:10319000F50AE43FF50BA818A919881089117810D1
:1031A000121AAF7CFF7DFF790D1234031207AA7447
:1031B00002121842123241700B850882850983126F
:1031C000373E807A8E828F83A3A3A3A3E0F5127883
:1031D00012121AB3850882850983A3A3121AC67531
:1031E00012F17513027812121AAF7810121AAF7416
:1031F00009121878121AC67409121878E0F91233F5
:10320000FF1208407409121842E9FE700F7CF17D2C
:103210000212340312041AE97009802074166E70C9
:10322000027E009002F2123409121368EE700480DC
:103230000B7E01850882850983123A5DEEF9023A18
:1032400072123448F510A3E0F511EA45112274E832
:1032500012189C74FE12182C8A168B178C148D155C
:10326000EA2405F50CE43517F50DEA2402F50EE421
:103270003517F50F850E82F5831234091204EC8A96
:10328000088B09750B007C037D0079007AF17B02C5
:103290001212FC750A00E50814F5100424FFF50865
:1032A000E50934FFF50980549002F1E0FA9002EE4E
:1032B000E0F8EA28F8E43400F9E50898E5099950BF
:1032C0000D9002F1E0F8E510C3989002EEF0E0F501
:1032D000127513007812121AAF12439A9002F2E09C
:1032E0002AFAA3E03400FB1212E47402121842908E
:1032F00002EEE0F89002F1E028F0050A850C8285E4
:103300000D83A3A3123D1440030233E49002F1E0C5
:10331000C39508E4950940030233E4AE0AEE2EFE9D
:10332000E433FF123423AC18AD191243B5E439FB72
:103330001206D88A128B13AC12AD13EC4D701B75AC
:103340000B01123413123A619002F21229606003E9
:10335000121368A90B74020236CC85168285178376
:10336000A3A3A3A3E0F50B780B121AB3E4F512F5AF
:10337000137812121AAF7512EE7513027812121A20
:10338000AF9002EF121AC67407121878121AC6A963
:1033900010850E82850F83123409120840740912B9
:1033A0001842E9F50B709B9002F212343860030268
:1033B00032A8E4F512F5137812121AAF7CFF7DFFE4
:1033C000790F850E82850F831234091207AA7402C1
:1033D00012184212343E60030232A812341312371C
:1033E000420233557CF17D02850E82850F831234B3
:1033F00009120420E960030233487900023355AC16
:103400000CAD0D850A82850B8312340D22E0FAA3E0
:10341000E0FB22123423E0FAA3E0F9EA8514828566
:10342000158322850C82850D83E02EF8A3E03FF9F9
:1034300088828983229002EF12453BE849221234A8
:1034400048F8A3E0F9E849229002F2EAF0A3EBF091
:103450009002F2E02274E812189C74FA12182C748C
:103460000412187812304B8C168D177404121878C9
:10347000E02405F50EA3E03400F50F74041218786B
:10348000E024021236E01234091204EC8A0A8B0B93
:103490007F007E00A818A919880889097808121ADF
:1034A000AF850E82850F83A3A3A3A3E0F5088E0941
:1034B0007808121AAFE50E2405F508E4350FF50972
:1034C0007808121AAF850E82850F83A3A3123710D6
:1034D0001206D274061218428A0C8B0D80291237FC
:1034E00001F00F123701F00F9002EE123A4C121A4F
:1034F000AF12439AEFF81236D41212E47402121883
:10350000429002EEE02FFFE50C450D70030235906E
:10351000851882851983123B82A3A3A3E0F9851441
:10352000828515831234091206C0E9FEE50C2404D5
:10353000F510E4350DF511EE705074041218781280
:103540003707F5087808121AB3E4F508F509780882
:10355000121AAF7508EE7509027808121AAF9002B8
:10356000EF121AC67407121878121AC6E50A24FA5E
:10357000F9AC0CAD0D85148285158312340912083F
:10358000407409121842E9FE603912371D123A6080
:10359000EF70030236B79002F2E0F5F0EF8490028C
:1035A000F1F07CF17D0285148285158312340912B5
:1035B0000426E960099002F31234091213687900B5
:1035C0000236CA8F08EF703BE4F512F51378121239
:1035D0001AAF7CFF7DFF7911851482851583123423
:1035E000091207AA740212184212372D70091237F5
:1035F0001D1237410236CA9002EEE024049002F216
:10360000F080359002EEE0F89002F2E0FAE824044F
:10361000FCE43400FDEC6A4D6003023596E50A24B3
:10362000FAFAE50B34FFFBE50828F8E43400F9EA80
:1036300098EB995003023596851082851183E0C07E
:10364000E09002F3E02FF8A3E034008882F583D005
:10365000E0F00F851082851183A3E0C0E01236EE02
:10366000D0E0F00F740212188288088909780812D5
:103670001AAF7402121878121AC6850E82850F834B
:1036800012303F1206DE74041218428A0C8B0DEAC7
:10369000450D70030234DE7402121878E0C0E012A7
:1036A00036EED0E0F00F7402121878A3E0C0E012FA
:1036B00036EED0E00234E6EE70027E0A850E828598
:1036C0000F83123723123A60EEF974061218427F04
:1036D0001002196E9002F3E028FAA3E03400FB22F6
:1036E000F514A3E03400F515851482F58322123613
:1036F000F2229002F3E02FFAA3E034008A82F583ED
:10370000221236F274FF2212386FA3A3A3A3E02281
:1037100012462C850E82850F8312340D228510826D
:1037200085118312453B851682851783229002F30B
:10373000EAF0A3EBF09002F312453BE84922123A7B
:1037400066E8F0A3E9F079112274EA12189C74FE7D
:1037500012182C8A088B098C128D13EA2405FEE4BA
:103760003509FFAC18AD198E828F83123409120609
:10377000D88A0C8B0DEE2406F50EE43FF50FEA45D2
:103780000D7003023841E5082402F50AE43509F515
:103790000B8A828B83A3A3A3E0A2E550288518821D
:1037A0008519831234091208348A108B11EA4511E5
:1037B000602079121233FF85108285118312189AC6
:1037C000E9F50C707F850E82850F83E060097952E0
:1037D0008011750C0E806D850882850983A3A3A3D3
:1037E000A3E0F9E4F508F5097808121AAF8E828F84
:1037F00083A3A3E0F5087808121AAF8E828F83A303
:10380000A3A3121AC68E828F8312439D1234031211
:1038100008467406121842E9F50C7011850E82856F
:103820000F83E0702D12340312042C80257416656A
:103830000C7011750C00741812187812386BE48033
:1038400010750C01124533851282851383E8F0A3AD
:10385000E9F0850E82850F83E0600479008002A97B
:103860000C74021218427F0E02196E12386F22E099
:10387000F8A3E0F58388822274EC12189C74F71286
:10388000182C8A0A8B0B8C108D11EA2405FEE43566
:103890000BFF750C00AC18AD198E828F83123409A2
:1038A0001206D88A088B09EA45097003023A37E5FF
:1038B0000A2402F50A5002050B8A828B83A3A3A374
:1038C000E0A2E5502F851882851983123409120869
:1038D000348A0C8B0DEA450D604F7912AC08AD09A6
:1038E000123403850C82850D8312189AE9F50C6059
:1038F00003023A3A850A82850B83E0F508A3E0F5D6
:1039000009AA08FB120828EA4B70197AFF7BFF12FC
:103910000828EA4B7003023A2D8A828B83E508F06F
:10392000A3E509F07508008008750C0E023A3A0507
:10393000089002EBE0F8E508C3984003023A2D85B1
:10394000080E750F007403780E1218198A828B8383
:10395000A3A3E0250EF8A3E0350F123E0170D08E30
:10396000828F83123A5512304B8E828F83A3A3121B
:103970003A55123049EE2404F508E43FF50985086C
:1039800082F583E088828983A3A3A3A3F0A3E4F054
:10399000EE2405F50EE43FF50F850E82F583123A0D
:1039A00055A3A3A3A312304975120775130078120B
:1039B000121AAFEEFCEFFD740412188A1212E474AE
:1039C00002121842E4F5127812121AAF85088285A5
:1039D0000983E0FC7D0079171234031207AA7402F0
:1039E000121842740712187812304B7407121878A4
:1039F000E0FA4B603D850882850983123A4C121A21
:103A0000AF850E82850F8312439D1212E474021259
:103A100018427402121892123403120432E960261A
:103A200074071218781234091213688019750C097A
:103A30008008750C118003750C01124533851082C6
:103A4000851183123A60A90C74098028E0F5087585
:103A5000090078082212340D8882898322123A667E
:103A6000E8F0A3E9F022E0F8A3E0F9850E82850FE3
:103A7000832274041218427F0C02196E74EC12181F
:103A80009C123B70751000EE2402F50CE43FF50D1E
:103A9000850C82F5831234091208288A088B09EAFA
:103AA00045097003023B54850A82850B83E064015B
:103AB0006003023B49AC08AD09AA0AAB0B12081C13
:103AC000E9606E850882850983122DD6EE2406F5FD
:103AD0000AE43FF50B8E828F83A3A3121AC68E824F
:103AE0008F83A3A3A3A3121AC6850A82850B831210
:103AF0001AC679188E828F83123B821234091208FB
:103B0000467406121842E9F8741668700B850A822A
:103B1000850B83E4F0A38014E860128E828F8312F9
:103B20003409850E82850F83EAF0A3EBF0881080BC
:103B300018780E121AAFAC08AD09EEFAEFFB1208B6
:103B4000227402121842E9F510AA08AB0912082ED5
:103B5000E510700E850C82850D831234091204382D
:103B60008009741665107003751000A910023A7769
:103B7000EAFEEBFF8C0E8D0FEE2405F50AE43FF50F
:103B80000B2212462C850C82850D832274EA1218B2
:103B90009C7508007509007E007F00750A00EC2402
:103BA00002F510E43DF5118035EC65087003ED6514
:103BB000096003023C4188828983A3A3E06A700301
:103BC000A3E06B707C88828983A3A3A3A3124537EB
:103BD000EE28FEEF39FFEA28FAEB39FB050A123D21
:103BE00011503A850A0C750D007403780C121819DF
:103BF000851082851183123D04123E01601FE50885
:103C0000450970A58C088D0988828983122DD48876
:103C1000828983A3A3E02EFAA3E03F80BEE50AC316
:103C200094025003023CFF750800750900EE4F60D6
:103C300010EEFAEFFB1213628A0E8B0FEA450F703B
:103C4000057900023D01750B00023CD4850B0C7513
:103C50000D007403780C121819851082851183E009
:103C6000250CF50CA3E0350DF50DE50C2406F51437
:103C7000E4350DF515851482F583123E066042E5A4
:103C80000C2404F512E4350DF513851282F5831228
:103C90001AC6E50E2508FAE50F3509FB1212E47481
:103CA00002121842851282851383E02508F508A3C5
:103CB000E03509F50985148285158312340912133C
:103CC00068E50B600D7C087D007900AA0CAB0D1235
:103CD00012FC050BE50BC3950A5003023C4C851002
:103CE0008285118312453788828983A3A3A3A3A366
:103CF000A3E50EF0A3E50F122967EEF0A3EFF0792C
:103D000001023866123D0822E0250CF8A3E0350DCB
:103D1000229002EBE0F8E50AC3982274F012189C96
:103D20008A0E8B0F8C0A8D0B750D00750C00805060
:103D30007916EE2406F508E43FF5098E828F83A3F9
:103D4000A3121AC68E828F83A3A3A3A3121AC685B9
:103D50000882850983121AC6850E82850F83A3A364
:103D60001234091208467406121842E9F50D741649
:103D7000650D706C850882850983E4F0A3F0050C5D
:103D80009002EBE0F8E50CC3985066AA0C8A08751F
:103D9000090074037808121819850A82850B83A319
:103DA000A3123E50E8FEE9FF8E828F83123E06602A
:103DB00040EA2401F508E43400F5099002EBE065DF
:103DC000087002E509601488828983A3A3A3A3A3D2
:103DD000A3A3A31234386003023D307918023D32A8
:103DE000E9609B1245337410121878123DF8123AAC
:103DF00060A90D7F0802196EE0FAA3E0F5838A82BC
:103E000022F98882898312462CEC4D2274F612180E
:103E10009C7C0080010C900348E0F8ECC398501E95
:103E20008C0875090074027808121819123E45E0D2
:103E30006A7003A3E06B70DDE8FAE9FB80047A00A6
:103E40007B00023EE89002E9123E5088828983227C
:103E5000E02508F8A3E03509F92274F212189C8ACB
:103E6000088B09750A0080278E828F83A3A3A3A3E2
:103E700012295E60031213687C087D007900EEFA57
:103E8000EFFB1212FC8E828F83E4F0A3F0050A127E
:103E90003D115027850A0C750D007403780C12181B
:103EA00019850882850983A3A3E0250CFEA3E035CC
:103EB0000DFF8E828F8312343870AD85088285099C
:103EC0008374FFF0A3F002462074F612189C1207C8
:103ED000DA8A828B83E582458370067A007B0080D4
:103EE00007A3A3A3A31234097F0202196E74F4126C
:103EF000189C89088C828D83E06402703C1244D641
:103F0000FEA3E0F9EEF87402687003742969702961
:103F1000750A02750B00780A121AAF74101218781D
:103F2000121AC67410121878121AC6A90812117C37
:103F30007406121842E9F98002790102299B74E89B
:103F400012189C74FB12182CE9851882851983F0CD
:103F50008A168B17ECFEEDFF7510008E828F83A3FF
:103F6000A3A3E0A2E4502D741D1218781234091294
:103F700008348A828B83E582458370030243757916
:103F80000AEEFCEFFDAA16AB1712189AE9F51060BD
:103F900003024378741F121878E0F508A3E0F509CE
:103FA0007421121878E0F50AA3E0F50B74231218B7
:103FB00078E0F50EA3E0F50F8E828F83E064026057
:103FC00003024316A3124537850882850983A3851A
:103FD0008212858313EE2406F50CE43FF50D8882EA
:103FE00089831243B5F514E439F5157814121B3999
:103FF000010000280128184007000228DD4003289E
:104000004B4000290C42012937420229D84103299B
:104010000C420429B0421643E50E450F60030243EB
:1040200011850C82850D83124537E8FAE9FB8A82F7
:104030008B83E0850A82850B831243C0121AAF8AF4
:10404000828B83A3E0FCA3E002429AE50E450F6059
:1040500003024311850A82850B837401F01243AA7F
:10406000850882850983F07C007D008E828F83A382
:10407000A3A3A3E02401FAA3E03400FB1206D8EACC
:104080004B60408A828B83E02402F8850A82850B8C
:1040900083E028F0EA2404F8E43BF988828983E08D
:1040A0008512828513831243CE1243C0121AAF8A3F
:1040B000828B83A312439DE5082403FAE43509FBB0
:1040C00002429F850A82850B83E02404F07C047DF4
:1040D000007900AA12AB131212FC024378E50E45D8
:1040E0000F60030243111243AAFEA3E0FF850A8278
:1040F000850B837404F0EE850882850983F0EF85D3
:104100001282851383F07403121892EEFAEFFB12F9
:1041100006D88A0C8B0DEA450D70030241BB8A82DA
:104120008B83A3A3122DD47401121882880E890FD9
:10413000780E121AAF7405121878121AC67CFF7D19
:10414000FF1206DE74041218428B0FEA450F70331B
:10415000850C82850D831243A1121AAF850C8285CE
:104160000D83A3121AC67C027D007AE97B901204AB
:10417000DA7404121842E9700A740112187874FF94
:10418000F0A3F08E828F83E064027039750C0275A3
:104190000D00780C121AAF8E828F83A312439DE517
:1041A000082404FAE43509FB1212E47402121842DE
:1041B000850A82850B83E024028009740112187835
:1041C000EEF0A3EFF0740112187812438F7401120D
:1041D000187812438602430BE50E450F6003024335
:1041E00011850C82850D83124625AA16AB17121174
:1041F00082850A82850B837402F085088285098393
:10420000EAF0851282851383EB02430EE50E450F1B
:1042100060030243111243AAF8A3E0F9850A8285DC
:104220000B837402F0E8850882850983F0E9851222
:104230008285138302430E850C82850D8312340917
:104240001212DEEAFAF8C3950EE4950F405CE865B9
:104250000E450F70047A008021851882851983E04D
:10426000FCE50E2CFCE4350FFDC3EC98ED940050FA
:1042700003E08005E50ECAC39AFAEA850A82850B37
:1042800083F08A0A750B00780A121AAF850C8285B2
:104290000D83E0250EFCA3E0350FFDAA08AB091243
:1042A00012E4740212184202437875100702437830
:1042B000E50E450F705B850C82850D8312453785B1
:1042C0000A82850B837407F08882898312438712E0
:1042D000437FE0851282851383F0E82402FAE439F3
:1042E000FB8A828B8312438F8A828B83124386A33D
:1042F000A3122966124394F0E82405F850010988B6
:10430000828983124394A31243CEA3A3A3A3F08074
:104310006775100B8062741D121878123409120729
:10432000DA8A828B83E5824583604A124537880C9E
:10433000890DE8450D603E7425121878E0F5107877
:1043400010121AB3780E121AAF780A121AAF780840
:10435000121AAF7407121878E0F9EEFCEFFDAA16F6
:10436000AB17850C82850D8312189A7407121842B8
:10437000E9F510800375100EA91074050236CCF013
:1043800088828983A322A3E085088285098322127B
:1043900043D5F0221243D5A3A3229002EF12462C5C
:1043A00022E0F50E750F00780E22850C82850D83B4
:1043B00012386FE022E0FAA3E0F8E4C8F9EA282214
:1043C000F08A828B83E0F50A750B00780A2212438B
:1043D0007F1243D522E0850882850983A3A3227436
:1043E000EE12189C74FE12182C8A088B09ECFEED54
:1043F000FF890AAC18AD19EEFAEFFB1206D88A0C49
:104400008B0DEA450D70030244C785188285198318
:104410001234091207DA8A828B83E582458370039E
:104420000244C2A3A3124537880E890FE8450F70D6
:10443000030244C27414121878E0F510A3E0F511D9
:10444000E50AF50B780B121AB37419121878121AC0
:10445000C67810121AAF741B121878E0F9AC0CADC4
:104460000DAA08AB09850E82850F8312189A740570
:10447000121842E9F50B705274FE650A604C850C07
:1044800082850D83E0640270411244D6FAA3E0F9FC
:10449000EAF87402687003742969702E85108285A9
:1044A00011831243B5F50CE439F50D780C121AAFEF
:1044B000EEFCEFFDAA08AB0912085E740212184266
:1044C0008008750B0E8003750B01A90B740212187E
:1044D000427F0A02196EA312453B88828983E0223B
:1044E00074F612189C74FE12182C740C12187812A0
:1044F0004537E8851882851983F07401121878E928
:10450000F0E4F508F5097808121AAF750802780882
:10451000121AAF7404121882880889097808121ACE
:10452000AF79FE120846740612184274021218423D
:10453000023EE88E828F8312453B22E0F8A3E0F929
:104540002274F712189CEAFEEBFF8908900306120A
:10455000439D121182EA5402600BA908EEFAEFFBA8
:104560001206CC800279017F0102196E74F21218D2
:104570009C74FE12182CEAFEEBFF890A7401650A8E
:1045800060147402650A600302461B7901120A680E
:10459000E9600302461BEEFAEFFB120828EA4B60C3
:1045A0000312082EA818A919880889097808121A70
:1045B000AF7508027509007808121AAF7508DF7523
:1045C00009907808121AAF7CFF7DFF7A017B0012F8
:1045D00006D274061218428038850882850983A3A2
:1045E000A3A3A3A3A3124625EEFAEFFB12116AE4DC
:1045F000F50CF50D780C121AAF7402121878121A15
:10460000C67CFF7DFFAA08AB091206DE74041218EF
:10461000428A088B09E508450970BE7402121842E7
:104620007F0602196E12386F12462C22E0FCA3E0BE
:10463000FD2274F412189C8A088B09ECFEEDFF90A1
:104640001774E0F4604B7A097B00121308EA4B60A0
:10465000408A828B8374B1F0A3E4124694F08A827C
:104660008B83A3A3E508F0A3E509124694A3EEF01B
:10467000A3EFF0740C1218781245378A828B83A34B
:10468000A3A3A3A3A3A3123A60901774E0F9121393
:104690001402299BF08A828B83A3A3A3A32274F024
:1046A00012189C74FA12182C8909ECFEEDFF75089B
:1046B000008A0A8B0B780A121AF3000410C448E12E
:1046C00046FF46194731474F4767478A47A247B6D3
:1046D00047E0475B486C4883489E48C448C448F656
:1046E000477401650960030248BF8E828F83E0F83A
:1046F000C3940340030248BFE890186002489B74CB
:1047000002650960030248BF8E828F831250229097
:104710001861E8F0A3E902489B740165096003028F
:1047200048BF1248EC40030248BFE890072C0248FB
:104730009B7401650960030248BF8E828F83E0F895
:10474000C3940540030248BFE890072D02489B74BC
:1047500001650960030248BF1248EC40030248BFEC
:10476000E890072E02489B7410650960030248BF59
:10477000750A10750B00780A121AAF7A2F7B071290
:1047800012E474021218420248E5740165096003DC
:104790000248BF1248EC40030248BFE890073F02BE
:1047A000489B7401650960030248BF8E828F83E0D5
:1047B00090186402489B7404650960030248BF8E28
:1047C000828F83780C1216F09090B2780C12152319
:1047D00050030248BF900741780C1216FF0248E5CB
:1047E000E960030248BF120672E9700512112E80BB
:1047F000559007D480617407650960030248BF754E
:104800000A06750B00780A121AAF8E828F83A3AC4A
:1048100082AD83740212188A1212EA7402121842CC
:104820007C007D00AA18AB198E828F83E0F91210EC
:10483000DAE9FEC3940A40030248E2120672E97004
:104840000CEEF91211347950121422806D74D52EA9
:10485000F582E43407F583740180407401650970C2
:104860005E1248EC5059E8900740802F74016509AA
:10487000704D8E828F83E0F8C3940A5042E89018FE
:104880006380187401650970368E828F83E0F87436
:10489000F928C3940A5028E8901865F080477401FD
:1048A0006509701B9007D3E0F88E828F83E0900734
:1048B000D3F0E87030E06401702B1211228026756D
:1048C00008188021C3EA9427EB9400501574026500
:1048D00009700F8E828F83125B021204F2E9F508D1
:1048E0008003750802A9087406024C108E828F831B
:1048F000E0F8C3940222A90880031218427F040240
:10490000196E74F012189C74B112182C8C0A8D0B4D
:1049100090904E7420121892740612173F74201251
:1049200018921210DAE9FF745F121878E0F509EFB7
:10493000C3940A4003024A8475F006EFA4F5087494
:10494000411218927A0E74202508F912141CE9708D
:1049500009744D121878E0FE80027E00901860E025
:1049600064027005750E018003750E0074086509F8
:1049700070047422800274212508F50D7C1B7D00D3
:104980007900742612188A1212FC74261218927A70
:104990001BA90D12141CE9702D7440121878E02424
:1049A000F9C3940A5020E50EF50D780D121AB37470
:1049B00027121892EEA2E0E433F9AA0AAB0B120513
:1049C0009474011218427C147D007900740C121842
:1049D0008A1212FC740C1218927A1074242508F9A9
:1049E00012141CE970347C1079FF740C12188A12AE
:1049F000135CE97025741C121878AC82AD837A04BC
:104A000074252508F912141C740C121892EEA2E0F9
:104A1000E433F9AA0AAB0B12057CAC18AD197A0C79
:104A200074702FF912141CE97049AA18AB191211ED
:104A30000A7F00EF75F003A4F8A9F08518828519A4
:104A400083E58228F8E5831251D91253BA601D8894
:104A5000828983A3A3E0F50E750F00780E121AAFBA
:104A6000AA0AAB0B12084C74021218420FEFC3943F
:104A70000440C0EEA2E1500C90072BE0F9AA0AAB6B
:104A80000B120852740465097028901860E06402E3
:104A900070207A0090073FE060027A0190072CE0D6
:104AA0006004780480027800E84AF9AA0AAB0B1285
:104AB00006487900744F024C1074F712189C1206C5
:104AC00072E9704F9007D4E06401701512112E90B6
:104AD00007D4E4F07C0AFDF97AD57B071212FC803A
:104AE0002A750800A80874D528FEE43407FF8E82D2
:104AF0008F83E06401700BA9081211348E828F83BA
:104B0000E4F00508E508C3940A40D979501214224C
:104B10001211220254F174F012189C74F012182C25
:104B2000EAFEEBFF8C088D09750A0AE9600C146037
:104B30000914603B14607D024C0C12111CE9F50A4B
:104B4000C3940A4003024C0CE50845097003024C6B
:104B50000C750C06750D00780C121AAFEEFCEFFD0B
:104B6000AA08AB091212E47402121842024C0C7526
:104B70000C00750E06750F00780E121AAFEEFCEFE2
:104B8000FDE50C75F00EA4F8A9F0744D28FA740731
:104B900039FB1212F67402121842E9700B050CE58B
:104BA0000CC3940A506680CA850C0AE50AC3940AAD
:104BB000505A8049750C00AC18AD197A1075F00682
:104BC000E50CA42423F912141CE9701C7C1079FF55
:104BD000AA18AB1912135CE9700EEEFCEFFDAA18CF
:104BE000AB19120558E9600B050CE50CC3940A508B
:104BF0001B80C4850C0AE50AC3940A500FE50845DA
:104C0000096009AA08AB09A90A121116A90A7410A9
:104C10001218427F0802196E74F412189C890975E3
:104C2000081574FF6A700374FF6B70277E00AC096F
:104C30007A027B00EEF91210F8E960037508000EA5
:104C4000EEC3940A40E8E50960537A467B11120AE4
:104C50008C804A120A5C8A0A8B0BAE0AAF0BEE4FAD
:104C600060387C007D00EE2405FAE43FFB8E828FE5
:104C700083A3A3A3A3E0F91210DAE9F9C3940A50BD
:104C80000CAC097A027B001210F8750800E5096087
:104C90000CEEFAEFFB12114680037508140248F679
:104CA00074F212189CECFEEDFF750815740E1218C4
:104CB00078E0F50AA3E0F50B74FF6A700374FF6BEC
:104CC0007021750900AC0AAD0BEEFAEFFBA90912D1
:104CD00010FEE960037508000509E509C3940A5050
:104CE0003F80E2120A5C8A828B83E5824583602DD5
:104CF0007C007D00E5822405FAE43583FBA3A3A3B1
:104D0000A3E0F91210DAE9F9C3940A5013AC0AAD22
:104D10000BEEFAEFFB1210FE750800800375081405
:104D2000A9087F0602196EC082C083900745EAF089
:104D3000A3EBF090072BE0FC7D007A267B001204A9
:104D4000F290072BE0F91207B602580B74EE121816
:104D50009C74EC12182C8A088B09EA240CF510E4D8
:104D60003509F5118A828B83A385820C85830DEA30
:104D70002405F50EE43509F50FEA2409F50AE435B2
:104D800009F50BEA2403FEE43509FF8A828B83A32D
:104D9000A3E024FA700302501024FD7003024F3088
:104DA000147003024E2A14601024FD7003024F1386
:104DB000147003024F68025016125B086044E0F55D
:104DC000838882125022880C890DE8450D60338556
:104DD0001082851183E0F50E780E121AB3EA240BC7
:104DE000F582E43509F583E0F9125AFC0A0A0AEF64
:104DF000FB850C82850D8312189A740112184202E9
:104E00005016850A82850B83121AC6900741121725
:104E10000E12058E7402121842E9700302501679C0
:104E200001850A82850B83024FE0750A00850C829A
:104E3000850D83E06003024EE0850E82850F83E0DE
:104E4000A2E04003024EE09007DF125B0B6003021A
:104E50004EE07C0E7D007900AA18AB191212FC8579
:104E600010828511831257D6EA4B6010750A0675B9
:104E70000B00780A121AAFEA2410801B1257D212C4
:104E80000A5CEA4B7003025016750A06750B00782F
:104E90000A121AAFEA2405FCE43BFD740212188AD8
:104EA0001212E47402121842850E82850F83E0A26A
:104EB000E25004D2F08002C2F0A2F0E433F8740CA5
:104EC00012187812598A121110E970117A027B00B7
:104ED00090072BE0F91213387900025018750A1563
:104EE000125B0870030250161250377003025016FE
:104EF000850C82850D83E0FC790112502812189AE6
:104F0000E50A7003025016FC79031257D212578D2E
:104F100002500B125B0870030250161250377003D8
:104F2000025016850C82850D83E0FC790202500840
:104F30007C007D00EA2404FAE43509FB8E828F832D
:104F4000E0F91210DAE9F8C3940A4003025016E5BA
:104F500008240AFCE43509FD7A0475F006E8A42467
:104F600025F91214160250161257D2900740E0602D
:104F700007901863E0F9806B901860E07004790581
:104F80008061120A5C8A0C8B0DA80CA90DE849708F
:104F900003025016E82404F50CE439F50D85088267
:104FA000850983A3A3A3A3A3A3A3E0A2E05039850B
:104FB0000C82850D83E0F508602E850A82850B83BF
:104FC000A3E054027022740E121892E82405FAE449
:104FD00039FBA9081210DAE9700E79038E828F83EB
:104FE0001257D6120588802EAC0EAD0F850C828527
:104FF0000D83E0F91257D2121152125B086017129A
:10500000503760127C00790012502812189A8006DE
:105010001257D21210D4790174141218427F0A0266
:10502000196EE0F8A3E0F9228E828F83E0FAA3E004
:10503000FB88828509832212579BF98909E8450973
:105040002274F512189C74F212182CEAFE8C0A7560
:10505000F006E9A42420F508AC18AD197A0EF9126F
:10506000141CE970467C0679FFAA18AB1912135C70
:10507000E97038740C1218781257D6EAF8E50A600D
:1050800005EEC8488004EEF4C858F8EA687001EBF1
:105090006015740C121878E8F0A3E4F0AC18AD19A0
:1050A0007A0EA908121416790180027900740E1282
:1050B00018427F0302196E74F212189C74E61218DB
:1050C0002C890A8A088B09ECFEEDFF740C121892E9
:1050D0007A0E75F006E9A42420F912141CE9600385
:1050E00002519C7C0679FF740C12188A12135CE939
:1050F000600302519C7470250AF50BAC18AD197A47
:105100000CF912141CE96003025198AA18AB191289
:10511000110AE5084509701D7C0C7900AA18AB1925
:1051200012135CE970727C0C7D007900AA18AB192F
:105130001212FC8051AC18AD19AA08AB0912110467
:105140008A0C8B0DA80CA90DE8497022EE4F604C1B
:10515000AC18AD197A007B00121104EAF8EBF9EAF9
:105160004B603988828983E508F0A3E509F0125283
:1051700015FAEE6A7001EF601FEEF04F700888823A
:105180008983E4F0A3F0AA18AB1912110AAC18AD88
:10519000197A0CA90B121416790180027900741A7D
:1051A000121842024D2274F712189C7E00EE75F020
:1051B00003A4F8A9F0EC28F8ED1251D9E06A7003C5
:1051C000A3E06B7006E8FAE9FB800B0EEEC39404D3
:1051D00040DB7A007B000254F139F988828983220E
:1051E00074F712189C7C00EC75F003A4F8A9F0EA9F
:1051F00028F8EB1251D9E0F4FEA3E0F4FF8882898D
:1052000083EEF0A3EFF0125215F4F00CECC394040B
:1052100040D50254F1E82402F582E439F583E02216
:1052200074F412189C74F412182CEAFEEBFF8C082C
:105230008D099007DF125B0B704FEE4F7003025326
:1052400099EC4509700302539912111CE9901866F4
:10525000F0C3940A4033750B007C0679FFE50B75AB
:10526000F00EA4FAABF074472AFA74073BFB121352
:105270005CE960030252FA050BE50BC3940A40D9BE
:10528000750A0AE50A901866F0901866E0C3940A59
:10529000400302539975F006E0A4FB9007DF125B10
:1052A0000B705CEEFCEFFD7A0E74202BF9121416D5
:1052B0007C0C7D0079FFAA18AB191212FCAC18AD5A
:1052C000197A0C901866E02470F9121416750A0EFB
:1052D000750B00780A121AAFEEFCEFFD901866E02D
:1052E0001254521212E474021218429007DFE508B9
:1052F000F0A3E509F0790002539B850B0A8084E056
:10530000C824061253B460197A1B74212BF91214A5
:10531000161253A02406F582E438F583E4F0A38046
:10532000D31253A0240A1253B460107A1B74222B98
:10533000F91214161253A0240A80DB1253A0240C75
:105340001253B460107A1074232BF91214161253EE
:10535000A0240C80C11253A91253B460307A107487
:10536000242BF91214161253A9F582E438F583E0C0
:105370002410FCA3E03400FD7A0475F00690186652
:10538000E0A42425F91214161253A980899007D39A
:10539000E0600312115812114C7901740C0248FAA2
:1053A0009007DFE0F8A3E0C8229007DFE0F8A3E071
:1053B000C8240822F582E438F583125B02EC4D2202
:1053C00074F412189C74F212182CEAFEEBFFE9C375
:1053D000940A5004EE4F700479028034AC18AD1971
:1053E0007A0E75F006E9A42420F912141CE9F508D8
:1053F000701C750A06750B00780A121AAF74021237
:105400001892EEFAEFFB1212E47402121842A90885
:10541000740E0248FA74F412189CEAFEEBFF750849
:1054200000750A06750B00780A121AAFEEFCEFFD44
:10543000E5081254521212F67402121842E960047E
:10544000A908800B0508E508C3940A40D4790A022C
:1054500048FD75F00EA4F8A9F0744728FA740739CE
:10546000FB2274F712189C750800E50875F00EA46D
:10547000F8A9F0744728FE740739FFEEFCEFFD7AB7
:105480000E75F006E508A42420F912141CE9602921
:105490007C067D0079FFEEFAEFFB1212FC7C067DA4
:1054A0000079FFEE2CFAE43FFB1212FCEE240CF51F
:1054B00082E43FF583E4F0A3F00508E508C3940A0D
:1054C00040A89007D3E0600312115812114C8021BC
:1054D00074F712189C7E007F007C06EF12545279FC
:1054E000FF12135CE970010E0FEFC3940A40EAEE5D
:1054F000F97F0102196E74F712189C7E00EEF91202
:105500001134E9F90EEEC3940A5003E960EF80E12B
:1055100074F312189C74CB12182C8908901866E04A
:105520006508701B7A017B0090072BE0F912133E8F
:105530007A027B0090072BE0F912133E121164757A
:10554000F006E508A4FF74202FFE74271218927A43
:105550000EEEF912141CE960030256187C0679FF5E
:10556000742712188A12135CE960030256187C0E25
:105570007D0079FF742712188A1212FC7C1B7D00B3
:1055800079FF740C12188A1212FC7C0C7D0079FFD2
:10559000AA18AB191212FC74271218927A0EEEF99F
:1055A000121416E9FE740C1218927A1B74212FF94A
:1055B000121416E9F509740C1218927A1B74222F32
:1055C000F9121416E9F50A740C1218927A10742361
:1055D0002FF9121416E9F50B740C1218927A107444
:1055E000242FF9121416E9F50C740C1218927A048F
:1055F00074252FF9121416E9FFAC18AD197A0C7442
:10560000702508F9121416E9F8E509450A450B4515
:105610000C4F48CE4EFE80027E00EEF97435121813
:10562000427F0502196E74F712189CE990072BF05F
:105630001211220254F174F212189CEAFEEBFF548C
:105640008070030256F590072BE0F91213208A08A8
:105650008B09EA450970030256EE7A01E508240534
:10566000F50AE43509F50BE5082404F8E43509F9F1
:10567000880C890D8508828B83E024506036146085
:105680000624E16058805D88828983E0705985082E
:10569000828B83A3A3A3A3A3A3A3121AC6125AFCAB
:1056A0008508828B83A3A31257D61210E6740212C8
:1056B0001842803388828983E0641E700F790085E8
:1056C00008828B83A3A31257D61210E0850C828523
:1056D0000D83E0F9AA0AAB0B1207B0800AAA0812E0
:1056E00010F2E9FAEA6007AA08AB0912130EEEFA03
:1056F000EF6480802AEE54026028EE6402FE7C0093
:105700007D007A007B00121110E960047A018002AA
:105710007A027B0090072BE0F9121338EEFAEFFBC8
:105720008068EEA2E050556401F508EFF5091257C4
:10573000AB12115EE96033125B0860291257A312A5
:105740005022E8FEE9FFEE4F601B7C007901125702
:10575000AB8E828F8312189A7C0079031257AB129A
:10576000578D12189A121164800C7A017B009007F1
:105770002BE0F9121338AA08AB09800E5404600616
:10578000EE6404FA80047A007B00024D2290074503
:10579000E0F8A312579BF5838882221257A3E0F802
:1057A000A3E022E0F5838882A3A3229007DF125AA8
:1057B000ECE0FAA3E0FB227F0202196EC082C083F4
:1057C00090072BE0F98A828B83A31257D6120852D6
:1057D00080398E828F83E0FAA3E0FB22C082C083EF
:1057E00074FF12182C121128E9C3940285188285BF
:1057F0001983400474028002740AF0AC18AD197A5F
:105800000179051206907401121842D083D08202E9
:10581000011F74F012189C74E812182CEAFEEBFFBA
:10582000890A8C088D097C187D007900AA18AB19AB
:105830001212FC851882851983EEF0A3EFF0900711
:105840002DE0C0E07402121878D0E0F090072EE04E
:10585000C0E07403121878D0E0F0901865E0C0E062
:105860007417121878D0E0F0901864E0A2E0E433E6
:10587000FCE0A2E15004D2F08002C2F0A2F0E433D6
:10588000F8E0A2E45004D2F08002C2F0A2F0E433C7
:10589000FAE0A2E55004D2F08002C2F0A2F0E433B4
:1058A000F50E750F00E0A2E65004D2F08002C2F0BF
:1058B000A2F0E433F50C750D00E0A2E25004D2F042
:1058C0008002C2F07415121878E054FEFEA3E0FFC7
:1058D000EE4CFCEFFDEC54FDFCE828F8EC48F8ED4C
:1058E00054FEF9EAFBE94BF9E8FAE954FDFB7409C7
:1058F000780E121819EB450F54FBFB740A780C1242
:105900001819EAF8EB450DF9E854FBFAA2F0E43374
:10591000F50C750D007402780C121819EA450CF894
:105920007415121878E8F0A3E9F090072EE0601DD6
:10593000750C10780C121AAF7C2F7D0774061218A4
:1059400078AA82AB831212E4740212184290073FC5
:10595000E06011E50A60097415121878E04402F05D
:105960007801800278007414121878E048F09007EB
:105970002CE0600478048002780074141218781205
:10598000598A1205827418024C10E048F0AC08AD38
:1059900009AA18AB192274F712189C1208A67508E8
:1059A00000E50875F00EA4F8A9F0744728FE740706
:1059B00039FF7C0679FFEEFAEFFB12135CE9700900
:1059C000EEFAEFFB79001208AC0508E508C3940A6B
:1059D00040CF0254F174F612189C74FD12182CEA90
:1059E000FEEBFF9007E1125B0B70397508E3750958
:1059F000077808121AAF7508027509007808121A9C
:105A0000AF7508DF7509907808121AAF7CFF7DFF2B
:105A10007A017B001206D274061218429007E1EA5E
:105A2000F0A3EBF09007E1125B0B7003025ADE75F6
:105A300008FF7808121AB3E4F508F5097808121A75
:105A4000AF7405121882880889097808121AAF7491
:105A500005121882880889097808121AAF9007E39E
:105A6000121AC679029007E1125AF412084074091A
:105A7000121842E97036851882851983E0FA74019C
:105A8000121878E0F8E4C8F9EA28F508E439F509CD
:105A9000EA450960177808121AAF9007E1125AEC2C
:105AA000A3125AF41210E67402121842E4F508F533
:105AB000097808121AAF9007E3121AC67CFF7DFF1F
:105AC0009007E11257D61206DE74041218429007AE
:105AD000E1EAF0A3EBF09007E1125B0B70047901AF
:105AE0008002790074031218420257B7E0F8A3123B
:105AF00057A3A322125B02EEFAEFFB22850A8285EE
:105B00000B83E0FCA3E0FD22900745E0F8A3E0F959
:105B1000E84922C082C0839007DF125B0B601090BF
:105B200007DF1257D612130E9007DFE4F0A3F090B0
