:020000040000FA
:06000000020107022A695B
:03002B00022EB6EC
:03003B00022EDCB6
:03004300022E6129
:03005300022ADF9F
:03006B00022E87DB
:100083000228BFE5C754F84401F5C77901220000EF
:100093000080FB120086B900030200F1E4792178A5
:1000A30008B800028004F709D8FCE479297802B87B
:1000B30000028004F709D8FCE490028178327915B4
:1000C3008002F0A3D8FCD9FA7AB27B169001377874
:1000D300A279048015E493A3AD82AE838A828B83D5
:1000E300F0A3AA82AB838D828E83D8E9D9E7758288
:1000F300937583D874031201197582917583007403
:100103000012011975D00075813F751881751902A8
:10011300759F00020096C09FF59FE473D09F22D085
:1001230083D082C09FE493C0E0740193C0E0740263
:1001330093F59F22FF0000B4000028002800283018
:1001430075A000A000A000A00000080008E001F0D6
:10015300001000100010001000100010005000509C
:1001630000500010001000D0070000000000000F36
:100173000001000500307507001000010081FF0039
:10018300000000FFFFFFFA06180700073C07FF0205
:10019300020208025000A0000000E80302F49001EC
:1001A3000000DB900218910100000D1702E6900198
:1001B3000000BF020218910100000E1702E890012F
:1001C3000000D5020218910100000F1702EA900106
:1001D3000000D702021891010000101702EC9008EA
:1001E3000000D802021891010000111702EE9001DD
:1001F30000001217FF0100FF2002F490010000DE4F
:1002030090021891010000761702F09000000000A0
:100213000002E49003000006031700EA0DEA0DEA6A
:100223000DEA0DEA0DEA0DEA0DEA0DEA0DEA0DEA13
:100233000DEA0DEA0DC610D810C010020202020228
:1002430002020202010D000000100102F4900100FD
:1002530000E190021891010000B917020C9101000E
:10026300002307021891010000BA17020A91010046
:10027300003190021891010000BB170208910100A0
:10028300000890021891010000BC170206910100BA
:1002930000908F021891010000BD17020491010024
:1002A30000C68F021891010000BE170202910100DF
:1002B300007E8F021891010000BF17020091010018
:1002C30000B48F021891010000C01702FE900100D4
:1002D300001690021891010000C11702FC90010062
:1002E30000C21701E8030577100AFFFFFF00013082
:1002F300750302010600000000000000000000007A
:1003030000000000000000000000000000000000EA
:1003130000FFFF0600800CE803000102030405064A
:100323000708090A0B0C0D0E0F000102030001025E
:10033300030405060708090A0B0C0D0E0F10111212
:1003430013000102030405060708090A0B0C0D0E2E
:100353000F00010203000102030405060708090A4E
:100363000B0C0D0E0F101112130A094343323534CF
:1003730030424C45051250002003020A00020106D8
:100383000302F0FF53696D706C6520424C452050A9
:1003930065726970686572616C581500005E1510AE
:1003A300436861726163746572697374696320344D
:1003B3000010000102000000000000000000000027
:1003C3000000000000005050470010000102000030
:1003D30000000000000000000000000000000050CA
:1003E300434700100100000000000000000000006F
:1003F300000000005043470002F490010000D89031
:100403000218910100001D19021091000000A916A5
:1004130002E490030000AA16023E900100001E1998
:100423000218910100002F190212910000003019E7
:1004330002E490030000AC16023E90010000441950
:100443000218910100004819021491000000491993
:1004530002E490030000AE16023E900100005D1915
:10046300021891010000611902169100000062193F
:1004730002E490030000B016023E900100007219DE
:1004830030313233343536373839414243444546C7
:1004930000286E756C6C20706F696E74657229002C
:1004A30030313233343536373839616263646566E7
:1004B300003F3F3F000000807F0000803F000000BE
:1004C30000F9021550B743BA510000204100E7DBA1
:1004D3002E0000A040120122A2B003120122B5B0E7
:1004E30003120122E6B00312012220B103120122FA
:1004F30079B103120122C0B10312012208B203121F
:10050300012237B20312012266B2031201229DB205
:1005130003120122E4B203120122FDB203120122EB
:1005230052B3031201226BB303120122B9B30312B4
:100533000122F3B303120122D4DC02120122D7DD1C
:100543000212012210DE0212012233DE0212012204
:1005530045DE0212012283DE02120122FFDE0212B5
:100563000122C7DF02120122E9DF0212012280E029
:1005730002120122D2E00212012203E1021201223D
:1005830010E1021201227AE102120122D1E10212E8
:100593000122D4E1021201220DE20212012210E231
:1005A300021201221AE2021201226EE20212012257
:1005B300AFE202120122E2E2021201221FE302125F
:1005C300012221E402120122C5E4021201222EE5D6
:1005D300021201226CE502120122C1A803120122B8
:1005E300E9A80312012216A9031201224EA903123C
:1005F3000122ACA903120122F8A9031201225FAA66
:10060300031201229FAA03120122DCAA0312012270
:100613000AAB03120122B4AB03120122BEAB0312D5
:100623000122CBAB03120122FEAB031201220AAC5F
:100633000312012222AC031201222CAC0312012269
:1006430030FF021201223EFF0212012256FF021264
:1006530001226DFF02120122FBC701120122A5C86C
:1006630001120122B8C90112012234CA0112012266
:1006730052CB011201228ECB0112012229CC01128D
:1006830001220DCD01120122D9CD0112012267CF22
:1006930001120122D8CF0112012292D001120122AC
:1006A30084D101120122C4D10112012278D2011294
:1006B3000122AAD201120122A0D401120122E2D402
:1006C3000112012200D50112012266D50112012275
:1006D30035D601120122F9D60112012218D90112CD
:1006E30001226C7800120122567900120122017A4C
:1006F30000120122527A00120122027B001201220F
:10070300737B00120122587C001201228C7C0012A0
:100713000122857D00120122C27D001201229E7EEC
:1007230000120122DD7E00120122F97E0012012255
:100733009CC80312012220C9031201224BC90312D0
:10074300012265CA03120122BAAC03120122D0AC02
:1007530003120122EEAC03120122FFAD03120122A8
:1007630009AE0312012234AF031201222BB003128C
:10077300012298B003120122EDF9021201221DFB9E
:100783000212012254FB021201229EFB02120122D9
:1007930061FD021201221B9101120122A791011294
:1007A30001220B930112012217930112012252938A
:1007B30001120122C19301120122CA9401120122E2
:1007C300D395011201229A9601120122F797011281
:1007D3000122159801120122329801120122DF9899
:1007E300011201225C990112012284990112012252
:1007F3004E9C01120122539C011201226C9E011294
:100803000122BA9E011201222A9F01120122689F2E
:100813000112012244A00112012204A101120122AA
:1008230050A10112012253A10112012297A1011229
:100833000122DFA1011201221EA20112012240A204
:100843000112012274A201120122D7A20112012274
:100853000080031201220E80031201226180031221
:100863000122808003120122C58003120122098222
:1008730003120122A48203120122E882031201223D
:10088300128303120122818303120122C7830312FD
:1008930001223E8403120122EF8403120122502F0E
:1008A30000120122602F00120122013000120122E6
:1008B3005D30001201221A31001201223632001279
:1008C30001226832001201229732001201224434BD
:1008D30000120122BB36001201222B390012012221
:1008E3001D3A00120122163B001201221D3D001287
:1008F300012211400012012240410012012244430F
:1009030000120122544400120122E3450012012285
:10091300D4460012012222470012012291470012FD
:100923000122B54700120122064800120122A74CFA
:1009330000120122A84D00120122094E00120122C9
:10094300344E00120122FA4E001201226DA003124E
:10095300012277A003120122BCA003120122D0A01E
:100963000312012260A10312012299A103120122A1
:10097300D4A103120122FDA10312012251A20312E9
:10098300012266A20312012288A2031201229DA260
:1009930003120122B1A203120122C6A203120122F1
:1009A30000A3031201222CA30312012275A3031235
:1009B3000122E7A3031201222AA40312012254A451
:1009C300031201227FA403120122CBD003120122BE
:1009D3009CBF021201227FC002120122FAC002123E
:1009E300012235C10212012286C20212012214C35E
:1009F30002120122A6C50212012258C602120122C6
:100A030064C702120122D7C80212012230C902129E
:100A130001221D9C03120122609C03120122E49C0B
:100A230003120122BB9F0312012228C403120122D5
:100A3300DAC403120122D6C50312012215C603121A
:100A430001226FC60312012294CA03120122F7CABC
:100A53000312012294CB03120122C9CB03120122F8
:100A6300F9CB0312012234CC0312012254CC03121A
:100A73000122C089031201224C8A031201220B8B2B
:100A830003120122238C031201223D8E0312012241
:100A930008A9021201222DA902120122FAA90212A7
:100AA3000122CEAA021201223BAB021201227BAB2E
:100AB3000212012217AC021201224BAD02120122D3
:100AC30026AE0212012285AE0212012211AF0212DA
:100AD30001227FAF021201220BB00212012251B098
:100AE30002120122C3B00212012255B102120122E5
:100AF300F6B10212012216B2021201225EB20212F2
:100B03000122A7B202120122C3B202120122E9B2E8
:100B13000212012263B30212012271B302120122F3
:100B230000B40212012269B402120122748E03126C
:100B33000122F98E031201223B8F031201221F901F
:100B4300031201228C9003120122D090031201227E
:100B5300149103120122419103120122699103129C
:100B63000122A19103120122DF91031201220692B5
:100B730003120122809203120122CA92031201225C
:100B830003B601120122ABB701120122D8B9011237
:100B930001222CBA0112012257BA0112012229BBE8
:100BA300011201226DBB01120122B1BB011201220C
:100BB300C4BB0112012205BC0112012232BC011285
:100BC300012280BC01120122C1BC01120122EFBC2F
:100BD3000112012242BD01120122D9BD01120122DB
:100BE300C3C001120122D9C20112012217C301128B
:100BF3000122AAC401120122EFC40112012261C51C
:100C030001120122B2C501120122ECC50112012217
:100C1300F1C50112012291C601120122C7C70112B7
:100C23000122D8C701120122D9C90212012258CACE
:100C33000212012251D00212012257D102120122C3
:100C4300CAD20212012261D30212012200640012ED
:100C53000122496400120122766400120122A86471
:100C630000120122B56400120122C16400120122A4
:100C7300D36400120122AE65001201220C66001239
:100C83000122416600120122786700120122C56722
:100C930000120122E96700120122596800120122A1
:100CA3001A6900120122DD69001201224B6A001247
:100CB3000122086B001201221B6B00120122996BA7
:100CC300001201222C6C00120122536C001201222B
:100CD300BB6C001201220C6D00120122616D001227
:100CE30001220A6E00120122B56E00120122616F09
:100CF30000120122D36F0012012227700012012279
:100D0300877000120122B770001201224D71001288
:100D13000122727200120122BA7200120122D772EA
:100D230000120122F6720012012225730012012221
:100D33003A7400120122C07400120122E5740012F9
:100D43000122FA74001201226D7500120122AE75A0
:100D530000120122CA76001201226B7700120122CF
:100D6300B977001201222378001201223C78001285
:100D730001228BD302120122DFD302120122EBD311
:100D830002120122B5D402120122E2D4021201227C
:100D930010D5021201227CD502120122B2D5021211
:100DA3000122EBD50212012203D60212012258D6E8
:100DB3000212012271D602120122B6D602120122B8
:100DC300C9D602120122E3D602120122F9D6021277
:100DD300012217D80212012242D9021201222CDA6F
:100DE300021201221BDB02120122F47F00120122F4
:100DF300C39B02120122F29B02120122B89F02122C
:100E030001220FA102120122D5A10212012254A331
:100E1300021201221EA40212012270A40212012254
:100E23008AA402120122BCA402120122C7A4021244
:100E3300012210A50212012219A502120122C5A541
:100E4300021201229EA602120122E5A6021201222B
:100E53004DA7021201228FA702120122BDA702127F
:100E63000122F8A702120122AFA3011201222DA72A
:100E73000112012233A70112012288AD01120122BE
:100E8300D2B101120122B8B501120122F7B7031240
:100E930001226DB80312012283B80312012213B990
:100EA3000312012250B9031201228AB9031201224B
:100EB300C4B90312012237BA0312012278BA03120A
:100EC300012281BA031201228DBA03120122ACBAA4
:100ED30003120122D6BA03120122EBBA0312012232
:100EE3002EBB031201220185031201221485031272
:100EF30001222E85031201225B8503120122A185A3
:100F030003120122D4850312012212860312012245
:100F13007786031201228C8603120122978603121D
:100F23000122A48603120122BB8603120122C98671
:100F330003120122D48603120122E0860312012246
:100F4300F38603120122FE86031201222187031274
:100F53000122C58703120122D58703120122EF87DD
:100F6300031201220C880312012227880312012293
:100F73004C88031201225788031201226C88031242
:100F83000122808803120122E18803120122E788EB
:100F930003120122ED8803120122F38803120122B6
:100FA3000B89031201223E8903120122408E021291
:100FB3000122D78E021201226F8F021201225F904B
:100FC30002120122969002120122A990021201221A
:100FD300179102120122B29202120122D992021235
:100FE30001227B9302120122B09302120122C193C8
:100FF300021201223A94021201225B94021201228C
:10100300739402120122CB9502120122D497021289
:101013000122249A02120122279B02120122769BAB
:101023000212012255E90112012252EA01120122A0
:101033003DEB0112012247EB0112012269EB011280
:10104300012275EB01120122C7EC01120122F6EC19
:101053000112012226EE0112012268EE0112012281
:1010630094EF011201226AF001120122BCF0011275
:1010730001221BF10112012252F1011201228DF111
:101083000112012228F50112012241F50112012268
:10109300C3F501120122D1F50112012226F6011234
:1010A300012234F601120122A1F60112012213F7E3
:1010B3000112012259F7011201228CB402120122FA
:1010C300AEB40212012298B6021201223DBA0212F4
:1010D300012280BB021201225ABC0212012262CCFD
:1010E3000312012287CC03120122F8CC031201223E
:1010F30092E5021201229BE502120122A4E50212EB
:101103000122D5E602120122F4E8021201222AE9A1
:101113000212012264E9021201229AE90212012257
:10112300D4E90212012208EA0212012234EA02126D
:1011330001227DEA02120122B7EA02120122FFEA2A
:101143000212012255EB021201228AEB0212012242
:10115300E5EB021201221FEC0212012270EC0212D3
:101163000122A6EC02120122E0EC021201220EED92
:101173000212012231ED0212012289D5031201224A
:10118300B5D50312012210D6031201221AD6031277
:1011930001222AD60312012296BE03120122BDBEEA
:1011A30003120122E7BE03120122E6D80312012231
:1011B300664F00120122CA5100120122815300120C
:1011C3000122DE5300120122E0540012012268556D
:1011D30000120122EF5500120122145600120122BF
:1011E3000959001201227F59001201226E5A00127E
:1011F3000122A85A00120122E85A00120122885C37
:1012030000120122DD5C001201222A5D001201227C
:10121300985D00120122BE5D00120122D85D00120A
:101223000122EE5E00120122FE5E001201228460A2
:1012330000120122A46000120122DA6000120122CE
:101243005E62001201229D6200120122DB63001222
:1012530001229C9703120122F497031201223C9965
:1012630003120122AB99031201225A9A031201229B
:10127300799A03120122CD9A031201220B9B0312C6
:101283000122CAD403120122DBD4031201227ED528
:101293000312012230D9031201226FD90312012252
:1012A300C3D9031201225A7F001201226A7F00125E
:1012B3000122827F00120122EA7F00120122DFD184
:1012C3000312012263D203120122C9D203120122A3
:1012D300B6CF03120122DDCF0312012233D0031252
:1012E300012285D0031201225BB40312012272B4DE
:1012F30003120122EBB403120122C0B5031201222F
:1013030092B7031201225CBB03120122EEBB03124C
:1013130001226CBC03120122F3BC0312012285BD1E
:1013230003120122DCBD03120122E6BD03120122D6
:10133300F5BD031201220BBE031201221EBE0312CE
:1013430001227FBE0312012293BE0312012234D66F
:10135300031201229DD603120122A8D603120122F1
:10136300B8D603120122D9D30312012202D40312E5
:1013730001222BD40312012243D40312012285D468
:10138300031201227FF40212012289F402120122C4
:10139300C9F40212012212F5021201224CF50212C3
:1013A3000122A2F502120122C1F502120122CAF59D
:1013B300021201221BF60212012244F6021201223A
:1013C30059F602120122C9F60212012257F702123C
:1013D30001229BF702120122C3F70212012242F8F3
:1013E3000212012285F802120122C2F8021201221E
:1013F300D4F802120122F3F802120122FCF80212BD
:101403000122C1F90212012218CE0312012269CE70
:1014130003120122F2CE0312012258CF031201223A
:1014230064C1031201228EC10312012288C2031276
:101433000122B7C2031201223DC303120122E2D2E9
:10144300031201229AC603120122D0C603120122FB
:1014530009C70312012262C803120122BED7031275
:101463000122D4D703120122DED70312012234D87A
:1014730003120122E2F7011201229FF80112012255
:10148300DAF80112012202F90112012264F90112B0
:101493000122B0F9011201221BFA0112012297FA6B
:1014A3000112012293FB011201221AFD01120122F2
:1014B3009DFD0112012201FE0112012218FE0112FB
:1014C30001220EFF011201225AFF01120122A7A4D9
:1014D30003120122BCA4031201226FA503120122ED
:1014E300AFA503120122C8A503120122FBA5031213
:1014F300012248A6031201227CA603120122BEA6E2
:1015030003120122B4A80312012200800212012255
:10151300B78302120122498502120122A085021219
:101523000122BF85021201223D8602120122CF87CA
:1015330002120122B38802120122C48C0212012278
:10154300988D0212012246D703120122BFED021227
:101553000122A2EF0212012265F30212012231F4E9
:101563000212012234F4021201220A93031201220D
:10157300CF9303120122EC93031201225995031214
:1015830001224A960312012225D9011201223EDECD
:1015930001120122B8FF0112012279D9031201229B
:1015A300A5D903120122C3D603120122EDD603E00B
:1015B30066701008A3E066700A08A3E0667004086A
:1015C300A3E06622C008C3E096F50808A3E09642AC
:1015D3000808A3E096420808A3E0964208A2D26551
:1015E300D033E5087001D3D00822C3E7960809E792
:1015F300960809E7960809E79622C3E09608A3E050
:101603009608A3E09608A3E09622C008C3E096F5E7
:101613000808A3E096420808A3E096420808A3E05E
:101623009645087001D3D00822080808E630E71170
:10163300121EE6121644080808C64480C618181875
:1016430022181818E9799EC608CAC608CBC608CC62
:10165300C6C370207996CACBCC7019798ECBCC7067
:10166300137986CC700EF9802ACA33CACB33CBCC1C
:1016730033CC331930E7F2CCCBCA3350147004EABD
:1016830030E00DE4CA3ACACB3BCBCC3CCC50020988
:10169300C3E913C6CC182313C6CB18C6CA18C6F998
:1016A300221216E420F01430E72B74FFFCFBFA74CB
:1016B3007F8022E4FCFBFA7480801AB48008BC00AB
:1016C300F2BB00EF800F50EBF9E4C39AFAE49BFB03
:1016D300E49CFCE499C6CC18C6CB18C6CA18C6F954
:1016E30022E4C9C608CAC608CBC6D3330308CCC68E
:1016F3003392F0C3947F402E94184019C9B907045C
:10170300CACBCC225025C309CA33CACB33CBCC3383
:10171300CC33D9F422F4600DC9CCC313CB13CBCA99
:1017230013CAD9F6CC22E4FCFBFA2214FCFBFA22FE
:10173300E62618461846184622E727194719471977
:101743004722181818E60846087009E626087005A7
:10175300E633F4220822191919E70947097009E742
:1017630027097005E733F4220922E6084608C31364
:101773004608336002E633F422E7094709C31347F7
:1017830009336002E733F42212176D602512177CC8
:101793006020121733700302173C080808E76670CD
:1017A300101819E766700A1819E76670041819E724
:1017B3006622F42212176D601C12177C6017121731
:1017C30033700712173C7001D322C0D012173C703C
:1017D30006D0D0B322C32233D0D0501430E0F6C3A6
:1017E300E7960809E7960809E7960809E796B322FA
:1017F30020E0D5E6970809E6970809E6970809E681
:1018030097B32212176D601B12177C6016121733E1
:10181300700712173C600CB322C0D012173C70053E
:10182300D0D022C32233D0D0501330E0EBC3E7969D
:101833000809E7960809E7960809E7962220E0E4F5
:10184300E6970809E6970809E6970809E69722004C
:1018530012176D604F12177C6012E7548066F61200
:101863001745701112173C703B090909F4F618F675
:1018730018F618F6221217597015121733080808AC
:1018830060EAE6447FF618768018E4F618F622122A
:101893001733601612173C7012E4F608F608F608C0
:1018A300E65480F609090918181822EAC0E0EBC0CB
:1018B300E0ECC0E0EDC0E0E687F0A4FBACF008E6A6
:1018C30087F0A42CFCE435F0FA1809E687F0A42C81
:1018D3004B60027401CA35F0FCE433FB09E687F080
:1018E300D2F7A42CCB35F0FC1908E687F0A42BCC57
:1018F30035F0FBE433FD0819E687F0D2E7A42C4A60
:10190300CB35F0CD3400FC09E687F0D2E7A42DCC2B
:1019130035F0FDE433FA0918E687F0D2F7A42CCDAD
:1019230035F0CA3400FC08E687F0D2E7D2F7A42AE0
:10193300CC35F07A7E20E70B0ACB33CBCD33CDCC3D
:1019430033CC33CB3350147004ED30E00ED2F1E4DA
:10195300CD3DCDCC3CCC3B5005DA05C2F1EB547FF9
:10196300C63308E63392F0FBE73309E733C39A50F3
:101973002D2B70190C0D4C4D70151806E608C3334A
:10198300700D20F10AA2F013F6E418800B4024E452
:10199300F630F002768018F618F618F68024D33B5A
:1019A30014501074FFA2F013F6187680E418F6189A
:1019B300F6800FA2F013F618E63303F618ECF618C8
:1019C300EDF6D0E0FDD0E0FCD0E0FBD0E0FA22124F
:1019D300177C604612176D603DE9687008F618F6CB
:1019E30018F618F622748067F7121A0609090974A3
:1019F3008067F72212176D601D12177C7005191985
:101A030019801A121745701F121759C37003E6671E
:101A13003319191940071818182208080874FFF613
:101A230018F618F618F622121759601712173C7099
:101A33002192F01217337019501720F01408080878
:101A4300090909E7F61819E7F61819E7F61819E767
:101A5300F62212173360E6E869701F0808E624804F
:101A6300F608E436F618547FB47F0CE6548060071A
:101A7300F6E418F618F622181822E9C6CC08C6CDE3
:101A830008C6CE08C6CFC0E0E8C0E0EAC0E0EBC0BD
:101A9300E009E9F809E7FA09E7FBE6F918E6F8C30C
:101AA300EC98ED99EE9AEBC2E7F5F0EFC2E795F00B
:101AB300500E600CEBCFFBEACEFAE9CDF9E8CCF897
:101AC300EAA2E7D2E7FAEB33FB13F5F0EEA2E7D293
:101AD300E7FEEF33FFC5F013A2E730E601B313C50A
:101AE300F0C3C0E0C0F07F00C39BFB605E9418604E
:101AF3000F401D14601AD0E023F9D0E0F8021BD880
:101B03008AF0E9486003D2F0E4AFF0FAF9F8803BD9
:101B1300EB30E40D89F0EA6003D2F0E4AFF0F9CAE8
:101B2300F8EB30E30D88F0EF6002D2F0AFF0E4CAD7
:101B3300C9F8EB54076014FBC3EA13FAE913F9E895
:101B430013F8EF135002D2E0FFDBEDD0E0C0E0303A
:101B5300E739C3E49FFFF5F0EC98FC42F0ED99FD03
:101B630042F0EE9AFE42F0D0E0F9D0E0F8E5F06002
:101B73007AE923F9EE20E742D8028067C3EF33FF07
:101B8300EC33FCED33FDEE33FE80EAEC28FCED395B
:101B9300FDEE3AFED0E023F9D0E0F84002801BC30B
:101BA300EE13FEED13FDEC13FCEF135002D2E0FF36
:101BB30008B800067F7F74FF802EEF3350178CF038
:101BC30020F00260100CBC000C0DBD00080EBE001E
:101BD3000408E860DFE933E813FFEE2313FE4F4DFB
:101BE3004C8008E95480FFE4FEFDFCEE33EF33F450
:101BF3007004FCFD7E80D0E0FBD0E0FAD0E0F8D0AA
:101C0300E0CFC618CEC618CDC618CCC6F922121717
:101C13006D70041818182212177C700D74FFF618D3
:101C230019F61819F61819F622E7548066F61217F2
:101C330033700F12173C70F014F608F608F608F626
:101C430080D112173C700CF608F608768008E6443B
:101C53007F80EC12175C700C12174860BFE654804B
:101C6300F6E480BB121748700519191980A5E869B5
:101C7300700C763F18768018F618F6E8F922E6CD50
:101C8300C0E018ECC0E0E633CD33CDD313F6E7194B
:101C9300FCE7191933CC33C3947F400ECD9D5024F8
:101CA30008E65480F6E418F6800FF4043D1450144B
:101CB30008E6447FF6187680E418F618F6D0E0FCC0
:101CC300D0E0FD22CCD313CCFD18E4C6CBC0E01882
:101CD300E4C6CAC0E00808ED08C633E613F618E404
:101CE30033C675F003C3CA97CA09CB97CB199C4077
:101CF300047D08802EBD0003021DBA16B6FF05063B
:101D030006081618C3CA33CACB33CB33CA27CA094A
:101D1300CB37CB193CC37D08803E187D0820E75C98
:101D2300C633C6CA33CACB33CB33DDF1D5F0EB3080
:101D3300E77BCA97CA09CB974ACB199C406F4B7074
:101D430025E620E0218066187D08C3CA97CA09CB1F
:101D530097CB199CD3C633C6CA33CACB33CB3350C4
:101D6300C9DDE7D5F0E1D3E4C636C608C636C608F2
:101D7300C636C608C636C61818188031C3CA97CAED
:101D830009CB97CB199CB34097C633C6CA33CACB8A
:101D930033CB33DD34D5F02EC6A2E0C640C8CA2704
:101DA300CA09CB37194A70BECB3CB480B90808E6E0
:101DB3003308E633601F181818D0E0FAD0E0FBD0E0
:101DC300E0FCD0E0FD22187D08CA27CA09CB37CB37
:101DD300193CD3808013F618E4B67F11F618B6FFCA
:101DE3000EF618C60470D20808768080CAF618F674
:101DF30018F680C5080808EAC0E0EBC0E086F0E703
:101E0300A4FA180986F0E7A42AFA180986F0E7A4C9
:101E13002AFA180986F0E7A42AFA1986F0E7A4FB40
:101E2300E5F02AFA190886F0E7A42BFBE5F03AFA65
:101E3300190886F0E7A42BFBE5F03AFA181809868F
:101E4300F0E7A4C5F02BFBE43AFA1908E7C5F0C69E
:101E5300A426F6E5F03BFBE43AFA1886F0E7A4F68D
:101E6300E5F00826F6E43B08F6E43A08F6D0E0FB92
:101E7300D0E0FA22E4CFC0E0E4CEC0E0E4CDC0E09D
:101E8300E4CCC0E075F020E626F608E633F608E673
:101E930033F608E633F6181818EC33FCED33FDEE91
:101EA30033FEEF33FFC3EC9709ED9709EE9709EF84
:101EB30097191919400FFFEC97FC09ED97FD09EEEF
:101EC30097FE191906D5F0BFECF709EDF709EEF700
:101ED30009EFF7191919D0E0FCD0E0FDD0E0FED0EE
:101EE300E0FF22181818E4C396F608E496F608E40F
:101EF30096F608E496F6226016080808C6C313C6C9
:101F030018C613C618C613C618C613C6D5E0EA22E8
:101F13007009080808226016181818C6C333C608C3
:101F2300C633C608C633C608C633C6D5E0EA22E6BA
:101F330027F60809E637F60809E637F60809E6370B
:101F4300F622E026F608A3E036F608A3E036F60804
:101F5300A3E036F622E026F008A3E036F008A3E07B
:101F630036F008A3E036F022C3E697F60809E697B1
:101F7300F60809E697F60809E697F622C3E096F015
:101F830008A3E096F008A3E096F008A3E096F022F9
:101F9300E056F608A3E056F608A3E056F608A3E0D9
:101FA30056F622E056F008A3E056F008A3E056F0F8
:101FB30008A3E056F022E0F608A3E0F608A3E0F653
:101FC30008A3E0F622E6F008A3E6F008A3E6F0088B
:101FD300A3E6F022E0FAA3E0FBA3E0FCA3E0FD22EA
:101FE300E0F8A3E0F9A3E0FAA3E0FB22E8F0A3E919
:101FF300F0A3EAF0A3EBF022CAC0E0E6F0A308DA0C
:10200300FAD0E0FA22CAC0E0E0A3C582CCC582C5FB
:1020130083CDC583F0A3C582CCC582C583CDC583DB
:10202300DAE6D0E0CA22C3E498F8E499F912206A08
:102033008026C3E49AFAE49BFBE920E7E912206ACD
:10204300E498F8E499F922C3E498F8E499F91220A2
:102053006AE498F8E499F9C3E49AFAE49BFB22EB67
:1020630020E7CFE920E7E0B90010BB0008E88AF0D9
:1020730084F8AAF022E4FBC8FA22EB70227B10C892
:1020830033C8C933C9335007C39AC3DBF280069AF6
:1020930050012ADBEAC833F4C8C933F4C9FA2275FC
:1020A300F008E4C833C8C933C933C99AC99B50047B
:1020B300C92AC93BD5F0ECFBC833F4C8E4C9FA22FA
:1020C300600D08C6A2E713C618C613C6D5E0F322EF
:1020D300600C08C6C313C618C613C6D5E0F4227035
:1020E3000422600D18C6C333C608C633C6D5E0F450
:1020F3001822251810AF08F518400C15198008F59B
:102103001840021519D2AF2200C0D0251810AF080D
:10211300F518500C05198008F51850020519D2AFAF
:10212300D0D0222518F58210AF08F518400C1519E8
:102133008008F51840021519D2AF85198322251896
:10214300F582E43519F583222518F8E43519F922C7
:102153002518FAE43519FB222518FCE43519FD226C
:10216300E4732518C582C0E0E51934FFC583C0E0D8
:10217300E518C3958224F810AF0885831985821862
:102183008008858319858218D2AFCEF0A3E520F0AD
:10219300A37808E608F0A3DEFAEFF0A3E58124FABA
:1021A300F8E608F0A3E608F0A3E608F0A30808E6BB
:1021B30008F0A3E608F0A315811581D0E0FED0E076
:1021C300F8158115811581E8C0E0EEC0E0222518DD
:1021D300C582C0E0E51934FFC583C0E0E518C395A7
:1021E3008224F910AF0885831985821880088583B6
:1021F30019858218D2AFCEF0A3E520F0A37808E6C4
:1022030008F0A3DEFAEFF0A3E58124FBF8E608F07B
:10221300A3E608F0A30808E608F0A3E608F0A31570
:10222300811581D0E0FED0E0F815811581E8C0E08A
:10223300EEC0E022851983851882E0A3FEE0A3F5B2
:10224300207808E0A3F608DFFAE0A3FFE0A3C0E0EC
:10225300E0A3C0E0E0A3C0E0E0A3C0E0E0A3C0E0EF
:1022630010AF0885821885831980088582188583B5
:1022730019D2AFD083D08202011F851983851882BA
:10228300E0A3FEE0A3F5207808E0A3F608DFFAE078
:10229300A3FFE0A3C0E0E0A3C0E0E0A3C0E0E0A3AD
:1022A300C0E010AF088582188583198008858218DD
:1022B300858319D2AFD083D08222C0D02518C5829E
:1022C300C0E0E51934FFC583C0E0E518C395822457
:1022D300F310AF08858319858218800885831985D3
:1022E3008218D2AFC8F0A3E9F0A3EAF0A3EBF0A3FE
:1022F3007908E709F0A3D8FAECF0A3EDF0A3EEF028
:10230300A3EFF0A3D0E0F0A3D0E0F0A3D0E0F0A3DC
:10231300E520F0A3E5F0F0A322851983851882E078
:10232300C0E0A3E0F9A3E0FAA3E0FBA37808E0F69A
:1023330008A3DFFAE0FCA3E0FDA3E0FEA3E0FFA314
:10234300E0C0E0A3E0C0E0A3E0F5D0A3E0F520A364
:10235300E0A3F5F010AF08858319858218800885FE
:102363008319858218D2AFD082D083D0E0F8D0E031
:102373003274048006740280027401C0E0F4041213
:102383002126D0E0121FFB22740480047402800013
:10239300CCC0E0EDC0E0E518C39CCCAD1950011DE5
:1023A30010AF068C188D1980068C188D19D2AF12B8
:1023B3002008D0E0FDD0E0FC22D083D082E9C0E049
:1023C300E493A3C386F0C5F095F0F908E493A386DC
:1023D300F0C5F095F0700BE493A3C3994005E904AD
:1023E3008002A3E475F002A42582F582E5F035832B
:1023F300F583D0E0F9E493A3C0E0E493C0E022D0F6
:1024030083D082ECC0E0EDC0E0E493A3FCE493A3AB
:10241300FDED4C600D12244EEC24FFFCED34FFFD6A
:1024230080EFE493A3FCE493A3FDED4C600D122431
:102433008DEC24FFFCED34FFFD80EFD0E0FDD0E018
:10244300FCE493A3C0E0E493C0E022C0E0C3E493C0
:1024530096087401939618400FE493667008087405
:102463000193661870007019A3A3C3E493960874CC
:1024730001939618A3A3400DD0E0D0E0D0E002244E
:102483003EA3A3A3A3A3A3D0E022C0E0C0F088F09F
:10249300E4936670080874019366187000A8F0A3AB
:1024A300A3700BD0F0D0E0D0E0D0E002243EA3A391
:1024B300D0F0D0E02274F61221D1EAFEEBFF8C08B3
:1024C3008D09EE2434F8E43FF9E8FCE9FD1225EB2D
:1024D300E0FAEE2437F582E43FF583E0F88508F06F
:1024E300A4C885F00A8509F0A4250AF9EA28F8E4C6
:1024F30039F97A257B0012206AEA8C828D83F0FAFF
:10250300131313541FF8EE28F8E43FF9E8245DF59C
:1025130082E439F583E0C0E074075AF8D0E0B800EC
:10252300028004C313D8FCA2E05003EA8020EE2407
:1025330036F582E43FF583E0F5F0EA84A8F0EE286F
:10254300F8E43FF9E82438F582E439F583E0F97FCC
:102553000302227D74F51221D1EAFEEBFFEE24344F
:10256300F582E43FF583E0C0E01225EBD0E0F08E86
:10257300828F83A3A3A3A3A3E0FAA3E0FB8E828F9E
:1025830083A3A3A3A3A3A3A3E0FCA3E0FDECC39AAB
:10259300F50AED9BF50BEE247FF508E43FF509857D
:1025A3000882F583E06401702AEE2480F582E43F1B
:1025B300F58312238F1225F5740212210BE96013A0
:1025C3007CB07D04EEFAEFFB120D068508828509C7
:1025D30083E4F0AC0AAD0BEEFAEFFB1224B8E9F991
:1025E300122E537F0402227DEE2435F582E43FF55B
:1025F3008322C082C083851882851983E0F8A3E013
:10260300F9C3EA9CEB9D5010C3EC98ED99401BC3B2
:10261300EA98EB995014800EC3EA98EB994007C3EC
:10262300EC98ED994004790180027900D083D0823F
:1026330022EAC39CFAEB9DFB2274ED1221D1900395
:1026430076E064086005E06407702C9061C8E06080
:10265300269003A4E0F874FF68601CE875F00AA4F0
:10266300C8AAF02AF974A628FE740339FF8E828F54
:1026730083A3A3A3E0700579000227D5EE2468F5B0
:102683000EE43FF50F906060E0850E82850F83F0C6
:10269300751020751105750800750900E5D914F545
:1026A3000AE5D95403F50B601FEE2482F50CE43FD1
:1026B300F50D7403650B6059E50A6017EE2467F5A1
:1026C30082E43FF583E0700B793DEEFAEFFB120DE8
:1026D3003680A490051BE064016023850C82850D80
:1026E30083E060047A0480027A00E50AC39AFA95CB
:1026F300E0FB120B928A088B09EA45097006120F58
:102703008E02267A850C82850D83E070048A108BF5
:10271300117A008014E5D9C0E0EAF8E51028F582C3
:10272300E43511F583D0E0F00AEAC3950A40E68563
:102733000C82850D83E0602874FC250AF50A781065
:10274300122378AC0AA90BEEFAEFFB120DE4740224
:1027530012210BE9700AAA08AB0912140E0226CB48
:102763007403650B6054850A0C750D00780C1223F5
:1027730078AC10AD11AA08AB09120DA8740212218E
:102783000B850E82850F83E0F87480687005750CE5
:102793007F8002880CE50CF50D780D12237C780BF5
:1027A30012237CA90AAC08AD099003A4E0FA7B00CC
:1027B3001209CA740212210B8013900376E0640895
:1027C300600BAC10AD11EEFAEFFB120E7A120F9AFA
:1027D30079017F0C02227D74F31221D174FC122043
:1027E300F5EAFEEBFF8909A2AFE433F508C2AFEEC9
:1027F3002463F50AE43FF50B8010AA0AAB0B120D14
:102803006012140E9004B7E004F0850A82850B83EE
:10281300E0F8A3E0F9E849602DE82402FAE439FB83
:10282300EA2402F50CE43BF50D780C1223788A8236
:102833008B83E0FCA3E0F9EEFAEFFB120D54740274
:1028430012210BE960B49004B7E0604D9004B8E046
:10285300F89004B7E0C398500C74026509703A907D
:1028630004B9E060348E828F83A3A3A3A3E0851809
:10287300828519831228AC7402122141E81228AC14
:102883009004B6E028F0740212215BAA18AB197900
:1028930001120A1E9004B7E4F0E508A2E092AF74B7
:1028A3000412210B7F0602227DF0A3E4F09004B70B
:1028B300E0F82200008521878522C622C0E074EB60
:1028C3001222BDA2AFE433F508C2AF759B0090613D
:1028D30082E0A2E05030E591A2E0502A7591FE74A7
:1028E3000165217021122A52120ED4122A4012239A
:1028F3008B122BFD740412210BE96401700579011D
:10290300120F2212263C906182E0A2E5505DE59110
:10291300A2E550577591DF900376E064076005E008
:102923006408702F122A5274016521703E120ED46E
:10293300122A4012238B122BFD740412210BE9641B
:102943000170057901120F227901EEFAEFFB1227CC
:10295300DA8018E0640D7013900398E004F06428A3
:102963007002E4F07A00E0F9120FA0906182E0A215
:10297300E64003022A15E591A2E64003022A1575F3
:1029830091BF900376E064057008120EBC120EC866
:102993008003120EC2752100120F2EE9900377F007
:1029A3007900120F22120C707A017B00900375E0FC
:1029B300F91213DE907803E06442705690051FE02D
:1029C30014F0704EC2AF1229CC00782AD0E0F6186A
:1029D300D0E0F6E59F5407F87005750DFF80037589
:1029E3000D7FC4C0E07829E6F50A08E6550DF50B1E
:1029F300740B780A1220D3D0E0250AF8906270E0B5
:102A0300A2E740F8E8C333906272F0906270E0D2BC
:102A1300E0F0906181E0A2E35009E5E9A2E350030D
:102A230075E9F7A3E0A2E75009E591A2E750037522
:102A3300917FE508A2E092AF7F0802231C8E828F6C
:102A430083E0F8A3E0C82416F582E438F5832290E6
:102A530003A4E0F875F00AA4C8AAF02AF974A6281A
:102A6300FE740339FF22C0E0C0D0C082C0839061EE
:102A730083E0A2E05009E5BFA2E0500375BFFEE08A
:102A8300A2E15009E5BFA2E1500375BFFDE0A2E258
:102A93005009E5BFA2E2500375BFFBE0A2E3500972
:102AA300E5BFA2E3500375BFF7E0A2E45009E5BF19
:102AB300A2E4500375BFEFE0A2E55009E5BFA2E52C
:102AC300500375BFDFE0A2E65009E5BFA2E650035D
:102AD30075BFBFD083D082D0D0D0E032C0E074F2D3
:102AE3001222BDE5A7A2E4500FE5A1A2E4500953C9
:102AF300A7EF75A1EF122B33E5A7A2E5500CE5A1D3
:102B0300A2E5500653A7DF75A1DFE5A7A2E15009AF
:102B1300E5A1A2E1500375A1FDE5A7A2E2500CE5F2
:102B2300A1A2E2500653A7FB75A1FB7F0102231C60
:102B330074F81221D1752101900376E064067007C1
:102B43007A007B00120EA4A2AFE433FED2AF90034F
:102B53007CE0640170187A207B00900375E0F91221
:102B630014F27A207B00900375E0F91213E490616C
:102B730082E0D2E6F090051CE0602185C622801633
:102B830090037BE064017008E5C654F84405F5C67C
:102B930053BEFC1228B87401652160E4EEA2E092F2
:102BA300AF7F0102227D0000008E238F24858228BF
:102BB300858327851882851983E0CEA3E0CF8528F6
:102BC30082852783EBC9EAC8EDCBECCA75F010C345
:102BD300E833C8E933C9EA33CAEB33CBC3EA9EF51A
:102BE30026EB9FF525B35004AB25AA26EC33CCED99
:102BF30033CDD5F0DAAE23AF242274F11221D18A7A
:102C0300088B098C0A8D0B9090A07808121F93747F
:102C13000F122141780C121FB99090A0780C121F4B
:102C2300937808790C1215ED90906C501078087910
:102C33000C121F6B780812160D4014800E780C7955
:102C430008121F6B780C12160D500479018002795B
:102C5300007F0802227D74ED1221D18A088B098C32
:102C63000A8D0B9090A07808121F937413122141C0
:102C7300780C121FB99090A0780C121F93780C79DE
:102C8300081215ED40117808790C121F6BAA08ABD6
:102C930009AC0AAD0B802275100075110075120086
:102CA3007513017810790C121F6B78107908121FB5
:102CB30032AA10AB11AC12AD137F0C02227D90909F
:102CC300A07808121FB98A828B837808121FA67F07
:102CD3000402227D74F51221D18C828D837808122F
:102CE3001FB98A828B837808121F7F122D2BC3E0B2
:102CF30098F0A3E099122D1D401E9090A47808121D
:102D03001FB98A828B837808121F588E828F83E0C3
:102D13002420F0A3E0344EF080A4F08E828F83C38E
:102D2300E09420A3E0944E22EA2404F8E43BF9E87B
:102D3300FEE9FF8C828D83A3A3A3A3E0F8A3E0F9AC
:102D43008E828F832274F51221D1E9FE9004D2E0A2
:102D5300FAA3E0FBEE29F8E433F974F828F582745A
:102D63008F39F583E02AF508A3E03BF509780812CB
:102D730023789090D0121FD7122BAC740212210B20
:102D83008A088B098C0A8D0B74107808121EFAAA14
:102D930008AB097F0402227D74F11221D18A0C8BC6
:102DA3000D8C0E8D0F741112214112238F74111289
:102DB3002141E02401F508A3E03400F509E4F50A14
:102DC300F50B780C7908121DF79090707808121F94
:102DD300B9780C7908121DF7AA0CAB0DAC0EAD0F28
:102DE300122BAC740212210B8B09EA450960047A99
:102DF3000180027A00EC2AFCE43DFD7413122141A8
:102E0300E0F8A3E0F9E8FEE9FFECF8EDF97A717B6D
:102E13000212206A88088909E4F50AF50B8E828F6D
:102E2300837808121FC8ECF8EDF97A717B0212203F
:102E33006A8A088B09740578081220E28E828F83D0
:102E4300A3A3A3A3E508F0A3E509F07F0802227D6D
:102E5300C082C083E9906000F0D083D08222C0E0BA
:102E630074F21222BDA2AFE433FED2AFC2C0E5D1E9
:102E7300A2E4500675D10F121348EEA2E092AF7F81
:102E83000102231CC0E074F21222BDA2AFE433FEA0
:102E9300D2AFE589A2E04006E589A2E15003121210
:102EA300E2758900758900C2C5EEA2E092AF7F0189
:102EB30002231CC0E0C0D0E8C0E0E9C0E0A9A8D26A
:102EC300AFC2C7E9A2E7E433F8E9A2E792AFD0E0E3
:102ED300F9D0E0F8D0D0D0E032C0E0C0D0E8C0E014
:102EE300E9C0E0EAC0E0C082C083A2AFE433FAD213
:102EF300AF9009BDE0F8A3E0687008539AFBA37490
:102F0300018022C2E99009BDE0F8740128F0743D04
:102F130028F582E43409F583E0F5C19009BDE0C3E7
:102F230094804002E4F0EAA2E092AFD083D082D052
:102F3300E0FAD0E0F9D0E0F8D0D0D0E032C2AF026E
:032F430000002269
:102F4800FFFFFFFFFFFFFFFFC082C083E9901775F7
:102F5800F0D083D08202011F74F6122165E9900235
:102F6800E8F0900348E0F508750900740278081243
:102F780020E2AA08AB091214509002E91239139002
:102F880002E9123D00606F900348E075F003A4FA6F
:102F9800ABF0121450900306123913900306123D39
:102FA80000700B9002E9123CD1121456804890032D
:102FB80006124C657AFF7BFF1212527A0080198A3A
:102FC80008750900740278081220E212470D74FF90
:102FD800123113E4F0A3F00A900348E0F8EAC3982A
:102FE80040DD79051208B69002E8E0F91207A27AE6
:102FF800407B09120B320247B074F41221658A082B
:103008008B09EB548060479002E8E0F91213C68AF6
:103018000A8B0BAE0AAF0BEE4F602A8E828F83E0CD
:1030280064B0701A1208C8E960148E828F83A3A353
:10303800A3A3E0F9EE2405FAE43FFB120898EEFAA0
:10304800EFFB1213B4AA08E5096480FB80047A0038
:103058007B0002326374F212216574FB1220F5EAD8
:10306800FEEBFFEE4F60457403122141EEF0A3EF33
:10307800F0851882851983ECF0A3EDF07402122113
:1030880041E9F0AA18AB1912079CE9F508707574A4
:1030980013122141E0F50AA3E0F50BE50A450B60A0
:1030A800638E828F8312369CEE4F700575080280FE
:1030B800537A067B001214508A0C8B0DA80CA90DAC
:1030C800E8497005750813803B88828983E41231CA
:1030D80013EEF0A3EF12322FE50AF0A3E50BF09000
:1030E80002EC1232289002EC6017E0FCA3E08003A7
:1030F800EAFCEBFD8C828D8312322870F38C828D72
:1031080083124328A9087405024EE5F0A3124C4720
:10311800A32274F21221658908890C750D007403C5
:10312800780C1220E2850C0A850D0B9002EBF090CA
:1031380002E9124133123226602E121456790080A9
:103148001D890C750D007402780C1220E29002E9BA
:103158001245CC8882F583A3A3E4F0A3F009900379
:1031680048E0F8E9C39840D9900348E0FA850AF0A6
:10317800A4CAA8F0850BF0A428FB1214508A0C8B63
:103188000DAE0CAF0DEE4F700302321C900348E0F9
:10319800FC850AF0A4CCA8F0850BF0A428FD7900E2
:1031A8001213A27C0080318D0C750D007403780C0D
:1031B8001220E28A828B8312322188828983E4F08A
:1031C80012322EA3A3F0A3F00DEDC3950840D8EE5C
:1031D800250AFEEF350BFF0C900348E0F8ECC39886
:1031E80050288C0C750D007402780C1220E29002A5
:1031F800E9123221E82402500109FAE9FB8A828B9C
:1032080083EEF0A3EFF07D0080BFE5089002EBF0BD
:10321800790080027913024EE81245D0F922A3A35F
:10322800123CD5EA4B22A3124C47A3A3A32274F461
:103238001221657900EAA2E0501F750866750990A9
:10324800780812237879107C047D007A777B17122E
:1032580008B0740212210BE9F980007F04022237BA
:10326800C082C0839002EC123D00601C8882898372
:10327800A3A3E06A7003A3E06B8882898370E8A344
:10328800A3A3A3123CD180047A007B00022F5974B7
:10329800F212216574FD1220F5EAFEEBFF85188213
:1032A800851983E4F0A3F074021221417401F0122D
:1032B8003CFD7014120A6C1214509002EF1239136C
:1032C800123CFD7003023429123A13EE2404F50A65
:1032D800E43FF50B850A82F583E024FE603C24FC7C
:1032E800607424FE607E24FE700302337924FE702D
:1032F8000302338624FE700302339324FE70030214
:1033080033A024FE70030233AD24FC70030233CED5
:1033180024FE70030233E6023422120A6C9002F192
:10332800EAF0A3EB1234351204E4E9600302342214
:103338009002F112238F8E828F83A3A3A3A3A312DB
:103348004C65850882850983123CD1120880740275
:1033580012210B023422AC18AD19EEFAEFFB120859
:10336800CE0233F1AC18AD19EEFAEFFB1208D48097
:1033780078AC18AD19EEFAEFFB1208DA806BAC18CE
:10338800AD19EEFAEFFB1208E0805EAC18AD19EE4D
:10339800FAEFFB1208E68051AC18AD19EEFAEFFB14
:1033A8001208EC8044740212214B880C890D780CA9
:1033B800122378740212215BEEFAEFFB1208F27402
:1033C8000212210B8023AC18AD19EEFAEFFB12089C
:1033D800F8E9F870167402122141E4F0803CAC1848
:1033E800AD19EEFAEFFB1208FEE9F8E8602C8E82C0
:1033F8008F83A3E064146022850A82850B83E090A2
:1034080002F1F0851882851983123CD19002F212DC
:103418003913E8A31234351204DEEEFAEFFB120872
:10342800567402122141E0F97403024EE5F07CF172
:103438007D02850882850983123CD52274E8122111
:103448006574FA1220F57404122141ECF0A3EDF032
:103458008A128B13EA2405F50EE43513F50FEA24D6
:1034680002F510E43513F511851082F583123CD16D
:103478001205D48A0A8B0B7508007C037D0079003D
:103488007AF17B021213A2E50E2402F516E4350F39
:10349800F517740212214B880C890D780C122378C9
:1034A800850E82850F83A3A3A3A3E0F50C750D00F9
:1034B800780C122378E50E2405F50CE4350FF50D8C
:1034C800780C122378851682851783123FD8120745
:1034D800BA740612210B8A0C8B0DE50C450D70038E
:1034E8000236658020851882851983E08882898361
:1034F800F00508851882851983A3E0C0E01236A676
:10350800D0E0F00508E50A24FBFAE50B34FFFBC31D
:10351800E5089AE49B40030236657E007F00851229
:1035280082851383A3A3A3A3E0F509780912237C5A
:10353800E4F514F51578141223787514EE75150250
:1035480078141223789002EF12238F740912214104
:1035580012238FE50A24F9F9AC0CAD0D851082858C
:103568001183123CD1120928740912210BE9600356
:10357800023606850E82850F83A3A3A3A3A3A3A364
:10358800E0F89002EEE0687075E0F5148E15781496
:10359800122378124C62850E82850F83A3A3A3A3FE
:1035A800A3A3A3A3123CD112139C740212210BE90A
:1035B800604C9002F2123D00703BE4F5147814124E
:1035C80023787CFF7DFF7907851082851183123C63
:1035D800D1120892740212210B123D067017850E43
:1035E80082850F83124DFF74041221411246C012C6
:1035F8004009023699850C82850D8312369CA818DD
:10360800A919881489157814122378740412214191
:1036180012238F8516828517831239091207C674FB
:103628000412210B8A0C8B0DEE4F70030234E21248
:1036380036A6EE1236B1123FBFEF1236B1F8A3E04C
:103648003400F9E50C450D60030234ED8882898366
:1036580074FFF005081236A674FFF00508E5086047
:103668001A1313543F1239191204F0E96009900231
:10367800F2123CD112140E79008016850E82850F45
:1036880083124DFF74041221411246C01243287957
:103698000A023F92A3A3A3A3E0FEA3E0FF22A80887
:1036A8009002F2E028123FBF22F00508089002F2CB
:1036B800E0282274E812216574FA1220F5740212C7
:1036C80021411239137404122141ECF0A3EDF07476
:1036D80002122141E02405123FA8E0F50CA3E0F511
:1036E8000D7402122141E02402F510A3E03400F524
:1036F80011851082F583123CD11205D47508007526
:103708000900EA24FCFEEB34FFFF8008050CE50CF9
:103718007002050DA808C3EE98EF94005003023814
:10372800C5A818A919880E890F780E122378851450
:1037380082851583A3A3A3A3124C69122378E514E9
:103748002405F50EE43515F50F780E122378851447
:10375800828515831239071207BA740612210B8A5B
:103768000E8B0FEA450F70030238C5EA2404F516DC
:10377800E4350FF517851682F583E0F50CA3E0F51F
:103788000D851882851983124C658A828B83A3A3C1
:10379800A3E0F9851082851183123CD11207A8E9AC
:1037A800F50960030238C57402122141123FCFF5B2
:1037B80009780912237CE4F512F51378121223789C
:1037C8007512EE75130278121223789002EF122305
:1037D8008F740712214112238FEEF9AC0EAD0F85BD
:1037E8001082851183123CD1120928740912210B09
:1037F800E9F50960030238C5E508703FE4F50EF500
:103808000F780E1223787CFF7DFF79098510828559
:103818001183123CD1120892740212210B123FF547
:10382800700D74041221411238FC79110238F99094
:1038380002EEE024029002F2F080149002F2E0FA24
:103848009002EEE0790024025001096A497072A8DA
:10385800089002EEE0FAE82AFAE43400FBEE9AEF68
:103868009B405A851682851783E0C0E09002F312C8
:1038780036ABD0E0F00508851682851783A3E0C033
:10388800E0089002F31236ABD0E0F005089002EEA3
:10389800124C69122378124C62A808123F9C12132A
:1038A8008A740212210B9002EEE02508F50874FFD5
:1038B800650C700474FF650D6003023714E5086039
:1038C8001F9002F2E0F5F0E508841239191204F6A7
:1038D800E960099002F3123CD112140E79008011AC
:1038E800E509700375090A74041221411238FCA90C
:1038F80009023F92124137E50CF0A3E50DF022A32F
:10390800A3124EF4AA0CAB0D22A3A3EAF0A3EBF08A
:10391800229002F1F07CF17D0285108285118312DC
:103928003CD52274EC12216574FC1220F51244383F
:10393800740212215B123CCB1207C08A0C8B0DEA71
:10394800450D7003023A03123A13A818A9198810F2
:10395800891178101223787CFF7DFF790B85088206
:10396800850983123CD1120892740212210B123B72
:1039780009700C850A82850B83124006023A108E64
:10398800828F83A3A3A3A3E0F512781212237CE409
:10399800F512F51378121223787512F1751302785F
:1039A80012122378781012237874091221411223F5
:1039B8008F7409122141E0F9AC0CAD0D85088285A0
:1039C8000983123CD1120928740912210BE9FE70EF
:1039D800157CF17D02850882850983123CD1120489
:1039E800FCE97009802074166E70027E009002F265
:1039F800123CD112140EEE7004800B7E01850A82EF
:103A0800850B83124325EEF902433AEE2402F508AA
:103A1800E43FF5092274EC12216574FC1220F5EAE2
:103A2800FEEBFF8C0E8D0FEE2405F508E43FF5093B
:103A3800740212215B850882850983123CD1120722
:103A4800C08A0C8B0DEA450D7003023AF9EE240288
:103A5800F50AE43FF50BA818A91988108911781000
:103A68001223787CFF7DFF790D123CCB12089274EB
:103A78000212210B123B09700B85088285098312FB
:103A88004006807A8E828F83A3A3A3A3E0F51278E1
:103A98001212237C850882850983A3A312238F75BC
:103AA80012F17513027812122378781012237874A1
:103AB8000912214112238F7409122141E0F9123CA5
:103AC800C7120928740912210BE9FE700F7CF17DD9
:103AD80002123CCB120502E97009802074166E7040
:103AE800027E009002F2123CD112140EEE70048095
:103AF8000B7E01850882850983124325EEF902436E
:103B08003A123D10F510A3E0F511EA45112274E8C8
:103B180012216574FE1220F58A168B178C148D15E8
:103B2800EA2405F50CE43517F50DEA2402F50EE450
:103B38003517F50F850E82F583123CD11205D48A0C
:103B4800088B09750B007C037D0079007AF17B02F4
:103B58001213A2750A00E50814F5100424FFF508ED
:103B6800E50934FFF50980549002F1E0FA9002EE7D
:103B7800E0F8EA28F8E43400F9E50898E5099950EE
:103B88000D9002F1E0F8E510C3989002EEF0E0F530
:103B9800127513007812122378124C629002F2E028
:103BA8002AFAA3E03400FB12138A740212210B9044
:103BB80002EEE0F89002F1E028F0050A850C828513
:103BC8000D83A3A31245DC4003023CAC9002F1E054
:103BD800C39508E495094003023CACAE0AEE2EFEFC
:103BE800E433FF123CEBAC18AD19124C7DE439FB01
:103BF8001207C08A128B13AC12AD13EC4D701B75F3
:103C08000B01123CDB1243299002F21232286003A6
:103C180012140EA90B7402023F948516828517832D
:103C2800A3A3A3A3E0F50B780B12237CE4F512F50C
:103C38001378121223787512EE7513027812122374
:103C4800789002EF12238F740712214112238FA953
:103C580010850E82850F83123CD11209287409122F
:103C6800210BE9F50B709B9002F2123D00600302F4
:103C78003B70E4F512F51378121223787CFF7DFF70
:103C8800790F850E82850F83123CD1120892740237
:103C980012210B123D066003023B70123CDB1240FE
:103CA8000A023C1D7CF17D02850E82850F83123C41
:103CB800D1120508E96003023C107900023C1DACF2
:103CC8000CAD0D850A82850B83123CD522E0FAA340
:103CD800E0FB22123CEBE0FAA3E0F9EA85148285C6
:103CE800158322850C82850D83E02EF8A3E03FF929
:103CF80088828983229002EF124E03E84922123DFE
:103D080010F8A3E0F9E849229002F2EAF0A3EBF0F8
:103D18009002F2E02274E812216574FA1220F57418
:103D2800041221411239138C168D17740412214183
:103D3800E02405F50EA3E03400F50F7404122141C8
:103D4800E02402123FA8123CD11205D48A0A8B0B38
:103D58007F007E00A818A919880889097808122305
:103D680078850E82850F83A3A3A3A3E0F5088E09A7
:103D78007808122378E50E2405F508E4350FF509CF
:103D88007808122378850E82850F83A3A3123FD863
:103D98001207BA740612210B8A0C8B0D8029123F68
:103DA800C9F00F123FC9F00F9002EE12431412230C
:103DB80078124C62EFF8123F9C12138A7402122197
:103DC8000B9002EEE02FFFE50C450D7003023E5804
:103DD80085188285198312444AA3A3A3E0F98514A0
:103DE80082851583123CD11207A8E9FEE50C24044C
:103DF800F510E4350DF511EE7050740412214112DE
:103E08003FCFF508780812237CE4F508F50978080F
:103E18001223787508EE7509027808122378900243
:103E2800EF12238F740712214112238FE50A24FA17
:103E3800F9AC0CAD0D851482851583123CD112099D
:103E480028740912210BE9FE6039123FE512432854
:103E5800EF7003023F7F9002F2E0F5F0EF849002EA
:103E6800F1F07CF17D02851482851583123CD11214
:103E7800050EE960099002F3123CD112140E790084
:103E8800023F928F08EF703BE4F512F51378121297
:103E980023787CFF7DFF7911851482851583123C78
:103EA800D1120892740212210B123FF57009123FC9
:103EB800E5124009023F929002EEE024049002F2DB
:103EC800F080359002EEE0F89002F2E0FAE824047F
:103ED800FCE43400FDEC6A4D6003023E5EE50A2412
:103EE800FAFAE50B34FFFBE50828F8E43400F9EAB0
:103EF80098EB995003023E5E851082851183E0C0DD
:103F0800E09002F3E02FF8A3E034008882F583D034
:103F1800E0F00F851082851183A3E0C0E0123FB660
:103F2800D0E0F00F740212214B8808890978081232
:103F38002378740212214112238F850E82850F8304
:103F48001239071207C6740412210B8A0C8B0DEA6A
:103F5800450D7003023DA67402122141E0C0E01233
:103F68003FB6D0E0F00F7402122141A3E0C0E01286
:103F78003FB6D0E0023DAEEE70027E0A850E828525
:103F88000F83123FEB124328EEF9740612210B7FC0
:103F9800100222379002F3E028FAA3E03400FB2253
:103FA800F514A3E03400F515851482F58322123F39
:103FB800BA229002F3E02FFAA3E034008A82F58354
:103FC80022123FBA74FF22124137A3A3A3A3E0220F
:103FD800124EF4850E82850F83123CD522851082FD
:103FE800851183124E03851682851783229002F36A
:103FF800EAF0A3EBF09002F3124E03E849221243D1
:104008002EE8F0A3E9F079112274EA12216574FE12
:104018001220F58A088B098C128D13EA2405FEE418
:104028003509FFAC18AD198E828F83123CD1120767
:10403800C08A0C8B0DEE2406F50EE43FF50FEA4519
:104048000D7003024109E5082402F50AE43509F573
:104058000B8A828B83A3A3A3E0A2E550288518824C
:10406800851983123CD112091C8A108B11EA45115B
:1040780060207912123CC785108285118312216352
:10408800E9F50C707F850E82850F83E0600979520F
:104098008011750C0E806D850882850983A3A3A302
:1040A800A3E0F9E4F508F50978081223788E828FE1
:1040B80083A3A3E0F50878081223788E828F83A360
:1040C800A3A312238F8E828F83124C65123CCB12CE
:1040D800092E740612210BE9F50C7011850E8285E4
:1040E8000F83E0702D123CCB1205148025741665E1
:1040F8000C7011750C007418122141124133E480C0
:1041080010750C01124DFB851282851383E8F0A30C
:10411800E9F0850E82850F83E0600479008002A9AA
:104128000C740212210B7F0E02223712413722E053
:10413800F8A3E0F58388822274EC12216574F712E3
:1041480020F58A0A8B0B8C108D11EA2405FEE435C4
:104158000BFF750C00AC18AD198E828F83123CD101
:104168001207C08A088B09EA450970030242FFE575
:104178000A2402F50A5002050B8A828B83A3A3A3A3
:10418800E0A2E5502F851882851983123CD11209C7
:104198001C8A0C8B0DEA450D604F7912AC08AD09ED
:1041A800123CCB850C82850D83122163E9F50C60E6
:1041B80003024302850A82850B83E0F508A3E0F534
:1041C80009AA08FB120910EA4B70197AFF7BFF1243
:1041D8000910EA4B70030242F58A828B83E508F0E6
:1041E800A3E509F07508008008750C0E0243020566
:1041F800089002EBE0F8E508C39840030242F58511
:10420800080E750F007403780E1220E28A828B83E1
:10421800A3A3E0250EF8A3E0350F1246C970D08E8F
:10422800828F8312431D1239138E828F83A3A312A8
:10423800431D123911EE2404F508E43FF5098508F9
:1042480082F583E088828983A3A3A3A3F0A3E4F083
:10425800EE2405F50EE43FF50F850E82F583124333
:104268001DA3A3A3A31239117512077513007812A1
:10427800122378EEFCEFFD740412215312138A7492
:104288000212210BE4F51278121223788508828530
:104298000983E0FC7D007917123CCB120892740266
:1042A80012210B740712214112391374071221418C
:1042B800E0FA4B603D850882850983124314122376
:1042C80078850E82850F83124C6512138A74021248
:1042D800210B740212215B123CCB12051AE96026ED
:1042E8007407122141123CD112140E8019750C0961
:1042F8008008750C118003750C01124DFB85108226
:10430800851183124328A90C74098028E0F50875E3
:104318000900780822123CD5888289832212432E0C
:10432800E8F0A3E9F022E0F8A3E0F9850E82850F12
:104338008322740412210B7F0C02223774EC1221A1
:1043480065124438751000EE2402F50CE43FF50DB3
:10435800850C82F583123CD11209108A088B09EA70
:104368004509700302441C850A82850B83E06401B9
:104378006003024411AC08AD09AA0AAB0B12090488
:10438800E9606E85088285098312369EEE2406F55B
:104398000AE43FF50B8E828F83A3A312238F8E82AC
:1043A8008F83A3A3A3A312238F850A82850B83126D
:1043B800238F79188E828F8312444A123CD11209B6
:1043C8002E740612210BE9F8741668700B850A82A0
:1043D800850B83E4F0A38014E860128E828F831229
:1043E8003CD1850E82850F83EAF0A3EBF08810801C
:1043F80018780E122378AC08AD09EEFAEFFB120913
:104408000A740212210BE9F510AA08AB0912091661
:10441800E510700E850C82850D83123CD1120520A3
:104428008009741665107003751000A91002433FC7
:10443800EAFEEBFF8C0E8D0FEE2405F50AE43FF53E
:104448000B22124EF4850C82850D832274EA122108
:10445800657508007509007E007F00750A00EC2468
:1044680002F510E43DF5118035EC65087003ED6543
:1044780009600302450988828983A3A3E06A70035F
:10448800A3E06B707C88828983A3A3A3A3124DFF4A
:10449800EE28FEEF39FFEA28FAEB39FB050A124548
:1044A800D9503A850A0C750D007403780C1220E275
:1044B8008510828511831245CC1246C9601FE50814
:1044C800450970A58C088D098882898312369C88D5
:1044D800828983A3A3E02EFAA3E03F80BEE50AC346
:1044E800940250030245C7750800750900EE4F6035
:1044F80010EEFAEFFB1214088A0E8B0FEA450F70C4
:104508000579000245C9750B0002459C850B0C75A1
:104518000D007403780C1220E2851082851183E067
:10452800250CF50CA3E0350DF50DE50C2406F51466
:10453800E4350DF515851482F5831246CE6042E503
:104548000C2404F512E4350DF513851282F5831257
:10455800238FE50E2508FAE50F3509FB12138A7437
:104568000212210B851282851383E02508F508A322
:10457800E03509F509851482851583123CD112149A
:104588000EE50B600D7C087D007900AA0CAB0D12BE
:1045980013A2050BE50BC3950A50030245148510B9
:1045A80082851183124DFF88828983A3A3A3A3A3C5
:1045B800A3E50EF0A3E50F12322FEEF0A3EFF0798A
:1045C8000102412E1245D022E0250CF8A3E0350D5A
:1045D800229002EBE0F8E50AC3982274F0122165F4
:1045E8008A0E8B0F8C0A8D0B750D00750C00805090
:1045F8007916EE2406F508E43FF5098E828F83A329
:10460800A312238F8E828F83A3A3A3A312238F8544
:10461800088285098312238F850E82850F83A3A3C1
:10462800123CD112092E740612210BE9F50D7416ED
:10463800650D706C850882850983E4F0A3F0050C8C
:104648009002EBE0F8E50CC3985066AA0C8A08754E
:104658000900740378081220E2850A82850B83A377
:10466800A3124718E8FEE9FF8E828F831246CE60B8
:1046780040EA2401F508E43400F5099002EBE0650E
:10468800087002E509601488828983A3A3A3A3A301
:10469800A3A3A3123D0060030245F879180245FA66
:1046A800E9609B124DFB74101221411246C012435F
:1046B80028A90D7F08022237E0FAA3E0F5838A8251
:1046C80022F988828983124EF4EC4D2274F6122165
:1046D800657C0080010C900348E0F8ECC398501EFC
:1046E8008C08750900740278081220E212470DE060
:1046F8006A7003A3E06B70DDE8FAE9FB80047A00D6
:104708007B000247B09002E9124718888289832209
:10471800E02508F8A3E03509F92274F21221658A28
:10472800088B09750A0080278E828F83A3A3A3A311
:10473800123226600312140E7C087D007900EEFA0E
:10474800EFFB1213A28E828F83E4F0A3F0050A1206
:1047580045D95027850A0C750D007403780C122072
:10476800E2850882850983A3A3E0250CFEA3E03532
:104778000DFF8E828F83123D0070AD8508828509FA
:104788008374FFF0A3F0024EE874F6122165120854
:10479800C28A828B83E582458370067A007B00801B
:1047A80007A3A3A3A3123CD17F0202223774F412F9
:1047B800216589088C828D83E06402703C124D9ECD
:1047C800FEA3E0F9EEF87402687003742969702991
:1047D800750A02750B00780A1223787410122141A9
:1047E80012238F741012214112238FA90812126408
:1047F800740612210BE9F98002790102326374E828
:1048080012216574FB1220F5E9851882851983F059
:104818008A168B17ECFEEDFF7510008E828F83A32E
:10482800A3A3E0A2E4502D741D122141123CD11221
:10483800091C8A828B83E58245837003024C3D798B
:104848000AEEFCEFFDAA16AB17122163E9F510601A
:1048580003024C40741F122141E0F508A3E0F5095A
:104868007421122141E0F50AA3E0F50B742312210B
:1048780041E0F50EA3E0F50F8E828F83E0640260BD
:1048880003024BDEA3124DFF850882850983A385A9
:104898008212858313EE2406F50CE43FF50D888219
:1048A8008983124C7DF514E439F515781412240225
:1048B800010000280128E04807000228A54903282C
:1048C80013490029D44A0129FF4A0229A04A032989
:1048D800D44A0429784BDE4BE50E450F6003024BA2
:1048E800D9850C82850D83124DFFE8FAE9FB8A828F
:1048F8008B83E0850A82850B83124C881223788A81
:10490800828B83A3E0FCA3E0024B62E50E450F60B7
:1049180003024BD9850A82850B837401F0124C720D
:10492800850882850983F07C007D008E828F83A3B1
:10493800A3A3A3E02401FAA3E03400FB1207C0EA12
:104948004B60408A828B83E02402F8850A82850BBB
:1049580083E028F0EA2404F8E43BF988828983E0BC
:10496800851282851383124C96124C881223788AFA
:10497800828B83A3124C65E5082403FAE43509FB0E
:10498800024B67850A82850B83E02404F07C047D52
:10499800007900AA12AB131213A2024C40E50E458F
:1049A8000F6003024BD9124C72FEA3E0FF850A8206
:1049B800850B837404F0EE850882850983F0EF8502
:1049C8001282851383F0740312215BEEFAEFFB1257
:1049D80007C08A0C8B0DEA450D7003024A838A8250
:1049E8008B83A3A312369C740112214B880E890F66
:1049F800780E122378740512214112238F7CFF7DD3
:104A0800FF1207C6740412210B8B0FEA450F70338F
:104A1800850C82850D83124C69122378850C82855A
:104A28000D83A312238F7C027D007AF27B901205FE
:104A3800C2740412210BE9700A740112214174FF37
:104A4800F0A3F08E828F83E064027039750C0275D2
:104A58000D00780C1223788E828F83A3124C65E5A3
:104A6800082404FAE43509FB12138A740212210B94
:104A7800850A82850B83E024028009740112214192
:104A8800EEF0A3EFF07401122141124C5774011299
:104A98002141124C4E024BD3E50E450F6003024BE9
:104AA800D9850C82850D83124EEDAA16AB1712120A
:104AB8006A850A82850B837402F0850882850983DA
:104AC800EAF0851282851383EB024BD6E50E450F7B
:104AD8006003024BD9124C72F8A3E0F9850A82856B
:104AE8000B837402F0E8850882850983F0E9851252
:104AF80082851383024BD6850C82850D83123CD1A7
:104B0800121384EAFAF8C3950EE4950F405CE86541
:104B18000E450F70047A008021851882851983E07C
:104B2800FCE50E2CFCE4350FFDC3EC98ED94005029
:104B380003E08005E50ECAC39AFAEA850A82850B66
:104B480083F08A0A750B00780A122378850C82850F
:104B58000D83E0250EFCA3E0350FFDAA08AB091272
:104B6800138A740212210B024C40751007024C4044
:104B7800E50E450F705B850C82850D83124DFF8510
:104B88000A82850B837407F088828983124C4F123E
:104B98004C47E0851282851383F0E82402FAE43951
:104BA800FB8A828B83124C578A828B83124C4EA3CA
:104BB800A312322E124C5CF0E82405F85001098843
:104BC800828983124C5CA3124C96A3A3A3A3F08002
:104BD8006775100B8062741D122141123CD11208B6
:104BE800C28A828B83E5824583604A124DFF880C16
:104BF800890DE8450D603E7425122141E0F51078D5
:104C08001012237C780E122378780A1223787808F9
:104C18001223787407122141E0F9EEFCEFFDAA1681
:104C2800AB17850C82850D83122163740712210B43
:104C3800E9F510800375100EA9107405023F94F071
:104C480088828983A322A3E08508828509832212AA
:104C58004C9DF022124C9DA3A3229002EF124EF419
:104C680022E0F50E750F00780E22850C82850D83E3
:104C7800124137E022E0FAA3E0F8E4C8F9EA282272
:104C8800F08A828B83E0F50A750B00780A22124CB1
:104C980047124C9D22E0850882850983A3A32274CC
:104CA800EE12216574FE1220F58A088B09ECFEEDE0
:104CB800FF890AAC18AD19EEFAEFFB1207C08A0C8F
:104CC8008B0DEA450D7003024D8F85188285198377
:104CD800123CD11208C28A828B83E5824583700315
:104CE800024D8AA3A3124DFF880E890FE8450F7065
:104CF80003024D8A7414122141E0F510A3E0F51166
:104D0800E50AF50B780B12237C7419122141122342
:104D18008F7810122378741B122141E0F9AC0CAD86
:104D28000DAA08AB09850E82850F831221637405CD
:104D380012210BE9F50B705274FE650A604C850C64
:104D480082850D83E064027041124D9EFAA3E0F95A
:104D5800EAF87402687003742969702E85108285D8
:104D68001183124C7DF50CE439F50D780C1223787B
:104D7800EEFCEFFDAA08AB09120946740212210BDA
:104D88008008750B0E8003750B01A90B74021221A4
:104D98000B7F0A022237A3124E0388828983E022FE
:104DA80074F612216574FE1220F5740C122141125A
:104DB8004DFFE8851882851983F07401122141E9B5
:104DC800F0E4F508F50978081223787508027808E0
:104DD800122378740412214B880889097808122351
:104DE8007879FE12092E740612210B740212210B17
:104DF8000247B08E828F83124E0322E0F8A3E0F9B7
:104E08002274F7122165EAFEEBFF89089003061267
:104E18004C6512126AEA5402600BA908EEFAEFFB1D
:104E28001207B4800279017F0102223774F212213D
:104E38006574FE1220F5EAFEEBFF890A7401650A23
:104E480060147402650A6003024EE37901120B5084
:104E5800E96003024EE3EEFAEFFB120910EA4B6039
:104E680003120916A818A9198808890978081223AD
:104E78007875080275090078081223787508E475B2
:104E8800099078081223787CFF7DFF7A017B001255
:104E980007BA740612210B8038850882850983A316
:104EA800A3A3A3A3A3124EEDEEFAEFFB121252E452
:104EB800F50CF50D780C1223787402122141122397
:104EC8008F7CFF7DFFAA08AB091207C67404122164
:104ED8000B8A088B09E508450970BE740212210B7C
:104EE8007F06022237124137124EF422E0FCA3E07B
:104EF800FD2274F41221658A088B09ECFEEDFF90FF
:104F08001775E0F4604B7A097B001213AEEA4B6028
:104F1800408A828B8374B1F0A3E4124F5CF08A82DA
:104F28008B83A3A3E508F0A3E509124F5CA3EEF079
:104F3800A3EFF0740C122141124DFF8A828B83A3D8
:104F4800A3A3A3A3A3A3124328901775E0F91213F0
:104F5800BA023263F08A828B83A3A3A3A32274F0DC
:104F680012216574FA1220F58909ECFEEDFF750827
:104F7800008A0A8B0B780A1223BC0004108C51A9F2
:104F88004FC74FE14FF94F17502F5052506A507E7C
:104F980050A850235134514B5166518C518C51BEFD
:104FA800507401650960030251878E828F83E0F88F
:104FB800C394034003025187E89018610251637457
:104FC80002650960030251878E828F831258EA9026
:104FD8001862E8F0A3E902516374016509600302ED
:104FE80051871251B44003025187E890072C0251AF
:104FF800637401650960030251878E828F83E0F82C
:10500800C394054003025187E890072D0251637449
:1050180001650960030251871251B44003025187A8
:10502800E890072E025163741065096003025187E6
:10503800750A10750B00780A1223787A2F7B0712ED
:10504800138A740212210B0251AD740165096003C1
:105058000251871251B44003025187E890073F027A
:1050680051637401650960030251878E828F83E062
:105078009018650251637404650960030251878EB4
:10508800828F83780C121FB99090D0780C12160D6D
:105098005003025187900741780C121FC80251AD86
:1050A800E9600302518712075AE970051212168047
:1050B800559007D4806174076509600302518775AC
:1050C8000A06750B00780A1223788E828F83A3ACA8
:1050D80082AD837402122153121390740212210BB1
:1050E8007C007D00AA18AB198E828F83E0F912111B
:1050F800C2E9FEC3940A40030251AA12075AE97092
:105108000CEEF912121C79501214C8806D74D52E49
:10511800F582E43407F583740180407401650970F1
:105128005E1251B45059E8900740802F7401650908
:10513800704D8E828F83E0F8C3940A5042E890182D
:105148006480187401650970368E828F83E0F87464
:10515800F928C3940A5028E8901866F0804774012B
:105168006509701B9007D3E0F88E828F83E0900763
:10517800D3F0E87030E06401702B12120A802675B3
:1051880008188021C3EA9427EB940050157402652F
:1051980009700F8E828F831263CA1205DAE9F50847
:1051A8008003750802A90874060254D88E828F837A
:1051B800E0F8C3940222A908800312210B7F04029D
:1051C800223774F012216574B11220F58C0A8D0B08
:1051D800909054742012215B7406122008742012D7
:1051E800215B1211C2E9FF745F122141E0F509EF5A
:1051F800C3940A400302534C75F006EFA4F50874F3
:105208004112215B7A0E74202508F91214C2E97044
:1052180009744D122141E0FE80027E00901861E081
:1052280064027005750E018003750E007408650927
:1052380070047422800274212508F50D7C1B7D0002
:10524800790074261221531213A2742612215B7A54
:105258001BA90D1214C2E9702D7440122141E024DB
:10526800F9C3940A5020E50EF50D780D12237C74CD
:105278002712215BEEA2E0E433F9AA0AAB0B12066F
:105288007C740112210B7C147D007900740C1221AE
:10529800531213A2740C12215B7A1074242508F996
:1052A8001214C2E970347C1079FF740C1221531265
:1052B8001402E97025741C122141AC82AD837A0472
:1052C80074252508F91214C2740C12215BEEA2E0B1
:1052D800E433F9AA0AAB0B120664AC18AD197A0CC0
:1052E80074702FF91214C2E97049AA18AB19121177
:1052F800F27F00EF75F003A4F8A9F08518828519EC
:1053080083E58228F8E583125AA1125C82601D8821
:10531800828983A3A3E0F50E750F00780E12237817
:10532800AA0AAB0B120934740212210B0FEFC394B3
:105338000440C0EEA2E1500C90072BE0F9AA0AAB9A
:105348000B12093A740465097028901861E0640228
:1053580070207A0090073FE060027A0190072CE005
:105368006004780480027800E84AF9AA0AAB0B12B4
:1053780007307900744F0254D874F7122165120768
:105388005AE9704F9007D4E0640170151212169014
:1053980007D4E4F07C0AFDF97AD57B071213A280C2
:1053A8002A750800A80874D528FEE43407FF8E8201
:1053B8008F83E06401700BA90812121C8E828F8300
:1053C800E4F00508E508C3940A40D979501214C8D6
:1053D80012120A025DB974F012216574F01220F5F8
:1053E800EAFEEBFF8C088D09750A0AE9600C146067
:1053F8000914603B14607D0254D4121204E9F50AC2
:10540800C3940A40030254D4E508450970030254C2
:10541800D4750C06750D00780C122378EEFCEFFDA0
:10542800AA08AB0912138A740212210B0254D4750C
:105438000C00750E06750F00780E122378EEFCEF3F
:10544800FDE50C75F00EA4F8A9F0744D28FA740760
:1054580039FB12139C740212210BE9700B050CE541
:105468000CC3940A506680CA850C0AE50AC3940ADC
:10547800505A8049750C00AC18AD197A1075F006B1
:10548800E50CA42423F91214C2E9701C7C1079FFDE
:10549800AA18AB19121402E9700EEEFCEFFDAA1857
:1054A800AB19120640E9600B050CE50CC3940A50D1
:1054B8001B80C4850C0AE50AC3940A500FE5084509
:1054C800096009AA08AB09A90A1211FEA90A7410F1
:1054D80012210B7F0802223774F41221658909759D
:1054E800081574FF6A700374FF6B70277E00AC099F
:1054F8007A027B00EEF91211E0E960037508000EEC
:10550800EEC3940A40E8E50960537A2E7B12120B29
:1055180074804A120B448A0A8B0BAE0AAF0BEE4F0B
:1055280060387C007D00EE2405FAE43FFB8E828F14
:1055380083A3A3A3A3E0F91211C2E9F9C3940A5003
:105548000CAC097A027B001211E0750800E50960CD
:105558000CEEFAEFFB12122E80037508140251BEEE
:1055680074F2122165ECFEEDFF750815740E122118
:1055780041E0F50AA3E0F50B74FF6A700374FF6B52
:105588007021750900AC0AAD0BEEFAEFFBA9091200
:1055980011E6E960037508000509E509C3940A5096
:1055A8003F80E2120B448A828B83E5824583602D1B
:1055B8007C007D00E5822405FAE43583FBA3A3A3E0
:1055C800A3E0F91211C2E9F9C3940A5013AC0AAD69
:1055D8000BEEFAEFFB1211E675080080037508144C
:1055E800A9087F06022237C082C083900745EAF0E7
:1055F800A3EBF090072BE0FC7D007A267B001205D8
:10560800DA90072BE0F912089E0260D374EE12219B
:105618006574EC1220F58A088B09EA240CF510E46D
:105628003509F5118A828B83A385820C85830DEA5F
:105638002405F50EE43509F50FEA2409F50AE435E1
:1056480009F50BEA2403FEE43509FF8A828B83A35C
:10565800A3E024FA70030258D824FD70030257F817
:105668001470030256F214601024FD70030257DB15
:105678001470030258300258DE1263D06044E0F51B
:105688008388821258EA880C890DE8450D603385B5
:105698001082851183E0F50E780E12237CEA240B24
:1056A800F582E43509F583E0F91263C40A0A0AEFC2
:1056B800FB850C82850D83122163740112210B0274
:1056C80058DE850A82850B8312238F900741121FAB
:1056D800D7120676740212210BE970030258DE799C
:1056E80001850A82850B830258A8750A00850C82F9
:1056F800850D83E060030257A8850E82850F83E03D
:10570800A2E040030257A89007DF1263D3600302A8
:1057180057A87C0E7D007900AA18AB191213A28530
:10572800108285118312609EEA4B6010750A067517
:105738000B00780A122378EA2410801B12609A1250
:105748000B44EA4B70030258DE750A06750B0078A5
:105758000A122378EA2405FCE43BFD740212215363
:1057680012138A740212210B850E82850F83E0A220
:10577800E25004D2F08002C2F0A2F0E433F8740CD4
:105788001221411262521211F8E970117A027B005B
:1057980090072BE0F91213DE79000258E0750A151C
:1057A8001263D070030258DE1258FF70030258DEED
:1057B800850C82850D83E0FC79011258F012216373
:1057C800E50A70030258DEFC790312609A126055EC
:1057D8000258D31263D070030258DE1258FF7003C8
:1057E8000258DE850C82850D83E0FC79020258D0D0
:1057F8007C007D00EA2404FAE43509FB8E828F835D
:10580800E0F91211C2E9F8C3940A40030258DEE530
:1058180008240AFCE43509FD7A0475F006E8A42496
:1058280025F91214BC0258DE12609A900740E06015
:1058380007901864E0F9806B901861E070047905AE
:105848008061120B448A0C8B0DA80CA90DE84970D5
:10585800030258DEE82404F50CE439F50D850882C6
:10586800850983A3A3A3A3A3A3A3E0A2E05039853A
:105878000C82850D83E0F508602E850A82850B83EE
:10588800A3E054027022740E12215BE82405FAE4A6
:1058980039FBA9081211C2E9700E79038E828F8331
:1058A80012609E120670802EAC0EAD0F850C82859C
:1058B8000D83E0F912609A12123A1263D06017123F
:1058C80058FF60127C0079001258F012216380069C
:1058D80012609A1211BC7901741412210B7F0A020A
:1058E8002237E0F8A3E0F9228E828F83E0FAA3E062
:1058F800FB888285098322126063F98909E84509D2
:105908002274F512216574F21220F5EAFE8C0A75EC
:10591800F006E9A42420F508AC18AD197A0EF9129E
:1059280014C2E970467C0679FFAA18AB1912140252
:10593800E97038740C12214112609EEAF8E50A6099
:1059480005EEC8488004EEF4C858F8EA687001EB20
:105958006015740C122141E8F0A3E4F0AC18AD19FD
:105968007A0EA9081214BC790180027900740E120B
:10597800210B7F0302223774F212216574E612208C
:10598800F5890A8A088B09ECFEEDFF740C12215B7D
:105998007A0E75F006E9A42420F91214C2E960030E
:1059A800025A647C0679FF740C122153121402E91E
:1059B8006003025A647470250AF50BAC18AD197AA5
:1059C8000CF91214C2E96003025A60AA18AB191242
:1059D80011F2E5084509701D7C0C7900AA18AB196D
:1059E800121402E970727C0C7D007900AA18AB19B8
:1059F8001213A28051AC18AD19AA08AB091211EC08
:105A08008A0C8B0DA80CA90DE8497022EE4F604C4A
:105A1800AC18AD197A007B001211ECEAF8EBF9EA40
:105A28004B603988828983E508F0A3E509F0125AAA
:105A3800DDFAEE6A7001EF601FEEF04F70088882A1
:105A48008983E4F0A3F0AA18AB191211F2AC18ADCF
:105A5800197A0CA90B1214BC790180027900741A06
:105A680012210B0255EA74F71221657E00EE75F0DB
:105A780003A4F8A9F0EC28F8ED125AA1E06A700323
:105A8800A3E06B7006E8FAE9FB800B0EEEC3940402
:105A980040DB7A007B00025DB939F988828983226C
:105AA80074F71221657C00EC75F003A4F8A9F0EAFC
:105AB80028F8EB125AA1E0F4FEA3E0F4FF888289EB
:105AC80083EEF0A3EFF0125ADDF4F00CECC394046B
:105AD80040D5025DB9E82402F582E439F583E02275
:105AE80074F412216574F41220F5EAFEEBFF8C08B9
:105AF8008D099007DF1263D3704FEE4F7003025C7D
:105B080061EC45097003025C61121204E9901867A0
:105B1800F0C3940A4033750B007C0679FFE50B75DA
:105B2800F00EA4FAABF074472AFA74073BFB121480
