:020000040000FA
:060000000201070222319B
:03002B0002267E2C
:03003B000226A4F6
:0300430002262969
:030053000222A7DF
:03006B0002264F1B
:10008300022087E5C754F84401F5C779012200002F
:100093000080FB120086B900030200F1E4792178A5
:1000A30008B800028004F709D8FCE479297802B87B
:1000B30000028004F709D8FCE4900281783A7915AC
:1000C3008002F0A3D8FCD9FA7ABA7B16900137786C
:1000D3003279048015E493A3AD82AE838A828B8345
:1000E300F0A3AA82AB838D828E83D8E9D9E7758288
:1000F300257583C374031201197582917583007486
:100103000012011975D00075813F751881751902A8
:10011300759F00020096C09FF59FE473D09F22D085
:1001230083D082C09FE493C0E0740193C0E0740263
:1001330093F59F22FF0000B4000028002800283018
:1001430075A000A000A000A00000080008E001F0D6
:10015300001000100010001000100010005000509C
:1001630000500010001000D0070000000000000F36
:100173000001000500307507001000010081FF0039
:10018300000000FFFFFF8A06A8069006CC06FF02C8
:10019300020208025000A0000000E80302B690012A
:1001A30000009E9002C890010000151702AA90015A
:1001B3000000BF0202C890010000161702A89001B8
:1001C3000000D50202C890010000171702A4900195
:1001D3000000D70202C890010000181702AE900871
:1001E3000000D80202C890010000191702B2900162
:1001F30000001A17FF0100FF2002B6900100009BC8
:100203009002C8900100007E1702C6900000000013
:100213000002AC90030000060317007A0D7A0D7AF2
:100223000D7A0D7A0D7A0D7A0D7A0D7A0D7A0D7A93
:100233000D7A0D7A0D561068105010020202020258
:1002430002020202010D000000100102B69001003B
:1002530000989002C890010000C11702BE900100EF
:1002630000230702C890010000C21702C0900100DA
:1002730000688F02C890010000C31702E2900100DA
:10028300003F8F02C890010000C41702D490010000
:1002930000DD8E02C890010000C51702D290010054
:1002A30000B98E02C890010000C61702D090010069
:1002B30000A78E02C890010000C71702CE9001006C
:1002C30000CB8E02C890010000C81702CA9001003B
:1002D300004D8F02C890010000C91702C4900100AD
:1002E30000CA1701E8030577100AFFFFFF0001307A
:1002F300750302010600000000000000000000007A
:1003030000000000000000000000000000000000EA
:1003130000FFFF0600800CE803140953696D706C3D
:1003230065424C455065726970686572616C05126F
:1003330050002003020A000201060302F0FF536982
:100343006D706C6520424C4520506572697068651C
:1003530072616C2A15000030150A4368617261638B
:100363007465726973746963203100024368617252
:10037300616374657269737469632032000843684A
:100383006172616374657269737469632033001009
:10039300436861726163746572697374696320345D
:1003A300000243686172616374657269737469639F
:1003B3002035000A436861726163746572697374FE
:1003C300696320360002B690010000A19002C89034
:1003D300010000DF1802D890030000AA1602B090B3
:1003E300010000E01802C890010000F11802DA9041
:1003F300010000AB1602B090010000F21802C89091
:10040300010000031902DC90020000AC1602B09058
:10041300010000041902C890010000151902DE90C2
:10042300000000AD1602AC90030000AE1602B090BF
:10043300010000161902C890010000271902E0907C
:10044300040000B01602B090010000281902C89001
:10045300010000391902CC90030000B51602B090D8
:100463000100003A19120122B99803120122CC9813
:1004730003120122FD98031201223799031201226C
:10048300909903120122D799031201221F9A031292
:1004930001224E9A031201227D9A03120122B49A79
:1004A30003120122FB9A03120122149B031201225D
:1004B300699B03120122829B03120122D09B031228
:1004C30001220A9C0312012201B60212012204B77F
:1004D300021201223DB70212012260B70212012269
:1004E30072B702120122B0B7021201222CB8021213
:1004F3000122F4B80212012216B902120122ADB987
:1005030002120122FFB90212012230BA02120122A1
:100513003DBA02120122A7BA02120122FEBA021246
:10052300012201BB021201223ABB021201223DBB8E
:100533000212012247BB021201229BBB02120122BB
:10054300DCBB021201220FBC021201224CBC0212BC
:1005530001224EBD02120122F2BD021201225BBE34
:100563000212012299BE02120122D8900312012223
:100573000091031201222D910312012265910312AE
:100583000122C391031201220F92031201227692D8
:1005930003120122B69203120122F39203120122E3
:1005A300219303120122CB9303120122D593031249
:1005B3000122E293031201221594031201222194D2
:1005C30003120122399403120122439403120122DC
:1005D300ABBF03120122B9BF03120122D1BF031221
:1005E3000122E8BF03120122C5C7011201226FC80D
:1005F3000112012282C901120122FEC90112012244
:100603001CCB0112012258CB01120122F3CB0112A0
:100613000122D7CC01120122A3CD0112012231CF35
:1006230001120122A2CF011201225CD00112012288
:100633004ED1011201228ED10112012242D20112A6
:10064300012274D2011201226AD401120122ACD414
:1006530001120122CAD40112012230D50112012252
:10066300FFD501120122C3D601120122E2D80112E1
:100673000122B5D6021201229FD7021201224AD8C3
:10068300021201229BD8021201224BD9021201222B
:10069300BCD902120122A1DA02120122D5DA021216
:1006A3000122CEDB021201220BDC02120122E7DC63
:1006B3000212012226DD0212012242DD0212012270
:1006C300FFB30312012283B403120122AEB4031257
:1006D3000122C8B503120122D19403120122E79427
:1006E3000312012205950312012216960312012219
:1006F3002096031201224B97031201224298031200
:100703000122AF98031201223FE3021201226FE498
:1007130002120122A6E402120122F0E402120122D3
:10072300B3E602120122E590011201227191011236
:100733000122D59201120122E192011201221C939E
:10074300011201228B9301120122949401120122BE
:100753009D9501120122649601120122C197011293
:100763000122DF9701120122FC9701120122A998AD
:10077300011201222699011201224E99011201222E
:10078300189C011201221D9C01120122369E0112A6
:100793000122849E01120122F49E01120122329F42
:1007A300011201220EA001120122CEA00112012288
:1007B3001AA1011201221DA10112012261A101123C
:1007C3000122A9A101120122E8A1011201220AA218
:1007D300011201223EA201120122A1A20112012251
:1007E30082E80212012290E802120122E3E80212D7
:1007F300012202E90212012247E9021201228BEAD5
:100803000212012226EB021201226AEB02120122DA
:1008130094EB0212012203EC0212012249EC0212B0
:100823000122C0EC0212012271ED021201221827EB
:1008330000120122282700120122C92700120122D7
:10084300252800120122E22800120122FE290012AB
:100853000122302A001201225F2A001201220C2CED
:1008630000120122832E00120122F3300012012212
:10087300E53100120122DE3200120122E5340012BA
:100883000122D937001201220839001201220C3B40
:10089300001201221C3C00120122AB3D0012012276
:1008A3009C3E00120122EA3E00120122593F00122F
:1008B30001227D3F00120122CE3F001201226F442C
:1008C30000120122704500120122D14500120122BB
:1008D300FC4500120122C246001201228184031248
:1008E30001228B8403120122D08403120122E484A7
:1008F30003120122748503120122AD850312012222
:10090300E885031201221186031201226586031270
:1009130001227A86031201229C8603120122B186E8
:1009230003120122C58603120122DA860312012271
:1009330014870312012240870312012289870312BD
:100943000122FB87031201223E88031201226888D9
:1009530003120122938803120122C17E0012012295
:10096300C99802120122AC9902120122279A02129B
:100973000122629A02120122B39B02120122419CBC
:1009830002120122D39E02120122859F021201222A
:1009930091A00212012204A2021201225DA20212FC
:1009A30001228CFB02120122CFFB0212012253FC13
:1009B300021201222AFF021201228BAF031201222B
:1009C3003DB00312012239B10312012278B103129F
:1009D3000122D2B103120122F7B5031201225AB642
:1009E30003120122F7B6031201222CB703120122CC
:1009F3005CB70312012297B703120122B7B70312A0
:100A0300012242F202120122CEF2021201228DF3DE
:100A130002120122A5F402120122BFF602120122E0
:100A2300458D021201226A8D02120122378E0212B3
:100A330001220B8F02120122788F02120122B88F3A
:100A43000212012254900212012288910212012201
:100A5300639202120122C292021201224E930212E7
:100A63000122BC93021201224894021201228E94A5
:100A73000212012200950212012292950212012212
:100A83003396021201225396021201229B960212FE
:100A93000122E496021201220097021201222697F4
:100AA30002120122A09702120122AE970212012222
:100AB3003D9802120122A69802120122F6F60212B2
:100AC30001227BF702120122BDF702120122A1F8D3
:100AD300021201220EF90212012252F9021201221C
:100AE30096F902120122C3F902120122EBF9021252
:100AF300012223FA0212012261FA0212012288FA68
:100B03000212012202FB021201224CFB02120122F9
:100B1300CDB50112012275B701120122A2B901124A
:100B23000122F6B90112012221BA01120122F3BAFC
:100B33000112012237BB011201227BBB01120122E8
:100B43008EBB01120122CFBB01120122FCBB011299
:100B530001224ABC011201228BBC01120122B9BC41
:100B6300011201220CBD01120122A3BD01120122B7
:100B73008DC001120122A3C201120122E1C201129E
:100B8300012274C401120122B9C4011201222BC52E
:100B9300011201227CC501120122B6C501120122F4
:100BA300BBC5011201225BC60112012291C70112CA
:100BB3000122A2C70112012206A30212012285A368
:100BC300021201227EA90212012284AA0212012228
:100BD300F7AB021201228EAC02120122C85B001293
:100BE3000122115C001201223E5C00120122705CA2
:100BF300001201227D5C00120122895C0012012295
:100C03009B5C00120122765D00120122D45D00126A
:100C13000122095E00120122405F001201228D5F52
:100C230000120122B15F0012012221600012012291
:100C3300E26000120122A561001201221362001278
:100C43000122D06200120122E362001201226163D9
:100C530000120122F463001201221B64001201221C
:100C6300836400120122D464001201222965001258
:100C73000122D265001201227D660012012229673A
:100C8300001201229B6700120122EF67001201226A
:100C93004F68001201227F680012012215690012B9
:100CA30001223A6A00120122826A001201229F6A1B
:100CB30000120122BE6A00120122ED6A0012012213
:100CC300026C00120122886C00120122AD6C00122A
:100CD3000122C26C00120122356D00120122766DD1
:100CE30000120122926E00120122336F00120122C0
:100CF300816F00120122EB6F0012012204700012B7
:100D03000122B8AC021201220CAD0212012218AD6D
:100D130002120122E2AD021201220FAE02120122DF
:100D23003DAE02120122A9AE02120122DFAE02126F
:100D3300012218AF0212012230AF0212012285AF45
:100D4300021201229EAF02120122E3AF021201221C
:100D5300F6AF0212012210B00212012226B00212D3
:100D6300012244B1021201226FB20212012259B3CD
:100D73000212012248B402120122F9FF01120122D8
:100D83000080021201222F8002120122F583021237
:100D930001224C850212012212860212012291873E
:100DA300021201225B8802120122AD880212012283
:100DB300C78802120122F988021201220489021251
:100DC30001224D8902120122568902120122028A4E
:100DD30002120122DB8A02120122228B0212012259
:100DE3008A8B02120122CC8B02120122FA8B02128D
:100DF3000122358C0212012279A301120122F7A6E6
:100E030001120122FDA60112012252AD011201229B
:100E13009CB10112012282B5011201220EA003121C
:100E2300012284A0031201229AA0031201222AA103
:100E33000312012267A103120122A1A103120122BD
:100E4300DBA1031201224EA2031201228FA203127D
:100E5300012298A203120122A4A203120122C3A217
:100E630003120122EDA20312012202A303120122A3
:100E730045A30312012283ED0212012296ED021211
:100E83000122B0ED02120122DDED0212012223EE56
:100E93000212012256EE0212012294EE02120122E4
:100EA300F9EE021201220EEF0212012219EF0212D1
:100EB300012226EF021201223DEF021201224BEF23
:100EC3000212012256EF0212012262EF02120122E4
:100ED30075EF0212012280EF02120122A3EF021228
:100EE300012247F00212012257F00212012271F08F
:100EF300021201228EF002120122A9F00212012233
:100F0300CEF002120122D9F002120122EEF00212F7
:100F1300012202F10212012263F10212012269F19C
:100F2300021201226FF10212012275F10212012253
:100F33008DF102120122C0F1021201222FE70112E8
:100F43000122C6E7011201225EE8011201224EE9E5
:100F53000112012285E90112012298E901120122FD
:100F630006EA01120122A1EB01120122C8EB0112D0
:100F730001226AEC011201229FEC01120122B0EC62
:100F83000112012229ED011201224AED011201226F
:100F930062ED01120122BAEE01120122C3F0011225
:100FA300012213F30112012216F40112012265F446
:100FB3000112012234700012012231710012012248
:100FC3001C720012012226720012012248720012C2
:100FD3000122547200120122A67300120122D5735A
:100FE3000012012205750012012247750012012229
:100FF3007376001201224977001201229B770012B7
:101003000122FA77001201223178001201226C7852
:1010130000120122077C00120122207C001201220F
:10102300A27C00120122B07C00120122057D001275
:101033000122137D00120122807D00120122F27D24
:1010430000120122387E00120122B2F401120122A1
:10105300D4F401120122BEF60112012263FA011235
:101063000122A6FB0112012280FC01120122C5B755
:1010730003120122EAB7031201225BB80312012211
:10108300BFBE02120122C8BE02120122D1BE021249
:10109300012202C00212012221C20212012257C2FE
:1010A3000212012291C202120122C7C202120122BC
:1010B30001C30212012235C30212012261C30212CB
:1010C3000122AAC302120122E4C3021201222CC488
:1010D3000212012282C402120122B7C402120122A7
:1010E30012C5021201224CC5021201229DC5021231
:1010F3000122D3C5021201220DC6021201223BC6F0
:10110300021201225EC60212012278C003120122DA
:10111300A4C003120122FFC00312012209C103125A
:10112300012219C103120122F9A90312012220AAE3
:10113300031201224AAA0312012278C303120122D5
:101143002E4700120122924900120122494B00123C
:101153000122A64B00120122A84C00120122304D9D
:1011630000120122B74D00120122DC4D00120122B0
:10117300D1500012012247510012012236520012AF
:101183000122705200120122B05200120122505467
:1011930000120122A55400120122F254001201226E
:1011A300605500120122865500120122A05500123B
:1011B3000122B65600120122C656001201224C58D3
:1011C300001201226C5800120122A25800120122BF
:1011D300265A00120122655A00120122A35B001253
:1011E3000122008003120122588003120122A081F0
:1011F300031201220F8203120122BE820312012273
:10120300DD82031201223183031201226F83031251
:10121300012290C403120122C2C30312012201C49A
:10122300031201227DC40312012223C103120122EE
:1012330033C1031201224EC103120122B6C10312AC
:101243000122B1BD0312012235BE031201229BBE4E
:1012530003120122A3BC03120122CABC03120122FE
:1012630020BD0312012272BD0312012273A30312D4
:10127300012288A303120122C9A40312012233A568
:1012830003120122A7A503120122C1A50312012201
:10129300D8A503120122EBA50312012203A6031210
:1012A300012218A60312012239A6031201228AA6DB
:1012B30003120122729C03120122899C0312012250
:1012C300029D03120122D79D03120122A99F03123B
:1012D3000122BFA60312012251A703120122CFA7A5
:1012E3000312012256A803120122E8A803120122C5
:1012F3003FA90312012249A90312012258A903128B
:1013030001226EA90312012281A903120122E2A97B
:1013130003120122F6A903120122C0C10312012202
:101323002AC20312012235C20312012245C203124B
:10133300012219BB0312012242BB031201226BBB20
:101343000312012204BC031201221CBC031201225A
:101353005EBC03120122ECC602120122F6C602127F
:10136300012236C7021201227FC702120122B9C726
:10137300021201220FC8021201222EC802120122F8
:10138300B3CA02120122BCCA021201220DCB0212FD
:10139300012236CB021201224BCB02120122BBCB1C
:1013A3000212012249CC021201228DCC0212012227
:1013B300B5CC0212012234CD0212012277CD0212E2
:1013C3000122B4CD02120122C6CD02120122E5CDC3
:1013D30002120122EECD02120122B3CE0212012229
:1013E3007BB903120122CCB90312012255BA0312AD
:1013F3000122BBBA03120122C7AC03120122F1ACD2
:1014030003120122EBAD031201221AAE03120122D1
:10141300A0AE03120122B4BE03120122FDB10312D6
:10142300012233B2031201226CB203120122C5B3AB
:101433000312012250C20312012266C203120122C7
:1014430070C203120122C6C203120122DFCE0212AE
:1014530001229CCF02120122D7CF02120122FFCF19
:101463000212012261D002120122ADD00212012226
:1014730018D10212012294D10212012290D2021237
:10148300012217D4021201229AD402120122FED49D
:101493000212012215D5021201220BD602120122D9
:1014A30057D602120122BB8803120122D0880312ED
:1014B3000122838903120122C38903120122DC89D9
:1014C300031201220F8A031201225C8A03120122F2
:1014D300908A03120122D28A03120122C88C0312BA
:1014E3000122EFD801120122A6DC0112012238DE0B
:1014F300011201228FDE01120122AEDE011201224E
:101503002CDF01120122BEE001120122A2E101122D
:101513000122B3E50112012287E601120122A3DDB4
:1015230002120122F4DF02120122EAE00212012276
:101533008BE20212012210E302120122D58C031264
:1015430001223D8D031201225A8D03120122478E7F
:1015530003120122AD8E031201227E8F0312012298
:101563000BC40312012251C403120122C2FF011250
:101573000122D57F00120122DCFF02E06670100811
:10158300A3E066700A08A3E066700408A3E066227D
:10159300C3E7960809E7960809E7960809E796223C
:1015A300C3E09608A3E09608A3E09608A3E096227A
:1015B300C008C3E096F50808A3E096420808A3E034
:1015C30096420808A3E09645087001D3D008220884
:1015D3000808EAC0E0EBC0E086F0E7A4FA18098641
:1015E300F0E7A42AFA180986F0E7A42AFA1809866C
:1015F300F0E7A42AFA1986F0E7A4FBE5F02AFA1922
:101603000886F0E7A42BFBE5F03AFA190886F0E721
:10161300A42BFBE5F03AFA18180986F0E7A4C5F005
:101623002BFBE43AFA1908E7C5F0C6A426F6E5F061
:101633003BFBE43AFA1886F0E7A4F6E5F00826F651
:10164300E43B08F6E43A08F6D0E0FBD0E0FA22E403
:10165300CFC0E0E4CEC0E0E4CDC0E0E4CCC0E075B0
:10166300F020E626F608E633F608E633F608E63316
:10167300F6181818EC33FCED33FDEE33FEEF33FFB1
:10168300C3EC9709ED9709EE9709EF9719191940DC
:101693000FFFEC97FC09ED97FD09EE97FE1919066C
:1016A300D5F0BFECF709EDF709EEF709EFF71919D4
:1016B30019D0E0FCD0E0FDD0E0FED0E0FF226016C0
:1016C300080808C6C313C618C613C618C613C61817
:1016D300C613C6D5E0EA2270090808082260161866
:1016E3001818C6C333C608C633C608C633C608C6E9
:1016F30033C6D5E0EA22E627F60809E637F60809F5
:10170300E637F60809E637F622E026F608A3E036C0
:10171300F608A3E036F608A3E036F622E026F00842
:10172300A3E036F008A3E036F008A3E036F022C3C6
:10173300E697F60809E697F60809E697F60809E634
:1017430097F622C3E096F008A3E096F008A3E0968C
:10175300F008A3E096F022E056F608A3E056F60858
:10176300A3E056F608A3E056F622E056F008A3E0FD
:1017730056F008A3E056F008A3E056F022E0F6087E
:10178300A3E0F608A3E0F608A3E0F622E6F008A338
:10179300E6F008A3E6F008A3E6F022E0FAA3E0FBF4
:1017A300A3E0FCA3E0FD22E0F8A3E0F9A3E0FAA3A1
:1017B300E0FB22E8F0A3E9F0A3EAF0A3EBF022CAEE
:1017C300C0E0E6F0A308DAFAD0E0FA22CAC0E0E00B
:1017D300A3C582CCC582C583CDC583F0A3C582CC06
:1017E300C582C583CDC583DAE6D0E0CA22C3E498B7
:1017F300F8E499F91218318026C3E49AFAE49BFBC2
:10180300E920E7E9121831E498F8E499F922C3E4EE
:1018130098F8E499F9121831E498F8E499F9C3E4D3
:101823009AFAE49BFB22EB20E7CFE920E7E0B9003B
:1018330010BB0008E88AF084F8AAF022E4FBC8FA97
:1018430022EB70227B10C833C8C933C9335007C396
:101853009AC3DBF280069A50012ADBEAC833F4C844
:10186300C933F4C9FA2275F008E4C833C8C933C9C7
:1018730033C99AC99B5004C92AC93BD5F0ECFBC8AC
:1018830033F4C8E4C9FA22600D08C6A2E713C618E8
:10189300C613C6D5E0F322600C08C6C313C618C628
:1018A30013C6D5E0F422700422600D18C6C333C6F4
:1018B30008C633C6D5E0F41822251810AF08F5186A
:1018C300400C15198008F51840021519D2AF2200F3
:1018D300C0D0251810AF08F518500C05198008F56D
:1018E3001850020519D2AFD0D0222518F58210AFB7
:1018F30008F518400C15198008F51840021519D27F
:10190300AF851983222518F582E43519F58322253D
:1019130018F8E43519F9222518FAE43519FB2225BC
:1019230018FCE43519FD22E4732518C582C0E0E5EF
:101933001934FFC583C0E0E518C3958224F810AFBE
:10194300088583198582188008858319858218D2B2
:10195300AFCEF0A3E520F0A37808E608F0A3DEFA03
:10196300EFF0A3E58124FAF8E608F0A3E608F0A374
:10197300E608F0A30808E608F0A3E608F0A315813B
:101983001581D0E0FED0E0F8158115811581E8C0FE
:10199300E0EEC0E0222518C582C0E0E51934FFC59A
:1019A30083C0E0E518C3958224F910AF0885831935
:1019B3008582188008858319858218D2AFCEF0A35B
:1019C300E520F0A37808E608F0A3DEFAEFF0A3E53C
:1019D3008124FBF8E608F0A3E608F0A30808E6086C
:1019E300F0A3E608F0A315811581D0E0FED0E0F85E
:1019F30015811581E8C0E0EEC0E0228519838518C2
:101A030082E0A3FEE0A3F5207808E0A3F608DFFA5E
:101A1300E0A3FFE0A3C0E0E0A3C0E0E0A3C0E0E0F8
:101A2300A3C0E0E0A3C0E010AF0885821885831946
:101A33008008858218858319D2AFD083D0820201B2
:101A43001F851983851882E0A3FEE0A3F52078089B
:101A5300E0A3F608DFFAE0A3FFE0A3C0E0E0A3C041
:101A6300E0E0A3C0E0E0A3C0E010AF0885821885E2
:101A730083198008858218858319D2AFD083D082D9
:101A830022C0D02518C582C0E0E51934FFC583C044
:101A9300E0E518C3958224F310AF08858319858286
:101AA300188008858319858218D2AFC8F0A3E9F09E
:101AB300A3EAF0A3EBF0A37908E709F0A3D8FAECC3
:101AC300F0A3EDF0A3EEF0A3EFF0A3D0E0F0A3D0EA
:101AD300E0F0A3D0E0F0A3E520F0A3E5F0F0A3222B
:101AE300851983851882E0C0E0A3E0F9A3E0FAA397
:101AF300E0FBA37808E0F608A3DFFAE0FCA3E0FD2F
:101B0300A3E0FEA3E0FFA3E0C0E0A3E0C0E0A3E006
:101B1300F5D0A3E0F520A3E0A3F5F010AF0885838B
:101B2300198582188008858319858218D2AFD082DF
:101B3300D083D0E0F8D0E0327404800674028002CF
:101B43007401C0E0F4041218EDD0E01217C222743D
:101B530004800474028000CCC0E0EDC0E0E518C34B
:101B63009CCCAD1950011D10AF068C188D19800641
:101B73008C188D19D2AF1217CFD0E0FDD0E0FC2224
:101B8300D083D082E9C0E0E493A3C386F0C5F09587
:101B9300F0F908E493A386F0C5F095F0700BE49395
:101BA300A3C3994005E9048002A3E475F002A425C8
:101BB30082F582E5F03583F583D0E0F9E493A3C0A1
:101BC300E0E493C0E022D083D082ECC0E0EDC0E03B
:101BD300E493A3FCE493A3FDED4C600D121C15EC00
:101BE30024FFFCED34FFFD80EFE493A3FCE493A317
:101BF300FDED4C600D121C54EC24FFFCED34FFFD95
:101C030080EFD0E0FDD0E0FCE493A3C0E0E493C018
:101C1300E022C0E0C3E49396087401939618400F42
:101C2300E49366700808740193661870007019A332
:101C3300A3C3E49396087401939618A3A3400DD00D
:101C4300E0D0E0D0E0021C05A3A3A3A3A3A3D0E0AC
:101C530022C0E0C0F088F0E4936670080874019332
:101C630066187000A8F0A3A3700BD0F0D0E0D0E00A
:0C1C7300D0E0021C05A3A3D0F0D0E022BA
:101C800074F6121998EAFEEBFF8C088D09EE2434E5
:101C9000F8E43FF9E8FCE9FD121DB3E0FAEE243761
:101CA000F582E43FF583E0F88508F0A4C885F00AE2
:101CB0008509F0A4250AF9EA28F8E439F97A257BA0
:101CC00000121831EA8C828D83F0FA131313541F1B
:101CD000F8EE28F8E43FF9E8245DF582E439F5836D
:101CE000E0C0E074075AF8D0E0B800028004C313E3
:101CF000D8FCA2E05003EA8020EE2436F582E43FCF
:101D0000F583E0F5F0EA84A8F0EE28F8E43FF9E87E
:101D10002438F582E439F583E0F97F03021A44742C
:101D2000F5121998EAFEEBFFEE2434F582E43FF554
:101D300083E0C0E0121DB3D0E0F08E828F83A3A3B6
:101D4000A3A3A3E0FAA3E0FB8E828F83A3A3A3A3A4
:101D5000A3A3A3E0FCA3E0FDECC39AF50AED9BF579
:101D60000BEE247FF508E43FF509850882F583E052
:101D70006401702AEE2480F582E43FF583121B563D
:101D8000121DBD74021218D2E960137CB07D04EEFE
:101D9000FAEFFB120C96850882850983E4F0AC0A01
:101DA000AD0BEEFAEFFB121C80E9F912261B7F0443
:101DB000021A44EE2435F582E43FF58322C082C046
:101DC00083851882851983E0F8A3E0F9C3EA9CEBC8
:101DD0009D5010C3EC98ED99401BC3EA98EB9950C5
:101DE00014800EC3EA98EB994007C3EC98ED994034
:101DF00004790180027900D083D08222EAC39CFA60
:101E0000EB9DFB2274ED121998900376E064086054
:101E100005E06407702C9061C8E060269003A4E0A0
:101E2000F874FF68601CE875F00AA4C8AAF02AF9E3
:101E300074A628FE740339FF8E828F83A3A3A3E0C8
:101E400070057900021F9DEE2468F50EE43FF50F42
:101E5000906060E0850E82850F83F075102075110B
:101E600005750800750900E5D914F50AE5D954038C
:101E7000F50B601FEE2482F50CE43FF50D7403654D
:101E80000B6059E50A6017EE2467F582E43FF5839D
:101E9000E0700B793DEEFAEFFB120CC680A49005C2
:101EA0001BE064016023850C82850D83E060047A69
:101EB0000480027A00E50AC39AFA95E0FB120B222D
:101EC0008A088B09EA45097006120F1E021E428518
:101ED0000C82850D83E070048A108B117A008014C7
:101EE000E5D9C0E0EAF8E51028F582E43511F5837C
:101EF000D0E0F00AEAC3950A40E6850C82850D839E
:101F0000E0602874FC250AF50A7810121B3FAC0A21
:101F1000A90BEEFAEFFB120D7474021218D2E970DD
:101F20000AAA08AB091213E6021E937403650B603C
:101F300054850A0C750D00780C121B3FAC10AD11C6
:101F4000AA08AB09120D3874021218D2850E8285C8
:101F50000F83E0F87480687005750C7F8002880C30
:101F6000E50CF50D780D121B43780B121B43A90AE3
:101F7000AC08AD099003A4E0FA7B0012095A740280
:101F80001218D28013900376E06408600BAC10AD99
:101F900011EEFAEFFB120E0A120F2A79017F0C02E2
:101FA0001A4474F312199874FC1218BCEAFEEBFF81
:101FB0008909A2AFE433F508C2AFEE2463F50AE461
:101FC0003FF50B8010AA0AAB0B120CF01213E6902F
:101FD00004B7E004F0850A82850B83E0F8A3E0F9FA
:101FE000E849602DE82402FAE439FBEA2402F50C02
:101FF000E43BF50D780C121B3F8A828B83E0FCA337
:10200000E0F9EEFAEFFB120CE474021218D2E96068
:10201000B49004B7E0604D9004B8E0F89004B7E0E5
:10202000C398500C74026509703A9004B9E06034AA
:102030008E828F83A3A3A3A3E085188285198312C0
:1020400020747402121908E81220749004B6E02873
:10205000F07402121922AA18AB1979011209AE9074
:1020600004B7E4F0E508A2E092AF74041218D27F3E
:1020700006021A44F0A3E4F09004B7E0F82200004E
:102080008521878522C622C0E074EB121A84A2AF94
:10209000E433F508C2AF759B00906182E0A2E05086
:1020A00030E591A2E0502A7591FE740165217021FE
:1020B00012221A120E64122208121B521223C57425
:1020C000041218D2E9640170057901120EB2121ED1
:1020D00004906182E0A2E5505DE591A2E55057755C
:1020E00091DF900376E064076005E06408702F12CA
:1020F000221A74016521703E120E64122208121B0E
:10210000521223C574041218D2E9640170057901D2
:10211000120EB27901EEFAEFFB121FA28018E064F2
:102120000D7013900398E004F064287002E4F07AD4
:1021300000E0F9120F30906182E0A2E64003022134
:10214000DDE591A2E640030221DD7591BF900376A3
:10215000E064057008120E4C120E588003120E52E5
:10216000752100120EBEE9900377F07900120EB2CD
:10217000120C007A017B00900375E0F91213B690FF
:102180007803E06442705690051FE014F0704EC270
:10219000AF12219400782AD0E0F618D0E0F6E59F3F
:1021A0005407F87005750DFF8003750D7FC4C0E0FE
:1021B0007829E6F50A08E6550DF50B740B780A1236
:1021C000189AD0E0250AF8906270E0A2E740F8E89B
:1021D000C333906272F0906270E0D2E0F09061815F
:1021E000E0A2E35009E5E9A2E3500375E9F7A3E0B3
:1021F000A2E75009E591A2E7500375917FE508A297
:10220000E092AF7F08021AE38E828F83E0F8A3E0AA
:10221000C82416F582E438F583229003A4E0F8750B
:10222000F00AA4C8AAF02AF974A628FE740339FF9C
:1022300022C0E0C0D0C082C083906183E0A2E050A1
:1022400009E5BFA2E0500375BFFEE0A2E15009E539
:10225000BFA2E1500375BFFDE0A2E25009E5BFA2B5
:10226000E2500375BFFBE0A2E35009E5BFA2E350D3
:102270000375BFF7E0A2E45009E5BFA2E45003757F
:10228000BFEFE0A2E55009E5BFA2E5500375BFDF4F
:10229000E0A2E65009E5BFA2E6500375BFBFD083B8
:1022A000D082D0D0D0E032C0E074F2121A84E5A718
:1022B000A2E4500FE5A1A2E4500953A7EF75A1EFE6
:1022C0001222FBE5A7A2E5500CE5A1A2E5500653BA
:1022D000A7DF75A1DFE5A7A2E15009E5A1A2E150C2
:1022E0000375A1FDE5A7A2E2500CE5A1A2E250060C
:1022F00053A7FB75A1FB7F01021AE374F81219982A
:10230000752101900376E0640670077A007B001265
:102310000E34A2AFE433FED2AF90037CE0640170D0
:10232000187A207B00900375E0F91214CA7A207B9A
:1023300000900375E0F91213BC906182E0D2E6F0E0
:1023400090051CE0602185C622801690037BE06426
:10235000017008E5C654F84405F5C653BEFC1220CA
:10236000807401652160E4EEA2E092AF7F01021A61
:10237000440000008E238F248582288583278518BA
:1023800082851983E0CEA3E0CF852882852783EB61
:10239000C9EAC8EDCBECCA75F010C3E833C8E9331D
:1023A000C9EA33CAEB33CBC3EA9EF526EB9FF5258A
:1023B000B35004AB25AA26EC33CCED33CDD5F0DAFF
:1023C000AE23AF242274F11219988A088B098C0A63
:1023D0008D0B909030780812175A740F12190878E4
:1023E0000C121780909030780C12175A7808790CDC
:1023F00012159390904450107808790C1217327887
:10240000081215B34014800E780C79081217327830
:102410000C1215B350047901800279007F08021A6A
:102420004474ED1219988A088B098C0A8D0B9090D0
:1024300030780812175A7413121908780C12178082
:10244000909030780C12175A780C79081215934036
:10245000117808790C121732AA08AB09AC0AAD0B37
:102460008022751000751100751200751301781027
:10247000790C121732781079081216F9AA10AB11DC
:10248000AC12AD137F0C021A4490903078081217EA
:10249000808A828B83780812176D7F04021A447435
:1024A000F51219988C828D8378081217808A828B96
:1024B0008378081217461224F3C3E098F0A3E0993A
:1024C0001224E5401E90906C78081217808A828B47
:1024D00083780812171F8E828F83E02420F0A3E0F8
:1024E000344EF080A4F08E828F83C3E09420A3E06A
:1024F000944E22EA2404F8E43BF9E8FEE9FF8C82DA
:102500008D83A3A3A3A3E0F8A3E0F98E828F832297
:1025100074F5121998E9FE9004D2E0FAA3E0FBEEFC
:1025200029F8E433F9742028F582748F39F583E0B3
:102530002AF508A3E03BF5097808121B3F90905854
:1025400012179E12237474021218D28A088B098CF7
:102550000A8D0B741078081216C1AA08AB097F0403
:10256000021A4474F11219988A0C8B0D8C0E8D0F7F
:102570007411121908121B567411121908E0240163
:10258000F508A3E03400F509E4F50AF50B780C79B9
:10259000081215D29090407808121780780C7908AC
:1025A0001215D2AA0CAB0DAC0EAD0F12237474022F
:1025B0001218D28B09EA450960047A0180027A0078
:1025C000EC2AFCE43DFD7413121908E0F8A3E0F9CD
:1025D000E8FEE9FFECF8EDF97A717B021218318818
:1025E000088909E4F50AF50B8E828F8378081217A3
:1025F0008FECF8EDF97A717B021218318A088B0999
:10260000740578081218A98E828F83A3A3A3A3E56B
:1026100008F0A3E509F07F08021A44C082C083E9EC
:10262000906000F0D083D08222C0E074F2121A844D
:10263000A2AFE433FED2AFC2C0E5D1A2E45006752A
:10264000D10F121314EEA2E092AF7F01021AE3C081
:10265000E074F2121A84A2AFE433FED2AFE589A28D
:10266000E04006E589A2E150031212667589007503
:102670008900C2C5EEA2E092AF7F01021AE3C0E07A
:10268000C0D0E8C0E0E9C0E0A9A8D2AFC2C7E9A2C3
:10269000E7E433F8E9A2E792AFD0E0F9D0E0F8D070
:1026A000D0D0E032C0E0C0D0E8C0E0E9C0E0EAC08D
:1026B000E0C082C083A2AFE433FAD2AF9009BFE09A
:1026C000F8A3E0687008539AFBA374018022C2E962
:1026D0009009BFE0F8740128F0743F28F582E434D3
:1026E00009F583E0F5C19009BFE0C394804002E49E
:1026F000F0EAA2E092AFD083D082D0E0FAD0E0F945
:0E270000D0E0F8D0D0D0E032C2AF020000220C
:10271000FFFFFFFFFFFFFFFFC082C083E990177D2F
:10272000F0D083D08202011F74F612192CE99002B6
:10273000E8F0900348E0F508750900740278081283
:1027400018A9AA08AB091214289002E91230DB90EC
:1027500002E91234C8606F900348E075F003A4FAF0
:10276000ABF01214289003061230DB9003061234EB
:10277000C8700B9002E912349912142E804890030D
:102780000612442D7AFF7BFF1211E27A0080198A2B
:1027900008750900740278081218A9123ED574FF52
:1027A0001228DBE4F0A3F00A900348E0F8EAC398AB
:1027B00040DD79051208469002E8E0F91207327A06
:1027C000D07B08120AC2023F7874F412192C8A08CE
:1027D0008B09EB548060479002E8E0F912139E8A5F
:1027E0000A8B0BAE0AAF0BEE4F602A8E828F83E00E
:1027F00064B0701A120858E960148E828F83A3A304
:10280000A3A3E0F9EE2405FAE43FFB120828EEFA50
:10281000EFFB12138CAA08E5096480FB80047A00A0
:102820007B00022A2B74F212192C74FB1218BCEADA
:10283000FEEBFFEE4F60457403121908EEF0A3EFB4
:10284000F0851882851983ECF0A3EDF0740212195B
:1028500008E9F0AA18AB1912072CE9F5087075748D
:1028600013121908E0F50AA3E0F50BE50A450B6021
:10287000638E828F83122E64EE4F7005750802807E
:10288000537A067B001214288A0C8B0DA80CA90D14
:10289000E8497005750813803B88828983E4122813
:1028A000DBEEF0A3EF1229F7E50AF0A3E50BF090B9
:1028B00002EC1229F09002EC6017E0FCA3E0800328
:1028C000EAFCEBFD8C828D831229F070F38C828DF3
:1028D00083123AF0A90874050246ADF0A312440F22
:1028E000A32274F212192C8908890C750D00740347
:1028F000780C1218A9850C0A850D0B9002EBF0904C
:1029000002E91238FB1229EE602E12142E79008093
:102910001D890C750D007402780C1218A99002E93B
:10292000123D948882F583A3A3E4F0A3F0099003F9
:1029300048E0F8E9C39840D9900348E0FA850AF0E6
:10294000A4CAA8F0850BF0A428FB1214288A0C8BCB
:102950000DAE0CAF0DEE4F70030229E4900348E07A
:10296000FC850AF0A4CCA8F0850BF0A428FD790022
:102970001213747C0080318D0C750D007403780C7B
:102980001218A98A828B831229E988828983E4F04C
:102990001229F6A3A3F0A3F00DEDC3950840D8EEDD
:1029A000250AFEEF350BFF0C900348E0F8ECC398C6
:1029B00050288C0C750D007402780C1218A9900226
:1029C000E91229E9E82402500109FAE9FB8A828B1D
:1029D00083EEF0A3EFF07D0080BFE5089002EBF0FE
:1029E0007900800279130246B0123D98F922A3A320
:1029F00012349DEA4B22A312440FA3A3A32274F422
:102A000012192C7900EAA2E0501F75080A75099086
:102A10007808121B3F79107C047D007A7F7B1712A7
:102A2000084074021218D2E9F980007F040219FEEE
:102A3000C082C0839002EC1234C8601C88828983F3
:102A4000A3A3E06A7003A3E06B8882898370E8A384
:102A5000A3A3A312349980047A007B000227217477
:102A6000F212192C74FD1218BCEAFEEBFF851882D5
:102A7000851983E4F0A3F074021219087401F012AE
:102A800034C570141209FC1214289002EF1230DBC6
:102A90001234C57003022BF11231DBEE2404F50A67
:102AA000E43FF50B850A82F583E024FE603C24FCBC
:102AB000607424FE607E24FE7003022B4124FE70AD
:102AC00003022B4E24FE7003022B5B24FE700302D4
:102AD0002B6824FE7003022B7524FC7003022B96D6
:102AE00024FE7003022BAE022BEA1209FC9002F1C5
:102AF000EAF0A3EB122BFD120474E96003022BEA47
:102B00009002F1121B568E828F83A3A3A3A3A3125C
:102B1000442D8508828509831234991208107402A5
:102B20001218D2022BEAAC18AD19EEFAEFFB12081C
:102B30005E022BB9AC18AD19EEFAEFFB12086480F7
:102B400078AC18AD19EEFAEFFB12086A806BAC187E
:102B5000AD19EEFAEFFB120870805EAC18AD19EEFD
:102B6000FAEFFB1208768051AC18AD19EEFAEFFBC4
:102B700012087C80447402121912880C890D780C9A
:102B8000121B3F7402121922EEFAEFFB1208827434
:102B9000021218D28023AC18AD19EEFAEFFB12081E
:102BA00088E9F870167402121908E4F0803CAC1839
:102BB000AD19EEFAEFFB12088EE9F8E8602C8E8270
:102BC0008F83A3E064146022850A82850B83E090E2
:102BD00002F1F08518828519831234999002F2125D
:102BE00030DBE8A3122BFD12046EEEFAEFFB1207A6
:102BF000E67402121908E0F974030246ADF07CF1A4
:102C00007D0285088285098312349D2274E8121999
:102C10002C74FA1218BC7404121908ECF0A3EDF02D
:102C20008A128B13EA2405F50EE43513F50FEA2416
:102C300002F510E43513F511851082F583123499ED
:102C40001205648A0A8B0B7508007C037D007900ED
:102C50007AF17B02121374E50E2402F516E4350FA7
:102C6000F5177402121912880C890D780C121B3F8B
:102C7000850E82850F83A3A3A3A3E0F50C750D0039
:102C8000780C121B3FE50E2405F50CE4350FF50D0D
:102C9000780C121B3F8516828517831237A0120706
:102CA0004A74061218D28A0C8B0DE50C450D700380
:102CB000022E2D8020851882851983E088828983E1
:102CC000F00508851882851983A3E0C0E0122E6EF6
:102CD000D0E0F00508E50A24FBFAE50B34FFFBC35E
:102CE000E5089AE49B4003022E2D7E007F008512AA
:102CF00082851383A3A3A3A3E0F5097809121B43DC
:102D0000E4F514F5157814121B3F7514EE751502D1
:102D10007814121B3F9002EF121B56740912190807
:102D2000121B56E50A24F9F9AC0CAD0D851082850D
:102D300011831234991208B874091218D2E9600389
:102D4000022DCE850E82850F83A3A3A3A3A3A3A3E5
:102D5000E0F89002EEE0687075E0F5148E157814D6
:102D6000121B3F12442A850E82850F83A3A3A3A3BF
:102D7000A3A3A3A312349912136E74021218D2E9FA
:102D8000604C9002F21234C8703BE4F514781412CF
:102D90001B3F7CFF7DFF79078510828511831234EC
:102DA0009912082274021218D21234CE7017850EAE
:102DB00082850F831245C77404121908123E8812C7
:102DC00037D1022E61850C82850D83122E64A818DE
:102DD000A919881489157814121B3F740412190854
:102DE000121B568516828517831230D1120756742E
:102DF000041218D28A0C8B0DEE4F7003022CAA120B
:102E00002E6EEE122E79123787EF122E79F8A3E08C
:102E10003400F9E50C450D6003022CB588828983E6
:102E200074FFF00508122E6E74FFF00508E50860C7
:102E30001A1313543F1230E1120480E96009900222
:102E4000F21234991213E679008016850E82850FEE
:102E5000831245C77404121908123E88123AF07999
:102E60000A02375AA3A3A3A3E0FEA3E0FF22A80807
:102E70009002F2E02812378722F00508089002F24B
:102E8000E0282274E812192C74FA1218BC74021289
:102E900019081230DB7404121908ECF0A3EDF07479
:102EA00002121908E02405123770E0F50CA3E0F5D2
:102EB0000D7402121908E02402F510A3E03400F5A5
:102EC00011851082F5831234991205647508007516
:102ED0000900EA24FCFEEB34FFFF8008050CE50C3A
:102EE0007002050DA808C3EE98EF9400500302305D
:102EF0008DA818A919880E890F780E121B3F85140A
:102F000082851583A3A3A3A3124431121B3FE514AA
:102F10002405F50EE43515F50F780E121B3F8514C8
:102F2000828515831230CF12074A74061218D28A8E
:102F30000E8B0FEA450F700302308DEA2404F5165C
:102F4000E4350FF517851682F583E0F50CA3E0F55F
:102F50000D85188285198312442D8A828B83A3A341
:102F6000A3E0F9851082851183123499120738E99C
:102F7000F509600302308D7402121908123797F5B3
:102F8000097809121B43E4F512F5137812121B3F5E
:102F90007512EE7513027812121B3F9002EF121B8E
:102FA000567407121908121B56EEF9AC0EAD0F85B8
:102FB00010828511831234991208B874091218D23C
:102FC000E9F509600302308DE508703FE4F50EF580
:102FD0000F780E121B3F7CFF7DFF790985108285DB
:102FE000118312349912082274021218D21237BDBA
:102FF000700D74041219081230C479110230C19096
:1030000002EEE024029002F2F080149002F2E0FA64
:103010009002EEE0790024025001096A497072A81A
:10302000089002EEE0FAE82AFAE43400FBEE9AEFA8
:103030009B405A851682851783E0C0E09002F31208
:103040002E73D0E0F00508851682851783A3E0C0B3
:10305000E0089002F3122E73D0E0F005089002EE23
:10306000124431121B3F12442AA80812376412136B
:103070005C74021218D29002EEE02508F50874FF85
:10308000650C700474FF650D6003022EDCE50860BA
:103090001F9002F2E0F5F0E508841230E112048698
:1030A000E960099002F31234991213E67900801155
:1030B000E509700375090A74041219081230C4A9CD
:1030C0000902375A1238FFE50CF0A3E50DF022A3F0
:1030D000A31246BCAA0CAB0D22A3A3EAF0A3EBF00B
:1030E000229002F1F07CF17D02851082851183121D
:1030F000349D2274EC12192C74FC1218BC123C0082
:1031000074021219221234931207508A0C8B0DEAA2
:10311000450D70030231CB1231DBA818A9198810B4
:1031200089117810121B3F7CFF7DFF790B85088287
:1031300085098312349912082274021218D21232AD
:10314000D1700C850A82850B831237CE0231D88E5E
:10315000828F83A3A3A3A3E0F5127812121B43E48A
:10316000F512F5137812121B3F7512F175130278E0
:1031700012121B3F7810121B3F7409121908121B00
:10318000567409121908E0F9AC0CAD0D850882855A
:1031900009831234991208B874091218D2E9FE7022
:1031A000157CF17D02850882850983123499120409
:1031B0008CE97009802074166E70027E009002F215
:1031C0001234991213E6EE7004800B7E01850A8298
:1031D000850B83123AEDEEF9023B02EE2402F5086C
:1031E000E43FF5092274EC12192C74FC1218BCEAA5
:1031F000FEEBFF8C0E8D0FEE2405F508E43FF5097C
:1032000074021219228508828509831234991207E3
:10321000508A0C8B0DEA450D70030232C1EE240278
:10322000F50AE43FF50BA818A91988108911781040
:10323000121B3F7CFF7DFF790D123493120822741C
:10324000021218D21232D1700B85088285098312BE
:1032500037CE807A8E828F83A3A3A3A3E0F5127862
:1032600012121B43850882850983A3A3121B56757E
:1032700012F17513027812121B3F7810121B3F7463
:1032800009121908121B567409121908E0F91234B0
:103290008F1208B874091218D2E9FE700F7CF17D04
:1032A00002123493120492E97009802074166E7031
:1032B000027E009002F21234991213E6EE7004803E
:1032C0000B7E01850882850983123AEDEEF9023BF7
:1032D000021234D8F510A3E0F511EA45112274E882
:1032E00012192C74FE1218BC8A168B178C148D15AB
:1032F000EA2405F50CE43517F50DEA2402F50EE491
:103300003517F50F850E82F5831234991205648AFC
:10331000088B09750B007C037D0079007AF17B0234
:10332000121374750A00E50814F5100424FFF5085B
:10333000E50934FFF50980549002F1E0FA9002EEBD
:10334000E0F8EA28F8E43400F9E50898E50999502E
:103350000D9002F1E0F8E510C3989002EEF0E0F570
:10336000127513007812121B3F12442A9002F2E0E9
:103370002AFAA3E03400FB12135C74021218D290F4
:1033800002EEE0F89002F1E028F0050A850C828553
:103390000D83A3A3123DA440030234749002F1E014
:1033A000C39508E495094003023474AE0AEE2EFE7C
:1033B000E433FF1234B3AC18AD19124445E439FBC1
:1033C0001207508A128B13AC12AD13EC4D701B75A3
:1033D0000B011234A3123AF19002F21229F06003A9
:1033E0001213E6A90B740202375C851682851783D7
:1033F000A3A3A3A3E0F50B780B121B43E4F512F58E
:10340000137812121B3F7512EE7513027812121BFD
:103410003F9002EF121B567407121908121B56A98F
:1034200010850E82850F831234991208B874091220
:1034300018D2E9F50B709B9002F21234C8600302B7
:103440003338E4F512F5137812121B3F7CFF7DFF31
:10345000790F850E82850F83123499120822740227
:103460001218D21234CE60030233381234A312374A
:10347000D20233E57CF17D02850E82850F83123402
:1034800099120498E960030233D879000233E5AC5D
:103490000CAD0D850A82850B8312349D22E0FAA3C0
:1034A000E0FB221234B3E0FAA3E0F9EA8514828546
:1034B000158322850C82850D83E02EF8A3E03FF969
:1034C00088828983229002EF1245CBE84922123488
:1034D000D8F8A3E0F9E849229002F2EAF0A3EBF071
:1034E0009002F2E02274E812192C74FA1218BC74DB
:1034F000041219081230DB8C168D17740412190887
:10350000E02405F50EA3E03400F50F740412190849
:10351000E024021237701234991205648A0A8B0B68
:103520007F007E00A818A919880889097808121B4D
:103530003F850E82850F83A3A3A3A3E0F5088E0920
:103540007808121B3FE50E2405F508E4350FF50950
:103550007808121B3F850E82850F83A3A31237A024
:1035600012074A74061218D28A0C8B0D8029123762
:1035700091F00F123791F00F9002EE123ADC121B0D
:103580003F12442AEFF812376412135C74021218C7
:10359000D29002EEE02FFFE50C450D7003023620BD
:1035A000851882851983123C12A3A3A3E0F9851420
:1035B00082851583123499120738E9FEE50C24043C
:1035C000F510E4350DF511EE70507404121908125F
:1035D0003797F5087808121B43E4F508F5097808D1
:1035E000121B3F7508EE7509027808121B3F900206
:1035F000EF121B567407121908121B56E50A24FA1B
:10360000F9AC0CAD0D85148285158312349912081E
:10361000B874091218D2E9FE60391237AD123AF0C7
:10362000EF70030237479002F2E0F5F0EF8490026A
:10363000F1F07CF17D028514828515831234991294
:10364000049EE960099002F31234991213E679009E
:1036500002375A8F08EF703BE4F512F51378121217
:103660001B3F7CFF7DFF7911851482851583123401
:103670009912082274021218D21237BD700912373B
:10368000AD1237D102375A9002EEE024049002F2D4
:10369000F080359002EEE0F89002F2E0FAE82404BF
:1036A000FCE43400FDEC6A4D6003023626E50A2492
:1036B000FAFAE50B34FFFBE50828F8E43400F9EAF0
:1036C00098EB995003023626851082851183E0C05D
:1036D000E09002F3E02FF8A3E034008882F583D075
:1036E000E0F00F851082851183A3E0C0E012377EE1
:1036F000D0E0F00F740212191288088909780812B4
:103700001B3F7402121908121B56850E82850F8307
:103710001230CF12075674041218D28A0C8B0DEA9D
:10372000450D700302356E7402121908E0C0E012F4
:10373000377ED0E0F00F7402121908A3E0C0E01247
:10374000377ED0E0023576EE70027E0A850E8285E5
:103750000F831237B3123AF0EEF974061218D27FC3
:10376000100219FE9002F3E028FAA3E03400FB22D5
:10377000F514A3E03400F515851482F58322123781
:1037800082229002F3E02FFAA3E034008A82F583CC
:103790002212378274FF221238FFA3A3A3A3E022D0
:1037A0001246BC850E82850F8312349D22851082BD
:1037B0008511831245CB851682851783229002F3EB
:1037C000EAF0A3EBF09002F31245CBE84922123A5B
:1037D000F6E8F0A3E9F079112274EA12192C74FECC
:1037E0001218BC8A088B098C128D13EA2405FEE49A
:1037F0003509FFAC18AD198E828F831234991207E8
:10380000508A0C8B0DEE2406F50EE43FF50FEA45C9
:103810000D70030238D1E5082402F50AE43509F5F4
:103820000B8A828B83A3A3A3E0A2E550288518828C
:103830008519831234991208AC8A108B11EA45114C
:103840006020791212348F85108285118312192A13
:10385000E9F50C707F850E82850F83E0600979524F
:103860008011750C0E806D850882850983A3A3A342
:10387000A3E0F9E4F508F5097808121B3F8E828F62
:1038800083A3A3E0F5087808121B3F8E828F83A3E1
:10389000A3A3121B568E828F8312442D12349312CF
:1038A00008BE74061218D2E9F50C7011850E8285D7
:1038B0000F83E0702D1234931204A48025741665D2
:1038C0000C7011750C0074181219081238FBE48082
:1038D00010750C011245C3851282851383E8F0A38D
:1038E000E9F0850E82850F83E0600479008002A9EB
:1038F0000C74021218D27F0E0219FE1238FF22E059
:10390000F8A3E0F58388822274EC12192C74F71264
:1039100018BC8A0A8B0B8C108D11EA2405FEE43545
:103920000BFF750C00AC18AD198E828F8312349981
:103930001207508A088B09EA45097003023AC7E565
:103940000A2402F50A5002050B8A828B83A3A3A3E3
:10395000E0A2E5502F851882851983123499120848
:10396000AC8A0C8B0DEA450D604F7912AC08AD099D
:10397000123493850C82850D8312192AE9F50C60A7
:1039800003023ACA850A82850B83E0F508A3E0F5B5
:1039900009AA08FB1208A0EA4B70197AFF7BFF12F4
:1039A00008A0EA4B7003023ABD8A828B83E508F0D7
:1039B000A3E509F07508008008750C0E023ACA05E7
:1039C000089002EBE0F8E508C3984003023ABD8591
:1039D000080E750F007403780E1218A98A828B8363
:1039E000A3A3E0250EF8A3E0350F123E9170D08E10
:1039F000828F83123AE51230DB8E828F83A3A3126B
:103A00003AE51230D9EE2404F508E43FF5098508BB
:103A100082F583E088828983A3A3A3A3F0A3E4F0C3
:103A2000EE2405F50EE43FF50F850E82F583123A7C
:103A3000E5A3A3A3A31230D975120775130078125A
:103A4000121B3FEEFCEFFD740412191A12135C7482
:103A5000021218D2E4F5127812121B3F85088285F3
:103A60000983E0FC7D007917123493120822740256
:103A70001218D274071219081230DB7407121908D1
:103A8000E0FA4B603D850882850983123ADC121BFF
:103A90003F850E82850F8312442D12135C7402122F
:103AA00018D274021219221234931204AAE9602661
:103AB00074071219081234991213E68019750C094B
:103AC0008008750C118003750C011245C3851082A6
:103AD000851183123AF0A90C74098028E0F5087565
:103AE000090078082212349D8882898322123AF6CE
:103AF000E8F0A3E9F022E0F8A3E0F9850E82850F53
:103B0000832274041218D27F0C0219FE74EC12196D
:103B10002C123C00751000EE2402F50CE43FF50D6C
:103B2000850C82F5831234991208A08A088B09EA61
:103B300045097003023BE4850A82850B83E064013A
:103B40006003023BD9AC08AD09AA0AAB0B1208947A
:103B5000E9606E850882850983122E66EE2406F5DB
:103B60000AE43FF50B8E828F83A3A3121B568E822D
:103B70008F83A3A3A3A3121B56850A82850B8312EE
:103B80001B5679188E828F83123C121234991208B8
:103B9000BE74061218D2E9F8741668700B850A8292
:103BA000850B83E4F0A38014E860128E828F831269
:103BB0003499850E82850F83EAF0A3EBF08810809C
:103BC00018780E121B3FAC08AD09EEFAEFFB120895
:103BD0009A74021218D2E9F510AA08AB091208A6C5
:103BE000E510700E850C82850D831234991204B095
:103BF0008009741665107003751000A910023B0748
:103C0000EAFEEBFF8C0E8D0FEE2405F50AE43FF57E
:103C10000B221246BC850C82850D832274EA121990
:103C20002C7508007509007E007F00750A00EC24E1
:103C300002F510E43DF5118035EC65087003ED6583
:103C4000096003023CD188828983A3A3E06A7003E0
:103C5000A3E06B707C88828983A3A3A3A31245C7CA
:103C6000EE28FEEF39FFEA28FAEB39FB050A123D90
:103C7000A1503A850A0C750D007403780C1218A92E
:103C8000851082851183123D94123E91601FE508D4
:103C9000450970A58C088D0988828983122E648855
:103CA000828983A3A3E02EFAA3E03F80BEE50AC386
:103CB00094025003023D8F750800750900EE4F60B5
:103CC00010EEFAEFFB1213E08A0E8B0FEA450F702D
:103CD000057900023D91750B00023D64850B0C7562
:103CE0000D007403780C1218A9851082851183E0E9
:103CF000250CF50CA3E0350DF50DE50C2406F514A7
:103D0000E4350DF515851482F583123E966042E583
:103D10000C2404F512E4350DF513851282F5831297
:103D20001B56E50E2508FAE50F3509FB12135C74E6
:103D3000021218D2851282851383E02508F508A3A4
:103D4000E03509F50985148285158312349912131B
:103D5000E6E50B600D7C087D007900AA0CAB0D1226
:103D60001374050BE50BC3950A5003023CDC851068
:103D7000828511831245C788828983A3A3A3A3A345
:103D8000A3E50EF0A3E50F1229F7EEF0A3EFF0790B
:103D9000010238F6123D9822E0250CF8A3E0350D1B
:103DA000229002EBE0F8E50AC3982274F012192C75
:103DB0008A0E8B0F8C0A8D0B750D00750C008050D0
:103DC0007916EE2406F508E43FF5098E828F83A369
:103DD000A3121B568E828F83A3A3A3A3121B568507
:103DE0000882850983121B56850E82850F83A3A343
:103DF0001234991208BE74061218D2E9F50D741621
:103E0000650D706C850882850983E4F0A3F0050CCC
:103E10009002EBE0F8E50CC3985066AA0C8A08758E
:103E20000900740378081218A9850A82850B83A3F8
:103E3000A3123EE0E8FEE9FF8E828F83123E966079
:103E400040EA2401F508E43400F5099002EBE0654E
:103E5000087002E509601488828983A3A3A3A3A341
:103E6000A3A3A31234C86003023DC07918023DC267
:103E7000E9609B1245C37410121908123E88123A69
:103E8000F0A90D7F080219FEE0FAA3E0F5838A820B
:103E900022F9888289831246BCEC4D2274F61219ED
:103EA0002C7C0080010C900348E0F8ECC398501E75
:103EB0008C08750900740278081218A9123ED5E022
:103EC0006A7003A3E06B70DDE8FAE9FB80047A0016
:103ED0007B00023F789002E9123EE08882898322CB
:103EE000E02508F8A3E03509F92274F212192C8AAA
:103EF000088B09750A0080278E828F83A3A3A3A352
:103F00001229EE60031213E67C087D007900EEFAB8
:103F1000EFFB1213748E828F83E4F0A3F0050A1274
:103F20003DA15027850A0C750D007403780C1218FA
:103F3000A9850882850983A3A3E0250CFEA3E035AB
:103F40000DFF8E828F831234C870AD85088285097B
:103F50008374FFF0A3F00246B074F612192C120815
:103F6000528A828B83E582458370067A007B0080CB
:103F700007A3A3A3A31234997F020219FE74F412BB
:103F8000192C89088C828D83E06402703C1245668E
:103F9000FEA3E0F9EEF874026870037429697029D1
:103FA000750A02750B00780A121B3F74101219086B
:103FB000121B567410121908121B56A9081211F47C
:103FC00074061218D2E9F980027901022A2B74E8EA
:103FD00012192C74FB1218BCE9851882851983F01C
:103FE0008A168B17ECFEEDFF7510008E828F83A36F
:103FF000A3A3E0A2E4502D741D12190812349912E3
:1040000008AC8A828B83E58245837003024405797C
:104010000AEEFCEFFDAA16AB1712192AE9F510609B
:1040200003024408741F121908E0F508A3E0F5091B
:104030007421121908E0F50AA3E0F50B7423121994
:1040400008E0F50EA3E0F50F8E828F83E064026036
:10405000030243A6A31245C7850882850983A38569
:104060008212858313EE2406F50CE43FF50D888259
:104070008983124445F514E439F5157814121BC9E7
:10408000010000280128A840070002286D410328EC
:10409000DB4000299C420129C742022968420329CA
:1040A0009C4204294043A643E50E450F60030243AA
:1040B000A1850C82850D831245C7E8FAE9FB8A8247
:1040C0008B83E0850A82850B83124450121B3F8A42
:1040D000828B83A3E0FCA3E002432AE50E450F6038
:1040E000030243A1850A82850B837401F012443ACE
:1040F000850882850983F07C007D008E828F83A3F2
:10410000A3A3A3E02401FAA3E03400FB120750EAC2
:104110004B60408A828B83E02402F8850A82850BFB
:1041200083E028F0EA2404F8E43BF988828983E0FC
:1041300085128285138312445E124450121B3F8AFB
:10414000828B83A312442DE5082403FAE43509FB8E
:1041500002432F850A82850B83E02404F07C047DD2
:10416000007900AA12AB13121374024408E50E453D
:104170000F60030243A112443AFEA3E0FF850A82C6
:10418000850B837404F0EE850882850983F0EF8542
:104190001282851383F07403121922EEFAEFFB12D8
:1041A00007508A0C8B0DEA450D700302424B8A8240
:1041B0008B83A3A3122E647401121912880E890F27
:1041C000780E121B3F7405121908121B567CFF7DD6
:1041D000FF12075674041218D28B0FEA450F703382
:1041E000850C82850D83124431121B3F850C82851C
:1041F0000D83A3121B567C027D007AB47B901205BE
:104200005274041218D2E9700A740112190874FF6A
:10421000F0A3F08E828F83E064027039750C027512
:104220000D00780C121B3F8E828F83A312442DE564
:10423000082404FAE43509FB12135C74021218D244
:10424000850A82850B83E024028009740112190813
:10425000EEF0A3EFF0740112190812441F7401125A
:10426000190812441602439BE50E450F60030243F2
:10427000A1850C82850D831246B5AA16AB171211C3
:10428000FA850A82850B837402F08508828509838A
:10429000EAF0851282851383EB02439EE50E450FFB
:1042A00060030243A112443AF8A3E0F9850A82852B
:1042B0000B837402F0E8850882850983F0E9851292
:1042C0008285138302439E850C82850D8312349967
:1042D000121356EAFAF8C3950EE4950F405CE865B0
:1042E0000E450F70047A008021851882851983E0BD
:1042F000FCE50E2CFCE4350FFDC3EC98ED9400506A
:1043000003E08005E50ECAC39AFAEA850A82850BA6
:1043100083F08A0A750B00780A121B3F850C828590
:104320000D83E0250EFCA3E0350FFDAA08AB0912B2
:10433000135C74021218D202440875100702440874
:10434000E50E450F705B850C82850D831245C78590
:104350000A82850B837407F08882898312441712BE
:10436000440FE0851282851383F0E82402FAE439D1
:10437000FB8A828B8312441F8A828B83124416A38A
:10438000A31229F6124424F0E82405F85001098804
:10439000828983124424A312445EA3A3A3A3F080C2
:1043A0006775100B8062741D121908123499120877
:1043B000528A828B83E5824583604A1245C7880C06
:1043C000890DE8450D603E7425121908E0F5107856
:1043D00010121B43780E121B3F780A121B3F7808FD
:1043E000121B3F7407121908E0F9EEFCEFFDAA1644
:1043F000AB17850C82850D8312192A74071218D207
:10440000E9F510800375100EA910740502375CF0F1
:1044100088828983A322A3E08508828509832212EA
:104420004465F022124465A3A3229002EF1246BC19
:1044300022E0F50E750F00780E22850C82850D8323
:104440001238FFE022E0FAA3E0F8E4C8F9EA2822F3
:10445000F08A828B83E0F50A750B00780A221244F9
:104460000F12446522E0850882850983A3A3227484
:10447000EE12192C74FE1218BC8A088B09ECFEEDA2
:10448000FF890AAC18AD19EEFAEFFB1207508A0C3F
:104490008B0DEA450D7003024557851882851983F7
:1044A0001234991208528A828B83E5824583700305
:1044B000024552A3A31245C7880E890FE8450F7025
:1044C000030245527414121908E0F510A3E0F51127
:1044D000E50AF50B780B121B437419121908121B0D
:1044E000567810121B3F741B121908E0F9AC0CAD82
:1044F0000DAA08AB09850E82850F8312192A74054F
:104500001218D2E9F50B705274FE650A604C850CE6
:1045100082850D83E064027041124566FAA3E0F9DA
:10452000EAF87402687003742969702E8510828518
:104530001183124445F50CE439F50D780C121B3F3C
:10454000EEFCEFFDAA08AB091208D674021218D2CD
:104550008008750B0E8003750B01A90B74021218ED
:10456000D27F0A0219FEA31245CB88828983E022FA
:1045700074F612192C74FE1218BC740C121908125D
:1045800045C7E8851882851983F07401121908E976
:10459000F0E4F508F5097808121B3F750802780861
:1045A000121B3F7404121912880889097808121B1B
:1045B0003F79FE1208BE74061218D274021218D285
:1045C000023F788E828F831245CB22E0F8A3E0F978
:1045D0002274F712192CEAFEEBFF890890030612E9
:1045E000442D1211FAEA5402600BA908EEFAEFFB0F
:1045F000120744800279017F010219FE74F2121938
:104600002C74FE1218BCEAFEEBFF890A7401650ADD
:1046100060147402650A60030246AB7901120AE075
:10462000E960030246ABEEFAEFFB1208A0EA4B602A
:10463000031208A6A818A919880889097808121B66
:104640003F7508027509007808121B3F7508AC75A4
:1046500009907808121B3F7CFF7DFF7A017B0012D6
:10466000074A74061218D28038850882850983A308
:10467000A3A3A3A3A31246B5EEFAEFFB1211E2E443
:10468000F50CF50D780C121B3F7402121908121B61
:10469000567CFF7DFFAA08AB091207567404121856
:1046A000D28A088B09E508450970BE74021218D237
:1046B0007F060219FE1238FF1246BC22E0FCA3E07E
:1046C000FD2274F412192C8A088B09ECFEEDFF9080
:1046D000177DE0F4604B7A097B00121386EA4B6089
:1046E000408A828B8374B1F0A3E4124724F08A825B
:1046F0008B83A3A3E508F0A3E509124724A3EEF0FA
:10470000A3EFF0740C1219081245C78A828B83A399
:10471000A3A3A3A3A3A3123AF090177DE0F9121369
:1047200092022A2BF08A828B83A3A3A3A32274F084
:1047300012192C74FA1218BC8909ECFEEDFF7508E9
:10474000008A0A8B0B780A121B83000410544971EB
:10475000478F47A947C147DF47F7471A48324846BE
:10476000487048EB48FC4813492E4954495449863F
:104770004874016509600302494F8E828F83E0F817
:10478000C39403400302494FE890186902492B740F
:10479000026509600302494F8E828F831250B290E6
:1047A000186AE8F0A3E902492B7401650960030265
:1047B000494F12497C400302494FE890072C0249B7
:1047C0002B74016509600302494F8E828F83E0F8E4
:1047D000C39405400302494FE890072D02492B740A
:1047E000016509600302494F12497C400302494FA9
:1047F000E890072E02492B74106509600302494FA7
:10480000750A10750B00780A121B3F7A2F7B07126E
:10481000135C74021218D2024975740165096003B1
:1048200002494F12497C400302494FE890073F027A
:10483000492B74016509600302494F8E828F83E022
:1048400090186D02492B74046509600302494F8E6C
:10485000828F83780C121780909058780C1215B3C1
:10486000500302494F900741780C12178F02497587
:10487000E9600302494F1206EAE970051211A680A9
:10488000559007D4806174076509600302494F752C
:104890000A06750B00780A121B3F8E828F83A3AC29
:1048A00082AD83740212191A12136274021218D2A2
:1048B0007C007D00AA18AB198E828F83E0F912115B
:1048C00052E9FEC3940A40030249721206EAE970F3
:1048D0000CEEF91211AC79501214A0806D74D52E23
:1048E000F582E43407F58374018040740165097032
:1048F0005E12497C5059E8900740802F7401650989
:10490000704D8E828F83E0F8C3940A5042E890186D
:104910006C80187401650970368E828F83E0F8749C
:10492000F928C3940A5028E890186EF08047740163
:104930006509701B9007D3E0F88E828F83E09007A3
:10494000D3F0E87030E06401702B12119A80267564
:1049500008188021C3EA9427EB940050157402656F
:1049600009700F8E828F83125B9212056AE9F50837
:104970008003750802A9087406024CA08E828F83FA
:10498000E0F8C3940222A90880031218D27F04021F
:1049900019FE74F012192C74B11218BC8C0A8D0B0C
:1049A000908FF8742012192274061217CF742012F7
:1049B0001922121152E9FF745F121908E0F509EF8C
:1049C000C3940A4003024B1475F006EFA4F5087473
:1049D000411219227A0E74202508F912149AE970EE
:1049E00009744D121908E0FE80027E00901869E0FB
:1049F00064027005750E018003750E007408650968
:104A000070047422800274212508F50D7C1B7D0042
:104A10007900742612191A12137474261219227A44
:104A20001BA90D12149AE9702D7440121908E02484
:104A3000F9C3940A5020E50EF50D780D121B43744E
:104A400027121922EEA2E0E433F9AA0AAB0B1206F0
:104A50000C74011218D27C147D007900740C1219A8
:104A60001A121374740C1219227A1074242508F97E
:104A700012149AE970347C1079FF740C12191A120E
:104A800013DAE97025741C121908AC82AD837A041C
:104A900074252508F912149A740C121922EEA2E05A
:104AA000E433F9AA0AAB0B1205F4AC18AD197A0C71
:104AB00074702FF912149AE97049AA18AB191211DF
:104AC000827F00EF75F003A4F8A9F085188285199C
:104AD00083E58228F8E58312526912544A601D88E2
:104AE000828983A3A3E0F50E750F00780E121B3F99
:104AF000AA0AAB0B1208C474021218D20FEFC394A7
:104B00000440C0EEA2E1500C90072BE0F9AA0AABDA
:104B10000B1208CA740465097028901869E06402D1
:104B200070207A0090073FE060027A0190072CE045
:104B30006004780480027800E84AF9AA0AAB0B12F4
:104B400006C07900744F024CA074F712192C12069B
:104B5000EAE9704F9007D4E0640170151211A69035
:104B600007D4E4F07C0AFDF97AD57B071213748030
:104B70002A750800A80874D528FEE43407FF8E8241
:104B80008F83E06401700BA9081211AC8E828F83B1
:104B9000E4F00508E508C3940A40D979501214A03E
:104BA00012119A02558174F012192C74F01218BC6B
:104BB000EAFEEBFF8C088D09750A0AE9600C1460A7
:104BC0000914603B14607D024C9C121194E9F50AB3
:104BD000C3940A4003024C9CE50845097003024C4B
:104BE0009C750C06750D00780C121B3FEEFCEFFD5A
:104BF000AA08AB0912135C74021218D2024C9C75FD
:104C00000C00750E06750F00780E121B3FEEFCEFC0
:104C1000FDE50C75F00EA4F8A9F0744D28FA7407A0
:104C200039FB12136E74021218D2E9700B050CE5F1
:104C30000CC3940A506680CA850C0AE50AC3940A1C
:104C4000505A8049750C00AC18AD197A1075F006F1
:104C5000E50CA42423F912149AE9701C7C1079FF46
:104C6000AA18AB191213DAE9700EEEFCEFFDAA18C0
:104C7000AB191205D0E9600B050CE50CC3940A5082
:104C80001B80C4850C0AE50AC3940A500FE5084549
:104C9000096009AA08AB09A90A12118EA90A7410A1
:104CA0001218D27F080219FE74F412192C890975A2
:104CB000081574FF6A700374FF6B70277E00AC09DF
:104CC0007A027B00EEF9121170E960037508000E9C
:104CD000EEC3940A40E8E50960537ABE7B11120BDB
:104CE00004804A120AD48A0A8B0BAE0AAF0BEE4F2D
:104CF00060387C007D00EE2405FAE43FFB8E828F55
:104D000083A3A3A3A3E0F9121152E9F9C3940A50B3
:104D10000CAC097A027B00121170750800E509607D
:104D20000CEEFAEFFB1211BE8003750814024986DF
:104D300074F212192CECFEEDFF750815740E1219A1
:104D400008E0F50AA3E0F50B74FF6A700374FF6BCB
:104D50007021750900AC0AAD0BEEFAEFFBA9091240
:104D60001176E960037508000509E509C3940A5046
:104D70003F80E2120AD48A828B83E5824583602DCC
:104D80007C007D00E5822405FAE43583FBA3A3A320
:104D9000A3E0F9121152E9F9C3940A5013AC0AAD19
:104DA0000BEEFAEFFB1211767508008003750814FC
:104DB000A9087F060219FEC082C083900745EAF069
:104DC000A3EBF090072BE0FC7D007A267B00120518
:104DD0006A90072BE0F912082E02589B74EE121904
:104DE0002C74EC1218BC8A088B09EA240CF510E428
:104DF0003509F5118A828B83A385820C85830DEAA0
:104E00002405F50EE43509F50FEA2409F50AE43521
:104E100009F50BEA2403FEE43509FF8A828B83A39C
:104E2000A3E024FA70030250A024FD7003024FC0D7
:104E3000147003024EBA14601024FD7003024FA3D5
:104E4000147003024FF80250A6125B986044E0F51C
:104E50008388821250B2880C890DE8450D60338535
:104E60001082851183E0F50E780E121B43EA240BA5
:104E7000F582E43509F583E0F9125B8C0A0A0AEF42
:104E8000FB850C82850D8312192A74011218D20237
:104E900050A6850A82850B83121B56900741121774
:104EA0009E12060674021218D2E970030250A67907
:104EB00001850A82850B83025070750A00850C8279
:104EC000850D83E06003024F70850E82850F83E0BD
:104ED000A2E04003024F709007DF125B9B60030269
:104EE0004F707C0E7D007900AA18AB1912137485DF
:104EF0001082851183125866EA4B6010750A067598
:104F00000B00780A121B3FEA2410801B1258621211
:104F10000AD4EA4B70030250A6750A06750B007896
:104F20000A121B3FEA2405FCE43BFD740212191A25
:104F300012135C74021218D2850E82850F83E0A2D0
:104F4000E25004D2F08002C2F0A2F0E433F8740C14
:104F5000121908125A1A121188E970117A027B008C
:104F600090072BE0F91213B679000250A8750A15C4
:104F7000125B9870030250A61250C770030250A62D
:104F8000850C82850D83E0FC79011250B812192A34
:104F9000E50A70030250A6FC790312586212581DEC
:104FA00002509B125B9870030250A61250C7700308
:104FB0000250A6850C82850D83E0FC790202509890
:104FC0007C007D00EA2404FAE43509FB8E828F839D
:104FD000E0F9121152E9F8C3940A40030250A6E521
:104FE00008240AFCE43509FD7A0475F006E8A424D7
:104FF00025F91214940250A6125862900740E060FE
:105000000790186CE0F9806B901869E070047905DE
:105010008061120AD48A0C8B0DA80CA90DE8497086
:10502000030250A6E82404F50CE439F50D85088246
:10503000850983A3A3A3A3A3A3A3E0A2E05039857A
:105040000C82850D83E0F508602E850A82850B832E
:10505000A3E054027022740E121922E82405FAE427
:1050600039FBA908121152E9700E79038E828F83E1
:10507000125866120600802EAC0EAD0F850C82858C
:105080000D83E0F91258621211CA125B9860171270
:1050900050C760127C0079001250B812192A80069D
:1050A00012586212114C790174141218D27F0A023C
:1050B00019FEE0F8A3E0F9228E828F83E0FAA3E0E4
:1050C000FB88828509832212582BF98909E8450952
:1050D0002274F512192C74F21218BCEAFE8C0A75AF
:1050E000F006E9A42420F508AC18AD197A0EF912DF
:1050F000149AE970467C0679FFAA18AB191213DAE4
:10510000E97038740C121908125866EAF8E50A605A
:1051100005EEC8488004EEF4C858F8EA687001EB60
:105120006015740C121908E8F0A3E4F0AC18AD197E
:105130007A0EA908121494790180027900740E1273
:1051400018D27F030219FE74F212192C74E6121899
:10515000BC890A8A088B09ECFEEDFF740C12192237
:105160007A0E75F006E9A42420F912149AE9600376
:1051700002522C7C0679FF740C12191A1213DAE908
:10518000600302522C7470250AF50BAC18AD197A25
:105190000CF912149AE96003025228AA18AB1912EA
:1051A0001182E5084509701D7C0C7900AA18AB191D
:1051B0001213DAE970727C0C7D007900AA18AB1921
:1051C0001213748051AC18AD19AA08AB0912117CE6
:1051D0008A0C8B0DA80CA90DE8497022EE4F604C8B
:1051E000AC18AD197A007B0012117CEAF8EBF9EAF1
:1051F0004B603988828983E508F0A3E509F01252F3
:10520000A5FAEE6A7001EF601FEEF04F7008888219
:105210008983E4F0A3F0AA18AB19121182AC18AD7F
:10522000197A0CA90B121494790180027900741A6E
:105230001218D2024DB274F712192C7E00EE75F0DE
:1052400003A4F8A9F0EC28F8ED125269E06A7003A3
:10525000A3E06B7006E8FAE9FB800B0EEEC3940442
:1052600040DB7A007B0002558139F98882898322EC
:1052700074F712192C7C00EC75F003A4F8A9F0EA7D
:1052800028F8EB125269E0F4FEA3E0F4FF8882896B
:1052900083EEF0A3EFF01252A5F4F00CECC39404EB
:1052A00040D5025581E82402F582E439F583E022F5
:1052B00074F412192C74F41218BCEAFEEBFF8C087B
:1052C0008D099007DF125B9B704FEE4F7003025405
:1052D00029EC45097003025429121194E990186FC2
:1052E000F0C3940A4033750B007C0679FFE50B751B
:1052F000F00EA4FAABF074472AFA74073BFB1213C2
:10530000DAE9600302538A050BE50BC3940A40D91E
:10531000750A0AE50A90186FF090186FE0C3940AB6
:10532000400302542975F006E0A4FB9007DF125BEE
:105330009B705CEEFCEFFD7A0E74202BF912149436
:105340007C0C7D0079FFAA18AB19121374AC18AD50
:10535000197A0C90186FE02470F9121494750A0EE3
:10536000750B00780A121B3FEEFCEFFD90186FE002
:105370001254E212135C74021218D29007DFE5088F
:10538000F0A3E509F0790002542B850B0A8084E034
:10539000C8240612544460197A1B74212BF9121484
:1053A000941254302406F582E438F583E4F0A380A7
:1053B000D3125430240A12544460107A1B74222BE6
:1053C000F9121494125430240A80DB125430240C45
:1053D00012544460107A1074232BF912149412544E
:1053E00030240C80C112543912544460307A107445
:1053F000242BF9121494125439F582E438F583E021
:105400002410FCA3E03400FD7A0475F00690186FB8
:10541000E0A42425F912149412543980899007D3FA
:10542000E060031211D01211C47901740C02498A90
:105430009007DFE0F8A3E0C8229007DFE0F8A3E0E0
:10544000C8240822F582E438F583125B92EC4D22E1
:1054500074F412192C74F21218BCEAFEEBFFE9C3C3
:10546000940A5004EE4F700479028034AC18AD19E0
:105470007A0E75F006E9A42420F912149AE9F508C9
:10548000701C750A06750B00780A121B3F74021215
:105490001922EEFAEFFB12135C74021218D2A9085B
:1054A000740E02498A74F412192CEAFEEBFF750897
:1054B00000750A06750B00780A121B3FEEFCEFFD23
:1054C000E5081254E212136E74021218D2E9600455
:1054D000A908800B0508E508C3940A40D4790A029C
:1054E000498D75F00EA4F8A9F0744728FA740739AD
:1054F000FB2274F712192C750800E50875F00EA44C
:10550000F8A9F0744728FE740739FFEEFCEFFD7A26
:105510000E75F006E508A42420F912149AE9602912
:105520007C067D0079FFEEFAEFFB1213747C067D9A
:105530000079FFEE2CFAE43FFB121374EE240CF515
:1055400082E43FF583E4F0A3F00508E508C3940A7C
:1055500040A89007D3E060031211D01211C480213B
:1055600074F712192C7E007F007C06EF1254E2794A
:10557000FF1213DAE970010E0FEFC3940A40EAEE4E
:10558000F97F010219FE74F712192C7E00EEF91250
:1055900011ACE9F90EEEC3940A5003E960EF80E123
:1055A00074F312192C74CB1218BC890890186FE090
:1055B0006508701B7A017B0090072BE0F91213BC81
:1055C0007A027B0090072BE0F91213BC1211DC75F4
:1055D000F006E508A4FF74202FFE74271219227A22
:1055E0000EEEF912149AE960030256A87C0679FFC0
:1055F000742712191A1213DAE960030256A87C0EF6
:105600007D0079FF742712191A1213747C1B7D0018
:1056100079FF740C12191A1213747C0C7D0079FF37
:10562000AA18AB1912137474271219227A0EEEF904
:10563000121494E9FE740C1219227A1B74212FF9AA
:10564000121494E9F509740C1219227A1B74222F92
:10565000F9121494E9F50A740C1219227A107423C1
:105660002FF9121494E9F50B740C1219227A1074A4
:10567000242FF9121494E9F50C740C1219227A04EF
:1056800074252FF9121494E9FFAC18AD197A0C7433
:10569000702508F9121494E9F8E509450A450B4507
:1056A0000C4F48CE4EFE80027E00EEF97435121883
:1056B000D27F050219FE74F712192CE990072BF01E
:1056C00012119A02558174F212192CEAFEEBFF5462
:1056D00080700302578590072BE0F912139E8A0809
:1056E0008B09EA4509700302577E7A01E508240513
:1056F000F50AE43509F50BE5082404F8E43509F961
:10570000880C890D8508828B83E0245060361460F4
:105710000624E16058805D88828983E0705985089D
:10572000828B83A3A3A3A3A3A3A3121B56125B8CF8
:105730008508828B83A3A312586612115E7402122D
:1057400018D2803388828983E0641E700F790085C7
:1057500008828B83A3A3125866121158850C828588
:105760000D83E0F9AA0AAB0B120828800AAA0812D6
:10577000116AE9FAEA6007AA08AB0912138CEEFA7B
:10578000EF6480802AEE54026028EE6402FE7C0002
:105790007D007A007B00121188E960047A018002A2
:1057A0007A027B0090072BE0F91213B6EEFAEFFBBA
:1057B0008068EEA2E050556401F508EFF509125833
:1057C0003B1211D6E96033125B98602912583312EC
:1057D00050B2E8FEE9FFEE4F601B7C0079011258E1
:1057E0003B8E828F8312192A7C00790312583B1258
:1057F000581D12192A1211DC800C7A017B009007C7
:105800002BE0F91213B6AA08AB09800E5404600607
:10581000EE6404FA80047A007B00024DB2900745E2
:10582000E0F8A312582BF583888222125833E0F84F
:10583000A3E022E0F5838882A3A3229007DF125B16
:105840007CE0FAA3E0FB227F020219FEC082C08343
:1058500090072BE0F98A828B83A31258661208CA3C
:1058600080398E828F83E0FAA3E0FB22C082C0835E
:1058700074FF1218BC1211A0E9C394028518828526
:105880001983400474028002740AF0AC18AD197ACE
:1058900001790512070874011218D2D083D0820250
:1058A000011F74F012192C74E81218BCEAFEEBFF09
:1058B000890A8C088D097C187D007900AA18AB191B
:1058C000121374851882851983EEF0A3EFF0900708
:1058D0002DE0C0E07402121908D0E0F090072EE02D
:1058E000C0E07403121908D0E0F090186EE0C0E038
:1058F0007417121908D0E0F090186DE0A2E0E433BC
:10590000FCE0A2E15004D2F08002C2F0A2F0E43345
:10591000F8E0A2E45004D2F08002C2F0A2F0E43336
:10592000FAE0A2E55004D2F08002C2F0A2F0E43323
:10593000F50E750F00E0A2E65004D2F08002C2F02E
:10594000A2F0E433F50C750D00E0A2E25004D2F0B1
:105950008002C2F07415121908E054FEFEA3E0FFA5
:10596000EE4CFCEFFDEC54FDFCE828F8EC48F8EDBB
:1059700054FEF9EAFBE94BF9E8FAE954FDFB740936
:10598000780E1218A9EB450F54FBFB740A780C1221
:1059900018A9EAF8EB450DF9E854FBFAA2F0E43354
:1059A000F50C750D007402780C1218A9EA450CF874
:1059B0007415121908E8F0A3E9F090072EE0601DB5
:1059C000750C10780C121B3F7C2F7D077406121982
:1059D00008AA82AB8312135C74021218D290073F9C
:1059E000E06011E50A60097415121908E04402F03C
:1059F0007801800278007414121908E048F09007CA
:105A00002CE06004780480027800741412190812E3
:105A10005A1A1205FA7418024CA0E048F0AC08AD0E
:105A200009AA18AB192274F712192C12091E75084D
:105A300000E50875F00EA4F8A9F0744728FE740775
:105A400039FF7C0679FFEEFAEFFB1213DAE97009F1
:105A5000EEFAEFFB79001209240508E508C3940A61
:105A600040CF02558174F612192C74FD1218BCEA4D
:105A7000FEEBFF9007E1125B9B70397508E3750937
:105A8000077808121B3F7508027509007808121B79
:105A90003F7508AC7509907808121B3F7CFF7DFFAD
:105AA0007A017B0012074A74061218D29007E1EAC5
:105AB000F0A3EBF09007E1125B9B7003025B6E7545
:105AC00008FF7808121B43E4F508F5097808121B53
:105AD0003F7405121912880889097808121B3F744F
:105AE00005121912880889097808121B3F9007E3EC
:105AF000121B5679029007E1125B841208B87409F0
:105B00001218D2E97036851882851983E0FA74017B
:105B1000121908E0F8E4C8F9EA28F508E439F509AB
:105B2000EA450960177808121B3F9007E1125B7C79
