:020000040000FA
:060000000201070221F9D4
:03002B0002264664
:03003B0002266C2E
:030043000225F1A2
:0300530002226F17
:03006B0002261753
:1000830002204FE5C754F84401F5C7790122000067
:100093000080FB120086B900030200F1E4792178A5
:1000A30008B800028004F709D8FCE479297802B87B
:1000B30000028004F709D8FCE490028178357915B1
:1000C3008002F0A3D8FCD9FA7AB57B169001377871
:1000D3001679048015E493A3AD82AE838A828B8361
:1000E300F0A3AA82AB838D828E83D8E9D9E7758288
:1000F300A47583FF740212011975829175830074CC
:100103000012011975D00075813F751881751902A8
:10011300759F00020096C09FF59FE473D09F22D085
:1001230083D082C09FE493C0E0740193C0E0740263
:1001330093F59F22FF0000B4000028002800283018
:1001430075A000A000A000A00000080008E001F0D6
:10015300001000100010001000100010005000509C
:1001630000500010001000D0070000000000000F36
:100173000001000500307507001000010081FF0039
:10018300000000FFFFFF6E068C067406B006FF0238
:10019300020208025000A0000000E80302EF9001F1
:1001A3000000299002EB90010000101702E190017A
:1001B3000000BF0202EB90010000111702F590014D
:1001C3000000D50202EB90010000121702F3900128
:1001D3000000D70202EB90010000131702E9900818
:1001E3000000D80202EB90010000141702E790010F
:1001F30000001517FF0100FF2002EF90010000D659
:100203009002EB90010000791702DF9000000000DC
:100213000002E390030000060317005E0D5E0D5E0F
:100223000D5E0D5E0D5E0D5E0D5E0D5E0D5E0D5E73
:100233000D5E0D5E0D3A104C1034100202020202E4
:1002430002020202010D000000100102EF90010002
:1002530000DC9002EB90010000BC17020991010041
:1002630000230702EB90010000BD17020791010074
:1002730000DB8F02EB90010000BE17020591010025
:1002830000CD8F02EB90010000BF17020191010026
:10029300004B8F02EB90010000C01702FF9001009A
:1002A300005D8F02EB90010000C11702FD90010079
:1002B30000158F02EB90010000C21702FB900100B2
:1002C30000398F02EB90010000C31702F99001007F
:1002D30000BF8F02EB90010000C41702F7900100EA
:1002E30000C51701E8030577100AFFFFFF0001307F
:1002F300750302010600000000000000000000007A
:1003030000000000000000000000000000000000EA
:1003130000FFFF0600800CE803000102030405064A
:100323000708090A0B0C0D0E0F000102030A09430B
:100333004332353430424C45051250002003020A43
:10034300000201060302F0FF53696D706C652042E1
:100353004C45205065726970686572616C021500C6
:100363000008151043686172616374657269737480
:100373006963203400100001020000000000000047
:100383000000000000000000000050756C7365530E
:10039300656E736F720000000000000A0100000028
:1003A300000000000000000000000000454347007B
:1003B300000000000000000000000000000A01002F
:1003C3005043470000000000000000000000000050
:1003D3000002EF90010000D99002EB90010000E4CD
:1003E30018020F91000000B01602E390030000B161
:1003F3001602E590010000E51802EB90010000F6FB
:1004030018021191000000F71802E390030000B3F3
:100413001602E5900100000B1902EB900100001C8D
:10042300190213910300001D1902E5900100002D2C
:100433001902EB900100003E190203910300003FF3
:100443001902E59001000041191201227E9803125E
:100453000122919803120122C29803120122FC98EF
:10046300031201225599031201229C9903120122BE
:10047300E49903120122139A03120122429A0312EE
:100483000122799A03120122C09A03120122D99AF6
:10049300031201222E9B03120122479B0312012206
:1004A300959B03120122CF9B0312012201B6021274
:1004B300012204B7021201223DB70212012260B7E2
:1004C3000212012272B702120122B0B702120122F4
:1004D3002CB802120122F4B80212012216B9021238
:1004E3000122ADB902120122FFB90212012230BA70
:1004F300021201223DBA02120122A7BA02120122FC
:10050300FEBA0212012201BB021201223ABB0212FD
:1005130001223DBB0212012247BB021201229BBBF7
:1005230002120122DCBB021201220FBC02120122C1
:100533004CBC021201224EBD02120122F2BD021274
:1005430001225BBE0212012299BE021201229D907A
:1005530003120122C59003120122F2900312012219
:100563002A9103120122889103120122D4910312CA
:1005730001223B92031201227B9203120122B892C1
:1005830003120122E6920312012290930312012225
:100593009A9303120122A79303120122DA930312FF
:1005A3000122E69303120122FE930312012208940F
:1005B3000312012268BB0312012276BB031201223C
:1005C3008EBB03120122A5BB03120122F9C701123C
:1005D3000122A3C801120122B6C90112012232CAA3
:1005E3000112012250CB011201228CCB01120122F4
:1005F30027CC011201220BCD01120122D7CD01120A
:10060300012265CF01120122D6CF0112012290D01F
:100613000112012282D101120122C2D1011201224F
:1006230076D201120122A8D2011201229ED4011214
:100633000122E0D401120122FED40112012264D569
:100643000112012233D601120122F7D6011201222F
:1006530016D901120122C2CE02120122ACCF02121C
:10066300012257D002120122A8D00212012258D12E
:1006730002120122C9D102120122AED202120122B8
:10068300E2D202120122DBD30212012218D4021297
:100693000122F4D40212012233D5021201224FD5D2
:1006A300021201224FB003120122D3B0031201221E
:1006B300FEB00312012218B2031201229694031210
:1006C3000122AC9403120122CA9403120122DB9586
:1006D30003120122E595031201221097031201224E
:1006E3000798031201227498031201221EDB0212DF
:1006F30001224EDC0212012285DC02120122CFDC30
:100703000212012292DE0212012219910112012228
:10071300A5910112012209930112012215930112DD
:100723000122509301120122BF9301120122C894A6
:1007330001120122D1950112012298960112012280
:10074300F597011201221398011201223098011228
:100753000122DD98011201225A9901120122829984
:10076300011201224C9C01120122519C011201220F
:100773006A9E01120122B89E01120122289F0112D2
:100783000122669F0112012242A00112012202A14D
:10079300011201224EA10112012251A101120122D3
:1007A30095A101120122DDA1011201221CA2011255
:1007B30001223EA20112012272A201120122D5A23C
:1007C3000112012261E0021201226FE002120122F2
:1007D300C2E002120122E1E00212012226E102122A
:1007E30001226AE20212012205E30212012249E315
:1007F3000212012273E302120122E2E30212012236
:1008030028E4021201229FE40212012250E502129F
:100813000122E02600120122F02600120122912774
:1008230000120122ED2700120122AA280012012240
:10083300C62900120122F82900120122272A0012D8
:100843000122D42B001201224B2E00120122BB30B5
:1008530000120122AD3100120122A6320012012240
:10086300AD3400120122A13700120122D038001248
:100873000122D43A00120122E43B00120122733D0B
:1008830000120122643E00120122B23E0012012234
:10089300213F00120122453F00120122963F001220
:1008A30001223744001201223845001201229945E2
:1008B30000120122C445001201228A4600120122BD
:1008C3005084031201225A84031201229F840312CB
:1008D3000122B384031201224385031201227C8582
:1008E30003120122B78503120122E08503120122BC
:1008F3003486031201224986031201226B860312F6
:100903000122808603120122948603120122A98602
:1009130003120122E386031201220F87031201222D
:10092300588703120122CA87031201220D8803127A
:10093300012237880312012262880312012269B758
:1009430003120122C99802120122AC990212012258
:10095300279A02120122629A02120122B39B021207
:100963000122419C02120122D39E02120122859F81
:100973000212012291A00212012204A202120122F8
:100983005DA202120122008003120122438003129E
:100993000122C780031201229E8303120122DBABD3
:1009A300031201228DAC0312012289AD031201222D
:1009B300C8AD0312012222AE0312012247B2031271
:1009C3000122AAB20312012247B3031201227CB30C
:1009D30003120122ACB303120122E7B30312012273
:1009E30007B4031201220BEF0212012297EF021246
:1009F300012256F0021201226EF10212012288F343
:100A030002120122458D021201226A8D0212012275
:100A1300378E021201220B8F02120122788F0212EB
:100A23000122B88F021201225490021201228891EE
:100A330002120122639202120122C29202120122C5
:100A43004E9302120122BC93021201224894021215
:100A530001228E9402120122009502120122929524
:100A6300021201223396021201225396021201222C
:100A73009B9602120122E4960212012200970212AF
:100A83000122269702120122A09702120122AE9799
:100A9300021201223D9802120122A698021201229B
:100AA300BFF30212012244F40212012286F402125D
:100AB30001226AF502120122D7F5021201221BF666
:100AC300021201225FF6021201228CF602120122A7
:100AD300B4F602120122ECF6021201222AF70212E4
:100AE300012251F702120122CBF70212012215F85B
:100AF3000212012201B601120122A9B70112012239
:100B0300D6B9011201222ABA0112012255BA0112E1
:100B1300012227BB011201226BBB01120122AFBBD1
:100B230001120122C2BB0112012203BC01120122E4
:100B330030BC011201227EBC01120122BFBC011292
:100B43000122EDBC0112012240BD01120122D7BDD9
:100B530001120122C1C001120122D7C201120122D6
:100B630015C301120122A8C401120122EDC401120E
:100B730001225FC501120122B0C501120122EAC59B
:100B830001120122EFC5011201228FC601120122B7
:100B9300C5C701120122D6C70112012206A3021200
:100BA300012285A3021201227EA90212012284AA34
:100BB30002120122F7AB021201228EAC02120122B1
:100BC300905B00120122D95B00120122065C001225
:100BD3000122385C00120122455C00120122515CA3
:100BE30000120122635C001201223E5D0012012209
:100BF3009C5D00120122D15D00120122085F0012E8
:100C03000122555F00120122795F00120122E95F80
:100C130000120122AA60001201226D61001201225A
:100C2300DB6100120122986200120122AB62001202
:100C33000122296300120122BC6300120122E36333
:100C4300001201224B64001201229C640012012253
:100C5300F164001201229A65001201224566001216
:100C63000122F16600120122636700120122B767B5
:100C730000120122176800120122476800120122A4
:100C8300DD6800120122026A001201224A6A001280
:100C93000122676A00120122866A00120122B56AE4
:100CA30000120122CA6B00120122506C00120122B1
:100CB300756C001201228A6C00120122FD6C001275
:100CC30001223E6D001201225A6E00120122FB6EB8
:100CD30000120122496F00120122B36F0012012298
:100CE300CC6F00120122B8AC021201220CAD021229
:100CF300012218AD02120122E2AD021201220FAE4F
:100D0300021201223DAE02120122A9AE02120122F9
:100D1300DFAE0212012218AF0212012230AF02121B
:100D2300012285AF021201229EAF02120122E3AF1C
:100D330002120122F6AF0212012210B002120122A6
:100D430026B00212012244B1021201226FB2021232
:100D5300012259B30212012248B402120122FD7F7B
:100D6300001201220080021201222F8002120122AE
:100D7300F583021201224C8502120122128602120D
:100D830001229187021201225B8802120122AD889F
:100D930002120122C78802120122F98802120122DB
:100DA3000489021201224D8902120122568902127C
:100DB3000122028A02120122DB8A02120122228B01
:100DC300021201228A8B02120122CC8B021201220F
:100DD300FA8B02120122358C02120122ADA30112F9
:100DE30001222BA70112012231A70112012286AD94
:100DF30001120122D0B101120122B6B50112012262
:100E0300D39F0312012249A0031201225FA0031200
:100E13000122EFA0031201222CA10312012266A1D9
:100E230003120122A0A10312012213A20312012221
:100E330054A2031201225DA20312012269A203122A
:100E4300012288A203120122B2A203120122C7A225
:100E5300031201220AA3031201224CEA0212012205
:100E63005FEA0212012279EA02120122A6EA0212C1
:100E73000122ECEA021201221FEB021201225DEBB6
:100E830002120122C2EB02120122D7EB021201224B
:100E9300E2EB02120122EFEB0212012206EC021234
:100EA300012214EC021201221FEC021201222BEC8C
:100EB300021201223EEC0212012249EC021201222B
:100EC3006CEC0212012210ED0212012220ED02123B
:100ED30001223AED0212012257ED0212012272EDB4
:100EE3000212012297ED02120122A2ED0212012247
:100EF300B7ED02120122CBED021201222CEE0212F7
:100F0300012232EE0212012238EE021201223EEEDB
:100F13000212012256EE0212012289EE021201226E
:100F230063E701120122FAE70112012292E801129A
:100F3300012282E901120122B9E901120122CCE95D
:100F4300011201223AEA01120122D5EB0112012218
:100F5300FCEB011201229EEC01120122D3EC0112DF
:100F63000122E4EC011201225DED011201227EED6A
:100F73000112012296ED01120122EEEE011201226D
:100F8300F7F00112012247F3011201224AF4011280
:100F9300012299F401120122FC6F00120122F9705F
:100FA30000120122E47100120122EE7100120122EB
:100FB3001072001201221C72001201226E730012C1
:100FC30001229D7300120122CD74001201220F75BC
:100FD300001201223B760012012211770012012236
:100FE300637700120122C27700120122F9770012FF
:100FF3000122347800120122CF7B00120122E87B08
:10100300001201226A7C00120122787C0012012264
:10101300CD7C00120122DB7C00120122487D0012EC
:101023000122BA7D00120122007E00120122E6F4A1
:101033000112012208F501120122F2F60112012226
:1010430097FA01120122DAFB01120122B4FC011208
:10105300012215B4031201223AB403120122ABB4E4
:1010630003120122BFBE02120122C8BE02120122D4
:10107300D1BE0212012202C00212012221C20212B7
:10108300012257C20212012291C202120122C7C2D7
:101093000212012201C30212012235C302120122EC
:1010A30061C302120122AAC302120122E4C3021283
:1010B30001222CC40212012282C402120122B7C4EB
:1010C3000212012212C5021201224CC50212012290
:1010D3009DC502120122D3C5021201220DC60212BE
:1010E30001223BC6021201225EC60212012235BC56
:1010F3000312012261BC03120122BCBC03120122B0
:10110300C6BC03120122D6BC03120122D6FC021272
:101113000122FDFC0212012227FD0212012282BEDE
:1011230003120122F646001201225A49001201223B
:10113300114B001201226E4B00120122704C00125F
:101143000122F84C001201227F4D00120122A44D0E
:10115300001201229950001201220F5100120122A4
:10116300FE5100120122385200120122785200125D
:1011730001221854001201226D5400120122BA54A4
:10118300001201222855001201224E55001201229D
:101193006855001201227E56001201228E5600125B
:1011A30001221458001201223458001201226A58F5
:1011B30000120122EE59001201222D5A00120122BF
:1011C3006B5B0012012255F802120122ADF80212E4
:1011D3000122F5F90212012264FA0212012213FB21
:1011E3000212012232FB0212012286FB02120122A9
:1011F300C4FB02120122A5BF03120122B6BF0312D0
:101203000122CCBE031201220BBF03120122C1BF74
:1012130003120122E0BC03120122F0BC03120122DB
:101223000BBD0312012273BD031201227DB8031209
:10123300012201B90312012267B903120122897E37
:1012430000120122B07E00120122067F0012012249
:10125300587F0012012236A9031201224BA903125F
:1012630001224FAA03120122C3AA03120122DDAAFB
:1012730003120122F4AA0312012207AB0312012273
:101283001FAB0312012234AB0312012255AB03122D
:101293000122A6AB03120122379C031201224E9CAA
:1012A30003120122C79C031201229C9D03120122F7
:1012B3006E9F0312012238A303120122CAA3031251
:1012C300012248A403120122CFA40312012261A523
:1012D30003120122B8A503120122C2A5031201229F
:1012E300D1A503120122E7A503120122FAA50312D5
:1012F30001225BA6031201226FA6031201227DBD08
:1013030003120122E6BD03120122F1BD03120122E1
:1013130001BE0312012277BA03120122A0BA0312FB
:101323000122C9BA03120122E1BA0312012223BB2B
:1013330003120122B0D502120122BAD502120122F0
:10134300FAD50212012243D6021201227DD60212DD
:101353000122D3D602120122F2D602120122FBD6B7
:10136300021201224CD70212012275D70212012266
:101373008AD702120122FAD70212012288D8021256
:101383000122CCD802120122F4D80212012273D90D
:1013930002120122B6D902120122F3D9021201224A
:1013A30005DA0212012224DA021201222DDA0212D4
:1013B3000122F2DA02120122CBB5031201221CB67A
:1013C30003120122A5B6031201220BB70312012255
:1013D30072A6031201229CA60312012296A70312EE
:1013E3000122C5A7031201224BA80312012280B9CF
:1013F300031201224DAE0312012283AE0312012216
:10140300BCAE0312012215B0031201220CBE03125B
:10141300012222BE031201222CBE031201229E7F4F
:1014230000120122ECC602120122A9C702120122F4
:10143300E4C7021201220CC8021201226EC8021272
:101443000122BAC80212012225C902120122A1C92E
:10145300021201229DCA0212012224CC021201228D
:10146300A7CC021201220BCD0212012222CD0212BD
:10147300012218CE0212012264CE021201228A88AE
:10148300031201229F8803120122528903120122AF
:10149300928903120122AB8903120122DE8903120E
:1014A30001222B8A031201225F8A03120122A18ADD
:1014B30003120122978C0312012223D90112012264
:1014C300DADC011201226CDE01120122C3DE0112F9
:1014D3000122E2DE0112012260DF01120122F2E0A9
:1014E30001120122D6E101120122E7E501120122D4
:1014F300BBE60112012262E50212012241E7021258
:1015030001225DE802120122FEE90212012201EA30
:1015130002120122A48C03120122318D0312012233
:101523004E8D03120122508E031201224B8F0312A0
:10153300012215BF031201225BBF0312012287BFE1
:1015430003E066701008A3E066700A08A3E0667003
:101553000408A3E06622C3E7960809E7960809E7AB
:10156300960809E79622C3E09608A3E09608A3E04D
:101573009608A3E09622C008C3E096F50808A3E006
:1015830096420808A3E096420808A3E0964508702F
:1015930001D3D00822080808EAC0E0EBC0E086F0D7
:1015A300E7A4FA180986F0E7A42AFA180986F0E7EF
:1015B300A42AFA180986F0E7A42AFA1986F0E7A400
:1015C300FBE5F02AFA190886F0E7A42BFBE5F03ACD
:1015D300FA190886F0E7A42BFBE5F03AFA18180984
:1015E30086F0E7A4C5F02BFBE43AFA1908E7C5F047
:1015F300C6A426F6E5F03BFBE43AFA1886F0E7A426
:10160300F6E5F00826F6E43B08F6E43A08F6D0E0FF
:10161300FBD0E0FA22E4CFC0E0E4CEC0E0E4CDC0EA
:10162300E0E4CCC0E075F020E626F608E633F608E1
:10163300E633F608E633F6181818EC33FCED33FD01
:10164300EE33FEEF33FFC3EC9709ED9709EE9709ED
:10165300EF97191919400FFFEC97FC09ED97FD0956
:10166300EE97FE191906D5F0BFECF709EDF709EE71
:10167300F709EFF7191919D0E0FCD0E0FDD0E0FE2F
:10168300D0E0FF226016080808C6C313C618C613A5
:10169300C618C613C618C613C6D5E0EA22700908D1
:1016A3000808226016181818C6C333C608C633C6FE
:1016B30008C633C608C633C6D5E0EA22E627F608CD
:1016C30009E637F60809E637F60809E637F622E0B1
:1016D30026F608A3E036F608A3E036F608A3E036BC
:1016E300F622E026F008A3E036F008A3E036F0087F
:1016F300A3E036F022C3E697F60809E697F6080951
:10170300E697F60809E697F622C3E096F008A3E009
:1017130096F008A3E096F008A3E096F022E056F6D0
:1017230008A3E056F608A3E056F608A3E056F6220F
:10173300E056F008A3E056F008A3E056F008A3E053
:1017430056F022E0F608A3E0F608A3E0F608A3E0CB
:10175300F622E6F008A3E6F008A3E6F008A3E6F015
:1017630022E0FAA3E0FBA3E0FCA3E0FD22E0F8A360
:10177300E0F9A3E0FAA3E0FB22E8F0A3E9F0A3EA8F
:10178300F0A3EBF022CAC0E0E6F0A308DAFAD0E057
:10179300FA22CAC0E0E0A3C582CCC582C583CDC509
:1017A30083F0A3C582CCC582C583CDC583DAE6D0D9
:1017B300E0CA22C3E498F8E499F91217F78026C324
:1017C300E49AFAE49BFBE920E7E91217F7E498F8B7
:1017D300E499F922C3E498F8E499F91217F7E49825
:1017E300F8E499F9C3E49AFAE49BFB22EB20E7CFF0
:1017F300E920E7E0B90010BB0008E88AF084F8AA02
:10180300F022E4FBC8FA22EB70227B10C833C8C96C
:1018130033C9335007C39AC3DBF280069A50012AB7
:10182300DBEAC833F4C8C933F4C9FA2275F008E413
:10183300C833C8C933C933C99AC99B5004C92AC913
:101843003BD5F0ECFBC833F4C8E4C9FA22600D08B9
:10185300C6A2E713C618C613C6D5E0F322600C0868
:10186300C6C313C618C613C6D5E0F422700422609B
:101873000D18C6C333C608C633C6D5E0F4182225EF
:101883001810AF08F518400C15198008F518400218
:101893001519D2AF2200C0D0251810AF08F5185083
:1018A3000C05198008F51850020519D2AFD0D022C3
:1018B3002518F58210AF08F518400C15198008F5A6
:1018C3001840021519D2AF851983222518F582E431
:1018D3003519F583222518F8E43519F9222518FA64
:1018E300E43519FB222518FCE43519FD22E47325A0
:1018F30018C582C0E0E51934FFC583C0E0E518C30D
:10190300958224F810AF088583198582188008858D
:101913008319858218D2AFCEF0A3E520F0A378080F
:10192300E608F0A3DEFAEFF0A3E58124FAF8E6086F
:10193300F0A3E608F0A3E608F0A30808E608F0A37E
:10194300E608F0A315811581D0E0FED0E0F81581FB
:1019530015811581E8C0E0EEC0E0222518C582C0DC
:10196300E0E51934FFC583C0E0E518C3958224F987
:1019730010AF0885831985821880088583198582AD
:1019830018D2AFCEF0A3E520F0A37808E608F0A3C1
:10199300DEFAEFF0A3E58124FBF8E608F0A3E608FE
:1019A300F0A30808E608F0A3E608F0A31581158163
:1019B300D0E0FED0E0F815811581E8C0E0EEC0E08C
:1019C30022851983851882E0A3FEE0A3F520780819
:1019D300E0A3F608DFFAE0A3FFE0A3C0E0E0A3C0C2
:1019E300E0E0A3C0E0E0A3C0E0E0A3C0E010AF08E4
:1019F3008582188583198008858218858319D2AF5B
:101A0300D083D08202011F851983851882E0A3FE4B
:101A1300E0A3F5207808E0A3F608DFFAE0A3FFE0EF
:101A2300A3C0E0E0A3C0E0E0A3C0E0E0A3C0E010F7
:101A3300AF088582188583198008858218858319E4
:101A4300D2AFD083D08222C0D02518C582C0E0E5B2
:101A53001934FFC583C0E0E518C3958224F310AFA2
:101A6300088583198582188008858319858218D291
:101A7300AFC8F0A3E9F0A3EAF0A3EBF0A37908E77A
:101A830009F0A3D8FAECF0A3EDF0A3EEF0A3EFF086
:101A9300A3D0E0F0A3D0E0F0A3D0E0F0A3E520F0E2
:101AA300A3E5F0F0A322851983851882E0C0E0A3A3
:101AB300E0F9A3E0FAA3E0FBA37808E0F608A3DFCC
:101AC300FAE0FCA3E0FDA3E0FEA3E0FFA3E0C0E097
:101AD300A3E0C0E0A3E0F5D0A3E0F520A3E0A3F5E5
:101AE300F010AF08858319858218800885831985CE
:101AF3008218D2AFD082D083D0E0F8D0E032740421
:101B03008006740280027401C0E0F4041218B3D09A
:101B1300E0121788227404800474028000CCC0E0B1
:101B2300EDC0E0E518C39CCCAD1950011D10AF0604
:101B33008C188D1980068C188D19D2AF121795D079
:101B4300E0FDD0E0FC22D083D082E9C0E0E493A39F
:101B5300C386F0C5F095F0F908E493A386F0C5F0C9
:101B630095F0700BE493A3C3994005E9048002A3A5
:101B7300E475F002A42582F582E5F03583F583D080
:101B8300E0F9E493A3C0E0E493C0E022D083D082E1
:101B9300ECC0E0EDC0E0E493A3FCE493A3FDED4CC3
:101BA300600D121BDBEC24FFFCED34FFFD80EFE442
:101BB30093A3FCE493A3FDED4C600D121C1AEC24DB
:101BC300FFFCED34FFFD80EFD0E0FDD0E0FCE493BB
:101BD300A3C0E0E493C0E022C0E0C3E4939608749A
:101BE30001939618400FE493667008087401936696
:101BF3001870007019A3A3C3E49396087401939615
:101C030018A3A3400DD0E0D0E0D0E0021BCBA3A3E8
:101C1300A3A3A3A3D0E022C0E0C0F088F0E49366BE
:101C230070080874019366187000A8F0A3A3700BE2
:101C3300D0F0D0E0D0E0D0E0021BCBA3A3D0F0D013
:021C4300E0229D
:101C480074F612195EEAFEEBFF8C088D09EE243457
:101C5800F8E43FF9E8FCE9FD121D7BE0FAEE2437D1
:101C6800F582E43FF583E0F88508F0A4C885F00A1A
:101C78008509F0A4250AF9EA28F8E439F97A257BD8
:101C8800001217F7EA8C828D83F0FA131313541F8E
:101C9800F8EE28F8E43FF9E8245DF582E439F583A5
:101CA800E0C0E074075AF8D0E0B800028004C3131B
:101CB800D8FCA2E05003EA8020EE2436F582E43F07
:101CC800F583E0F5F0EA84A8F0EE28F8E43FF9E8B7
:101CD8002438F582E439F583E0F97F03021A0A749F
:101CE800F512195EEAFEEBFFEE2434F582E43FF5C7
:101CF80083E0C0E0121D7BD0E0F08E828F83A3A327
:101D0800A3A3A3E0FAA3E0FB8E828F83A3A3A3A3DC
:101D1800A3A3A3E0FCA3E0FDECC39AF50AED9BF5B1
:101D28000BEE247FF508E43FF509850882F583E08A
:101D38006401702AEE2480F582E43FF583121B1CAF
:101D4800121D857402121898E960137CB07D04EEA8
:101D5800FAEFFB120C7A850882850983E4F0AC0A55
:101D6800AD0BEEFAEFFB121C48E9F91225E37F04EC
:101D7800021A0AEE2435F582E43FF58322C082C0B8
:101D880083851882851983E0F8A3E0F9C3EA9CEB00
:101D98009D5010C3EC98ED99401BC3EA98EB9950FD
:101DA80014800EC3EA98EB994007C3EC98ED99406C
:101DB80004790180027900D083D08222EAC39CFA98
:101DC800EB9DFB2274ED12195E900376E0640860C7
:101DD80005E06407702C9061C8E060269003A4E0D9
:101DE800F874FF68601CE875F00AA4C8AAF02AF91C
:101DF80074A628FE740339FF8E828F83A3A3A3E001
:101E080070057900021F65EE2468F50EE43FF50FB2
:101E1800906060E0850E82850F83F0751020751143
:101E280005750800750900E5D914F50AE5D95403C4
:101E3800F50B601FEE2482F50CE43FF50D74036585
:101E48000B6059E50A6017EE2467F582E43FF583D5
:101E5800E0700B793DEEFAEFFB120CAA80A4900516
:101E68001BE064016023850C82850D83E060047AA1
:101E78000480027A00E50AC39AFA95E0FB120B0681
:101E88008A088B09EA45097006120F02021E0A85A4
:101E98000C82850D83E070048A108B117A008014FF
:101EA800E5D9C0E0EAF8E51028F582E43511F583B4
:101EB800D0E0F00AEAC3950A40E6850C82850D83D6
:101EC800E0602874FC250AF50A7810121B05AC0A94
:101ED800A90BEEFAEFFB120D587402121898E9706C
:101EE8000AAA08AB091213BE021E5B7403650B60D5
:101EF80054850A0C750D00780C121B05AC10AD1139
:101F0800AA08AB09120D1C7402121898850E828556
:101F18000F83E0F87480687005750C7F8002880C68
:101F2800E50CF50D780D121B09780B121B09A90A8F
:101F3800AC08AD099003A4E0FA7B0012093E7402D4
:101F48001218988013900376E06408600BAC10AD0B
:101F580011EEFAEFFB120DEE120F0E79017F0C0253
:101F68001A0A74F312195E74FC121882EAFEEBFF67
:101F78008909A2AFE433F508C2AFEE2463F50AE499
:101F88003FF50B8010AA0AAB0B120CD41213BE90AB
:101F980004B7E004F0850A82850B83E0F8A3E0F932
:101FA800E849602DE82402FAE439FBEA2402F50C3A
:101FB800E43BF50D780C121B058A828B83E0FCA3A9
:101FC800E0F9EEFAEFFB120CC87402121898E960F7
:101FD800B49004B7E0604D9004B8E0F89004B7E01E
:101FE800C398500C74026509703A9004B9E06034E3
:101FF8008E828F83A3A3A3A3E085188285198312F9
:10200800203C74021218CEE812203C9004B6E02856
:10201800F074021218E8AA18AB1979011209929003
:1020280004B7E4F0E508A2E092AF74041218987FB0
:1020380006021A0AF0A3E4F09004B7E0F8220000C0
:102048008521878522C622C0E074EB121A4AA2AF06
:10205800E433F508C2AF759B00906182E0A2E050BE
:1020680030E591A2E0502A7591FE74016521702136
:102078001221E2120E481221D0121B1812238D745D
:1020880004121898E9640170057901120E96121D60
:10209800CC906182E0A2E5505DE591A2E5505775CC
:1020A80091DF900376E064076005E06408702F1202
:1020B80021E274016521703E120E481221D0121BD4
:1020C8001812238D7404121898E9640170057901B7
:1020D800120E967901EEFAEFFB121F6A8018E0647F
:1020E8000D7013900398E004F064287002E4F07A0D
:1020F80000E0F9120F14906182E0A2E64003022189
:10210800A5E591A2E640030221A57591BF9003764B
:10211800E064057008120E30120E3C8003120E3671
:10212800752100120EA2E9900377F07900120E963D
:10213800120BE47A017B00900375E0F912138E907C
:102148007803E06442705690051FE014F0704EC2A8
:10215800AF12215C00782AD0E0F618D0E0F6E59FAF
:102168005407F87005750DFF8003750D7FC4C0E036
:102178007829E6F50A08E6550DF50B740B780A126E
:102188001860D0E0250AF8906270E0A2E740F8E80D
:10219800C333906272F0906270E0D2E0F090618197
:1021A800E0A2E35009E5E9A2E3500375E9F7A3E0EB
:1021B800A2E75009E591A2E7500375917FE508A2CF
:1021C800E092AF7F08021AA98E828F83E0F8A3E01D
:1021D800C82416F582E438F583229003A4E0F87544
:1021E800F00AA4C8AAF02AF974A628FE740339FFD5
:1021F80022C0E0C0D0C082C083906183E0A2E050DA
:1022080009E5BFA2E0500375BFFEE0A2E15009E571
:10221800BFA2E1500375BFFDE0A2E25009E5BFA2ED
:10222800E2500375BFFBE0A2E35009E5BFA2E3500B
:102238000375BFF7E0A2E45009E5BFA2E4500375B7
:10224800BFEFE0A2E55009E5BFA2E5500375BFDF87
:10225800E0A2E65009E5BFA2E6500375BFBFD083F0
:10226800D082D0D0D0E032C0E074F2121A4AE5A78A
:10227800A2E4500FE5A1A2E4500953A7EF75A1EF1E
:102288001222C3E5A7A2E5500CE5A1A2E55006532A
:10229800A7DF75A1DFE5A7A2E15009E5A1A2E150FA
:1022A8000375A1FDE5A7A2E2500CE5A1A2E2500644
:1022B80053A7FB75A1FB7F01021AA974F812195ED6
:1022C800752101900376E0640670077A007B00129E
:1022D8000E18A2AFE433FED2AF90037CE064017025
:1022E800187A207B00900375E0F91214A27A207BFB
:1022F80000900375E0F9121394906182E0D2E6F041
:1023080090051CE0602185C622801690037BE0645E
:10231800017008E5C654F84405F5C653BEFC122002
:10232800487401652160E4EEA2E092AF7F01021AD1
:102338000A0000008E238F2485822885832785182C
:1023480082851983E0CEA3E0CF852882852783EB99
:10235800C9EAC8EDCBECCA75F010C3E833C8E93355
:10236800C9EA33CAEB33CBC3EA9EF526EB9FF525C2
:10237800B35004AB25AA26EC33CCED33CDD5F0DA37
:10238800AE23AF242274F112195E8A088B098C0AD5
:102398008D0B9090967808121720740F1218CE782B
:1023A8000C121746909096780C1217207808790C22
:1023B80012155990908650107808790C1216F878F2
:1023C800081215794014800E780C79081216F878DE
:1023D8000C12157950047901800279007F08021ADD
:1023E8000A74ED12195E8A088B098C0A8D0B90907D
:1023F80096780812172074131218CE780C12174604
:10240800909096780C121720780C7908121559407C
:10241800117808790C1216F8AA08AB09AC0AAD0BAA
:10242800802275100075110075120075130178105F
:10243800790C1216F8781079081216BFAA10AB1189
:10244800AC12AD137F0C021A0A90909678081217F6
:10245800468A828B8378081217337F04021A0A741B
:10246800F512195E8C828D8378081217468A828B42
:1024780083780812170C1224BBC3E098F0A3E099E4
:102488001224AD401E9090C278081217468A828B9B
:102498008378081216E58E828F83E02420F0A3E06B
:1024A800344EF080A4F08E828F83C3E09420A3E0A2
:1024B800944E22EA2404F8E43BF9E8FEE9FF8C8212
:1024C8008D83A3A3A3A3E0F8A3E0F98E828F8322D0
:1024D80074F512195EE9FE9004D2E0FAA3E0FBEE6F
:1024E80029F8E433F9748028F582748F39F583E08C
:1024F8002AF508A3E03BF5097808121B059090B26D
:1025080012176412233C74021218988A088B098CDB
:102518000A8D0B74107808121687AA08AB097F0475
:10252800021A0A74F112195E8A0C8B0D8C0E8D0F2B
:1025380074111218CE121B1C74111218CEE024014B
:10254800F508A3E03400F509E4F50AF50B780C79F1
:10255800081215989090827808121746780C790816
:10256800121598AA0CAB0DAC0EAD0F12233C7402D9
:102578001218988B09EA450960047A0180027A00EA
:10258800EC2AFCE43DFD74131218CEE0F8A3E0F940
:10259800E8FEE9FFECF8EDF97A717B021217F7888B
:1025A800088909E4F50AF50B8E828F8378081217DB
:1025B80055ECF8EDF97A717B021217F78A088B0946
:1025C8007405780812186F8E828F83A3A3A3A3E5DE
:1025D80008F0A3E509F07F08021A0AC082C083E95F
:1025E800906000F0D083D08222C0E074F2121A4AC0
:1025F800A2AFE433FED2AFC2C0E5D1A2E450067563
:10260800D10F1212F8EEA2E092AF7F01021AA9C010
:10261800E074F2121A4AA2AFE433FED2AFE589A2FF
:10262800E04006E589A2E150031212507589007551
:102638008900C2C5EEA2E092AF7F01021AA9C0E0EC
:10264800C0D0E8C0E0E9C0E0A9A8D2AFC2C7E9A2FB
:10265800E7E433F8E9A2E792AFD0E0F9D0E0F8D0A8
:10266800D0D0E032C0E0C0D0E8C0E0E9C0E0EAC0C5
:10267800E0C082C083A2AFE433FAD2AF9009BFE0D2
:10268800F8A3E0687008539AFBA374018022C2E99A
:102698009009BFE0F8740128F0743F28F582E4340B
:1026A80009F583E0F5C19009BFE0C394804002E4D6
:1026B800F0EAA2E092AFD083D082D0E0FAD0E0F97D
:0E26C800D0E0F8D0D0D0E032C2AF0200002245
:1026D800FFFFFFFFFFFFFFFFC082C083E99017786D
:1026E800F0D083D08202011F74F61218F2E990022A
:1026F800E8F0900348E0F5087509007402780812BC
:10270800186FAA08AB091214009002E91230A390BE
:1027180002E9123490606F900348E075F003A4FA60
:10272800ABF01214009003061230A3900306123483
:1027380090700B9002E912346112140680489003DD
:10274800061243F57AFF7BFF1211C67A0080198AB8
:10275800087509007402780812186F123E9D74FFFC
:102768001228A3E4F0A3F00A900348E0F8EAC3981B
:1027780040DD790512082A9002E8E0F91207167A76
:10278800B47B08120AA6023F4074F41218F28A08B1
:102798008B09EB548060479002E8E0F91213768ABF
:1027A8000A8B0BAE0AAF0BEE4F602A8E828F83E046
:1027B80064B0701A12083CE960148E828F83A3A358
:1027C800A3A3E0F9EE2405FAE43FFB12080CEEFAA5
:1027D800EFFB121364AA08E5096480FB80047A0001
:1027E8007B000229F374F21218F274FB121882EAC1
:1027F800FEEBFFEE4F604574031218CEEEF0A3EF28
:10280800F0851882851983ECF0A3EDF07402121894
:10281800CEE9F0AA18AB19120710E9F5087075741B
:10282800131218CEE0F50AA3E0F50BE50A450B6094
:10283800638E828F83122E2CEE4F700575080280EE
:10284800537A067B001214008A0C8B0DA80CA90D74
:10285800E8497005750813803B88828983E412284B
:10286800A3EEF0A3EF1229BFE50AF0A3E50BF09061
:1028780002EC1229B89002EC6017E0FCA3E0800398
:10288800EAFCEBFD8C828D831229B870F38C828D63
:1028980083123AB8A9087405024675F0A31243D703
:1028A800A32274F21218F28908890C750D007403BA
:1028B800780C12186F850C0A850D0B9002EBF090BE
:1028C80002E91238C31229B6602E12140679008064
:1028D8001D890C750D007402780C12186F9002E9AE
:1028E800123D5C8882F583A3A3E4F0A3F00990036A
:1028F80048E0F8E9C39840D9900348E0FA850AF01F
:10290800A4CAA8F0850BF0A428FB1214008A0C8B2B
:102918000DAE0CAF0DEE4F70030229AC900348E0EA
:10292800FC850AF0A4CCA8F0850BF0A428FD79005A
:102938001213527C0080318D0C750D007403780CD5
:1029480012186F8A828B831229B188828983E4F0F6
:102958001229BEA3A3F0A3F00DEDC3950840D8EE4D
:10296800250AFEEF350BFF0C900348E0F8ECC398FE
:1029780050288C0C750D007402780C12186F900298
:10298800E91229B1E82402500109FAE9FB8A828B8D
:1029980083EEF0A3EFF07D0080BFE5089002EBF036
:1029A800790080027913024678123D60F922A3A3C8
:1029B800123465EA4B22A31243D7A3A3A32274F4CB
:1029C8001218F27900EAA2E0501F750854750990B0
:1029D8007808121B0579107C047D007A7A7B17121F
:1029E80008247402121898E9F980007F040219C4B7
:1029F800C082C0839002EC123490601C8882898364
:102A0800A3A3E06A7003A3E06B8882898370E8A3BC
:102A1800A3A3A312346180047A007B000226E97420
:102A2800F21218F274FD121882EAFEEBFF85188282
:102A3800851983E4F0A3F074021218CE7401F01221
:102A4800348D70141209E01214009002EF1230A3B2
:102A580012348D7003022BB91231A3EE2404F50A47
:102A6800E43FF50B850A82F583E024FE603C24FCF4
:102A7800607424FE607E24FE7003022B0924FE701D
:102A880003022B1624FE7003022B2324FE7003027C
:102A98002B3024FE7003022B3D24FC7003022B5EB6
:102AA80024FE7003022B76022BB21209E09002F189
:102AB800EAF0A3EB122BC5120458E96003022BB20B
:102AC8009002F1121B1C8E828F83A3A3A3A3A312CF
:102AD80043F58508828509831234611207F474026C
:102AE800121898022BB2AC18AD19EEFAEFFB1208C7
:102AF80042022B81AC18AD19EEFAEFFB12084880A0
:102B080078AC18AD19EEFAEFFB12084E806BAC18D2
:102B1800AD19EEFAEFFB120854805EAC18AD19EE51
:102B2800FAEFFB12085A8051AC18AD19EEFAEFFB18
:102B3800120860804474021218D8880C890D780C29
:102B4800121B0574021218E8EEFAEFFB12086674FD
:102B5800021218988023AC18AD19EEFAEFFB120890
:102B68006CE9F8701674021218CEE4F0803CAC18C8
:102B7800AD19EEFAEFFB120872E9F8E8602C8E82C4
:102B88008F83A3E064146022850A82850B83E0901A
:102B980002F1F08518828519831234619002F212CD
:102BA80030A3E8A3122BC5120452EEFAEFFB12076A
:102BB800CA74021218CEE0F97403024675F07CF16B
:102BC8007D028508828509831234652274E812180B
:102BD800F274FA12188274041218CEECF0A3EDF015
:102BE8008A128B13EA2405F50EE43513F50FEA244F
:102BF80002F510E43513F511851082F5831234615E
:102C08001205488A0A8B0B7508007C037D00790041
:102C18007AF17B02121352E50E2402F516E4350F01
:102C2800F51774021218D8880C890D780C121B0538
:102C3800850E82850F83A3A3A3A3E0F50C750D0071
:102C4800780C121B05E50E2405F50CE4350FF50D7F
:102C5800780C121B058516828517831237681207B0
:102C68002E74061218988A0C8B0DE50C450D70030E
:102C7800022DF58020851882851983E08882898352
:102C8800F00508851882851983A3E0C0E0122E3666
:102C9800D0E0F00508E50A24FBFAE50B34FFFBC396
:102CA800E5089AE49B4003022DF57E007F0085121B
:102CB80082851383A3A3A3A3E0F5097809121B094E
:102CC800E4F514F5157814121B057514EE75150244
:102CD8007814121B059002EF121B1C74091218CEEF
:102CE800121B1CE50A24F9F9AC0CAD0D8510828580
:102CF800118312346112089C7409121898E9600350
:102D0800022D96850E82850F83A3A3A3A3A3A3A355
:102D1800E0F89002EEE0687075E0F5148E1578140E
:102D2800121B051243F2850E82850F83A3A3A3A36A
:102D3800A3A3A3A312346112134C7402121898E9C6
:102D4800604C9002F2123490703BE4F5147814123F
:102D58001B057CFF7DFF790785108285118312345E
:102D68006112080674021218981234967017850EAC
:102D780082850F8312458F74041218CE123E5012AA
:102D88003799022E29850C82850D83122E2CA818BE
:102D9800A919881489157814121B0574041218CE01
:102DA800121B1C85168285178312309912073A74F4
:102DB800041218988A0C8B0DEE4F7003022C7212B5
:102DC8002E36EE122E4112374FEF122E41F8A3E0A5
:102DD8003400F9E50C450D6003022C7D8882898357
:102DE80074FFF00508122E3674FFF00508E5086038
:102DF8001A1313543F1230A9120464E960099002AF
:102E0800F21234611213BE79008016850E82850F86
:102E18008312458F74041218CE123E50123AB879B4
:102E28000A023722A3A3A3A3E0FEA3E0FF22A80877
:102E38009002F2E02812374F22F00508089002F2BB
:102E4800E0282274E81218F274FA12188274021236
:102E580018CE1230A374041218CEECF0A3EDF0745F
:102E6800021218CEE02405123738E0F50CA3E0F57D
:102E78000D74021218CEE02402F510A3E03400F518
:102E880011851082F58312346112054875080075A2
:102E98000900EA24FCFEEB34FFFF8008050CE50C72
:102EA8007002050DA808C3EE98EF94005003023095
:102EB80055A818A919880E890F780E121B058514B4
:102EC80082851583A3A3A3A31243F9121B05E51456
:102ED8002405F50EE43515F50F780E121B0585143B
:102EE8008285158312309712072E74061218988A55
:102EF8000E8B0FEA450F7003023055EA2404F516CD
:102F0800E4350FF517851682F583E0F50CA3E0F597
:102F18000D8518828519831243F58A828B83A3A3B2
:102F2800A3E0F985108285118312346112071CE928
:102F3800F509600302305574021218CE12375FF596
:102F4800097809121B09E4F512F5137812121B050A
:102F58007512EE7513027812121B059002EF121B00
:102F68001C74071218CE121B1CEEF9AC0EAD0F859F
:102F7800108285118312346112089C740912189802
:102F8800E9F5096003023055E508703FE4F50EF5F0
:102F98000F780E121B057CFF7DFF7909851082854D
:102FA80011831234611208067402121898123785B8
:102FB800700D74041218CE12308C79110230899079
:102FC80002EEE024029002F2F080149002F2E0FA9D
:102FD8009002EEE0790024025001096A497072A853
:102FE800089002EEE0FAE82AFAE43400FBEE9AEFE1
:102FF8009B405A851682851783E0C0E09002F31241
:103008002E3BD0E0F00508851682851783A3E0C023
:10301800E0089002F3122E3BD0E0F005089002EE93
:103028001243F9121B051243F2A80812372C121387
:103038003A74021218989002EEE02508F50874FF19
:10304800650C700474FF650D6003022EA4E508602A
:103058001F9002F2E0F5F0E508841230A912046A24
:10306800E960099002F31234611213BE79008011ED
:10307800E509700375090A74041218CE12308CA978
:10308800090237221238C7E50CF0A3E50DF022A398
:10309800A3124684AA0CAB0D22A3A3EAF0A3EBF07B
:1030A800229002F1F07CF17D028510828511831255
:1030B80034652274EC1218F274FC121882123BC8A0
:1030C80074021218E812345B1207348A0C8B0DEA6A
:1030D800450D70030231931231A3A818A91988105D
:1030E80089117810121B057CFF7DFF790B850882FA
:1030F8008509831234611208067402121898123274
:1031080099700C850A82850B831237960231A08E3E
:10311800828F83A3A3A3A3E0F5127812121B09E4FC
:10312800F512F5137812121B057512F17513027852
:1031380012121B057810121B0574091218CE121BE7
:103148001C74091218CEE0F9AC0CAD0D8508828507
:10315800098312346112089C7409121898E9FE70E8
:10316800157CF17D02850882850983123461120479
:1031780070E97009802074166E70027E009002F269
:103188001234611213BEEE7004800B7E01850A8230
:10319800850B83123AB5EEF9023ACAEE2402F50815
:1031A800E43FF5092274EC1218F274FC121882EA52
:1031B800FEEBFF8C0E8D0FEE2405F508E43FF509B4
:1031C80074021218E885088285098312346112078F
:1031D800348A0C8B0DEA450D7003023289EE240205
:1031E800F50AE43FF50BA818A91988108911781079
:1031F800121B057CFF7DFF790D12345B12080674E3
:1032080002121898123299700B8508828509831268
:103218003796807A8E828F83A3A3A3A3E0F51278D2
:1032280012121B09850882850983A3A3121B1C752A
:1032380012F17513027812121B057810121B05740F
:10324800091218CE121B1C74091218CEE0F9123498
:103258005712089C7409121898E9FE700F7CF17DCA
:103268000212345B120476E97009802074166E70BD
:10327800027E009002F21234611213BEEE700480D6
:103288000B7E01850882850983123AB5EEF9023A68
:10329800CA1234A0F510A3E0F511EA45112274E82A
:1032A8001218F274FE1218828A168B178C148D1558
:1032B800EA2405F50CE43517F50DEA2402F50EE4C9
:1032C8003517F50F850E82F5831234611205488A89
:1032D800088B09750B007C037D0079007AF17B026D
:1032E800121352750A00E50814F5100424FFF508B6
:1032F800E50934FFF50980549002F1E0FA9002EEF6
:10330800E0F8EA28F8E43400F9E50898E509995066
:103318000D9002F1E0F8E510C3989002EEF0E0F5A8
:10332800127513007812121B051243F29002F2E094
:103338002AFAA3E03400FB12133A74021218989088
:1033480002EEE0F89002F1E028F0050A850C82858B
:103358000D83A3A3123D6C400302343C9002F1E0BC
:10336800C39508E49509400302343CAE0AEE2EFEEC
:10337800E433FF12347BAC18AD1912440DE439FB69
:103388001207348A128B13AC12AD13EC4D701B75F7
:103398000B0112346B123AB99002F21229B8600389
:1033A8001213BEA90B74020237248516828517836F
:1033B800A3A3A3A3E0F50B780B121B09E4F512F500
:1033C800137812121B057512EE7513027812121B70
:1033D800059002EF121B1C74071218CE121B1CA9B1
:1033E80010850E82850F8312346112089C740912AD
:1033F8001898E9F50B709B9002F212349060030262
:103408003300E4F512F5137812121B057CFF7DFFDB
:10341800790F850E82850F831234611208067402B3
:10342800121898123496600302330012346B123764
:103438009A0233AD7CF17D02850E82850F831234AA
:103448006112047CE960030233A079000233ADAC59
:103458000CAD0D850A82850B8312346522E0FAA330
:10346800E0FB2212347BE0FAA3E0F9EA85148285B6
:10347800158322850C82850D83E02EF8A3E03FF9A1
:1034880088828983229002EF124593E849221234F8
:10349800A0F8A3E0F9E849229002F2EAF0A3EBF0E1
:1034A8009002F2E02274E81218F274FA1218827488
:1034B800041218CE1230A38C168D1774041218CE6D
:1034C800E02405F50EA3E03400F50F74041218CEBD
:1034D800E024021237381234611205488A0A8B0B2D
:1034E8007F007E00A818A919880889097808121B86
:1034F80005850E82850F83A3A3A3A3E0F5088E0993
:103508007808121B05E50E2405F508E4350FF509C2
:103518007808121B05850E82850F83A3A3123768CE
:1035280012072E74061218988A0C8B0D80291237F0
:1035380059F00F123759F00F9002EE123AA4121BED
:10354800051243F2EFF812372C12133A74021218CC
:10355800989002EEE02FFFE50C450D70030235E868
:10356800851882851983123BDAA3A3A3E0F9851491
:103578008285158312346112071CE9FEE50C2404C8
:10358800F510E4350DF511EE705074041218CE12D2
:10359800375FF5087808121B09E4F508F50978087B
:1035A800121B057508EE7509027808121B059002B2
:1035B800EF121B1C74071218CE121B1CE50A24FA02
:1035C800F9AC0CAD0D85148285158312346112088F
:1035D8009C7409121898E9FE6039123775123AB8C6
:1035E800EF700302370F9002F2E0F5F0EF849002DB
:1035F800F1F07CF17D028514828515831234611205
:103608000482E960099002F31234611213BE790052
:103618000237228F08EF703BE4F512F51378121287
:103628001B057CFF7DFF7911851482851583123473
:103638006112080674021218981237857009123739
:10364800751237990237229002EEE024049002F2B4
:10365800F080359002EEE0F89002F2E0FAE82404F7
:10366800FCE43400FDEC6A4D60030235EEE50A2403
:10367800FAFAE50B34FFFBE50828F8E43400F9EA28
:1036880098EB9950030235EE851082851183E0C0CE
:10369800E09002F3E02FF8A3E034008882F583D0AD
:1036A800E0F00F851082851183A3E0C0E012374651
:1036B800D0E0F00F74021218D88808890978081227
:1036C8001B0574021218CE121B1C850E82850F83EF
:1036D80012309712073A74041218988A0C8B0DEA64
:1036E800450D700302353674021218CEE0C0E012A0
:1036F8003746D0E0F00F74021218CEA3E0C0E012F3
:103708003746D0E002353EEE70027E0A850E82858D
:103718000F8312377B123AB8EEF974061218987FA5
:10372800100219C49002F3E028FAA3E03400FB2247
:10373800F514A3E03400F515851482F583221237B9
:103748004A229002F3E02FFAA3E034008A82F5833C
:103758002212374A74FF221238C7A3A3A3A3E02278
:10376800124684850E82850F831234652285108265
:10377800851183124593851682851783229002F35B
:10378800EAF0A3EBF09002F3124593E84922123ACB
:10379800BEE8F0A3E9F079112274EA1218F274FE77
:1037A8001218828A088B098C128D13EA2405FEE40C
:1037B8003509FFAC18AD198E828F83123461120758
:1037C800348A0C8B0DEE2406F50EE43FF50FEA451E
:1037D8000D7003023899E5082402F50AE43509F565
:1037E8000B8A828B83A3A3A3E0A2E55028851882C5
:1037F8008519831234611208908A108B11EA4511D9
:10380800602079121234578510828511831218F0BE
:10381800E9F50C707F850E82850F83E06009795287
:103828008011750C0E806D850882850983A3A3A37A
:10383800A3E0F9E4F508F5097808121B058E828FD4
:1038480083A3A3E0F5087808121B058E828F83A353
:10385800A3A3121B1C8E828F831243F512345B12B2
:1038680008A27406121898E9F50C7011850E828565
:103878000F83E0702D12345B12048880257416655E
:103888000C7011750C0074181218CE1238C3E4802D
:1038980010750C0112458B851282851383E8F0A3FD
:1038A800E9F0850E82850F83E0600479008002A923
:1038B8000C74021218987F0E0219C41238C722E03D
:1038C800F8A3E0F58388822274EC1218F274F712D8
:1038D80018828A0A8B0B8C108D11EA2405FEE435B8
:1038E8000BFF750C00AC18AD198E828F83123461F2
:1038F8001207348A088B09EA45097003023A8FE5F2
:103908000A2402F50A5002050B8A828B83A3A3A31B
:10391800E0A2E5502F8518828519831234611208B8
:10392800908A0C8B0DEA450D604F7912AC08AD09F1
:1039380012345B850C82850D831218F0E9F50C6052
:1039480003023A92850A82850B83E0F508A3E0F525
:1039580009AA08FB120884EA4B70197AFF7BFF1248
:103968000884EA4B7003023A858A828B83E508F063
:10397800A3E509F07508008008750C0E023A920557
:10398800089002EBE0F8E508C3984003023A858501
:10399800080E750F007403780E12186F8A828B83D5
:1039A800A3A3E0250EF8A3E0350F123E5970D08E80
:1039B800828F83123AAD1230A38E828F83A3A31213
:1039C8003AAD1230A1EE2404F508E43FF509850864
:1039D80082F583E088828983A3A3A3A3F0A3E4F0FC
:1039E800EE2405F50EE43FF50F850E82F583123AB5
:1039F800ADA3A3A3A31230A1751207751300781203
:103A0800121B05EEFCEFFD74041218E012133A7451
:103A180002121898E4F5127812121B05850882859F
:103A28000983E0FC7D00791712345B1208067402E2
:103A380012189874071218CE1230A374071218CEF1
:103A4800E0FA4B603D850882850983123AA4121B6F
:103A580005850E82850F831243F512133A740212FC
:103A6800189874021218E812345B12048EE9602662
:103A780074071218CE1234611213BE8019750C091E
:103A88008008750C118003750C0112458B85108216
:103A9800851183123AB8A90C74098028E0F50875D5
:103AA80009007808221234658882898322123ABE76
:103AB800E8F0A3E9F022E0F8A3E0F9850E82850F8B
:103AC800832274041218987F0C0219C474EC12181B
:103AD800F2123BC8751000EE2402F50CE43FF50D18
:103AE800850C82F5831234611208848A088B09EAEE
:103AF80045097003023BAC850A82850B83E06401AB
:103B08006003023BA1AC08AD09AA0AAB0B12087806
:103B1800E9606E850882850983122E2EEE2406F54B
:103B28000AE43FF50B8E828F83A3A3121B1C8E829F
:103B38008F83A3A3A3A3121B1C850A82850B831260
:103B48001B1C79188E828F83123BDA12346112089B
:103B5800A27406121898E9F8741668700B850A8220
:103B6800850B83E4F0A38014E860128E828F8312A1
:103B78003461850E82850F83EAF0A3EBF08810800C
:103B880018780E121B05AC08AD09EEFAEFFB120807
:103B98007E7402121898E9F510AA08AB0912088A6F
:103BA800E510700E850C82850D8312346112049421
:103BB8008009741665107003751000A910023ACFB9
:103BC800EAFEEBFF8C0E8D0FEE2405F50AE43FF5B7
:103BD8000B22124684850C82850D832274EA121802
:103BE800F27508007509007E007F00750A00EC2454
:103BF80002F510E43DF5118035EC65087003ED65BC
:103C0800096003023C9988828983A3A3E06A700350
:103C1800A3E06B707C88828983A3A3A3A312458F3A
:103C2800EE28FEEF39FFEA28FAEB39FB050A123DC8
:103C380069503A850A0C750D007403780C12186FD8
:103C4800851082851183123D5C123E59601FE5087C
:103C5800450970A58C088D0988828983122E2C88C5
:103C6800828983A3A3E02EFAA3E03F80BEE50AC3BE
:103C780094025003023D57750800750900EE4F6025
:103C880010EEFAEFFB1213B88A0E8B0FEA450F708D
:103C9800057900023D59750B00023D2C850B0C750A
:103CA8000D007403780C12186F851082851183E05B
:103CB800250CF50CA3E0350DF50DE50C2406F514DF
:103CC800E4350DF515851482F583123E5E6042E5F4
:103CD8000C2404F512E4350DF513851282F58312D0
:103CE8001B1CE50E2508FAE50F3509FB12133A747B
:103CF80002121898851282851383E02508F508A317
:103D0800E03509F50985148285158312346112138B
:103D1800BEE50B600D7C087D007900AA0CAB0D1286
:103D28001352050BE50BC3950A5003023CA48510FA
:103D38008285118312458F88828983A3A3A3A3A3B5
:103D4800A3E50EF0A3E50F1229BFEEF0A3EFF0797B
:103D5800010238BE123D6022E0250CF8A3E0350DC3
:103D6800229002EBE0F8E50AC3982274F01218F2E8
:103D78008A0E8B0F8C0A8D0B750D00750C00805008
:103D88007916EE2406F508E43FF5098E828F83A3A1
:103D9800A3121B1C8E828F83A3A3A3A3121B1C85B3
:103DA8000882850983121B1C850E82850F83A3A3B5
:103DB8001234611208A27406121898E9F50D7416E7
:103DC800650D706C850882850983E4F0A3F0050C05
:103DD8009002EBE0F8E50CC3985066AA0C8A0875C7
:103DE80009007403780812186F850A82850B83A36B
:103DF800A3123EA8E8FEE9FF8E828F83123E5E6022
:103E080040EA2401F508E43400F5099002EBE06586
:103E1800087002E509601488828983A3A3A3A3A379
:103E2800A3A3A31234906003023D887918023D8A47
:103E3800E9609B12458B74101218CE123E50123A4C
:103E4800B8A90D7F080219C4E0FAA3E0F5838A82B5
:103E580022F988828983124684EC4D2274F612185E
:103E6800F27C0080010C900348E0F8ECC398501EE7
:103E78008C087509007402780812186F123E9DE0CC
:103E88006A7003A3E06B70DDE8FAE9FB80047A004E
:103E98007B00023F409002E9123EA8888289832273
:103EA800E02508F8A3E03509F92274F21218F28A1D
:103EB800088B09750A0080278E828F83A3A3A3A38A
:103EC8001229B660031213BE7C087D007900EEFA51
:103ED800EFFB1213528E828F83E4F0A3F0050A12CF
:103EE8003D695027850A0C750D007403780C12186B
:103EF8006F850882850983A3A3E0250CFEA3E0351E
:103F08000DFF8E828F8312349070AD8508828509EB
:103F18008374FFF0A3F002467874F61218F21208C0
:103F2800368A828B83E582458370067A007B00801F
:103F380007A3A3A3A31234617F020219C474F41265
:103F480018F289088C828D83E06402703C12452E39
:103F5800FEA3E0F9EEF87402687003742969702909
:103F6800750A02750B00780A121B0574101218CE18
:103F7800121B1C74101218CE121B1CA9081211D87F
:103F88007406121898E9F9800279010229F374E895
:103F98001218F274FB121882E9851882851983F0C9
:103FA8008A168B17ECFEEDFF7510008E828F83A3A7
:103FB800A3A3E0A2E4502D741D1218CE123461128E
:103FC80008908A828B83E582458370030243CD790A
:103FD8000AEEFCEFFDAA16AB171218F0E9F510600F
:103FE800030243D0741F1218CEE0F508A3E0F509C8
:103FF80074211218CEE0F50AA3E0F50B7423121809
:10400800CEE0F50EA3E0F50F8E828F83E0640260A8
:104018000302436EA312458F850882850983A38511
:104028008212858313EE2406F50CE43FF50D888291
:10403800898312440DF514E439F5157814121B8F91
:104048000100002801287040070002283541032894
:10405800A3400029644201298F42022930420329E2
:104068006442042908436E43E50E450F600302438A
:1040780069850C82850D8312458FE8FAE9FB8A82EF
:104088008B83E0850A82850B83124418121B058AEC
:10409800828B83A3E0FCA3E00242F2E50E450F60A9
:1040A80003024369850A82850B837401F012440276
:1040B800850882850983F07C007D008E828F83A32A
:1040C800A3A3A3E02401FAA3E03400FB120734EA17
:1040D8004B60408A828B83E02402F8850A82850B34
:1040E80083E028F0EA2404F8E43BF988828983E035
:1040F800851282851383124426124418121B058ADE
:10410800828B83A31243F5E5082403FAE43509FBFF
:104118000242F7850A82850B83E02404F07C047D43
:10412800007900AA12AB131213520243D0E50E45D0
:104138000F6003024369124402FEA3E0FF850A826E
:10414800850B837404F0EE850882850983F0EF857A
:104158001282851383F074031218E8EEFAEFFB124B
:1041680007348A0C8B0DEA450D70030242138A82CC
:104178008B83A3A3122E2C74011218D8880E890FD2
:10418800780E121B0574051218CE121B1C7CFF7DBD
:10419800FF12073A74041218988B0FEA450F703310
:1041A800850C82850D831243F9121B05850C8285C7
:1041B8000D83A3121B1C7C027D007AED7B901205F7
:1041C800367404121898E9700A74011218CE74FF34
:1041D800F0A3F08E828F83E064027039750C02754B
:1041E8000D00780C121B058E828F83A31243F5E510
:1041F800082404FAE43509FB12133A7402121898D9
:10420800850A82850B83E02402800974011218CE86
:10421800EEF0A3EFF074011218CE1243E774011206
:1042280018CE1243DE024363E50E450F60030243D6
:1042380069850C82850D8312467DAA16AB1712116B
:10424800DE850A82850B837402F0850882850983DE
:10425800EAF0851282851383EB024366E50E450F6B
:104268006003024369124402F8A3E0F9850A8285D3
:104278000B837402F0E8850882850983F0E98512CA
:1042880082851383024366850C82850D831234610F
:10429800121334EAFAF8C3950EE4950F405CE8650A
:1042A8000E450F70047A008021851882851983E0F5
:1042B800FCE50E2CFCE4350FFDC3EC98ED940050A2
:1042C80003E08005E50ECAC39AFAEA850A82850BDF
:1042D80083F08A0A750B00780A121B05850C828503
:1042E8000D83E0250EFCA3E0350FFDAA08AB0912EB
:1042F800133A74021218980243D07510070243D07B
:10430800E50E450F705B850C82850D8312458F8500
:104318000A82850B837407F0888289831243DF122F
:1043280043D7E0851282851383F0E82402FAE43942
:10433800FB8A828B831243E78A828B831243DEA334
:10434800A31229BE1243ECF0E82405F850010988AD
:104358008289831243ECA3124426A3A3A3A3F0806B
:104368006775100B8062741D1218CE123461120822
:10437800368A828B83E5824583604A12458F880C92
:10438800890DE8450D603E74251218CEE0F51078C9
:1043980010121B09780E121B05780A121B057808E3
:1043A800121B0574071218CEE0F9EEFCEFFDAA16F1
:1043B800AB17850C82850D831218F07407121898B4
:1043C800E9F510800375100EA9107405023724F062
:1043D80088828983A322A3E0850882850983221223
:1043E800442DF02212442DA3A3229002EF124684FA
:1043F80022E0F50E750F00780E22850C82850D835C
:104408001238C7E022E0FAA3E0F8E4C8F9EA282263
:10441800F08A828B83E0F50A750B00780A22124332
:10442800D712442D22E0850882850983A3A322742C
:10443800EE1218F274FE1218828A088B09ECFEED4F
:10444800FF890AAC18AD19EEFAEFFB1207348A0C93
:104458008B0DEA450D700302451F85188285198367
:104468001234611208368A828B83E5824583700391
:1044780002451AA3A312458F880E890FE8450F70CD
:104488000302451A74141218CEE0F510A3E0F511D2
:10449800E50AF50B780B121B0974191218CE121BBA
:1044A8001C7810121B05741B1218CEE0F9AC0CAD69
:1044B8000DAA08AB09850E82850F831218F07405C2
:1044C800121898E9F50B705274FE650A604C850C59
:1044D80082850D83E06402704112452EFAA3E0F94B
:1044E800EAF87402687003742969702E8510828551
:1044F800118312440DF50CE439F50D780C121B05E7
:10450800EEFCEFFDAA08AB091208BA74021218985B
:104518008008750B0E8003750B01A90B7402121825
:10452800987F0A0219C4A312459388828983E022DE
:1045380074F61218F274FE121882740C1218CE1245
:10454800458FE8851882851983F074011218CEE921
:10455800F0E4F508F5097808121B057508027808D3
:10456800121B0574041218D8880889097808121BC8
:104578000579FE1208A27406121898740212189887
:10458800023F408E828F8312459322E0F8A3E0F920
:104598002274F71218F2EAFEEBFF8908900306125C
:1045A80043F51211DEEA5402600BA908EEFAEFFB9C
:1045B800120728800279017F010219C474F21218C7
:1045C800F274FE121882EAFEEBFF890A7401650A8A
:1045D80060147402650A60030246737901120AC402
:1045E800E96003024673EEFAEFFB120884EA4B60B7
:1045F8000312088AA818A919880889097808121BBB
:10460800057508027509007808121B057508E37519
:1046180009907808121B057CFF7DFF7A017B001248
:10462800072E74061218988038850882850983A396
:10463800A3A3A3A3A312467DEEFAEFFB1211C6E4CF
:10464800F50CF50D780C121B0574021218CE121B0E
:104658001C7CFF7DFFAA08AB0912073A74041218E4
:10466800988A088B09E508450970BE7402121898E3
:104678007F060219C41238C712468422E0FCA3E060
:10468800FD2274F41218F28A088B09ECFEEDFF90F3
:104698001778E0F4604B7A097B0012135EEA4B60EE
:1046A800408A828B8374B1F0A3E41246ECF08A82CC
:1046B8008B83A3A3E508F0A3E5091246ECA3EEF06B
:1046C800A3EFF0740C1218CE12458F8A828B83A345
:1046D800A3A3A3A3A3A3123AB8901778E0F91213DF
:1046E8006A0229F3F08A828B83A3A3A3A32274F01E
:1046F8001218F274FA1218828909ECFEEDFF750897
:10470800008A0A8B0B780A121B490004101C4939CD
:1047180047574771478947A747BF47E247FA470EB8
:10472800483848B348C448DB48F6481C491C494E39
:10473800487401650960030249178E828F83E0F887
:10474800C394034003024917E89018640248F374BD
:1047580002650960030249178E828F8312507A908E
:104768001865E8F0A3E90248F374016509600302DB
:1047780049171249444003024917E890072C024898
:10478800F37401650960030249178E828F83E0F88C
:10479800C394054003024917E890072D0248F374B3
:1047A8000165096003024917124944400302491789
:1047B800E890072E0248F374106509600302491750
:1047C800750A10750B00780A121B057A2F7B0712E1
:1047D800133A740212189802493D7401650960037E
:1047E8000249171249444003024917E890073F025B
:1047F80048F37401650960030249178E828F83E0CC
:104808009018680248F37404650960030249178E1A
:10481800828F83780C1217469090B2780C12157913
:104828005003024917900741780C12175502493D69
:10483800E960030249171206CEE9700512118A8051
:10484800559007D48061740765096003024917759C
:104858000A06750B00780A121B058E828F83A3AC9B
:1048680082AD8374021218E0121340740212189871
:104878007C007D00AA18AB198E828F83E0F9121193
:1048880036E9FEC3940A400302493A1206CEE9709B
:104898000CEEF91211907950121478806D74D52E9F
:1048A800F582E43407F5837401804074016509706A
:1048B8005E1249445059E8900740802F74016509F9
:1048C800704D8E828F83E0F8C3940A5042E89018A6
:1048D8006780187401650970368E828F83E0F874DA
:1048E800F928C3940A5028E8901869F080477401A1
:1048F8006509701B9007D3E0F88E828F83E09007DC
:10490800D3F0E87030E06401702B12117E802675B8
:1049180008188021C3EA9427EB94005015740265A7
:1049280009700F8E828F83125B5A12054EE9F508C3
:104938008003750802A9087406024C688E828F836A
:10494800E0F8C3940222A90880031218987F040291
:1049580019C474F01218F274B11218828C0A8D0BF3
:1049680090904274201218E8740612179574201259
:1049780018E8121136E9FF745F1218CEE0F509EF56
:10498800C3940A4003024ADC75F006EFA4F50874E4
:10499800411218E87A0E74202508F9121472E97089
:1049A80009744D1218CEE0FE80027E00901864E073
:1049B80064027005750E018003750E0074086509A0
:1049C80070047422800274212508F50D7C1B7D007B
:1049D800790074261218E012135274261218E87A15
:1049E8001BA90D121472E9702D74401218CEE02420
:1049F800F9C3940A5020E50EF50D780D121B0974C1
:104A0800271218E8EEA2E0E433F9AA0AAB0B120564
:104A1800F074011218987C147D007900740C121837
:104A2800E0121352740C1218E87A1074242508F94D
:104A3800121472E970347C1079FF740C1218E012A9
:104A480013B2E97025741C1218CEAC82AD837A04B7
:104A580074252508F9121472740C1218E8EEA2E0F5
:104A6800E433F9AA0AAB0B1205D8AC18AD197A0CC5
:104A780074702FF9121472E97049AA18AB1912113F
:104A8800667F00EF75F003A4F8A9F08518828519F0
:104A980083E58228F8E583125231125412601D888A
:104AA800828983A3A3E0F50E750F00780E121B050B
:104AB800AA0AAB0B1208A874021218980FEFC39435
:104AC8000440C0EEA2E1500C90072BE0F9AA0AAB13
:104AD8000B1208AE740465097028901864E064022B
:104AE80070207A0090073FE060027A0190072CE07E
:104AF8006004780480027800E84AF9AA0AAB0B122D
:104B080006A47900744F024C6874F71218F2120662
:104B1800CEE9704F9007D4E06401701512118A90A5
:104B280007D4E4F07C0AFDF97AD57B07121352808A
:104B38002A750800A80874D528FEE43407FF8E8279
:104B48008F83E06401700BA9081211908E828F8305
:104B5800E4F00508E508C3940A40D979501214789E
:104B680012117E02554974F01218F274F01218826C
:104B7800EAFEEBFF8C088D09750A0AE9600C1460DF
:104B88000914603B14607D024C64121178E9F50A3F
:104B9800C3940A4003024C64E50845097003024CBB
:104BA80064750C06750D00780C121B05EEFCEFFD04
:104BB800AA08AB0912133A7402121898024C6475C9
:104BC8000C00750E06750F00780E121B05EEFCEF33
:104BD800FDE50C75F00EA4F8A9F0744D28FA7407D9
:104BE80039FB12134C7402121898E9700B050CE586
:104BF8000CC3940A506680CA850C0AE50AC3940A55
:104C0800505A8049750C00AC18AD197A1075F00629
:104C1800E50CA42423F9121472E9701C7C1079FFA6
:104C2800AA18AB191213B2E9700EEEFCEFFDAA1820
:104C3800AB191205B4E9600B050CE50CC3940A50D6
:104C48001B80C4850C0AE50AC3940A500FE5084581
:104C5800096009AA08AB09A90A121172A90A7410F5
:104C68001218987F080219C474F41218F289097589
:104C7800081574FF6A700374FF6B70277E00AC0917
:104C88007A027B00EEF9121154E960037508000EF0
:104C9800EEC3940A40E8E50960537AA27B11120A30
:104CA800E8804A120AB88A0A8B0BAE0AAF0BEE4F9D
:104CB80060387C007D00EE2405FAE43FFB8E828F8D
:104CC80083A3A3A3A3E0F9121136E9F9C3940A5008
:104CD8000CAC097A027B00121154750800E50960D2
:104CE8000CEEFAEFFB1211A2800375081402494E6C
:104CF80074F21218F2ECFEEDFF750815740E121816
:104D0800CEE0F50AA3E0F50B74FF6A700374FF6B3D
:104D18007021750900AC0AAD0BEEFAEFFBA9091278
:104D2800115AE960037508000509E509C3940A509A
:104D38003F80E2120AB88A828B83E5824583602D20
:104D48007C007D00E5822405FAE43583FBA3A3A358
:104D5800A3E0F9121136E9F9C3940A5013AC0AAD6D
:104D68000BEEFAEFFB12115A750800800375081450
:104D7800A9087F060219C4C082C083900745EAF0DB
:104D8800A3EBF090072BE0FC7D007A267B00120550
:104D98004E90072BE0F912081202586374EE1218AD
:104DA800F274EC1218828A088B09EA240CF510E4D4
:104DB8003509F5118A828B83A385820C85830DEAD8
:104DC8002405F50EE43509F50FEA2409F50AE4355A
:104DD80009F50BEA2403FEE43509FF8A828B83A3D5
:104DE800A3E024FA700302506824FD7003024F8880
:104DF800147003024E8214601024FD7003024F6B7E
:104E0800147003024FC002506E125B606044E0F5FC
:104E180083888212507A880C890DE8450D603385A5
:104E28001082851183E0F50E780E121B09EA240B17
:104E3800F582E43509F583E0F9125B540A0A0AEFB2
:104E4800FB850C82850D831218F0740112189802E4
:104E5800506E850A82850B83121B1C90074112171E
:104E6800641205EA7402121898E9700302506E7908
:104E780001850A82850B83025038750A00850C82E9
:104E8800850D83E06003024F38850E82850F83E02D
:104E9800A2E04003024F389007DF125B6360030211
:104EA8004F387C0E7D007900AA18AB191213528571
:104EB800108285118312582EEA4B6010750A067508
:104EC8000B00780A121B05EA2410801B12582A12BC
:104ED8000AB8EA4B700302506E750A06750B007823
:104EE8000A121B05EA2405FCE43BFD74021218E0D3
:104EF80012133A7402121898850E82850F83E0A265
:104F0800E25004D2F08002C2F0A2F0E433F8740C4C
:104F18001218CE1259E212116CE970117A027B0054
:104F280090072BE0F912138E7900025070750A155C
:104F3800125B60700302506E12508F700302506E45
:104F4800850C82850D83E0FC79011250801218F0DF
:104F5800E50A700302506EFC790312582A1257E5CD
:104F6800025063125B60700302506E12508F700320
:104F780002506E850C82850D83E0FC790202506038
:104F88007C007D00EA2404FAE43509FB8E828F83D5
:104F9800E0F9121136E9F8C3940A400302506EE5AD
:104FA80008240AFCE43509FD7A0475F006E8A4240F
:104FB80025F912146C02506E12582A900740E060CE
:104FC80007901867E0F9806B901864E07004790521
:104FD8008061120AB88A0C8B0DA80CA90DE84970DB
:104FE8000302506EE82404F50CE439F50D850882B7
:104FF800850983A3A3A3A3A3A3A3E0A2E0503985B3
:105008000C82850D83E0F508602E850A82850B8366
:10501800A3E054027022740E1218E8E82405FAE49A
:1050280039FBA908121136E9700E79038E828F8335
:1050380012582E1205E4802EAC0EAD0F850C828519
:105048000D83E0F912582A1211AE125B6060171234
:10505800508F60127C0079001250801218F0800680
:1050680012582A121130790174141218987F0A0202
:1050780019C4E0F8A3E0F9228E828F83E0FAA3E056
:10508800FB8882850983221257F3F98909E84509C3
:105098002274F51218F274F2121882EAFE8C0A755C
:1050A800F006E9A42420F508AC18AD197A0EF91217
:1050B8001472E970467C0679FFAA18AB191213B26C
:1050C800E97038740C1218CE12582EEAF8E50A6006
:1050D80005EEC8488004EEF4C858F8EA687001EB99
:1050E8006015740C1218CEE8F0A3E4F0AC18AD19F2
:1050F8007A0EA90812146C790180027900740E12D4
:1051080018987F030219C474F21218F274E6121880
:1051180082890A8A088B09ECFEEDFF740C1218E8E4
:105128007A0E75F006E9A42420F9121472E96003D6
:105138000251F47C0679FF740C1218E01213B2E9DC
:1051480060030251F47470250AF50BAC18AD197A96
:105158000CF9121472E960030251F0AA18AB191283
:105168001166E5084509701D7C0C7900AA18AB1971
:105178001213B2E970727C0C7D007900AA18AB1981
:105188001213528051AC18AD19AA08AB091211605C
:105198008A0C8B0DA80CA90DE8497022EE4F604CC3
:1051A800AC18AD197A007B00121160EAF8EBF9EA45
:1051B8004B603988828983E508F0A3E509F012522B
:1051C8006DFAEE6A7001EF601FEEF04F700888828A
:1051D8008983E4F0A3F0AA18AB19121166AC18ADD4
:1051E800197A0CA90B12146C790180027900741ACF
:1051F800121898024D7A74F71218F27E00EE75F0C4
:1052080003A4F8A9F0EC28F8ED125231E06A700313
:10521800A3E06B7006E8FAE9FB800B0EEEC394047A
:1052280040DB7A007B0002554939F988828983225C
:1052380074F71218F27C00EC75F003A4F8A9F0EAF0
:1052480028F8EB125231E0F4FEA3E0F4FF888289DB
:1052580083EEF0A3EFF012526DF4F00CECC394045B
:1052680040D5025549E82402F582E439F583E02265
:1052780074F41218F274F4121882EAFEEBFF8C0828
:105288008D099007DF125B63704FEE4F7003025376
:10529800F1EC450970030253F1121178E990186A8C
:1052A800F0C3940A4033750B007C0679FFE50B7553
:1052B800F00EA4FAABF074472AFA74073BFB1213FA
:1052C800B2E96003025352050BE50BC3940A40D9B7
:1052D800750A0AE50A90186AF090186AE0C3940AF9
:1052E80040030253F175F006E0A4FB9007DF125B60
:1052F80063705CEEFCEFFD7A0E74202BF912146CCF
:105308007C0C7D0079FFAA18AB19121352AC18ADAA
:10531800197A0C90186AE02470F912146C750A0E48
:10532800750B00780A121B05EEFCEFFD90186AE079
:105338001254AA12133A74021218989007DFE5085B
:10534800F0A3E509F079000253F3850B0A8084E0A5
:10535800C8240612540C60197A1B74212BF91214F4
:105368006C1253F82406F582E438F583E4F0A38040
:10537800D31253F8240A12540C60107A1B74222B8F
:10538800F912146C1253F8240A80DB1253F8240C17
:1053980012540C60107A1074232BF912146C1253E7
:1053A800F8240C80C112540112540C60307A107425
:1053B800242BF912146C125401F582E438F583E0B9
:1053C8002410FCA3E03400FD7A0475F00690186AF6
:1053D800E0A42425F912146C12540180899007D393
:1053E800E060031211B41211A87901740C02495239
:1053F8009007DFE0F8A3E0C8229007DFE0F8A3E019
:10540800C8240822F582E438F583125B5AEC4D2251
:1054180074F41218F274F2121882EAFEEBFFE9C370
:10542800940A5004EE4F700479028034AC18AD1918
:105438007A0E75F006E9A42420F9121472E9F50829
:10544800701C750A06750B00780A121B0574021287
:1054580018E8EEFAEFFB12133A7402121898A9082A
:10546800740E02495274F41218F2EAFEEBFF750842
:1054780000750A06750B00780A121B05EEFCEFFD95
:10548800E5081254AA12134C7402121898E9600421
:10549800A908800B0508E508C3940A40D4790A02D4
:1054A800495575F00EA4F8A9F0744728FA7407391D
:1054B800FB2274F71218F2750800E50875F00EA4BF
:1054C800F8A9F0744728FE740739FFEEFCEFFD7A5F
:1054D8000E75F006E508A42420F9121472E9602973
:1054E8007C067D0079FFEEFAEFFB1213527C067DF5
:1054F8000079FFEE2CFAE43FFB121352EE240CF570
:1055080082E43FF583E4F0A3F00508E508C3940AB4
:1055180040A89007D3E060031211B41211A88021AB
:1055280074F71218F27E007F007C06EF1254AA79F5
:10553800FF1213B2E970010E0FEFC3940A40EAEEAE
:10554800F97F010219C474F71218F27E00EEF912FD
:105558001190E9F90EEEC3940A5003E960EF80E177
:1055680074F31218F274CB121882890890186AE042
:105578006508701B7A017B0090072BE0F9121394E1
:105588007A027B0090072BE0F91213941211C07570
:10559800F006E508A4FF74202FFE74271218E87A95
:1055A8000EEEF9121472E960030256707C0679FF58
:1055B80074271218E01213B2E960030256707C0EC9
:1055C8007D0079FF74271218E01213527C1B7D00AE
:1055D80079FF740C1218E01213527C0C7D0079FFCD
:1055E800AA18AB1912135274271218E87A0EEEF99A
:1055F80012146CE9FE740C1218E87A1B74212FF946
:1056080012146CE9F509740C1218E87A1B74222F2D
:10561800F912146CE9F50A740C1218E87A1074235C
:105628002FF912146CE9F50B740C1218E87A10743F
:10563800242FF912146CE9F50C740C1218E87A048A
:1056480074252FF912146CE9FFAC18AD197A0C7493
:10565800702508F912146CE9F8E509450A450B4567
:105668000C4F48CE4EFE80027E00EEF974351218BB
:10567800987F050219C474F71218F2E990072BF005
:1056880012117E02554974F21218F2EAFEEBFF5429
:1056980080700302574D90072BE0F91213768A08A1
:1056A8008B09EA450970030257467A01E508240583
:1056B800F50AE43509F50BE5082404F8E43509F999
:1056C800880C890D8508828B83E02450603614602D
:1056D8000624E16058805D88828983E070598508D6
:1056E800828B83A3A3A3A3A3A3A3121B1C125B54A3
:1056F8008508828B83A3A312582E121142740212BA
:105708001898803388828983E0641E700F79008539
:1057180008828B83A3A312582E12113C850C828514
:105728000D83E0F9AA0AAB0B12080C800AAA08122A
:10573800114EE9FAEA6007AA08AB09121364EEFAF7
:10574800EF6480802AEE54026028EE6402FE7C003A
:105758007D007A007B0012116CE960047A018002F6
:105768007A027B0090072BE0F912138EEEFAEFFB1A
:105778008068EEA2E050556401F508EFF50912586B
:10578800031211BAE96033125B6060291257FB12E9
:10579800507AE8FEE9FFEE4F601B7C007901125851
:1057A800038E828F831218F07C007903125803123B
:1057B80057E51218F01211C0800C7A017B0090078F
:1057C8002BE0F912138EAA08AB09800E5404600668
:1057D800EE6404FA80047A007B00024D7A90074553
:1057E800E0F8A31257F3F5838882221257FBE0F8FA
:1057F800A3E022E0F5838882A3A3229007DF125B4F
:1058080044E0FAA3E0FB227F020219C4C082C083ED
:1058180090072BE0F98A828B83A312582E1208AEC8
:1058280080398E828F83E0FAA3E0FB22C082C08396
:1058380074FF121882121184E9C3940285188285B4
:105848001983400474028002740AF0AC18AD197A06
:105858000179051206EC7401121898D083D08202DF
:10586800011F74F01218F274E8121882EAFEEBFFB6
:10587800890A8C088D097C187D007900AA18AB1953
:10588800121352851882851983EEF0A3EFF0900762
:105898002DE0C0E074021218CED0E0F090072EE0A0
:1058A800C0E074031218CED0E0F0901869E0C0E0B0
:1058B80074171218CED0E0F0901868E0A2E0E43334
:1058C800FCE0A2E15004D2F08002C2F0A2F0E4337E
:1058D800F8E0A2E45004D2F08002C2F0A2F0E4336F
:1058E800FAE0A2E55004D2F08002C2F0A2F0E4335C
:1058F800F50E750F00E0A2E65004D2F08002C2F067
:10590800A2F0E433F50C750D00E0A2E25004D2F0E9
:105918008002C2F074151218CEE054FEFEA3E0FF18
:10592800EE4CFCEFFDEC54FDFCE828F8EC48F8EDF3
:1059380054FEF9EAFBE94BF9E8FAE954FDFB74096E
:10594800780E12186FEB450F54FBFB740A780C1293
:10595800186FEAF8EB450DF9E854FBFAA2F0E433C6
:10596800F50C750D007402780C12186FEA450CF8E6
:1059780074151218CEE8F0A3E9F090072EE0601D28
:10598800750C10780C121B057C2F7D0774061218F5
:10599800CEAA82AB8312133A740212189890073F6A
:1059A800E06011E50A600974151218CEE04402F0AF
:1059B80078018002780074141218CEE048F090073D
:1059C8002CE0600478048002780074141218CE1257
:1059D80059E21205DE7418024C68E048F0AC08ADD4
:1059E80009AA18AB192274F71218F21209027508DD
:1059F80000E50875F00EA4F8A9F0744728FE7407AE
:105A080039FF7C0679FFEEFAEFFB1213B2E9700951
:105A1800EEFAEFFB79001209080508E508C3940AB5
:105A280040CF02554974F61218F274FD121882EA32
:105A3800FEEBFF9007E1125B6370397508E37509A7
:105A4800077808121B057508027509007808121BEB
:105A5800057508E37509907808121B057CFF7DFF22
:105A68007A017B0012072E74061218989007E1EA53
:105A7800F0A3EBF09007E1125B637003025B3675ED
:105A880008FF7808121B09E4F508F5097808121BC5
:105A98000574051218D8880889097808121B057436
:105AA800051218D8880889097808121B059007E399
:105AB800121B1C79029007E1125B4C12089C7409B6
:105AC800121898E97036851882851983E0FA7401EE
:105AD8001218CEE0F8E4C8F9EA28F508E439F5091F
:105AE800EA450960177808121B059007E1125B4424
:105AF800A3125B4C1211427402121898E4F508F5CF
:105B0800097808121B059007E3121B1C7CFF7DFF18
:105B18009007E112582E12073A7404121898900749
:105B2800E1EAF0A3EBF09007E1125B6370047901FE
