:020000040000FA
:060000000201070221CD00
:03002B0002261A90
:03003B000226405A
:030043000225C5CE
:0300530002224343
:03006B000225EB80
:10008300022023E5C754F84401F5C7790122000093
:100093000080FB120086B900030200F1E4792178A5
:1000A30008B800028004F709D8FCE479297802B87B
:1000B30000028004F709D8FCE490028178337915B3
:1000C3008002F0A3D8FCD9FA7AB37B169001377873
:1000D300E679038015E493A3AD82AE838A828B8392
:1000E300F0A3AA82AB838D828E83D8E9D9E7758288
:1000F300AC7583BE74031201197582917583007404
:100103000012011975D00075813F751881751902A8
:10011300759F00020096C09FF59FE473D09F22D085
:1001230083D082C09FE493C0E0740193C0E0740263
:1001330093F59F22FF0000B4000028002800283018
:1001430075A000A000A000A00000080008E001F0D6
:10015300001000100010001000100010005000509C
:1001630000500010001000D0070000000000000F36
:100173000001000500307507001000010081FF0039
:10018300000000FFFFFF3E065C0644068006FF02F8
:10019300020208025000A0000000E80302E99001F7
:1001A3000000299002E7900100000E1702DD900184
:1001B3000000BF0202E7900100000F1702DB90016D
:1001C3000000D50202E790010000101702F590012C
:1001D3000000D70202E790010000111702E3900824
:1001E3000000D80202E790010000121702E190011B
:1001F30000001317FF0100FF2002E990010000D85F
:100203009002E790010000771702DF9000000000E2
:100213000002EF90030000060317002E0D2E0D2E93
:100223000D2E0D2E0D2E0D2E0D2E0D2E0D2E0D2EF3
:100233000D2E0D2E0D0A101C1004100202020202D4
:1002430002020202010D000000100102E990010008
:1002530000D59002E790010000BA17020591010052
:1002630000230702E790010000BB1702039101007E
:1002730000E88F02E790010000BC17020191010022
:1002830000CD8F02E790010000BD1702FF9001002F
:10029300004B8F02E790010000BE1702FB900100A4
:1002A30000398F02E790010000BF1702F9900100A7
:1002B30000278F02E790010000C01702F7900100AA
:1002C300005D8F02E790010000C11702F390010067
:1002D30000BF8F02E790010000C21702F1900100F6
:1002E30000C31701E8030577100AFFFFFF00013081
:1002F300750302010600000000000000000000007A
:1003030000000000000000000000000000000000EA
:1003130000FFFF0600800CE8030A0943433235342B
:1003230030424C45051250002003020A0002010628
:100333000302F0FF53696D706C6520424C452050F9
:1003430065726970686572616CD8140000DE141000
:10035300436861726163746572697374696320349D
:10036300000A50756C736553656E736F72000000FD
:100373000000000A0100000000000000000000006F
:10038300000000004543470000000000000000009B
:1003930000000000000A0100504347000000000075
:1003A30000000000000000000002E990010000D2FC
:1003B3009002E790010000CE18020B91000000AEFE
:1003C3001602EF90030000AF1602E590010000CF84
:1003D3001802E790010000E018020D91030000B13C
:1003E3001602E590010000E11802E790010000F217
:1003F30018020F91030000F31802E59001000003B7
:100403001902E790010000141902FD900300001582
:100413001902E590010000171912012285940312B5
:100423000122989403120122C99403120122039515
:10043300031201225C9503120122A39503120122E8
:10044300EB95031201221A96031201224996031215
:100453000122809603120122C79603120122E0961D
:10046300031201223597031201224E970312012230
:100473009C9703120122D6970312012201B602129E
:10048300012204B7021201223DB70212012260B712
:100493000212012272B702120122B0B70212012224
:1004A3002CB802120122F4B80212012216B9021268
:1004B3000122ADB902120122FFB90212012230BAA0
:1004C300021201223DBA02120122A7BA021201222C
:1004D300FEBA0212012201BB021201223ABB02122E
:1004E30001223DBB0212012247BB021201229BBB28
:1004F30002120122DCBB021201220FBC02120122F2
:100503004CBC021201224EBD02120122F2BD0212A4
:1005130001225BBE0212012299BE02120122A48CA7
:1005230003120122CC8C03120122F98C0312012243
:10053300318D031201228F8D03120122DB8D0312F1
:100543000122428E03120122828E03120122BF8EE8
:1005530003120122ED8E03120122978F031201224F
:10056300A18F03120122AE8F03120122E18F031226
:100573000122ED8F031201220590031201220F9035
:100583000312012274BA0312012282BA0312012256
:100593009ABA03120122B1BA03120122F5C701125A
:1005A30001229FC801120122B2C9011201222ECADF
:1005B300011201224CCB0112012288CB011201222C
:1005C30023CC0112012207CD01120122D3CD011246
:1005D300012261CF01120122D2CF011201228CD05C
:1005E300011201227ED101120122BED10112012288
:1005F30072D201120122A4D2011201229AD4011251
:100603000122DCD401120122FAD40112012260D5A5
:10061300011201222FD601120122F3D60112012267
:1006230012D901120122C2CE02120122ACCF021250
:10063300012257D002120122A8D00212012258D15E
:1006430002120122C9D102120122AED202120122E8
:10065300E2D202120122DBD30212012218D40212C7
:100663000122F4D40212012233D5021201224FD502
:1006730002120122E4AF0312012268B00312012225
:1006830093B003120122ADB1031201229D90031214
:100693000122B39003120122D19003120122E291AD
:1006A30003120122EC910312012217930312012278
:1006B3000E94031201227B940312012267E00212BB
:1006C300012297E102120122CEE10212012218E275
:1006D30002120122DBE3021201221591011201220F
:1006E300A19101120122059301120122119301121A
:1006F30001224C9301120122BB9301120122C494E3
:1007030001120122CD9501120122949601120122B8
:10071300F197011201220F98011201222C98011264
:100723000122D998011201225699011201227E99C0
:1007330001120122489C011201224D9C0112012247
:10074300669E01120122B49E01120122249F01120E
:100753000122629F011201223EA001120122FEA08A
:10076300011201224AA1011201224DA1011201220B
:1007730091A101120122D9A10112012218A2011291
:1007830001223AA2011201226EA201120122D1A278
:1007930001120122AAE502120122B8E50212012286
:1007A3000BE6021201222AE6021201226FE602126E
:1007B3000122B3E7021201224EE80212012292E85B
:1007C30002120122BCE8021201222BE902120122C9
:1007D30071E902120122E8E90212012299EA0212E6
:1007E3000122B42600120122C42600120122652729
:1007F30000120122C127001201227E2800120122C9
:100803009A2900120122CC2900120122FB2900128D
:100813000122A82B001201221F2E001201228F3069
:10082300001201228131001201227A3200120122C8
:10083300813400120122753700120122A4380012FC
:100843000122A83A00120122B83B00120122473DBF
:1008530000120122383E00120122863E00120122BC
:10086300F53E00120122193F001201226A3F0012D5
:1008730001220B44001201220C45001201226D4596
:10088300001201229845001201225E460012012245
:100893005084031201225A84031201229F840312FB
:1008A3000122B384031201224385031201227C85B2
:1008B30003120122B78503120122E08503120122EC
:1008C3003486031201224986031201226B86031226
:1008D3000122808603120122948603120122A98633
:1008E30003120122E386031201220F87031201225E
:1008F300588703120122CA87031201220D880312AB
:10090300012237880312012262880312012275B67D
:1009130003120122C99802120122AC990212012288
:10092300279A02120122629A02120122B39B021237
:100933000122419C02120122D39E02120122859FB1
:100943000212012291A00212012204A20212012228
:100953005DA20212012200800312012243800312CE
:100963000122C780031201229E830312012270AB6E
:100973000312012222AC031201221EAD0312012233
:100983005DAD03120122B7AD03120122DCB10312E4
:1009930001223FB203120122DCB20312012211B37E
:1009A3000312012241B3031201227CB30312012279
:1009B3009CB3031201226AEF02120122F6EF021224
:1009C3000122B5F002120122CDF102120122E7F356
:1009D30002120122458D021201226A8D02120122A6
:1009E300378E021201220B8F02120122788F02121C
:1009F3000122B88F0212012254900212012288911F
:100A030002120122639202120122C29202120122F5
:100A13004E9302120122BC93021201224894021245
:100A230001228E9402120122009502120122929554
:100A3300021201223396021201225396021201225C
:100A43009B9602120122E4960212012200970212DF
:100A53000122269702120122A09702120122AE97C9
:100A6300021201223D9802120122A69802120122CB
:100A73001EF402120122A3F402120122E5F402126F
:100A83000122C9F50212012236F6021201227AF678
:100A930002120122BEF602120122EBF60212012219
:100AA30013F7021201224BF70212012289F70212F5
:100AB3000122B0F7021201222AF80212012274F86D
:100AC30002120122FDB501120122A5B70112012272
:100AD300D2B90112012226BA0112012251BA01121E
:100AE300012223BB0112012267BB01120122ABBB0E
:100AF30001120122BEBB01120122FFBB011201221E
:100B03002CBC011201227ABC01120122BBBC0112CE
:100B13000122E9BC011201223CBD01120122D3BD15
:100B230001120122BDC001120122D3C2011201220E
:100B330011C301120122A4C401120122E9C401124A
:100B430001225BC501120122ACC501120122E6C5D7
:100B530001120122EBC5011201228BC601120122EF
:100B6300C1C701120122D2C70112012206A3021238
:100B7300012285A3021201227EA90212012284AA64
:100B830002120122F7AB021201228EAC02120122E1
:100B9300645B00120122AD5B00120122DA5B0012DA
:100BA30001220C5C00120122195C00120122255C57
:100BB30000120122375C00120122125D0012012291
:100BC300705D00120122A55D00120122DC5E00129D
:100BD3000122295F001201224D5F00120122BD5F35
:100BE300001201227E6000120122416100120122E3
:100BF300AF61001201226C62001201227F620012B7
:100C03000122FD6200120122906300120122B763E8
:100C1300001201221F6400120122706400120122DB
:100C2300C564001201226E650012012219660012CA
:100C33000122C566001201223767001201228B6769
:100C430000120122EB67001201221B68001201222D
:100C5300B16800120122D669001201221E6A001235
:100C630001223B6A001201225A6A00120122896A98
:100C7300001201229E6B00120122246C0012012239
:100C8300496C001201225E6C00120122D16C001229
:100C93000122126D001201222E6E00120122CF6E6C
:100CA300001201221D6F00120122876F0012012220
:100CB300A06F00120122B8AC021201220CAD021285
:100CC300012218AD02120122E2AD021201220FAE7F
:100CD300021201223DAE02120122A9AE021201222A
:100CE300DFAE0212012218AF0212012230AF02124C
:100CF300012285AF021201229EAF02120122E3AF4D
:100D030002120122F6AF0212012210B002120122D6
:100D130026B00212012244B1021201226FB2021262
:100D2300012259B30212012248B402120122FB7FAD
:100D3300001201220080021201222F8002120122DE
:100D4300F583021201224C8502120122128602123D
:100D530001229187021201225B8802120122AD88CF
:100D630002120122C78802120122F988021201220B
:100D73000489021201224D890212012256890212AC
:100D83000122028A02120122DB8A02120122228B31
:100D9300021201228A8B02120122CC8B021201223F
:100DA300FA8B02120122358C02120122A9A301122D
:100DB300012227A7011201222DA70112012282ADD0
:100DC30001120122CCB101120122B2B5011201229A
:100DD3005E9F03120122D49F03120122EA9F031292
:100DE30001227AA003120122B7A003120122F1A06B
:100DF300031201222BA1031201229EA1031201223D
:100E0300DFA103120122E8A103120122F4A10312BC
:100E1300012213A2031201223DA20312012252A2B4
:100E23000312012295A203120122ABEA021201224C
:100E3300BEEA02120122D8EA0212012205EB0212D3
:100E430001224BEB021201227EEB02120122BCEBC8
:100E53000212012221EC0212012236EC02120122BB
:100E630041EC021201224EEC0212012265EC021245
:100E7300012273EC021201227EEC021201228AEC9F
:100E8300021201229DEC02120122A8EC021201229D
:100E9300CBEC021201226FED021201227FED02124E
:100EA300012299ED02120122B6ED02120122D1EDC7
:100EB30002120122F6ED0212012201EE02120122B8
:100EC30016EE021201222AEE021201228BEE021208
:100ED300012291EE0212012297EE021201229DEEEF
:100EE30002120122B5EE02120122E8EE02120122E1
:100EF3005FE701120122F6E7011201228EE80112D7
:100F030001227EE901120122B5E901120122C8E999
:100F13000112012236EA01120122D1EB0112012250
:100F2300F8EB011201229AEC01120122CFEC01121B
:100F33000122E0EC0112012259ED011201227AEDA6
:100F43000112012292ED01120122EAEE01120122A5
:100F5300F3F00112012243F30112012246F40112BC
:100F6300012295F401120122D06F00120122CD70EB
:100F730000120122B87100120122C2710012012273
:100F8300E47100120122F071001201224273001277
:100F93000122717300120122A17400120122E37471
:100FA300001201220F7600120122E57600120122BF
:100FB300377700120122967700120122CD770012B3
:100FC3000122087800120122A37B00120122BC7BBC
:100FD300001201223E7C001201224C7C00120122ED
:100FE300A17C00120122AF7C001201221C7D0012A1
:100FF30001228E7D00120122D47D00120122E2F42F
:101003000112012204F501120122EEF6011201225E
:1010130093FA01120122D6FB01120122B0FC011244
:101023000122AAB303120122CFB30312012240B457
:1010330003120122BFBE02120122C8BE0212012204
:10104300D1BE0212012202C00212012221C20212E7
:10105300012257C20212012291C202120122C7C207
:101063000212012201C30212012235C3021201221C
:1010730061C302120122AAC302120122E4C30212B3
:1010830001222CC40212012282C402120122B7C41B
:101093000212012212C5021201224CC502120122C0
:1010A3009DC502120122D3C5021201220DC60212EE
:1010B30001223BC6021201225EC60212012200BCBB
:1010C300031201222CBC0312012287BC031201224A
:1010D30091BC03120122A1BC03120122FDA503123C
:1010E300012224A6031201224EA603120122FFBEEF
:1010F30003120122CA46001201222E4900120122C4
:10110300E54A00120122424B00120122444C001214
:101113000122CC4C00120122534D00120122784DC2
:10112300001201226D5000120122E350001201222D
:10113300D251001201220C52001201224C52001211
:101143000122EC53001201224154001201228E5459
:1011530000120122FC540012012222550012012226
:101163003C5500120122525600120122625600120F
:101173000122E857001201220858001201223E58AA
:1011830000120122C25900120122015A0012012247
:101193003F5B00120122B4F8021201220CF9021281
:1011A300012254FA02120122C3FA0212012272FB33
:1011B3000212012291FB02120122E5FB021201221B
:1011C30023FC0212012241BB0312012252BB031270
:1011D3000122F5BB0312012249BF0312012288BF7A
:1011E3000312012222C003120122ABBC031201220B
:1011F300BBBC03120122D6BC031201223EBD031263
:10120300012289B7031201220DB80312012273B818
:101213000312012260B50312012287B503120122D2
:10122300DDB5031201222FB603120122CBA803124C
:101233000122E0A803120122E4A90312012258AA01
:101243000312012272AA0312012289AA03120122A4
:101253009CAA03120122B4AA03120122C9AA0312EF
:101263000122EAAA031201223BAB031201223E9898
:1012730003120122559803120122CE980312012270
:10128300A39903120122759B03120122C3A2031225
:10129300012255A303120122D3A3031201225AA44C
:1012A30003120122ECA40312012243A5031201221B
:1012B3004DA5031201225CA50312012272A503129C
:1012C300012285A503120122E6A503120122FAA534
:1012D3000312012248BD03120122B1BD03120122F0
:1012E300BCBD03120122CCBD0312012283B9031238
:1012F3000122ACB903120122D5B903120122EDB9BF
:10130300031201222FBA03120122B0D502120122C5
:10131300BAD502120122FAD50212012243D60212D1
:1013230001227DD602120122D3D602120122F2D665
:1013330002120122FBD6021201224CD70212012211
:1013430075D7021201228AD702120122FAD702129A
:10135300012288D802120122CCD802120122F4D829
:101363000212012273D902120122B6D902120122FA
:10137300F3D90212012205DA0212012224DA02123F
:1013830001222DDA02120122F2DA021201225D7E1B
:1013930000120122AE7E00120122377F00120122C9
:1013A3009D7F0012012235FD021201225FFD021210
:1013B300012259FE0212012288FE021201220EFFAF
:1013C300021201228CB803120122E2AD03120122A0
:1013D30018AE0312012251AE03120122AAAF031267
:1013E3000122D7BD03120122EDBD03120122F7BD75
:1013F300031201224DBE03120122ECC60212012286
:10140300A9C702120122E4C7021201220CC8021268
:1014130001226EC802120122BAC80212012225C992
:1014230002120122A1C9021201229DCA0212012243
:1014330024CC02120122A7CC021201220BCD0212EC
:10144300012222CD0212012218CE0212012264CE01
:10145300021201228A88031201229F8803120122A9
:10146300528903120122928903120122AB890312CA
:101473000122DE89031201222B8A031201225F8AD1
:1014830003120122A18A03120122978C0312012263
:101493001FD901120122D6DC0112012268DE0112DA
:1014A3000122BFDE01120122DEDE011201225CDF16
:1014B30001120122EEE001120122D2E10112012206
:1014C300E3E501120122B7E6011201221EDB02123B
:1014D3000122F9DC0212012278DE0212012219E054
:1014E300021201221CE002120122DA9B03120122E2
:1014F300429C031201225F9C031201221F9D0312CF
:1015030001220C9E0312012292BF03120122D8BFB3
:101513000312012204C003E066701008A3E06670A2
:101523000A08A3E066700408A3E06622C3E79608EE
:1015330009E7960809E7960809E79622C3E09608A3
:10154300A3E09608A3E09608A3E09622C008C3E0B0
:1015530096F50808A3E096420808A3E09642080817
:10156300A3E09645087001D3D00822080808EAC012
:10157300E0EBC0E086F0E7A4FA180986F0E7A42AB6
:10158300FA180986F0E7A42AFA180986F0E7A42ACC
:10159300FA1986F0E7A4FBE5F02AFA190886F0E7C2
:1015A300A42BFBE5F03AFA190886F0E7A42BFBE538
:1015B300F03AFA18180986F0E7A4C5F02BFBE43AD1
:1015C300FA1908E7C5F0C6A426F6E5F03BFBE43AB2
:1015D300FA1886F0E7A4F6E5F00826F6E43B08F6E9
:1015E300E43A08F6D0E0FBD0E0FA22E4CFC0E0E42E
:1015F300CEC0E0E4CDC0E0E4CCC0E075F020E62648
:10160300F608E633F608E633F608E633F618181854
:10161300EC33FCED33FDEE33FEEF33FFC3EC970900
:10162300ED9709EE9709EF97191919400FFFEC97FA
:10163300FC09ED97FD09EE97FE191906D5F0BFECED
:10164300F709EDF709EEF709EFF7191919D0E0FCDF
:10165300D0E0FDD0E0FED0E0FF226016080808C607
:10166300C313C618C613C618C613C618C613C6D5E1
:10167300E0EA227009080808226016181818C6C381
:1016830033C608C633C608C633C608C633C6D5E054
:10169300EA22E627F60809E637F60809E637F608E8
:1016A30009E637F622E026F608A3E036F608A3E0BB
:1016B30036F608A3E036F622E026F008A3E036F07B
:1016C30008A3E036F008A3E036F022C3E697F60855
:1016D30009E697F60809E697F60809E697F622C39E
:1016E300E096F008A3E096F008A3E096F008A3E0E4
:1016F30096F022E056F608A3E056F608A3E056F665
:1017030008A3E056F622E056F008A3E056F008A33B
:10171300E056F008A3E056F022E0F608A3E0F6084E
:10172300A3E0F608A3E0F622E6F008A3E6F008A398
:10173300E6F008A3E6F022E0FAA3E0FBA3E0FCA3B3
:10174300E0FD22E0F8A3E0F9A3E0FAA3E0FB22E83E
:10175300F0A3E9F0A3EAF0A3EBF022CAC0E0E6F0BD
:10176300A308DAFAD0E0FA22CAC0E0E0A3C582CC2B
:10177300C582C583CDC583F0A3C582CCC582C5838D
:10178300CDC583DAE6D0E0CA22C3E498F8E499F938
:101793001217CD8026C3E49AFAE49BFBE920E7E91C
:1017A3001217CDE498F8E499F922C3E498F8E49980
:1017B300F91217CDE498F8E499F9C3E49AFAE49B93
:1017C300FB22EB20E7CFE920E7E0B90010BB0008DC
:1017D300E88AF084F8AAF022E4FBC8FA22EB70222C
:1017E3007B10C833C8C933C9335007C39AC3DBF26C
:1017F30080069A50012ADBEAC833F4C8C933F4C916
:10180300FA2275F008E4C833C8C933C933C99AC981
:101813009B5004C92AC93BD5F0ECFBC833F4C8E498
:10182300C9FA22600D08C6A2E713C618C613C6D5A7
:10183300E0F322600C08C6C313C618C613C6D5E06E
:10184300F422700422600D18C6C333C608C633C61B
:10185300D5E0F41822251810AF08F518400C151917
:101863008008F51840021519D2AF2200C0D0251800
:1018730010AF08F518500C05198008F5185002052B
:1018830019D2AFD0D0222518F58210AF08F5184031
:101893000C15198008F51840021519D2AF85198364
:1018A300222518F582E43519F583222518F8E43545
:1018B30019F9222518FAE43519FB222518FCE43519
:1018C30019FD22E4732518C582C0E0E51934FFC56C
:1018D30083C0E0E518C3958224F810AF0885831907
:1018E3008582188008858319858218D2AFCEF0A32C
:1018F300E520F0A37808E608F0A3DEFAEFF0A3E50D
:101903008124FAF8E608F0A3E608F0A3E608F0A3BA
:101913000808E608F0A3E608F0A315811581D0E0D6
:10192300FED0E0F8158115811581E8C0E0EEC0E036
:10193300222518C582C0E0E51934FFC583C0E0E560
:1019430018C3958224F910AF0885831985821880FE
:1019530008858319858218D2AFCEF0A3E520F0A3C2
:101963007808E608F0A3DEFAEFF0A3E58124FBF89C
:10197300E608F0A3E608F0A30808E608F0A3E608E3
:10198300F0A315811581D0E0FED0E0F81581158113
:10199300E8C0E0EEC0E022851983851882E0A3FE4B
:1019A300E0A3F5207808E0A3F608DFFAE0A3FFE060
:1019B300A3C0E0E0A3C0E0E0A3C0E0E0A3C0E0E098
:1019C300A3C0E010AF08858218858319800885823B
:1019D30018858319D2AFD083D08202011F85198362
:1019E300851882E0A3FEE0A3F5207808E0A3F608BB
:1019F300DFFAE0A3FFE0A3C0E0E0A3C0E0E0A3C000
:101A0300E0E0A3C0E010AF08858218858319800841
:101A1300858218858319D2AFD083D08222C0D02586
:101A230018C582C0E0E51934FFC583C0E0E518C3DB
:101A3300958224F310AF0885831985821880088561
:101A43008319858218D2AFC8F0A3E9F0A3EAF0A303
:101A5300EBF0A37908E709F0A3D8FAECF0A3EDF0D3
:101A6300A3EEF0A3EFF0A3D0E0F0A3D0E0F0A3D077
:101A7300E0F0A3E520F0A3E5F0F0A3228519838528
:101A83001882E0C0E0A3E0F9A3E0FAA3E0FBA378A7
:101A930008E0F608A3DFFAE0FCA3E0FDA3E0FEA361
:101AA300E0FFA3E0C0E0A3E0C0E0A3E0F5D0A3E043
:101AB300F520A3E0A3F5F010AF08858319858218FC
:101AC3008008858319858218D2AFD082D083D0E075
:101AD300F8D0E03274048006740280027401C0E01E
:101AE300F404121889D0E012175E2274048004747F
:101AF300028000CCC0E0EDC0E0E518C39CCCAD197A
:101B030050011D10AF068C188D1980068C188D1985
:101B1300D2AF12176BD0E0FDD0E0FC22D083D0828D
:101B2300E9C0E0E493A3C386F0C5F095F0F908E4B7
:101B330093A386F0C5F095F0700BE493A3C399408B
:101B430005E9048002A3E475F002A42582F582E589
:101B5300F03583F583D0E0F9E493A3C0E0E493C0C8
:101B6300E022D083D082ECC0E0EDC0E0E493A3FC9C
:101B7300E493A3FDED4C600D121BB1EC24FFFCEDCF
:101B830034FFFD80EFE493A3FCE493A3FDED4C60ED
:101B93000D121BF0EC24FFFCED34FFFD80EFD0E0D1
:101BA300FDD0E0FCE493A3C0E0E493C0E022C0E0F6
:101BB300C3E49396087401939618400FE4936670F8
:101BC3000808740193661870007019A3A3C3E49303
:101BD30096087401939618A3A3400DD0E0D0E0D0EB
:101BE300E0021BA1A3A3A3A3A3A3D0E022C0E0C050
:101BF300F088F0E493667008087401936618700027
:101C0300A8F0A3A3700BD0F0D0E0D0E0D0E0021B8B
:081C1300A1A3A3D0F0D0E02250
:101C1C0074F6121934EAFEEBFF8C088D09EE2434AD
:101C2C00F8E43FF9E8FCE9FD121D4FE0FAEE243729
:101C3C00F582E43FF583E0F88508F0A4C885F00A46
:101C4C008509F0A4250AF9EA28F8E439F97A257B04
:101C5C00001217CDEA8C828D83F0FA131313541FE4
:101C6C00F8EE28F8E43FF9E8245DF582E439F583D1
:101C7C00E0C0E074075AF8D0E0B800028004C31347
:101C8C00D8FCA2E05003EA8020EE2436F582E43F33
:101C9C00F583E0F5F0EA84A8F0EE28F8E43FF9E8E3
:101CAC002438F582E439F583E0F97F030219E074F6
:101CBC00F5121934EAFEEBFFEE2434F582E43FF51D
:101CCC0083E0C0E0121D4FD0E0F08E828F83A3A37F
:101CDC00A3A3A3E0FAA3E0FB8E828F83A3A3A3A309
:101CEC00A3A3A3E0FCA3E0FDECC39AF50AED9BF5DE
:101CFC000BEE247FF508E43FF509850882F583E0B7
:101D0C006401702AEE2480F582E43FF583121AF206
:101D1C00121D59740212186EE960137CB07D04EE2A
:101D2C00FAEFFB120C4A850882850983E4F0AC0AB1
:101D3C00AD0BEEFAEFFB121C1CE9F91225B77F0470
:101D4C000219E0EE2435F582E43FF58322C082C00F
:101D5C0083851882851983E0F8A3E0F9C3EA9CEB2C
:101D6C009D5010C3EC98ED99401BC3EA98EB995029
:101D7C0014800EC3EA98EB994007C3EC98ED994098
:101D8C0004790180027900D083D08222EAC39CFAC4
:101D9C00EB9DFB2274ED121934900376E06408601D
:101DAC0005E06407702C9061C8E060269003A4E005
:101DBC00F874FF68601CE875F00AA4C8AAF02AF948
:101DCC0074A628FE740339FF8E828F83A3A3A3E02D
:101DDC0070057900021F39EE2468F50EE43FF50F0B
:101DEC00906060E0850E82850F83F0751020751170
:101DFC0005750800750900E5D914F50AE5D95403F1
:101E0C00F50B601FEE2482F50CE43FF50D740365B1
:101E1C000B6059E50A6017EE2467F582E43FF58301
:101E2C00E0700B793DEEFAEFFB120C7A80A4900572
:101E3C001BE064016023850C82850D83E060047ACD
:101E4C000480027A00E50AC39AFA95E0FB120AD6DE
:101E5C008A088B09EA45097006120ED2021DDE852E
:101E6C000C82850D83E070048A108B117A0080142B
:101E7C00E5D9C0E0EAF8E51028F582E43511F583E0
:101E8C00D0E0F00AEAC3950A40E6850C82850D8302
:101E9C00E0602874FC250AF50A7810121ADBAC0AEB
:101EAC00A90BEEFAEFFB120D28740212186EE970F2
:101EBC000AAA08AB09121394021E2F7403650B6057
:101ECC0054850A0C750D00780C121ADBAC10AD1190
:101EDC00AA08AB09120CEC740212186E850E8285DE
:101EEC000F83E0F87480687005750C7F8002880C95
:101EFC00E50CF50D780D121ADF780B121ADFA90A12
:101F0C00AC08AD099003A4E0FA7B0012090E740230
:101F1C0012186E8013900376E06408600BAC10AD61
:101F2C0011EEFAEFFB120DBE120EDE79017F0C02E0
:101F3C0019E074F312193474FC121858EAFEEBFF12
:101F4C008909A2AFE433F508C2AFEE2463F50AE4C5
:101F5C003FF50B8010AA0AAB0B120CA41213949031
:101F6C0004B7E004F0850A82850B83E0F8A3E0F95E
:101F7C00E849602DE82402FAE439FBEA2402F50C66
:101F8C00E43BF50D780C121ADB8A828B83E0FCA300
:101F9C00E0F9EEFAEFFB120C98740212186EE9607D
:101FAC00B49004B7E0604D9004B8E0F89004B7E04A
:101FBC00C398500C74026509703A9004B9E060340F
:101FCC008E828F83A3A3A3A3E08518828519831225
:101FDC00201074021218A4E81220109004B6E02805
:101FEC00F074021218BEAA18AB197901120962908A
:101FFC0004B7E4F0E508A2E092AF740412186E7F07
:10200C00060219E0F0A3E4F09004B7E0F822000017
:10201C008521878522C622C0E074EB121A20A2AF5C
:10202C00E433F508C2AF759B00906182E0A2E050EA
:10203C0030E591A2E0502A7591FE74016521702162
:10204C001221B6120E181221A4121AEE1223617468
:10205C000412186EE9640170057901120E66121DE6
:10206C00A0906182E0A2E5505DE591A2E550577524
:10207C0091DF900376E064076005E06408702F122E
:10208C0021B674016521703E120E181221A4121A89
:10209C00EE122361740412186EE964017005790163
:1020AC00120E667901EEFAEFFB121F3E8018E06407
:1020BC000D7013900398E004F064287002E4F07A39
:1020CC0000E0F9120EE4906182E0A2E640030221E6
:1020DC0079E591A2E640030221797591BF900376D0
:1020EC00E064057008120E00120E0C8003120E062E
:1020FC00752100120E72E9900377F07900120E66CA
:10210C00120BB47A017B00900375E0F91213649002
:10211C007803E06442705690051FE014F0704EC2D4
:10212C00AF12213000782AD0E0F618D0E0F6E59F07
:10213C005407F87005750DFF8003750D7FC4C0E062
:10214C007829E6F50A08E6550DF50B740B780A129A
:10215C001836D0E0250AF8906270E0A2E740F8E863
:10216C00C333906272F0906270E0D2E0F0906181C3
:10217C00E0A2E35009E5E9A2E3500375E9F7A3E017
:10218C00A2E75009E591A2E7500375917FE508A2FB
:10219C00E092AF7F08021A7F8E828F83E0F8A3E073
:1021AC00C82416F582E438F583229003A4E0F87570
:1021BC00F00AA4C8AAF02AF974A628FE740339FF01
:1021CC0022C0E0C0D0C082C083906183E0A2E05006
:1021DC0009E5BFA2E0500375BFFEE0A2E15009E59E
:1021EC00BFA2E1500375BFFDE0A2E25009E5BFA21A
:1021FC00E2500375BFFBE0A2E35009E5BFA2E35038
:10220C000375BFF7E0A2E45009E5BFA2E4500375E3
:10221C00BFEFE0A2E55009E5BFA2E5500375BFDFB3
:10222C00E0A2E65009E5BFA2E6500375BFBFD0831C
:10223C00D082D0D0D0E032C0E074F2121A20E5A7E0
:10224C00A2E4500FE5A1A2E4500953A7EF75A1EF4A
:10225C00122297E5A7A2E5500CE5A1A2E550065382
:10226C00A7DF75A1DFE5A7A2E15009E5A1A2E15026
:10227C000375A1FDE5A7A2E2500CE5A1A2E2500670
:10228C0053A7FB75A1FB7F01021A7F74F812193456
:10229C00752101900376E0640670077A007B0012CA
:1022AC000DE8A2AFE433FED2AF90037CE064017082
:1022BC00187A207B00900375E0F91214787A207B51
:1022CC0000900375E0F912136A906182E0D2E6F097
:1022DC0090051CE0602185C622801690037BE0648B
:1022EC00017008E5C654F84405F5C653BEFC12202F
:1022FC001C7401652160E4EEA2E092AF7F0102192B
:10230C00E00000008E238F24858228858327851882
:10231C0082851983E0CEA3E0CF852882852783EBC5
:10232C00C9EAC8EDCBECCA75F010C3E833C8E93381
:10233C00C9EA33CAEB33CBC3EA9EF526EB9FF525EE
:10234C00B35004AB25AA26EC33CCED33CDD5F0DA63
:10235C00AE23AF242274F11219348A088B098C0A2B
:10236C008D0B90909278081216F6740F1218A478B0
:10237C000C12171C909092780C1216F67808790CA7
:10238C0012152F90908650107808790C1216CE7872
:10239C000812154F4014800E780C79081216CE785E
:1023AC000C12154F50047901800279007F08021934
:1023BC00E074ED1219348A088B098C0A8D0B9090FD
:1023CC009278081216F674131218A4780C12171CB3
:1023DC00909092780C1216F6780C790812152F4002
:1023EC00117808790C1216CEAA08AB09AC0AAD0B01
:1023FC00802275100075110075120075130178108C
:10240C00790C1216CE78107908121695AA10AB1109
:10241C00AC12AD137F0C0219E09090927808121751
:10242C001C8A828B8378081217097F040219E074C6
:10243C00F51219348C828D83780812171C8A828BC2
:10244C008378081216E212248FC3E098F0A3E09967
:10245C00122481401E9090BE780812171C8A828B21
:10246C008378081216BB8E828F83E02420F0A3E0C1
:10247C00344EF080A4F08E828F83C3E09420A3E0CE
:10248C00944E22EA2404F8E43BF9E8FEE9FF8C823E
:10249C008D83A3A3A3A3E0F8A3E0F98E828F8322FC
:1024AC0074F5121934E9FE9004D2E0FAA3E0FBEEC5
:1024BC0029F8E433F9748028F582748F39F583E0B8
:1024CC002AF508A3E03BF5097808121ADB9090AACC
:1024DC0012173A122310740212186E8A088B098C88
:1024EC000A8D0B7410780812165DAA08AB097F04CC
:1024FC000219E074F11219348A0C8B0D8C0E8D0FAD
:10250C0074111218A4121AF274111218A4E02401F6
:10251C00F508A3E03400F509E4F50AF50B780C791D
:10252C000812156E90907E780812171C780C79089A
:10253C0012156EAA0CAB0DAC0EAD0F12231074025B
:10254C0012186E8B09EA450960047A0180027A0040
:10255C00EC2AFCE43DFD74131218A4E0F8A3E0F996
:10256C00E8FEE9FFECF8EDF97A717B021217CD88E1
:10257C00088909E4F50AF50B8E828F837808121707
:10258C002BECF8EDF97A717B021217CD8A088B09C6
:10259C00740578081218458E828F83A3A3A3A3E534
:1025AC0008F0A3E509F07F080219E0C082C083E9B6
:1025BC00906000F0D083D08222C0E074F2121A2016
:1025CC00A2AFE433FED2AFC2C0E5D1A2E45006758F
:1025DC00D10F1212CEEEA2E092AF7F01021A7FC091
:1025EC00E074F2121A20A2AFE433FED2AFE589A256
:1025FC00E04006E589A2E1500312122675890075A8
:10260C008900C2C5EEA2E092AF7F01021A7FC0E042
:10261C00C0D0E8C0E0E9C0E0A9A8D2AFC2C7E9A227
:10262C00E7E433F8E9A2E792AFD0E0F9D0E0F8D0D4
:10263C00D0D0E032C0E0C0D0E8C0E0E9C0E0EAC0F1
:10264C00E0C082C083A2AFE433FAD2AF9009BFE0FE
:10265C00F8A3E0687008539AFBA374018022C2E9C6
:10266C009009BFE0F8740128F0743F28F582E43437
:10267C0009F583E0F5C19009BFE0C394804002E402
:10268C00F0EAA2E092AFD083D082D0E0FAD0E0F9A9
:0E269C00D0E0F8D0D0D0E032C2AF0200002271
:1026AC00FFFFFFFFFFFFFFFFC082C083E99017769B
:1026BC00F0D083D08202011F74F61218C8E9900280
:1026CC00E8F0900348E0F5087509007402780812E8
:1026DC001845AA08AB091213D69002E9123077906C
:1026EC0002E9123464606F900348E075F003A4FAB9
:1026FC00ABF01213D6900306123077900306123407
:10270C0064700B9002E91234351213DC804890038C
:10271C00061243C97AFF7BFF1211967A0080198A40
:10272C000875090074027808121845123E7174FF7E
:10273C00122877E4F0A3F00A900348E0F8EAC39873
:10274C0040DD79051207FA9002E8E0F91206E67A04
:10275C00847B08120A76023F1474F41218C88A0893
:10276C008B09EB548060479002E8E0F912134C8A15
:10277C000A8B0BAE0AAF0BEE4F602A8E828F83E072
:10278C0064B0701A12080CE960148E828F83A3A3B4
:10279C00A3A3E0F9EE2405FAE43FFB1207DCEEFA02
:1027AC00EFFB12133AAA08E5096480FB80047A0057
:1027BC007B000229C774F21218C874FB121858EA6D
:1027CC00FEEBFFEE4F604574031218A4EEF0A3EF7E
:1027DC00F0851882851983ECF0A3EDF074021218C1
:1027EC00A4E9F0AA18AB191206E0E9F508707574A3
:1027FC00131218A4E0F50AA3E0F50BE50A450B60EB
:10280C00638E828F83122E00EE4F70057508028046
:10281C00537A067B001213D68A0C8B0DA80CA90DCB
:10282C00E8497005750813803B88828983E4122877
:10283C0077EEF0A3EF122993E50AF0A3E50BF090E5
:10284C0002EC12298C9002EC6017E0FCA3E08003F0
:10285C00EAFCEBFD8C828D8312298C70F38C828DBB
:10286C0083123A8CA9087405024649F0A31243ABB3
:10287C00A32274F21218C88908890C750D00740310
:10288C00780C121845850C0A850D0B9002EBF09014
:10289C0002E912389712298A602E1213DC79008013
:1028AC001D890C750D007402780C1218459002E904
:1028BC00123D308882F583A3A3E4F0A3F0099003C2
:1028CC0048E0F8E9C39840D9900348E0FA850AF04B
:1028DC00A4CAA8F0850BF0A428FB1213D68A0C8B83
:1028EC000DAE0CAF0DEE4F7003022980900348E043
:1028FC00FC850AF0A4CCA8F0850BF0A428FD790087
:10290C001213287C0080318D0C750D007403780C2B
:10291C001218458A828B8312298588828983E4F078
:10292C00122992A3A3F0A3F00DEDC3950840D8EEA5
:10293C00250AFEEF350BFF0C900348E0F8ECC3982A
:10294C0050288C0C750D007402780C1218459002EE
:10295C00E9122985E82402500109FAE9FB8A828BE5
:10296C0083EEF0A3EFF07D0080BFE5089002EBF062
:10297C0079008002791302464C123D34F922A3A34C
:10298C00123439EA4B22A31243ABA3A3A32274F44F
:10299C001218C87900EAA2E0501F75084E7509900C
:1029AC007808121ADB79107C047D007A787B171278
:1029BC0007F4740212186EE9F980007F0402199A68
:1029CC00C082C0839002EC123464601C88828983BC
:1029DC00A3A3E06A7003A3E06B8882898370E8A3E9
:1029EC00A3A3A312343580047A007B000226BD74A5
:1029FC00F21218C874FD121858EAFEEBFF85188203
:102A0C00851983E4F0A3F074021218A47401F01277
:102A1C00346170141209B01213D69002EF12307791
:102A2C001234617003022B8D123177EE2404F50AF7
:102A3C00E43FF50B850A82F583E024FE603C24FC20
:102A4C00607424FE607E24FE7003022ADD24FE7076
:102A5C0003022AEA24FE7003022AF724FE70030202
:102A6C002B0424FE7003022B1124FC7003022B3266
:102A7C0024FE7003022B4A022B861209B09002F13D
:102A8C00EAF0A3EB122B99120428E96003022B86BF
:102A9C009002F1121AF28E828F83A3A3A3A3A31226
:102AAC0043C98508828509831234351207C4740220
:102ABC0012186E022B86AC18AD19EEFAEFFB120849
:102ACC0012022B55AC18AD19EEFAEFFB1208188058
:102ADC0078AC18AD19EEFAEFFB12081E806BAC182F
:102AEC00AD19EEFAEFFB120824805EAC18AD19EEAE
:102AFC00FAEFFB12082A8051AC18AD19EEFAEFFB75
:102B0C00120830804474021218AE880C890D780CAF
:102B1C00121ADB74021218BEEEFAEFFB12083674AE
:102B2C000212186E8023AC18AD19EEFAEFFB1208E6
:102B3C003CE9F8701674021218A4E4F0803CAC184E
:102B4C00AD19EEFAEFFB120842E9F8E8602C8E8220
:102B5C008F83A3E064146022850A82850B83E09046
:102B6C0002F1F08518828519831234359002F21225
:102B7C003077E8A3122B99120422EEFAEFFB12071E
:102B8C009A74021218A4E0F97403024649F07CF11D
:102B9C007D028508828509831234392274E8121863
:102BAC00C874FA12185874041218A4ECF0A3EDF0BF
:102BBC008A128B13EA2405F50EE43513F50FEA247B
:102BCC0002F510E43513F511851082F583123435B6
:102BDC001205188A0A8B0B7508007C037D0079009E
:102BEC007AF17B02121328E50E2402F516E4350F58
:102BFC00F51774021218AE880C890D780C121ADBBA
:102C0C00850E82850F83A3A3A3A3E0F50C750D009D
:102C1C00780C121ADBE50E2405F50CE4350FF50DD6
:102C2C00780C121ADB85168285178312373C120634
:102C3C00FE740612186E8A0C8B0DE50C450D700394
:102C4C00022DC98020851882851983E088828983AA
:102C5C00F00508851882851983A3E0C0E0122E0ABE
:102C6C00D0E0F00508E50A24FBFAE50B34FFFBC3C2
:102C7C00E5089AE49B4003022DC97E007F00851273
:102C8C0082851383A3A3A3A3E0F5097809121ADFA5
:102C9C00E4F514F5157814121ADB7514EE7515029B
:102CAC007814121ADB9002EF121AF274091218A49B
:102CBC00121AF2E50A24F9F9AC0CAD0D85108285D7
:102CCC00118312343512086C740912186EE9600302
:102CDC00022D6A850E82850F83A3A3A3A3A3A3A3AE
:102CEC00E0F89002EEE0687075E0F5148E1578143B
:102CFC00121ADB1243C6850E82850F83A3A3A3A3EE
:102D0C00A3A3A3A3123435121322740212186EE972
:102D1C00604C9002F2123464703BE4F51478141297
:102D2C001ADB7CFF7DFF79078510828511831234B5
:102D3C00351207D6740212186E12346A7017850E8B
:102D4C0082850F8312456374041218A4123E241258
:102D5C00376D022DFD850C82850D83122E00A8186F
:102D6C00A919881489157814121ADB74041218A482
:102D7C00121AF285168285178312306D12070A74A7
:102D8C000412186E8A0C8B0DEE4F7003022C461237
:102D9C002E0AEE122E15123723EF122E15F8A3E081
:102DAC003400F9E50C450D6003022C5188828983AF
:102DBC0074FFF00508122E0A74FFF00508E5086090
:102DCC001A1313543F12307D120434E96009900237
:102DDC00F212343512139479008016850E82850F09
:102DEC008312456374041218A4123E24123A8C798F
:102DFC000A0236F6A3A3A3A3E0FEA3E0FF22A808D1
:102E0C009002F2E02812372322F00508089002F213
:102E1C00E0282274E81218C874FA121858740212B6
:102E2C0018A412307774041218A4ECF0A3EDF0740B
:102E3C00021218A4E0240512370CE0F50CA3E0F5FF
:102E4C000D74021218A4E02402F510A3E03400F56E
:102E5C0011851082F583123435120518750800752A
:102E6C000900EA24FCFEEB34FFFF8008050CE50C9E
:102E7C007002050DA808C3EE98EF940050030230C1
:102E8C0029A818A919880E890F780E121ADB851437
:102E9C0082851583A3A3A3A31243CD121ADBE514D9
:102EAC002405F50EE43515F50F780E121ADB851492
:102EBC008285158312306B1206FE740612186E8A08
:102ECC000E8B0FEA450F7003023029EA2404F51625
:102EDC00E4350FF517851682F583E0F50CA3E0F5C4
:102EEC000D8518828519831243C98A828B83A3A30B
:102EFC00A3E0F98510828511831234351206ECE9B2
:102F0C00F509600302302974021218A4123733F544
:102F1C00097809121ADFE4F512F5137812121ADB8C
:102F2C007512EE7513027812121ADB9002EF121A58
:102F3C00F274071218A4121AF2EEF9AC0EAD0F854A
:102F4C00108285118312343512086C740912186EB4
:102F5C00E9F5096003023029E508703FE4F50EF548
:102F6C000F780E121ADB7CFF7DFF790985108285A4
:102F7C0011831234351207D6740212186E12375997
:102F8C00700D74041218A4123060791102305D9027
:102F9C0002EEE024029002F2F080149002F2E0FAC9
:102FAC009002EEE0790024025001096A497072A87F
:102FBC00089002EEE0FAE82AFAE43400FBEE9AEF0D
:102FCC009B405A851682851783E0C0E09002F3126D
:102FDC002E0FD0E0F00508851682851783A3E0C07C
:102FEC00E0089002F3122E0FD0E0F005089002EEEC
:102FFC001243CD121ADB1243C6A808123700121363
:10300C0010740212186E9002EEE02508F50874FF99
:10301C00650C700474FF650D6003022E78E5086082
:10302C001F9002F2E0F5F0E5088412307D12043AAC
:10303C00E960099002F3123435121394790080116F
:10304C00E509700375090A74041218A4123060A9FA
:10305C00090236F612389BE50CF0A3E50DF022A31D
:10306C00A3124658AA0CAB0D22A3A3EAF0A3EBF0D3
:10307C00229002F1F07CF17D028510828511831281
:10308C0034392274EC1218C874FC121858123B9C78
:10309C0074021218BE12342F1207048A0C8B0DEA1C
:1030AC00450D7003023167123177A818A9198810E1
:1030BC0089117810121ADB7CFF7DFF790B85088251
:1030CC008509831234351207D6740212186E123227
:1030DC006D700C850A82850B8312376A0231748EEF
:1030EC00828F83A3A3A3A3E0F5127812121ADFE454
:1030FC00F512F5137812121ADB7512F175130278AA
:10310C0012121ADB7810121ADB74091218A4121A94
:10311C00F274091218A4E0F9AC0CAD0D8508828587
:10312C00098312343512086C740912186EE9FE709A
:10313C00157CF17D028508828509831234351204D1
:10314C0040E97009802074166E70027E009002F2C5
:10315C00123435121394EE7004800B7E01850A82B2
:10316C00850B83123A89EEF9023A9EEE2402F50899
:10317C00E43FF5092274EC1218C874FC121858EAD2
:10318C00FEEBFF8C0E8D0FEE2405F508E43FF509E0
:10319C0074021218BE850882850983123435120711
:1031AC00048A0C8B0DEA450D700302325DEE24028D
:1031BC00F50AE43FF50BA818A919881089117810A5
:1031CC00121ADB7CFF7DFF790D12342F1207D67497
:1031DC000212186E12326D700B85088285098312EB
:1031EC00376A807A8E828F83A3A3A3A3E0F512782B
:1031FC0012121ADF850882850983A3A3121AF275AD
:10320C0012F17513027812121ADB7810121ADB7491
:10321C00091218A4121AF274091218A4E0F9123443
:10322C002B12086C740912186EE9FE700F7CF17D7C
:10323C000212342F120446E97009802074166E7045
:10324C00027E009002F2123435121394EE70048058
:10325C000B7E01850882850983123A89EEF9023AC0
:10326C009E123474F510A3E0F511EA45112274E8AE
:10327C001218C874FE1218588A168B178C148D15D8
:10328C00EA2405F50CE43517F50DEA2402F50EE4F5
:10329C003517F50F850E82F5831234351205188A11
:1032AC00088B09750B007C037D0079007AF17B0299
:1032BC00121328750A00E50814F5100424FFF5080C
:1032CC00E50934FFF50980549002F1E0FA9002EE22
:1032DC00E0F8EA28F8E43400F9E50898E509995093
:1032EC000D9002F1E0F8E510C3989002EEF0E0F5D5
:1032FC00127513007812121ADB1243C69002F2E018
:10330C002AFAA3E03400FB121310740212186E9008
:10331C0002EEE0F89002F1E028F0050A850C8285B7
:10332C000D83A3A3123D4040030234109002F1E040
:10333C00C39508E495094003023410AE0AEE2EFE44
:10334C00E433FF12344FAC18AD191243E1E439FBEE
:10335C001207048A128B13AC12AD13EC4D701B7553
:10336C000B0112343F123A8D9002F212298C600339
:10337C00121394A90B74020236F8851682851783F2
:10338C00A3A3A3A3E0F50B780B121ADFE4F512F557
:10339C00137812121ADB7512EE7513027812121AC8
:1033AC00DB9002EF121AF274071218A4121AF2A987
:1033BC0010850E82850F8312343512086C74091235
:1033CC00186EE9F50B709B9002F2123464600302E4
:1033DC0032D4E4F512F5137812121ADB7CFF7DFF60
:1033EC00790F850E82850F831234351207D674023D
:1033FC0012186E12346A60030232D412343F123740
:10340C006E0233817CF17D02850E82850F8312342E
:10341C003512044CE960030233747900023381AC39
:10342C000CAD0D850A82850B8312343922E0FAA388
:10343C00E0FB2212344FE0FAA3E0F9EA851482850E
:10344C00158322850C82850D83E02EF8A3E03FF9CD
:10345C0088828983229002EF124567E84922123450
:10346C0074F8A3E0F9E849229002F2EAF0A3EBF039
:10347C009002F2E02274E81218C874FA1218587408
:10348C00041218A41230778C168D1774041218A419
:10349C00E02405F50EA3E03400F50F74041218A413
:1034AC00E0240212370C1234351205188A0A8B0BE1
:1034BC007F007E00A818A919880889097808121AB3
:1034CC00DB850E82850F83A3A3A3A3E0F5088E09E9
:1034DC007808121ADBE50E2405F508E4350FF5091A
:1034EC007808121ADB850E82850F83A3A312373C52
:1034FC001206FE740612186E8A0C8B0D8029123778
:10350C002DF00F12372DF00F9002EE123A78121A9E
:10351C00DB1243C6EFF812370012131074021218A4
:10352C006E9002EEE02FFFE50C450D70030235BCEA
:10353C00851882851983123BAEA3A3A3E0F98514E9
:10354C00828515831234351206ECE9FEE50C240451
:10355C00F510E4350DF511EE705074041218A41228
:10356C003733F5087808121ADFE4F508F5097808FE
:10357C00121ADB7508EE7509027808121ADB900234
:10358C00EF121AF274071218A4121AF2E50A24FAAE
:10359C00F9AC0CAD0D8514828515831234351208E7
:1035AC006C740912186EE9FE6039123749123A8CA4
:1035BC00EF70030236E39002F2E0F5F0EF84900234
:1035CC00F1F07CF17D02851482851583123435125D
:1035DC000452E960099002F3123435121394790005
:1035EC000236F68F08EF703BE4F512F513781212E1
:1035FC001ADB7CFF7DFF79118514828515831234CB
:10360C00351207D6740212186E1237597009123718
:10361C004912376D0236F69002EEE024049002F265
:10362C00F080359002EEE0F89002F2E0FAE8240423
:10363C00FCE43400FDEC6A4D60030235C2E50A245B
:10364C00FAFAE50B34FFFBE50828F8E43400F9EA54
:10365C0098EB9950030235C2851082851183E0C026
:10366C00E09002F3E02FF8A3E034008882F583D0D9
:10367C00E0F00F851082851183A3E0C0E012371AA9
:10368C00D0E0F00F74021218AE880889097808127D
:10369C001ADB74021218A4121AF2850E82850F839B
:1036AC0012306B12070A740412186E8A0C8B0DEA16
:1036BC00450D700302350A74021218A4E0C0E01222
:1036CC00371AD0E0F00F74021218A4A3E0C0E01275
:1036DC00371AD0E0023512EE70027E0A850E828512
:1036EC000F8312374F123A8CEEF9740612186E7F54
:1036FC001002199A9002F3E028FAA3E03400FB229E
:10370C00F514A3E03400F515851482F583221237E5
:10371C001E229002F3E02FFAA3E034008A82F58394
:10372C002212371E74FF2212389BA3A3A3A3E022FC
:10373C00124658850E82850F8312343922851082E9
:10374C00851183124567851682851783229002F3B3
:10375C00EAF0A3EBF09002F3124567E84922123A23
:10376C0092E8F0A3E9F079112274EA1218C874FEF9
:10377C001218588A088B098C128D13EA2405FEE462
:10378C003509FFAC18AD198E828F831234351207B0
:10379C00048A0C8B0DEE2406F50EE43FF50FEA457A
:1037AC000D700302386DE5082402F50AE43509F5BD
:1037BC000B8A828B83A3A3A3E0A2E55028851882F1
:1037CC008519831234351208608A108B11EA451161
:1037DC006020791212342B8510828511831218C641
:1037EC00E9F50C707F850E82850F83E060097952B4
:1037FC008011750C0E806D850882850983A3A3A3A7
:10380C00A3E0F9E4F508F5097808121ADB8E828F2B
:10381C0083A3A3E0F5087808121ADB8E828F83A3AA
:10382C00A3A3121AF28E828F831243C912342F1261
:10383C000872740612186EE9F50C7011850E8285EB
:10384C000F83E0702D12342F1204588025741665E6
:10385C000C7011750C0074181218A4123897E480AF
:10386C0010750C0112455F851282851383E8F0A355
:10387C00E9F0850E82850F83E0600479008002A94F
:10388C000C740212186E7F0E02199A12389B22E0E9
:10389C00F8A3E0F58388822274EC1218C874F7122E
:1038AC0018588A0A8B0B8C108D11EA2405FEE4350E
:1038BC000BFF750C00AC18AD198E828F831234354A
:1038CC001207048A088B09EA45097003023A63E57A
:1038DC000A2402F50A5002050B8A828B83A3A3A348
:1038EC00E0A2E5502F851882851983123435120811
:1038FC00608A0C8B0DEA450D604F7912AC08AD094E
:10390C0012342F850C82850D831218C6E9F50C60D4
:10391C0003023A66850A82850B83E0F508A3E0F57D
:10392C0009AA08FB120854EA4B70197AFF7BFF12A4
:10393C000854EA4B7003023A598A828B83E508F0EB
:10394C00A3E509F07508008008750C0E023A6605AF
:10395C00089002EBE0F8E508C3984003023A598559
:10396C00080E750F007403780E1218458A828B832B
:10397C00A3A3E0250EF8A3E0350F123E2D70D08ED8
:10398C00828F83123A811230778E828F83A3A31297
:10399C003A81123075EE2404F508E43FF5098508E8
:1039AC0082F583E088828983A3A3A3A3F0A3E4F028
:1039BC00EE2405F50EE43FF50F850E82F583123AE1
:1039CC0081A3A3A3A3123075751207751300781287
:1039DC00121ADBEEFCEFFD74041218B612131074FD
:1039EC000212186EE4F5127812121ADB8508828521
:1039FC000983E0FC7D00791712342F1207D674026C
:103A0C0012186E74071218A412307774071218A4C7
:103A1C00E0FA4B603D850882850983123A78121AC8
:103A2C00DB850E82850F831243C9121310740212A8
:103A3C00186E74021218BE12342F12045EE960263E
:103A4C0074071218A41234351213948019750C09CA
:103A5C008008750C118003750C0112455F8510826E
:103A6C00851183123A8CA90C74098028E0F508752D
:103A7C0009007808221234398882898322123A92FA
:103A8C00E8F0A3E9F022E0F8A3E0F9850E82850FB7
:103A9C008322740412186E7F0C02199A74EC12189B
:103AAC00C8123B9C751000EE2402F50CE43FF50D9A
:103ABC00850C82F5831234351208548A088B09EA76
:103ACC0045097003023B80850A82850B83E0640103
:103ADC006003023B75AC08AD09AA0AAB0B1208488F
:103AEC00E9606E850882850983122E02EE2406F5A4
:103AFC000AE43FF50B8E828F83A3A3121AF28E82F7
:103B0C008F83A3A3A3A3121AF2850A82850B8312B7
:103B1C001AF279188E828F83123BAE12343512084A
:103B2C0072740612186EE9F8741668700B850A82A6
:103B3C00850B83E4F0A38014E860128E828F8312CD
:103B4C003435850E82850F83EAF0A3EBF088108064
:103B5C0018780E121ADBAC08AD09EEFAEFFB12085E
:103B6C004E740212186EE9F510AA08AB0912085A25
:103B7C00E510700E850C82850D83123435120464A9
:103B8C008009741665107003751000A910023AA311
:103B9C00EAFEEBFF8C0E8D0FEE2405F50AE43FF5E3
:103BAC000B22124658850C82850D832274EA12185A
:103BBC00C87508007509007E007F00750A00EC24AA
:103BCC0002F510E43DF5118035EC65087003ED65E8
:103BDC00096003023C6D88828983A3A3E06A7003A9
:103BEC00A3E06B707C88828983A3A3A3A312456393
:103BFC00EE28FEEF39FFEA28FAEB39FB050A123DF5
:103C0C003D503A850A0C750D007403780C1218455A
:103C1C00851082851183123D30123E2D601FE50800
:103C2C00450970A58C088D0988828983122E00881D
:103C3C00828983A3A3E02EFAA3E03F80BEE50AC3EA
:103C4C0094025003023D2B750800750900EE4F607D
:103C5C0010EEFAEFFB12138E8A0E8B0FEA450F70E3
:103C6C00057900023D2D750B00023D00850B0C758E
:103C7C000D007403780C121845851082851183E0B1
:103C8C00250CF50CA3E0350DF50DE50C2406F5140B
:103C9C00E4350DF515851482F583123E326042E54C
:103CAC000C2404F512E4350DF513851282F58312FC
:103CBC001AF2E50E2508FAE50F3509FB12131074FC
:103CCC000212186E851282851383E02508F508A36D
:103CDC00E03509F5098514828515831234351213E4
:103CEC0094E50B600D7C087D007900AA0CAB0D12DD
:103CFC001328050BE50BC3950A5003023C7885107D
:103D0C008285118312456388828983A3A3A3A3A30D
:103D1C00A3E50EF0A3E50F122993EEF0A3EFF079D3
:103D2C0001023892123D3422E0250CF8A3E0350D47
:103D3C00229002EBE0F8E50AC3982274F01218C83E
:103D4C008A0E8B0F8C0A8D0B750D00750C00805034
:103D5C007916EE2406F508E43FF5098E828F83A3CD
:103D6C00A3121AF28E828F83A3A3A3A3121AF28535
:103D7C000882850983121AF2850E82850F83A3A30C
:103D8C00123435120872740612186EE9F50D741699
:103D9C00650D706C850882850983E4F0A3F0050C31
:103DAC009002EBE0F8E50CC3985066AA0C8A0875F3
:103DBC00090074037808121845850A82850B83A3C1
:103DCC00A3123E7CE8FEE9FF8E828F83123E3260A6
:103DDC0040EA2401F508E43400F5099002EBE065B3
:103DEC00087002E509601488828983A3A3A3A3A3A6
:103DFC00A3A3A31234646003023D5C7918023D5EF8
:103E0C00E9609B12455F74101218A4123E24123AFA
:103E1C008CA90D7F0802199AE0FAA3E0F5838A8237
:103E2C0022F988828983124658EC4D2274F61218B6
:103E3C00C87C0080010C900348E0F8ECC398501E3D
:103E4C008C0875090074027808121845123E71E04E
:103E5C006A7003A3E06B70DDE8FAE9FB80047A007A
:103E6C007B00023F149002E9123E7C8882898322F7
:103E7C00E02508F8A3E03509F92274F21218C88A73
:103E8C00088B09750A0080278E828F83A3A3A3A3B6
:103E9C0012298A60031213947C087D007900EEFAD3
:103EAC00EFFB1213288E828F83E4F0A3F0050A1225
:103EBC003D3D5027850A0C750D007403780C1218C3
:103ECC0045850882850983A3A3E0250CFEA3E03574
:103EDC000DFF8E828F8312346470AD850882850944
:103EEC008374FFF0A3F002464C74F61218C8120843
:103EFC00068A828B83E582458370067A007B00807C
:103F0C0007A3A3A3A31234357F0202199A74F412E7
:103F1C0018C889088C828D83E06402703C124502BB
:103F2C00FEA3E0F9EEF87402687003742969702935
:103F3C00750A02750B00780A121ADB74101218A499
:103F4C00121AF274101218A4121AF2A9081211A85B
:103F5C00740612186EE9F9800279010229C774E817
:103F6C001218C874FB121858E9851882851983F049
:103F7C008A168B17ECFEEDFF7510008E828F83A3D3
:103F8C00A3A3E0A2E4502D741D1218A41234351210
:103F9C0008608A828B83E582458370030243A17992
:103FAC000AEEFCEFFDAA16AB171218C6E9F5106065
:103FBC00030243A4741F1218A4E0F508A3E0F5094A
:103FCC0074211218A4E0F50AA3E0F50B742312185F
:103FDC00A4E0F50EA3E0F50F8E828F83E0640260FF
:103FEC0003024342A3124563850882850983A38596
:103FFC008212858313EE2406F50CE43FF50D8882BE
:10400C0089831243E1F514E439F5157814121B6514
:10401C000100002801284440070002280941032818
:10402C0077400029384201296342022904420329BE
:10403C0038420429DC424243E50E450F600302433B
:10404C003D850C82850D83124563E8FAE9FB8A8273
:10405C008B83E0850A82850B831243EC121ADB8A70
:10406C00828B83A3E0FCA3E00242C6E50E450F6001
:10407C000302433D850A82850B837401F01243D6FB
:10408C00850882850983F07C007D008E828F83A356
:10409C00A3A3A3E02401FAA3E03400FB120704EA73
:1040AC004B60408A828B83E02402F8850A82850B60
:1040BC0083E028F0EA2404F8E43BF988828983E061
:1040CC008512828513831243FA1243EC121ADB8A8F
:1040DC00828B83A31243C9E5082403FAE43509FB58
:1040EC000242CB850A82850B83E02404F07C047D9C
:1040FC00007900AA12AB131213280243A4E50E4553
:10410C000F600302433D1243D6FEA3E0FF850A82F3
:10411C00850B837404F0EE850882850983F0EF85A6
:10412C001282851383F074031218BEEEFAEFFB12A1
:10413C0007048A0C8B0DEA450D70030241E78A8255
:10414C008B83A3A3122E0074011218AE880E890F54
:10415C00780E121ADB74051218A4121AF27CFF7D69
:10416C00FF12070A740412186E8B0FEA450F703396
:10417C00850C82850D831243CD121ADB850C82854A
:10418C000D83A3121AF27C027D007A117B91120529
:10419C0006740412186EE9700A74011218A474FFE4
:1041AC00F0A3F08E828F83E064027039750C027577
:1041BC000D00780C121ADB8E828F83A31243C9E593
:1041CC00082404FAE43509FB121310740212186E59
:1041DC00850A82850B83E02402800974011218A4DD
:1041EC00EEF0A3EFF074011218A41243BB74011289
:1041FC0018A41243B2024337E50E450F6003024385
:10420C003D850C82850D83124651AA16AB171211EF
:10421C00AE850A82850B837402F08508828509833A
:10422C00EAF0851282851383EB02433AE50E450FC3
:10423C00600302433D1243D6F8A3E0F9850A828558
:10424C000B837402F0E8850882850983F0E98512F6
:10425C008285138302433A850C82850D8312343593
:10426C0012130AEAFAF8C3950EE4950F405CE86560
:10427C000E450F70047A008021851882851983E021
:10428C00FCE50E2CFCE4350FFDC3EC98ED940050CE
:10429C0003E08005E50ECAC39AFAEA850A82850B0B
:1042AC0083F08A0A750B00780A121ADB850C82855A
:1042BC000D83E0250EFCA3E0350FFDAA08AB091217
:1042CC001310740212186E0243A47510070243A453
:1042DC00E50E450F705B850C82850D831245638559
:1042EC000A82850B837407F0888289831243B31288
:1042FC0043ABE0851282851383F0E82402FAE4399B
:10430C00FB8A828B831243BB8A828B831243B2A3B8
:10431C00A31229921243C0F0E82405F85001098831
:10432C008289831243C0A31243FAA3A3A3A3F080F0
:10433C006775100B8062741D1218A41234351208A4
:10434C00068A828B83E5824583604A124563880C1A
:10435C00890DE8450D603E74251218A4E0F510781F
:10436C0010121ADF780E121ADB780A121ADB780890
:10437C00121ADB74071218A4E0F9EEFCEFFDAA1672
:10438C00AB17850C82850D831218C6740712186E34
:10439C00E9F510800375100EA91074050236F8F0BB
:1043AC0088828983A322A3E085088285098322124F
:1043BC004401F022124401A3A3229002EF124658AA
:1043CC0022E0F50E750F00780E22850C82850D8388
:1043DC0012389BE022E0FAA3E0F8E4C8F9EA2822BC
:1043EC00F08A828B83E0F50A750B00780A2212435F
:1043FC00AB12440122E0850882850983A3A32274B1
:10440C00EE1218C874FE1218588A088B09ECFEEDCF
:10441C00FF890AAC18AD19EEFAEFFB1207048A0CEF
:10442C008B0DEA450D70030244F3851882851983C0
:10443C001234351208068A828B83E5824583700319
:10444C000244EEA3A3124563880E890FE8450F7052
:10445C00030244EE74141218A4E0F510A3E0F51155
:10446C00E50AF50B780B121ADF74191218A4121A3C
:10447C00F27810121ADB741B1218A4E0F9AC0CAD14
:10448C000DAA08AB09850E82850F831218C6740518
:10449C0012186EE9F50B705274FE650A604C850CAF
:1044AC0082850D83E064027041124502FAA3E0F9A3
:1044BC00EAF87402687003742969702E851082857D
:1044CC0011831243E1F50CE439F50D780C121ADB6B
:1044DC00EEFCEFFDAA08AB0912088A740212186EE2
:1044EC008008750B0E8003750B01A90B7402121852
:1044FC006E7F0A02199AA312456788828983E0228B
:10450C0074F61218C874FE121858740C1218A412EF
:10451C004563E8851882851983F074011218A4E9A3
:10452C00F0E4F508F5097808121ADB75080278082A
:10453C00121ADB74041218AE880889097808121A4A
:10454C00DB79FE120872740612186E740212186E61
:10455C00023F148E828F8312456722E0F8A3E0F9A4
:10456C002274F71218C8EAFEEBFF890890030612B2
:10457C0043C91211AEEA5402600BA908EEFAEFFB24
:10458C001206F8800279017F0102199A74F212184E
:10459C00C874FE121858EAFEEBFF890A7401650A0A
:1045AC0060147402650A60030246477901120A948A
:1045BC00E96003024647EEFAEFFB120854EA4B603F
:1045CC000312085AA818A919880889097808121A18
:1045DC00DB7508027509007808121ADB7508EF758F
:1045EC0009907808121ADB7CFF7DFF7A017B0012A0
:1045FC0006FE740612186E8038850882850983A31E
:10460C00A3A3A3A3A3124651EEFAEFFB121196E457
:10461C00F50CF50D780C121ADB74021218A4121A90
:10462C00F27CFF7DFFAA08AB0912070A740412186A
:10463C006E8A088B09E508450970BE740212186E63
:10464C007F0602199A12389B12465822E0FCA3E00E
:10465C00FD2274F41218C88A088B09ECFEEDFF9049
:10466C001776E0F4604B7A097B00121334EA4B6046
:10467C00408A828B8374B1F0A3E41246C0F08A8224
:10468C008B83A3A3E508F0A3E5091246C0A3EEF0C3
:10469C00A3EFF0740C1218A41245638A828B83A3C7
:1046AC00A3A3A3A3A3A3123A8C901776E0F9121339
:1046BC00400229C7F08A828B83A3A3A3A32274F0A0
:1046CC001218C874FA1218588909ECFEEDFF750817
:1046DC00008A0A8B0B780A121B1F000410F0480D7D
:1046EC00472B4745475D477B479347B647CE47E245
:1046FC00470C4887489848AF48CA48F048F04822C9
:10470C00487401650960030248EB8E828F83E0F8E0
:10471C00C3940340030248EBE89018620248C77444
:10472C0002650960030248EB8E828F8312504E9013
:10473C001863E8F0A3E90248C77401650960030235
:10474C0048EB12491840030248EBE890072C02484A
:10475C00C77401650960030248EB8E828F83E0F811
:10476C00C3940540030248EBE890072D0248C77438
:10477C0001650960030248EB12491840030248EB3B
:10478C00E890072E0248C77410650960030248EBD5
:10479C00750A10750B00780A121ADB7A2F7B071238
:1047AC001310740212186E0249117401650960032A
:1047BC000248EB12491840030248EBE890073F020D
:1047CC0048C77401650960030248EB8E828F83E051
:1047DC009018660248C77404650960030248EB8EA2
:1047EC00828F83780C12171C9090AA780C12154F9C
:1047FC0050030248EB900741780C12172B02491119
:10480C00E960030248EB12069EE9700512115A800A
:10481C00559007D480617407650960030248EB75F5
:10482C000A06750B00780A121ADB8E828F83A3ACF2
:10483C0082AD8374021218B6121316740212186E1B
:10484C007C007D00AA18AB198E828F83E0F91211BF
:10485C0006E9FEC3940A400302490E12069EE97053
:10486C000CEEF9121160795012144E806D74D52E25
:10487C00F582E43407F58374018040740165097096
:10488C005E1249185059E8900740802F7401650951
:10489C00704D8E828F83E0F8C3940A5042E89018D2
:1048AC006580187401650970368E828F83E0F87408
:1048BC00F928C3940A5028E8901867F080477401CF
:1048CC006509701B9007D3E0F88E828F83E0900708
:1048DC00D3F0E87030E06401702B12114E80267515
:1048EC0008188021C3EA9427EB94005015740265D4
:1048FC0009700F8E828F83125B2E12051EE9F5084C
:10490C008003750802A9087406024C3C8E828F83C2
:10491C00E0F8C3940222A908800312186E7F0402E7
:10492C00199A74F01218C874B11218588C0A8D0B9D
:10493C0090904274201218BE740612176B742012D9
:10494C0018BE121106E9FF745F1218A4E0F509EF06
:10495C00C3940A4003024AB075F006EFA4F508743C
:10496C00411218BE7A0E74202508F9121448E97009
:10497C0009744D1218A4E0FE80027E00901862E0CB
:10498C0064027005750E018003750E0074086509CC
:10499C0070047422800274212508F50D7C1B7D00A7
:1049AC00790074261218B612132874261218BE7ABF
:1049BC001BA90D121448E9702D74401218A4E024A0
:1049CC00F9C3940A5020E50EF50D780D121ADF7418
:1049DC00271218BEEEA2E0E433F9AA0AAB0B1205BB
:1049EC00C0740112186E7C147D007900740C1218BE
:1049FC00B6121328740C1218BE7A1074242508F9F8
:104A0C00121448E970347C1079FF740C1218B61229
:104A1C001388E97025741C1218A4AC82AD837A0437
:104A2C0074252508F9121448740C1218BEEEA2E075
:104A3C00E433F9AA0AAB0B1205A8AC18AD197A0C21
:104A4C0074702FF9121448E97049AA18AB19121195
:104A5C00367F00EF75F003A4F8A9F085188285194C
:104A6C0083E58228F8E5831252051253E6601D880F
:104A7C00828983A3A3E0F50E750F00780E121ADB62
:104A8C00AA0AAB0B120878740212186E0FEFC394BB
:104A9C000440C0EEA2E1500C90072BE0F9AA0AAB3F
:104AAC000B12087E740465097028901862E0640289
:104ABC0070207A0090073FE060027A0190072CE0AA
:104ACC006004780480027800E84AF9AA0AAB0B1259
:104ADC0006747900744F024C3C74F71218C8120615
:104AEC009EE9704F9007D4E06401701512115A9032
:104AFC0007D4E4F07C0AFDF97AD57B0712132880E1
:104B0C002A750800A80874D528FEE43407FF8E82A5
:104B1C008F83E06401700BA9081211608E828F8361
:104B2C00E4F00508E508C3940A40D9795012144EF4
:104B3C0012114E02551D74F01218C874F012185848
:104B4C00EAFEEBFF8C088D09750A0AE9600C14600B
:104B5C000914603B14607D024C38121148E9F50AC7
:104B6C00C3940A4003024C38E50845097003024C13
:104B7C0038750C06750D00780C121ADBEEFCEFFD87
:104B8C00AA08AB09121310740212186E024C387575
:104B9C000C00750E06750F00780E121ADBEEFCEF8A
:104BAC00FDE50C75F00EA4F8A9F0744D28FA740705
:104BBC0039FB121322740212186EE9700B050CE506
:104BCC000CC3940A506680CA850C0AE50AC3940A81
:104BDC00505A8049750C00AC18AD197A1075F00656
:104BEC00E50CA42423F9121448E9701C7C1079FFFD
:104BFC00AA18AB19121388E9700EEEFCEFFDAA1877
:104C0C00AB19120584E9600B050CE50CC3940A5032
:104C1C001B80C4850C0AE50AC3940A500FE50845AD
:104C2C00096009AA08AB09A90A121142A90A741051
:104C3C0012186E7F0802199A74F41218C889097533
:104C4C00081574FF6A700374FF6B70277E00AC0943
:104C5C007A027B00EEF9121124E960037508000E4C
:104C6C00EEC3940A40E8E50960537A727B11120A8C
:104C7C00B8804A120A888A0A8B0BAE0AAF0BEE4F29
:104C8C0060387C007D00EE2405FAE43FFB8E828FB9
:104C9C0083A3A3A3A3E0F9121106E9F9C3940A5064
:104CAC000CAC097A027B00121124750800E509602E
:104CBC000CEEFAEFFB1211728003750814024922F4
:104CCC0074F21218C8ECFEEDFF750815740E12186C
:104CDC00A4E0F50AA3E0F50B74FF6A700374FF6B94
:104CEC007021750900AC0AAD0BEEFAEFFBA90912A5
:104CFC00112AE960037508000509E509C3940A50F7
:104D0C003F80E2120A888A828B83E5824583602D7C
:104D1C007C007D00E5822405FAE43583FBA3A3A384
:104D2C00A3E0F9121106E9F9C3940A5013AC0AADC9
:104D3C000BEEFAEFFB12112A7508008003750814AC
:104D4C00A9087F0602199AC082C083900745EAF031
:104D5C00A3EBF090072BE0FC7D007A267B0012057C
:104D6C001E90072BE0F91207E202583774EE121866
:104D7C00C874EC1218588A088B09EA240CF510E454
:104D8C003509F5118A828B83A385820C85830DEA04
:104D9C002405F50EE43509F50FEA2409F50AE43586
:104DAC0009F50BEA2403FEE43509FF8A828B83A301
:104DBC00A3E024FA700302503C24FD7003024F5C04
:104DCC00147003024E5614601024FD7003024F3F02
:104DDC00147003024F94025042125B346044E0F5AD
:104DEC0083888212504E880C890DE8450D603385FE
:104DFC001082851183E0F50E780E121ADFEA240B6F
:104E0C00F582E43509F583E0F9125B280A0A0AEF0A
:104E1C00FB850C82850D831218C6740112186E0264
:104E2C005042850A82850B83121AF29007411217A1
:104E3C003A1205BA740212186EE9700302504279E4
:104E4C0001850A82850B8302500C750A00850C8241
:104E5C00850D83E06003024F0C850E82850F83E085
:104E6C00A2E04003024F0C9007DF125B3760030295
:104E7C004F0C7C0E7D007900AA18AB1912132885F3
:104E8C001082851183125802EA4B6010750A067560
:104E9C000B00780A121ADBEA2410801B1257FE1240
:104EAC000A88EA4B7003025042750A06750B0078AB
:104EBC000A121ADBEA2405FCE43BFD74021218B654
:104ECC00121310740212186E850E82850F83E0A2E5
:104EDC00E25004D2F08002C2F0A2F0E433F8740C79
:104EEC001218A41259B612113CE970117A027B0007
:104EFC0090072BE0F91213647900025044750A15DF
:104F0C00125B347003025042125063700302504221
:104F1C00850C82850D83E0FC79011250541218C661
:104F2C00E50A7003025042FC79031257FE1257B97E
:104F3C00025037125B3470030250421250637003FC
:104F4C00025042850C82850D83E0FC7902025034BC
:104F5C007C007D00EA2404FAE43509FB8E828F8301
:104F6C00E0F9121106E9F8C3940A4003025042E535
:104F7C0008240AFCE43509FD7A0475F006E8A4243B
:104F8C0025F91214420250421257FE900740E0607D
:104F9C0007901865E0F9806B901862E07004790551
:104FAC008061120A888A0C8B0DA80CA90DE8497037
:104FBC0003025042E82404F50CE439F50D8508820F
:104FCC00850983A3A3A3A3A3A3A3E0A2E0503985DF
:104FDC000C82850D83E0F508602E850A82850B8393
:104FEC00A3E054027022740E1218BEE82405FAE4F1
:104FFC0039FBA908121106E9700E79038E828F8392
:10500C001258021205B4802EAC0EAD0F850C8285A1
:10501C000D83E0F91257FE12117E125B34601712E9
:10502C00506360127C0079001250541218C680062E
:10503C001257FE1211007901741412186E7F0A02B5
:10504C00199AE0F8A3E0F9228E828F83E0FAA3E0AC
:10505C00FB8882850983221257C7F98909E845091B
:10506C002274F51218C874F2121858EAFE8C0A75DC
:10507C00F006E9A42420F508AC18AD197A0EF91243
:10508C001448E970467C0679FFAA18AB19121388EC
:10509C00E97038740C1218A4125802EAF8E50A6088
:1050AC0005EEC8488004EEF4C858F8EA687001EBC5
:1050BC006015740C1218A4E8F0A3E4F0AC18AD1948
:1050CC007A0EA908121442790180027900740E122A
:1050DC00186E7F0302199A74F21218C874E612182B
:1050EC0058890A8A088B09ECFEEDFF740C1218BE65
:1050FC007A0E75F006E9A42420F9121448E960032D
:10510C000251C87C0679FF740C1218B6121388E988
:10511C0060030251C87470250AF50BAC18AD197AEE
:10512C000CF9121448E960030251C4AA18AB191205
:10513C001136E5084509701D7C0C7900AA18AB19CD
:10514C00121388E970727C0C7D007900AA18AB19D7
:10515C001213288051AC18AD19AA08AB09121130E2
:10516C008A0C8B0DA80CA90DE8497022EE4F604CEF
:10517C00AC18AD197A007B00121130EAF8EBF9EAA1
:10518C004B603988828983E508F0A3E509F0125257
:10519C0041FAEE6A7001EF601FEEF04F70088882E2
:1051AC008983E4F0A3F0AA18AB19121136AC18AD30
:1051BC00197A0CA90B121442790180027900741A25
:1051CC0012186E024D4E74F71218C87E00EE75F070
:1051DC0003A4F8A9F0EC28F8ED125205E06A70036C
:1051EC00A3E06B7006E8FAE9FB800B0EEEC39404A7
:1051FC0040DB7A007B0002551D39F98882898322B5
:10520C0074F71218C87C00EC75F003A4F8A9F0EA46
:10521C0028F8EB125205E0F4FEA3E0F4FF88828933
:10522C0083EEF0A3EFF0125241F4F00CECC39404B3
:10523C0040D502551DE82402F582E439F583E022BD
:10524C0074F41218C874F4121858EAFEEBFF8C08A8
:10525C008D099007DF125B37704FEE4F70030253CE
:10526C00C5EC450970030253C5121148E990186842
:10527C00F0C3940A4033750B007C0679FFE50B757F
:10528C00F00EA4FAABF074472AFA74073BFB121326
:10529C0088E96003025326050BE50BC3940A40D939
:1052AC00750A0AE50A901868F0901868E0C3940A29
:1052BC0040030253C575F006E0A4FB9007DF125BB8
:1052CC0037705CEEFCEFFD7A0E74202BF912144251
:1052DC007C0C7D0079FFAA18AB19121328AC18AD01
:1052EC00197A0C901868E02470F9121442750A0EA1
:1052FC00750B00780A121ADBEEFCEFFD901868E0D3
:10530C0012547E121310740212186E9007DFE50807
:10531C00F0A3E509F079000253C7850B0A8084E0FD
:10532C00C824061253E060197A1B74212BF912144D
:10533C00421253CC2406F582E438F583E4F0A380C2
:10534C00D31253CC240A1253E060107A1B74222B14
:10535C00F91214421253CC240A80DB1253CC240CC5
:10536C001253E060107A1074232BF912144212536A
:10537C00CC240C80C11253D51253E060307A1074D7
:10538C00242BF91214421253D5F582E438F583E03C
:10539C002410FCA3E03400FD7A0475F00690186824
:1053AC00E0A42425F91214421253D580899007D316
:1053BC00E060031211841211787901740C024926F1
:1053CC009007DFE0F8A3E0C8229007DFE0F8A3E045
:1053DC00C8240822F582E438F583125B2EEC4D22AA
:1053EC0074F41218C874F2121858EAFEEBFFE9C3F1
:1053FC00940A5004EE4F700479028034AC18AD1945
:10540C007A0E75F006E9A42420F9121448E9F5087F
:10541C00701C750A06750B00780A121ADB740212DE
:10542C0018BEEEFAEFFB121310740212186EA908D4
:10543C00740E02492674F41218C8EAFEEBFF7508C4
:10544C0000750A06750B00780A121ADBEEFCEFFDEC
:10545C00E50812547E121322740212186EE96004CD
:10546C00A908800B0508E508C3940A40D4790A0200
:10547C00492975F00EA4F8A9F0744728FA74073975
:10548C00FB2274F71218C8750800E50875F00EA415
:10549C00F8A9F0744728FE740739FFEEFCEFFD7A8B
:1054AC000E75F006E508A42420F9121448E96029C9
:1054BC007C067D0079FFEEFAEFFB1213287C067D4B
:1054CC000079FFEE2CFAE43FFB121328EE240CF5C6
:1054DC0082E43FF583E4F0A3F00508E508C3940AE1
:1054EC0040A89007D3E06003121184121178802138
:1054FC0074F71218C87E007F007C06EF12547E7978
:10550C00FF121388E970010E0FEFC3940A40EAEE04
:10551C00F97F0102199A74F71218C87E00EEF9127D
:10552C001160E9F90EEEC3940A5003E960EF80E1D3
:10553C0074F31218C874CB1218588908901868E0C4
:10554C006508701B7A017B0090072BE0F912136A37
:10555C007A027B0090072BE0F912136A12119075F6
:10556C00F006E508A4FF74202FFE74271218BE7AEB
:10557C000EEEF9121448E960030256447C0679FFDA
:10558C0074271218B6121388E960030256447C0E75
:10559C007D0079FF74271218B61213287C1B7D002E
:1055AC0079FF740C1218B61213287C0C7D0079FF4D
:1055BC00AA18AB1912132874271218BE7A0EEEF91A
:1055CC00121442E9FE740C1218BE7A1B74212FF9C6
:1055DC00121442E9F509740C1218BE7A1B74222FAE
:1055EC00F9121442E9F50A740C1218BE7A107423DD
:1055FC002FF9121442E9F50B740C1218BE7A1074C0
:10560C00242FF9121442E9F50C740C1218BE7A040A
:10561C0074252FF9121442E9FFAC18AD197A0C74E9
:10562C00702508F9121442E9F8E509450A450B45BD
:10563C000C4F48CE4EFE80027E00EEF974351218E7
:10564C006E7F0502199A74F71218C8E990072BF0AF
:10565C0012114E02551D74F21218C8EAFEEBFF54DB
:10566C0080700302572190072BE0F912134C8A0823
:10567C008B09EA4509700302571A7A01E5082405DB
:10568C00F50AE43509F50BE5082404F8E43509F9C5
:10569C00880C890D8508828B83E024506036146059
:1056AC000624E16058805D88828983E07059850802
:1056BC00828B83A3A3A3A3A3A3A3121AF2125B2826
:1056CC008508828B83A3A312580212111274021242
:1056DC00186E803388828983E0641E700F79008590
:1056EC0008828B83A3A312580212110C850C82859D
:1056FC000D83E0F9AA0AAB0B1207DC800AAA081288
:10570C00111EE9FAEA6007AA08AB0912133AEEFA7D
:10571C00EF6480802AEE54026028EE6402FE7C0066
:10572C007D007A007B0012113CE960047A01800252
:10573C007A027B0090072BE0F9121364EEFAEFFB70
:10574C008068EEA2E050556401F508EFF509125798
:10575C00D712118AE96033125B3460291257CF12C9
:10576C00504EE8FEE9FFEE4F601B7C0079011257AA
:10577C00D78E828F831218C67C0079031257D712EA
:10578C0057B91218C6121190800C7A017B00900741
:10579C002BE0F9121364AA08AB09800E54046006BE
:1057AC00EE6404FA80047A007B00024D4E900745AB
:1057BC00E0F8A31257C7F5838882221257CFE0F87E
:1057CC00A3E022E0F5838882A3A3229007DF125B7B
:1057DC0018E0FAA3E0FB227F0202199AC082C08370
:1057EC0090072BE0F98A828B83A312580212087E51
:1057FC0080398E828F83E0FAA3E0FB22C082C083C3
:10580C0074FF121858121154E9C39402851882853A
:10581C001983400474028002740AF0AC18AD197A32
:10582C000179051206BC740112186ED083D0820265
:10583C00011F74F01218C874E8121858EAFEEBFF36
:10584C00890A8C088D097C187D007900AA18AB197F
:10585C00121328851882851983EEF0A3EFF09007B8
:10586C002DE0C0E074021218A4D0E0F090072EE0F6
:10587C00C0E074031218A4D0E0F0901867E0C0E008
:10588C0074171218A4D0E0F0901866E0A2E0E4338C
:10589C00FCE0A2E15004D2F08002C2F0A2F0E433AA
:1058AC00F8E0A2E45004D2F08002C2F0A2F0E4339B
:1058BC00FAE0A2E55004D2F08002C2F0A2F0E43388
:1058CC00F50E750F00E0A2E65004D2F08002C2F093
:1058DC00A2F0E433F50C750D00E0A2E25004D2F016
:1058EC008002C2F074151218A4E054FEFEA3E0FF6F
:1058FC00EE4CFCEFFDEC54FDFCE828F8EC48F8ED20
:10590C0054FEF9EAFBE94BF9E8FAE954FDFB74099A
:10591C00780E121845EB450F54FBFB740A780C12E9
:10592C001845EAF8EB450DF9E854FBFAA2F0E4331C
:10593C00F50C750D007402780C121845EA450CF83C
:10594C0074151218A4E8F0A3E9F090072EE0601D7E
:10595C00750C10780C121ADB7C2F7D07740612184C
:10596C00A4AA82AB83121310740212186E90073F14
:10597C00E06011E50A600974151218A4E04402F005
:10598C0078018002780074141218A4E048F0900793
:10599C002CE0600478048002780074141218A412AD
:1059AC0059B61205AE7418024C3CE048F0AC08AD88
:1059BC0009AA18AB192274F71218C81208D2750864
:1059CC0000E50875F00EA4F8A9F0744728FE7407DA
:1059DC0039FF7C0679FFEEFAEFFB121388E97009A8
:1059EC00EEFAEFFB79001208D80508E508C3940A13
:1059FC0040CF02551D74F61218C874FD121858EADF
:105A0C00FEEBFF9007E1125B3770397508E37509FF
:105A1C00077808121ADB7508027509007808121A43
:105A2C00DB7508EF7509907808121ADB7CFF7DFF97
:105A3C007A017B001206FE740612186E9007E1EADA
:105A4C00F0A3EBF09007E1125B377003025B0A7571
:105A5C0008FF7808121ADFE4F508F5097808121A1D
:105A6C00DB74051218AE880889097808121ADB74E1
:105A7C00051218AE880889097808121ADB9007E31A
:105A8C00121AF279029007E1125B2012086C740969
:105A9C0012186EE97036851882851983E0FA740144
:105AAC001218A4E0F8E4C8F9EA28F508E439F50975
:105ABC00EA450960177808121ADB9007E1125B18A7
:105ACC00A3125B20121112740212186EE4F508F581
:105ADC00097808121ADB9007E3121AF27CFF7DFF9B
:105AEC009007E112580212070A740412186E9007FC
:105AFC00E1EAF0A3EBF09007E1125B377004790157
:105B0C0080027900740312186E0257E3E0F8A312B6
:105B1C0057CFA322125B2EEEFAEFFB22850A828569
:105B2C000B83E0FCA3E0FD22900745E0F8A3E0F92D
