:020000040000FA
:060000000201070221B11C
:03002B000225FEAD
:03003B0002262476
:030043000225A9EA
:030053000222275F
:03006B000225CF9C
:10008300022007E5C754F84401F5C77901220000AF
:100093000080FB120086B900030200F1E4792178A5
:1000A30008B800028004F709D8FCE479297802B87B
:1000B30000028004F709D8FCE490028178317915B5
:1000C3008002F0A3D8FCD9FA7AB17B169001377875
:1000D300C479038015E493A3AD82AE838A828B83B4
:1000E300F0A3AA82AB838D828E83D8E9D9E7758288
:1000F300F77583BD740312011975829175830074BA
:100103000012011975D00075813F751881751902A8
:10011300759F00020096C09FF59FE473D09F22D085
:1001230083D082C09FE493C0E0740193C0E0740263
:1001330093F59F22FF0000B4000028002800283018
:1001430075A000A000A000A00000080008E001F0D6
:10015300001000100010001000100010005000509C
:1001630000500010001000D0070000000000000F36
:100173000001000500307507001000010081FF0039
:10018300000000FFFFFF1C063A0622065E06FF0280
:10019300020208025000A0000000E803026C900174
:1001A3000000A98F0264900100000C1702729001F5
:1001B3000000BF020264900100000D17027090015D
:1001C3000000D5020264900100000E17026A90013C
:1001D3000000D7020264900100000F170266900826
:1001E3000000D8020264900100001017025E900123
:1001F30000001117FF0100FF20026C900100005561
:1002030090026490010000751702609000000000E6
:1002130000027890030000060317000C0D0C0D0C70
:100223000D0C0D0C0D0C0D0C0D0C0D0C0D0C0D0C03
:100233000D0C0D0C0DE80FFA0FE20F020202020281
:1002430002020202010D0000001001026C90010085
:10025300005290026490010000B8170288900100D8
:10026300002307026490010000B917028490010083
:1002730000688F026490010000BA170282900100A7
:10028300004D8F026490010000BB170280900100B3
:1002930000DD8E026490010000BC17027E90010015
:1002A30000A78E026490010000BD17027C9001003C
:1002B30000958E026490010000BE17027A9001003F
:1002C30000B98E026490010000BF1702769001000E
:1002D300003F8F026490010000C017027490010078
:1002E30000C11701E8030577100AFFFFFF00013083
:1002F300750302010600000000000000000000007A
:1003030000000000000000000000000000000000EA
:1003130000FFFF0600800CE8031409434332353421
:1003230030424C455065726970686572616C0512A4
:1003330050002003020A000201060302F0FF536982
:100343006D706C6520424C4520506572697068651C
:1003530072616CBC140000C2141043686172616363
:1003630074657269737469632034000A50756C7321
:100373006553656E736F720000000000000A010090
:1003830000000000000000000000000000004543E2
:100393004700000000000000000000000000000211
:1003A3006C900100005890026490010000D618027E
:1003B3008E90000000AC16027890030000AD160288
:1003C3006290010000D718026490010000E818024F
:1003D3009090030000AF16026290010000E918023A
:1003E3006490010000FA18028690030000FB1802D3
:1003F30062900100000B191201228594031201225D
:10040300989403120122C994031201220395031243
:1004130001225C9503120122A39503120122EB959D
:10042300031201221A960312012249960312012292
:10043300809603120122C79603120122E09603124B
:1004430001223597031201224E97031201229C9732
:1004530003120122D697031201228DB50212012243
:1004630090B602120122C9B602120122ECB60212A0
:100473000122FEB6021201223CB702120122B8B7D2
:100483000212012280B802120122A2B80212012232
:1004930039B9021201228BB902120122BCB902122C
:1004A3000122C9B90212012233BA021201228ABA05
:1004B300021201228DBA02120122C6BA02120122CD
:1004C300C9BA02120122D3BA0212012227BB0212B5
:1004D300012268BB021201229BBB02120122D8BB7C
:1004E30002120122DABC021201227EBD0212012293
:1004F300E7BD0212012225BE02120122A48C0312BF
:100503000122CC8C03120122F98C03120122318DBA
:10051300031201228F8D03120122DB8D03120122AC
:10052300428E03120122828E03120122BF8E031216
:100533000122ED8E03120122978F03120122A18F54
:1005430003120122AE8F03120122E18F0312012253
:10055300ED8F031201220590031201220F90031263
:1005630001224EBA031201225CBA0312012274BAA9
:10057300031201228BBA0312012276C70112012250
:1005830020C80112012233C901120122AFC901128D
:100593000122CDCA0112012209CB01120122A4CBEF
:1005A3000112012288CC0112012254CD0112012231
:1005B300E2CE0112012253CF011201220DD001120A
:1005C3000122FFD0011201223FD101120122F3D1F6
:1005D3000112012225D2011201221BD40112012290
:1005E3005DD4011201227BD401120122E1D4011254
:1005F3000122B0D50112012274D60112012293D82F
:10060300011201224ECE0212012238CF0212012220
:10061300E3CF0212012234D002120122E4D00212EB
:10062300012255D1021201223AD2021201226ED2C4
:100633000212012267D302120122A4D30212012261
:1006430080D402120122BFD402120122DBD402128F
:100653000122FCAE0312012280AF03120122ABAFD1
:1006630003120122C5B0031201229D90031201223D
:10067300B39003120122D19003120122E2910312DB
:100683000122EC91031201221793031201220E940B
:10069300031201227B9403120122AADA021201221D
:1006A300DADB0212012211DC021201225BDC0212EC
:1006B30001221EDE021201229690011201222291D2
:1006C3000112012286920112012292920112012249
:1006D300CD92011201223C93011201224594011291
:1006E30001224E95011201221596011201227297E1
:1006F30001120122909701120122AD9701120122EA
:100703005A9801120122D79801120122FF9801126F
:100713000122C99B01120122CE9B01120122E79DF6
:1007230001120122359E01120122A59E011201220E
:10073300E39E01120122BF9F011201227FA0011239
:100743000122CBA001120122CEA00112012212A18B
:10075300011201225AA10112012299A101120122BF
:10076300BBA101120122EFA10112012252A2011227
:100773000122F2E40212012200E50212012253E5F2
:100783000212012272E502120122B7E502120122CE
:10079300FBE60212012296E702120122DAE70212B5
:1007A300012204E80212012273E802120122B9E8CD
:1007B3000212012230E902120122E1E902120122AE
:1007C300982600120122A8260012012249270012AE
:1007D3000122A527001201226228001201227E298C
:1007E30000120122B02900120122DF290012012286
:1007F3008C2B00120122032E0012012273300012EF
:1008030001226531001201225E3200120122653499
:1008130000120122593700120122883800120122E6
:100823008C3A001201229C3B001201222B3D001244
:1008330001221C3E001201226A3E00120122D93E0F
:1008430000120122FD3E001201224E3F001201223E
:10085300EF4300120122F04400120122514500121D
:1008630001227C45001201224246001201225084DB
:10087300031201225A84031201229F8403120122CC
:10088300B384031201224385031201227C850312E0
:100893000122B78503120122E08503120122348667
:1008A300031201224986031201226B8603120122DD
:1008B300808603120122948603120122A986031261
:1008C3000122E386031201220F87031201225887B4
:1008D30003120122CA87031201220D880312012287
:1008E30037880312012262880312012275B50312AD
:1008F3000122559802120122389902120122B3995A
:1009030002120122EE99021201223F9B02120122DE
:10091300CD9B021201225F9E02120122119F02123D
:1009230001221DA00212012290A102120122E9A1BB
:1009330002120122008003120122438003120122CA
:10094300C780031201229E830312012288AA031285
:1009530001223AAB0312012236AC0312012275AC19
:1009630003120122CFAC03120122F4B003120122BD
:1009730057B103120122F4B10312012229B2031267
:10098300012259B20312012294B203120122B4B21A
:1009930003120122B2EE021201223EEF02120122E1
:1009A300FDEF0212012215F1021201222FF30212AE
:1009B300012263F40112012288F40112012255F588
:1009C3000112012229F60112012296F601120122D7
:1009D300D6F60112012272F701120122A6F80112C2
:1009E300012281F901120122E0F9011201226CFABC
:1009F30001120122DAFA0112012266FB011201221D
:100A0300ACFB011201221EFC01120122B0FC0112F7
:100A1300012251FD0112012271FD01120122B9FDD2
:100A23000112012202FE011201221EFE0112012205
:100A330044FE01120122BEFE01120122CCFE01126C
:100A430001225BFF01120122C4FF0112012266F39E
:100A530002120122EBF3021201222DF402120122EF
:100A630011F5021201227EF502120122C2F50212D1
:100A7300012206F60212012233F6021201225BF66C
:100A83000212012293F602120122D1F6021201226E
:100A9300F8F60212012272F702120122BCF70212C7
:100AA30001227EB50112012226B70112012253B998
:100AB30001120122A7B901120122D2B901120122A6
:100AC300A4BA01120122E8BA011201222CBB0112BD
:100AD30001223FBB0112012280BB01120122ADBBE7
:100AE30001120122FBBB011201223CBC01120122B3
:100AF3006ABC01120122BDBC0112012254BD0112C4
:100B030001223EC00112012254C20112012292C2EB
:100B13000112012225C4011201226AC40112012219
:100B2300DCC4011201222DC50112012267C5011285
:100B330001226CC5011201220CC60112012242C717
:100B43000112012253C70112012292A202120122B1
:100B530011A3021201220AA90212012210AA0212EF
:100B6300012283AB021201221AAC02120122485B5A
:100B730000120122915B00120122BE5B00120122CE
:100B8300F05B00120122FD5B00120122095C0012DE
:100B930001221B5C00120122F65C00120122545D4B
:100BA30000120122895D00120122C05E001201229F
:100BB3000D5F00120122315F00120122A15F0012BA
:100BC3000122626000120122256100120122936159
:100BD30000120122506200120122636200120122FC
:100BE300E162001201227463001201229B6300126E
:100BF3000122036400120122546400120122A96439
:100C030000120122526500120122FD650012012229
:100C1300A966001201221B67001201226F670012EE
:100C23000122CF6700120122FF670012012295689B
:100C330000120122BA6900120122026A0012012283
:100C43001F6A001201223E6A001201226D6A00121D
:100C53000122826B00120122086C001201222D6C0A
:100C630000120122426C00120122B56C0012012213
:100C7300F66C00120122126E00120122B36E0012F2
:100C83000122016F001201226B6F00120122846F97
:100C93000012012244AC0212012298AC021201227A
:100CA300A4AC021201226EAD021201229BAD02120C
:100CB3000122C9AD0212012235AE021201226BAE2E
:100CC30002120122A4AE02120122BCAE02120122C0
:100CD30011AF021201222AAF021201226FAF0212D8
:100CE300012282AF021201229CAF02120122B2AF93
:100CF30002120122D0B002120122FBB10212012220
:100D0300E5B202120122D4B302120122F77F0012CC
:100D130001220080021201222F8002120122F58398
:100D2300021201224C8502120122128602120122B2
:100D33009187021201225B8802120122AD880212FE
:100D43000122C78802120122F988021201220489B2
:100D5300021201224D890212012256890212012236
:100D6300028A02120122DB8A02120122228B021260
:100D730001228A8B02120122CC8B02120122FA8BEE
:100D830002120122358C021201222AA3011201222E
:100D9300A8A601120122AEA60112012203AD01127F
:100DA30001224DB10112012233B5011201227DFC52
:100DB30002120122F3FC0212012209FD0212012296
:100DC30099FD02120122D6FD0212012210FE021227
:100DD30001224AFE02120122BDFE02120122FEFE80
:100DE3000212012207FF0212012213FF0212012243
:100DF30032FF021201225CFF0212012271FF021272
:100E03000122B4FF02120122F3E90212012206EACF
:100E13000212012220EA021201224DEA02120122E9
:100E230093EA02120122C6EA0212012204EB021221
:100E3300012269EB021201227EEB0212012289EBED
:100E43000212012296EB02120122ADEB02120122E1
:100E5300BBEB02120122C6EB02120122D2EB0212F9
:100E63000122E5EB02120122F0EB0212012213EC44
:100E730002120122B7EC02120122C7EC0212012274
:100E8300E1EC02120122FEEC0212012219ED021220
:100E930001223EED0212012249ED021201225EED12
:100EA3000212012272ED02120122D3ED021201227B
:100EB300D9ED02120122DFED02120122E5ED021249
:100EC3000122FDED0212012230EE02120122E0E6C0
:100ED3000112012277E7011201220FE80112012218
:100EE300FFE80112012236E90112012249E9011248
:100EF3000122B7E90112012252EB0112012279EB1F
:100F0300011201221BEC0112012250EC01120122F9
:100F130061EC01120122DAEC01120122FBEC011255
:100F2300012213ED011201226BEE0112012274F072
:100F330001120122C4F201120122C7F3011201229C
:100F430016F401120122B46F00120122B1700012D3
:100F530001229C7100120122A67100120122C871A4
:100F630000120122D4710012012226730012012201
:100F7300557300120122857400120122C7740012F6
:100F83000122F37500120122C976001201221B7798
:100F9300001201227A7700120122B1770012012296
:100FA300EC7700120122877B00120122A07B001242
:100FB3000122227C00120122307C00120122857C56
:100FC30000120122937C00120122007D00120122F3
:100FD300727D00120122B87D00120122458D02129A
:100FE3000122678D02120122518F02120122F69211
:100FF30002120122399402120122139502120122D4
:10100300417E00120122667E00120122D77E001269
:1010130001224BBE0212012254BE021201225DBE06
:10102300021201228EBF02120122ADC1021201225D
:10103300E3C1021201221DC20212012253C2021293
:1010430001228DC202120122C1C202120122EDC28B
:101053000212012236C30212012270C302120122BC
:10106300B8C3021201220EC40212012243C40212A7
:1010730001229EC402120122D8C40212012229C5F0
:10108300021201225FC50212012299C50212012236
:10109300C7C502120122EAC502120122DABB0312FA
:1010A300012206BC0312012261BC031201226BBCA4
:1010B300031201227BBC0312012251A2031201225B
:1010C30078A203120122A2A2031201224ABE031232
:1010D3000122AE4600120122124900120122C94A1E
:1010E30000120122264B00120122284C0012012279
:1010F300B04C00120122374D001201225C4D001248
:101103000122515000120122C75000120122B65190
:1011130000120122F051001201223052001201226A
:10112300D0530012012225540012012272540012DE
:101133000122E0540012012206550012012220551B
:1011430000120122365600120122465600120122D5
:10115300CC5700120122EC57001201222258001230
:101163000122A65900120122E55900120122235B34
:1011730000120122FCF70212012254F8021201228A
:101183009CF9021201220BFA02120122BAFA02128C
:101193000122D9FA021201222DFB021201226BFB5A
:1011A300021201221BBB031201222CBB03120122D8
:1011B300CFBB0312012294BE03120122D3BE03123A
:1011C3000122E7FF0112012285BC0312012295BC13
:1011D30003120122B0BC0312012218BD0312012223
:1011E30089B6031201220DB70312012273B703124A
:1011F300012260B40312012287B403120122DDB479
:10120300031201222FB503120122E3A703120122C5
:10121300F8A703120122FCA80312012270A90312EA
:1012230001228AA903120122A1A903120122B4A94E
:1012330003120122CCA903120122E1A90312012204
:1012430002AA0312012253AA031201223E98031297
:101253000122559803120122CE9803120122A39969
:1012630003120122759B03120122179F031201220D
:10127300A99F0312012227A003120122AEA0031289
:10128300012240A10312012297A103120122A1A16D
:1012930003120122B0A103120122C6A103120122EB
:1012A300D9A1031201223AA2031201224EA2031270
:1012B300012274B903120122C7B90312012217BA1A
:1012C3000312012238BA0312012243BA0312012284
:1012D30083B803120122ACB803120122D5B803125A
:1012E3000122EDB8031201222FB9031201223CD5CA
:1012F3000212012246D50212012286D502120122D0
:10130300CFD50212012209D6021201225FD60212A0
:1013130001227ED60212012287D602120122D8D6DA
:101323000212012201D70212012216D70212012250
:1013330086D70212012214D80212012258D80212AF
:10134300012280D802120122FFD80212012242D9BF
:10135300021201227FD90212012291D90212012223
:10136300B0D902120122B9D9021201227EDA021285
:101373000122C2B20312012213B3031201229CB34E
:101383000312012202B4031201221FA50312012238
:1013930049A50312012243A60312012272A60312D6
:1013A3000122F8A6031201228CB703120122FAAC20
:1013B3000312012230AD0312012269AD031201228F
:1013C300C2AE0312012222BD0312012238BD031251
:1013D300012242BD0312012298BD0312012278C6E5
:1013E3000212012235C70212012270C70212012222
:1013F30098C702120122FAC70212012246C802123A
:101403000122B1C8021201222DC90212012229CAE6
:1014130002120122B0CB0212012233CC02120122AA
:1014230097CC02120122AECC02120122A4CD0212E9
:101433000122F0CD021201228A88031201229F8821
:1014430003120122528903120122928903120122FB
:10145300AB8903120122DE89031201222B8A0312B4
:1014630001225F8A03120122A18A03120122978CAF
:1014730003120122A0D80112012257DC011201221A
:10148300E9DD0112012240DE011201225FDE0112B9
:101493000122DDDE011201226FE00112012253E17C
:1014A3000112012264E50112012238E60112012230
:1014B300EDDF02120122CCE102120122F5E2021257
:1014C3000122A4E402120122A7E402120122DA9B00
:1014D30003120122429C031201225F9C0312012288
:1014E300039D03120122EE9D03120122DDBE0312AE
:1014F300012223BF03120122E2FF02E066701008FB
:10150300A3E066700A08A3E066700408A3E06622FD
:10151300C3E7960809E7960809E7960809E79622BC
:10152300C3E09608A3E09608A3E09608A3E09622FA
:10153300C008C3E096F50808A3E096420808A3E0B4
:1015430096420808A3E09645087001D3D008220804
:101553000808EAC0E0EBC0E086F0E7A4FA180986C1
:10156300F0E7A42AFA180986F0E7A42AFA180986EC
:10157300F0E7A42AFA1986F0E7A4FBE5F02AFA19A2
:101583000886F0E7A42BFBE5F03AFA190886F0E7A2
:10159300A42BFBE5F03AFA18180986F0E7A4C5F086
:1015A3002BFBE43AFA1908E7C5F0C6A426F6E5F0E2
:1015B3003BFBE43AFA1886F0E7A4F6E5F00826F6D2
:1015C300E43B08F6E43A08F6D0E0FBD0E0FA22E484
:1015D300CFC0E0E4CEC0E0E4CDC0E0E4CCC0E07531
:1015E300F020E626F608E633F608E633F608E63397
:1015F300F6181818EC33FCED33FDEE33FEEF33FF32
:10160300C3EC9709ED9709EE9709EF97191919405C
:101613000FFFEC97FC09ED97FD09EE97FE191906EC
:10162300D5F0BFECF709EDF709EEF709EFF7191954
:1016330019D0E0FCD0E0FDD0E0FED0E0FF22601640
:10164300080808C6C313C618C613C618C613C61897
:10165300C613C6D5E0EA22700908080822601618E6
:101663001818C6C333C608C633C608C633C608C669
:1016730033C6D5E0EA22E627F60809E637F6080975
:10168300E637F60809E637F622E026F608A3E03641
:10169300F608A3E036F608A3E036F622E026F008C3
:1016A300A3E036F008A3E036F008A3E036F022C347
:1016B300E697F60809E697F60809E697F60809E6B5
:1016C30097F622C3E096F008A3E096F008A3E0960D
:1016D300F008A3E096F022E056F608A3E056F608D9
:1016E300A3E056F608A3E056F622E056F008A3E07E
:1016F30056F008A3E056F008A3E056F022E0F608FF
:10170300A3E0F608A3E0F608A3E0F622E6F008A3B8
:10171300E6F008A3E6F008A3E6F022E0FAA3E0FB74
:10172300A3E0FCA3E0FD22E0F8A3E0F9A3E0FAA321
:10173300E0FB22E8F0A3E9F0A3EAF0A3EBF022CA6E
:10174300C0E0E6F0A308DAFAD0E0FA22CAC0E0E08B
:10175300A3C582CCC582C583CDC583F0A3C582CC86
:10176300C582C583CDC583DAE6D0E0CA22C3E49837
:10177300F8E499F91217B18026C3E49AFAE49BFBC3
:10178300E920E7E91217B1E498F8E499F922C3E4F0
:1017930098F8E499F91217B1E498F8E499F9C3E4D5
:1017A3009AFAE49BFB22EB20E7CFE920E7E0B900BC
:1017B30010BB0008E88AF084F8AAF022E4FBC8FA18
:1017C30022EB70227B10C833C8C933C9335007C317
:1017D3009AC3DBF280069A50012ADBEAC833F4C8C5
:1017E300C933F4C9FA2275F008E4C833C8C933C948
:1017F30033C99AC99B5004C92AC93BD5F0ECFBC82D
:1018030033F4C8E4C9FA22600D08C6A2E713C61868
:10181300C613C6D5E0F322600C08C6C313C618C6A8
:1018230013C6D5E0F422700422600D18C6C333C674
:1018330008C633C6D5E0F41822251810AF08F518EA
:10184300400C15198008F51840021519D2AF220073
:10185300C0D0251810AF08F518500C05198008F5ED
:101863001850020519D2AFD0D0222518F58210AF37
:1018730008F518400C15198008F51840021519D2FF
:10188300AF851983222518F582E43519F5832225BE
:1018930018F8E43519F9222518FAE43519FB22253D
:1018A30018FCE43519FD22E4732518C582C0E0E570
:1018B3001934FFC583C0E0E518C3958224F810AF3F
:1018C300088583198582188008858319858218D233
:1018D300AFCEF0A3E520F0A37808E608F0A3DEFA84
:1018E300EFF0A3E58124FAF8E608F0A3E608F0A3F5
:1018F300E608F0A30808E608F0A3E608F0A31581BC
:101903001581D0E0FED0E0F8158115811581E8C07E
:10191300E0EEC0E0222518C582C0E0E51934FFC51A
:1019230083C0E0E518C3958224F910AF08858319B5
:101933008582188008858319858218D2AFCEF0A3DB
:10194300E520F0A37808E608F0A3DEFAEFF0A3E5BC
:101953008124FBF8E608F0A3E608F0A30808E608EC
:10196300F0A3E608F0A315811581D0E0FED0E0F8DE
:1019730015811581E8C0E0EEC0E022851983851842
:1019830082E0A3FEE0A3F5207808E0A3F608DFFADF
:10199300E0A3FFE0A3C0E0E0A3C0E0E0A3C0E0E079
:1019A300A3C0E0E0A3C0E010AF08858218858319C7
:1019B3008008858218858319D2AFD083D082020133
:1019C3001F851983851882E0A3FEE0A3F52078081C
:1019D300E0A3F608DFFAE0A3FFE0A3C0E0E0A3C0C2
:1019E300E0E0A3C0E0E0A3C0E010AF088582188563
:1019F30083198008858218858319D2AFD083D0825A
:101A030022C0D02518C582C0E0E51934FFC583C0C4
:101A1300E0E518C3958224F310AF08858319858206
:101A2300188008858319858218D2AFC8F0A3E9F01E
:101A3300A3EAF0A3EBF0A37908E709F0A3D8FAEC43
:101A4300F0A3EDF0A3EEF0A3EFF0A3D0E0F0A3D06A
:101A5300E0F0A3D0E0F0A3E520F0A3E5F0F0A322AB
:101A6300851983851882E0C0E0A3E0F9A3E0FAA317
:101A7300E0FBA37808E0F608A3DFFAE0FCA3E0FDAF
:101A8300A3E0FEA3E0FFA3E0C0E0A3E0C0E0A3E087
:101A9300F5D0A3E0F520A3E0A3F5F010AF0885830C
:101AA300198582188008858319858218D2AFD08260
:101AB300D083D0E0F8D0E032740480067402800250
:101AC3007401C0E0F40412186DD0E01217422274BE
:101AD30004800474028000CCC0E0EDC0E0E518C3CC
:101AE3009CCCAD1950011D10AF068C188D198006C2
:101AF3008C188D19D2AF12174FD0E0FDD0E0FC2225
:101B0300D083D082E9C0E0E493A3C386F0C5F09507
:101B1300F0F908E493A386F0C5F095F0700BE49315
:101B2300A3C3994005E9048002A3E475F002A42548
:101B330082F582E5F03583F583D0E0F9E493A3C021
:101B4300E0E493C0E022D083D082ECC0E0EDC0E0BB
:101B5300E493A3FCE493A3FDED4C600D121B95EC01
:101B630024FFFCED34FFFD80EFE493A3FCE493A397
:101B7300FDED4C600D121BD4EC24FFFCED34FFFD96
:101B830080EFD0E0FDD0E0FCE493A3C0E0E493C099
:101B9300E022C0E0C3E49396087401939618400FC3
:101BA300E49366700808740193661870007019A3B3
:101BB300A3C3E49396087401939618A3A3400DD08E
:101BC300E0D0E0D0E0021B85A3A3A3A3A3A3D0E0AE
:101BD30022C0E0C0F088F0E49366700808740193B3
:101BE30066187000A8F0A3A3700BD0F0D0E0D0E08B
:0C1BF300D0E0021B85A3A3D0F0D0E022BC
:101C000074F6121918EAFEEBFF8C088D09EE2434E5
:101C1000F8E43FF9E8FCE9FD121D33E0FAEE243761
:101C2000F582E43FF583E0F88508F0A4C885F00A62
:101C30008509F0A4250AF9EA28F8E439F97A257B20
:101C4000001217B1EA8C828D83F0FA131313541F1C
:101C5000F8EE28F8E43FF9E8245DF582E439F583ED
:101C6000E0C0E074075AF8D0E0B800028004C31363
:101C7000D8FCA2E05003EA8020EE2436F582E43F4F
:101C8000F583E0F5F0EA84A8F0EE28F8E43FF9E8FF
:101C90002438F582E439F583E0F97F030219C4742E
:101CA000F5121918EAFEEBFFEE2434F582E43FF555
:101CB00083E0C0E0121D33D0E0F08E828F83A3A3B7
:101CC000A3A3A3E0FAA3E0FB8E828F83A3A3A3A325
:101CD000A3A3A3E0FCA3E0FDECC39AF50AED9BF5FA
:101CE0000BEE247FF508E43FF509850882F583E0D3
:101CF0006401702AEE2480F582E43FF583121AD63F
:101D0000121D3D7402121852E960137CB07D04EE7E
:101D1000FAEFFB120C28850882850983E4F0AC0AEF
:101D2000AD0BEEFAEFFB121C00E9F912259B7F04C4
:101D30000219C4EE2435F582E43FF58322C082C047
:101D400083851882851983E0F8A3E0F9C3EA9CEB48
:101D50009D5010C3EC98ED99401BC3EA98EB995045
:101D600014800EC3EA98EB994007C3EC98ED9940B4
:101D700004790180027900D083D08222EAC39CFAE0
:101D8000EB9DFB2274ED121918900376E064086055
:101D900005E06407702C9061C8E060269003A4E021
:101DA000F874FF68601CE875F00AA4C8AAF02AF964
:101DB00074A628FE740339FF8E828F83A3A3A3E049
:101DC00070057900021F1DEE2468F50EE43FF50F43
:101DD000906060E0850E82850F83F075102075118C
:101DE00005750800750900E5D914F50AE5D954030D
:101DF000F50B601FEE2482F50CE43FF50D740365CE
:101E00000B6059E50A6017EE2467F582E43FF5831D
:101E1000E0700B793DEEFAEFFB120C5880A49005B0
:101E20001BE064016023850C82850D83E060047AE9
:101E30000480027A00E50AC39AFA95E0FB120AB41C
:101E40008A088B09EA45097006120EB0021DC28588
:101E50000C82850D83E070048A108B117A00801447
:101E6000E5D9C0E0EAF8E51028F582E43511F583FC
:101E7000D0E0F00AEAC3950A40E6850C82850D831E
:101E8000E0602874FC250AF50A7810121ABFAC0A23
:101E9000A90BEEFAEFFB120D067402121852E9704C
:101EA0000AAA08AB09121378021E137403650B60AB
:101EB00054850A0C750D00780C121ABFAC10AD11C8
:101EC000AA08AB09120CCA7402121852850E828538
:101ED0000F83E0F87480687005750C7F8002880CB1
:101EE000E50CF50D780D121AC3780B121AC3A90A66
:101EF000AC08AD099003A4E0FA7B001208EC740270
:101F00001218528013900376E06408600BAC10AD99
:101F100011EEFAEFFB120D9C120EBC79017F0C0240
:101F200019C474F312191874FC12183CEAFEEBFF82
:101F30008909A2AFE433F508C2AFEE2463F50AE4E1
:101F40003FF50B8010AA0AAB0B120C82121378908B
:101F500004B7E004F0850A82850B83E0F8A3E0F97A
:101F6000E849602DE82402FAE439FBEA2402F50C82
:101F7000E43BF50D780C121ABF8A828B83E0FCA338
:101F8000E0F9EEFAEFFB120C767402121852E960D7
:101F9000B49004B7E0604D9004B8E0F89004B7E066
:101FA000C398500C74026509703A9004B9E060342B
:101FB0008E828F83A3A3A3A3E08518828519831241
:101FC0001FF47402121888E8121FF49004B6E02877
:101FD000F074021218A2AA18AB19790112094090E4
:101FE00004B7E4F0E508A2E092AF74041218527F3F
:101FF000060219C4F0A3E4F09004B7E0F822000050
:102000008521878522C622C0E074EB121A04A2AF94
:10201000E433F508C2AF759B00906182E0A2E05006
:1020200030E591A2E0502A7591FE7401652170217E
:1020300012219A120DF6122188121AD21223457417
:1020400004121852E9640170057901120E44121D40
:1020500084906182E0A2E5505DE591A2E55057755C
:1020600091DF900376E064076005E06408702F124A
:10207000219A74016521703E120DF6122188121A00
:10208000D21223457404121852E9640170057901D3
:10209000120E447901EEFAEFFB121F228018E06461
:1020A0000D7013900398E004F064287002E4F07A55
:1020B00000E0F9120EC2906182E0A2E64003022124
:1020C0005DE591A2E6400302215D7591BF90037624
:1020D000E064057008120DDE120DEA8003120DE4B3
:1020E000752100120E50E9900377F07900120E442A
:1020F000120B927A017B00900375E0F9121348905D
:102100007803E06442705690051FE014F0704EC2F0
:10211000AF12211400782AD0E0F618D0E0F6E59F3F
:102120005407F87005750DFF8003750D7FC4C0E07E
:102130007829E6F50A08E6550DF50B740B780A12B6
:10214000181AD0E0250AF8906270E0A2E740F8E89B
:10215000C333906272F0906270E0D2E0F0906181DF
:10216000E0A2E35009E5E9A2E3500375E9F7A3E033
:10217000A2E75009E591A2E7500375917FE508A217
:10218000E092AF7F08021A638E828F83E0F8A3E0AB
:10219000C82416F582E438F583229003A4E0F8758C
:1021A000F00AA4C8AAF02AF974A628FE740339FF1D
:1021B00022C0E0C0D0C082C083906183E0A2E05022
:1021C00009E5BFA2E0500375BFFEE0A2E15009E5BA
:1021D000BFA2E1500375BFFDE0A2E25009E5BFA236
:1021E000E2500375BFFBE0A2E35009E5BFA2E35054
:1021F0000375BFF7E0A2E45009E5BFA2E450037500
:10220000BFEFE0A2E55009E5BFA2E5500375BFDFCF
:10221000E0A2E65009E5BFA2E6500375BFBFD08338
:10222000D082D0D0D0E032C0E074F2121A04E5A718
:10223000A2E4500FE5A1A2E4500953A7EF75A1EF66
:1022400012227BE5A7A2E5500CE5A1A2E5500653BA
:10225000A7DF75A1DFE5A7A2E15009E5A1A2E15042
:102260000375A1FDE5A7A2E2500CE5A1A2E250068C
:1022700053A7FB75A1FB7F01021A6374F8121918AA
:10228000752101900376E0640670077A007B0012E6
:102290000DC6A2AFE433FED2AF90037CE0640170C0
:1022A000187A207B00900375E0F912145C7A207B89
:1022B00000900375E0F912134E906182E0D2E6F0CF
:1022C00090051CE0602185C622801690037BE064A7
:1022D000017008E5C654F84405F5C653BEFC12204B
:1022E000007401652160E4EEA2E092AF7F01021963
:1022F000C40000008E238F248582288583278518BB
:1023000082851983E0CEA3E0CF852882852783EBE1
:10231000C9EAC8EDCBECCA75F010C3E833C8E9339D
:10232000C9EA33CAEB33CBC3EA9EF526EB9FF5250A
:10233000B35004AB25AA26EC33CCED33CDD5F0DA7F
:10234000AE23AF242274F11219188A088B098C0A63
:102350008D0B908FE678081216DA740F12188878B1
:102360000C121700908FE6780C1216DA7808790CA8
:1023700012151390900250107808790C1216B2784A
:10238000081215334014800E780C79081216B278B2
:102390000C12153350047901800279007F0802196C
:1023A000C474ED1219188A088B098C0A8D0B908F52
:1023B000E678081216DA7413121888780C121700CF
:1023C000908FE6780C1216DA780C79081215134003
:1023D000117808790C1216B2AA08AB09AC0AAD0B39
:1023E00080227510007511007512007513017810A8
:1023F000790C1216B278107908121679AA10AB115E
:10240000AC12AD137F0C0219C4908FE67808121736
:10241000008A828B8378081216ED7F040219C47437
:10242000F51219188C828D8378081217008A828B16
:102430008378081216C6122473C3E098F0A3E099BB
:10244000122465401E90903E78081217008A828BF5
:1024500083780812169F8E828F83E02420F0A3E0F9
:10246000344EF080A4F08E828F83C3E09420A3E0EA
:10247000944E22EA2404F8E43BF9E8FEE9FF8C825A
:102480008D83A3A3A3A3E0F8A3E0F98E828F832218
:1024900074F5121918E9FE9004D2E0FAA3E0FBEEFD
:1024A00029F8E433F9740028F582748F39F583E054
:1024B0002AF508A3E03BF5097808121ABF90903678
:1024C00012171E1222F474021218528A088B098CF9
:1024D0000A8D0B74107808121641AA08AB097F0404
:1024E0000219C474F11219188A0C8B0D8C0E8D0F01
:1024F0007411121888121AD67411121888E0240167
:10250000F508A3E03400F509E4F50AF50B780C7939
:1025100008121552908FF67808121700780C790877
:10252000121552AA0CAB0DAC0EAD0F1222F47402B0
:102530001218528B09EA450960047A0180027A0078
:10254000EC2AFCE43DFD7413121888E0F8A3E0F9CE
:10255000E8FEE9FFECF8EDF97A717B021217B18819
:10256000088909E4F50AF50B8E828F837808121723
:102570000FECF8EDF97A717B021217B18A088B091A
:10258000740578081218298E828F83A3A3A3A3E56C
:1025900008F0A3E509F07F080219C4C082C083E9EE
:1025A000906000F0D083D08222C0E074F2121A044E
:1025B000A2AFE433FED2AFC2C0E5D1A2E4500675AB
:1025C000D10F1212ACEEA2E092AF7F01021A63C0EB
:1025D000E074F2121A04A2AFE433FED2AFE589A28E
:1025E000E04006E589A2E1500312120475890075E6
:1025F0008900C2C5EEA2E092AF7F01021A63C0E07B
:10260000C0D0E8C0E0E9C0E0A9A8D2AFC2C7E9A243
:10261000E7E433F8E9A2E792AFD0E0F9D0E0F8D0F0
:10262000D0D0E032C0E0C0D0E8C0E0E9C0E0EAC00D
:10263000E0C082C083A2AFE433FAD2AF9009BFE01A
:10264000F8A3E0687008539AFBA374018022C2E9E2
:102650009009BFE0F8740128F0743F28F582E43453
:1026600009F583E0F5C19009BFE0C394804002E41E
:10267000F0EAA2E092AFD083D082D0E0FAD0E0F9C5
:0E268000D0E0F8D0D0D0E032C2AF020000228D
:10269000FFFFFFFFFFFFFFFFC082C083E9901774B9
:1026A000F0D083D08202011F74F61218ACE99002B8
:1026B000E8F0900348E0F508750900740278081204
:1026C0001829AA08AB091213BA9002E912305B90DC
:1026D00002E9123448606F900348E075F003A4FAF1
:1026E000ABF01213BA90030612305B90030612345B
:1026F00048700B9002E91234191213C080489003FD
:10270000061243AD7AFF7BFF1211747A0080198A9A
:102710000875090074027808121829123E5574FFD2
:1027200012285BE4F0A3F00A900348E0F8EAC398AB
:1027300040DD79051207D89002E8E0F91206C47A64
:10274000627B08120A54023EF874F41218AC8A082C
:102750008B09EB548060479002E8E0F91213308A4D
:102760000A8B0BAE0AAF0BEE4F602A8E828F83E08E
:1027700064B0701A1207EAE960148E828F83A3A3F3
:10278000A3A3E0F9EE2405FAE43FFB1207BAEEFA40
:10279000EFFB12131EAA08E5096480FB80047A008F
:1027A0007B000229AB74F21218AC74FB12183CEADD
:1027B000FEEBFFEE4F60457403121888EEF0A3EFB6
:1027C000F0851882851983ECF0A3EDF074021218DD
:1027D00088E9F0AA18AB191206BEE9F508707574FD
:1027E00013121888E0F50AA3E0F50BE50A450B6023
:1027F000638E828F83122DE4EE4F70057508028080
:10280000537A067B001213BA8A0C8B0DA80CA90D03
:10281000E8497005750813803B88828983E4122893
:102820005BEEF0A3EF122977E50AF0A3E50BF09039
:1028300002EC1229709002EC6017E0FCA3E0800328
:10284000EAFCEBFD8C828D8312297070F38C828DF3
:1028500083123A70A908740502462DF0A312438F23
:10286000A32274F21218AC8908890C750D00740348
:10287000780C121829850C0A850D0B9002EBF0904C
:1028800002E912387B12296E602E1213C079008083
:102890001D890C750D007402780C1218299002E93C
:1028A000123D148882F583A3A3E4F0A3F0099003FA
:1028B00048E0F8E9C39840D9900348E0FA850AF067
:1028C000A4CAA8F0850BF0A428FB1213BA8A0C8BBB
:1028D0000DAE0CAF0DEE4F7003022964900348E07B
:1028E000FC850AF0A4CCA8F0850BF0A428FD7900A3
:1028F00012130C7C0080318D0C750D007403780C64
:102900001218298A828B8312296988828983E4F0CC
:10291000122976A3A3F0A3F00DEDC3950840D8EEDD
:10292000250AFEEF350BFF0C900348E0F8ECC39846
:1029300050288C0C750D007402780C121829900226
:10294000E9122969E82402500109FAE9FB8A828B1D
:1029500083EEF0A3EFF07D0080BFE5089002EBF07E
:10296000790080027913024630123D18F922A3A3A0
:1029700012341DEA4B22A312438FA3A3A32274F4A3
:102980001218AC7900EAA2E0501F7508D475098FBF
:102990007808121ABF79107C047D007A767B1712B2
:1029A00007D27402121852E9F980007F0402197EDE
:1029B000C082C0839002EC123448601C88828983F4
:1029C000A3A3E06A7003A3E06B8882898370E8A305
:1029D000A3A3A312341980047A007B000226A174F9
:1029E000F21218AC74FD12183CEAFEEBFF85188257
:1029F000851983E4F0A3F074021218887401F012B0
:102A00003445701412098E1213BA9002EF12305B23
:102A10001234457003022B7112315BEE2404F50A67
:102A2000E43FF50B850A82F583E024FE603C24FC3C
:102A3000607424FE607E24FE7003022AC124FE70AE
:102A400003022ACE24FE7003022ADB24FE70030256
:102A50002AE824FE7003022AF524FC7003022B16D8
:102A600024FE7003022B2E022B6A12098E9002F1B3
:102A7000EAF0A3EB122B7D120406E96003022B6A35
:102A80009002F1121AD68E828F83A3A3A3A3A3125E
:102A900043AD8508828509831234191207A2740296
:102AA000121852022B6AAC18AD19EEFAEFFB12079E
:102AB000F0022B39AC18AD19EEFAEFFB1207F680D5
:102AC00078AC18AD19EEFAEFFB1207FC806BAC186E
:102AD000AD19EEFAEFFB120802805EAC18AD19EEEC
:102AE000FAEFFB1208088051AC18AD19EEFAEFFBB3
:102AF00012080E80447402121892880C890D780C0A
:102B0000121ABF74021218A2EEFAEFFB1208147424
:102B1000021218528023AC18AD19EEFAEFFB12081E
:102B20001AE9F870167402121888E4F0803CAC18A8
:102B3000AD19EEFAEFFB120820E9F8E8602C8E825E
:102B40008F83A3E064146022850A82850B83E09062
:102B500002F1F08518828519831234199002F2125D
:102B6000305BE8A3122B7D120400EEFAEFFB120794
:102B7000787402121888E0F9740302462DF07CF193
:102B80007D0285088285098312341D2274E812189B
:102B9000AC74FA12183C7404121888ECF0A3EDF02F
:102BA0008A128B13EA2405F50EE43513F50FEA2497
:102BB00002F510E43513F511851082F583123419EE
:102BC0001204F68A0A8B0B7508007C037D007900DD
:102BD0007AF17B0212130CE50E2402F516E4350F90
:102BE000F5177402121892880C890D780C121ABF0E
:102BF000850E82850F83A3A3A3A3E0F50C750D00BA
:102C0000780C121ABFE50E2405F50CE4350FF50D0E
:102C1000780C121ABF851682851783123720120688
:102C2000DC74061218528A0C8B0DE50C450D7003EE
:102C3000022DAD8020851882851983E088828983E2
:102C4000F00508851882851983A3E0C0E0122DEEF7
:102C5000D0E0F00508E50A24FBFAE50B34FFFBC3DE
:102C6000E5089AE49B4003022DAD7E007F008512AB
:102C700082851383A3A3A3A3E0F5097809121AC3DD
:102C8000E4F514F5157814121ABF7514EE751502D3
:102C90007814121ABF9002EF121AD674091218880B
:102CA000121AD6E50A24F9F9AC0CAD0D851082850F
:102CB000118312341912084A7409121852E9600378
:102CC000022D4E850E82850F83A3A3A3A3A3A3A3E6
:102CD000E0F89002EEE0687075E0F5148E15781457
:102CE000121ABF1243AA850E82850F83A3A3A3A342
:102CF000A3A3A3A31234191213067402121852E9E3
:102D0000604C9002F2123448703BE4F514781412CF
:102D10001ABF7CFF7DFF79078510828511831234ED
:102D2000191207B4740212185212344E7017850E1D
:102D300082850F831245477404121888123E0812C8
:102D40003751022DE1850C82850D83122DE4A818E0
:102D5000A919881489157814121ABF7404121888D6
:102D6000121AD68516828517831230511206E8741E
:102D7000041218528A0C8B0DEE4F7003022C2A128B
:102D80002DEEEE122DF9123707EF122DF9F8A3E010
:102D90003400F9E50C450D6003022C3588828983E7
:102DA00074FFF00508122DEE74FFF00508E50860C9
:102DB0001A1313543F123061120412E96009900291
:102DC000F212341912137879008016850E82850F5D
:102DD000831245477404121888123E08123A70791B
:102DE0000A0236DAA3A3A3A3E0FEA3E0FF22A80809
:102DF0009002F2E02812370722F00508089002F24C
:102E0000E0282274E81218AC74FA12183C7402120A
:102E1000188812305B7404121888ECF0A3EDF0747B
:102E200002121888E024051236F0E0F50CA3E0F554
:102E30000D7402121888E02402F510A3E03400F5A6
:102E400011851082F5831234191204F67508007585
:102E50000900EA24FCFEEB34FFFF8008050CE50CBA
:102E60007002050DA808C3EE98EF940050030230DD
:102E70000DA818A919880E890F780E121ABF85148B
:102E800082851583A3A3A3A31243B1121ABFE5142D
:102E90002405F50EE43515F50F780E121ABF8514CA
:102EA0008285158312304F1206DC74061218528A7E
:102EB0000E8B0FEA450F700302300DEA2404F5165D
:102EC000E4350FF517851682F583E0F50CA3E0F5E0
:102ED0000D8518828519831243AD8A828B83A3A343
:102EE000A3E0F98510828511831234191206CAE90C
:102EF000F509600302300D7402121888123717F5B5
:102F0000097809121AC3E4F512F5137812121ABFE0
:102F10007512EE7513027812121ABF9002EF121A90
:102F2000D67407121888121AD6EEF9AC0EAD0F85BA
:102F3000108285118312341912084A74091218522A
:102F4000E9F509600302300DE508703FE4F50EF580
:102F50000F780E121ABF7CFF7DFF790985108285DC
:102F600011831234191207B4740212185212373D29
:102F7000700D740412188812304479110230419097
:102F800002EEE024029002F2F080149002F2E0FAE5
:102F90009002EEE0790024025001096A497072A89B
:102FA000089002EEE0FAE82AFAE43400FBEE9AEF29
:102FB0009B405A851682851783E0C0E09002F31289
:102FC0002DF3D0E0F00508851682851783A3E0C0B5
:102FD000E0089002F3122DF3D0E0F005089002EE25
:102FE0001243B1121ABF1243AAA8081236E41212F1
:102FF000F474021218529002EEE02508F50874FFEE
:10300000650C700474FF650D6003022E5CE50860BA
:103010001F9002F2E0F5F0E5088412306112041806
:10302000E960099002F312341912137879008011C3
:10303000E509700375090A7404121888123044A94E
:10304000090236DA12387FE50CF0A3E50DF022A371
:10305000A312463CAA0CAB0D22A3A3EAF0A3EBF00B
:10306000229002F1F07CF17D02851082851183129D
:10307000341D2274EC1218AC74FC12183C123B8004
:1030800074021218A21234131206E28A0C8B0DEA93
:10309000450D700302314B12315BA818A919881035
:1030A00089117810121ABF7CFF7DFF790B85088289
:1030B0008509831234191207B4740212185212329D
:1030C00051700C850A82850B8312374E0231588E5F
:1030D000828F83A3A3A3A3E0F5127812121AC3E48C
:1030E000F512F5137812121ABF7512F175130278E2
:1030F00012121ABF7810121ABF7409121888121A05
:10310000D67409121888E0F9AC0CAD0D85088285DB
:10311000098312341912084A7409121852E9FE7010
:10312000157CF17D02850882850983123419120409
:103130001EE97009802074166E70027E009002F203
:10314000123419121378EE7004800B7E01850A8206
:10315000850B83123A6DEEF9023A82EE2402F508ED
:10316000E43FF5092274EC1218AC74FC12183CEA26
:10317000FEEBFF8C0E8D0FEE2405F508E43FF509FC
:1031800074021218A2850882850983123419120666
:10319000E28A0C8B0DEA450D7003023241EE2402E7
:1031A000F50AE43FF50BA818A919881089117810C1
:1031B000121ABF7CFF7DFF790D1234131207B4740D
:1031C00002121852123251700B850882850983123F
:1031D000374E807A8E828F83A3A3A3A3E0F5127863
:1031E00012121AC3850882850983A3A3121AD67501
:1031F00012F17513027812121ABF7810121ABF74E6
:1032000009121888121AD67409121888E0F91234B3
:103210000F12084A7409121852E9FE700F7CF17DF2
:1032200002123413120424E97009802074166E709F
:10323000027E009002F2123419121378EE700480AC
:103240000B7E01850882850983123A6DEEF9023AF8
:1032500082123458F510A3E0F511EA45112274E802
:103260001218AC74FE12183C8A168B178C148D152C
:10327000EA2405F50CE43517F50DEA2402F50EE411
:103280003517F50F850E82F5831234191204F68A6C
:10329000088B09750B007C037D0079007AF17B02B5
:1032A00012130C750A00E50814F5100424FFF50844
:1032B000E50934FFF50980549002F1E0FA9002EE3E
:1032C000E0F8EA28F8E43400F9E50898E5099950AF
:1032D0000D9002F1E0F8E510C3989002EEF0E0F5F1
:1032E000127513007812121ABF1243AA9002F2E06C
:1032F0002AFAA3E03400FB1212F47402121852905E
:1033000002EEE0F89002F1E028F0050A850C8285D3
:103310000D83A3A3123D2440030233F49002F1E095
:10332000C39508E4950940030233F4AE0AEE2EFE7D
:10333000E433FF123433AC18AD191243C5E439FB42
:103340001206E28A128B13AC12AD13EC4D701B7592
:103350000B01123423123A719002F21229706003A9
:10336000121378A90B74020236DC85168285178346
:10337000A3A3A3A3E0F50B780B121AC3E4F512F58F
:10338000137812121ABF7512EE7513027812121A00
:10339000BF9002EF121AD67407121888121AD6A913
:1033A00010850E82850F8312341912084A7409128F
:1033B0001852E9F50B709B9002F212344860030238
:1033C00032B8E4F512F5137812121ABF7CFF7DFFB4
:1033D000790F850E82850F831234191207B4740297
:1033E00012185212344E60030232B81234231237CC
:1033F000520233657CF17D02850E82850F83123483
:103400001912042AE960030233587900023365ACCB
:103410000CAD0D850A82850B8312341D22E0FAA3C0
:10342000E0FB22123433E0FAA3E0F9EA8514828546
:10343000158322850C82850D83E02EF8A3E03FF9E9
:1034400088828983229002EF12454BE84922123488
:1034500058F8A3E0F9E849229002F2EAF0A3EBF071
:103460009002F2E02274E81218AC74FA12183C745C
:103470000412188812305B8C168D17740412188889
:10348000E02405F50EA3E03400F50F74041218884B
:10349000E024021236F01234191204F68A0A8B0B59
:1034A0007F007E00A818A919880889097808121ACF
:1034B000BF850E82850F83A3A3A3A3E0F5088E0921
:1034C0007808121ABFE50E2405F508E4350FF50952
:1034D0007808121ABF850E82850F83A3A3123720A6
:1034E0001206DC74061218528A0C8B0D80291237D2
:1034F00011F00F123711F00F9002EE123A5C121A0F
:10350000BF1243AAEFF81236E41212F47402121832
:10351000529002EEE02FFFE50C450D70030235A03E
:10352000851882851983123B92A3A3A3E0F9851421
:10353000828515831234191206CAE9FEE50C2404AB
:10354000F510E4350DF511EE705074041218881260
:103550003717F5087808121AC3E4F508F509780852
:10356000121ABF7508EE7509027808121ABF900288
:10357000EF121AD67407121888121AD6E50A24FA1E
:10358000F9AC0CAD0D85148285158312341912081F
:103590004A7409121852E9FE603912372D123A7036
:1035A000EF70030236C79002F2E0F5F0EF8490026C
:1035B000F1F07CF17D028514828515831234191295
:1035C0000430E960099002F312341912137879007B
:1035D0000236DA8F08EF703BE4F512F51378121219
:1035E0001ABF7CFF7DFF7911851482851583123403
:1035F000191207B4740212185212373D70091237AB
:103600002D1237510236DA9002EEE024049002F2D5
:10361000F080359002EEE0F89002F2E0FAE824043F
:10362000FCE43400FDEC6A4D60030235A6E50A2493
:10363000FAFAE50B34FFFBE50828F8E43400F9EA70
:1036400098EB9950030235A6851082851183E0C05E
:10365000E09002F3E02FF8A3E034008882F583D0F5
:10366000E0F00F851082851183A3E0C0E01236FEE2
:10367000D0E0F00F740212189288088909780812B5
:103680001ABF7402121888121AD6850E82850F830B
:1036900012304F1206E874041218528A0C8B0DEA8D
:1036A000450D70030234EE7402121888E0C0E01277
:1036B00036FED0E0F00F7402121888A3E0C0E012CA
:1036C00036FED0E00234F6EE70027E0A850E828568
:1036D0000F83123733123A70EEF974061218527FC4
:1036E0001002197E9002F3E028FAA3E03400FB22D6
:1036F000F514A3E03400F515851482F58322123702
:1037000002229002F3E02FFAA3E034008A82F583CC
:103710002212370274FF2212387FA3A3A3A3E02250
:1037200012463C850E82850F8312341D228510823D
:1037300085118312454B851682851783229002F3EB
:10374000EAF0A3EBF09002F312454BE84922123A5B
:1037500076E8F0A3E9F079112274EA1218AC74FE4D
:1037600012183C8A088B098C128D13EA2405FEE49A
:103770003509FFAC18AD198E828F831234191206E9
:10378000E28A0C8B0DEE2406F50EE43FF50FEA45B8
:103790000D7003023851E5082402F50AE43509F5F5
:1037A0000B8A828B83A3A3A3E0A2E550288518820D
:1037B00085198312341912083E8A108B11EA4511BB
:1037C0006020791212340F8510828511831218AA95
:1037D000E9F50C707F850E82850F83E060097952D0
:1037E0008011750C0E806D850882850983A3A3A3C3
:1037F000A3E0F9E4F508F5097808121ABF8E828F64
:1038000083A3A3E0F5087808121ABF8E828F83A3E2
:10381000A3A3121AD68E828F831243AD12341312D1
:1038200008507406121852E9F50C7011850E828545
:103830000F83E0702D123413120436802574166540
:103840000C7011750C00741812188812387BE48003
:1038500010750C01124543851282851383E8F0A38D
:10386000E9F0850E82850F83E0600479008002A96B
:103870000C74021218527F0E02197E12387F22E059
:10388000F8A3E0F58388822274EC1218AC74F71266
:10389000183C8A0A8B0B8C108D11EA2405FEE43546
:1038A0000BFF750C00AC18AD198E828F8312341982
:1038B0001206E28A088B09EA45097003023A47E5D5
:1038C0000A2402F50A5002050B8A828B83A3A3A364
:1038D000E0A2E5502F851882851983123419120849
:1038E0003E8A0C8B0DEA450D604F7912AC08AD098C
:1038F000123413850C82850D831218AAE9F50C6029
:1039000003023A4A850A82850B83E0F508A3E0F5B5
:1039100009AA08FB120832EA4B70197AFF7BFF12E2
:103920000832EA4B7003023A3D8A828B83E508F045
:10393000A3E509F07508008008750C0E023A4A05E7
:10394000089002EBE0F8E508C3984003023A3D8591
:10395000080E750F007403780E1218298A828B8363
:10396000A3A3E0250EF8A3E0350F123E1170D08E10
:10397000828F83123A6512305B8E828F83A3A312EB
:103980003A65123059EE2404F508E43FF50985083C
:1039900082F583E088828983A3A3A3A3F0A3E4F044
:1039A000EE2405F50EE43FF50F850E82F583123AFD
:1039B00065A3A3A3A31230597512077513007812DB
:1039C000121ABFEEFCEFFD740412189A1212F4746E
:1039D00002121852E4F5127812121ABF8508828575
:1039E0000983E0FC7D0079171234131207B47402C6
:1039F000121852740712188812305B740712188854
:103A0000E0FA4B603D850882850983123A5C121A00
:103A1000BF850E82850F831243AD1212F474021219
:103A2000185274021218A212341312043CE96026D0
:103A300074071218881234191213788019750C093A
:103A40008008750C118003750C01124543851082A6
:103A5000851183123A70A90C74098028E0F5087565
:103A6000090078082212341D8882898322123A764E
:103A7000E8F0A3E9F022E0F8A3E0F9850E82850FD3
:103A8000832274041218527F0C02197E74EC1218EF
:103A9000AC123B80751000EE2402F50CE43FF50DEE
:103AA000850C82F5831234191208328A088B09EAD0
:103AB00045097003023B64850A82850B83E064013B
:103AC0006003023B59AC08AD09AA0AAB0B120826E9
:103AD000E9606E850882850983122DE6EE2406F5DD
:103AE0000AE43FF50B8E828F83A3A3121AD68E822F
:103AF0008F83A3A3A3A3121AD6850A82850B8312F0
:103B00001AD679188E828F83123B921234191208BA
:103B1000507406121852E9F8741668700B850A8200
:103B2000850B83E4F0A38014E860128E828F8312E9
:103B30003419850E82850F83EAF0A3EBF08810809C
:103B400018780E121ABFAC08AD09EEFAEFFB120896
:103B50002C7402121852E9F510AA08AB09120838A1
:103B6000E510700E850C82850D8312341912044203
:103B70008009741665107003751000A910023A8749
:103B8000EAFEEBFF8C0E8D0FEE2405F50AE43FF5FF
:103B90000B2212463C850C82850D832274EA121892
:103BA000AC7508007509007E007F00750A00EC24E2
:103BB00002F510E43DF5118035EC65087003ED6504
:103BC000096003023C5188828983A3A3E06A7003E1
:103BD000A3E06B707C88828983A3A3A3A3124547CB
:103BE000EE28FEEF39FFEA28FAEB39FB050A123D11
:103BF00021503A850A0C750D007403780C121829AF
:103C0000851082851183123D14123E11601FE50854
:103C1000450970A58C088D0988828983122DE48856
:103C2000828983A3A3E02EFAA3E03F80BEE50AC306
:103C300094025003023D0F750800750900EE4F60B5
:103C400010EEFAEFFB1213728A0E8B0FEA450F701B
:103C5000057900023D11750B00023CE4850B0C75E3
:103C60000D007403780C121829851082851183E0E9
:103C7000250CF50CA3E0350DF50DE50C2406F51427
:103C8000E4350DF515851482F583123E166042E584
:103C90000C2404F512E4350DF513851282F5831218
:103CA0001AD6E50E2508FAE50F3509FB1212F47451
:103CB00002121852851282851383E02508F508A3A5
:103CC000E03509F50985148285158312341912131C
:103CD00078E50B600D7C087D007900AA0CAB0D1215
:103CE000130C050BE50BC3950A5003023C5C8510D1
:103CF0008285118312454788828983A3A3A3A3A346
:103D0000A3E50EF0A3E50F122977EEF0A3EFF0790B
:103D100001023876123D1822E0250CF8A3E0350D9B
:103D2000229002EBE0F8E50AC3982274F01218AC76
:103D30008A0E8B0F8C0A8D0B750D00750C00805050
:103D40007916EE2406F508E43FF5098E828F83A3E9
:103D5000A3121AD68E828F83A3A3A3A3121AD68589
:103D60000882850983121AD6850E82850F83A3A344
:103D70001234191208507406121852E9F50D74160F
:103D8000650D706C850882850983E4F0A3F0050C4D
:103D90009002EBE0F8E50CC3985066AA0C8A08750F
:103DA000090074037808121829850A82850B83A3F9
:103DB000A3123E60E8FEE9FF8E828F83123E1660FA
:103DC00040EA2401F508E43400F5099002EBE065CF
:103DD000087002E509601488828983A3A3A3A3A3C2
:103DE000A3A3A31234486003023D407918023D4268
:103DF000E9609B1245437410121888123E08123A6B
:103E000070A90D7F0802197EE0FAA3E0F5838A828B
:103E100022F98882898312463CEC4D2274F61218EE
:103E2000AC7C0080010C900348E0F8ECC398501E75
:103E30008C0875090074027808121829123E55E0A2
:103E40006A7003A3E06B70DDE8FAE9FB80047A0096
:103E50007B00023EF89002E9123E6088828983224C
:103E6000E02508F8A3E03509F92274F21218AC8AAB
:103E7000088B09750A0080278E828F83A3A3A3A3D2
:103E800012296E60031213787C087D007900EEFA27
:103E9000EFFB12130C8E828F83E4F0A3F0050A125D
:103EA0003D215027850A0C750D007403780C1218FB
:103EB00029850882850983A3A3E0250CFEA3E035AC
:103EC0000DFF8E828F8312344870AD85088285097C
:103ED0008374FFF0A3F002463074F61218AC120798
:103EE000E48A828B83E582458370067A007B0080BA
:103EF00007A3A3A3A31234197F0202197E74F4123C
:103F000018AC89088C828D83E06402703C1244E610
:103F1000FEA3E0F9EEF87402687003742969702951
:103F2000750A02750B00780A121ABF7410121888ED
:103F3000121AD67410121888121AD6A908121186ED
:103F40007406121852E9F9800279010229AB74E86B
:103F50001218AC74FB12183CE9851882851983F09D
:103F60008A168B17ECFEEDFF7510008E828F83A3EF
:103F7000A3A3E0A2E4502D741D1218881234191264
:103F8000083E8A828B83E5824583700302438579EC
:103F90000AEEFCEFFDAA16AB171218AAE9F510609D
:103FA00003024388741F121888E0F508A3E0F5099E
:103FB0007421121888E0F50AA3E0F50B7423121897
:103FC00088E0F50EA3E0F50F8E828F83E064026037
:103FD00003024326A3124547850882850983A385EA
:103FE0008212858313EE2406F50CE43FF50D8882DA
:103FF00089831243C5F514E439F5157814121B4969
:10400000010000280128284007000228ED4003286D
:104010005B4000291C42012947420229E84103294B
:104020001C420429C0422643E50E450F60030243AB
:1040300021850C82850D83124547E8FAE9FB8A82C7
:104040008B83E0850A82850B831243D0121ABF8AC4
:10405000828B83A3E0FCA3E00242AAE50E450F6039
:1040600003024321850A82850B837401F01243BA4F
:10407000850882850983F07C007D008E828F83A372
:10408000A3A3A3E02401FAA3E03400FB1206E2EAB2
:104090004B60408A828B83E02402F8850A82850B7C
:1040A00083E028F0EA2404F8E43BF988828983E07D
:1040B0008512828513831243DE1243D0121ABF8AFF
:1040C000828B83A31243ADE5082403FAE43509FB90
:1040D0000242AF850A82850B83E02404F07C047DD4
:1040E000007900AA12AB1312130C024388E50E45A7
:1040F0000F60030243211243BAFEA3E0FF850A8248
:10410000850B837404F0EE850882850983F0EF85C2
:104110001282851383F074031218A2EEFAEFFB12D9
:1041200006E28A0C8B0DEA450D70030241CB8A82B0
:104130008B83A3A3122DE47401121892880E890FA9
:10414000780E121ABF7405121888121AD67CFF7DD9
:10415000FF1206E874041218528B0FEA450F7033F1
:10416000850C82850D831243B1121ABF850C82859E
:104170000D83A3121AD67C027D007A687B9012040C
:10418000E47404121852E9700A740112188874FF5A
:10419000F0A3F08E828F83E064027039750C027593
:1041A0000D00780C121ABF8E828F83A31243ADE5E7
:1041B000082404FAE43509FB1212F47402121852AE
:1041C000850A82850B83E024028009740112188815
:1041D000EEF0A3EFF0740112188812439F740112DD
:1041E000188812439602431BE50E450F60030243F5
:1041F00021850C82850D83124635AA16AB17121144
:104200008C850A82850B837402F085088285098378
:10421000EAF0851282851383EB02431EE50E450FFB
:1042200060030243211243BAF8A3E0F9850A8285AC
:104230000B837402F0E8850882850983F0E9851212
:104240008285138302431E850C82850D83123419E7
:104250001212EEEAFAF8C3950EE4950F405CE86599
:104260000E450F70047A008021851882851983E03D
:10427000FCE50E2CFCE4350FFDC3EC98ED940050EA
:1042800003E08005E50ECAC39AFAEA850A82850B27
:1042900083F08A0A750B00780A121ABF850C828592
:1042A0000D83E0250EFCA3E0350FFDAA08AB091233
:1042B00012F47402121852024388751007024388E0
:1042C000E50E450F705B850C82850D831245478591
:1042D0000A82850B837407F08882898312439712C0
:1042E000438FE0851282851383F0E82402FAE439D3
:1042F000FB8A828B8312439F8A828B83124396A30D
:10430000A31229761243A4F0E82405F85001098885
:104310008289831243A4A31243DEA3A3A3A3F08044
:104320006775100B8062741D1218881234191207F9
:10433000E48A828B83E5824583604A124547880C74
:10434000890DE8450D603E7425121888E0F5107857
:1043500010121AC3780E121ABF780A121ABF780800
:10436000121ABF7407121888E0F9EEFCEFFDAA16C6
:10437000AB17850C82850D831218AA740712185288
:10438000E9F510800375100EA91074050236DCF0F3
:1043900088828983A322A3E085088285098322126B
:1043A00043E5F0221243E5A3A3229002EF12463C1C
:1043B00022E0F50E750F00780E22850C82850D83A4
:1043C00012387FE022E0FAA3E0F8E4C8F9EA2822F4
:1043D000F08A828B83E0F50A750B00780A2212437B
:1043E0008F1243E522E0850882850983A3A3227406
:1043F000EE1218AC74FE12183C8A088B09ECFEED24
:10440000FF890AAC18AD19EEFAEFFB1206E28A0C2E
:104410008B0DEA450D70030244D7851882851983F8
:104420001234191207E48A828B83E5824583700374
:104430000244D2A3A3124547880E890FE8450F70A6
:10444000030244D27414121888E0F510A3E0F511A9
:10445000E50AF50B780B121AC37419121888121A90
:10446000D67810121ABF741B121888E0F9AC0CAD84
:104470000DAA08AB09850E82850F831218AA740550
:10448000121852E9F50B705274FE650A604C850CE7
:1044900082850D83E0640270411244E6FAA3E0F9DC
:1044A000EAF87402687003742969702E8510828599
:1044B00011831243C5F50CE439F50D780C121ABFBF
:1044C000EEFCEFFDAA08AB0912086874021218523C
:1044D0008008750B0E8003750B01A90B740212186E
:1044E000527F0A02197EA312454B88828983E022FB
:1044F00074F61218AC74FE12183C740C1218881260
:104500004547E8851882851983F07401121888E9F7
:10451000F0E4F508F5097808121ABF750802780862
:10452000121ABF7404121892880889097808121A9E
:10453000BF79FE12085074061218527402121852F3
:10454000023EF88E828F8312454B22E0F8A3E0F9F9
:104550002274F71218ACEAFEEBFF890890030612EA
:1045600043AD12118CEA5402600BA908EEFAEFFB7E
:104570001206D6800279017F0102197E74F21218A8
:10458000AC74FE12183CEAFEEBFF890A7401650A5E
:1045900060147402650A600302462B7901120A72E4
:1045A000E9600302462BEEFAEFFB120832EA4B6099
:1045B00003120838A818A919880889097808121A56
:1045C000BF7508027509007808121ABF750878755A
:1045D00009907808121ABF7CFF7DFF7A017B0012D8
:1045E00006DC74061218528038850882850983A378
:1045F000A3A3A3A3A3124635EEFAEFFB121174E4B2
:10460000F50CF50D780C121ABF7402121888121AE4
:10461000D67CFF7DFFAA08AB091206E874041218C5
:10462000528A088B09E508450970BE7402121852B7
:104630007F0602197E12387F12463C22E0FCA3E07E
:10464000FD2274F41218AC8A088B09ECFEEDFF9081
:104650001774E0F4604B7A097B00121318EA4B6080
:10466000408A828B8374B1F0A3E41246A4F08A825C
:104670008B83A3A3E508F0A3E5091246A4A3EEF0FB
:10468000A3EFF0740C1218881245478A828B83A31B
:10469000A3A3A3A3A3A3123A70901774E0F9121373
:1046A000240229ABF08A828B83A3A3A3A32274F0F4
:1046B0001218AC74FA12183C8909ECFEEDFF75086B
:1046C000008A0A8B0B780A121B03000410D448F1ED
:1046D000460F47294741475F4777479A47B247C642
:1046E00047F0476B487C489348AE48D448D44806C6
:1046F000487401650960030248CF8E828F83E0F819
:10470000C3940340030248CFE89018600248AB749A
:1047100002650960030248CF8E828F831250329067
:104720001861E8F0A3E90248AB740165096003026F
:1047300048CF1248FC40030248CFE890072C0248BB
:10474000AB7401650960030248CF8E828F83E0F865
:10475000C3940540030248CFE890072D0248AB748C
:1047600001650960030248CF1248FC40030248CFAC
:10477000E890072E0248AB7410650960030248CF29
:10478000750A10750B00780A121ABF7A2F7B071270
:1047900012F474021218520248F57401650960039C
:1047A0000248CF1248FC40030248CFE890073F027E
:1047B00048AB7401650960030248CF8E828F83E0A5
:1047C0009018640248AB7404650960030248CF8EF8
:1047D000828F83780C121700909036780C12153364
:1047E00050030248CF900741780C12170F0248F58A
:1047F000E960030248CF12067CE970051211388087
:10480000559007D480617407650960030248CF752D
:104810000A06750B00780A121ABF8E828F83A3AC2A
:1048200082AD83740212189A1212FA74021218528C
:104830007C007D00AA18AB198E828F83E0F91210DC
:10484000E4E9FEC3940A40030248F212067CE970D0
:104850000CEEF912113E7950121432806D74D52E7F
:10486000F582E43407F583740180407401650970B2
:104870005E1248FC5059E8900740802F740165098A
:10488000704D8E828F83E0F8C3940A5042E89018EE
:104890006380187401650970368E828F83E0F87426
:1048A000F928C3940A5028E8901865F080477401ED
:1048B0006509701B9007D3E0F88E828F83E0900724
:1048C000D3F0E87030E06401702B12112C80267553
:1048D00008188021C3EA9427EB94005015740265F0
:1048E00009700F8E828F83125B121204FCE9F508A7
:1048F0008003750802A9087406024C208E828F83FB
:10490000E0F8C3940222A90880031218527F04021F
:10491000197E74F01218AC74B112183C8C0A8D0B0D
:10492000908FE074201218A2740612174F74201290
:1049300018A21210E4E9FF745F121888E0F509EF7D
:10494000C3940A4003024A9475F006EFA4F5087474
:10495000411218A27A0E74202508F912142CE9705D
:1049600009744D121888E0FE80027E00901860E005
:1049700064027005750E018003750E0074086509E8
:1049800070047422800274212508F50D7C1B7D00C3
:104990007900742612189A12130C74261218A27A2F
:1049A0001BA90D12142CE9702D7440121888E024F4
:1049B000F9C3940A5020E50EF50D780D121AC37450
:1049C000271218A2EEA2E0E433F9AA0AAB0B1205F3
:1049D0009E74011218527C147D007900740C121818
:1049E0009A12130C740C1218A27A1074242508F968
:1049F00012142CE970347C1079FF740C12189A127E
:104A0000136CE97025741C121888AC82AD837A048B
:104A100074252508F912142C740C1218A2EEA2E0C9
:104A2000E433F9AA0AAB0B120586AC18AD197A0C5F
:104A300074702FF912142CE97049AA18AB191211CD
:104A4000147F00EF75F003A4F8A9F085188285198A
:104A500083E58228F8E5831251E91253CA601D8864
:104A6000828983A3A3E0F50E750F00780E121ABF9A
:104A7000AA0AAB0B12085674021218520FEFC39415
:104A80000440C0EEA2E1500C90072BE0F9AA0AAB5B
:104A90000B12085C740465097028901860E06402C9
:104AA00070207A0090073FE060027A0190072CE0C6
:104AB0006004780480027800E84AF9AA0AAB0B1275
:104AC00006527900744F024C2074F71218AC12068B
:104AD0007CE9704F9007D4E0640170151211389092
:104AE00007D4E4F07C0AFDF97AD57B0712130C8019
:104AF0002A750800A80874D528FEE43407FF8E82C2
:104B00008F83E06401700BA90812113E8E828F839F
:104B1000E4F00508E508C3940A40D979501214322C
:104B200012112C02550174F01218AC74F012183CDA
:104B3000EAFEEBFF8C088D09750A0AE9600C146027
:104B40000914603B14607D024C1C121126E9F50A21
:104B5000C3940A4003024C1CE50845097003024C4B
:104B60001C750C06750D00780C121ABFEEFCEFFDDB
:104B7000AA08AB091212F47402121852024C1C75E6
:104B80000C00750E06750F00780E121ABFEEFCEFC2
:104B9000FDE50C75F00EA4F8A9F0744D28FA740721
:104BA00039FB1213067402121852E9700B050CE55A
:104BB0000CC3940A506680CA850C0AE50AC3940A9D
:104BC000505A8049750C00AC18AD197A1075F00672
:104BD000E50CA42423F912142CE9701C7C1079FF35
:104BE000AA18AB1912136CE9700EEEFCEFFDAA18AF
:104BF000AB19120562E9600B050CE50CC3940A5071
:104C00001B80C4850C0AE50AC3940A500FE50845C9
:104C1000096009AA08AB09A90A121120A90A74108F
:104C20001218527F0802197E74F41218AC890975A3
:104C3000081574FF6A700374FF6B70277E00AC095F
:104C40007A027B00EEF9121102E960037508000E8A
:104C5000EEC3940A40E8E50960537A507B11120ACA
:104C600096804A120A668A0A8B0BAE0AAF0BEE4F89
:104C700060387C007D00EE2405FAE43FFB8E828FD5
:104C800083A3A3A3A3E0F91210E4E9F9C3940A50A3
:104C90000CAC097A027B00121102750800E509606C
:104CA0000CEEFAEFFB12115080037508140249064E
:104CB00074F21218ACECFEEDFF750815740E1218A4
:104CC00088E0F50AA3E0F50B74FF6A700374FF6BCC
:104CD0007021750900AC0AAD0BEEFAEFFBA90912C1
:104CE0001108E960037508000509E509C3940A5035
:104CF0003F80E2120A668A828B83E5824583602DBB
:104D00007C007D00E5822405FAE43583FBA3A3A3A0
:104D1000A3E0F91210E4E9F9C3940A5013AC0AAD08
:104D20000BEEFAEFFB1211087508008003750814EA
:104D3000A9087F0602197EC082C083900745EAF069
:104D4000A3EBF090072BE0FC7D007A267B00120499
:104D5000FC90072BE0F91207C002581B74EE1218E2
:104D6000AC74EC12183C8A088B09EA240CF510E4A8
:104D70003509F5118A828B83A385820C85830DEA20
:104D80002405F50EE43509F50FEA2409F50AE435A2
:104D900009F50BEA2403FEE43509FF8A828B83A31D
:104DA000A3E024FA700302502024FD7003024F4058
:104DB000147003024E3A14601024FD7003024F2356
:104DC000147003024F78025026125B186044E0F51D
:104DD000838882125032880C890DE8450D60338536
:104DE0001082851183E0F50E780E121AC3EA240BA7
:104DF000F582E43509F583E0F9125B0C0A0A0AEF43
:104E0000FB850C82850D831218AA740112185202B8
:104E10005026850A82850B83121AD69007411217F5
:104E20001E1205987402121852E970030250267976
:104E300001850A82850B83024FF0750A00850C827A
:104E4000850D83E06003024EF0850E82850F83E0BE
:104E5000A2E04003024EF09007DF125B1B600302EA
:104E60004EF07C0E7D007900AA18AB1912130C8548
:104E700010828511831257E6EA4B6010750A067599
:104E80000B00780A121ABFEA2410801B1257E21294
:104E90000A66EA4B7003025026750A06750B007805
:104EA0000A121ABFEA2405FCE43BFD740212189AA8
:104EB0001212F47402121852850E82850F83E0A23A
:104EC000E25004D2F08002C2F0A2F0E433F8740C95
:104ED00012188812599A12111AE970117A027B007D
:104EE00090072BE0F91213487900025028750A1533
:104EF000125B1870030250261250477003025026AE
:104F0000850C82850D83E0FC79011250381218AAB5
:104F1000E50A7003025026FC79031257E212579DEE
:104F200002501B125B187003025026125047700388
:104F3000025026850C82850D83E0FC790202501810
:104F40007C007D00EA2404FAE43509FB8E828F831D
:104F5000E0F91210E4E9F8C3940A4003025026E590
:104F600008240AFCE43509FD7A0475F006E8A42457
:104F700025F91214260250261257E2900740E060ED
:104F800007901863E0F9806B901860E07004790571
:104F90008061120A668A0C8B0DA80CA90DE8497075
:104FA00003025026E82404F50CE439F50D85088247
:104FB000850983A3A3A3A3A3A3A3E0A2E0503985FB
:104FC0000C82850D83E0F508602E850A82850B83AF
:104FD000A3E054027022740E1218A2E82405FAE429
:104FE00039FBA9081210E4E9700E79038E828F83D1
:104FF0001257E6120592802EAC0EAD0F850C8285FD
:105000000D83E0F91257E212115C125B186017125F
:10501000504760127C0079001250381218AA80069E
:105020001257E21210DE790174141218527F0A022C
:10503000197EE0F8A3E0F9228E828F83E0FAA3E0E4
:10504000FB8882850983221257ABF98909E8450953
:105050002274F51218AC74F212183CEAFE8C0A7530
:10506000F006E9A42420F508AC18AD197A0EF9125F
:10507000142CE970467C0679FFAA18AB1912136C40
:10508000E97038740C1218881257E6EAF8E50A60DD
:1050900005EEC8488004EEF4C858F8EA687001EBE1
:1050A0006015740C121888E8F0A3E4F0AC18AD1980
:1050B0007A0EA908121426790180027900740E1262
:1050C00018527F0302197E74F21218AC74E612189B
:1050D0003C890A8A088B09ECFEEDFF740C1218A2B9
:1050E0007A0E75F006E9A42420F912142CE9600365
:1050F0000251AC7C0679FF740C12189A12136CE9F9
:1051000060030251AC7470250AF50BAC18AD197A26
:105110000CF912142CE960030251A8AA18AB191259
:105120001114E5084509701D7C0C7900AA18AB190B
:1051300012136CE970727C0C7D007900AA18AB190F
:1051400012130C8051AC18AD19AA08AB0912110E3C
:105150008A0C8B0DA80CA90DE8497022EE4F604C0B
:10516000AC18AD197A007B0012110EEAF8EBF9EADF
:105170004B603988828983E508F0A3E509F0125273
:1051800025FAEE6A7001EF601FEEF04F700888821A
:105190008983E4F0A3F0AA18AB19121114AC18AD6E
:1051A000197A0CA90B121426790180027900741A5D
:1051B000121852024D3274F71218AC7E00EE75F0E0
:1051C00003A4F8A9F0EC28F8ED1251E9E06A7003A5
:1051D000A3E06B7006E8FAE9FB800B0EEEC39404C3
:1051E00040DB7A007B0002550139F98882898322ED
:1051F00074F71218AC7C00EC75F003A4F8A9F0EA7F
:1052000028F8EB1251E9E0F4FEA3E0F4FF8882896C
:1052100083EEF0A3EFF0125225F4F00CECC39404EB
:1052200040D5025501E82402F582E439F583E022F5
:1052300074F41218AC74F412183CEAFEEBFF8C08FC
:105240008D099007DF125B1B704FEE4F7003025306
:10525000A9EC450970030253A9121126E9901866BA
:10526000F0C3940A4033750B007C0679FFE50B759B
:10527000F00EA4FAABF074472AFA74073BFB121342
:105280006CE9600302530A050BE50BC3940A40D98D
:10529000750A0AE50A901866F0901866E0C3940A49
:1052A00040030253A975F006E0A4FB9007DF125BF0
:1052B0001B705CEEFCEFFD7A0E74202BF9121426A5
:1052C0007C0C7D0079FFAA18AB1912130CAC18AD39
:1052D000197A0C901866E02470F9121426750A0EDB
:1052E000750B00780A121ABFEEFCEFFD901866E00D
:1052F0001254621212F474021218529007DFE50879
:10530000F0A3E509F079000253AB850B0A8084E035
:10531000C824061253C460197A1B74212BF9121485
:10532000261253B02406F582E438F583E4F0A38016
:10533000D31253B0240A1253C460107A1B74222B68
:10534000F91214261253B0240A80DB1253B0240C35
:105350001253C460107A1074232BF91214261253BE
:10536000B0240C80C11253B91253C460307A107447
:10537000242BF91214261253B9F582E438F583E090
:105380002410FCA3E03400FD7A0475F00690186642
:10539000E0A42425F91214261253B980899007D36A
:1053A000E060031211621211567901740C02490A6D
:1053B0009007DFE0F8A3E0C8229007DFE0F8A3E061
:1053C000C8240822F582E438F583125B12EC4D22E2
:1053D00074F41218AC74F212183CEAFEEBFFE9C345
:1053E000940A5004EE4F700479028034AC18AD1961
:1053F0007A0E75F006E9A42420F912142CE9F508B8
:10540000701C750A06750B00780A121ABF74021216
:1054100018A2EEFAEFFB1212F47402121852A90845
:10542000740E02490A74F41218ACEAFEEBFF750818
:1054300000750A06750B00780A121ABFEEFCEFFD24
:10544000E5081254621213067402121852E960043D
:10545000A908800B0508E508C3940A40D4790A021C
:10546000490D75F00EA4F8A9F0744728FA740739AD
:10547000FB2274F71218AC750800E50875F00EA44D
:10548000F8A9F0744728FE740739FFEEFCEFFD7AA7
:105490000E75F006E508A42420F912142CE9602901
:1054A0007C067D0079FFEEFAEFFB12130C7C067D83
:1054B0000079FFEE2CFAE43FFB12130CEE240CF5FE
:1054C00082E43FF583E4F0A3F00508E508C3940AFD
:1054D00040A89007D3E06003121162121156802198
:1054E00074F71218AC7E007F007C06EF12546279CC
:1054F000FF12136CE970010E0FEFC3940A40EAEE3D
:10550000F97F0102197E74F71218AC7E00EEF912D1
:10551000113EE9F90EEEC3940A5003E960EF80E111
:1055200074F31218AC74CB12183C8908901866E01A
:105530006508701B7A017B0090072BE0F912134E6F
:105540007A027B0090072BE0F912134E12116E7550
:10555000F006E508A4FF74202FFE74271218A27A23
:105560000EEEF912142CE960030256287C0679FF2E
:10557000742712189A12136CE960030256287C0EE5
:105580007D0079FF742712189A12130C7C1B7D0082
:1055900079FF740C12189A12130C7C0C7D0079FFA1
:1055A000AA18AB1912130C74271218A27A0EEEF96E
:1055B000121426E9FE740C1218A27A1B74212FF91A
:1055C000121426E9F509740C1218A27A1B74222F02
:1055D000F9121426E9F50A740C1218A27A10742331
:1055E0002FF9121426E9F50B740C1218A27A107414
:1055F000242FF9121426E9F50C740C1218A27A045F
:1056000074252FF9121426E9FFAC18AD197A0C7421
:10561000702508F9121426E9F8E509450A450B45F5
:105620000C4F48CE4EFE80027E00EEF97435121803
:10563000527F0502197E74F71218ACE990072BF01F
:1056400012112C02550174F21218ACEAFEEBFF5451
:1056500080700302570590072BE0F91213308A0877
:105660008B09EA450970030256FE7A01E508240514
:10567000F50AE43509F50BE5082404F8E43509F9E1
:10568000880C890D8508828B83E024506036146075
:105690000624E16058805D88828983E0705985081E
:1056A000828B83A3A3A3A3A3A3A3121AD6125B0C7A
:1056B0008508828B83A3A31257E61210F07402129E
:1056C0001852803388828983E0641E700F790085C8
:1056D00008828B83A3A31257E61210EA850C8285F9
:1056E0000D83E0F9AA0AAB0B1207BA800AAA0812C6
:1056F00010FCE9FAEA6007AA08AB0912131EEEFAD9
:10570000EF6480802AEE54026028EE6402FE7C0082
:105710007D007A007B0012111AE960047A01800290
:105720007A027B0090072BE0F9121348EEFAEFFBA8
:105730008068EEA2E050556401F508EFF5091257B4
:10574000BB121168E96033125B1860291257B3125B
:105750005032E8FEE9FFEE4F601B7C0079011257E2
:10576000BB8E828F831218AA7C0079031257BB125A
:10577000579D1218AA12116E800C7A017B009007B7
:105780002BE0F9121348AA08AB09800E54046006F6
:10579000EE6404FA80047A007B00024D32900745E3
:1057A000E0F8A31257ABF5838882221257B3E0F8D2
:1057B000A3E022E0F5838882A3A3229007DF125A98
:1057C000FCE0FAA3E0FB227F0202197EC082C083C4
:1057D00090072BE0F98A828B83A31257E612085CAC
:1057E00080398E828F83E0FAA3E0FB22C082C083DF
:1057F00074FF12183C121132E9C394028518828595
:105800001983400474028002740AF0AC18AD197A4E
:1058100001790512069A7401121852D083D08202BF
:10582000011F74F01218AC74E812183CEAFEEBFF8A
:10583000890A8C088D097C187D007900AA18AB199B
:1058400012130C851882851983EEF0A3EFF09007F0
:105850002DE0C0E07402121888D0E0F090072EE02E
:10586000C0E07403121888D0E0F0901865E0C0E042
:105870007417121888D0E0F0901864E0A2E0E433C6
:10588000FCE0A2E15004D2F08002C2F0A2F0E433C6
:10589000F8E0A2E45004D2F08002C2F0A2F0E433B7
:1058A000FAE0A2E55004D2F08002C2F0A2F0E433A4
:1058B000F50E750F00E0A2E65004D2F08002C2F0AF
:1058C000A2F0E433F50C750D00E0A2E25004D2F032
:1058D0008002C2F07415121888E054FEFEA3E0FFA7
:1058E000EE4CFCEFFDEC54FDFCE828F8EC48F8ED3C
:1058F00054FEF9EAFBE94BF9E8FAE954FDFB7409B7
:10590000780E121829EB450F54FBFB740A780C1221
:105910001829EAF8EB450DF9E854FBFAA2F0E43354
:10592000F50C750D007402780C121829EA450CF874
:105930007415121888E8F0A3E9F090072EE0601DB6
:10594000750C10780C121ABF7C2F7D077406121884
:1059500088AA82AB831212F4740212185290073F85
:10596000E06011E50A60097415121888E04402F03D
:105970007801800278007414121888E048F09007CB
:105980002CE06004780480027800741412188812E5
:10599000599A12058C7418024C20E048F0AC08ADFE
:1059A00009AA18AB192274F71218AC1208B07508BE
:1059B00000E50875F00EA4F8A9F0744728FE7407F6
:1059C00039FF7C0679FFEEFAEFFB12136CE97009E0
:1059D000EEFAEFFB79001208B60508E508C3940A51
:1059E00040CF02550174F61218AC74FD12183CEA4F
:1059F000FEEBFF9007E1125B1B70397508E3750938
:105A0000077808121ABF7508027509007808121A7B
:105A1000BF7508787509907808121ABF7CFF7DFF62
:105A20007A017B001206DC74061218529007E1EA34
:105A3000F0A3EBF09007E1125B1B7003025AEE75C6
:105A400008FF7808121AC3E4F508F5097808121A55
:105A5000BF7405121892880889097808121ABF7451
:105A600005121892880889097808121ABF9007E36E
:105A7000121AD679029007E1125B0412084A7409DF
:105A8000121852E97036851882851983E0FA74017C
:105A9000121888E0F8E4C8F9EA28F508E439F509AD
:105AA000EA450960177808121ABF9007E1125AFCFC
:105AB000A3125B041210F07402121852E4F508F5F8
:105AC000097808121ABF9007E3121AD67CFF7DFFEF
:105AD0009007E11257E61206E87404121852900774
:105AE000E1EAF0A3EBF09007E1125B1B700479018F
:105AF0008002790074031218520257C7E0F8A3120B
:105B000057B3A322125B12EEFAEFFB22850A8285BD
:105B10000B83E0FCA3E0FD22900745E0F8A3E0F949
:105B2000E84922C082C0839007DF125B1B6010909F
