:020000040000FA
:06000000020107022AB50F
:03002B00022F029F
:03003B00022F2869
:03004300022EADDD
:03005300022B2B52
:03006B00022ED38F
:1000830002290BE5C754F84401F5C77901220000A2
:100093000080FB120086B900030200F1E4792178A5
:1000A30008B800028004F709D8FCE479297802B87B
:1000B30000028004F709D8FCE490028178BB79152B
:1000C3008002F0A3D8FCD9FA7A3B7B1790013778EA
:1000D3008779048015E493A3AD82AE838A828B83F0
:1000E300F0A3AA82AB838D828E83D8E9D9E7758288
:1000F300EF7583DE740312011975829175830074A1
:100103000012011975D00075813F751881751902A8
:10011300759F00020096C09FF59FE473D09F22D085
:1001230083D082C09FE493C0E0740193C0E0740263
:1001330093F59F22FF0000B4000028002800283018
:1001430075A000A000A000A00000080008E001F0D6
:10015300001000100010001000100010005000509C
:1001630000500010001000D0070000000000000F36
:100173000001000500307507001000010081FF0039
:10018300000000FFFFFFDF06FD06E5062107FF0273
:10019300020208025000A0000000E8030287910158
:1001A30000005F9102A6900100009617027B910167
:1001B3000000BF0202A69001000097170279910187
:1001C3000000D50202A69001000098170277910162
:1001D3000000D70202A6900100009917027591084A
:1001E3000000D80202A6900100009A170273910141
:1001F30000009B17FF0100FF2002879101000062AE
:100203009102A690010000FF170271910000000007
:1002130000027D9103000006031700CF0DCF0DCF21
:100223000DCF0DCF0DCF0DCF0DCF0DCF0DCF0DCFEB
:100233000DCF0DCF0DAB10BD10A5100202020202AF
:1002430002020202010D0000001001028791010069
:10025300005C9102A690010000421802699101001E
:1002630000230702A6900100004318026B910100CE
:1002730000039002A6900100004418026D91010052
:1002830000CD8F02A6900100004518028191010064
:1002930000158F02A6900100004618028D910100FF
:1002A30000278F02A6900100004718028F910100DA
:1002B30000398F02A69001000048180291910100B5
:1002C300005D8F02A690010000491802939101007E
:1002D30000DB8F02A6900100004A1802A1910100E1
:1002E300004B1801E8030577100AFFFFFF000130F8
:1002F300750302010600000000000000000000007A
:1003030000000000000000000000000000000000EA
:1003130000FFFF0600800CE803140953696D706C3D
:1003230065424C455065726970686572616C05126F
:1003330050002003020A000201060302F0FF536982
:100343006D706C6520424C4520506572697068651C
:1003530072616C851500008B150A436861726163D5
:100363007465726973746963203100024368617252
:10037300616374657269737469632032000843684A
:100383006172616374657269737469632033001009
:10039300436861726163746572697374696320345D
:1003A300000243686172616374657269737469639F
:1003B3002035000A436861726163746572697374FE
:1003C3006963203600028791010000599102A690CB
:1003D30001000060190297910300002B17027F911F
:1003E300010000611902A69001000072190299919F
:1003F3000100002C17027F91010000731902A690DF
:100403000100008419029B910200002D17027F91C5
:10041300010000851902A6900100009619029D9122
:100423000000002E17027D910300002F17027F9119
:10043300010000971902A690010000A819029F91DC
:100443000400003117027F91010000A91902A69050
:10045300010000BA190285910300003617027F914B
:10046300010000BB19303132333435363738394166
:10047300424344454600286E756C6C20706F696E6C
:100483007465722900303132333435363738396187
:100493006263646566003F3F3F000000807F0000A9
:1004A300803F00000000F9021550B743BA51000025
:1004B300204100E7DB2E0000A04012012256B503C5
:1004C30012012269B5031201229AB503120122D443
:1004D300B5031201222DB60312012274B6031201D1
:1004E30022BCB603120122EBB6031201221AB70390
:1004F30012012251B70312012298B703120122B14C
:10050300B70312012206B8031201221FB803120116
:10051300226DB803120122A7B803120122D4DC0210
:10052300120122D7DD0212012210DE021201223350
:10053300DE0212012245DE0212012283DE021201D3
:1005430022FFDE02120122C7DF02120122E9DF02CB
:1005530012012280E002120122D2E00212012203E0
:10056300E10212012210E1021201227AE1021201D8
:1005730022D1E102120122D4E1021201220DE20290
:1005830012012210E2021201221AE2021201226E69
:10059300E202120122AFE202120122E2E20212019E
:1005A300221FE30212012221E402120122C5E40206
:1005B3001201222EE5021201226CE50212012275BC
:1005C300AD031201229DAD03120122CAAD03120134
:1005D3002202AE0312012260AE03120122ACAE036B
:1005E30012012213AF0312012253AF03120122900F
:1005F300AF03120122BEAF0312012268B00312013E
:100603002272B0031201227FB003120122B2B0039F
:10061300120122BEB003120122D6B003120122E05E
:10062300B00312012217DB0312012225DB0312019F
:10063300223DDB0312012254DB0312012285C80190
:100643001201222FC90112012242CA01120122BE44
:10065300CA01120122DCCB0112012218CC011201C2
:1006630022B3CC0112012297CD0112012263CE01E4
:10067300120122F1CF0112012262D0011201221CC8
:10068300D1011201220ED2011201224ED201120116
:100693002202D30112012234D3011201222AD501ED
:1006A3001201226CD5011201228AD501120122F016
:1006B300D501120122BFD60112012283D7011201F3
:1006C30022A2D9011201226CF80112012256F9016A
:1006D30012012201FA0112012252FA01120122022D
:1006E300FB0112012273FB0112012258FC011201CA
:1006F300228CFC0112012285FD01120122C2FD019F
:100703001201229EFE01120122DDFE01120122F9D5
:10071300FE0112012250CE03120122D4CE03120194
:1007230022FFCE0312012219D0031201226EB1035C
:1007330012012284B103120122A2B103120122B3D6
:10074300B203120122BDB203120122E8B303120164
:1007530022DFB4031201224CB503120122008003ED
:10076300120122308103120122678103120122B197
:100773008103120122748303120122A59101120144
:1007830022319201120122959301120122A19301B8
:10079300120122DC93011201224B94011201225413
:1007A30095011201225D9601120122249701120183
:1007B300228198011201229F9801120122BC980103
:1007C300120122699901120122E699011201220EF6
:1007D3009A01120122D89C01120122DD9C0112010F
:1007E30022F69E01120122449F01120122B49F01AD
:1007F300120122F29F01120122CEA0011201228EC8
:10080300A101120122DAA101120122DDA1011201CB
:100813002221A20112012269A201120122A8A2012E
:10082300120122CAA201120122FEA20112012261B7
:10083300A3011201224385031201225185031201F0
:1008430022A48503120122C3850312012208860311
:100853001201224C8703120122E787031201222B84
:100863008803120122558803120122C4880312014E
:10087300220A8903120122818903120122328A0387
:100883001201229C2F00120122AC2F001201224DD3
:100893003000120122A93000120122663100120138
:1008A30022823200120122B43200120122E332000A
:1008B300120122903400120122073700120122771D
:1008C3003900120122693A00120122623B0012012F
:1008D30022693D001201225D40001201228C410079
:1008E300120122904300120122A044001201222F80
:1008F30046001201222047001201226E4700120116
:1009030022DD470012012201480012012252480051
:10091300120122F34C00120122F44D001201225560
:100923004E00120122804E00120122464F00120196
:10093300221EA10312012228A1031201226DA10389
:1009430012012281A10312012211A2031201224AE0
:10095300A20312012285A203120122AEA2031201F5
:100963002202A30312012217A30312012239A303B4
:100973001201224EA30312012262A3031201227762
:10098300A303120122B1A303120122DDA303120167
:100993002226A40312012298A403120122DBA4033A
:1009A30012012205A50312012230A5031201220917
:1009B300D8031201229CBF021201227FC00212013E
:1009C30022FAC00212012235C10212012286C2029A
:1009D30012012214C302120122A6C50212012258D7
:1009E300C60212012264C702120122D7C8021201F1
:1009F3002230C902120122CE9C03120122119D034F
:100A0300120122959D031201226CA0031201228878
:100A1300FD021201223AFE0212012236FF021201E6
:100A23002275FF02120122CFFF0212012248D003D6
:100A3300120122ABD00312012248D1031201227DFD
:100A4300D103120122ADD103120122E8D103120115
:100A53002208D203120122038F031201228F8F0374
:100A63001201224E90031201226691031201228089
:100A7300930312012208A9021201222DA9021201D5
:100A830022FAA902120122CEAA021201223BAB02D0
:100A93001201227BAB0212012217AC021201224B7C
:100AA300AD0212012226AE0212012285AE0212010C
:100AB3002211AF021201227FAF021201220BB002F8
:100AC30012012251B002120122C3B00212012255B7
:100AD300B102120122F6B10212012216B202120170
:100AE300225EB202120122A7B202120122C3B20293
:100AF300120122E9B20212012263B302120122712E
:100B0300B30212012200B40212012269B4021201DB
:100B130022B793031201223C94031201227E940311
:100B2300120122629503120122CF950312012213AF
:100B3300960312012257960312012284960312018F
:100B430022AC9603120122E4960312012222970398
:100B5300120122499703120122C397031201220DA6
:100B630098031201228DB60112012235B801120138
:100B73002262BA01120122B6BA01120122E1BA01BC
:100B8300120122B3BB01120122F7BB011201223B66
:100B9300BC011201224EBC011201228FBC011201C1
:100BA30022BCBC011201220ABD011201224BBD016C
:100BB30012012279BD01120122CCBD01120122636F
:100BC300BE011201224DC10112012263C3011201B0
:100BD30022A1C30112012234C50112012279C501E8
:100BE300120122EBC5011201223CC6011201227639
:100BF300C6011201227BC6011201221BC701120189
:100C03002251C80112012262C801120122D9C9026C
:100C130012012258CA0212012251D0021201225794
:100C2300D102120122CAD20212012261D30212019D
:100C3300224C6400120122956400120122C2640056
:100C4300120122F464001201220165001201220D37
:100C530065001201221F6500120122FA65001201CC
:100C6300225866001201228D6600120122C4670019
:100C7300120122116800120122356800120122A517
:100C83006800120122666900120122296A0012011A
:100C930022976A00120122546B00120122676B0033
:100CA300120122E56B00120122786C001201229FCF
:100CB3006C00120122076D00120122586D0012010F
:100CC30022AD6D00120122566E00120122016F0047
:100CD300120122AD6F001201221F70001201227354
:100CE3007000120122D3700012012203710012015D
:100CF30022997100120122BE7200120122067300B2
:100D03001201222373001201224273001201227185
:100D130073001201228674001201220C7500120165
:100D230022317500120122467500120122B97500A5
:100D3300120122FA7500120122167700120122B75E
:100D430077001201220578001201226F7800120148
:100D5300228878001201228BD302120122DFD302F0
:100D6300120122EBD302120122B5D402120122E2B4
:100D7300D40212012210D5021201227CD5021201E3
:100D830022B2D502120122EBD50212012203D602AE
:100D930012012258D60212012271D602120122B682
:100DA300D602120122C9D602120122E3D60212018F
:100DB30022F9D60212012217D80212012242D902C5
:100DC3001201222CDA021201221BDB02120122FD84
:100DD3007F00120122C39B02120122F29B02120125
:100DE30022B89F021201220FA102120122D5A102F1
:100DF30012012254A3021201221EA4021201227024
:100E0300A4021201228AA402120122BCA40212012A
:100E130022C7A40212012210A50212012219A5025F
:100E2300120122C5A5021201229EA602120122E589
:100E3300A6021201224DA7021201228FA70212015C
:100E430022BDA702120122F8A70212012239A4012E
:100E5300120122B7A701120122BDA701120122121A
:100E6300AE011201225CB20112012242B60112014B
:100E7300221DC00312012293C003120122A9C00341
:100E830012012239C10312012276C103120122B0D9
:100E9300C103120122EAC1031201225DC20312013E
:100EA300229EC203120122A7C203120122B3C2036C
:100EB300120122D2C203120122FCC2031201221127
:100EC300C30312012254C303120122448A031201F1
:100ED30022578A03120122718A031201229E8A0376
:100EE300120122E48A03120122178B0312012255F5
:100EF3008B03120122BA8B03120122CF8B0312013F
:100F030022DA8B03120122E78B03120122FE8B03E9
:100F13001201220C8C03120122178C0312012223CB
:100F23008C03120122368C03120122418C0312011D
:100F330022648C03120122088D03120122188D03EF
:100F4300120122328D031201224F8D031201226AF4
:100F53008D031201228F8D031201229A8D03120138
:100F630022AF8D03120122C38D03120122248E03AB
:100F73001201222A8E03120122308E03120122361D
:100F83008E031201224E8E03120122818E0312015F
:100F930022408E02120122D78E021201226F8F028B
:100FA3001201225F9002120122969002120122A9DD
:100FB3009002120122179102120122B2920212012F
:100FC30022D992021201227B9302120122B09302D0
:100FD300120122C193021201223A94021201225BEE
:100FE3009402120122739402120122CB9502120180
:100FF30022D49702120122249A02120122279B0271
:10100300120122769B02120122DFE901120122DC86
:10101300EA01120122C7EB01120122D1EB011201F5
:1010230022F3EB01120122FFEB0112012251ED0128
:1010330012012280ED01120122B0EE01120122F20F
:10104300EE011201221EF001120122F4F00112013D
:101053002246F101120122A5F101120122DCF10164
:1010630012012217F201120122B2F501120122CB61
:10107300F5011201224DF6011201225BF601120164
:1010830022B0F601120122BEF6011201222BF70152
:101093001201229DF701120122E3F7011201228CB2
:1010A300B402120122AEB40212012298B602120156
:1010B300223DBA0212012280BB021201225ABC0253
:1010C30012012216D2031201223BD203120122ACD7
:1010D300D20312012292E5021201229BE5021201C0
:1010E30022A4E502120122D5E602120122F4E8024B
:1010F3001201222AE90212012264E9021201229A50
:10110300E902120122D4E90212012208EA021201C1
:101113002234EA021201227DEA02120122B7EA0214
:10112300120122FFEA0212012255EB021201228A66
:10113300EB02120122E5EB021201221FEC02120163
:101143002270EC02120122A6EC02120122E0EC0250
:101153001201220EED0212012231ED02120122E4EC
:10116300DB0312012210DC031201226BDC031201E8
:101173002275DC0312012285DC03120122BCC603A3
:10118300120122E3C6031201220DC70312012242F8
:10119300DF03120122B24F00120122165200120184
:1011A30022CD53001201222A54001201222C550091
:1011B300120122B455001201223B56001201226093
:1011C3005600120122555900120122CB5900120177
:1011D30022BA5A00120122F45A00120122345B008F
:1011E300120122D45C00120122295D001201227631
:1011F3005D00120122E45D001201220A5E00120169
:1012030022245E001201223A5F001201224A5F008B
:10121300120122D06000120122F060001201222686
:101223006100120122AA6200120122E96200120186
:10123300222764001201224D9803120122A598036C
:10124300120122ED99031201225C9A031201220B6F
:101253009B031201222A9B031201227E9B0312018C
:1012630022BC9B03120122ACE0031201228CDF0398
:10127300120122CBDF0312012299E0031201225A49
:10128300FF011201226AFF0112012285FF011201EF
:1012930022EDFF011201221DD903120122A1D9035C
:1012A30012012207DA03120122F4D6031201221BD0
:1012B300D70312012271D703120122C3D7031201EC
:1012C30022ABBC03120122C0BC0312012227BE03BE
:1012D30012012291BE0312012205BF031201221F34
:1012E300BF0312012236BF0312012249BF031201B9
:1012F3002261BF0312012276BF0312012297BF03AB
:10130300120122E8BF031201220FB90312012226A0
:10131300B9031201229FB90312012274BA03120105
:101323002246BC0312012282C30312012214C40306
:1013330012012292C40312012219C503120122AB26
:10134300C50312012202C6031201220CC6031201B5
:10135300221BC60312012231C60312012244C60313
:10136300120122A5C603120122B9C6031201228F5C
:10137300DC03120122F9DC0312012204DD03120152
:101383002214DD031201226AD50312012293D5032D
:10139300120122BCD50312012255D6031201226D7C
:1013A300D603120122AFD603120122BFED021201AE
:1013B30022C9ED0212012209EE0212012252EE02AB
:1013C3001201228CEE02120122E2EE02120122012C
:1013D300EF0212012286F1021201228FF1021201A1
:1013E30022E0F10212012209F2021201221EF2028C
:1013F3001201228EF2021201221CF3021201226058
:10140300F30212012288F30212012207F4021201ED
:10141300224AF40212012287F40212012299F402F1
:10142300120122B8F402120122C1F402120122862F
:10143300F502120122CCD3031201221DD40312019F
:1014430022A6D4031201220CD5031201228AC90356
:10145300120122B4C903120122AECA03120122DD12
:10146300CA0312012263CB0312012220DA03120101
:10147300224ECC0312012284CC03120122BDCC03E1
:1014830012012216CE031201221ADE0312012230A8
:10149300DE031201223ADE0312012290DE0312015F
:1014A30022B2F5021201226FF602120122AAF602FB
:1014B300120122D2F60212012234F7021201228013
:1014C300F702120122EBF70212012267F80212015E
:1014D3002263F902120122EAFA021201226DFB02CF
:1014E300120122D1FB02120122E8FB02120122DEC9
:1014F300FC021201222AFD0212012258A503120145
:10150300226DA50312012220A60312012260A60365
:1015130012012279A603120122ACA603120122F9B9
:10152300A6031201222DA7031201226FA7031201A2
:101533002265A903120122008002120122B783024D
:10154300120122498502120122A08502120122BF43
:1015530085021201223D8602120122CF8702120167
:1015630022B38802120122C48C02120122988D0236
:10157300120122A2DD03120122B878001201220C0B
:101583007B00120122AE7C001201224F7E00120169
:1015930022D47E00120122037F00120122617F0008
:1015A30012012272A903120122DAA903120122F7FE
:1015B300A903120122E4AA031201224AAB03120176
:1015C300221BAC03120122AFD901120122C8DE0192
:1015D300120122D5DF03120122D17F001201221B47
:1015E300E00312012252E0031201227BE003120105
:1015F300221FDD0312012249DD03E066701008A3F8
:10160300E066700A08A3E066700408A3E06622C0DF
:1016130008C3E096F50808A3E096420808A3E096FD
:10162300420808A3E0964208A2D265D033E50870C9
:1016330001D3D00822C3E7960809E7960809E7967D
:101643000809E79622C3E09608A3E09608A3E0966C
:1016530008A3E09622C008C3E096F50808A3E09625
:10166300420808A3E096420808A3E09645087001E3
:10167300D3D00822080808E630E711121F311216EA
:101683008F080808C64480C618181822181818E9C5
:10169300799EC608CAC608CBC608CCC6C3702079D3
:1016A30096CACBCC7019798ECBCC70137986CC705B
:1016B3000EF9802ACA33CACB33CBCC33CC3319309F
:1016C300E7F2CCCBCA3350147004EA30E00DE4CA1D
:1016D3003ACACB3BCBCC3CCC500209C3E913C6CCB2
:1016E300182313C6CB18C6CA18C6F92212172F20FF
:1016F300F01430E72B74FFFCFBFA747F8022E4FCC8
:10170300FBFA7480801AB48008BC00F2BB00EF803F
:101713000F50EBF9E4C39AFAE49BFBE49CFCE499D5
:10172300C6CC18C6CB18C6CA18C6F922E4C9C6085F
:10173300CAC608CBC6D3330308CCC63392F0C394CE
:101743007F402E94184019C9B90704CACBCC225044
:1017530025C309CA33CACB33CBCC33CC33D9F42218
:10176300F4600DC9CCC313CB13CBCA13CAD9F6CCBF
:1017730022E4FCFBFA2214FCFBFA22E626184618A4
:1017830046184622E72719471947194722181818F8
:10179300E60846087009E626087005E633F42208D1
:1017A30022191919E70947097009E727097005E79D
:1017B30033F4220922E6084608C3134608336002BD
:1017C300E633F422E7094709C3134709336002E705
:1017D30033F4221217B860251217C7602012177E40
:1017E3007003021787080808E76670101819E76680
:1017F300700A1819E76670041819E76622F42212B2
:1018030017B8601C1217C7601712177E70071217DC
:10181300877001D322C0D01217877006D0D0B322AD
:10182300C32233D0D0501430E0F6C3E7960809E75B
:10183300960809E7960809E796B32220E0D5E697CC
:101843000809E6970809E6970809E697B3221217ED
:10185300B8601B1217C7601612177E70071217871E
:10186300600CB322C0D01217877005D0D022C322D8
:1018730033D0D0501330E0EBC3E7960809E796085E
:1018830009E7960809E7962220E0E4E6970809E6C7
:10189300970809E6970809E69722001217B8604FE0
:1018A3001217C76012E7548066F612179070111270
:1018B3001787703B090909F4F618F618F618F6228B
:1018C3001217A4701512177E08080860EAE6447F11
:1018D300F618768018E4F618F62212177E601612B0
:1018E30017877012E4F608F608F608E65480F6093E
:1018F300090918181822EAC0E0EBC0E0ECC0E0EDDB
:10190300C0E0E687F0A4FBACF008E687F0A42CFC6B
:10191300E435F0FA1809E687F0A42C4B6002740151
:10192300CA35F0FCE433FB09E687F0D2F7A42CCBED
:1019330035F0FC1908E687F0A42BCC35F0FBE43333
:10194300FD0819E687F0D2E7A42C4ACB35F0CD3455
:1019530000FC09E687F0D2E7A42DCC35F0FDE43393
:10196300FA0918E687F0D2F7A42CCD35F0CA340073
:10197300FC08E687F0D2E7D2F7A42ACC35F07A7ECA
:1019830020E70B0ACB33CBCD33CDCC33CC33CB33A6
:1019930050147004ED30E00ED2F1E4CD3DCDCC3CDB
:1019A300CC3B5005DA05C2F1EB547FC63308E6336E
:1019B30092F0FBE73309E733C39A502D2B70190CD0
:1019C3000D4C4D70151806E608C333700D20F10A4F
:1019D300A2F013F6E418800B4024E4F630F002760C
:1019E3008018F618F618F68024D33B14501074FFB1
:1019F300A2F013F6187680E418F618F6800FA2F01A
:101A030013F618E63303F618ECF618EDF6D0E0FDFE
:101A1300D0E0FCD0E0FBD0E0FA221217C7604612F8
:101A230017B8603DE9687008F618F618F618F6223C
:101A3300748067F7121A51090909748067F7221233
:101A430017B8601D1217C77005191919801A1217D4
:101A530090701F1217A4C37003E667331919194056
:101A6300071818182208080874FFF618F618F6184D
:101A7300F6221217A46017121787702192F012171B
:101A83007E7019501720F014080808090909E7F6B1
:101A93001819E7F61819E7F61819E7F62212177E50
:101AA30060E6E869701F0808E62480F608E436F665
:101AB30018547FB47F0CE654806007F6E418F618D8
:101AC300F622181822E9C6CC08C6CD08C6CE08C629
:101AD300CFC0E0E8C0E0EAC0E0EBC0E009E9F80904
:101AE300E7FA09E7FBE6F918E6F8C3EC98ED99EE97
:101AF3009AEBC2E7F5F0EFC2E795F0500E600CEBFE
:101B0300CFFBEACEFAE9CDF9E8CCF8EAA2E7D2E7CF
:101B1300FAEB33FB13F5F0EEA2E7D2E7FEEF33FF68
:101B2300C5F013A2E730E601B313C5F0C3C0E0C0AC
:101B3300F07F00C39BFB605E9418600F401D146030
:101B43001AD0E023F9D0E0F8021C238AF0E94860B8
:101B530003D2F0E4AFF0FAF9F8803BEB30E40D89FF
:101B6300F0EA6003D2F0E4AFF0F9CAF8EB30E30D2A
:101B730088F0EF6002D2F0AFF0E4CAC9F8EB540783
:101B83006014FBC3EA13FAE913F9E813F8EF1350EF
:101B930002D2E0FFDBEDD0E0C0E030E739C3E49FE1
:101BA300FFF5F0EC98FC42F0ED99FD42F0EE9AFE61
:101BB30042F0D0E0F9D0E0F8E5F0607AE923F9EEFD
:101BC30020E742D8028067C3EF33FFEC33FCED33E9
:101BD300FDEE33FE80EAEC28FCED39FDEE3AFED053
:101BE300E023F9D0E0F84002801BC3EE13FEED13AF
:101BF300FDEC13FCEF135002D2E0FF08B800067FA0
:101C03007F74FF802EEF3350178CF020F0026010AA
:101C13000CBC000C0DBD00080EBE000408E860DF1C
:101C2300E933E813FFEE2313FE4F4D4C8008E954CC
:101C330080FFE4FEFDFCEE33EF33F47004FCFD7E25
:101C430080D0E0FBD0E0FAD0E0F8D0E0CFC618CEE9
:101C5300C618CDC618CCC6F9221217B870041818C6
:101C630018221217C7700D74FFF61819F61819F613
:101C73001819F622E7548066F612177E700F1217B2
:101C83008770F014F608F608F608F680D112178765
:101C9300700CF608F608768008E6447F80EC12178D
:101CA300A7700C12179360BFE65480F6E480BB1252
:101CB3001793700519191980A5E869700C763F18F8
:101CC300768018F618F6E8F922E6CDC0E018ECC0E5
:101CD300E0E633CD33CDD313F6E719FCE719193317
:101CE300CC33C3947F400ECD9D502408E65480F638
:101CF300E418F6800FF4043D14501408E6447FF60C
:101D0300187680E418F618F6D0E0FCD0E0FD22CC7B
:101D1300D313CCFD18E4C6CBC0E018E4C6CAC0E0B8
:101D23000808ED08C633E613F618E433C675F00366
:101D3300C3CA97CA09CB97CB199C40047D08802E50
:101D4300BD0003021E0516B6FF050606081618C3D6
:101D5300CA33CACB33CB33CA27CA09CB37CB193CD7
:101D6300C37D08803E187D0820E75CC633C6CA33AE
:101D7300CACB33CB33DDF1D5F0EB30E77BCA97CA5F
:101D830009CB974ACB199C406F4B7025E620E02185
:101D93008066187D08C3CA97CA09CB97CB199CD311
:101DA300C633C6CA33CACB33CB3350C9DDE7D5F00C
:101DB300E1D3E4C636C608C636C608C636C608C664
:101DC30036C61818188031C3CA97CA09CB97CB19DE
:101DD3009CB34097C633C6CA33CACB33CB33DD3447
:101DE300D5F02EC6A2E0C640C8CA27CA09CB371908
:101DF3004A70BECB3CB480B90808E63308E63360CA
:101E03001F181818D0E0FAD0E0FBD0E0FCD0E0FDBA
:101E130022187D08CA27CA09CB37CB193CD3808047
:101E230013F618E4B67F11F618B6FF0EF618C604BB
:101E330070D20808768080CAF618F618F680C508AE
:101E43000808EAC0E0EBC0E086F0E7A4FA180986C8
:101E5300F0E7A42AFA180986F0E7A42AFA180986F3
:101E6300F0E7A42AFA1986F0E7A4FBE5F02AFA19A9
:101E73000886F0E7A42BFBE5F03AFA190886F0E7A9
:101E8300A42BFBE5F03AFA18180986F0E7A4C5F08D
:101E93002BFBE43AFA1908E7C5F0C6A426F6E5F0E9
:101EA3003BFBE43AFA1886F0E7A4F6E5F00826F6D9
:101EB300E43B08F6E43A08F6D0E0FBD0E0FA22E48B
:101EC300CFC0E0E4CEC0E0E4CDC0E0E4CCC0E07538
:101ED300F020E626F608E633F608E633F608E6339E
:101EE300F6181818EC33FCED33FDEE33FEEF33FF39
:101EF300C3EC9709ED9709EE9709EF971919194064
:101F03000FFFEC97FC09ED97FD09EE97FE191906F3
:101F1300D5F0BFECF709EDF709EEF709EFF719195B
:101F230019D0E0FCD0E0FDD0E0FED0E0FF2218188D
:101F330018E4C396F608E496F608E496F608E496E1
:101F4300F6226016080808C6C313C618C613C618B7
:101F5300C613C618C613C6D5E0EA227009080808D6
:101F6300226016181818C6C333C608C633C608C677
:101F730033C608C633C6D5E0EA22E627F60809E6E3
:101F830037F60809E637F60809E637F622E026F6BB
:101F930008A3E036F608A3E036F608A3E036F622F7
:101FA300E026F008A3E036F008A3E036F008A3E04B
:101FB30036F022C3E697F60809E697F60809E6978E
:101FC300F60809E697F622C3E096F008A3E096F038
:101FD30008A3E096F008A3E096F022E056F608A3E3
:101FE300E056F608A3E056F608A3E056F622E056BC
:101FF300F008A3E056F008A3E056F008A3E056F07B
:1020030022E0F608A3E0F608A3E0F608A3E0F62230
:10201300E6F008A3E6F008A3E6F008A3E6F022E062
:10202300FAA3E0FBA3E0FCA3E0FD22E0F8A3E0F9C0
:10203300A3E0FAA3E0FB22E8F0A3E9F0A3EAF0A30C
:10204300EBF022CAC0E0E6F0A308DAFAD0E0FA2205
:10205300CAC0E0E0A3C582CCC582C583CDC583F0E9
:10206300A3C582CCC582C583CDC583DAE6D0E0CAD9
:1020730022C3E498F8E499F91220B58026C3E49AC0
:10208300FAE49BFBE920E7E91220B5E498F8E49928
:10209300F922C3E498F8E499F91220B5E498F8E436
:1020A30099F9C3E49AFAE49BFB22EB20E7CFE920FA
:1020B300E7E0B90010BB0008E88AF084F8AAF02230
:1020C300E4FBC8FA22EB70227B10C833C8C933C9BA
:1020D300335007C39AC3DBF280069A50012ADBEA26
:1020E300C833F4C8C933F4C9FA2275F008E4C83315
:1020F300C8C933C933C99AC99B5004C92AC93BD536
:10210300F0ECFBC833F4C8E4C9FA22600D08C6A298
:10211300E713C618C613C6D5E0F322600C08C6C37E
:1021230013C618C613C6D5E0F422700422600D1836
:10213300C6C333C608C633C6D5E0F4182225181023
:10214300AF08F518400C15198008F5184002151949
:10215300D2AF2200C0D0251810AF08F518500C05D7
:10216300198008F51850020519D2AFD0D0222518CE
:10217300F58210AF08F518400C15198008F51840C2
:10218300021519D2AF851983222518F582E4351972
:10219300F583222518F8E43519F9222518FAE435D0
:1021A30019FB222518FCE43519FD22E4732518C513
:1021B30082C0E0E51934FFC583C0E0E518C395820A
:1021C30024F810AF08858319858218800885831940
:1021D300858218D2AFCEF0A3E520F0A37808E608F5
:1021E300F0A3DEFAEFF0A3E58124FAF8E608F0A302
:1021F300E608F0A3E608F0A30808E608F0A3E6085B
:10220300F0A315811581D0E0FED0E0F8158115818A
:102213001581E8C0E0EEC0E0222518C582C0E0E5E4
:102223001934FFC583C0E0E518C3958224F910AFC4
:10223300088583198582188008858319858218D2B9
:10224300AFCEF0A3E520F0A37808E608F0A3DEFA0A
:10225300EFF0A3E58124FBF8E608F0A3E608F0A37A
:102263000808E608F0A3E608F0A315811581D0E07D
:10227300FED0E0F815811581E8C0E0EEC0E02285CC
:102283001983851882E0A3FEE0A3F5207808E0A374
:10229300F608DFFAE0A3FFE0A3C0E0E0A3C0E0E0BC
:1022A300A3C0E0E0A3C0E0E0A3C0E010AF088582D4
:1022B300188583198008858218858319D2AFD08346
:1022C300D08202011F851983851882E0A3FEE0A353
:1022D300F5207808E0A3F608DFFAE0A3FFE0A3C047
:1022E300E0E0A3C0E0E0A3C0E0E0A3C0E010AF08DB
:1022F3008582188583198008858218858319D2AF52
:10230300D083D08222C0D02518C582C0E0E519341D
:10231300FFC583C0E0E518C3958224F310AF088599
:1023230083198582188008858319858218D2AFC8DE
:10233300F0A3E9F0A3EAF0A3EBF0A37908E709F02F
:10234300A3D8FAECF0A3EDF0A3EEF0A3EFF0A3D043
:10235300E0F0A3D0E0F0A3D0E0F0A3E520F0A3E504
:10236300F0F0A322851983851882E0C0E0A3E0F989
:10237300A3E0FAA3E0FBA37808E0F608A3DFFAE002
:10238300FCA3E0FDA3E0FEA3E0FFA3E0C0E0A3E025
:10239300C0E0A3E0F5D0A3E0F520A3E0A3F5F0109F
:1023A300AF0885831985821880088583198582186B
:1023B300D2AFD082D083D0E0F8D0E032740480066C
:1023C300740280027401C0E0F404122171D0E0129F
:1023D3002046227404800474028000CCC0E0EDC067
:1023E300E0E518C39CCCAD1950011D10AF068C1845
:1023F3008D1980068C188D19D2AF122053D0E0FDB1
:10240300D0E0FC22D083D082E9C0E0E493A3C3866A
:10241300F0C5F095F0F908E493A386F0C5F095F0C4
:10242300700BE493A3C3994005E9048002A3E47508
:10243300F002A42582F582E5F03583F583D0E0F937
:10244300E493A3C0E0E493C0E022D083D082ECC045
:10245300E0EDC0E0E493A3FCE493A3FDED4C600D39
:10246300122499EC24FFFCED34FFFD80EFE493A3E9
:10247300FCE493A3FDED4C600D1224D8EC24FFFC87
:10248300ED34FFFD80EFD0E0FDD0E0FCE493A3C08A
:10249300E0E493C0E022C0E0C3E4939608740193A0
:1024A3009618400FE49366700808740193661870D9
:1024B300007019A3A3C3E49396087401939618A319
:1024C300A3400DD0E0D0E0D0E0022489A3A3A3A3CE
:1024D300A3A3D0E022C0E0C0F088F0E493667008C4
:1024E3000874019366187000A8F0A3A3700BD0F0D2
:1024F300D0E0D0E0D0E0022489A3A3D0F0D0E02242
:1025040074F612221CEAFEEBFF8C088D09EE2434CB
:10251400F8E43FF9E8FCE9FD122637E0FAEE243747
:10252400F582E43FF583E0F88508F0A4C885F00A55
:102534008509F0A4250AF9EA28F8E439F97A257B13
:10254400001220B5EA8C828D83F0FA131313541F02
:10255400F8EE28F8E43FF9E8245DF582E439F583E0
:10256400E0C0E074075AF8D0E0B800028004C31356
:10257400D8FCA2E05003EA8020EE2436F582E43F42
:10258400F583E0F5F0EA84A8F0EE28F8E43FF9E8F2
:102594002438F582E439F583E0F97F030222C87414
:1025A400F512221CEAFEEBFFEE2434F582E43FF53B
:1025B40083E0C0E0122637D0E0F08E828F83A3A39D
:1025C400A3A3A3E0FAA3E0FB8E828F83A3A3A3A318
:1025D400A3A3A3E0FCA3E0FDECC39AF50AED9BF5ED
:1025E4000BEE247FF508E43FF509850882F583E0C6
:1025F4006401702AEE2480F582E43FF5831223DA25
:102604001226417402122156E960137CB07D04EE57
:10261400FAEFFB120CEB850882850983E4F0AC0A1F
:10262400AD0BEEFAEFFB122504E9F9122E9F7F049D
:102634000222C8EE2435F582E43FF58322C082C02D
:1026440083851882851983E0F8A3E0F9C3EA9CEB3B
:102654009D5010C3EC98ED99401BC3EA98EB995038
:1026640014800EC3EA98EB994007C3EC98ED9940A7
:1026740004790180027900D083D08222EAC39CFAD3
:10268400EB9DFB2274ED12221C900376E06408603B
:1026940005E06407702C9061C8E060269003A4E014
:1026A400F874FF68601CE875F00AA4C8AAF02AF957
:1026B40074A628FE740339FF8E828F83A3A3A3E03C
:1026C40070057900022821EE2468F50EE43FF50F29
:1026D400906060E0850E82850F83F075102075117F
:1026E40005750800750900E5D914F50AE5D9540300
:1026F400F50B601FEE2482F50CE43FF50D740365C1
:102704000B6059E50A6017EE2467F582E43FF58310
:10271400E0700B793DEEFAEFFB120D1B80A49005DF
:102724001BE064016023850C82850D83E060047ADC
:102734000480027A00E50AC39AFA95E0FB120B774B
:102744008A088B09EA45097006120F730226C685AA
:102754000C82850D83E070048A108B117A0080143A
:10276400E5D9C0E0EAF8E51028F582E43511F583EF
:10277400D0E0F00AEAC3950A40E6850C82850D8311
:10278400E0602874FC250AF50A78101223C3AC0A09
:10279400A90BEEFAEFFB120DC97402122156E9706F
:1027A4000AAA08AB0912143B0227177403650B60CD
:1027B40054850A0C750D00780C1223C3AC10AD11AE
:1027C400AA08AB09120D8D7402122156850E82855A
:1027D4000F83E0F87480687005750C7F8002880CA4
:1027E400E50CF50D780D1223C7780B1223C7A90A3F
:1027F400AC08AD099003A4E0FA7B001209AF74029F
:102804001221568013900376E06408600BAC10AD7F
:1028140011EEFAEFFB120E5F120F7F79017F0C02AB
:1028240022C874F312221C74FC122140EAFEEBFF4E
:102834008909A2AFE433F508C2AFEE2463F50AE4D4
:102844003FF50B8010AA0AAB0B120D4512143B90F6
:1028540004B7E004F0850A82850B83E0F8A3E0F96D
:10286400E849602DE82402FAE439FBEA2402F50C75
:10287400E43BF50D780C1223C38A828B83E0FCA31E
:10288400E0F9EEFAEFFB120D397402122156E960F9
:10289400B49004B7E0604D9004B8E0F89004B7E059
:1028A400C398500C74026509703A9004B9E060341E
:1028B4008E828F83A3A3A3A3E08518828519831234
:1028C40028F8740212218CE81228F89004B6E02843
:1028D400F074021221A6AA18AB197901120A039006
:1028E40004B7E4F0E508A2E092AF74041221567F25
:1028F400060222C8F0A3E4F09004B7E0F822000036
:102904008521878522C622C0E074EB122308A2AF7A
:10291400E433F508C2AF759B00906182E0A2E050F9
:1029240030E591A2E0502A7591FE74016521702171
:10293400122A9E120EB9122A8C1223D6122C497412
:1029440004122156E9640170057901120F07122659
:1029540088906182E0A2E5505DE591A2E55057754B
:1029640091DF900376E064076005E06408702F123D
:102974002A9E74016521703E120EB9122A8C12230C
:10298400D6122C497404122156E9640170057901A8
:10299400120F077901EEFAEFFB1228268018E06483
:1029A4000D7013900398E004F064287002E4F07A48
:1029B40000E0F9120F85906182E0A2E64003022A4A
:1029C40061E591A2E64003022A617591BF90037606
:1029D400E064057008120EA1120EAD8003120EA75A
:1029E400752100120F13E9900377F07900120F0795
:1029F400120C557A017B00900375E0F912140B90C8
:102A04007803E06442705690051FE014F0704EC2E3
:102A1400AF122A1800782AD0E0F618D0E0F6E59F25
:102A24005407F87005750DFF8003750D7FC4C0E071
:102A34007829E6F50A08E6550DF50B740B780A12A9
:102A4400211ED0E0250AF8906270E0A2E740F8E881
:102A5400C333906272F0906270E0D2E0F0906181D2
:102A6400E0A2E35009E5E9A2E3500375E9F7A3E026
:102A7400A2E75009E591A2E7500375917FE508A20A
:102A8400E092AF7F080223678E828F83E0F8A3E091
:102A9400C82416F582E438F583229003A4E0F8757F
:102AA400F00AA4C8AAF02AF974A628FE740339FF10
:102AB40022C0E0C0D0C082C083906183E0A2E05015
:102AC40009E5BFA2E0500375BFFEE0A2E15009E5AD
:102AD400BFA2E1500375BFFDE0A2E25009E5BFA229
:102AE400E2500375BFFBE0A2E35009E5BFA2E35047
:102AF4000375BFF7E0A2E45009E5BFA2E4500375F3
:102B0400BFEFE0A2E55009E5BFA2E5500375BFDFC2
:102B1400E0A2E65009E5BFA2E6500375BFBFD0832B
:102B2400D082D0D0D0E032C0E074F2122308E5A7FE
:102B3400A2E4500FE5A1A2E4500953A7EF75A1EF59
:102B4400122B7FE5A7A2E5500CE5A1A2E5500653A0
:102B5400A7DF75A1DFE5A7A2E15009E5A1A2E15035
:102B64000375A1FDE5A7A2E2500CE5A1A2E250067F
:102B740053A7FB75A1FB7F0102236774F812221C83
:102B8400752101900376E0640670077A007B0012D9
:102B94000E89A2AFE433FED2AF90037CE0640170EF
:102BA400187A207B00900375E0F912151F7A207BB8
:102BB40000900375E0F9121411906182E0D2E6F0FE
:102BC40090051CE0602185C622801690037BE0649A
:102BD400017008E5C654F84405F5C653BEFC122935
:102BE400047401652160E4EEA2E092AF7F01022249
:102BF400C80000008E238F248582288583278518AA
:102C040082851983E0CEA3E0CF852882852783EBD4
:102C1400C9EAC8EDCBECCA75F010C3E833C8E93390
:102C2400C9EA33CAEB33CBC3EA9EF526EB9FF525FD
:102C3400B35004AB25AA26EC33CCED33CDD5F0DA72
:102C4400AE23AF242274F112221C8A088B098C0A49
:102C54008D0B9091057808121FDE740F12218C7869
:102C64000C122004909105780C121FDE7808790C60
:102C740012163890914550107808790C121FB678C6
:102C8400081216584014800E780C7908121FB67872
:102C94000C12165850047901800279007F08022230
:102CA400C874ED12221C8A088B098C0A8D0B909132
:102CB400057808121FDE741312218C780C1220047C
:102CC400909105780C121FDE780C790812163840A2
:102CD400117808790C121FB6AA08AB09AC0AAD0B1F
:102CE400802275100075110075120075130178109B
:102CF400790C121FB678107908121F7DAA10AB1137
:102D0400AC12AD137F0C0222C890910578081220F2
:102D1400048A828B837808121FF17F040222C8740C
:102D2400F512221C8C828D8378081220048A828BEF
:102D3400837808121FCA122D77C3E098F0A3E09994
:102D4400122D69401E90910178081220048A828B0A
:102D5400837808121FA38E828F83E02420F0A3E0DF
:102D6400344EF080A4F08E828F83C3E09420A3E0DD
:102D7400944E22EA2404F8E43BF9E8FEE9FF8C824D
:102D84008D83A3A3A3A3E0F8A3E0F98E828F83220B
:102D940074F512221CE9FE9004D2E0FAA3E0FBEEE3
:102DA40029F8E433F974A028F582748F39F583E0A7
:102DB4002AF508A3E03BF50978081223C39090EDA7
:102DC400122022122BF874021221568A088B098CC5
:102DD4000A8D0B74107808121F45AA08AB097F04EA
:102DE4000222C874F112221C8A0C8B0D8C0E8D0FDA
:102DF400741112218C1223DA741112218CE0240133
:102E0400F508A3E03400F509E4F50AF50B780C792C
:102E140008121E429091517808122004780C790807
:102E2400121E42AA0CAB0DAC0EAD0F122BF874029D
:102E34001221568B09EA450960047A0180027A005E
:102E4400EC2AFCE43DFD741312218CE0F8A3E0F9B4
:102E5400E8FEE9FFECF8EDF97A717B021220B588FF
:102E6400088909E4F50AF50B8E828F83780812200D
:102E740013ECF8EDF97A717B021220B58A088B09FC
:102E84007405780812212D8E828F83A3A3A3A3E552
:102E940008F0A3E509F07F080222C8C082C083E9D4
:102EA400906000F0D083D08222C0E074F212230834
:102EB400A2AFE433FED2AFC2C0E5D1A2E45006759E
:102EC400D10F121369EEA2E092AF7F01022367C013
:102ED400E074F2122308A2AFE433FED2AFE589A274
:102EE400E04006E589A2E150031212BB7589007522
:102EF4008900C2C5EEA2E092AF7F01022367C0E061
:102F0400C0D0E8C0E0E9C0E0A9A8D2AFC2C7E9A236
:102F1400E7E433F8E9A2E792AFD0E0F9D0E0F8D0E3
:102F2400D0D0E032C0E0C0D0E8C0E0E9C0E0EAC000
:102F3400E0C082C083A2AFE433FAD2AF9009BFE00D
:102F4400F8A3E0687008539AFBA374018022C2E9D5
:102F54009009BFE0F8740128F0743F28F582E43446
:102F640009F583E0F5C19009BFE0C394804002E411
:102F7400F0EAA2E092AFD083D082D0E0FAD0E0F9B8
:0E2F8400D0E0F8D0D0D0E032C2AF0200002280
:102F9400FFFFFFFFFFFFFFFFC082C083E99017FE22
:102FA400F0D083D08202011F74F61221B0E990029E
:102FB400E8F0900348E0F5087509007402780812F7
:102FC400212DAA08AB0912147D9002E912395F90F1
:102FD40002E9123D4C606F900348E075F003A4FAD7
:102FE400ABF012147D90030612395F900306123D74
:102FF4004C700B9002E9123D1D121483804890031B
:1030040006124CB17AFF7BFF1212377A0080198ABC
:10301400087509007402780812212D12475974FFAB
:1030240012315FE4F0A3F00A900348E0F8EAC39891
:1030340040DD790512089B9002E8E0F91207877ACF
:10304400257B09120B170247FC74F41221B08A087D
:103054008B09EB548060479002E8E0F91213F38A7D
:103064000A8B0BAE0AAF0BEE4F602A8E828F83E081
:1030740064B0701A1208ADE960148E828F83A3A322
:10308400A3A3E0F9EE2405FAE43FFB12087DEEFA6F
:10309400EFFB1213E1AA08E5096480FB80047A00BF
:1030A4007B000232AF74F21221B074FB122140EAA9
:1030B400FEEBFFEE4F6045740312218CEEF0A3EF9C
:1030C400F0851882851983ECF0A3EDF074021221C7
:1030D4008CE9F0AA18AB19120781E9F50870757428
:1030E4001312218CE0F50AA3E0F50BE50A450B6009
:1030F400638E828F831236E8EE4F70057508028066
:10310400537A067B0012147D8A0C8B0DA80CA90D32
:10311400E8497005750813803B88828983E412317D
:103124005FEEF0A3EF12327BE50AF0A3E50BF0901B
:1031340002EC1232749002EC6017E0FCA3E080030E
:10314400EAFCEBFD8C828D8312327470F38C828DD9
:1031540083124374A9087405024F31F0A3124C93EF
:10316400A32274F21221B08908890C750D0074032E
:10317400780C12212D850C0A850D0B9002EBF09032
:1031840002E912417F123272602E12148379008098
:103194001D890C750D007402780C12212D9002E922
:1031A4001246188882F583A3A3E4F0A3F0099003E0
:1031B40048E0F8E9C39840D9900348E0FA850AF05A
:1031C400A4CAA8F0850BF0A428FB12147D8A0C8BEA
:1031D4000DAE0CAF0DEE4F7003023268900348E061
:1031E400FC850AF0A4CCA8F0850BF0A428FD790096
:1031F4001213C97C0080318D0C750D007403780C9A
:1032040012212D8A828B8312326D88828983E4F0A5
:1032140012327AA3A3F0A3F00DEDC3950840D8EEC3
:10322400250AFEEF350BFF0C900348E0F8ECC39839
:1032340050288C0C750D007402780C12212D90020C
:10324400E912326DE82402500109FAE9FB8A828B03
:1032540083EEF0A3EFF07D0080BFE5089002EBF071
:10326400790080027913024F3412461CF922A3A379
:10327400123D21EA4B22A3124C93A3A3A32274F47C
:103284001221B07900EAA2E0501F7508C0750990B8
:1032940078081223C379107C047D007A007B18120D
:1032A40008957402122156E9F980007F04022282F3
:1032B400C082C0839002EC123D4C601C88828983DA
:1032C400A3A3E06A7003A3E06B8882898370E8A3F8
:1032D400A3A3A3123D1D80047A007B00022FA574D2
:1032E400F21221B074FD122140EAFEEBFF85188230
:1032F400851983E4F0A3F0740212218C7401F01296
:103304003D497014120A5112147D9002EF12395F74
:10331400123D497003023475123A5FEE2404F50A33
:10332400E43FF50B850A82F583E024FE603C24FC2F
:10333400607424FE607E24FE70030233C524FE7094
:10334400030233D224FE70030233DF24FE7003022F
:1033540033EC24FE70030233F924FC700302341AA4
:1033640024FE700302343202346E120A519002F1C8
:10337400EAF0A3EB1234811204C9E9600302346E4B
:103384009002F11223DA8E828F83A3A3A3A3A31244
:103394004CB1850882850983123D1D1208657402AB
:1033A40012215602346EAC18AD19EEFAEFFB120876
:1033B400B302343DAC18AD19EEFAEFFB1208B98034
:1033C40078AC18AD19EEFAEFFB1208BF806BAC189D
:1033D400AD19EEFAEFFB1208C5805EAC18AD19EE1C
:1033E400FAEFFB1208CB8051AC18AD19EEFAEFFBE3
:1033F4001208D180447402122196880C890D780C2D
:103404001223C374021221A6EEFAEFFB1208D7743A
:10341400021221568023AC18AD19EEFAEFFB120804
:10342400DDE9F87016740212218CE4F0803CAC18CB
:10343400AD19EEFAEFFB1208E3E9F8E8602C8E828E
:103444008F83A3E064146022850A82850B83E09055
:1034540002F1F0851882851983123D1D9002F21243
:10346400395FE8A31234811204C3EEFAEFFB1208A9
:103474003B740212218CE0F97403024F31F07CF1A9
:103484007D02850882850983123D212274E8122178
:10349400B074FA122140740412218CECF0A3EDF004
:1034A4008A128B13EA2405F50EE43513F50FEA248A
:1034B40002F510E43513F511851082F583123D1DD4
:1034C4001205B98A0A8B0B7508007C037D0079000C
:1034D4007AF17B021213C9E50E2402F516E4350FC6
:1034E400F5177402122196880C890D780C1223C3E7
:1034F400850E82850F83A3A3A3A3E0F50C750D00AD
:10350400780C1223C3E50E2405F50CE4350FF50DF4
:10351400780C1223C3851682851783124024120760
:103524009F74061221568A0C8B0DE50C450D700311
:103534000236B18020851882851983E088828983C8
:10354400F00508851882851983A3E0C0E01236F2DD
:10355400D0E0F00508E50A24FBFAE50B34FFFBC3D1
:10356400E5089AE49B40030236B17E007F00851291
:1035740082851383A3A3A3A3E0F50978091223C7C3
:10358400E4F514F51578141223C37514EE751502B9
:1035940078141223C39002EF1223DA740912218CD7
:1035A4001223DAE50A24F9F9AC0CAD0D85108285F5
:1035B4001183123D1D12090D7409122156E960038D
:1035C400023652850E82850F83A3A3A3A3A3A3A3CC
:1035D400E0F89002EEE0687075E0F5148E1578144A
:1035E4001223C3124CAE850E82850F83A3A3A3A31B
:1035F400A3A3A3A3123D1D1213C37402122156E9FF
:10360400604C9002F2123D4C703BE4F514781412B5
:1036140023C37CFF7DFF7907851082851183123DCA
:103624001D1208777402122156123D527017850E2E
:1036340082850F83124E4B740412218C12470C1294
:1036440040550236E5850C82850D831236E8A818AC
:10365400A9198814891578141223C3740412218CAF
:103664001223DA8516828517831239551207AB7433
:10367400041221568A0C8B0DEE4F700302352E1264
:1036840036F2EE1236FD12400BEF1236FDF8A3E0CF
:103694003400F9E50C450D600302353988828983CD
:1036A40074FFF005081236F274FFF00508E50860AF
:1036B4001A1313543F1239651204D5E960099002B4
:1036C400F2123D1D12143B79008016850E82850F7F
:1036D40083124E4B740412218C12470C12437479DA
:1036E4000A023FDEA3A3A3A3E0FEA3E0FF22A808EF
:1036F4009002F2E02812400B22F00508089002F232
:10370400E0282274E81221B074FA122140740212E3
:10371400218C12395F740412218CECF0A3EDF07447
:103724000212218CE02405123FF4E0F50CA3E0F52D
:103734000D740212218CE02402F510A3E03400F58C
:1037440011851082F583123D1D1205B975080075A7
:103754000900EA24FCFEEB34FFFF8008050CE50CAD
:103764007002050DA808C3EE98EF940050030239C7
:1037740011A818A919880E890F780E1223C385146D
:1037840082851583A3A3A3A3124CB51223C3E51406
:103794002405F50EE43515F50F780E1223C38514B0
:1037A4008285158312395312079F74061221568A93
:1037B4000E8B0FEA450F7003023911EA2404F51643
:1037C400E4350FF517851682F583E0F50CA3E0F5D3
:1037D4000D851882851983124CB18A828B83A3A329
:1037E400A3E0F9851082851183123D1D12078DE92E
:1037F400F5096003023911740212218C12401BF581
:103804000978091223C7E4F512F51378121223C3B9
:103814007512EE75130278121223C39002EF12236D
:10382400DA740712218C1223DAEEF9AC0EAD0F858F
:103834001082851183123D1D12090D74091221563F
:10384400E9F5096003023911E508703FE4F50EF566
:103854000F780E1223C37CFF7DFF790985108285C2
:103864001183123D1D120877740212215612404131
:10387400700D740412218C12394879110239459063
:1038840002EEE024029002F2F080149002F2E0FAD8
:103894009002EEE0790024025001096A497072A88E
:1038A400089002EEE0FAE82AFAE43400FBEE9AEF1C
:1038B4009B405A851682851783E0C0E09002F3127C
:1038C40036F7D0E0F00508851682851783A3E0C09B
:1038D400E0089002F31236F7D0E0F005089002EE0B
:1038E400124CB51223C3124CAEA808123FE81213AF
:1038F400B174021221569002EEE02508F50874FF17
:10390400650C700474FF650D6003023760E50860A0
:103914001F9002F2E0F5F0E508841239651204DB29
:10392400E960099002F3123D1D12143B79008011E5
:10393400E509700375090A740412218C123948A927
:1039440009023FDE124183E50CF0A3E50DF022A34A
:10395400A3124F40AA0CAB0D22A3A3EAF0A3EBF0F1
:10396400229002F1F07CF17D028510828511831290
:103974003D212274EC1221B074FC122140124484C3
:1039840074021221A6123D171207A58A0C8B0DEAA8
:10399400450D7003023A4F123A5FA818A91988100E
:1039A400891178101223C37CFF7DFF790B8508826F
:1039B400850983123D1D1208777402122156123BA9
:1039C40055700C850A82850B83124052023A5C8E34
:1039D400828F83A3A3A3A3E0F51278121223C7E472
:1039E400F512F51378121223C37512F175130278C8
:1039F400121223C378101223C3740912218C1223C8
:103A0400DA740912218CE0F9AC0CAD0D85088285BD
:103A14000983123D1D12090D7409122156E9FE7025
:103A2400157CF17D02850882850983123D1D1204EF
:103A3400E1E97009802074166E70027E009002F233
:103A4400123D1D12143BEE7004800B7E01850A8228
:103A5400850B83124371EEF9024386EE2402F508C6
:103A6400E43FF5092274EC1221B074FC122140EAFF
:103A7400FEEBFF8C0E8D0FEE2405F508E43FF509EF
:103A840074021221A6850882850983123D1D12073E
:103A9400A58A0C8B0DEA450D7003023B45EE24020A
:103AA400F50AE43FF50BA818A919881089117810B4
:103AB4001223C37CFF7DFF790D123D171208777422
:103AC40002122156123B55700B8508828509831218
:103AD4004052807A8E828F83A3A3A3A3E0F5127849
:103AE400121223C7850882850983A3A31223DA75DA
:103AF40012F175130278121223C378101223C374BF
:103B04000912218C1223DA740912218CE0F9123D76
:103B14001312090D7409122156E9FE700F7CF17D10
:103B240002123D171204E7E97009802074166E70C2
:103B3400027E009002F2123D1D12143BEE700480CE
:103B44000B7E01850882850983124371EEF90243D5
:103B540086123D5CF510A3E0F511EA45112274E8E4
:103B64001221B074FE1221408A168B178C148D1505
:103B7400EA2405F50CE43517F50DEA2402F50EE404
:103B84003517F50F850E82F583123D1D1205B98A8E
:103B9400088B09750B007C037D0079007AF17B02A8
:103BA4001213C9750A00E50814F5100424FFF5087A
:103BB400E50934FFF50980549002F1E0FA9002EE31
:103BC400E0F8EA28F8E43400F9E50898E5099950A2
:103BD4000D9002F1E0F8E510C3989002EEF0E0F5E4
:103BE4001275130078121223C3124CAE9002F2E045
:103BF4002AFAA3E03400FB1213B174021221569086
:103C040002EEE0F89002F1E028F0050A850C8285C6
:103C14000D83A3A31246284003023CF89002F1E06E
:103C2400C39508E495094003023CF8AE0AEE2EFE63
:103C3400E433FF123D37AC18AD19124CC9E439FB1B
:103C44001207A58A128B13AC12AD13EC4D701B75C1
:103C54000B01123D271243759002F2123274600375
:103C640012143BA90B7402023FE085168285178368
:103C7400A3A3A3A3E0F50B780B1223C7E4F512F575
:103C84001378121223C37512EE75130278121223DD
:103C9400C39002EF1223DA740712218C1223DAA9DB
:103CA40010850E82850F83123D1D12090D740912B1
:103CB4002156E9F50B709B9002F2123D4C60030211
:103CC4003BBCE4F512F51378121223C37CFF7DFF8D
:103CD400790F850E82850F83123D1D1208777402B9
:103CE400122156123D526003023BBC123D27124082
:103CF40056023C697CF17D02850E82850F83123D5C
:103D04001D1204EDE96003023C5C7900023C69ACDD
:103D14000CAD0D850A82850B83123D2122E0FAA3A6
:103D2400E0FB22123D37E0FAA3E0F9EA851482852C
:103D3400158322850C82850D83E02EF8A3E03FF9DC
:103D440088828983229002EF124E4FE84922123D65
:103D54005CF8A3E0F9E849229002F2EAF0A3EBF060
:103D64009002F2E02274E81221B074FA1221407435
:103D74000412218C12395F8C168D17740412218C55
:103D8400E02405F50EA3E03400F50F740412218C31
:103D9400E02402123FF4123D1D1205B98A0A8B0B6E
:103DA4007F007E00A818A9198808890978081223B9
:103DB400C3850E82850F83A3A3A3A3E0F5088E0910
:103DC40078081223C3E50E2405F508E4350FF50938
:103DD40078081223C3850E82850F83A3A31240247F
:103DE40012079F74061221568A0C8B0D80291240EB
:103DF40015F00F124015F00F9002EE1243601223DB
:103E0400C3124CAEEFF8123FE81213B17402122140
:103E1400569002EEE02FFFE50C450D7003023EA420
:103E2400851882851983124496A3A3A3E0F9851407
:103E340082851583123D1D12078DE9FEE50C2404CD
:103E4400F510E4350DF511EE7050740412218C1246
:103E5400401BF50878081223C7E4F508F50978082B
:103E64001223C37508EE75090278081223C3900261
:103E7400EF1223DA740712218C1223DAE50A24FAEA
:103E8400F9AC0CAD0D851482851583123D1D120904
:103E94000D7409122156E9FE60391240311243743F
:103EA400EF7003023FCB9002F2E0F5F0EF84900252
:103EB400F1F07CF17D02851482851583123D1D127B
:103EC40004F3E960099002F3123D1D12143B7900DA
:103ED400023FDE8F08EF703BE4F512F513781212FF
:103EE40023C37CFF7DFF7911851482851583123DE0
:103EF4001D120877740212215612404170091240B3
:103F040031124055023FDE9002EEE024049002F2AA
:103F1400F080359002EEE0F89002F2E0FAE8240432
:103F2400FCE43400FDEC6A4D6003023EAAE50A2479
:103F3400FAFAE50B34FFFBE50828F8E43400F9EA63
:103F440098EB995003023EAA851082851183E0C044
:103F5400E09002F3E02FF8A3E034008882F583D0E8
:103F6400E0F00F851082851183A3E0C0E0124002C7
:103F7400D0E0F00F7402122196880889097808129B
:103F840023C3740212218C1223DA850E82850F83D7
:103F94001239531207AB74041221568A0C8B0DEAA2
:103FA400450D7003023DF2740212218CE0C0E01250
:103FB4004002D0E0F00F740212218CA3E0C0E012A2
:103FC4004002D0E0023DFAEE70027E0A850E828540
:103FD4000F83124037124374EEF974061221567F90
:103FE400100222829002F3E028FAA3E03400FB22BC
:103FF400F514A3E03400F515851482F583221240EC
:1040040006229002F3E02FFAA3E034008A82F583BB
:104014002212400674FF22124183A3A3A3A3E02229
:10402400124F40850E82850F83123D212285108216
:10403400851183124E4F851682851783229002F3D1
:10404400EAF0A3EBF09002F3124E4FE84922124338
:104054007AE8F0A3E9F079112274EA1221B074FE2F
:104064001221408A088B098C128D13EA2405FEE480
:104074003509FFAC18AD198E828F83123D1D1207CE
:10408400A58A0C8B0DEE2406F50EE43FF50FEA45E8
:104094000D7003024155E5082402F50AE43509F5DB
:1040A4000B8A828B83A3A3A3E0A2E5502885188200
:1040B400851983123D1D1209018A108B11EA4511DD
:1040C40060207912123D138510828511831221AE6E
:1040D400E9F50C707F850E82850F83E060097952C3
:1040E4008011750C0E806D850882850983A3A3A3B6
:1040F400A3E0F9E4F508F50978081223C38E828F4A
:1041040083A3A3E0F50878081223C38E828F83A3C8
:10411400A3A31223DA8E828F83124CB1123D17129D
:1041240009137406122156E9F50C7011850E828567
:104134000F83E0702D123D171204F9802574166563
:104144000C7011750C00741812218C12417FE480DC
:1041540010750C01124E47851282851383E8F0A373
:10416400E9F0850E82850F83E0600479008002A95E
:104174000C74021221567F0E02228212418322E025
:10418400F8A3E0F58388822274EC1221B074F7124C
:1041940021408A0A8B0B8C108D11EA2405FEE4352C
:1041A4000BFF750C00AC18AD198E828F83123D1D68
:1041B4001207A58A088B09EA4509700302434BE5F7
:1041C4000A2402F50A5002050B8A828B83A3A3A357
:1041D400E0A2E5502F851882851983123D1D12092E
:1041E400018A0C8B0DEA450D604F7912AC08AD09BC
:1041F400123D17850C82850D831221AEE9F50C6002
:104204000302434E850A82850B83E0F508A3E0F59B
:1042140009AA08FB1208F5EA4B70197AFF7BFF1212
:1042240008F5EA4B70030243418A828B83E508F068
:10423400A3E509F07508008008750C0E02434E05CD
:10424400089002EBE0F8E508C39840030243418577
:10425400080E750F007403780E12212D8A828B8349
:10426400A3A3E0250EF8A3E0350F12471570D08EF6
:10427400828F8312436912395F8E828F83A3A312C4
:10428400436912395DEE2404F508E43FF509850815
:1042940082F583E088828983A3A3A3A3F0A3E4F037
:1042A400EE2405F50EE43FF50F850E82F5831243E7
:1042B40069A3A3A3A312395D7512077513007812BD
:1042C4001223C3EEFCEFFD740412219E1213B17489
:1042D40002122156E4F51278121223C3850882854E
:1042E4000983E0FC7D007917123D171208777402E8
:1042F400122156740712218C12395F740712218C13
:10430400E0FA4B603D8508828509831243601223DD
:10431400C3850E82850F83124CB11213B17402123D
:10432400215674021221A6123D171204FFE96026D9
:10433400740712218C123D1D12143B8019750C094F
:104344008008750C118003750C01124E478510828C
:10435400851183124374A90C74098028E0F508754B
:104364000900780822123D21888289832212437A27
:10437400E8F0A3E9F022E0F8A3E0F9850E82850FC6
:10438400832274041221567F0C02228274EC1221BF
:10439400B0124484751000EE2402F50CE43FF50DD0
:1043A400850C82F583123D1D1208F58A088B09EAF3
:1043B40045097003024468850A82850B83E0640121
:1043C400600302445DAC08AD09AA0AAB0B1208E90C
:1043D400E9606E8508828509831236EAEE2406F5C3
:1043E4000AE43FF50B8E828F83A3A31223DA8E8215
:1043F4008F83A3A3A3A31223DA850A82850B8312D6
:1044040023DA79188E828F83124496123D1D120985
:10441400137406122156E9F8741668700B850A8223
:10442400850B83E4F0A38014E860128E828F8312DC
:104434003D1D850E82850F83EAF0A3EBF088108082
:1044440018780E1223C3AC08AD09EEFAEFFB12087C
:10445400EF7402122156E9F510AA08AB091208FB01
:10446400E510700E850C82850D83123D1D12050525
:104474008009741665107003751000A91002438B2F
:10448400EAFEEBFF8C0E8D0FEE2405F50AE43FF5F2
:104494000B22124F40850C82850D832274EA12216F
:1044A400B07508007509007E007F00750A00EC24D1
:1044B40002F510E43DF5118035EC65087003ED65F7
:1044C40009600302455588828983A3A3E06A7003C7
:1044D400A3E06B707C88828983A3A3A3A3124E4BB1
:1044E400EE28FEEF39FFEA28FAEB39FB050A1246FB
:1044F40025503A850A0C750D007403780C12212D91
:10450400851082851183124618124715601FE5082D
:10451400450970A58C088D09888289831236E8883C
:10452400828983A3A3E02EFAA3E03F80BEE50AC3F9
:1045340094025003024613750800750900EE4F609B
:1045440010EEFAEFFB1214358A0E8B0FEA450F704A
:10455400057900024615750B000245E8850B0C75BC
:104564000D007403780C12212D851082851183E0CF
:10457400250CF50CA3E0350DF50DE50C2406F5141A
:10458400E4350DF515851482F58312471A6042E56A
:104594000C2404F512E4350DF513851282F583120B
:1045A40023DAE50E2508FAE50F3509FB1213B17479
:1045B40002122156851282851383E02508F508A38B
:1045C400E03509F509851482851583123D1D121401
:1045D4003BE50B600D7C087D007900AA0CAB0D1245
:1045E40013C9050BE50BC3950A50030245608510FA
:1045F40082851183124E4B88828983A3A3A3A3A32C
:10460400A3E50EF0A3E50F12327BEEF0A3EFF079F1
:104614000102417A12461C22E0250CF8A3E0350D74
:10462400229002EBE0F8E50AC3982274F01221B05C
:104634008A0E8B0F8C0A8D0B750D00750C00805043
:104644007916EE2406F508E43FF5098E828F83A3DC
:10465400A31223DA8E828F83A3A3A3A31223DA8562
:1046640008828509831223DA850E82850F83A3A32A
:10467400123D1D1209137406122156E9F50D741624
:10468400650D706C850882850983E4F0A3F0050C40
:104694009002EBE0F8E50CC3985066AA0C8A087502
:1046A40009007403780812212D850A82850B83A3DF
:1046B400A3124764E8FEE9FF8E828F8312471A60D3
:1046C40040EA2401F508E43400F5099002EBE065C2
:1046D400087002E509601488828983A3A3A3A3A3B5
:1046E400A3A3A3123D4C6003024644791802464634
:1046F400E9609B124E47741012218C12470C12432E
:1047040074A90D7F08022282E0FAA3E0F5838A826D
:1047140022F988828983124F40EC4D2274F61221CB
:10472400B07C0080010C900348E0F8ECC398501E64
:104734008C087509007402780812212D124759E07B
:104744006A7003A3E06B70DDE8FAE9FB80047A0089
:104754007B000247FC9002E9124764888289832225
:10476400E02508F8A3E03509F92274F21221B08A91
:10477400088B09750A0080278E828F83A3A3A3A3C5
:10478400123272600312143B7C087D007900EEFA49
:10479400EFFB1213C98E828F83E4F0A3F0050A1293
:1047A40046255027850A0C750D007403780C1221D8
:1047B4002D850882850983A3A3E0250CFEA3E0359B
:1047C4000DFF8E828F83123D4C70AD850882850962
:1047D4008374FFF0A3F0024F3474F61221B0120870
:1047E400A78A828B83E582458370067A007B0080EA
:1047F40007A3A3A3A3123D1D7F0202228274F41215
:1048040021B089088C828D83E06402703C124DEAE9
:10481400FEA3E0F9EEF87402687003742969702944
:10482400750A02750B00780A1223C3741012218CC6
:104834001223DA741012218C1223DAA908121249F5
:104844007406122156E9F9800279010232AF74E844
:104854001221B074FB122140E9851882851983F076
:104864008A168B17ECFEEDFF7510008E828F83A3E2
:10487400A3A3E0A2E4502D741D12218C123D1D123D
:1048840009018A828B83E58245837003024C89790E
:104894000AEEFCEFFDAA16AB171221AEE9F5106083
:1048A40003024C8C741F12218CE0F508A3E0F50977
:1048B400742112218CE0F50AA3E0F50B7423122174
:1048C4008CE0F50EA3E0F50F8E828F83E064026026
:1048D40003024C2AA3124E4B850882850983A385C3
:1048E4008212858313EE2406F50CE43FF50D8882CD
:1048F4008983124CC9F514E439F515781412244D42
:104904000100002801282C4907000228F149032846
:104914005F490029204B01294B4B0229EC4A03290A
:10492400204B0429C44B2A4CE50E450F6003024C6E
:1049340025850C82850D83124E4BE8FAE9FB8A82A9
:104944008B83E0850A82850B83124CD41223C38A9D
:10495400828B83A3E0FCA3E0024BAEE50E450F601F
:1049640003024C25850A82850B837401F0124CBE28
:10497400850882850983F07C007D008E828F83A365
:10498400A3A3A3E02401FAA3E03400FB1207A5EAE1
:104994004B60408A828B83E02402F8850A82850B6F
:1049A40083E028F0EA2404F8E43BF988828983E070
:1049B400851282851383124CE2124CD41223C38ACB
:1049C400828B83A3124CB1E5082403FAE43509FB76
:1049D400024BB3850A82850B83E02404F07C047DBA
:1049E400007900AA12AB131213C9024C8CE50E45D0
:1049F4000F6003024C25124CBEFEA3E0FF850A8221
:104A0400850B837404F0EE850882850983F0EF85B5
:104A14001282851383F074031221A6EEFAEFFB12BF
:104A240007A58A0C8B0DEA450D7003024ACF8A82D2
:104A34008B83A3A31236E87401122196880E890F82
:104A4400780E1223C3740512218C1223DA7CFF7DA5
:104A5400FF1207AB74041221568B0FEA450F703313
:104A6400850C82850D83124CB51223C3850C828577
:104A74000D83A31223DA7C027D007A837B911205D5
:104A8400A77404122156E9700A740112218C74FF70
:104A9400F0A3F08E828F83E064027039750C027586
:104AA4000D00780C1223C38E828F83A3124CB1E5C0
:104AB400082404FAE43509FB1213B17402122156D6
:104AC400850A82850B83E024028009740112218CFB
:104AD400EEF0A3EFF0740112218C124CA3740112B6
:104AE400218C124C9A024C1FE50E450F6003024CB8
:104AF40025850C82850D83124F39AA16AB17121225
:104B04004F850A82850B837402F0850882850983A8
:104B1400EAF0851282851383EB024C22E50E450FE1
:104B24006003024C25124CBEF8A3E0F9850A828585
:104B34000B837402F0E8850882850983F0E9851205
:104B440082851383024C22850C82850D83123D1DC0
:104B54001213ABEAFAF8C3950EE4950F405CE865CE
:104B64000E450F70047A008021851882851983E030
:104B7400FCE50E2CFCE4350FFDC3EC98ED940050DD
:104B840003E08005E50ECAC39AFAEA850A82850B1A
:104B940083F08A0A750B00780A1223C3850C828578
:104BA4000D83E0250EFCA3E0350FFDAA08AB091226
:104BB40013B17402122156024C8C751007024C8CEE
:104BC400E50E450F705B850C82850D83124E4B8577
:104BD4000A82850B837407F088828983124C9B12A6
:104BE4004C93E0851282851383F0E82402FAE439B9
:104BF400FB8A828B83124CA38A828B83124C9AA3E6
:104C0400A312327A124CA8F0E82405F8500109885E
:104C1400828983124CA8A3124CE2A3A3A3A3F0801D
:104C24006775100B8062741D12218C123D1D1208D1
:104C3400A78A828B83E5824583604A124E4B880C97
:104C4400890DE8450D603E742512218CE0F510783D
:104C5400101223C7780E1223C3780A1223C37808CC
:104C64001223C3740712218CE0F9EEFCEFFDAA169F
:104C7400AB17850C82850D831221AE740712215661
:104C8400E9F510800375100EA9107405023FE0F0D9
:104C940088828983A322A3E085088285098322125E
:104CA4004CE9F022124CE9A3A3229002EF124F40E8
:104CB40022E0F50E750F00780E22850C82850D8397
:104CC400124183E022E0FAA3E0F8E4C8F9EA2822DA
:104CD400F08A828B83E0F50A750B00780A22124C65
:104CE40093124CE922E0850882850983A3A32274E8
:104CF400EE1221B074FE1221408A088B09ECFEEDFD
:104D0400FF890AAC18AD19EEFAEFFB1207A58A0C5D
:104D14008B0DEA450D7003024DDB851882851983DE
:104D2400123D1D1208A78A828B83E5824583700396
:104D3400024DD6A3A3124E4B880E890FE8450F707F
:104D440003024DD6741412218CE0F510A3E0F51182
:104D5400E50AF50B780B1223C7741912218C122360
:104D6400DA78101223C3741B12218CE0F9AC0CAD59
:104D74000DAA08AB09850E82850F831221AE740536
:104D8400122156E9F50B705274FE650A604C850CCD
:104D940082850D83E064027041124DEAFAA3E0F9C2
:104DA400EAF87402687003742969702E851082858C
:104DB4001183124CC9F50CE439F50D780C1223C398
:104DC400EEFCEFFDAA08AB0912092B74021221565E
:104DD4008008750B0E8003750B01A90B7402122158
:104DE400567F0A022282A3124E4F88828983E022D0
:104DF40074F61221B074FE122140740C12218C122C
:104E04004E4BE8851882851983F0740112218CE9D0
:104E1400F0E4F508F50978081223C3750802780848
:104E24001223C3740412219688088909780812236E
:104E3400C379FE1209137406122156740212215604
:104E44000247FC8E828F83124E4F22E0F8A3E0F9D2
:104E54002274F71221B0EAFEEBFF890890030612D0
:104E64004CB112124FEA5402600BA908EEFAEFFBA0
:104E7400120799800279017F0102228274F21221C1
:104E8400B074FE122140EAFEEBFF890A7401650A40
:104E940060147402650A6003024F2F7901120B3506
:104EA400E96003024F2FEEFAEFFB1208F5EA4B60BC
:104EB400031208FBA818A91988088909780812237D
:104EC400C375080275090078081223C375087D7537
:104ED400099178081223C37CFF7DFF7A017B0012BD
:104EE400079F74061221568038850882850983A39A
:104EF400A3A3A3A3A3124F39EEFAEFFB121237E4D4
:104F0400F50CF50D780C1223C3740212218C1223B4
:104F1400DA7CFF7DFFAA08AB091207AB74041221E7
:104F2400568A088B09E508450970BE740212215699
:104F34007F06022282124183124F4022E0FCA3E04A
:104F4400FD2274F41221B08A088B09ECFEEDFF9067
:104F540017FEE0F4604B7A097B001213DBEA4B6026
:104F6400408A828B8374B1F0A3E4124FA8F08A8242
:104F74008B83A3A3E508F0A3E509124FA8A3EEF0E1
:104F8400A3EFF0740C12218C124E4B8A828B83A3F4
:104F9400A3A3A3A3A3A31243749017FEE0F91213CF
:104FA400E70232AFF08A828B83A3A3A3A32274F017
:104FB4001221B074FA1221408909ECFEEDFF750844
:104FC400008A0A8B0B780A122407000410D851F5C2
:104FD4004F13502D50455063507B509E50B650CACD
:104FE40050F4506F5180519751B251D851D8510A51
:104FF400517401650960030251D38E828F83E0F8F6
:10500400C3940340030251D3E89018EA0251AF74E9
:1050140002650960030251D38E828F831259369040
:1050240018EBE8F0A3E90251AF74016509600302CB
:1050340051D312520040030251D3E890072C02517D
:10504400AF7401650960030251D38E828F83E0F847
:10505400C3940540030251D3E890072D0251AF7465
:1050640001650960030251D312520040030251D377
:10507400E890072E0251AF7410650960030251D302
:10508400750A10750B00780A1223C37A2F7B071256
:1050940013B174021221560251F9740165096003B7
:1050A4000251D312520040030251D3E890073F0249
:1050B40051AF7401650960030251D38E828F83E07E
:1050C4009018EE0251AF7404650960030251D38E47
:1050D400828F83780C1220049090ED780C1216586D
:1050E40050030251D3900741780C1220130251F956
:1050F400E960030251D312073FE970051211FB80E6
:10510400559007D480617407650960030251D37513
:105114000A06750B00780A1223C38E828F83A3AC10
:1051240082AD83740212219E1213B77402122156A7
:105134007C007D00AA18AB198E828F83E0F91211CE
:10514400A7E9FEC3940A40030251F612073FE9702F
:105154000CEEF912120179501214F5806D74D52EEB
:10516400F582E43407F583740180407401650970A5
:105174005E1252005059E8900740802F740165096F
:10518400704D8E828F83E0F8C3940A5042E89018E1
:10519400ED80187401650970368E828F83E0F8748F
:1051A400F928C3940A5028E89018EFF08047740156
:1051B4006509701B9007D3E0F88E828F83E0900717
:1051C400D3F0E87030E06401702B1211EF80267583
:1051D40008188021C3EA9427EB94005015740265E3
:1051E40009700F8E828F831264161205BFE9F508C9
:1051F4008003750802A90874060255248E828F83E1
:10520400E0F8C3940222A90880031221567F040205
:10521400228274F01221B074B11221408C0A8D0BD9
:105224009090AE74201221A674061220537420129A
:1052340021A61211A7E9FF745F12218CE0F509EF92
:10524400C3940A400302539875F006EFA4F508745A
:10525400411221A67A0E74202508F91214EFE97080
:1052640009744D12218CE0FE80027E009018EAE061
:1052740064027005750E018003750E0074086509DB
:1052840070047422800274212508F50D7C1B7D00B6
:105294007900742612219E1213C974261221A67A4B
:1052A4001BA90D1214EFE9702D744012218CE02417
:1052B400F9C3940A5020E50EF50D780D1223C77436
:1052C400271221A6EEA2E0E433F9AA0AAB0B1206D8
:1052D4006174011221567C147D007900740C122132
:1052E4009E1213C9740C1221A67A1074242508F98D
:1052F4001214EFE970347C1079FF740C12219E12A1
:10530400142FE97025741C12218CAC82AD837A04AD
:1053140074252508F91214EF740C1221A6EEA2E0EC
:10532400E433F9AA0AAB0B120649AC18AD197A0C8E
:1053340074702FF91214EFE97049AA18AB191211FD
:10534400D77F00EF75F003A4F8A9F08518828519BA
:1053540083E58228F8E583125AED125CCE601D883D
:10536400828983A3A3E0F50E750F00780E1223C380
:10537400AA0AAB0B12091974021221560FEFC39437
:105384000440C0EEA2E1500C90072BE0F9AA0AAB4E
:105394000B12091F7404650970289018EAE064026E
:1053A40070207A0090073FE060027A0190072CE0B9
:1053B4006004780480027800E84AF9AA0AAB0B1268
:1053C40007157900744F02552474F71221B012079F
:1053D4003FE9704F9007D4E0640170151211FB90FF
:1053E40007D4E4F07C0AFDF97AD57B071213C9804F
:1053F4002A750800A80874D528FEE43407FF8E82B5
:105404008F83E06401700BA9081212018E828F83CE
:10541400E4F00508E508C3940A40D979501214F55C
:105424001211EF025E0574F01221B074F0122140E3
:10543400EAFEEBFF8C088D09750A0AE9600C14601A
:105444000914603B14607D0255201211E9E9F50A44
:10545400C3940A4003025520E50845097003025528
:1054640020750C06750D00780C1223C3EEFCEFFDBD
:10547400AA08AB091213B174021221560255207501
:105484000C00750E06750F00780E1223C3EEFCEFA8
:10549400FDE50C75F00EA4F8A9F0744D28FA740714
:1054A40039FB1213C37402122156E9700B050CE583
:1054B4000CC3940A506680CA850C0AE50AC3940A90
:1054C400505A8049750C00AC18AD197A1075F00665
:1054D400E50CA42423F91214EFE9701C7C1079FF65
:1054E400AA18AB1912142FE9700EEEFCEFFDAA18DE
:1054F400AB19120625E9600B050CE50CC3940A50A0
:105504001B80C4850C0AE50AC3940A500FE50845BC
:10551400096009AA08AB09A90A1211E3A90A7410BF
:105524001221567F0802228274F41221B08909756F
:10553400081574FF6A700374FF6B70277E00AC0952
:105544007A027B00EEF91211C5E960037508000EBA
:10555400EEC3940A40E8E50960537A137B12120BF8
:1055640059804A120B298A0A8B0BAE0AAF0BEE4FF5
:1055740060387C007D00EE2405FAE43FFB8E828FC8
:1055840083A3A3A3A3E0F91211A7E9F9C3940A50D2
:105594000CAC097A027B001211C5750800E509609C
:1055A4000CEEFAEFFB121213800375081402520A70
:1055B40074F21221B0ECFEEDFF750815740E122181
:1055C4008CE0F50AA3E0F50B74FF6A700374FF6BBB
:1055D4007021750900AC0AAD0BEEFAEFFBA90912B4
:1055E40011CBE960037508000509E509C3940A5065
:1055F4003F80E2120B298A828B83E5824583602DEA
:105604007C007D00E5822405FAE43583FBA3A3A393
:10561400A3E0F91211A7E9F9C3940A5013AC0AAD37
:105624000BEEFAEFFB1211CB75080080037508141A
:10563400A9087F06022282C082C083900745EAF04F
:10564400A3EBF090072BE0FC7D007A267B0012058B
:10565400BF90072BE0F912088302611F74EE122138
:10566400B074EC1221408A088B09EA240CF510E48A
:105674003509F5118A828B83A385820C85830DEA13
:105684002405F50EE43509F50FEA2409F50AE43595
:1056940009F50BEA2403FEE43509FF8A828B83A310
:1056A400A3E024FA700302592424FD700302584431
:1056B40014700302573E14601024FD70030258272F
:1056C40014700302587C02592A12641C6044E0F5E9
:1056D400838882125936880C890DE8450D6033851C
:1056E4001082851183E0F50E780E1223C7EA240B8D
:1056F400F582E43509F583E0F91264100A0A0AEF29
:10570400FB850C82850D831221AE74011221560291
:10571400592A850A82850B831223DA9007411220C5
:105724002212065B7402122156E9700302592A7987
:1057340001850A82850B830258F4750A00850C8260
:10574400850D83E060030257F4850E82850F83E0A4
:10575400A2E040030257F49007DF12641F600302C3
:1057640057F47C0E7D007900AA18AB191213C98571
:1057740010828511831260EAEA4B6010750A06757F
:105784000B00780A1223C3EA2410801B1260E6126D
:105794000B29EA4B700302592A750A06750B007827
:1057A4000A1223C3EA2405FCE43BFD740212219E81
:1057B4001213B17402122156850E82850F83E0A262
:1057C400E25004D2F08002C2F0A2F0E433F8740C88
:1057D40012218C12629E1211DDE970117A027B0093
:1057E40090072BE0F912140B790002592C750A1555
:1057F40012641C700302592A12594B700302592A6D
:10580400850C82850D83E0FC790112593C1221AE8E
:10581400E50A700302592AFC79031260E61260A1BA
:1058240002591F12641C700302592A12594B700347
:1058340002592A850C82850D83E0FC790202591CE9
:105844007C007D00EA2404FAE43509FB8E828F8310
:10585400E0F91211A7E9F8C3940A400302592AE5B2
:1058640008240AFCE43509FD7A0475F006E8A4244A
:1058740025F91214E902592A1260E6900740E06003
:10588400079018EDE0F9806B9018EAE07004790550
:105894008061120B298A0C8B0DA80CA90DE84970A4
:1058A4000302592AE82404F50CE439F50D8508822D
:1058B400850983A3A3A3A3A3A3A3E0A2E0503985EE
:1058C4000C82850D83E0F508602E850A82850B83A2
:1058D400A3E054027022740E1221A6E82405FAE40F
:1058E40039FBA9081211A7E9700E79038E828F8300
:1058F4001260EA120655802EAC0EAD0F850C82851F
:105904000D83E0F91260E612121F12641C60171274
:10591400594B60127C00790012593C1221AE80066A
:105924001260E61211A1790174141221567F0A0241
:105934002282E0F8A3E0F9228E828F83E0FAA3E0CA
:10594400FB8882850983221260AFF98909E8450939
:105954002274F51221B074F2122140EAFE8C0A7509
:10596400F006E9A42420F508AC18AD197A0EF91252
:1059740014EFE970467C0679FFAA18AB1912142FAC
:10598400E97038740C12218C1260EAEAF8E50A60B6
:1059940005EEC8488004EEF4C858F8EA687001EBD4
:1059A4006015740C12218CE8F0A3E4F0AC18AD1966
:1059B4007A0EA9081214E9790180027900740E1292
:1059C40021567F0302228274F21221B074E612215E
:1059D40040890A8A088B09ECFEEDFF740C1221A69B
:1059E4007A0E75F006E9A42420F91214EFE9600395
:1059F400025AB07C0679FF740C12219E12142FE90E
:105A04006003025AB07470250AF50BAC18AD197A0C
:105A14000CF91214EFE96003025AACAA18AB19127C
:105A240011D7E5084509701D7C0C7900AA18AB193B
:105A340012142FE970727C0C7D007900AA18AB193E
:105A44001213C98051AC18AD19AA08AB091211D1AF
:105A54008A0C8B0DA80CA90DE8497022EE4F604CFE
:105A6400AC18AD197A007B001211D1EAF8EBF9EA0F
:105A74004B603988828983E508F0A3E509F0125B5D
:105A840029FAEE6A7001EF601FEEF04F7008888209
:105A94008983E4F0A3F0AA18AB191211D7AC18AD9E
:105AA400197A0CA90B1214E9790180027900741A8D
:105AB40012215602563674F71221B07E00EE75F0AC
:105AC40003A4F8A9F0EC28F8ED125AEDE06A70038B
:105AD400A3E06B7006E8FAE9FB800B0EEEC39404B6
:105AE40040DB7A007B00025E0539F98882898322D3
:105AF40074F71221B07C00EC75F003A4F8A9F0EA65
:105B040028F8EB125AEDE0F4FEA3E0F4FF88828952
:105B140083EEF0A3EFF0125B29F4F00CECC39404D1
:105B240040D5025E05E82402F582E439F583E022DB
