:020000040000FA
:060000000201070221A924
:03002B000225F6B5
:03003B0002261C7E
:030043000225A1F2
:0300530002221F67
:03006B000225C7A4
:10008300021FFFE5C754F84401F5C77901220000B8
:100093000080FB120086B900030200F1E4792178A5
:1000A30008B800028004F709D8FCE479297802B87B
:1000B30000028004F709D8FCE490028178317915B5
:1000C3008002F0A3D8FCD9FA7AB17B169001377875
:1000D300BA79038015E493A3AD82AE838A828B83BE
:1000E300F0A3AA82AB838D828E83D8E9D9E7758288
:1000F3008E7583BE74031201197582917583007422
:100103000012011975D00075813F751881751902A8
:10011300759F00020096C09FF59FE473D09F22D085
:1001230083D082C09FE493C0E0740193C0E0740263
:1001330093F59F22FF0000B4000028002800283018
:1001430075A000A000A000A00000080008E001F0D6
:10015300001000100010001000100010005000509C
:1001630000500010001000D0070000000000000F36
:100173000001000500307507001000010081FF0039
:10018300000000FFFFFF1206300618065406FF02A8
:10019300020208025000A0000000E80302EB9001F5
:1001A3000000D59002E3900100000C1702F19001CA
:1001B3000000BF0202E3900100000D1702E7900167
:1001C3000000D50202E3900100000E1702E5900142
:1001D3000000D70202E3900100000F1702E190082C
:1001E3000000D80202E390010000101702DB900127
:1001F30000001117FF0100FF2002EB90010000D85F
:100203009002E390010000751702DD9000000000EA
:100213000002DF9003000006031700020D020D0227
:100223000D020D020D020D020D020D020D020D0253
:100233000D020D020DDE0FF00FD80F0202020202B3
:1002430002020202010D000000100102EB90010006
:1002530000299002E390010000B817020591010004
:1002630000230702E390010000B917020391010084
:1002730000E88F02E390010000BA1702FF9001002B
:1002830000BF8F02E390010000BB1702FD90010045
:10029300005D8F02E390010000BC1702FB90010098
:1002A30000278F02E390010000BD1702F9900100BF
:1002B30000158F02E390010000BE1702F7900100C2
:1002C300004B8F02E390010000BF1702F59001007D
:1002D30000CD8F02E390010000C01702F3900100EC
:1002E30000C11701E8030577100AFFFFFF00013083
:1002F300750302010600000000000000000000007A
:1003030000000000000000000000000000000000EA
:1003130000FFFF0600800CE8030A0943433235342B
:1003230030424C45051250002003020A0002010628
:100333000302F0FF53696D706C6520424C452050F9
:1003430065726970686572616CB2140000B814104C
:10035300436861726163746572697374696320349D
:10036300000A50756C736553656E736F72000000FD
:100373000000000A0100000000000000000000006F
:10038300000000004543470000000000000000009B
:10039300000000000002EB90010000D29002E39005
:1003A300010000CC18020B91000000AC1602DF9094
:1003B300030000AD1602EF90010000CD1802E39098
:1003C300010000DE18020D91030000AF1602EF904A
:1003D300010000DF1802E390010000F01802019110
:1003E300030000F11802EF9001000001191201222D
:1003F300859403120122989403120122C9940312D3
:1004030001220395031201225C9503120122A39595
:1004130003120122EB95031201221A960312012201
:10042300499603120122809603120122C7960312F2
:100433000122E096031201223597031201224E97FF
:10044300031201229C9703120122D6970312012261
:1004530001B60212012204B7021201223DB70212B1
:10046300012260B70212012272B702120122B0B751
:10047300021201222CB802120122F4B80212012244
:1004830016B902120122ADB902120122FFB90212FA
:10049300012230BA021201223DBA02120122A7BA86
:1004A30002120122FEBA0212012201BB0212012230
:1004B3003ABB021201223DBB0212012247BB0212C8
:1004C30001229BBB02120122DCBB021201220FBCE0
:1004D300021201224CBC021201224EBD0212012261
:1004E300F2BD021201225BBE0212012299BE021268
:1004F3000122A48C03120122CC8C03120122F98C59
:1005030003120122318D031201228F8D0312012266
:10051300DB8D03120122428E03120122828E03120B
:100523000122BF8E03120122ED8E03120122978F47
:1005330003120122A18F03120122AE8F03120122A3
:10054300E18F03120122ED8F0312012205900312A2
:1005530001220F9003120122E5BA03120122F3BA1A
:10056300031201220BBB0312012222BB031201223D
:10057300F3C7011201229DC801120122B0C9011261
:1005830001222CCA011201224ACB0112012286CB7D
:100593000112012221CC0112012205CD01120122F7
:1005A300D1CD011201225FCF01120122D0CF01125E
:1005B30001228AD0011201227CD101120122BCD175
:1005C3000112012270D201120122A2D201120122D0
:1005D30098D401120122DAD401120122F8D40112B3
:1005E30001225ED5011201222DD601120122F1D67C
:1005F3000112012210D901120122C2CE02120122DC
:10060300ACCF0212012257D002120122A8D002124B
:10061300012258D102120122C9D102120122AED203
:1006230002120122E2D202120122DBD302120122C0
:1006330018D402120122F4D40212012233D5021279
:1006430001224FD50212012293AF0312012217B0E8
:100653000312012242B0031201225CB103120122F0
:100663009D9003120122B39003120122D190031231
:100673000122E29103120122EC910312012217934A
:10068300031201220E94031201227B94031201220E
:100693001EDB021201224EDC0212012285DC021251
:1006A3000122CFDC0212012292DE021201221391F7
:1006B300011201229F9101120122039301120122CF
:1006C3000F93011201224A9301120122B9930112DD
:1006D3000122C29401120122CB95011201229296AA
:1006E30001120122EF97011201220D98011201223A
:1006F3002A9801120122D79801120122549901125A
:1007030001227C9901120122469C011201224B9C79
:1007130001120122649E01120122B29E01120122E2
:10072300229F01120122609F011201223CA00112AB
:100733000122FCA00112012248A1011201224BA1B6
:10074300011201228FA101120122D7A1011201225C
:1007530016A20112012238A2011201226CA2011277
:100763000122CFA20112012261E0021201226FE0F5
:1007730002120122C2E002120122E1E0021201226E
:1007830026E1021201226AE20212012205E30212A9
:10079300012249E30212012273E302120122E2E37E
:1007A3000212012228E4021201229FE40212012212
:1007B30050E502120122902600120122A026001207
:1007C30001224127001201229D27001201225A28EB
:1007D30000120122762900120122A8290012012207
:1007E300D72900120122842B00120122FB2D0012B3
:1007F30001226B30001201225D31001201225632B8
:10080300001201225D34001201225137001201222D
:10081300803800120122843A00120122943B001214
:100823000122233D00120122143E00120122623EE6
:1008330000120122D13E00120122F53E00120122D4
:10084300463F00120122E74300120122E84400124E
:1008530001224945001201227445001201223A4641
:10086300001201225084031201225A84031201222E
:100873009F8403120122B3840312012243850312CE
:1008830001227C8503120122B78503120122E08530
:100893000312012234860312012249860312012224
:1008A3006B860312012280860312012294860312AF
:1008B3000122A98603120122E386031201220F8774
:1008C30003120122588703120122CA87031201224D
:1008D3000D88031201223788031201226288031252
:1008E30001220CB603120122C99802120122AC990B
:1008F30002120122279A02120122629A0212012293
:10090300B39B02120122419C02120122D39E0212C6
:100913000122859F0212012291A00212012204A248
:10092300021201225DA2021201220080031201229F
:10093300438003120122C780031201229E83031204
:1009430001221FAB03120122D1AB03120122CDAC52
:10095300031201220CAD0312012266AD0312012220
:100963008BB103120122EEB1031201228BB20312E7
:100973000122C0B203120122F0B2031201222BB3EF
:10098300031201224BB3031201221BEF02120122B5
:10099300A7EF0212012266F0021201227EF1021277
:1009A300012298F302120122458D021201226A8D5F
:1009B30002120122378E021201220B8F0212012230
:1009C300788F02120122B88F021201225490021270
:1009D3000122889102120122639202120122C29221
:1009E300021201224E9302120122BC93021201222F
:1009F3004894021201228E940212012200950212DF
:100A03000122929502120122339602120122539679
:100A1300021201229B9602120122E4960212012283
:100A2300009702120122269702120122A0970212B6
:100A33000122AE97021201223D9802120122A698CA
:100A430002120122CFF30212012254F402120122F4
:100A530096F4021201227AF502120122E7F502123C
:100A630001222BF6021201226FF6021201229CF6DA
:100A730002120122C4F602120122FCF60212012222
:100A83003AF70212012261F702120122DBF7021286
:100A9300012225F802120122FBB501120122A3B79C
:100AA30001120122D0B90112012224BA011201223A
:100AB3004FBA0112012221BB0112012265BB0112AF
:100AC3000122A9BB01120122BCBB01120122FDBB01
:100AD300011201222ABC0112012278BC0112012257
:100AE300B9BC01120122E7BC011201223ABD011275
:100AF3000122D1BD01120122BBC001120122D1C2C8
:100B0300011201220FC301120122A2C40112012208
:100B1300E7C40112012259C501120122AAC501121B
:100B23000122E4C501120122E9C50112012289C68D
:100B330001120122BFC701120122D0C701120122F3
:100B430006A30212012285A3021201227EA9021228
:100B5300012284AA02120122F7AB021201228EACF7
:100B630002120122405B00120122895B0012012262
:100B7300B65B00120122E85B00120122F55B001252
:100B83000122015C00120122135C00120122EE5CBF
:100B9300001201224C5D00120122815D001201222C
:100BA300B85E00120122055F00120122295F0012C4
:100BB3000122995F001201225A60001201221D6175
:100BC300001201228B6100120122486200120122ED
:100BD3005B6200120122D962001201226C630012CF
:100BE3000122936300120122FB63001201224C6471
:100BF30000120122A164001201224A65001201229F
:100C0300F56500120122A16600120122136700128A
:100C13000122676700120122C76700120122F767EA
:100C2300001201228D6800120122B2690012012212
:100C3300FA6900120122176A00120122366A0012B1
:100C43000122656A001201227A6B00120122006CF4
:100C530000120122256C001201223A6C00120122BB
:100C6300AD6C00120122EE6C001201220A6E00121A
:100C73000122AB6E00120122F96E00120122636F92
:100C8300001201227C6F00120122B8AC0212012271
:100C93000CAD0212012218AD02120122E2AD0212C2
:100CA30001220FAE021201223DAE02120122A9AEB1
:100CB30002120122DFAE0212012218AF0212012238
:100CC30030AF0212012285AF021201229EAF02123F
:100CD3000122E3AF02120122F6AF0212012210B089
:100CE3000212012226B00212012244B10212012291
:100CF3006FB20212012259B30212012248B4021246
:100D03000122EF7F001201220080021201222F80B4
:100D130002120122F583021201224C8502120122E2
:100D23001286021201229187021201225B880212AB
:100D33000122AD8802120122C78802120122F9881A
:100D4300021201220489021201224D890212012298
:100D5300568902120122028A02120122DB8A02123E
:100D63000122228B021201228A8B02120122CC8BD6
:100D730002120122FA8B02120122358C0212012285
:100D8300A7A30112012225A7011201222BA70112F9
:100D9300012280AD01120122CAB101120122B0B5B4
:100DA30001120122DA9B03120122509C0312012239
:100DB300669C03120122F69C03120122339D031247
:100DC30001226D9D03120122A79D031201221A9E87
:100DD300031201225B9E03120122649E031201226D
:100DE300709E031201228F9E03120122B99E0312E9
:100DF3000122CE9E03120122119F031201225CEAFB
:100E0300021201226FEA0212012289EA021201226E
:100E1300B6EA02120122FCEA021201222FEB0212AD
:100E230001226DEB02120122D2EB02120122E7EB47
:100E330002120122F2EB02120122FFEB0212012243
:100E430016EC0212012224EC021201222FEC0212F0
:100E530001223BEC021201224EEC0212012259EC58
:100E6300021201227CEC0212012220ED0212012265
:100E730030ED021201224AED0212012267ED021245
:100E8300012282ED02120122A7ED02120122B2ED2C
:100E930002120122C7ED02120122DBED021201222E
:100EA3003CEE0212012242EE0212012248EE02122D
:100EB30001224EEE0212012266EE0212012299EE87
:100EC300021201225DE701120122F4E7011201225D
:100ED3008CE8011201227CE901120122B3E901121B
:100EE3000122C6E90112012234EA01120122CFEBE9
:100EF30001120122F6EB0112012298EC01120122E8
:100F0300CDEC01120122DEEC0112012257ED011298
:100F1300012278ED0112012290ED01120122E8EE87
:100F230001120122F1F00112012241F30112012207
:100F330044F40112012293F401120122AC6F001256
:100F43000122A970001201229471001201229E71E4
:100F530000120122C07100120122CC710012012281
:100F63001E73001201224D73001201227D740012C0
:100F73000122BF7400120122EB7500120122C17617
:100F8300001201221377001201227277001201224C
:100F9300A97700120122E477001201227F7B00125D
:100FA3000122987B001201221A7C00120122287C64
:100FB300001201227D7C001201228B7C001201228F
:100FC300F87C001201226A7D00120122B07D00121A
:100FD3000122E0F40112012202F501120122ECF6D2
:100FE3000112012291FA01120122D4FB0112012202
:100FF300AEFC01120122397E001201225E7E001234
:101003000122CF7E00120122BFBE02120122C8BEFE
:1010130002120122D1BE0212012202C002120122D7
:1010230021C20212012257C20212012291C20212EC
:101033000122C7C20212012201C30212012235C3D7
:101043000212012261C302120122AAC30212012267
:10105300E4C3021201222CC40212012282C402122E
:101063000122B7C40212012212C5021201224CC589
:10107300021201229DC502120122D3C502120122CE
:101083000DC6021201223BC6021201225EC60212E3
:10109300012271BC031201229DBC03120122F8BC80
:1010A3000312012202BD0312012212BD0312012207
:1010B300E6FC021201220DFD0212012237FD02128B
:1010C3000122B4FF02120122A646001201220A499C
:1010D30000120122C14A001201221E4B00120122FA
:1010E300204C00120122A84C001201222F4D0012A5
:1010F3000122544D00120122495000120122BF5017
:1011030000120122AE5100120122E8510012012205
:10111300285200120122C853001201221D5400124A
:1011230001226A5400120122D85400120122FE54F3
:10113300001201221855001201222E56001201221C
:101143003E5600120122C45700120122E457001236
:1011530001221A58001201229E5900120122DD5960
:10116300001201221B5B0012012265F80212012208
:10117300BDF80212012205FA0212012274FA0212C8
:10118300012223FB0212012242FB0212012296FBDF
:1011930002120122D4FB02120122B2BB031201226A
:1011A300C3BB0312012266BC03120122E1BE031278
:1011B300012220BF03120122BABF031201221CBD68
:1011C300031201222CBD0312012247BD0312012287
:1011D300AFBD0312012220B703120122A4B70312E9
:1011E30001220AB803120122F7B4031201221EB529
:1011F3000312012274B503120122C6B503120122A0
:101203007AA8031201228FA80312012293A90312C1
:10121300012207AA0312012221AA0312012238AADA
:10122300031201224BAA0312012263AA0312012211
:1012330078AA0312012299AA03120122EAAA03122D
:1012430001223E9803120122559803120122CE98DF
:1012530003120122A39903120122759B0312012297
:101263007CA2031201220EA3031201228CA30312F8
:10127300012213A403120122A5A403120122FCA438
:101283000312012206A50312012215A5031201224E
:101293002BA5031201223EA5031201229FA50312CF
:1012A3000122B3A5031201220BBA031201225EBA73
:1012B30003120122AEBA03120122CFBA0312012292
:1012C300DABA031201221AB90312012243B9031233
:1012D30001226CB90312012284B903120122C6B997
:1012E30003120122B0D502120122BAD50212012241
:1012F300FAD50212012243D6021201227DD602122E
:101303000122D3D602120122F2D602120122FBD607
:10131300021201224CD70212012275D702120122B6
:101323008AD702120122FAD70212012288D80212A6
:101333000122CCD802120122F4D80212012273D95D
:1013430002120122B6D902120122F3D9021201229A
:1013530005DA0212012224DA021201222DDA021224
:101363000122F2DA0212012259B303120122AAB3B3
:101373000312012233B40312012299B4031201228E
:10138300B6A503120122E0A503120122DAA6031275
:10139300012209A7031201228FA70312012223B8F6
:1013A3000312012291AD03120122C7AD03120122E0
:1013B30000AE0312012259AF03120122B9BD031279
:1013C3000122CFBD03120122D9BD031201222FBE78
:1013D30003120122ECC602120122A9C70212012242
:1013E300E4C7021201220CC8021201226EC80212C3
:1013F3000122BAC80212012225C902120122A1C97F
:10140300021201229DCA0212012224CC02120122DD
:10141300A7CC021201220BCD0212012222CD02120D
:10142300012218CE0212012264CE021201228A88FE
:10143300031201229F8803120122528903120122FF
:10144300928903120122AB8903120122DE8903125E
:1014530001222B8A031201225F8A03120122A18A2D
:1014630003120122978C031201221DD901120122BA
:10147300D4DC0112012266DE01120122BDDE01125B
:101483000122DCDE011201225ADF01120122ECE00B
:1014930001120122D0E101120122E1E50112012230
:1014A300B5E60112012262E50212012241E70212AE
:1014B30001226AE8021201220BEA021201220EEA59
:1014C300021201223F9F03120122A79F031201224E
:1014D300C49F0312012268A00312012253A1031225
:1014E30001222ABF0312012270BF031201229CBFF3
:1014F30003E066701008A3E066700A08A3E0667054
:101503000408A3E06622C3E7960809E7960809E7FB
:10151300960809E79622C3E09608A3E09608A3E09D
:101523009608A3E09622C008C3E096F50808A3E056
:1015330096420808A3E096420808A3E0964508707F
:1015430001D3D00822080808EAC0E0EBC0E086F027
:10155300E7A4FA180986F0E7A42AFA180986F0E73F
:10156300A42AFA180986F0E7A42AFA1986F0E7A450
:10157300FBE5F02AFA190886F0E7A42BFBE5F03A1D
:10158300FA190886F0E7A42BFBE5F03AFA181809D4
:1015930086F0E7A4C5F02BFBE43AFA1908E7C5F097
:1015A300C6A426F6E5F03BFBE43AFA1886F0E7A476
:1015B300F6E5F00826F6E43B08F6E43A08F6D0E050
:1015C300FBD0E0FA22E4CFC0E0E4CEC0E0E4CDC03B
:1015D300E0E4CCC0E075F020E626F608E633F60832
:1015E300E633F608E633F6181818EC33FCED33FD52
:1015F300EE33FEEF33FFC3EC9709ED9709EE97093E
:10160300EF97191919400FFFEC97FC09ED97FD09A6
:10161300EE97FE191906D5F0BFECF709EDF709EEC1
:10162300F709EFF7191919D0E0FCD0E0FDD0E0FE7F
:10163300D0E0FF226016080808C6C313C618C613F5
:10164300C618C613C618C613C6D5E0EA2270090821
:101653000808226016181818C6C333C608C633C64E
:1016630008C633C608C633C6D5E0EA22E627F6081D
:1016730009E637F60809E637F60809E637F622E001
:1016830026F608A3E036F608A3E036F608A3E0360C
:10169300F622E026F008A3E036F008A3E036F008CF
:1016A300A3E036F022C3E697F60809E697F60809A1
:1016B300E697F60809E697F622C3E096F008A3E05A
:1016C30096F008A3E096F008A3E096F022E056F621
:1016D30008A3E056F608A3E056F608A3E056F62260
:1016E300E056F008A3E056F008A3E056F008A3E0A4
:1016F30056F022E0F608A3E0F608A3E0F608A3E01C
:10170300F622E6F008A3E6F008A3E6F008A3E6F065
:1017130022E0FAA3E0FBA3E0FCA3E0FD22E0F8A3B0
:10172300E0F9A3E0FAA3E0FB22E8F0A3E9F0A3EADF
:10173300F0A3EBF022CAC0E0E6F0A308DAFAD0E0A7
:10174300FA22CAC0E0E0A3C582CCC582C583CDC559
:1017530083F0A3C582CCC582C583CDC583DAE6D029
:10176300E0CA22C3E498F8E499F91217A78026C3C4
:10177300E49AFAE49BFBE920E7E91217A7E498F857
:10178300E499F922C3E498F8E499F91217A7E498C5
:10179300F8E499F9C3E49AFAE49BFB22EB20E7CF40
:1017A300E920E7E0B90010BB0008E88AF084F8AA52
:1017B300F022E4FBC8FA22EB70227B10C833C8C9BD
:1017C30033C9335007C39AC3DBF280069A50012A08
:1017D300DBEAC833F4C8C933F4C9FA2275F008E464
:1017E300C833C8C933C933C99AC99B5004C92AC964
:1017F3003BD5F0ECFBC833F4C8E4C9FA22600D080A
:10180300C6A2E713C618C613C6D5E0F322600C08B8
:10181300C6C313C618C613C6D5E0F42270042260EB
:101823000D18C6C333C608C633C6D5E0F41822253F
:101833001810AF08F518400C15198008F518400268
:101843001519D2AF2200C0D0251810AF08F51850D3
:101853000C05198008F51850020519D2AFD0D02213
:101863002518F58210AF08F518400C15198008F5F6
:101873001840021519D2AF851983222518F582E481
:101883003519F583222518F8E43519F9222518FAB4
:10189300E43519FB222518FCE43519FD22E47325F0
:1018A30018C582C0E0E51934FFC583C0E0E518C35D
:1018B300958224F810AF08858319858218800885DE
:1018C3008319858218D2AFCEF0A3E520F0A3780860
:1018D300E608F0A3DEFAEFF0A3E58124FAF8E608C0
:1018E300F0A3E608F0A3E608F0A30808E608F0A3CF
:1018F300E608F0A315811581D0E0FED0E0F815814C
:1019030015811581E8C0E0EEC0E0222518C582C02C
:10191300E0E51934FFC583C0E0E518C3958224F9D7
:1019230010AF0885831985821880088583198582FD
:1019330018D2AFCEF0A3E520F0A37808E608F0A311
:10194300DEFAEFF0A3E58124FBF8E608F0A3E6084E
:10195300F0A30808E608F0A3E608F0A315811581B3
:10196300D0E0FED0E0F815811581E8C0E0EEC0E0DC
:1019730022851983851882E0A3FEE0A3F520780869
:10198300E0A3F608DFFAE0A3FFE0A3C0E0E0A3C012
:10199300E0E0A3C0E0E0A3C0E0E0A3C0E010AF0834
:1019A3008582188583198008858218858319D2AFAB
:1019B300D083D08202011F851983851882E0A3FE9C
:1019C300E0A3F5207808E0A3F608DFFAE0A3FFE040
:1019D300A3C0E0E0A3C0E0E0A3C0E0E0A3C0E01048
:1019E300AF08858218858319800885821885831935
:1019F300D2AFD083D08222C0D02518C582C0E0E503
:101A03001934FFC583C0E0E518C3958224F310AFF2
:101A1300088583198582188008858319858218D2E1
:101A2300AFC8F0A3E9F0A3EAF0A3EBF0A37908E7CA
:101A330009F0A3D8FAECF0A3EDF0A3EEF0A3EFF0D6
:101A4300A3D0E0F0A3D0E0F0A3D0E0F0A3E520F032
:101A5300A3E5F0F0A322851983851882E0C0E0A3F3
:101A6300E0F9A3E0FAA3E0FBA37808E0F608A3DF1C
:101A7300FAE0FCA3E0FDA3E0FEA3E0FFA3E0C0E0E7
:101A8300A3E0C0E0A3E0F5D0A3E0F520A3E0A3F535
:101A9300F010AF088583198582188008858319851E
:101AA3008218D2AFD082D083D0E0F8D0E032740471
:101AB3008006740280027401C0E0F404121863D03B
:101AC300E0121738227404800474028000CCC0E052
:101AD300EDC0E0E518C39CCCAD1950011D10AF0655
:101AE3008C188D1980068C188D19D2AF121745D01A
:101AF300E0FDD0E0FC22D083D082E9C0E0E493A3F0
:101B0300C386F0C5F095F0F908E493A386F0C5F019
:101B130095F0700BE493A3C3994005E9048002A3F5
:101B2300E475F002A42582F582E5F03583F583D0D0
:101B3300E0F9E493A3C0E0E493C0E022D083D08231
:101B4300ECC0E0EDC0E0E493A3FCE493A3FDED4C13
:101B5300600D121B8BEC24FFFCED34FFFD80EFE4E2
:101B630093A3FCE493A3FDED4C600D121BCAEC247C
:101B7300FFFCED34FFFD80EFD0E0FDD0E0FCE4930B
:101B8300A3C0E0E493C0E022C0E0C3E493960874EA
:101B930001939618400FE4936670080874019366E6
:101BA3001870007019A3A3C3E49396087401939665
:101BB30018A3A3400DD0E0D0E0D0E0021B7BA3A389
:101BC300A3A3A3A3D0E022C0E0C0F088F0E493660F
:101BD30070080874019366187000A8F0A3A3700B33
:101BE300D0F0D0E0D0E0D0E0021B7BA3A3D0F0D0B4
:021BF300E022EE
:101BF80074F612190EEAFEEBFF8C088D09EE2434F8
:101C0800F8E43FF9E8FCE9FD121D2BE0FAEE243771
:101C1800F582E43FF583E0F88508F0A4C885F00A6A
:101C28008509F0A4250AF9EA28F8E439F97A257B28
:101C3800001217A7EA8C828D83F0FA131313541F2E
:101C4800F8EE28F8E43FF9E8245DF582E439F583F5
:101C5800E0C0E074075AF8D0E0B800028004C3136B
:101C6800D8FCA2E05003EA8020EE2436F582E43F57
:101C7800F583E0F5F0EA84A8F0EE28F8E43FF9E807
:101C88002438F582E439F583E0F97F030219BA7440
:101C9800F512190EEAFEEBFFEE2434F582E43FF567
:101CA80083E0C0E0121D2BD0E0F08E828F83A3A3C7
:101CB800A3A3A3E0FAA3E0FB8E828F83A3A3A3A32D
:101CC800A3A3A3E0FCA3E0FDECC39AF50AED9BF502
:101CD8000BEE247FF508E43FF509850882F583E0DB
:101CE8006401702AEE2480F582E43FF583121ACC51
:101CF800121D357402121848E960137CB07D04EE99
:101D0800FAEFFB120C1E850882850983E4F0AC0A01
:101D1800AD0BEEFAEFFB121BF8E9F91225937F04DD
:101D28000219BAEE2435F582E43FF58322C082C059
:101D380083851882851983E0F8A3E0F9C3EA9CEB50
:101D48009D5010C3EC98ED99401BC3EA98EB99504D
:101D580014800EC3EA98EB994007C3EC98ED9940BC
:101D680004790180027900D083D08222EAC39CFAE8
:101D7800EB9DFB2274ED12190E900376E064086067
:101D880005E06407702C9061C8E060269003A4E029
:101D9800F874FF68601CE875F00AA4C8AAF02AF96C
:101DA80074A628FE740339FF8E828F83A3A3A3E051
:101DB80070057900021F15EE2468F50EE43FF50F53
:101DC800906060E0850E82850F83F0751020751194
:101DD80005750800750900E5D914F50AE5D9540315
:101DE800F50B601FEE2482F50CE43FF50D740365D6
:101DF8000B6059E50A6017EE2467F582E43FF58326
:101E0800E0700B793DEEFAEFFB120C4E80A49005C2
:101E18001BE064016023850C82850D83E060047AF1
:101E28000480027A00E50AC39AFA95E0FB120AAA2E
:101E38008A088B09EA45097006120EA6021DBA85A2
:101E48000C82850D83E070048A108B117A0080144F
:101E5800E5D9C0E0EAF8E51028F582E43511F58304
:101E6800D0E0F00AEAC3950A40E6850C82850D8326
:101E7800E0602874FC250AF50A7810121AB5AC0A35
:101E8800A90BEEFAEFFB120CFC7402121848E97069
:101E98000AAA08AB0912136E021E0B7403650B60C5
:101EA80054850A0C750D00780C121AB5AC10AD11DA
:101EB800AA08AB09120CC07402121848850E828554
:101EC8000F83E0F87480687005750C7F8002880CB9
:101ED800E50CF50D780D121AB9780B121AB9A90A82
:101EE800AC08AD099003A4E0FA7B001208E2740282
:101EF8001218488013900376E06408600BAC10ADAC
:101F080011EEFAEFFB120D92120EB279017F0C025C
:101F180019BA74F312190E74FC121832EAFEEBFFA8
:101F28008909A2AFE433F508C2AFEE2463F50AE4E9
:101F38003FF50B8010AA0AAB0B120C7812136E90A7
:101F480004B7E004F0850A82850B83E0F8A3E0F982
:101F5800E849602DE82402FAE439FBEA2402F50C8A
:101F6800E43BF50D780C121AB58A828B83E0FCA34A
:101F7800E0F9EEFAEFFB120C6C7402121848E960F3
:101F8800B49004B7E0604D9004B8E0F89004B7E06E
:101F9800C398500C74026509703A9004B9E0603433
:101FA8008E828F83A3A3A3A3E08518828519831249
:101FB8001FEC740212187EE8121FEC9004B6E02899
:101FC800F07402121898AA18AB1979011209369000
:101FD80004B7E4F0E508A2E092AF74041218487F51
:101FE800060219BAF0A3E4F09004B7E0F822000062
:101FF8008521878522C622C0E074EB1219FAA2AFA8
:10200800E433F508C2AF759B00906182E0A2E0500E
:1020180030E591A2E0502A7591FE74016521702186
:10202800122192120DEC122180121AC812233D744B
:1020380004121848E9640170057901120E3A121D5C
:102048007C906182E0A2E5505DE591A2E55057756C
:1020580091DF900376E064076005E06408702F1252
:10206800219274016521703E120DEC122180121A22
:10207800C812233D7404121848E9640170057901F7
:10208800120E3A7901EEFAEFFB121F1A8018E0647B
:102098000D7013900398E004F064287002E4F07A5D
:1020A80000E0F9120EB8906182E0A2E64003022136
:1020B80055E591A2E640030221557591BF9003763C
:1020C800E064057008120DD4120DE08003120DDAD9
:1020D800752100120E46E9900377F07900120E3A46
:1020E800120B887A017B00900375E0F912133E9079
:1020F8007803E06442705690051FE014F0704EC2F9
:10210800AF12210C00782AD0E0F618D0E0F6E59F4F
:102118005407F87005750DFF8003750D7FC4C0E086
:102128007829E6F50A08E6550DF50B740B780A12BE
:102138001810D0E0250AF8906270E0A2E740F8E8AD
:10214800C333906272F0906270E0D2E0F0906181E7
:10215800E0A2E35009E5E9A2E3500375E9F7A3E03B
:10216800A2E75009E591A2E7500375917FE508A21F
:10217800E092AF7F08021A598E828F83E0F8A3E0BD
:10218800C82416F582E438F583229003A4E0F87594
:10219800F00AA4C8AAF02AF974A628FE740339FF25
:1021A80022C0E0C0D0C082C083906183E0A2E0502A
:1021B80009E5BFA2E0500375BFFEE0A2E15009E5C2
:1021C800BFA2E1500375BFFDE0A2E25009E5BFA23E
:1021D800E2500375BFFBE0A2E35009E5BFA2E3505C
:1021E8000375BFF7E0A2E45009E5BFA2E450037508
:1021F800BFEFE0A2E55009E5BFA2E5500375BFDFD8
:10220800E0A2E65009E5BFA2E6500375BFBFD08340
:10221800D082D0D0D0E032C0E074F21219FAE5A72B
:10222800A2E4500FE5A1A2E4500953A7EF75A1EF6E
:10223800122273E5A7A2E5500CE5A1A2E5500653CA
:10224800A7DF75A1DFE5A7A2E15009E5A1A2E1504A
:102258000375A1FDE5A7A2E2500CE5A1A2E2500694
:1022680053A7FB75A1FB7F01021A5974F812190EC6
:10227800752101900376E0640670077A007B0012EE
:102288000DBCA2AFE433FED2AF90037CE0640170D2
:10229800187A207B00900375E0F91214527A207B9B
:1022A80000900375E0F9121344906182E0D2E6F0E1
:1022B80090051CE0602185C622801690037BE064AF
:1022C800017008E5C654F84405F5C653BEFC121F54
:1022D800F87401652160E4EEA2E092AF7F01021973
:1022E800BA0000008E238F248582288583278518CD
:1022F80082851983E0CEA3E0CF852882852783EBEA
:10230800C9EAC8EDCBECCA75F010C3E833C8E933A5
:10231800C9EA33CAEB33CBC3EA9EF526EB9FF52512
:10232800B35004AB25AA26EC33CCED33CDD5F0DA87
:10233800AE23AF242274F112190E8A088B098C0A75
:102348008D0B90909678081216D0740F12187E781C
:102358000C1216F6909096780C1216D07808790C14
:1023680012150990908250107808790C1216A878E6
:10237800081215294014800E780C79081216A878CE
:102388000C12152950047901800279007F0802197E
:10239800BA74ED12190E8A088B098C0A8D0B90906D
:1023A8009678081216D0741312187E780C1216F646
:1023B800909096780C1216D0780C7908121509406E
:1023C800117808790C1216A8AA08AB09AC0AAD0B4B
:1023D80080227510007511007512007513017810B0
:1023E800790C1216A87810790812166FAA10AB117A
:1023F800AC12AD137F0C0219BA9090967808121699
:10240800F68A828B8378081216E37F040219BA745D
:10241800F512190E8C828D8378081216F68A828B33
:102428008378081216BC12246BC3E098F0A3E099D5
:1024380012245D401E9090BE78081216F68A828B90
:102448008378081216958E828F83E02420F0A3E00B
:10245800344EF080A4F08E828F83C3E09420A3E0F2
:10246800944E22EA2404F8E43BF9E8FEE9FF8C8262
:102478008D83A3A3A3A3E0F8A3E0F98E828F832220
:1024880074F512190EE9FE9004D2E0FAA3E0FBEE0F
:1024980029F8E433F9748028F582748F39F583E0DC
:1024A8002AF508A3E03BF5097808121AB59090B20E
:1024B8001217141222EC74021218488A088B098C1D
:1024C8000A8D0B74107808121637AA08AB097F0416
:1024D8000219BA74F112190E8A0C8B0D8C0E8D0F1D
:1024E800741112187E121ACC741112187EE024018D
:1024F800F508A3E03400F509E4F50AF50B780C7942
:102508000812154890907E78081216F6780C79080B
:10251800121548AA0CAB0DAC0EAD0F1222EC7402CA
:102528001218488B09EA450960047A0180027A008A
:10253800EC2AFCE43DFD741312187EE0F8A3E0F9E0
:10254800E8FEE9FFECF8EDF97A717B021217A7882B
:10255800088909E4F50AF50B8E828F83780812172B
:1025680005ECF8EDF97A717B021217A78A088B0936
:102578007405780812181F8E828F83A3A3A3A3E57E
:1025880008F0A3E509F07F080219BAC082C083E900
:10259800906000F0D083D08222C0E074F21219FA61
:1025A800A2AFE433FED2AFC2C0E5D1A2E4500675B3
:1025B800D10F1212A2EEA2E092AF7F01021A59C007
:1025C800E074F21219FAA2AFE433FED2AFE589A2A1
:1025D800E04006E589A2E150031211FA75890075F9
:1025E8008900C2C5EEA2E092AF7F01021A59C0E08D
:1025F800C0D0E8C0E0E9C0E0A9A8D2AFC2C7E9A24C
:10260800E7E433F8E9A2E792AFD0E0F9D0E0F8D0F8
:10261800D0D0E032C0E0C0D0E8C0E0E9C0E0EAC015
:10262800E0C082C083A2AFE433FAD2AF9009BFE022
:10263800F8A3E0687008539AFBA374018022C2E9EA
:102648009009BFE0F8740128F0743F28F582E4345B
:1026580009F583E0F5C19009BFE0C394804002E426
:10266800F0EAA2E092AFD083D082D0E0FAD0E0F9CD
:0E267800D0E0F8D0D0D0E032C2AF0200002295
:10268800FFFFFFFFFFFFFFFFC082C083E9901774C1
:10269800F0D083D08202011F74F61218A2E99002CA
:1026A800E8F0900348E0F50875090074027808120C
:1026B800181FAA08AB091213B09002E91230539000
:1026C80002E9123440606F900348E075F003A4FA01
:1026D800ABF01213B0900306123053900306123475
:1026E80040700B9002E91234111213B6804890031F
:1026F800061243A57AFF7BFF12116A7A0080198AB5
:10270800087509007402780812181F123E4D74FFEC
:10271800122853E4F0A3F00A900348E0F8EAC398BB
:1027280040DD79051207CE9002E8E0F91206BA7A80
:10273800587B08120A4A023EF074F41218A28A085A
:102748008B09EB548060479002E8E0F91213268A5F
:102758000A8B0BAE0AAF0BEE4F602A8E828F83E096
:1027680064B0701A1207E0E960148E828F83A3A305
:10277800A3A3E0F9EE2405FAE43FFB1207B0EEFA52
:10278800EFFB121314AA08E5096480FB80047A00A1
:102798007B000229A374F21218A274FB121832EA01
:1027A800FEEBFFEE4F6045740312187EEEF0A3EFC8
:1027B800F0851882851983ECF0A3EDF074021218E5
:1027C8007EE9F0AA18AB191206B4E9F50870757419
:1027D8001312187EE0F50AA3E0F50BE50A450B6035
:1027E800638E828F83122DDCEE4F70057508028090
:1027F800537A067B001213B08A0C8B0DA80CA90D16
:10280800E8497005750813803B88828983E412289B
:1028180053EEF0A3EF12296FE50AF0A3E50BF09051
:1028280002EC1229689002EC6017E0FCA3E0800338
:10283800EAFCEBFD8C828D8312296870F38C828D03
:1028480083123A68A9087405024625F0A312438743
:10285800A32274F21218A28908890C750D0074035A
:10286800780C12181F850C0A850D0B9002EBF0905E
:1028780002E9123873122966602E1213B6790080A5
:102888001D890C750D007402780C12181F9002E94E
:10289800123D0C8882F583A3A3E4F0A3F00990030A
:1028A80048E0F8E9C39840D9900348E0FA850AF06F
:1028B800A4CAA8F0850BF0A428FB1213B08A0C8BCD
:1028C8000DAE0CAF0DEE4F700302295C900348E08B
:1028D800FC850AF0A4CCA8F0850BF0A428FD7900AB
:1028E8001213027C0080318D0C750D007403780C76
:1028F80012181F8A828B8312296188828983E4F0E7
:1029080012296EA3A3F0A3F00DEDC3950840D8EEED
:10291800250AFEEF350BFF0C900348E0F8ECC3984E
:1029280050288C0C750D007402780C12181F900238
:10293800E9122961E82402500109FAE9FB8A828B2D
:1029480083EEF0A3EFF07D0080BFE5089002EBF086
:10295800790080027913024628123D10F922A3A3B8
:10296800123415EA4B22A3124387A3A3A32274F4BB
:102978001218A27900EAA2E0501F75084275099062
:102988007808121AB579107C047D007A767B1712C4
:1029980007C87402121848E9F980007F0402197404
:1029A800C082C0839002EC123440601C8882898304
:1029B800A3A3E06A7003A3E06B8882898370E8A30D
:1029C800A3A3A312341180047A007B000226997411
:1029D800F21218A274FD121832EAFEEBFF85188273
:1029E800851983E4F0A3F0740212187E7401F012C2
:1029F800343D70141209841213B09002EF12305350
:102A080012343D7003022B69123153EE2404F50A87
:102A1800E43FF50B850A82F583E024FE603C24FC44
:102A2800607424FE607E24FE7003022AB924FE70BE
:102A380003022AC624FE7003022AD324FE7003026E
:102A48002AE024FE7003022AED24FC7003022B0EF8
:102A580024FE7003022B26022B621209849002F1D5
:102A6800EAF0A3EB122B751203FCE96003022B6258
:102A78009002F1121ACC8E828F83A3A3A3A3A31270
:102A880043A58508828509831234111207987402B8
:102A9800121848022B62AC18AD19EEFAEFFB1207B8
:102AA800E6022B31AC18AD19EEFAEFFB1207EC80F9
:102AB80078AC18AD19EEFAEFFB1207F2806BAC1880
:102AC800AD19EEFAEFFB1207F8805EAC18AD19EEFF
:102AD800FAEFFB1207FE8051AC18AD19EEFAEFFBC6
:102AE80012080480447402121888880C890D780C26
:102AF800121AB57402121898EEFAEFFB12080A744B
:102B0800021218488023AC18AD19EEFAEFFB120830
:102B180010E9F87016740212187EE4F0803CAC18C4
:102B2800AD19EEFAEFFB120816E9F8E8602C8E8270
:102B38008F83A3E064146022850A82850B83E0906A
:102B480002F1F08518828519831234119002F2126D
:102B58003053E8A3122B751203F6EEFAEFFB1207B7
:102B68006E740212187EE0F97403024625F07CF1B7
:102B78007D028508828509831234152274E81218AB
:102B8800A274FA121832740412187EECF0A3EDF055
:102B98008A128B13EA2405F50EE43513F50FEA249F
:102BA80002F510E43513F511851082F583123411FE
:102BB8001204EC8A0A8B0B7508007C037D007900EF
:102BC8007AF17B02121302E50E2402F516E4350FA2
:102BD800F5177402121888880C890D780C121AB52A
:102BE800850E82850F83A3A3A3A3E0F50C750D00C2
:102BF800780C121AB5E50E2405F50CE4350FF50D21
:102C0800780C121AB58516828517831237181206A2
:102C1800D274061218488A0C8B0DE50C450D70030A
:102C2800022DA58020851882851983E088828983F2
:102C3800F00508851882851983A3E0C0E0122DE607
:102C4800D0E0F00508E50A24FBFAE50B34FFFBC3E6
:102C5800E5089AE49B4003022DA57E007F008512BB
:102C680082851383A3A3A3A3E0F5097809121AB9EF
:102C7800E4F514F5157814121AB57514EE751502E5
:102C88007814121AB59002EF121ACC740912187E31
:102C9800121ACCE50A24F9F9AC0CAD0D8510828521
:102CA80011831234111208407409121848E960039C
:102CB800022D46850E82850F83A3A3A3A3A3A3A3F6
:102CC800E0F89002EEE0687075E0F5148E1578145F
:102CD800121AB51243A2850E82850F83A3A3A3A35C
:102CE800A3A3A3A31234111212FC7402121848E908
:102CF800604C9002F2123440703BE4F514781412E0
:102D08001AB57CFF7DFF79078510828511831234FF
:102D1800111207AA74021218481234467017850E49
:102D280082850F8312453F740412187E123E0012EA
:102D38003749022DD9850C82850D83122DDCA81800
:102D4800A919881489157814121AB5740412187EF2
:102D5800121ACC8516828517831230491206DE7442
:102D6800041218488A0C8B0DEE4F7003022C2212A5
:102D78002DE6EE122DF11236FFEF122DF1F8A3E039
:102D88003400F9E50C450D6003022C2D88828983F7
:102D980074FFF00508122DE674FFF00508E50860D9
:102DA8001A1313543F123059120408E960099002AB
:102DB800F212341112136E79008016850E82850F77
:102DC8008312453F740412187E123E00123A687945
:102DD8000A0236D2A3A3A3A3E0FEA3E0FF22A80819
:102DE8009002F2E0281236FF22F00508089002F25D
:102DF800E0282274E81218A274FA12183274021227
:102E0800187E123053740412187EECF0A3EDF0749F
:102E18000212187EE024051236E8E0F50CA3E0F56E
:102E28000D740212187EE02402F510A3E03400F5B8
:102E380011851082F5831234111204EC750800759F
:102E48000900EA24FCFEEB34FFFF8008050CE50CC2
:102E58007002050DA808C3EE98EF940050030230E5
:102E680005A818A919880E890F780E121AB58514A5
:102E780082851583A3A3A3A31243A9121AB5E51447
:102E88002405F50EE43515F50F780E121AB58514DC
:102E9800828515831230471206D274061218488AA2
:102EA8000E8B0FEA450F7003023005EA2404F5166D
:102EB800E4350FF517851682F583E0F50CA3E0F5E8
:102EC8000D8518828519831243A58A828B83A3A353
:102ED800A3E0F98510828511831234111206C0E926
:102EE800F5096003023005740212187E12370FF5D7
:102EF800097809121AB9E4F512F5137812121AB5FD
:102F08007512EE7513027812121AB59002EF121AA2
:102F1800CC740712187E121ACCEEF9AC0EAD0F85E0
:102F2800108285118312341112084074091218484E
:102F3800E9F5096003023005E508703FE4F50EF590
:102F48000F780E121AB57CFF7DFF790985108285EE
:102F580011831234111207AA740212184812373555
:102F6800700D740412187E12303C791102303990B9
:102F780002EEE024029002F2F080149002F2E0FAED
:102F88009002EEE0790024025001096A497072A8A3
:102F9800089002EEE0FAE82AFAE43400FBEE9AEF31
:102FA8009B405A851682851783E0C0E09002F31291
:102FB8002DEBD0E0F00508851682851783A3E0C0C5
:102FC800E0089002F3122DEBD0E0F005089002EE35
:102FD8001243A9121AB51243A2A8081236DC12121B
:102FE800EA74021218489002EEE02508F50874FF0A
:102FF800650C700474FF650D6003022E54E50860CB
:103008001F9002F2E0F5F0E5088412305912040E20
:10301800E960099002F312341112136E79008011DD
:10302800E509700375090A740412187E12303CA968
:10303800090236D2123877E50CF0A3E50DF022A389
:10304800A3124634AA0CAB0D22A3A3EAF0A3EBF01B
:10305800229002F1F07CF17D0285108285118312A5
:1030680034152274EC1218A274FC121832123B7830
:10307800740212189812340B1206D88A0C8B0DEAB7
:10308800450D7003023143123153A818A91988104D
:1030980089117810121AB57CFF7DFF790B8508829B
:1030A8008509831234111207AA74021218481232C1
:1030B80049700C850A82850B831237460231508E7F
:1030C800828F83A3A3A3A3E0F5127812121AB9E49E
:1030D800F512F5137812121AB57512F175130278F4
:1030E80012121AB57810121AB5740912187E121A2B
:1030F800CC740912187EE0F9AC0CAD0D85088285F8
:1031080009831234111208407409121848E9FE7034
:10311800157CF17D02850882850983123411120419
:1031280014E97009802074166E70027E009002F215
:1031380012341112136EEE7004800B7E01850A8220
:10314800850B83123A65EEF9023A7AEE2402F50805
:10315800E43FF5092274EC1218A274FC121832EA42
:10316800FEEBFF8C0E8D0FEE2405F508E43FF50904
:103178007402121898850882850983123411120680
:10318800D88A0C8B0DEA450D7003023239EE240201
:10319800F50AE43FF50BA818A919881089117810C9
:1031A800121AB57CFF7DFF790D12340B1207AA7431
:1031B80002121848123249700B8508828509831259
:1031C8003746807A8E828F83A3A3A3A3E0F5127873
:1031D80012121AB9850882850983A3A3121ACC751D
:1031E80012F17513027812121AB57810121AB57402
:1031F8000912187E121ACC740912187EE0F91234DA
:10320800071208407409121848E9FE700F7CF17D16
:103218000212340B12041AE97009802074166E70B9
:10322800027E009002F212341112136EEE700480C6
:103238000B7E01850882850983123A65EEF9023A08
:103248007A123450F510A3E0F511EA45112274E81A
:103258001218A274FE1218328A168B178C148D1548
:10326800EA2405F50CE43517F50DEA2402F50EE419
:103278003517F50F850E82F5831234111204EC8A86
:10328800088B09750B007C037D0079007AF17B02BD
:10329800121302750A00E50814F5100424FFF50856
:1032A800E50934FFF50980549002F1E0FA9002EE46
:1032B800E0F8EA28F8E43400F9E50898E5099950B7
:1032C8000D9002F1E0F8E510C3989002EEF0E0F5F9
:1032D800127513007812121AB51243A29002F2E086
:1032E8002AFAA3E03400FB1212EA7402121848907A
:1032F80002EEE0F89002F1E028F0050A850C8285DC
:103308000D83A3A3123D1C40030233EC9002F1E0AD
:10331800C39508E4950940030233ECAE0AEE2EFE8D
:10332800E433FF12342BAC18AD191243BDE439FB5A
:103338001206D88A128B13AC12AD13EC4D701B75A4
:103348000B0112341B123A699002F21229686003C9
:1033580012136EA90B74020236D485168285178360
:10336800A3A3A3A3E0F50B780B121AB9E4F512F5A1
:10337800137812121AB57512EE7513027812121A12
:10338800B59002EF121ACC740712187E121ACCA943
:1033980010850E82850F83123411120840740912A9
:1033A8001848E9F50B709B9002F212344060030252
:1033B80032B0E4F512F5137812121AB57CFF7DFFCE
:1033C800790F850E82850F831234111207AA7402B1
:1033D80012184812344660030232B012341B1237F6
:1033E8004A02335D7CF17D02850E82850F8312349B
:1033F80011120420E96003023350790002335DACF6
:103408000CAD0D850A82850B8312341522E0FAA3D0
:10341800E0FB2212342BE0FAA3E0F9EA8514828556
:10342800158322850C82850D83E02EF8A3E03FF9F1
:1034380088828983229002EF124543E84922123498
:1034480050F8A3E0F9E849229002F2EAF0A3EBF081
:103458009002F2E02274E81218A274FA1218327478
:103468000412187E1230538C168D17740412187EAD
:10347800E02405F50EA3E03400F50F740412187E5D
:10348800E024021236E81234111204EC8A0A8B0B7B
:103498007F007E00A818A919880889097808121AD7
:1034A800B5850E82850F83A3A3A3A3E0F5088E0933
:1034B8007808121AB5E50E2405F508E4350FF50964
:1034C8007808121AB5850E82850F83A3A3123718C0
:1034D8001206D274061218488A0C8B0D80291237EE
:1034E80009F00F123709F00F9002EE123A54121A2F
:1034F800B51243A2EFF81236DC1212EA740212185F
:10350800489002EEE02FFFE50C450D700302359858
:10351800851882851983123B8AA3A3A3E0F9851431
:10352800828515831234111206C0E9FEE50C2404C5
:10353800F510E4350DF511EE7050740412187E1272
:10354800370FF5087808121AB9E4F508F50978086C
:10355800121AB57508EE7509027808121AB59002A4
:10356800EF121ACC740712187E121ACCE50A24FA44
:10357800F9AC0CAD0D85148285158312341112082F
:10358800407409121848E9FE6039123725123A6862
:10359800EF70030236BF9002F2E0F5F0EF8490027C
:1035A800F1F07CF17D0285148285158312341112A5
:1035B8000426E960099002F312341112136E79009F
:1035C8000236D28F08EF703BE4F512F51378121229
:1035D8001AB57CFF7DFF7911851482851583123415
:1035E800111207AA740212184812373570091237D7
:1035F800251237490236D29002EEE024049002F2F6
:10360800F080359002EEE0F89002F2E0FAE8240447
:10361800FCE43400FDEC6A4D600302359EE50A24A3
:10362800FAFAE50B34FFFBE50828F8E43400F9EA78
:1036380098EB99500302359E851082851183E0C06E
:10364800E09002F3E02FF8A3E034008882F583D0FD
:10365800E0F00F851082851183A3E0C0E01236F6F2
:10366800D0E0F00F740212188888088909780812C7
:103678001AB5740212187E121ACC850E82850F8331
:103688001230471206DE74041218488A0C8B0DEAB1
:10369800450D70030234E6740212187EE0C0E01291
:1036A80036F6D0E0F00F740212187EA3E0C0E012E4
:1036B80036F6D0E00234EEEE70027E0A850E828580
:1036C8000F8312372B123A68EEF974061218487FE6
:1036D800100219749002F3E028FAA3E03400FB22E8
:1036E800F514A3E03400F515851482F5832212360B
:1036F800FA229002F3E02FFAA3E034008A82F583DD
:10370800221236FA74FF22123877A3A3A3A3E02269
:10371800124634850E82850F831234152285108255
:10372800851183124543851682851783229002F3FB
:10373800EAF0A3EBF09002F3124543E84922123A6B
:103748006EE8F0A3E9F079112274EA1218A274FE67
:103758001218328A088B098C128D13EA2405FEE4AC
:103768003509FFAC18AD198E828F831234111206F9
:10377800D88A0C8B0DEE2406F50EE43FF50FEA45CA
:103788000D7003023849E5082402F50AE43509F505
:103798000B8A828B83A3A3A3E0A2E5502885188215
:1037A8008519831234111208348A108B11EA4511D5
:1037B800602079121234078510828511831218A0AF
:1037C800E9F50C707F850E82850F83E060097952D8
:1037D8008011750C0E806D850882850983A3A3A3CB
:1037E800A3E0F9E4F508F5097808121AB58E828F76
:1037F80083A3A3E0F5087808121AB58E828F83A3F5
:10380800A3A3121ACC8E828F831243A512340B12F3
:1038180008467406121848E9F50C7011850E828561
:103828000F83E0702D12340B12042C80257416655A
:103838000C7011750C00741812187E123873E4801D
:1038480010750C0112453B851282851383E8F0A39D
:10385800E9F0850E82850F83E0600479008002A973
:103868000C74021218487F0E02197412387722E07D
:10387800F8A3E0F58388822274EC1218A274F71278
:1038880018328A0A8B0B8C108D11EA2405FEE43558
:103898000BFF750C00AC18AD198E828F8312341192
:1038A8001206D88A088B09EA45097003023A3FE5EF
:1038B8000A2402F50A5002050B8A828B83A3A3A36C
:1038C800E0A2E5502F851882851983123411120859
:1038D800348A0C8B0DEA450D604F7912AC08AD099E
:1038E80012340B850C82850D831218A0E9F50C6043
:1038F80003023A42850A82850B83E0F508A3E0F5C6
:1039080009AA08FB120828EA4B70197AFF7BFF12F4
:103918000828EA4B7003023A358A828B83E508F05F
:10392800A3E509F07508008008750C0E023A4205F7
:10393800089002EBE0F8E508C3984003023A3585A1
:10394800080E750F007403780E12181F8A828B8375
:10395800A3A3E0250EF8A3E0350F123E0970D08E20
:10396800828F83123A5D1230538E828F83A3A31203
:103978003A5D123051EE2404F508E43FF509850854
:1039880082F583E088828983A3A3A3A3F0A3E4F04C
:10399800EE2405F50EE43FF50F850E82F583123A05
:1039A8005DA3A3A3A31230517512077513007812F3
:1039B800121AB5EEFCEFFD74041218901212EA7494
:1039C80002121848E4F5127812121AB58508828591
:1039D8000983E0FC7D00791712340B1207AA7402E0
:1039E800121848740712187E123053740712187E82
:1039F800E0FA4B603D850882850983123A54121A11
:103A0800B5850E82850F831243A51212EA7402123D
:103A18001848740212189812340B120432E96026FE
:103A2800740712187E12341112136E8019750C095E
:103A38008008750C118003750C0112453B851082B6
:103A4800851183123A68A90C74098028E0F5087575
:103A580009007808221234158882898322123A6E66
:103A6800E8F0A3E9F022E0F8A3E0F9850E82850FDB
:103A7800832274041218487F0C02197474EC12180B
:103A8800A2123B78751000EE2402F50CE43FF50D08
:103A9800850C82F5831234111208288A088B09EAEA
:103AA80045097003023B5C850A82850B83E064014B
:103AB8006003023B51AC08AD09AA0AAB0B12081C03
:103AC800E9606E850882850983122DDEEE2406F5ED
:103AD8000AE43FF50B8E828F83A3A3121ACC8E8241
:103AE8008F83A3A3A3A3121ACC850A82850B831202
:103AF8001ACC79188E828F83123B8A1234111208DD
:103B0800467406121848E9F8741668700B850A821C
:103B1800850B83E4F0A38014E860128E828F8312F1
:103B28003411850E82850F83EAF0A3EBF0881080AC
:103B380018780E121AB5AC08AD09EEFAEFFB1208A8
:103B4800227402121848E9F510AA08AB0912082EC7
:103B5800E510700E850C82850D831234111204381D
:103B68008009741665107003751000A910023A7F59
:103B7800EAFEEBFF8C0E8D0FEE2405F50AE43FF507
:103B88000B22124634850C82850D832274EA1218A2
:103B9800A27508007509007E007F00750A00EC24F4
:103BA80002F510E43DF5118035EC65087003ED650C
:103BB800096003023C4988828983A3A3E06A7003F1
:103BC800A3E06B707C88828983A3A3A3A312453FDB
:103BD800EE28FEEF39FFEA28FAEB39FB050A123D19
:103BE80019503A850A0C750D007403780C12181FC9
:103BF800851082851183123D0C123E09601FE5086D
:103C0800450970A58C088D0988828983122DDC8866
:103C1800828983A3A3E02EFAA3E03F80BEE50AC30E
:103C280094025003023D07750800750900EE4F60C5
:103C380010EEFAEFFB1213688A0E8B0FEA450F702D
:103C4800057900023D09750B00023CDC850B0C75FB
:103C58000D007403780C12181F851082851183E0FB
:103C6800250CF50CA3E0350DF50DE50C2406F5142F
:103C7800E4350DF515851482F583123E0E6042E594
:103C88000C2404F512E4350DF513851282F5831220
:103C98001ACCE50E2508FAE50F3509FB1212EA746D
:103CA80002121848851282851383E02508F508A3B7
:103CB800E03509F50985148285158312341112132C
:103CC8006EE50B600D7C087D007900AA0CAB0D1227
:103CD8001302050BE50BC3950A5003023C548510EB
:103CE8008285118312453F88828983A3A3A3A3A356
:103CF800A3E50EF0A3E50F12296FEEF0A3EFF0791C
:103D08000102386E123D1022E0250CF8A3E0350DB3
:103D1800229002EBE0F8E50AC3982274F01218A288
:103D28008A0E8B0F8C0A8D0B750D00750C00805058
:103D38007916EE2406F508E43FF5098E828F83A3F1
:103D4800A3121ACC8E828F83A3A3A3A3121ACC85A5
:103D58000882850983121ACC850E82850F83A3A356
:103D68001234111208467406121848E9F50D741633
:103D7800650D706C850882850983E4F0A3F0050C55
:103D88009002EBE0F8E50CC3985066AA0C8A087517
:103D980009007403780812181F850A82850B83A30B
:103DA800A3123E58E8FEE9FF8E828F83123E0E6012
:103DB80040EA2401F508E43400F5099002EBE065D7
:103DC800087002E509601488828983A3A3A3A3A3CA
:103DD800A3A3A31234406003023D387918023D3A88
:103DE800E9609B12453B741012187E123E00123A8D
:103DF80068A90D7F08021974E0FAA3E0F5838A82A6
:103E080022F988828983124634EC4D2274F61218FE
:103E1800A27C0080010C900348E0F8ECC398501E87
:103E28008C087509007402780812181F123E4DE0BC
:103E38006A7003A3E06B70DDE8FAE9FB80047A009E
:103E48007B00023EF09002E9123E58888289832264
:103E5800E02508F8A3E03509F92274F21218A28ABD
:103E6800088B09750A0080278E828F83A3A3A3A3DA
:103E7800122966600312136E7C087D007900EEFA41
:103E8800EFFB1213028E828F83E4F0A3F0050A126F
:103E98003D195027850A0C750D007403780C12180B
:103EA8001F850882850983A3A3E0250CFEA3E035BE
:103EB8000DFF8E828F8312344070AD85088285098C
:103EC8008374FFF0A3F002462874F61218A21207B2
:103ED800DA8A828B83E582458370067A007B0080CC
:103EE80007A3A3A3A31234117F0202197474F41256
:103EF80018A289088C828D83E06402703C1244DE2B
:103F0800FEA3E0F9EEF87402687003742969702959
:103F1800750A02750B00780A121AB5741012187E09
:103F2800121ACC741012187E121ACCA90812117C1D
:103F38007406121848E9F9800279010229A374E885
:103F48001218A274FB121832E9851882851983F0B9
:103F58008A168B17ECFEEDFF7510008E828F83A3F7
:103F6800A3A3E0A2E4502D741D12187E123411127E
:103F780008348A828B83E5824583700302437D7906
:103F88000AEEFCEFFDAA16AB171218A0E9F51060AF
:103F980003024380741F12187EE0F508A3E0F509B8
:103FA800742112187EE0F50AA3E0F50B74231218A9
:103FB8007EE0F50EA3E0F50F8E828F83E064026049
:103FC8000302431EA312453F850882850983A38502
:103FD8008212858313EE2406F50CE43FF50D8882E2
:103FE80089831243BDF514E439F5157814121B3F83
:103FF800010000280128204007000228E540032886
:1040080053400029144201293F420229E041032973
:1040180014420429B8421E43E50E450F60030243CB
:1040280019850C82850D8312453FE8FAE9FB8A82DF
:104038008B83E0850A82850B831243C8121AB58ADE
:10404800828B83A3E0FCA3E00242A2E50E450F6049
:1040580003024319850A82850B837401F01243B267
:10406800850882850983F07C007D008E828F83A37A
:10407800A3A3A3E02401FAA3E03400FB1206D8EAC4
:104088004B60408A828B83E02402F8850A82850B84
:1040980083E028F0EA2404F8E43BF988828983E085
:1040A8008512828513831243D61243C8121AB58A21
:1040B800828B83A31243A5E5082403FAE43509FBA0
:1040C8000242A7850A82850B83E02404F07C047DE4
:1040D800007900AA12AB13121302024380E50E45C1
:1040E8000F60030243191243B2FEA3E0FF850A8260
:1040F800850B837404F0EE850882850983F0EF85CB
:104108001282851383F07403121898EEFAEFFB12EB
:1041180006D88A0C8B0DEA450D70030241C38A82CA
:104128008B83A3A3122DDC7401121888880E890FC3
:10413800780E121AB5740512187E121ACC7CFF7DFF
:10414800FF1206DE74041218488B0FEA450F70330D
:10415800850C82850D831243A9121AB5850C8285B8
:104168000D83A3121ACC7C027D007AE97B9012049D
:10417800DA7404121848E9700A740112187E74FF80
:10418800F0A3F08E828F83E064027039750C02759B
:104198000D00780C121AB58E828F83A31243A5E501
:1041A800082404FAE43509FB1212EA7402121848CA
:1041B800850A82850B83E024028009740112187E27
:1041C800EEF0A3EFF0740112187E124397740112F7
:1041D800187E12438E024313E50E450F6003024317
:1041E80019850C82850D8312462DAA16AB1712115C
:1041F80082850A82850B837402F08508828509838B
:10420800EAF0851282851383EB024316E50E450F0B
:1042180060030243191243B2F8A3E0F9850A8285C4
:104228000B837402F0E8850882850983F0E985121A
:1042380082851383024316850C82850D83123411FF
:104248001212E4EAFAF8C3950EE4950F405CE865AB
:104258000E450F70047A008021851882851983E045
:10426800FCE50E2CFCE4350FFDC3EC98ED940050F2
:1042780003E08005E50ECAC39AFAEA850A82850B2F
:1042880083F08A0A750B00780A121AB5850C8285A4
:104298000D83E0250EFCA3E0350FFDAA08AB09123B
:1042A80012EA74021218480243807510070243800C
:1042B800E50E450F705B850C82850D8312453F85A1
:1042C8000A82850B837407F08882898312438F12D0
:1042D8004387E0851282851383F0E82402FAE439E3
:1042E800FB8A828B831243978A828B8312438EA325
:1042F800A312296E12439CF0E82405F8500109889E
:1043080082898312439CA31243D6A3A3A3A3F0805C
:104318006775100B8062741D12187E123411120713
:10432800DA8A828B83E5824583604A12453F880C8E
:10433800890DE8450D603E742512187EE0F5107869
:1043480010121AB9780E121AB5780A121AB5780826
:10435800121AB5740712187EE0F9EEFCEFFDAA16E2
:10436800AB17850C82850D831218A07407121848A4
:10437800E9F510800375100EA91074050236D4F003
:1043880088828983A322A3E0850882850983221273
:1043980043DDF0221243DDA3A3229002EF1246343C
:1043A80022E0F50E750F00780E22850C82850D83AC
:1043B800123877E022E0FAA3E0F8E4C8F9EA282204
:1043C800F08A828B83E0F50A750B00780A22124383
:1043D800871243DD22E0850882850983A3A322741E
:1043E800EE1218A274FE1218328A088B09ECFEED40
:1043F800FF890AAC18AD19EEFAEFFB1206D88A0C41
:104408008B0DEA450D70030244CF85188285198308
:104418001234111207DA8A828B83E582458370038E
:104428000244CAA3A312453F880E890FE8450F70BE
:10443800030244CA741412187EE0F510A3E0F511C3
:10444800E50AF50B780B121AB9741912187E121AAC
:10445800CC7810121AB5741B12187EE0F9AC0CADAA
:104468000DAA08AB09850E82850F831218A0740562
:10447800121848E9F50B705274FE650A604C850CF9
:1044880082850D83E0640270411244DEFAA3E0F9EC
:10449800EAF87402687003742969702E85108285A1
:1044A80011831243BDF50CE439F50D780C121AB5D9
:1044B800EEFCEFFDAA08AB0912085E740212184858
:1044C8008008750B0E8003750B01A90B7402121876
:1044D800487F0A021974A312454388828983E0221F
:1044E80074F61218A274FE121832740C12187E1286
:1044F800453FE8851882851983F0740112187EE912
:10450800F0E4F508F5097808121AB5750802780874
:10451800121AB57404121888880889097808121ABA
:10452800B579FE1208467406121848740212184823
:10453800023EF08E828F8312454322E0F8A3E0F911
:104548002274F71218A2EAFEEBFF890890030612FC
:1045580043A5121182EA5402600BA908EEFAEFFB98
:104568001206CC800279017F0102197474F21218C4
:10457800A274FE121832EAFEEBFF890A7401650A7A
:1045880060147402650A60030246237901120A68FE
:10459800E96003024623EEFAEFFB120828EA4B60B3
:1045A8000312082EA818A919880889097808121A68
:1045B800B57508027509007808121AB57508DF750F
:1045C80009907808121AB57CFF7DFF7A017B0012EA
:1045D80006D274061218488038850882850983A394
:1045E800A3A3A3A3A312462DEEFAEFFB12116AE4CC
:1045F800F50CF50D780C121AB5740212187E121A01
:10460800CC7CFF7DFFAA08AB091206DE74041218E1
:10461800488A088B09E508450970BE7402121848D3
:104628007F0602197412387712463422E0FCA3E0A0
:10463800FD2274F41218A28A088B09ECFEEDFF9093
:104648001774E0F4604B7A097B0012130EEA4B6092
:10465800408A828B8374B1F0A3E412469CF08A826C
:104668008B83A3A3E508F0A3E50912469CA3EEF00B
:10467800A3EFF0740C12187E12453F8A828B83A335
:10468800A3A3A3A3A3A3123A68901774E0F9121383
:104698001A0229A3F08A828B83A3A3A3A32274F00E
:1046A8001218A274FA1218328909ECFEEDFF750887
:1046B800008A0A8B0B780A121AF9000410CC48E910
:1046C8004607472147394757476F479247AA47BE8A
:1046D80047E847634874488B48A648CC48CC48FE0E
:1046E800477401650960030248C78E828F83E0F82A
:1046F800C3940340030248C7E89018600248A374B3
:1047080002650960030248C78E828F8312502A907F
:104718001861E8F0A3E90248A3740165096003027F
:1047280048C71248F440030248C7E890072C0248DB
:10473800A37401650960030248C78E828F83E0F87D
:10474800C3940540030248C7E890072D0248A374A4
:1047580001650960030248C71248F440030248C7CC
:10476800E890072E0248A37410650960030248C741
:10477800750A10750B00780A121AB57A2F7B071282
:1047880012EA74021218480248ED740165096003C0
:104798000248C71248F440030248C7E890073F029E
:1047A80048A37401650960030248C78E828F83E0BD
:1047B8009018640248A37404650960030248C78E10
:1047C800828F83780C1216F69090B2780C12152905
:1047D80050030248C7900741780C1217050248EDAC
:1047E800E960030248C7120672E9700512112E80AB
:1047F800559007D480617407650960030248C7753E
:104808000A06750B00780A121AB58E828F83A3AC3C
:1048180082AD8374021218901212F07402121848B2
:104828007C007D00AA18AB198E828F83E0F91210E4
:10483800DAE9FEC3940A40030248EA120672E970F4
:104848000CEEF91211347950121428806D74D52E9B
:10485800F582E43407F583740180407401650970BA
:104868005E1248F45059E8900740802F740165099A
:10487800704D8E828F83E0F8C3940A5042E89018F6
:104888006380187401650970368E828F83E0F8742E
:10489800F928C3940A5028E8901865F080477401F5
:1048A8006509701B9007D3E0F88E828F83E090072C
:1048B800D3F0E87030E06401702B12112280267565
:1048C80008188021C3EA9427EB94005015740265F8
:1048D80009700F8E828F83125B0A1204F2E9F508C1
:1048E8008003750802A9087406024C188E828F830B
:1048F800E0F8C3940222A90880031218487F040232
:10490800197474F01218A274B11218328C0A8D0B33
:1049180090904E742012189874061217457420123D
:1049280018981210DAE9FF745F12187EE0F509EFA3
:10493800C3940A4003024A8C75F006EFA4F5087484
:10494800411218987A0E74202508F9121422E97079
:1049580009744D12187EE0FE80027E00901860E017
:1049680064027005750E018003750E0074086509F0
:1049780070047422800274212508F50D7C1B7D00CB
:104988007900742612189012130274261218987A55
:104998001BA90D121422E9702D744012187EE02410
:1049A800F9C3940A5020E50EF50D780D121AB97462
:1049B80027121898EEA2E0E433F9AA0AAB0B120505
:1049C8009474011218487C147D007900740C121834
:1049D80090121302740C1218987A1074242508F98E
:1049E800121422E970347C1079FF740C121890129A
:1049F8001362E97025741C12187EAC82AD837A04A8
:104A080074252508F9121422740C121898EEA2E0E5
:104A1800E433F9AA0AAB0B12057CAC18AD197A0C71
:104A280074702FF9121422E97049AA18AB191211DF
:104A38000A7F00EF75F003A4F8A9F085188285199C
:104A480083E58228F8E5831251E11253C2601D887C
:104A5800828983A3A3E0F50E750F00780E121AB5AC
:104A6800AA0AAB0B12084C74021218480FEFC39431
:104A78000440C0EEA2E1500C90072BE0F9AA0AAB63
:104A88000B120852740465097028901860E06402DB
:104A980070207A0090073FE060027A0190072CE0CE
:104AA8006004780480027800E84AF9AA0AAB0B127D
:104AB80006487900744F024C1874F71218A21206AF
:104AC80072E9704F9007D4E06401701512112E90AE
:104AD80007D4E4F07C0AFDF97AD57B07121302802B
:104AE8002A750800A80874D528FEE43407FF8E82CA
:104AF8008F83E06401700BA9081211348E828F83B2
:104B0800E4F00508E508C3940A40D979501214283E
:104B18001211220254F974F01218A274F012183209
:104B2800EAFEEBFF8C088D09750A0AE9600C14602F
:104B38000914603B14607D024C1412111CE9F50A3B
:104B4800C3940A4003024C14E50845097003024C5B
:104B580014750C06750D00780C121AB5EEFCEFFDF5
:104B6800AA08AB091212EA7402121848024C14750A
:104B78000C00750E06750F00780E121AB5EEFCEFD4
:104B8800FDE50C75F00EA4F8A9F0744D28FA740729
:104B980039FB1212FC7402121848E9700B050CE577
:104BA8000CC3940A506680CA850C0AE50AC3940AA5
:104BB800505A8049750C00AC18AD197A1075F0067A
:104BC800E50CA42423F9121422E9701C7C1079FF47
:104BD800AA18AB19121362E9700EEEFCEFFDAA18C1
:104BE800AB19120558E9600B050CE50CC3940A5083
:104BF8001B80C4850C0AE50AC3940A500FE50845D2
:104C0800096009AA08AB09A90A121116A90A7410A1
:104C18001218487F0802197474F41218A2890975C9
:104C2800081574FF6A700374FF6B70277E00AC0967
:104C38007A027B00EEF91210F8E960037508000E9D
:104C4800EEC3940A40E8E50960537A467B11120ADC
:104C58008C804A120A5C8A0A8B0BAE0AAF0BEE4FA5
:104C680060387C007D00EE2405FAE43FFB8E828FDD
:104C780083A3A3A3A3E0F91210DAE9F9C3940A50B5
:104C88000CAC097A027B001210F8750800E509607F
:104C98000CEEFAEFFB12114680037508140248FE69
:104CA80074F21218A2ECFEEDFF750815740E1218B6
:104CB8007EE0F50AA3E0F50B74FF6A700374FF6BDE
:104CC8007021750900AC0AAD0BEEFAEFFBA90912C9
:104CD80010FEE960037508000509E509C3940A5048
:104CE8003F80E2120A5C8A828B83E5824583602DCD
:104CF8007C007D00E5822405FAE43583FBA3A3A3A9
:104D0800A3E0F91210DAE9F9C3940A5013AC0AAD1A
:104D18000BEEFAEFFB1210FE7508008003750814FD
:104D2800A9087F06021974C082C083900745EAF07B
:104D3800A3EBF090072BE0FC7D007A267B001204A1
:104D4800F290072BE0F91207B602581374EE121806
:104D5800A274EC1218328A088B09EA240CF510E4C4
:104D68003509F5118A828B83A385820C85830DEA28
:104D78002405F50EE43509F50FEA2409F50AE435AA
:104D880009F50BEA2403FEE43509FF8A828B83A325
:104D9800A3E024FA700302501824FD7003024F3870
:104DA800147003024E3214601024FD7003024F1B6E
:104DB800147003024F7002501E125B106044E0F53D
:104DC80083888212502A880C890DE8450D60338546
:104DD8001082851183E0F50E780E121AB9EA240BB9
:104DE800F582E43509F583E0F9125B040A0A0AEF53
:104DF800FB850C82850D831218A0740112184802D5
:104E0800501E850A82850B83121ACC90074112170F
:104E18001412058E7402121848E9700302501E79A4
:104E280001850A82850B83024FE8750A00850C828A
:104E3800850D83E06003024EE8850E82850F83E0CE
:104E4800A2E04003024EE89007DF125B1360030202
:104E58004EE87C0E7D007900AA18AB191213028562
:104E680010828511831257DEEA4B6010750A0675A9
:104E78000B00780A121AB5EA2410801B1257DA12AE
:104E88000A5CEA4B700302501E750A06750B00781F
:104E98000A121AB5EA2405FCE43BFD7402121890C4
:104EA8001212EA7402121848850E82850F83E0A256
:104EB800E25004D2F08002C2F0A2F0E433F8740C9D
:104EC80012187E125992121110E970117A027B00A1
:104ED80090072BE0F912133E7900025020750A154D
:104EE800125B10700302501E12503F700302501ED6
:104EF800850C82850D83E0FC79011250301218A0D0
:104F0800E50A700302501EFC79031257DA1257950E
:104F1800025013125B10700302501E12503F7003B0
:104F280002501E850C82850D83E0FC790202501028
:104F38007C007D00EA2404FAE43509FB8E828F8325
:104F4800E0F91210DAE9F8C3940A400302501EE5AA
:104F580008240AFCE43509FD7A0475F006E8A4245F
:104F680025F912141C02501E1257DA900740E0600F
:104F780007901863E0F9806B901860E07004790579
:104F88008061120A5C8A0C8B0DA80CA90DE8497087
:104F98000302501EE82404F50CE439F50D85088257
:104FA800850983A3A3A3A3A3A3A3E0A2E050398503
:104FB8000C82850D83E0F508602E850A82850B83B7
:104FC800A3E054027022740E121898E82405FAE43B
:104FD80039FBA9081210DAE9700E79038E828F83E3
:104FE8001257DE120588802EAC0EAD0F850C828517
:104FF8000D83E0F91257DA121152125B1060171282
:10500800503F60127C0079001250301218A08006C0
:105018001257DA1210D4790174141218487F0A0250
:105028001974E0F8A3E0F9228E828F83E0FAA3E0F6
:10503800FB8882850983221257A3F98909E8450963
:105048002274F51218A274F2121832EAFE8C0A754C
:10505800F006E9A42420F508AC18AD197A0EF91267
:105068001422E970467C0679FFAA18AB191213625C
:10507800E97038740C12187E1257DEEAF8E50A60F7
:1050880005EEC8488004EEF4C858F8EA687001EBE9
:105098006015740C12187EE8F0A3E4F0AC18AD1992
:1050A8007A0EA90812141C790180027900740E1274
:1050B80018487F0302197474F21218A274E61218C1
:1050C80032890A8A088B09ECFEEDFF740C121898D5
:1050D8007A0E75F006E9A42420F9121422E9600377
:1050E8000251A47C0679FF740C121890121362E91D
:1050F80060030251A47470250AF50BAC18AD197A37
:105108000CF9121422E960030251A0AA18AB191273
:10511800110AE5084509701D7C0C7900AA18AB191D
:10512800121362E970727C0C7D007900AA18AB1921
:105138001213028051AC18AD19AA08AB0912110458
:105148008A0C8B0DA80CA90DE8497022EE4F604C13
:10515800AC18AD197A007B00121104EAF8EBF9EAF1
:105168004B603988828983E508F0A3E509F012527B
:105178001DFAEE6A7001EF601FEEF04F700888822A
:105188008983E4F0A3F0AA18AB1912110AAC18AD80
:10519800197A0CA90B12141C790180027900741A6F
:1051A800121848024D2A74F71218A27E00EE75F004
:1051B80003A4F8A9F0EC28F8ED1251E1E06A7003B5
:1051C800A3E06B7006E8FAE9FB800B0EEEC39404CB
:1051D80040DB7A007B000254F939F98882898322FE
:1051E80074F71218A27C00EC75F003A4F8A9F0EA91
:1051F80028F8EB1251E1E0F4FEA3E0F4FF8882897D
:1052080083EEF0A3EFF012521DF4F00CECC39404FB
:1052180040D50254F9E82402F582E439F583E02206
:1052280074F41218A274F4121832EAFEEBFF8C0818
:105238008D099007DF125B13704FEE4F7003025316
:10524800A1EC450970030253A112111CE9901866DC
:10525800F0C3940A4033750B007C0679FFE50B75A3
:10526800F00EA4FAABF074472AFA74073BFB12134A
:1052780062E96003025302050BE50BC3940A40D9A7
:10528800750A0AE50A901866F0901866E0C3940A51
:1052980040030253A175F006E0A4FB9007DF125B00
:1052A80013705CEEFCEFFD7A0E74202BF912141CBF
:1052B8007C0C7D0079FFAA18AB19121302AC18AD4B
:1052C800197A0C901866E02470F912141C750A0EED
:1052D800750B00780A121AB5EEFCEFFD901866E01F
:1052E80012545A1212EA74021218489007DFE5089D
:1052F800F0A3E509F079000253A3850B0A8084E046
:10530800C824061253BC60197A1B74212BF9121495
:105318001C1253A82406F582E438F583E4F0A38030
:10532800D31253A8240A1253BC60107A1B74222B80
:10533800F912141C1253A8240A80DB1253A8240C57
:105348001253BC60107A1074232BF912141C1253D8
:10535800A8240C80C11253B11253BC60307A107467
:10536800242BF912141C1253B1F582E438F583E0AA
:105378002410FCA3E03400FD7A0475F0069018664A
:10538800E0A42425F912141C1253B180899007D384
:10539800E0600312115812114C7901740C02490291
:1053A8009007DFE0F8A3E0C8229007DFE0F8A3E069
:1053B800C8240822F582E438F583125B0AEC4D22F2
:1053C80074F41218A274F2121832EAFEEBFFE9C361
:1053D800940A5004EE4F700479028034AC18AD1969
:1053E8007A0E75F006E9A42420F9121422E9F508CA
:1053F800701C750A06750B00780A121AB574021229
:105408001898EEFAEFFB1212EA7402121848A9086B
:10541800740E02490274F41218A2EAFEEBFF750832
:1054280000750A06750B00780A121AB5EEFCEFFD36
:10543800E50812545A1212FC7402121848E9600462
:10544800A908800B0508E508C3940A40D4790A0224
:10545800490575F00EA4F8A9F0744728FA740739BD
:10546800FB2274F71218A2750800E50875F00EA45F
:10547800F8A9F0744728FE740739FFEEFCEFFD7AAF
:105488000E75F006E508A42420F9121422E9602913
:105498007C067D0079FFEEFAEFFB1213027C067D95
:1054A8000079FFEE2CFAE43FFB121302EE240CF510
:1054B80082E43FF583E4F0A3F00508E508C3940A05
:1054C80040A89007D3E0600312115812114C8021B4
:1054D80074F71218A27E007F007C06EF12545A79E6
:1054E800FF121362E970010E0FEFC3940A40EAEE4F
:1054F800F97F0102197474F71218A27E00EEF912EE
:105508001134E9F90EEEC3940A5003E960EF80E123
:1055180074F31218A274CB1218328908901866E036
:105528006508701B7A017B0090072BE0F912134481
:105538007A027B0090072BE0F9121344121164756C
:10554800F006E508A4FF74202FFE74271218987A35
:105558000EEEF9121422E960030256207C0679FF48
:105568007427121890121362E960030256207C0E09
:105578007D0079FF74271218901213027C1B7D009E
:1055880079FF740C1218901213027C0C7D0079FFBD
:10559800AA18AB1912130274271218987A0EEEF98A
:1055A80012141CE9FE740C1218987A1B74212FF936
:1055B80012141CE9F509740C1218987A1B74222F1E
:1055C800F912141CE9F50A740C1218987A1074234D
:1055D8002FF912141CE9F50B740C1218987A107430
:1055E800242FF912141CE9F50C740C1218987A047B
:1055F80074252FF912141CE9FFAC18AD197A0C7434
:10560800702508F912141CE9F8E509450A450B4507
:105618000C4F48CE4EFE80027E00EEF9743512180B
:10562800487F0502197474F71218A2E990072BF045
:105638001211220254F974F21218A2EAFEEBFF5476
:105648008070030256FD90072BE0F91213268A0892
:105658008B09EA450970030256F67A01E508240524
:10566800F50AE43509F50BE5082404F8E43509F9E9
:10567800880C890D8508828B83E02450603614607D
:105688000624E16058805D88828983E07059850826
:10569800828B83A3A3A3A3A3A3A3121ACC125B0494
:1056A8008508828B83A3A31257DE1210E6740212B8
:1056B8001848803388828983E0641E700F790085DA
:1056C80008828B83A3A31257DE1210E0850C828513
:1056D8000D83E0F9AA0AAB0B1207B0800AAA0812D8
:1056E80010F2E9FAEA6007AA08AB09121314EEFAF5
:1056F800EF6480802AEE54026028EE6402FE7C008B
:105708007D007A007B00121110E960047A018002A2
:105718007A027B0090072BE0F912133EEEFAEFFBBA
:105728008068EEA2E050556401F508EFF5091257BC
:10573800B312115EE96033125B1060291257AB1285
:10574800502AE8FEE9FFEE4F601B7C0079011257F2
:10575800B38E828F831218A07C0079031257B3127C
:1057680057951218A0121164800C7A017B009007DB
:105778002BE0F912133EAA08AB09800E5404600608
:10578800EE6404FA80047A007B00024D2A900745F3
:10579800E0F8A31257A3F5838882221257ABE0F8EA
:1057A800A3E022E0F5838882A3A3229007DF125AA0
:1057B800F4E0FAA3E0FB227F02021974C082C083DE
:1057C80090072BE0F98A828B83A31257DE120852C6
:1057D80080398E828F83E0FAA3E0FB22C082C083E7
:1057E80074FF121832121128E9C3940285188285B1
:1057F8001983400474028002740AF0AC18AD197A57
:105808000179051206907401121848D083D08202DB
:10581800011F74F01218A274E8121832EAFEEBFFA6
:10582800890A8C088D097C187D007900AA18AB19A3
:10583800121302851882851983EEF0A3EFF0900702
:105848002DE0C0E0740212187ED0E0F090072EE040
:10585800C0E0740312187ED0E0F0901865E0C0E054
:10586800741712187ED0E0F0901864E0A2E0E433D8
:10587800FCE0A2E15004D2F08002C2F0A2F0E433CE
:10588800F8E0A2E45004D2F08002C2F0A2F0E433BF
:10589800FAE0A2E55004D2F08002C2F0A2F0E433AC
:1058A800F50E750F00E0A2E65004D2F08002C2F0B7
:1058B800A2F0E433F50C750D00E0A2E25004D2F03A
:1058C8008002C2F0741512187EE054FEFEA3E0FFB9
:1058D800EE4CFCEFFDEC54FDFCE828F8EC48F8ED44
:1058E80054FEF9EAFBE94BF9E8FAE954FDFB7409BF
:1058F800780E12181FEB450F54FBFB740A780C1234
:10590800181FEAF8EB450DF9E854FBFAA2F0E43366
:10591800F50C750D007402780C12181FEA450CF886
:10592800741512187EE8F0A3E9F090072EE0601DC8
:10593800750C10780C121AB57C2F7D077406121896
:105948007EAA82AB831212EA740212184890073FAB
:10595800E06011E50A6009741512187EE04402F04F
:10596800780180027800741412187EE048F09007DD
:105978002CE06004780480027800741412187E12F7
:1059880059921205827418024C18E048F0AC08AD20
:1059980009AA18AB192274F71218A21208A67508DA
:1059A80000E50875F00EA4F8A9F0744728FE7407FE
:1059B80039FF7C0679FFEEFAEFFB121362E97009F2
:1059C800EEFAEFFB79001208AC0508E508C3940A63
:1059D80040CF0254F974F61218A274FD121832EA74
:1059E800FEEBFF9007E1125B1370397508E3750948
:1059F800077808121AB57508027509007808121A8E
:105A0800B57508DF7509907808121AB57CFF7DFF17
:105A18007A017B001206D274061218489007E1EA50
:105A2800F0A3EBF09007E1125B137003025AE675DE
:105A380008FF7808121AB9E4F508F5097808121A67
:105A4800B57405121888880889097808121AB57477
:105A580005121888880889097808121AB59007E38A
:105A6800121ACC79029007E1125AFC120840740904
:105A7800121848E97036851882851983E0FA74018E
:105A880012187EE0F8E4C8F9EA28F508E439F509BF
:105A9800EA450960177808121AB59007E1125AF416
:105AA800A3125AFC1210E67402121848E4F508F51D
:105AB800097808121AB59007E3121ACC7CFF7DFF0B
:105AC8009007E11257DE1206DE7404121848900798
:105AD800E1EAF0A3EBF09007E1125B13700479019F
:105AE8008002790074031218480257BFE0F8A31225
:105AF80057ABA322125B0AEEFAEFFB22850A8285D6
:105B08000B83E0FCA3E0FD22900745E0F8A3E0F951
:105B1800E84922C082C0839007DF125B13601090AF
:105B280007DF1257DE1213149007DFE4F0A3F0909A
