:020000040000FA
:10080000ACF9FFFF0000007C41414141FFFFFFFFC9
:10081000FFFFFFFFFFFFFFFFFFFFFFFFFFFFFFFFE8
:10082000000102030405060708090A0BFFFFFFFF8A
:10083000020D1C022205FFFFFFFFFFFFFFFFFFFF6E
:10084000FFFFFFFFFFFFFFFFFFFFFFFFFFFFFFFFB8
:10085000FFFFFFFFFFFFFFFFFFFFFF0228BEFFFFBD
:10086000FFFFFF0228A0FFFFFFFFFFFFFFFFFFFFCB
:10087000FFFFFFFFFFFFFFFFFFFFFFFFFFFFFFFF88
:10088000FFFFFF02227BFFFFFFFFFFFFFFFFFFFFD6
:10089000FFFFFFFFFFFFFFFFFFFFFF022877FFFFC4
:1008A000FFFFFFFFFFFFFFFFFFFFFFFFFFFFFFFF58
:1008B000FFFFFF02205B01FF0000B40000280028BA
:1008C00000283075A000A000A000A00000080008CB
:1008D000E001F000100010001000100010001000E7
:1008E00050005000500010001000D0070000000021
:1008F00000000F0001000500307507001000010026
:1009000081FF00000000FFFFFF0F2B2D2B152B5147
:100910002BFF02020208025000A0000000E80302C0
:100920002C92010000FC91022892010000EF1502B8
:100930002292010000BE02022892010000F015027E
:100940001C92010000D402022892010000F115025D
:100950001A92010000D602022892010000F215024C
:100960001892080000D702022892010000F3150235
:100970001E92010000F415FF0100FF20022C9201DD
:1009800000001991022892010000581602129200EC
:100990000000000002249203000005031700FF314D
:1009A000FF31FF31FF31FF31FF31FF31FF31FF31C7
:1009B000FF31FF31FF31FF31E734F934E134020216
:1009C00002020202020202010D0000001001022CCC
:1009D00092010000F9910228920100009B16020C7E
:1009E0009201000022070228920100009C16020AD0
:1009F000920100001A900228920100009D16020246
:100A000092010000FE8F0228920100009E1602044F
:100A100092010000578F0228920100009F160206E3
:100A2000920100008D8F022892010000A01602089A
:100A300092010000338F022892010000A1160220CB
:100A400092010000458F022892010000A216020EBA
:100A5000920100000C90022892010000A3160210DF
:100A600092010000A41601E8030577100A1C022C6D
:100A700092010000FF910228920100004A171078AD
:100A80008E02000018080224920300001A080226B1
:100A90009201000041900228920100004A1710883C
:100AA0008E02000019080224920300001C0802268E
:100AB00092010000CF90FFFFFFFFFF0001307503A0
:100AC000020106000000000000000000000000001D
:100AD000000000000000000000000000000000FF17
:100AE000FF0600800CE803140943433235343042DA
:100AF0004C455065726970686572616C05125000F2
:100B00002003020A000201060302F0FF53696D7020
:100B10006C6520424C452050657269706865726151
:100B20006C093A0000153A0A4368617261637465A2
:100B30007269737469632031000243686172616392
:100B40007465726973746963203200084368617266
:100B5000616374657269737469632033001043685C
:100B60006172616374657269737469632034000231
:100B70004368617261637465726973746963203577
:100B8000000A4368617261637465726973746963B2
:100B9000203600022C92010000F6910228920100FA
:100BA0000004180234920300008715022692010007
:100BB0000005180228920100001618023692010062
:100BC00000881502269201000017180228920100E1
:100BD00000281802389202000089150226920100AE
:100BE0000029180228920100003A18023A920000E7
:100BF000008A150224920300008B15022692010040
:100C0000003B180228920100004C18023C9204009C
:100C1000008D150226920100004D18022892010055
:100C2000005E18023E920300009215022692010017
:100C3000005F18303132333435363738394142436A
:100C400044454600286E756C6C20706F696E746543
:100C500072290030313233343536373839616263C6
:100C6000646566003F3F3F000000807F0000803FDA
:100C700000000000F9021550B743BA5100002041AE
:100C800000E7DB2E0000A040E5C754F84405F5C797
:100C900079012200000080FB120C88B90003020DCC
:100CA00006E479217808B800028004F709D8FCE44A
:100CB00079297802B800028004F709D8FCE4900290
:100CC00080781579148002F0A3D8FCD9FA781C90AA
:100CD00008B67A01BA00028007E493A3F608DAF9AD
:100CE0007A947B159008B778D279048015E493A3A1
:100CF000AD82AE838A828B83F0A3AA82AB838D827E
:100D00008E83D8E9D9E77582CA7583DF7407120D1F
:100D10002E75829375830C7400120D2E75D000759C
:100D2000813F751A80751B02759F00020C98C09F49
:100D3000F59FE473D09F22D083D082C09FE493C0FC
:100D4000E0740193C0E0740293F59F22E066701096
:100D500008A3E066700A08A3E066700408A3E066D2
:100D600022C00AC3E096F50A08A3E096420A08A347
:100D7000E096420A08A3E096420AA2D265D033E583
:100D80000A7001D3D00A22C3E7960809E79608093A
:100D9000E7960809E79622C3E09608A3E09608A321
:100DA000E09608A3E09622C00AC3E096F50A08A3DD
:100DB000E096420A08A3E096420A08A3E096450A94
:100DC0007001D3D00A22080808E630E71112168015
:100DD000120DDE080808C64480C618181822181814
:100DE00018E9799EC608CAC608CBC608CCC6C37027
:100DF000207996CACBCC7019798ECBCC70137986BA
:100E0000CC700EF9802ACA33CACB33CBCC33CC3367
:100E10001930E7F2CCCBCA3350147004EA30E00D3D
:100E2000E4CA3ACACB3BCBCC3CCC500209C3E91351
:100E3000C6CC182313C6CB18C6CA18C6F922120E80
:100E40007E20F01430E72B74FFFCFBFA747F8022C5
:100E5000E4FCFBFA7480801AB48008BC00F2BB008A
:100E6000EF800F50EBF9E4C39AFAE49BFBE49CFC9F
:100E7000E499C6CC18C6CB18C6CA18C6F922E4C96C
:100E8000C608CAC608CBC6D3330308CCC63392F013
:100E9000C3947F402E94184019C9B90704CACBCC1B
:100EA000225025C309CA33CACB33CBCC33CC33D978
:100EB000F422F4600DC9CCC313CB13CBCA13CAD927
:100EC000F6CC22E4FCFBFA2214FCFBFA22E62618FC
:100ED000461846184622E727194719471947221886
:100EE0001818E60846087009E626087005E633F487
:100EF000220822191919E70947097009E72709701B
:100F000005E733F4220922E6084608C313460833EE
:100F10006002E633F422E7094709C3134709336047
:100F200002E733F422120F076025120F1660201219
:100F30000ECD7003020ED6080808E7667010181967
:100F4000E766700A1819E76670041819E76622F454
:100F500022120F07601C120F166017120ECD7007B9
:100F6000120ED67001D322C0D0120ED67006D0D089
:100F7000B322C32233D0D0501430E0F6C3E7960832
:100F800009E7960809E7960809E796B32220E0D515
:100F9000E6970809E6970809E6970809E697B32255
:100FA000120F07601B120F166016120ECD7007127B
:100FB0000ED6600CB322C0D0120ED67005D0D0224F
:100FC000C32233D0D0501330E0EBC3E7960809E7D3
:100FD000960809E7960809E7962220E0E4E69708D4
:100FE00009E6970809E6970809E6972200120F0715
:100FF000604F120F166012E7548066F6120EDF7013
:1010000011120ED6703B090909F4F618F618F618F5
:10101000F622120EF37015120ECD08080860EAE6EB
:10102000447FF618768018E4F618F622120ECD608A
:1010300016120ED67012E4F608F608F608E654808A
:10104000F609090918181822EAC0E0EBC0E0ECC064
:10105000E0EDC0E0E687F0A4FBACF008E687F0A482
:101060002CFCE435F0FA1809E687F0A42C4B60025A
:101070007401CA35F0FCE433FB09E687F0D2F7A42B
:101080002CCB35F0FC1908E687F0A42BCC35F0FB0F
:10109000E433FD0819E687F0D2E7A42C4ACB35F0FB
:1010A000CD3400FC09E687F0D2E7A42DCC35F0FD65
:1010B000E433FA0918E687F0D2F7A42CCD35F0CA4C
:1010C0003400FC08E687F0D2E7D2F7A42ACC35F04A
:1010D0007A7E20E70B0ACB33CBCD33CDCC33CC3368
:1010E000CB3350147004ED30E00ED2F1E4CD3DCDA1
:1010F000CC3CCC3B5005DA05C2F1EB547FC633083B
:10110000E63392F0FBE73309E733C39A502D2B7097
:10111000190C0D4C4D70151806E608C333700D20E0
:10112000F10AA2F013F6E418800B4024E4F630F044
:1011300002768018F618F618F68024D33B14501067
:1011400074FFA2F013F6187680E418F618F6800FF4
:10115000A2F013F618E63303F618ECF618EDF6D005
:10116000E0FDD0E0FCD0E0FBD0E0FA22120F1660E8
:1011700046120F07603DE9687008F618F618F61871
:10118000F622748067F71211A0090909748067F7C5
:1011900022120F07601D120F167005191919801AF7
:1011A000120EDF701F120EF3C37003E667331919B6
:1011B0001940071818182208080874FFF618F618BE
:1011C000F618F622120EF36017120ED6702192F066
:1011D000120ECD7019501720F014080808090909DB
:1011E000E7F61819E7F61819E7F61819E7F62212C4
:1011F0000ECD60E6E869701F0808E62480F608E472
:1012000036F618547FB47F0CE654806007F6E41875
:10121000F618F622181822E9C6CC08C6CD08C6CEA4
:1012200008C6CFC0E0E8C0E0EAC0E0EBC0E009E9F2
:10123000F809E7FA09E7FBE6F918E6F8C3EC98EDD8
:1012400099EE9AEBC2E7F5F0EFC2E795F0500E6029
:101250000CEBCFFBEACEFAE9CDF9E8CCF8EAA2E74D
:10126000D2E7FAEB33FB13F5F0EEA2E7D2E7FEEF9D
:1012700033FFC5F013A2E730E601B313C5F0C3C0D6
:10128000E0C0F07F00C39BFB605E9418600F401DC0
:1012900014601AD0E023F9D0E0F80213728AF0E962
:1012A000486003D2F0E4AFF0FAF9F8803BEB30E4A9
:1012B0000D89F0EA6003D2F0E4AFF0F9CAF8EB3040
:1012C000E30D88F0EF6002D2F0AFF0E4CAC9F8EBAA
:1012D00054076014FBC3EA13FAE913F9E813F8EFB3
:1012E000135002D2E0FFDBEDD0E0C0E030E739C3BD
:1012F000E49FFFF5F0EC98FC42F0ED99FD42F0EE32
:101300009AFE42F0D0E0F9D0E0F8E5F0607AE92307
:10131000F9EE20E742D8028067C3EF33FFEC33FCDD
:10132000ED33FDEE33FE80EAEC28FCED39FDEE3ABC
:10133000FED0E023F9D0E0F84002801BC3EE13FE9C
:10134000ED13FDEC13FCEF135002D2E0FF08B800E0
:10135000067F7F74FF802EEF3350178CF020F00251
:1013600060100CBC000C0DBD00080EBE000408E8A7
:1013700060DFE933E813FFEE2313FE4F4D4C800886
:10138000E95480FFE4FEFDFCEE33EF33F47004FC1F
:10139000FD7E80D0E0FBD0E0FAD0E0F8D0E0CFC610
:1013A00018CEC618CDC618CCC6F922120F07700485
:1013B00018181822120F16700D74FFF61819F61867
:1013C00019F61819F622E7548066F6120ECD700F42
:1013D000120ED670F014F608F608F608F680D11250
:1013E0000ED6700CF608F608768008E6447F80EC8E
:1013F000120EF6700C120EE260BFE65480F6E48026
:10140000BB120EE2700519191980A5E869700C76F7
:101410003F18768018F618F6E8F922E6CDC0E018F5
:10142000ECC0E0E633CD33CDD313F6E719FCE71972
:101430001933CC33C3947F400ECD9D502408E6541D
:1014400080F6E418F6800FF4043D14501408E644C6
:101450007FF6187680E418F618F6D0E0FCD0E0FDB0
:1014600022CCD313CCFD18E4C6CBC0E018E4C6CA26
:10147000C0E00808ED08C633E613F618E433C67575
:10148000F003C3CA97CA09CB97CB199C40047D08C7
:10149000802EBD000302155416B6FF050606081679
:1014A00018C3CA33CACB33CB33CA27CA09CB37CB0D
:1014B000193CC37D08803E187D0820E75CC633C612
:1014C000CA33CACB33CB33DDF1D5F0EB30E77BCA7F
:1014D00097CA09CB974ACB199C406F4B7025E620E1
:1014E000E0218066187D08C3CA97CA09CB97CB193B
:1014F0009CD3C633C6CA33CACB33CB3350C9DDE71E
:10150000D5F0E1D3E4C636C608C636C608C636C628
:1015100008C636C61818188031C3CA97CA09CB97AF
:10152000CB199CB34097C633C6CA33CACB33CB332F
:10153000DD34D5F02EC6A2E0C640C8CA27CA09CB02
:1015400037194A70BECB3CB480B90808E63308E6C8
:1015500033601F181818D0E0FAD0E0FBD0E0FCD0C0
:10156000E0FD22187D08CA27CA09CB37CB193CD326
:10157000808013F618E4B67F11F618B6FF0EF61841
:10158000C60470D20808768080CAF618F618F6806D
:10159000C5080808EAC0E0EBC0E086F0E7A4FA1846
:1015A0000986F0E7A42AFA180986F0E7A42AFA18AF
:1015B0000986F0E7A42AFA1986F0E7A4FBE5F02AE9
:1015C000FA190886F0E7A42BFBE5F03AFA19088629
:1015D000F0E7A42BFBE5F03AFA18180986F0E7A427
:1015E000C5F02BFBE43AFA1908E7C5F0C6A426F6C5
:1015F000E5F03BFBE43AFA1886F0E7A4F6E5F008DC
:1016000026F6E43B08F6E43A08F6D0E0FBD0E0FA30
:1016100022E4CFC0E0E4CEC0E0E4CDC0E0E4CCC042
:10162000E075F020E626F608E633F608E633F6081D
:10163000E633F6181818EC33FCED33FDEE33FEEF0D
:1016400033FFC3EC9709ED9709EE9709EF97191946
:1016500019400FFFEC97FC09ED97FD09EE97FE1975
:101660001906D5F0BFECF709EDF709EEF709EFF72A
:10167000191919D0E0FCD0E0FDD0E0FED0E0FF2247
:10168000181818E4C396F608E496F608E496F608E7
:10169000E496F6226016080808C6C313C618C613D7
:1016A000C618C613C618C613C6D5E0EA22700908C4
:1016B0000808226016181818C6C333C608C633C6F1
:1016C00008C633C608C633C6D5E0EA22E627F608C0
:1016D00009E637F60809E637F60809E637F622E0A4
:1016E00026F608A3E036F608A3E036F608A3E036AF
:1016F000F622E026F008A3E036F008A3E036F00872
:10170000A3E036F022C3E697F60809E697F6080943
:10171000E697F60809E697F622C3E096F008A3E0FC
:1017200096F008A3E096F008A3E096F022E056F6C3
:1017300008A3E056F608A3E056F608A3E056F62202
:10174000E056F008A3E056F008A3E056F008A3E046
:1017500056F022E0F608A3E0F608A3E0F608A3E0BE
:10176000F622E6F008A3E6F008A3E6F008A3E6F008
:1017700022E0FAA3E0FBA3E0FCA3E0FD22E0F8A353
:10178000E0F9A3E0FAA3E0FB22E8F0A3E9F0A3EA82
:10179000F0A3EBF022CAC0E0E6F0A308DAFAD0E04A
:1017A000FA22CAC0E0E0A3C582CCC582C583CDC5FC
:1017B00083F0A3C582CCC582C583CDC583DAE6D0CC
:1017C000E0CA22C3E498F8E499F91218048026C309
:1017D000E49AFAE49BFBE920E7E9121804E498F89C
:1017E000E499F922C3E498F8E499F9121804E4980A
:1017F000F8E499F9C3E49AFAE49BFB22EB20E7CFE3
:10180000E920E7E0B90010BB0008E88AF084F8AAF4
:10181000F022E4FBC8FA22EB70227B10C833C8C95F
:1018200033C9335007C39AC3DBF280069A50012AAA
:10183000DBEAC833F4C8C933F4C9FA2275F008E406
:10184000C833C8C933C933C99AC99B5004C92AC906
:101850003BD5F0ECFBC833F4C8E4C9FA22600D08AC
:10186000C6A2E713C618C613C6D5E0F322600C085B
:10187000C6C313C618C613C6D5E0F422700422608E
:101880000D18C6C333C608C633C6D5E0F4182225E2
:101890001A10AF08F51A400C151B8008F51A400203
:1018A000151BD2AF2200C0D0251A10AF08F51A5070
:1018B0000C051B8008F51A5002051BD2AFD0D022B0
:1018C000251AF58210AF08F51A400C151B8008F593
:1018D0001A4002151BD2AF851B8322251AF582E41C
:1018E000351BF58322251AF8E4351BF922251AFA4F
:1018F000E4351BFB22251AFCE4351BFD22E473258D
:101900001AC582C0E0E51B34FFC583C0E0E51AC3F9
:10191000958224F810AF0885831B85821A8008857C
:10192000831B85821AD2AFCEF0A3E520F0A3780AFC
:10193000E608F0A3DEFAEFF0A3E58124FAF8E60862
:10194000F0A3E608F0A3E608F0A30808E608F0A371
:10195000E608F0A315811581D0E0FED0E0F81581EE
:1019600015811581E8C0E0EEC0E022251AC582C0CD
:10197000E0E51B34FFC583C0E0E51AC3958224F976
:1019800010AF0885831B85821A800885831B85829A
:101990001AD2AFCEF0A3E520F0A3780AE608F0A3B0
:1019A000DEFAEFF0A3E58124FBF8E608F0A3E608F1
:1019B000F0A30808E608F0A3E608F0A31581158156
:1019C000D0E0FED0E0F815811581E8C0E0EEC0E07F
:1019D00022851B83851A82E0A3FEE0A3F520780A06
:1019E000E0A3F608DFFAE0A3FFE0A3C0E0E0A3C0B5
:1019F000E0E0A3C0E0E0A3C0E0E0A3C0E010AF08D7
:101A000085821A85831B800885821A85831BD2AF45
:101A1000D083D082020D34851B83851A82E0A3FE19
:101A2000E0A3F520780AE0A3F608DFFAE0A3FFE0E0
:101A3000A3C0E0E0A3C0E0E0A3C0E0E0A3C0E010EA
:101A4000AF0885821A85831B800885821A85831BCF
:101A5000D2AFD083D08222C0D0251AC582C0E0E5A3
:101A60001B34FFC583C0E0E51AC3958224F310AF91
:101A70000885831B85821A800885831B85821AD27C
:101A8000AFC8F0A3E9F0A3EAF0A3EBF0A3790AE76B
:101A900009F0A3D8FAECF0A3EDF0A3EEF0A3EFF079
:101AA000A3D0E0F0A3D0E0F0A3D0E0F0A3E520F0D5
:101AB000A3E5F0F0A322851B83851A82E0C0E0A392
:101AC000E0F9A3E0FAA3E0FBA3780AE0F608A3DFBD
:101AD000FAE0FCA3E0FDA3E0FEA3E0FFA3E0C0E08A
:101AE000A3E0C0E0A3E0F5D0A3E0F520A3E0A3F5D8
:101AF000F010AF0885831B85821A800885831B85BB
:101B0000821AD2AFD082D083D0E0F8D0E032740411
:101B10008006740280027401C0E0F4041218C0D080
:101B2000E0121795227404800474028000CCC0E097
:101B3000EDC0E0E51AC39CCCAD1B50011D10AF06F3
:101B40008C1A8D1B80068C1A8D1BD2AF1217A2D057
:101B5000E0FDD0E0FC22D083D082E9C0E0E493A392
:101B6000C386F0C5F095F0F908E493A386F0C5F0BC
:101B700095F0700BE493A3C3994005E9048002A398
:101B8000E475F002A42582F582E5F03583F583D073
:101B9000E0F9E493A3C0E0E493C0E022D083D082D4
:101BA000ECC0E0EDC0E0E493A3FCE493A3FDED4CB6
:101BB000600D121BE8EC24FFFCED34FFFD80EFE428
:101BC00093A3FCE493A3FDED4C600D121C27EC24C1
:101BD000FFFCED34FFFD80EFD0E0FDD0E0FCE493AE
:101BE000A3C0E0E493C0E022C0E0C3E4939608748D
:101BF00001939618400FE493667008087401936689
:101C00001870007019A3A3C3E49396087401939607
:101C100018A3A3400DD0E0D0E0D0E0021BD8A3A3CE
:101C2000A3A3A3A3D0E022C0E0C0F088F0E49366B1
:101C300070080874019366187000A8F0A3A3700BD5
:101C4000D0F0D0E0D0E0D0E0021BD8A3A3D0F0D0F9
:101C5000E022FFFF74F612196BEAFEEBFF8C0A8D8F
:101C60000BEE2434F8E43FF9E8FCE9FD121D87E0AF
:101C7000FAEE2437F582E43FF583E0F8850AF0A414
:101C8000C885F00C850BF0A4250CF9EA28F8E43996
:101C9000F97A257B00121804EA8C828D83F0FA13FE
:101CA0001313541FF8EE28F8E43FF9E8245DF58299
:101CB000E439F583E0C0E074075AF8D0E0B80002D8
:101CC0008004C313D8FCA2E05003EA8020EE24363F
:101CD000F582E43FF583E0F5F0EA84A8F0EE28F819
:101CE000E43FF9E82438F582E439F583E0F97F032D
:101CF000021A1774F512196BEAFEEBFFEE2434F5A5
:101D000082E43FF583E0C0E0121D87D0E0F08E82D0
:101D10008F83A3A3A3A3A3E0FAA3E0FB8E828F8308
:101D2000A3A3A3A3A3A3A3E0FCA3E0FDECC39AF5A4
:101D30000CED9BF50DEE247FF50AE43FF50B850ACB
:101D400082F583E06401702AEE2480F582E43FF599
:101D500083121B29121D9174021218A5E960137CCD
:101D6000AF7D04EEFAEFFB12311B850A82850B83EF
:101D7000E4F0AC0CAD0DEEFAEFFB121C54E9F912D5
:101D800028697F04021A17EE2435F582E43FF583B3
:101D900022C082C083851A82851B83E0F8A3E0F904
:101DA000C3EA9CEB9D5010C3EC98ED99401BC3EA2D
:101DB00098EB995014800EC3EA98EB994007C3EC56
:101DC00098ED994004790180027900D083D0822275
:101DD000EAC39CFAEB9DFB2274ED12196B9003751C
:101DE000E064086005E06407702C9061C8E060263C
:101DF0009003A3E0F874FF68601CE875F00AA4C8BB
:101E0000AAF02AF974A528FE740339FF8E828F8305
:101E1000A3A3A3E070057900021F71EE2468F510FA
:101E2000E43FF511906060E0851082851183F075C4
:101E3000121F751305750A00750B00E5D914F50C12
:101E4000E5D95403F50D601FEE2482F50EE43FF54D
:101E50000F7403650D6059E50C6017EE2467F58279
:101E6000E43FF583E0700B793DEEFAEFFB12314B66
:101E700080A490051AE064016023850E82850F839B
:101E8000E060047A0480027A00E50CC39AFA95E0D7
:101E9000FB122FA78A0A8B0BEA450B70061233AF91
:101EA000021E16850E82850F83E070048A128B1342
:101EB0007A008014E5D9C0E0EAF8E51228F582E45A
:101EC0003513F583D0E0F00AEAC3950C40E6850EA1
:101ED00082850F83E0602874FC250CF50C781212C3
:101EE0001B12AC0CA90DEEFAEFFB1231F9740212C1
:101EF00018A5E9700AAA0AAB0B1238B9021E67745A
:101F000003650D6054850C0E750F00780E121B12C0
:101F1000AC12AD13AA0AAB0B1231BD74021218A594
:101F2000851082851183E0F87480687005750E7FD6
:101F30008002880EE50EF50F780F121B16780D1231
:101F40001B16A90CAC0AAD0B9003A3E0FA7B0012A0
:101F50002DDF74021218A58013900375E0640860E9
:101F60000BAC12AD13EEFAEFFB12328F1233BB79CA
:101F7000017F0C021A1774F312196B74FC12188F7C
:101F8000EAFEEBFF890BA2AFE433F50AC2AFEE2401
:101F900063F50CE43FF50D8010AA0CAB0D12317502
:101FA0001238B99004B6E004F0850C82850D83E008
:101FB000F8A3E0F9E849602DE82402FAE439FBEAE5
:101FC0002402F50EE43BF50F780E121B128A828B69
:101FD00083E0FCA3E0F9EEFAEFFB12316974021220
:101FE00018A5E960B49004B6E0604D9004B7E0F83D
:101FF0009004B6E0C398500C7402650B703A9004DC
:10200000B8E060348E828F83A3A3A3A3E0851A82F5
:10201000851B8312204874021218DBE812204890B6
:1020200004B5E028F074021218F5AA1AAB1B790166
:10203000122E339004B6E4F0E50AA2E092AF7404E5
:102040001218A57F06021A17F0A3E4F09004B6E078
:10205000F822FFFF8521878522C622C0E074EB129B
:102060001A57A2AFE433F50AC2AF759B00906182A4
:10207000E0A2E05030E591A2E0502A7591FE740193
:10208000652170211221EE1232E91221DC121B258A
:1020900012261374041218A5E9640170057901125F
:1020A0003343121DD8906182E0A2E5505DE591A214
:1020B000E550577591DF900375E064076005E064B3
:1020C00008702F1221EE74016521703E1232E91260
:1020D00021DC121B2512261374041218A5E96401D1
:1020E000700579011233437901EEFAEFFB121F7686
:1020F0008018E0640D7013900397E004F06428707A
:1021000002E4F07A00E0F91233C1906182E0A2E6C5
:1021100040030221B1E591A2E640030221B175918D
:10212000BF900375E0640570081232D11232DD8071
:10213000031232D775210012334FE9900376F079FC
:10214000001233431230857A017B00900374E0F96A
:10215000123889907803E06442705690051EE014AE
:10216000F0704EC2AF12216800782AD0E0F618D085
:10217000E0F6E59F5407F87005750FFF8003750FB3
:102180007FC4C0E07829E6F50C08E6550FF50D741C
:102190000B780C12186DD0E0250CF8906270E0A25C
:1021A000E740F8E8C333906272F0906270E0D2E0EA
:1021B000F0906181E0A2E35009E5E9A2E3500375E4
:1021C000E9F7A3E0A2E75009E591A2E75003759172
:1021D0007FE50AA2E092AF7F08021AB68E828F8353
:1021E000E0F8A3E0C82416F582E438F583229003D2
:1021F000A3E0F875F00AA4C8AAF02AF974A528FE8D
:10220000740339FF22C0E0C0D0C082C083906183D4
:10221000E0A2E05009E5BFA2E0500375BFFEE0A2D6
:10222000E15009E5BFA2E1500375BFFDE0A2E25015
:1022300009E5BFA2E2500375BFFBE0A2E35009E548
:10224000BFA2E3500375BFF7E0A2E45009E5BFA2C7
:10225000E4500375BFEFE0A2E55009E5BFA2E550E9
:102260000375BFDFE0A2E65009E5BFA2E6500375A3
:10227000BFBFD083D082D0D0D0E032C0E074F212A1
:102280001A57E5A7A2E4500FE5A1A2E4500953A70D
:10229000EF75A1EF1222CFE5A7A2E5500CE5A1A2B0
:1022A000E5500653A7DF75A1DFE5A7A2E15009E5D8
:1022B000A1A2E1500375A1FDE5A7A2E2500CE5A1A2
:1022C000A2E2500653A7FB75A1FB7F01021AB67468
:1022D000F812196B752101900375E0640670077A96
:1022E000007B001232B9A2AFE433FED2AF90037B81
:1022F000E0640170187A207B00900374E0F91239D1
:10230000A37A207B00900374E0F912388F906182E9
:10231000E0D2E6F090051BE0602185C62280169091
:10232000037AE064017008E5C654F84405F5C65325
:10233000BEFC1220547401652160E4EEA2E092AF6D
:102340007F01021A17FFFFFF8E238F2485822885C5
:102350008327851A82851B83E0CEA3E0CF85288260
:10236000852783EBC9EAC8EDCBECCA75F010C3E84A
:1023700033C8E933C9EA33CAEB33CBC3EA9EF52647
:10238000EB9FF525B35004AB25AA26EC33CCED33F7
:10239000CDD5F0DAAE23AF242274E912196B74FAAA
:1023A00012188FEAFEEBFF8C0A8D0B1232FBEAF853
:1023B000EBF9ECFAEDFB8E828F831217899003758F
:1023C000E024F7C3940550067512010224D012329E
:1023D0002F8A0C8B0DEA450D70030224CD1232EFCB
:1023E0008A0E8B0F1232EFEA650E7003EB650F60F9
:1023F000ECEEFCEFFDAA1AAB1B1232F5850C8285C0
:102400000D83A3A3780E121753909176780E1217AE
:102410002D851A82851B8378161217539091767832
:102420001612172D780E7916120D87501F780E7917
:10243000161217059091D2780E120DA74047850EFF
:1024400012850F1385101485111580459091D28542
:1024500016128517138518148519157812790E121E
:1024600017057812120DA7501C7512007513007510
:102470001400751501781279161217057812790E65
:102480001216CC800C7512017513007514007515A9
:1024900000740978121216AD90918A780E121753B3
:1024A0007812790E121611900375E06408600AE044
:1024B00064066005E0640570209091DE7812120DCC
:1024C000A750169091F278121216DF800C75120048
:1024D000751300751400751500850A82850B8378C5
:1024E0001212176274061218A57F10021A1774F7D9
:1024F00012196B12330D900519E06401701090628F
:1025000045E4F0A3F053F4F343FE0C5390F312327E
:10251000A7E5C654B84441F5C6E59E5447644170EA
:10252000F8906185740FF0900517E0F47002A3E055
:10253000602C750A01750B00900517E0780A1218D7
:102540007CE50AF4FAA3E0600814600A14600C80C9
:102550000DEA52808008EA52908003EA52A0790086
:102560007F02021A1774F712196BE9FEEAFF740171
:102570006E700C7A807B00900374E0F912388990B9
:102580003A8CE493F46008E493F9123067800953BD
:10259000C6B8E59E544770FA1232AD900519E06452
:1025A00001700312309D900517E0F47002A3E06003
:1025B0002B750A01750B00900517E0780A12187C3C
:1025C000E50AFAA3E0600814600A14600C800DEAC2
:1025D00042808008EA42908003EA42A012322F8AA9
:1025E0000A8B0BA80AA90BE8496016E5E170FCE824
:1025F0002414F582E439F583E0F874FF68600288FA
:10260000E174016F700A7A01900374E0F9123913D2
:1026100002256074F112196B8A0A8B0B8C0C8D0DDC
:10262000909176780A12172D740F1218DB780E121B
:102630001753909176780E12172D780A790E120D95
:10264000879091D25010780A790E121705780A12E5
:102650000DA74014800E780E790A121705780E1215
:102660000DA750047901800279007F08021A1774BF
:10267000ED12196B8A0A8B0B8C0C8D0D909176786C
:102680000A12172D74131218DB780E12175390913B
:1026900076780E12172D780E790A120D8740117870
:1026A0000A790E121705AA0AAB0BAC0CAD0D8022ED
:1026B0007512007513007514007515017812790EE6
:1026C0001217057812790A1216CCAA12AB13AC14A1
:1026D000AD157F0C021A17909176780A1217538A5B
:1026E000828B83780A1217407F04021A1774F5123E
:1026F000196B8C828D83780A1217538A828B8378A8
:102700000A121719122741C3E098F0A3E099122783
:1027100033401E9091EA780A1217538A828B83788D
:102720000A1216F28E828F83E02420F0A3E0344E4A
:10273000F080A4F08E828F83C3E09420A3E0944EB7
:1027400022EA2404F8E43BF9E8FEE9FF8C828D8359
:10275000A3A3A3A3E0F8A3E0F98E828F832274F5EC
:1027600012196BE9FE9004D1E0FAA3E0FBEE29F820
:10277000E433F974D028F582748F39F583E02AF5B3
:102780000AA3E03BF50B780A121B129091E2121794
:102790007112234874021218A58A0A8B0B8C0C8DB7
:1027A0000D7410780A121694AA0AAB0B7F04021A51
:1027B0001774F112196B8A0E8B0F8C108D11741116
:1027C0001218DB121B2974111218DBE02401F50A20
:1027D000A3E03400F50BE4F50CF50D780E790A1240
:1027E00015919091EE780A121753780E790A121506
:1027F00091AA0EAB0FAC10AD11122348740212183F
:10280000A58B0BEA450B60047A0180027A00EC2A62
:10281000FCE43DFD74131218DBE0F8A3E0F9E8FED8
:10282000E9FFECF8EDF97A717B02121804880A8945
:102830000BE4F50CF50D8E828F83780A121762EC8B
:10284000F8EDF97A717B021218048A0A8B0B740571
:10285000780A12187C8E828F83A3A3A3A3E50AF0C3
:10286000A3E50BF07F08021A17C082C083E99060CD
:1028700000F0D083D08222C0E074F2121A57A2AFC7
:10288000E433FED2AFE589A2E1500312371B75890C
:1028900000C2C5751C00EEA2E092AF7F01021AB61D
:1028A000C0E074F2121A57A2AFE433FED2AFE58B48
:1028B000A2E0500312371B758B00C2E880D5C0E040
:1028C000C0D0E8C0E0E9C0E0A9A8D2AFC2C7751C7B
:1028D00000E9A2E7E433F8E9A2E792AFD0E0F9D04B
:1028E000E0F8D0D0D0E032C2AF02000022120D37A3
:1028F0003CBE07120D374FBE07120D3780BE0712C0
:102900000D37BABE07120D3713BF07120D375ABF66
:1029100007120D37A2BF07120D37D1BF07120D37AF
:1029200000C007120D3737C007120D377EC00712DF
:102930000D3797C007120D37ECC007120D3705C1D0
:1029400007120D3753C107120D378DC107120D370E
:10295000D4DC06120D37D7DD06120D3710DE061255
:102960000D3733DE06120D3745DE06120D3783DED6
:1029700006120D37FFDE06120D37C7DF06120D37C0
:10298000E9DF06120D3780E006120D37D2E006129D
:102990000D3703E106120D3710E106120D377AE10B
:1029A00006120D37D1E106120D37D4E106120D37AC
:1029B0000DE206120D3710E206120D371AE206126A
:1029C0000D376EE206120D37AFE206120D37E2E266
:1029D00006120D371FE306120D3721E406120D37DC
:1029E000C5E406120D372EE506120D376CE506120A
:1029F0000D3788B207120D37B0B207120D37DDB2AE
:102A000007120D3715B307120D3773B307120D37C1
:102A1000BFB307120D3726B407120D3766B407127D
:102A20000D37A3B407120D37D1B407120D377BB59C
:102A300007120D3785B507120D3792B507120D37FE
:102A4000C5B507120D37D1B507120D37E9B5071215
:102A50000D37F3B507120D3702DB07120D3710DB08
:102A600007120D3728DB07120D373FDB07120D3732
:102A700022C905120D37CCC905120D37DFCA051260
:102A80000D375BCB05120D3779CC05120D37B5CC60
:102A900005120D3750CD05120D3734CE05120D3706
:102AA00000CF05120D378ED005120D37FFD005125D
:102AB0000D37B9D105120D37ABD205120D37EBD258
:102AC00005120D379FD305120D37D1D305120D37DF
:102AD000C7D505120D3709D605120D3727D60512B1
:102AE0000D378DD605120D375CD705120D3720D85E
:102AF00005120D373FDA05120D3709F905120D37AA
:102B0000F3F905120D379EFA05120D37EFFA05128B
:102B10000D379FFB05120D3710FC05120D37F5FC24
:102B200005120D3729FD05120D3722FE05120D374E
:102B30005FFE05120D373BFF05120D377AFF0512B8
:102B40000D3796FF05120D37C9CC07120D374DCD45
:102B500007120D3778CD07120D3792CE07120D37B9
:102B600081B607120D3797B607120D37B5B60712A3
:102B70000D37C6B707120D37D0B707120D37FBB8A0
:102B800007120D37F2B907120D375FBA07120D376A
:102B9000903A00120D37C03B00120D37F73B001280
:102BA0000D37413C00120D37043E00120D374292A2
:102BB00005120D37CE9205120D37329405120D37DE
:102BC0003E9405120D37799405120D37E8940512DD
:102BD0000D37F19505120D37FA9605120D37C1978D
:102BE00005120D371E9905120D373C9905120D3748
:102BF000599905120D37069A05120D37839A051259
:102C00000D37AB9A05120D37759D05120D377A9D5C
:102C100005120D37939F05120D37E19F05120D37F1
:102C200051A005120D378FA005120D376BA10512AB
:102C30000D372BA205120D3777A205120D377AA298
:102C400005120D37BEA205120D3706A305120D376A
:102C500045A305120D3767A305120D379BA3051277
:102C60000D37FEA305120D371CF904120D372AF992
:102C700004120D377DF904120D379CF904120D373B
:102C8000E1F904120D3725FB04120D37C0FB0412C5
:102C90000D3704FC04120D372EFC04120D379DFC79
:102CA00004120D37E3FC04120D375AFD04120D37E0
:102CB0000BFE04120D3700B004120D3710B00412D1
:102CC0000D37B1B004120D370DB104120D37CAB172
:102CD00004120D37E6B204120D3718B304120D3783
:102CE00047B304120D37F4B404120D376BB7041256
:102CF0000D37DBB904120D37CDBA04120D37C6BB40
:102D000004120D37CDBD04120D37C1C004120D37AA
:102D1000F0C104120D37F4C304120D3704C50412B8
:102D20000D3793C604120D3784C704120D37D2C76E
:102D300004120D3741C804120D3765C804120D374F
:102D4000B6C804120D3757CD04120D3758CE0412F1
:102D50000D37B9CE04120D37E4CE04120D37AACFC9
:102D600004120D373EAA07120D3748AA07120D3775
:102D70008DAA07120D37A1AA07120D3731AB071222
:102D80000D376AAB07120D37A5AB07120D37CEAB67
:102D900007120D3722AC07120D3737AC07120D376B
:102DA00059AC07120D376EAC07120D3782AC071203
:102DB0000D3797AC07120D37D1AC07120D37FDACAC
:102DC00007120D3746AD07120D37B8AD07120D3794
:102DD000FBAD07120D3725AE07120D3750AE0712A7
:102DE0000D3717D707120D379CBF06120D377FC05E
:102DF00006120D37FAC006120D3735C106120D370F
:102E000086C206120D3714C306120D37A6C5061268
:102E10000D3758C606120D3764C706120D37D7C8CE
:102E200006120D3730C906120D37EEA507120D3701
:102E300031A607120D37B5A607120D378CA9071258
:102E40000D378DFD06120D373FFE06120D373BFF85
:102E500006120D377AFF06120D37D4FF06120D3712
:102E6000C1CE07120D3724CF07120D37C1CF07127D
:102E70000D37F6CF07120D3726D007120D3761D068
:102E800007120D3781D007120D37AB9307120D379C
:102E9000379407120D37F69407120D370E96071266
:102EA0000D37289807120D3708A906120D372DA9DE
:102EB00006120D37FAA906120D37CEAA06120D37E3
:102EC0003BAB06120D377BAB06120D3717AC061263
:102ED0000D374BAD06120D3726AE06120D3785AEF7
:102EE00006120D3711AF06120D377FAF06120D37E0
:102EF0000BB006120D3751B006120D37C3B00612D3
:102F00000D3755B106120D37F6B106120D3716B250
:102F100006120D375EB206120D37A7B206120D3734
:102F2000C3B206120D37E9B206120D3763B30612AB
:102F30000D3771B306120D3700B406120D3769B4A0
:102F400006120D375F9807120D37E49807120D37F8
:102F5000269907120D370A9A07120D37779A07122A
:102F60000D37BB9A07120D37FF9A07120D372C9BAE
:102F700007120D37549B07120D378C9B07120D3724
:102F8000CA9B07120D37F19B07120D376B9C071276
:102F90000D37B59C07120D372AB705120D37D2B879
:102FA00005120D37FFBA05120D3753BB05120D3749
:102FB0007EBB05120D3750BC05120D3794BC0512AF
:102FC0000D37D8BC05120D37EBBC05120D372CBDE3
:102FD00005120D3759BD05120D37A7BD05120D3766
:102FE000E8BD05120D3716BE05120D3769BE051274
:102FF0000D3700BF05120D37EAC105120D3700C4A9
:1030000005120D373EC405120D37D1C505120D3717
:1030100016C605120D3788C605120D37D9C605121A
:103020000D3713C705120D3718C705120D37B8C76E
:1030300005120D37EEC805120D37FFC805120D3702
:10304000D9C906120D3758CA06120D3751D00612CB
:103050000D3757D106120D37CAD206120D3761D37C
:1030600006120D37B0E404120D37F9E404120D37DF
:1030700026E504120D3758E504120D3765E50412F4
:103080000D3771E504120D3783E504120D375EE646
:1030900004120D37BCE604120D37F1E604120D37A9
:1030A00028E804120D3775E804120D3799E8041268
:1030B0000D3709E904120D37CAE904120D378DEAFC
:1030C00004120D37FBEA04120D37B8EB04120D376A
:1030D000CBEB04120D3749EC04120D37DCEC041273
:1030E0000D3703ED04120D376BED04120D37BCEDF7
:1030F00004120D3711EE04120D37BAEE04120D371B
:1031000065EF04120D3711F004120D3783F004122D
:103110000D37D7F004120D3737F104120D3767F170
:1031200004120D37FDF104120D3722F304120D378E
:103130006AF304120D3787F304120D37A6F3041255
:103140000D37D5F304120D37EAF404120D3770F57C
:1031500004120D3795F504120D37AAF504120D3738
:103160001DF604120D375EF604120D377AF70412BD
:103170000D371BF804120D3769F804120D37D3F818
:1031800004120D37ECF804120D378BD306120D37ED
:10319000DFD306120D37EBD306120D37B5D4061266
:1031A0000D37E2D406120D3710D506120D377CD537
:1031B00006120D37B2D506120D37EBD506120D37B4
:1031C00003D606120D3758D606120D3771D60612E1
:1031D0000D37B6D606120D37C9D606120D37E3D60F
:1031E00006120D37F9D606120D3717D806120D370D
:1031F00042D906120D372CDA06120D371BDB0612E8
:103200000D37F13F00120D37C39B06120D37F29BAD
:1032100006120D37B89F06120D370FA106120D3793
:10322000D5A106120D3754A306120D371EA406129F
:103230000D3770A406120D378AA406120D37BCA4F0
:1032400006120D37C7A406120D3710A506120D374A
:1032500019A506120D37C5A506120D379EA6061232
:103260000D37E5A606120D374DA706120D378FA7AD
:1032700006120D37BDA706120D37F8A706120D3737
:10328000D6A405120D3754A805120D375AA80512F9
:103290000D37AFAE05120D37F9B205120D37DFB697
:1032A00005120D3769BA07120D37DFBA07120D374D
:1032B000F5BA07120D3785BB07120D37C2BB0712CF
:1032C0000D37FCBB07120D3736BC07120D37A9BCF2
:1032D00007120D37EABC07120D37F3BC07120D3782
:1032E000FFBC07120D371EBD07120D3748BD071270
:1032F0000D375DBD07120D3785BD07120D37E7BDD0
:1033000007120D370EBE07120D37EC8E07120D3760
:10331000FF8E07120D37198F07120D37468F0712D0
:103320000D378C8F07120D37BF8F07120D37FD8FAA
:1033300007120D37629007120D37779007120D377D
:10334000829007120D378F9007120D37A690071243
:103350000D37B49007120D37BF9007120D37CB9081
:1033600007120D37DE9007120D37E99007120D375F
:103370000C9107120D37B09107120D37C09107124B
:103380000D37DA9107120D37F79107120D371292A8
:1033900007120D37379207120D37429207120D3779
:1033A000579207120D376B9207120D37CC92071206
:1033B0000D37D29207120D37D89207120D37DE92D1
:1033C00007120D37F69207120D37299307120D37A2
:1033D000408E06120D37D78E06120D376F8F0612EC
:1033E0000D375F9006120D37969006120D37A99093
:1033F00006120D37179106120D37B29206120D37CD
:10340000D99206120D377B9306120D37B093061230
:103410000D37C19306120D373A9406120D375B949F
:1034200006120D37739406120D37CB9506120D3721
:10343000D49706120D37249A06120D37279B0612D1
:103440000D37769B06120D377CEA05120D3779EBA6
:1034500005120D3764EC05120D376EEC05120D37B1
:1034600090EC05120D379CEC05120D37EEED0512B0
:103470000D371DEE05120D374DEF05120D378FEF8D
:1034800005120D37BBF005120D3791F105120D37FE
:10349000E3F105120D3742F205120D3779F20512EC
:1034A0000D37B4F205120D374FF605120D3768F6D9
:1034B00005120D37EAF605120D37F8F605120D372D
:1034C0004DF705120D375BF705120D37C8F70512DA
:1034D0000D373AF805120D3780F805120D378CB408
:1034E00006120D37AEB406120D3798B606120D3718
:1034F0003DBA06120D3780BB06120D375ABC0612B4
:103500000D378FD007120D37B4D007120D3725D1E4
:1035100007120D3792E506120D379BE506120D379F
:10352000A4E506120D37D5E606120D37F4E80612AB
:103530000D372AE906120D3764E906120D379AE9AC
:1035400006120D37D4E906120D3708EA06120D37B8
:1035500034EA06120D377DEA06120D37B7EA061275
:103560000D37FFEA06120D3755EB06120D378AEBC1
:1035700006120D37E5EB06120D371FEC06120D375C
:1035800070EC06120D37A6EC06120D37E0EC0612B1
:103590000D370EED06120D3731ED06120D378EDCAC
:1035A00007120D37BADC07120D3715DD07120D377C
:1035B0001FDD07120D372FDD07120D3735C5071236
:1035C0000D375CC507120D3786C507120D3722E08F
:1035D00007120D3716D004120D377AD204120D37A8
:1035E00031D404120D378ED404120D3790D5041245
:1035F0000D3718D604120D379FD604120D37C4D6D6
:1036000004120D37B9D904120D372FDA04120D3711
:103610001EDB04120D3758DB04120D3798DB041241
:103620000D3738DD04120D378DDD04120D37DADD6C
:1036300004120D3748DE04120D376EDE04120D370A
:1036400088DE04120D379EDF04120D37AEDF041240
:103650000D3734E104120D3754E104120D378AE1BD
:1036600004120D370EE304120D374DE304120D372B
:103670008BE404120D37F59C07120D374D9D071290
:103680000D37959E07120D37049F07120D37B39F14
:1036900007120D37D29F07120D3726A007120D37DC
:1036A00064A007120D37CFDB07120D37E0DB0712DE
:1036B0000D3783DC07120D376CE007120D37ABE0D6
:1036C00007120D3787E107120D3793E107120D3707
:1036D000B5E107120D3725DA07120D3735DA071273
:1036E0000D374ADA07120D37FCDA07120D372BD8DF
:1036F00007120D37AFD807120D3715D907120D373E
:1037000045D207120D376ED207120D37D4D20712E9
:103710000D37F3D207120D3747D307120D37A0D359
:1037200007120D37E2D307120D37E5D307120D3715
:10373000F5C107120D370AC207120D373FC3071232
:103740000D37A9C307120D371DC407120D3737C433
:1037500007120D374EC407120D3761C407120D371B
:1037600079C407120D378EC407120D37AFC4071284
:103770000D3700C507120D379FE107120D37AFE176
:1037800007120D37B2E107120D37F83F00120D375F
:103790001DFE04120D3793FF04120D37F4FF0412BF
:1037A0000D37C6E107120D37CBE107120D37D2E115
:1037B00007120D37D4E107120D37E0DD07120D3780
:1037C0004ADE07120D3755DE07120D3765DE071288
:1037D0000D378B8707120D37148807120D372B888A
:1037E00007120D37ED8807120D37CE8907120D37F6
:1037F000378B07120D37088C07120D375C8D0712B7
:103800000D37E48D07120D378DD507120D37B6D55C
:1038100007120D37DFD507120D3778D607120D378F
:1038200090D607120D37D2D607120D37BFED06120C
:103830000D37C9ED06120D3709EE06120D3752EE9F
:1038400006120D378CEE06120D37E2EE06120D371A
:1038500001EF06120D3786F106120D378FF10612B1
:103860000D37E0F106120D3709F206120D371EF280
:1038700006120D378EF206120D371CF306120D37A5
:1038800060F306120D3788F306120D3707F406129F
:103890000D374AF406120D3787F406120D3799F4E6
:1038A00006120D37B8F406120D37C1F406120D37A3
:1038B0008BF506120D37EFD307120D3740D40712E0
:1038C0000D37C9D407120D372FD507120D3703C88E
:1038D00007120D372DC807120D3727C907120D37EC
:1038E00056C907120D37DCC907120D372ED907123A
:1038F0000D37C7CA07120D37FDCA07120D3736CB71
:1039000007120D378FCC07120D3739DD07120D372F
:103910004FDD07120D3759DD07120D37AFDD0712E6
:103920000D376BDF07120D37B7F506120D3774F63A
:1039300006120D37AFF606120D37D7F606120D3701
:1039400039F706120D3785F706120D37F0F7061214
:103950000D376CF806120D3768F906120D37EFFABD
:1039600006120D3772FB06120D37D6FB06120D3705
:10397000EDFB06120D37E3FC06120D372FFD061284
:103980000D3776A107120D378BA107120D373BA219
:1039900007120D377BA207120D3794A207120D37BD
:1039A000C7A207120D3714A307120D3748A3071239
:1039B0000D378AA307120D3788A507120D3700802F
:1039C00006120D37B78306120D37498506120D37DB
:1039D000A08506120D37BF8506120D373D860612EB
:1039E0000D37CF8706120D37B38806120D37C48CFA
:1039F00006120D37988D06120D37F3DE07120D37BC
:103A0000008007120D375A8207120D37BB83071249
:103A10000D373F8507120D37098607120D378E8641
:103A200007120D37BD8607120D371B8707120D379A
:103A300078AE07120D37E0AE07120D37FDAE071254
:103A40000D37EAAF07120D3750B007120D372EB100
:103A500007120D374CDA05120D3765DF05120D37E9
:103A6000B5E007120D3732E107120D37FBE0071200
:103A70000D375EE107120D37D33F00120D3770DEB0
:103A800007120D379ADE07FFFFFFFFFFFFFFFFFF63
:103A900074F21218FF8A0BECFEEDFF750A00E96064
:103AA0002714604F146065147003023B50147003B8
:103AB000023B6F146069147003023B8414700302AC
:103AC0003B9614606F023BB6EAC394164003023B78
:103AD000B17C167D0079007ABE7B02123847850BD7
:103AE0000E750F00780E121B12EEFCEFFD7ABE7BF6
:103AF0000280727402650B6003023BB18E828F8379
:103B0000123DFE9002D4E8F0A3E980247401650B15
:103B10006003023BB18E828F83E09002D6801174E5
:103B200001650B6003023BB18E828F83E09015F13B
:103B3000F0023BB97401650B70778E828F83E0F9D8
:103B4000A2E1406D90162A123DE27A2F7B16805C2E
:103B50007406650B705B750E06750F00780E121BF0
:103B6000127AD77B0212382F74021218A5804A7479
:103B700008650B703C8E828F837CF47D157408126F
:103B800017A280357401650B702790160A123DE26A
:103B90007A0F7B1680107401650B701590161A123F
:103BA0003DE27A1F7B168E828F83E0F9122B99807B
:103BB00008750A188003750A02A90A7F060219D13E
:103BC00074F41218FF7900EAA2E0501F750A3475E8
:103BD0000B91780A121B1279107C0B7D007AFC7B0A
:103BE00015122CC574021218A5E9F97F040219D127
:103BF000D083D082020D34C082C083E9A2E18A82E0
:103C00008B83E05004D2E18002C2E1F0E9A2E3E05C
:103C10005004D2E38002C2E3F0E9A2E5E05004D20E
:103C2000E58002C2E5F0742A5960098C828D83E038
:103C3000440C800AE970088C828D83E054F3F08094
:103C4000AF74EE1218FF8910750B0074161218DB92
:103C5000123FB86005790B023DBD74141218DBE009
:103C6000F50CA3E0F50D8C828D83E0640260030205
:103C70003DB0123DFD74121218DBE0FEA3E0FF8E92
:103C8000828F83A3AA82AB83EC2406F50EE43DF574
:103C90000F88828983E0FCA3E0F8E4C8F9EC28F5FA
:103CA00012E439F5137812121B56002A04B03DB9FC
:103CB0003CDC3C243DF93C353D850E82850F83126A
:103CC0003DDC123829EAF50AE510C3950A50038550
:103CD000100A850C82850D83E50A8025123DEE12BF
:103CE0003DFE850C82850D837402F0E88E828F8301
:103CF000F0E98A828B83023DAD850C82850D837449
:103D000006F0F50C750D00780C121B12850E8285DD
:103D10000F83123DE2EEFAEFFB12382F74021218F5
:103D2000A5023DBB850C82850D837401F0123DEE2A
:103D3000123DC28078850E82850F83123FB8850CB4
:103D400082850D8360667408F088828983123DC283
:103D5000F088828983A3E08A828B83F0E82402FAC8
:103D6000E439FB8A828B83123DC2A3A3F08A828B43
:103D700083A3123DC2A3A3A3F0E82404FAE439FB11
:103D80008A828B83123DC8F08A828B83A3123DC83E
:103D9000A3F0E82406F850010988828983123DE8DF
:103DA000F088828983A3123DE8A38001E4F0800BB0
:103DB000850C82850D83E4F0750B01A90B7F0A0247
:103DC00019D1E08E828F8322123DCC22E08E828F29
:103DD00083A3A3A3A322850A82850B83E0FAA3E031
:103DE000FB22E0FCA3E0FD22123DCCA3A322850E22
:103DF00082850F83E0F8A3E0F583888222A3E0F8B0
:103E0000A3E0F92274EE1218FF8A108B11E9FF7EED
:103E1000008C828D83E064026003023F9E123DFDB0
:103E2000EC2406F50AE43DF50B74121218DBE0F5FC
:103E30000EA3E0F50F74141218DBE0F50CA3E0F507
:103E40000D88828983E0FAA3E0F9EA2EF512E439BD
:103E5000F5137812121B56002A039E3F643ED63E8D
:103E60005C3F1A3F123DD6123829C3EA950CE495FF
:103E70000D401A8F128E13E50C2FF8E4350DF9C39F
:103E8000E89416E99400400A7E0D023FA07E0702E6
:103E90003FA07812121B12AC0EAD0F123FA51238C4
:103EA0002F74021218A5E50C2FF50CE4350DF50D55
:103EB0007416C3950CFCE4950DFD7900123FA51214
:103EC0003847123FB57003023FA0123FC070030293
:103ED0003FA07900807DE50C450D6003023F8974A9
:103EE000026F70A4850E82850F83E0FAA3E0F9EAE1
:103EF000F8850A82850B83E0FAA3E0F5838A82E8DD
:103F0000F0A3E9F0123FB57003023FA0123FC0706A
:103F100003023FA07901AA10803D9002D6E06044E0
:103F2000E50C450D706374066F6003023E88750CE6
:103F3000068E0D780C121B12AC0EAD0F123DD61270
:103F4000382F74021218A5123FB56054123FC0609A
:103F50004F7903AA10AB111218FD80449015F1E0BF
:103F6000A2E340047E038038E50C450D701B74010C
:103F70006F6003023E88850E82850F83E0F8600D36
:103F800074016860087E8080177E0B8013E8C0E0B3
:103F9000850A82850B83123DF4D0E0F080027E0119
:103FA000EEF9023DBD850A82850B83E0250CFAA35C
:103FB000E0350DFB229002BCE0F8A3E0F9E84922CD
:103FC000E0F5838882E0F8A3E0F988828983E582BE
:103FD000458322C082C0838A828B838001A3E070E4
:103FE000FCE582C39AFAE5839BFBD083D082020D65
:103FF00034020D34FFFFFFFF851C87C2AF020D3472
:020000040002F8
:10300000C082C083E9901657F0D083D082020D347D
:1030100074F61218FFE99002E7F0900347E0F50A12
:10302000750B007402780A12187CAA0AAB0B1238CE
:10303000FB9002E812B9C39002E812BDB0606F9035
:103040000347E075F003A4FAABF01238FB900305D8
:1030500012B9C390030512BDB0700B9002E812BD07
:1030600081123901804890030512CD157AFF7BFF4C
:103070001236737A0080198A0A750B007402780A76
:1030800012187C12C7BD74FF12B1C3E4F0A3F00A9A
:10309000900347E0F8EAC39840DD7905122CCB9005
:1030A00002E7E0F9122BB77A557B2D122F4702C8A1
:1030B0006074F41218FF8A0A8B0BEB5480604790FF
:1030C00002E7E0F91238718A0C8B0DAE0CAF0DEEF1
:1030D0004F602A8E828F83E064B0701A122CDDE973
:1030E00060148E828F83A3A3A3A3E0F9EE2405FAD4
:1030F000E43FFB122CADEEFAEFFB12385FAA0AE5B3
:103100000B6480FB80047A007B0002B31374F2121C
:1031100018FF74FB12188FEAFEEBFFEE4F60457448
:10312000031218DBEEF0A3EFF0851A82851B83EC07
:10313000F0A3EDF074021218DBE9F0AA1AAB1B122F
:103140002BB1E9F50A707574131218DBE0F50CA3C6
:10315000E0F50DE50C450D60638E828F8312B74C50
:10316000EE4F7005750A0280537A067B001238FB19
:103170008A0E8B0FA80EA90FE8497005750A1380F7
:103180003B88828983E412B1C3EEF0A3EF12B2DF71
:10319000E50CF0A3E50DF09002EB12B2D89002EB33
:1031A0006017E0FCA3E08003EAFCEBFD8C828D83DA
:1031B00012B2D870F38C828D8312C3D8A90A740519
:1031C00002CF95F0A312CCF7A32274F21218FF8954
:1031D0000A890E750F007403780E12187C850E0C88
:1031E000850F0D9002EAF09002E812C1E312B2D608
:1031F000602E1239017900801D890E750F0074024E
:10320000780E12187C9002E812C67C8882F583A39F
:10321000A3E4F0A3F009900347E0F8E9C39840D98C
:10322000900347E0FA850CF0A4CAA8F0850DF0A43D
:1032300028FB1238FB8A0E8B0FAE0EAF0FEE4F70CD
:103240000302B2CC900347E0FC850CF0A4CCA8F0BC
:10325000850DF0A428FD79001238477C0080318D5F
:103260000E750F007403780E12187C8A828B8312FD
:10327000B2D188828983E4F012B2DEA3A3F0A3F076
:103280000DEDC3950A40D8EE250CFEEF350DFF0C71
:10329000900347E0F8ECC39850288C0E750F00742B
:1032A00002780E12187C9002E812B2D1E824025083
:1032B0000109FAE9FB8A828B83EEF0A3EFF07D002F
:1032C00080BFE50A9002EAF079008002791302CF0C
:1032D0009812C680F922A3A312BD85EA4B22A3123D
:1032E000CCF7A3A3A32274F41218FF7900EAA2E09A
:1032F000501F750A22750B91780A121B1279107CE7
:10330000047D007A597B16122CC574021218A5E9A7
:10331000F980007F040219D1C082C0839002EB12B1
:10332000BDB0601C88828983A3A3E06A7003A3E018
:103330006B8882898370E8A3A3A3A312BD81800454
:103340007A007B0002B00974F21218FF74FD1218A3
:103350008FEAFEEBFF851A82851B83E4F0A3F074ED
:10336000021218DB7401F012BDAD7014122E81121E
:1033700038FB9002EE12B9C312BDAD700302B4D98E
:1033800012BAC3EE2404F50CE43FF50D850C82F56A
:1033900083E024FE603C24FC607424FE607E24FEF6
:1033A000700302B42924FE700302B43624FE7003B5
:1033B00002B44324FE700302B45024FE700302B42E
:1033C0005D24FC700302B47E24FE700302B49602F6
:1033D000B4D2122E819002F0EAF0A3EB12B4E512FF
:1033E00028F9E9600302B4D29002F0121B298E8200
:1033F0008F83A3A3A3A3A312CD15850A82850B8374
:1034000012BD81122C9574021218A502B4D2AC1A06
:10341000AD1BEEFAEFFB122CE302B4A1AC1AAD1B0C
:10342000EEFAEFFB122CE98078AC1AAD1BEEFAEF46
:10343000FB122CEF806BAC1AAD1BEEFAEFFB122CDB
:10344000F5805EAC1AAD1BEEFAEFFB122CFB80513F
:10345000AC1AAD1BEEFAEFFB122D01804474021280
:1034600018E5880E890F780E121B1274021218F5D7
:10347000EEFAEFFB122D0774021218A58023AC1A86
:10348000AD1BEEFAEFFB122D0DE9F8701674021267
:1034900018DBE4F0803CAC1AAD1BEEFAEFFB122D0A
:1034A00013E9F8E8602C8E828F83A3E06414602215
:1034B000850C82850D83E09002F0F0851A82851BD1
:1034C0008312BD819002F112B9C3E8A312B4E512D0
:1034D00028F3EEFAEFFB122C6B74021218DBE0F902
:1034E000740302CF95F07CF07D02850A82850B8300
:1034F00012BD852274E81218FF74FA12188F740432
:103500001218DBECF0A3EDF08A148B15EA2405F514
:1035100010E43515F511EA2402F512E43515F5131A
:10352000851282F58312BD811229E98A0C8B0D75F3
:103530000A007C037D0079007AF07B02123847E5AF
:10354000102402F518E43511F51974021218E588F3
:103550000E890F780E121B12851082851183A3A38A
:10356000A3A3E0F50E750F00780E121B12E51024D0
:1035700005F50EE43511F50F780E121B1285188231
:1035800085198312C088122BCF74061218A58A0ED3
:103590008B0FE50E450F700302B7158020851A8248
:1035A000851B83E088828983F0050A851A82851B42
:1035B00083A3E0C0E012B756D0E0F0050AE50C2482
:1035C000FBFAE50D34FFFBC3E50A9AE49B400302D6
:1035D000B7157E007F00851482851583A3A3A3A35E
:1035E000E0F50B780B121B16E4F516F5177816129A
:1035F0001B127516ED7517027816121B129002EE4B
:10360000121B2974091218DB121B29E50C24F9F985
:10361000AC0EAD0F85128285138312BD81122D3D34
:1036200074091218A5E9600302B6B68510828511E7
:1036300083A3A3A3A3A3A3A3E0F89002EDE0687083
:1036400075E0F5168E177816121B1212CD12851022
:1036500082851183A3A3A3A3A3A3A3A312BD811255
:10366000384174021218A5E9604C9002F112BDB005
:10367000703BE4F5167816121B127CFF7DFF79076C
:1036800085128285138312BD81122CA77402121831
:10369000A512BDB6701785108285118312CEAF7446
:1036A000041218DB12C77012C0B902B749850E8226
:1036B000850F8312B74CA81AA91B8816891778168C
:1036C000121B1274041218DB121B2985188285192B
:1036D0008312B9B9122BDB74041218A58A0E8B0F52
:1036E000EE4F700302B59212B756EE12B76112C0D8
:1036F0006FEF12B761F8A3E03400F9E50E450F60F3
:103700000302B59D8882898374FFF0050A12B756BB
:1037100074FFF0050AE50A601A1313543F12B9C981
:10372000122905E960099002F112BD811238B979B8
:1037300000801685108285118312CEAF7404121892
:10374000DB12C77012C3D8790A02C042A3A3A3A395
:10375000E0FEA3E0FF22A80A9002F1E02812C06F69
:1037600022F0050A089002F1E0282274E81218FFFE
:1037700074FA12188F74021218DB12B9C37404128F
:1037800018DBECF0A3EDF074021218DBE024051254
:10379000C058E0F50EA3E0F50F74021218DBE02428
:1037A00002F512A3E03400F513851282F58312BDF1
:1037B000811229E9750A00750B00EA24FCFEEB343E
:1037C000FFFF8008050EE50E7002050FA80AC3EE84
:1037D00098EF9400500302B975A81AA91B881089A4
:1037E000117810121B12851682851783A3A3A3A339
:1037F00012CD19121B12E5162405F510E43517F544
:10380000117810121B1285168285178312B9B71210
:103810002BCF74061218A58A108B11EA451170037C
:1038200002B975EA2404F518E43511F519851882F2
:10383000F583E0F50EA3E0F50F851A82851B831250
:10384000CD158A828B83A3A3A3E0F9851282851309
:103850008312BD81122BBDE9F50B600302B97574AB
:10386000021218DB12C07FF50B780B121B16E4F561
:1038700014F5157814121B127514ED7515027814D1
:10388000121B129002EE121B2974071218DB121B76
:1038900029EEF9AC10AD1185128285138312BD811A
:1038A000122D3D74091218A5E9F50B600302B975D4
:1038B000E50A703FE4F510F5117810121B127CFF39
:1038C0007DFF790985128285138312BD81122CA791
:1038D00074021218A512C0A5700D74041218DB1220
:1038E000B9AC791102B9A99002EDE024029002F17D
:1038F000F080149002F1E0FA9002EDE079002402E9
:103900005001096A497072A80A9002EDE0FAE82AAB
:10391000FAE43400FBEE9AEF9B405A851882851931
:1039200083E0C0E09002F212B75BD0E0F0050A85B8
:103930001882851983A3E0C0E0089002F212B75BF9
:10394000D0E0F0050A9002ED12CD19121B1212CD33
:1039500012A80A12C04C12382F74021218A5900235
:10396000EDE0250AF50A74FF650E700474FF650F1B
:10397000600302B7C4E50A601F9002F1E0F5F0E5CC
:103980000A8412B9C912290BE960099002F212BD2A
:10399000811238B979008011E50B7003750B0A7438
:1039A000041218DB12B9ACA90B02C04212C1E7E540
:1039B0000EF0A3E50FF022A3A312CFA4AA0EAB0F23
:1039C00022A3A3EAF0A3EBF0229002F0F07CF07DBA
:1039D0000285128285138312BD852274EC1218FFB2
:1039E00074FC12188F12C4E874021218F512BD7B11
:1039F000122BD58A0E8B0FEA450F700302BAB31251
:103A0000BAC3A81AA91B881289137812121B127C38
:103A1000FF7DFF790B850A82850B8312BD81122CF5
:103A2000A774021218A512BBB9700C850C82850D03
:103A30008312C0B602BAC08E828F83A3A3A3A3E071
:103A4000F5147814121B16E4F514F5157814121BEE
:103A5000127514F07515027814121B127812121BCD
:103A60001274091218DB121B2974091218DBE0F911
:103A7000AC0EAD0F850A82850B8312BD81122D3DE0
:103A800074091218A5E9FE70157CF07D02850A8282
:103A9000850B8312BD81122911E9700980207416EB
:103AA0006E70027E009002F112BD811238B9EE7084
:103AB00004800B7E01850C82850D8312C3D5EEF93F
:103AC00002C3EAEE2402F50AE43FF50B2274EC127D
:103AD00018FF74FC12188FEAFEEBFF8C108D11EEAC
:103AE0002405F50AE43FF50B74021218F5850A82E5
:103AF000850B8312BD81122BD58A0E8B0FEA450FE1
:103B0000700302BBA9EE2402F50CE43FF50DA81AE0
:103B1000A91B881289137812121B127CFF7DFF7972
:103B20000D12BD7B122CA774021218A512BBB9701E
:103B30000B850A82850B8312C0B6807A8E828F83B2
:103B4000A3A3A3A3E0F5147814121B16850A82859B
:103B50000B83A3A3121B297514F075150278141298
:103B60001B127812121B1274091218DB121B297413
:103B7000091218DBE0F912BD77122D3D74091218F5
:103B8000A5E9FE700F7CF07D0212BD7B122917E9BA
:103B90007009802074166E70027E009002F112BDD2
:103BA000811238B9EE7004800B7E01850A82850B84
:103BB0008312C3D5EEF902C3EA12BDC0F512A3E029
:103BC000F513EA45132274E81218FF74FE12188FD9
:103BD0008A188B198C168D17EA2405F50EE4351911
:103BE000F50FEA2402F510E43519F511851082F578
:103BF0008312BD811229E98A0A8B0B750D007C03A3
:103C00007D0079007AF07B02123847750C00E50AD6
:103C100014F5120424FFF50AE50B34FFF50B80546C
:103C20009002F0E0FA9002EDE0F8EA28F8E43400BF
:103C3000F9E50A98E50B99500D9002F0E0F8E512CD
:103C4000C3989002EDF0E0F5147515007814121B7E
:103C50001212CD129002F1E02AFAA3E03400FB1216
:103C6000382F74021218A59002EDE0F89002F0E0EF
:103C700028F0050C850E82850F83A3A312C68C4005
:103C80000302BD5C9002F0E0C3950AE4950B40038B
:103C900002BD5CAE0CEE2EFEE433FF12BD9BAC1AEF
:103CA000AD1B12CD2DE439FB122BD58A148B15AC2C
:103CB00014AD15EC4D701B750D0112BD8B12C3D9DF
:103CC0009002F112B2D860031238B9A90D74020241
:103CD000C044851882851983A3A3A3A3E0F50D78BA
:103CE0000D121B16E4F514F5157814121B12751439
:103CF000ED7515027814121B129002EE121B297436
:103D0000071218DB121B29A9128510828511831254
:103D1000BD81122D3D74091218A5E9F50D709B9017
:103D200002F112BDB0600302BC20E4F514F5157871
:103D300014121B127CFF7DFF790F85108285118381
:103D400012BD81122CA774021218A512BDB6600311
:103D500002BC2012BD8B12C0BA02BCCD7CF07D0229
:103D600085108285118312BD8112291DE96003022D
:103D7000BCC0790002BCCDAC0EAD0F850C82850DA8
:103D80008312BD8522E0FAA3E0FB2212BD9BE0FA7C
:103D9000A3E0F9EA85168285178322850E82850FB6
:103DA00083E02EF8A3E03FF988828983229002EE17
:103DB00012CEB3E8492212BDC0F8A3E0F9E84922C7
:103DC0009002F1EAF0A3EBF09002F1E02274E81225
:103DD00018FF74FA12188F74041218DB12B9C38C0E
:103DE000188D1974041218DBE02405F510A3E034D3
:103DF00000F51174041218DBE0240212C05812BD41
:103E0000811229E98A0C8B0D7F007E00A81AA91B5C
:103E1000880A890B780A121B12851082851183A3E8
:103E2000A3A3A3E0F50A8E0B780A121B12E5102457
:103E300005F50AE43511F50B780A121B128510827C
:103E4000851183A3A312C088122BCF74061218A564
:103E50008A0E8B0F802912C079F00F12C079F00FF3
:103E60009002ED12C3C4121B1212CD12EFF812C051
:103E70004C12382F74021218A59002EDE02FFFE5C6
:103E80000E450F700302BF08851A82851B8312C47A
:103E9000FAA3A3A3E0F985168285178312BD8112C8
:103EA0002BBDE9FEE50E2404F512E4350FF513EE03
:103EB000705074041218DB12C07FF50A780A121BC6
:103EC00016E4F50AF50B780A121B12750AED750B4C
:103ED00002780A121B129002EE121B2974071218A4
:103EE000DB121B29E50C24FAF9AC0EAD0F85168206
:103EF00085178312BD81122D3D74091218A5E9FEA4
:103F0000603912C09512C3D8EF700302C02F90021F
:103F1000F1E0F5F0EF849002F0F07CF07D02851680
:103F20008285178312BD81122923E960099002F26C
:103F300012BD811238B9790002C0428F0AEF703B7E
:103F4000E4F514F5157814121B127CFF7DFF79112E
:103F500085168285178312BD81122CA77402121850
:103F6000A512C0A5700912C09512C0B902C0429036
:103F700002EDE024049002F1F080359002EDE0F8CB
:103F80009002F1E0FAE82404FCE43400FDEC6A4D10
:103F9000600302BF0EE50C24FAFAE50D34FFFBE5E1
:103FA0000A28F8E43400F9EA98EB99500302BF0EAE
:103FB000851282851383E0C0E09002F2E02FF8A31F
:103FC000E034008882F583D0E0F00F8512828513FB
:103FD00083A3E0C0E012C066D0E0F00F74021218B4
:103FE000E5880A890B780A121B1274021218DB1278
:103FF0001B2985108285118312B9B7122BDB74043B
:104000001218A58A0E8B0FEA450F700302BE567474
:10401000021218DBE0C0E012C066D0E0F00F7402BC
:104020001218DBA3E0C0E012C066D0E002BE5EEE74
:1040300070027E0A85108285118312C09B12C3D83C
:10404000EEF974061218A57F100219D19002F2E061
:1040500028FAA3E03400FB22F516A3E03400F5179C
:10406000851682F5832212C06A229002F2E02FFAAE
:10407000A3E034008A82F5832212C06A74FF221200
:10408000C1E7A3A3A3A3E02212CFA48510828511C8
:104090008312BD852285128285138312CEB38518C3
:1040A00082851983229002F2EAF0A3EBF09002F2EB
:1040B00012CEB3E8492212C3DEE8F0A3E9F0791189
:1040C0002274EA1218FF74FE12188F8A0A8B0B8C66
:1040D000148D15EA2405FEE4350BFFAC1AAD1B8EDA
:1040E000828F8312BD81122BD58A0E8B0FEE240690
:1040F000F510E43FF511EA450F700302C1B9E50A76
:104100002402F50CE4350BF50D8A828B83A3A3A35F
:10411000E0A2E55028851A82851B8312BD81122DED
:10412000318A128B13EA45136020791212BD77850C
:1041300012828513831218FDE9F50E707F851082B7
:10414000851183E0600979528011750E0E806D85AE
:104150000A82850B83A3A3A3A3E0F9E4F50AF50B78
:10416000780A121B128E828F83A3A3E0F50A780AC5
:10417000121B128E828F83A3A3A3121B298E828F00
:104180008312CD1512BD7B122D4374061218A5E9BA
:10419000F50E7011851082851183E0702D12BD7BA4
:1041A00012292980257416650E7011750E00741879
:1041B0001218DB12C1E3E48010750E0112CEAB853C
:1041C0001482851583E8F0A3E9F0851082851183B8
:1041D000E0600479008002A90E74021218A57F0E17
:1041E0000219D112C1E722E0F8A3E0F58388822208
:1041F00074EC1218FF74F712188F8A0C8B0D8C1246
:104200008D13EA2405FEE4350DFF750E00AC1AADE2
:104210001B8E828F8312BD81122BD58A0A8B0BEAEB
:10422000450B700302C3AFE50C2402F50C500205E8
:104230000D8A828B83A3A3A3E0A2E5502F851A8267
:10424000851B8312BD81122D318A0E8B0FEA450F1B
:10425000604F7912AC0AAD0B12BD7B850E82850FC3
:10426000831218FDE9F50E600302C3B2850C828546
:104270000D83E0F50AA3E0F50BAA0AFB122D25EA4F
:104280004B70197AFF7BFF122D25EA4B700302C396
:10429000A58A828B83E50AF0A3E50BF0750A0080FE
:1042A00008750E0E02C3B2050A9002EAE0F8E50AAC
:1042B000C398400302C3A5850A10751100740378E2
:1042C0001012187C8A828B83A3A3E02510F8A3E048
:1042D000351112C77970D08E828F8312C3CD12B977
:1042E000C38E828F83A3A312C3CD12B9C1EE24045F
:1042F000F50AE43FF50B850A82F583E0888289831D
:10430000A3A3A3A3F0A3E4F0EE2405F510E43FF586
:1043100011851082F58312C3CDA3A3A3A312B9C143
:104320007514077515007814121B12EEFCEFFD745E
:10433000041218ED12382F74021218A5E4F514783F
:1043400014121B12850A82850B83E0FC7D0079170D
:1043500012BD7B122CA774021218A574071218DB69
:1043600012B9C374071218DBE0FA4B603D850A826C
:10437000850B8312C3C4121B128510828511831210
:10438000CD1512382F74021218A574021218F512E6
:10439000BD7B12292FE9602674071218DB12BD813C
:1043A0001238B98019750E098008750E11800375D1
:1043B0000E0112CEAB85128285138312C3D8A90ECB
:1043C00074098028E0F50A750B00780A2212BD8571
:1043D000888289832212C3DEE8F0A3E9F022E0F8A4
:1043E000A3E0F98510828511832274041218A57F39
:1043F0000C0219D174EC1218FF12C4E8751200EE09
:104400002402F50EE43FF50F850E82F58312BD817F
:10441000122D258A0A8B0BEA450B700302C4CC854A
:104420000C82850D83E06401600302C4C1AC0AAD57
:104430000BAA0CAB0D122D19E9606E850A82850B53
:104440008312B74EEE2406F50CE43FF50D8E828FF5
:1044500083A3A3121B298E828F83A3A3A3A3121B62
:1044600029850C82850D83121B2979188E828F83F2
:1044700012C4FA12BD81122D4374061218A5E9F870
:10448000741668700B850C82850D83E4F0A380148C
:10449000E860128E828F8312BD8185108285118320
:1044A000EAF0A3EBF0881280187810121B12AC0A05
:1044B000AD0BEEFAEFFB122D1F74021218A5E9F5F1
:1044C00012AA0AAB0B122D2BE512700E850E8285F7
:1044D0000F8312BD8112293580097416651270038D
:1044E000751200A91202C3EFEAFEEBFF8C108D11CA
:1044F000EE2405F50CE43FF50D2212CFA4850E82C3
:10450000850F832274EA1218FF750A00750B007E6E
:10451000007F00750C00EC2402F512E43DF51380D9
:1045200035EC650A7003ED650B600302C5B988823E
:104530008983A3A3E06A7003A3E06B707C888289FF
:1045400083A3A3A3A312CEAFEE28FEEF39FFEA2880
:10455000FAEB39FB050C12C689503A850C0E750F23
:10456000007403780E12187C85128285138312C69C
:104570007C12C779601FE50A450B70A58C0A8D0B6C
:104580008882898312B74C88828983A3A3E02EFA9C
:10459000A3E03F80BEE50CC39402500302C67775CA
:1045A0000A00750B00EE4F6010EEFAEFFB1238B305
:1045B0008A108B11EA45117005790002C679750DD4
:1045C0000002C64C850D0E750F007403780E12188C
:1045D0007C851282851383E0250EF50EA3E0350F4E
:1045E000F50FE50E2406F516E4350FF5178516824E
:1045F000F58312C77E6042E50E2404F514E4350FFE
:10460000F515851482F583121B29E510250AFAE5B4
:1046100011350BFB12382F74021218A585148285F0
:104620001583E0250AF50AA3E0350BF50B85168204
:1046300085178312BD811238B9E50D600D7C087DA8
:10464000007900AA0EAB0F123847050DE50DC39592
:104650000C500302C5C485128285138312CEAF8825
:10466000828983A3A3A3A3A3A3E510F0A3E511125A
:10467000B2DFEEF0A3EFF0790102C1DE12C68022B4
:10468000E0250EF8A3E0350F229002EAE0F8E50CF1
:10469000C3982274F01218FF8A108B118C0C8D0DA8
:1046A000750F00750E0080507916EE2406F50AE4A9
:1046B0003FF50B8E828F83A3A3121B298E828F83DB
:1046C000A3A3A3A3121B29850A82850B83121B298E
:1046D000851082851183A3A312BD81122D43740618
:1046E0001218A5E9F50F7416650F706C850A82859E
:1046F0000B83E4F0A3F0050E9002EAE0F8E50EC3A8
:10470000985066AA0E8A0A750B007403780A12186C
:104710007C850C82850D83A3A312C7C8E8FEE9FF40
:104720008E828F8312C77E6040EA2401F50AE4344A
:1047300000F50B9002EAE0650A7002E50B60148850
:10474000828983A3A3A3A3A3A3A3A312BDB06003E1
:1047500002C6A8791802C6AAE9609B12CEAB7410F3
:104760001218DB12C77012C3D8A90F7F080219D123
:10477000E0FAA3E0F5838A8222F98882898312CF46
:10478000A4EC4D2274F61218FF7C0080010C9003FB
:1047900047E0F8ECC398501E8C0A750B0074027841
:1047A0000A12187C12C7BDE06A7003A3E06B70DDCB
:1047B000E8FAE9FB80047A007B0002C8609002E816
:1047C00012C7C88882898322E0250AF8A3E0350B46
:1047D000F92274F21218FF8A0A8B0B750C008027DD
:1047E0008E828F83A3A3A3A312B2D660031238B91B
:1047F0007C087D007900EEFAEFFB1238478E828F3D
:1048000083E4F0A3F0050C12C6895027850C0E75C1
:104810000F007403780E12187C850A82850B83A31F
:10482000A3E0250EFEA3E0350FFF8E828F8312BD1D
:10483000B070AD850A82850B8374FFF0A3F002CFC0
:104840009874F61218FF122CD78A828B83E5824562
:104850008370067A007B008007A3A3A3A312BD8107
:104860007F020219D174F41218FF890A8C828D8399
:10487000E06402703C12CE4EFEA3E0F9EEF8740242
:104880006870037429697029750C02750D00780C25
:10489000121B1274101218DB121B2974101218DB71
:1048A000121B29A90A12368574061218A5E9F98087
:1048B00002790102B31374E81218FF74FB12188F07
:1048C000E9851A82851B83F08A188B19ECFEEDFFAF
:1048D0007512008E828F83A3A3A3E0A2E4502D74EF
:1048E0001D1218DB12BD81122D318A828B83E58265
:1048F0004583700302CCED790AEEFCEFFDAA18ABFC
:10490000191218FDE9F512600302CCF0741F121899
:10491000DBE0F50AA3E0F50B74211218DBE0F50CDF
:10492000A3E0F50D74231218DBE0F510A3E0F511F8
:104930008E828F83E06402600302CC8EA312CEAF1E
:10494000850A82850B83A3858214858315EE240650
:10495000F50EE43FF50F8882898312CD2DF516E41C
:1049600039F5177816121B9C01000028012890C900
:104970000700022855CA0328C3C9002984CB01298E
:10498000AFCB022950CB032984CB042928CC8ECC71
:10499000E5104511600302CC89850E82850F8312D4
:1049A000CEAFE8FAE9FB8A828B83E0850C82850D25
:1049B0008312CD38121B128A828B83A3E0FCA3E002
:1049C00002CC12E5104511600302CC89850C82856A
:1049D0000D837401F012CD22850A82850B83F07C51
:1049E000007D008E828F83A3A3A3A3E02401FAA3FA
:1049F000E03400FB122BD5EA4B60408A828B83E0C7
:104A00002402F8850C82850D83E028F0EA2404F85E
:104A1000E43BF988828983E085148285158312CD71
:104A20004612CD38121B128A828B83A312CD15E554
:104A30000A2403FAE4350BFB02CC17850C82850DA2
:104A400083E02404F07C047D007900AA14AB1512E5
:104A5000384702CCF0E5104511600302CC8912CD35
:104A600022FEA3E0FF850C82850D837404F0EE85A1
:104A70000A82850B83F0EF851482851583F0740319
:104A80001218F5EEFAEFFB122BD58A0E8B0FEA45C2
:104A90000F700302CB338A828B83A3A312B74C74AB
:104AA000011218E5881089117810121B1274051272
:104AB00018DB121B297CFF7DFF122BDB74041218FC
:104AC000A58B11EA45117033850E82850F8312CDB7
:104AD00019121B12850E82850F83A3121B297C02DB
:104AE0007D007A2A7B921229D774041218A5E970E6
:104AF0000A74011218DB74FFF0A3F08E828F83E03A
:104B000064027039750E02750F00780E121B128E3A
:104B1000828F83A312CD15E50A2404FAE4350BFB3A
:104B200012382F74021218A5850C82850D83E0249B
:104B300002800974011218DBEEF0A3EFF074011289
:104B400018DB12CD0774011218DB12CCFE02CC83E5
:104B5000E5104511600302CC89850E82850F831212
:104B6000CF9DAA18AB1912368B850C82850D8374E4
:104B700002F0850A82850B83EAF08514828515830D
:104B8000EB02CC86E5104511600302CC8912CD22E0
:104B9000F8A3E0F9850C82850D837402F0E8850A9C
:104BA00082850B83F0E985148285158302CC868586
:104BB0000E82850F8312BD81123829EAFAF8C39557
:104BC00010E49511405CE86510451170047A00808E
:104BD00021851A82851B83E0FCE5102CFCE435114D
:104BE000FDC3EC98ED94005003E08005E510CAC3C6
:104BF0009AFAEA850C82850D83F08A0C750D00788F
:104C00000C121B12850E82850F83E02510FCA3E099
:104C10003511FDAA0AAB0B12382F74021218A50227
:104C2000CCF075120702CCF0E5104511705B850ED3
:104C300082850F8312CEAF850C82850D837407F0B9
:104C40008882898312CCFF12CCF7E0851482851507
:104C500083F0E82402FAE439FB8A828B8312CD07C1
:104C60008A828B8312CCFEA3A312B2DE12CD0CF08B
:104C7000E82405F85001098882898312CD0CA3121B
:104C8000CD46A3A3A3A3F0806775120B8062741DA9
:104C90001218DB12BD81122CD78A828B83E58245E4
:104CA00083604A12CEAF880E890FE8450F603E74CC
:104CB000251218DBE0F5127812121B167810121B61
:104CC00012780C121B12780A121B1274071218DBCE
:104CD000E0F9EEFCEFFDAA18AB19850E82850F8373
:104CE0001218FD74071218A5E9F512800375120E4B
:104CF000A912740502C044F088828983A322A3E02C
:104D0000850A82850B832212CD4DF02212CD4DA350
:104D1000A3229002EE12CFA422E0F51075110078C4
:104D20001022850E82850F8312C1E7E022E0FAA3EC
:104D3000E0F8E4C8F9EA2822F08A828B83E0F50CD7
:104D4000750D00780C2212CCF712CD4D22E0850AA9
:104D500082850B83A3A32274EE1218FF74FE12182F
:104D60008F8A0A8B0BECFEEDFF890CAC1AAD1BEEA3
:104D7000FAEFFB122BD58A0E8B0FEA450F70030258
:104D8000CE3F851A82851B8312BD81122CD78A8261
:104D90008B83E5824583700302CE3AA3A312CEAF84
:104DA00088108911E84511700302CE3A7414121864
:104DB000DBE0F512A3E0F513E50CF50D780D121B01
:104DC0001674191218DB121B297812121B12741B8D
:104DD0001218DBE0F9AC0EAD0FAA0AAB0B851082FE
:104DE0008511831218FD74051218A5E9F50D70528E
:104DF00074FE650C604C850E82850F83E064027042
:104E00004112CE4EFAA3E0F9EAF874026870037416
:104E10002969702E85128285138312CD2DF50EE43B
:104E200039F50F780E121B12EEFCEFFDAA0AAB0B40
:104E3000122D5B74021218A58008750D0E80037583
:104E40000D01A90D74021218A57F0A0219D1A3122F
:104E5000CEB388828983E02274F61218FF74FE12A2
:104E6000188F740C1218DB12CEAFE8851A82851BDE
:104E700083F074011218DBE9F0E4F50AF50B780A07
:104E8000121B12750A02780A121B1274041218E51A
:104E9000880A890B780A121B1279FE122D437406B8
:104EA0001218A574021218A502C8608E828F831290
:104EB000CEB322E0F8A3E0F92274F71218FFEAFE5D
:104EC000EBFF890A90030512CD1512368BEA5402C6
:104ED000600BA90AEEFAEFFB122BC9800279017F61
:104EE000010219D174F21218FF74FE12188FEAFE33
:104EF000EBFF890C7401650C60147402650C60038F
:104F000002CF937901122F65E9600302CF93EEFA85
:104F1000EFFB122D25EA4B6003122D2BA81AA91BBB
:104F2000880A890B780A121B12750A02750B007821
:104F30000A121B12750A24750B92780A121B127C36
:104F4000FF7DFF7A017B00122BCF74061218A5801B
:104F500038850A82850B83A3A3A3A3A3A312CF9DA5
:104F6000EEFAEFFB123673E4F50EF50F780E121B16
:104F70001274021218DB121B297CFF7DFFAA0AABF8
:104F80000B122BDB74041218A58A0A8B0BE50A4559
:104F90000B70BE74021218A57F060219D112C1E768
:104FA00012CFA422E0FCA3E0FD2274F41218FF8AC1
:104FB0000A8B0BECFEEDFF901657E0F4604B7A097C
:104FC0007B00123859EA4B60408A828B8374B1F0BF
:104FD000A3E412D00CF08A828B83A3A3E50AF0A38A
:104FE000E50B12D00CA3EEF0A3EFF0740C1218DB5B
:104FF00012CEAF8A828B83A3A3A3A3A3A3A312C3BE
:10500000D8901657E0F912386502B313F08A828BF4
:1050100083A3A3A3A32274F01218FF74FA12188FAB
:10502000890BECFEEDFF750A008A0C8B0D780C12D3
:105030001B560004103CD259D077D091D0A9D0C7CC
:10504000D0DFD002D11AD12ED158D1D3D1E4D1FBA7
:10505000D116D23CD23CD26ED17401650B600302F2
:10506000D2378E828F83E0F8C39403400302D23795
:10507000E890174302D2137402650B600302D23723
:105080008E828F8312D99A901744E8F0A3E902D256
:10509000137401650B600302D23712D2644003021D
:1050A000D237E890072B02D2137401650B6003021C
:1050B000D2378E828F83E0F8C39405400302D23743
:1050C000E890072C02D2137401650B600302D237FB
:1050D00012D264400302D237E890072D02D2137433
:1050E00010650B600302D237750C10750D00780C3B
:1050F000121B127A2E7B0712382F74021218A50287
:10510000D25D7401650B600302D23712D264400392
:1051100002D237E890073E02D2137401650B600398
:1051200002D2378E828F83E090174702D213740425
:10513000650B600302D2378E828F83780E1217536D
:105140009091E2780E120DA7500302D237900740DB
:10515000780E12176202D25DE9600302D237122B79
:105160006FE9700512363780559007D38061740758
:10517000650B600302D237750C06750D00780C12B2
:105180001B128E828F83A3AC82AD8374021218ED42
:1051900012383574021218A57C007D00AA1AAB1BC8
:1051A0008E828F83E0F91235E3E9FEC3940A40034F
:1051B00002D25A122B6FE9700CEEF912363D79507B
:1051C000123979806D74D42EF582E43407F5837436
:1051D0000180407401650B705E12D2645059E890F2
:1051E000073F802F7401650B704D8E828F83E0F82E
:1051F000C3940A5042E890174680187401650B70FA
:10520000368E828F83E0F874F928C3940A5028E818
:10521000901748F080477401650B701B9007D2E02F
:10522000F88E828F83E09007D2F0E87030E064015E
:10523000702B12362B8026750A188021C3EA94271A
:10524000EB940050157402650B700F8E828F8312E1
:10525000E47A1229EFE9F50A8003750A02A90A74B3
:105260000602D5888E828F83E0F8C3940222A90AB1
:1052700080031218A57F040219D174F01218FF746C
:10528000B112188F8C0C8D0D90914674201218F568
:1052900074061217A274201218F51235E3E9FF7490
:1052A0005F1218DBE0F50BEFC3940A400302D3FC56
:1052B00075F006EFA4F50A74411218F57A0E742001
:1052C000250AF9123973E97009744D1218DBE0FEF2
