:020000040000FA
:1008000087EAFFFF0000007C41414141FFFFFFFFFD
:10081000FFFFFFFFFFFFFFFFFFFFFFFFFFFFFFFFE8
:10082000000102030405060708090A0BFFFFFFFF8A
:10083000020C9D021981FFFFFFFFFFFFFFFFFFFF7B
:10084000FFFFFFFFFFFFFFFFFFFFFFFFFFFFFFFFB8
:10085000FFFFFFFFFFFFFFFFFFFFFF02203AFFFF49
:10086000FFFFFF02201CFFFFFFFFFFFFFFFFFFFF57
:10087000FFFFFFFFFFFFFFFFFFFFFFFFFFFFFFFF88
:10088000FFFFFF0219F7FFFFFFFFFFFFFFFFFFFF63
:10089000FFFFFFFFFFFFFFFFFFFFFF021FF3FFFF51
:1008A000FFFFFFFFFFFFFFFFFFFFFFFFFFFFFFFF58
:1008B000FFFFFF0217D701FF0000B4000028002847
:1008C00000283075A000A000A000A00000080008CB
:1008D000E001F000100010001000100010001000E7
:1008E00050005000500010001000D0070000000021
:1008F00000000F0001000500307507001000010026
:1009000081FF00000000FFFFFF8B22A9229122CD72
:1009100022FF02020208025000A0000000E80302C9
:100920000691010000F5900200910100006C150293
:10093000F890010000BE020200910100006D150256
:100940000290010000D4020200910100006E150225
:100950000291010000D6020200910100006F150211
:100960000491080000D702020091010000701502F6
:1009700014910100007115FF0100FF200206910192
:100980000000E990020091010000D51502169100C7
:100990000000000002FA90030000050317007B2905
:1009A0007B297B297B297B297B297B297B297B2927
:1009B0007B297B297B297B29632C752C5D2C0202EA
:1009C00002020202020202010D00000010010206F2
:1009D00091010000EF900200910100001816020C36
:1009E0009101000022070200910100001916020E79
:1009F00091010000968F0200910100001A1602106A
:100A0000910100006E8F0200910100001B1602127E
:100A100091010000D98E0200910100001C160224F1
:100A200091010000EB8E0200910100001D160222D0
:100A300091010000B58E0200910100001E160220F7
:100A400091010000C78E0200910100001F16021ED6
:100A500091010000608F0200910100002016021A2F
:100A600091010000211601E8030577100A1C020617
:100A700091010000EC90020091010000C716102EB9
:100A80008E020000180802FA900300001A0802FE05
:100A9000900100007C8F020091010000C716103EFB
:100AA0008E020000190802FA900300001C0802FEE2
:100AB00090010000EE8FFFFFFFFFFF000130750384
:100AC000020106000000000000000000000000001D
:100AD000000000000000000000000000000000FF17
:100AE000FF0600800CE803140953696D706C6542C1
:100AF0004C455065726970686572616C05125000F2
:100B00002003020A000201060302F0FF53696D7020
:100B10006C6520424C452050657269706865726151
:100B20006C4331000049310A436861726163746546
:100B30007269737469632031000243686172616392
:100B40007465726973746963203200084368617266
:100B5000616374657269737469632033001043685C
:100B60006172616374657269737469632034000231
:100B70004368617261637465726973746963203577
:100B800000020691010000F2900200910100008134
:100B900017022891030000061502FE900100008252
:100BA000170200910100009317022A91010000072B
:100BB0001502FE900100009417020091010000A5AB
:100BC00017022C91020000081502FE90010000A6F9
:100BD00017020091010000B717022E9100000009D2
:100BE0001502FA900300000A1502FE90010000B8F9
:100BF00017020091010000C917021C910400000CAB
:100C00001502FE90010000CA17E5C754F84405F527
:100C1000C779012200000080FB120C09B900030211
:100C20000C87E479217808B800028004F709D8FC21
:100C3000E479297802B800028004F709D8FCE4902E
:100C40000280789279138002F0A3D8FCD9FA781C3C
:100C50009008B67A01BA00028007E493A3F608DA96
:100C6000F97A117B159008B7785379048015E493CD
:100C7000A3AD82AE838A828B83F0A3AA82AB838DDD
:100C8000828E83D8E9D9E77582E07583C074071234
:100C90000CAF75821475830C7400120CAF75D00004
:100CA00075813F751A80751B02759F00020C19C073
:100CB0009FF59FE473D09F22D083D082C09FE4939E
:100CC000C0E0740193C0E0740293F59F22E0667067
:100CD0001008A3E066700A08A3E066700408A3E0A9
:100CE0006622C3E7960809E7960809E7960809E728
:100CF0009622C3E09608A3E09608A3E09608A3E036
:100D00009622C00AC3E096F50A08A3E096420A08B4
:100D1000A3E096420A08A3E096450A7001D3D00AE0
:100D200022080808EAC0E0EBC0E086F0E7A4FA1861
:100D30000986F0E7A42AFA180986F0E7A42AFA1827
:100D40000986F0E7A42AFA1986F0E7A4FBE5F02A61
:100D5000FA190886F0E7A42BFBE5F03AFA190886A1
:100D6000F0E7A42BFBE5F03AFA18180986F0E7A49F
:100D7000C5F02BFBE43AFA1908E7C5F0C6A426F63D
:100D8000E5F03BFBE43AFA1886F0E7A4F6E5F00854
:100D900026F6E43B08F6E43A08F6D0E0FBD0E0FAA9
:100DA00022E4CFC0E0E4CEC0E0E4CDC0E0E4CCC0BB
:100DB000E075F020E626F608E633F608E633F60896
:100DC000E633F6181818EC33FCED33FDEE33FEEF86
:100DD00033FFC3EC9709ED9709EE9709EF971919BF
:100DE00019400FFFEC97FC09ED97FD09EE97FE19EE
:100DF0001906D5F0BFECF709EDF709EEF709EFF7A3
:100E0000191919D0E0FCD0E0FDD0E0FED0E0FF22BF
:100E10006016080808C6C313C618C613C618C6133A
:100E2000C618C613C6D5E0EA227009080808226071
:100E300016181818C6C333C608C633C608C633C644
:100E400008C633C6D5E0EA22E627F60809E637F6F3
:100E50000809E637F60809E637F622E026F608A381
:100E6000E036F608A3E036F608A3E036F622E026E0
:100E7000F008A3E036F008A3E036F008A3E036F06F
:100E800022C3E697F60809E697F60809E697F608FA
:100E900009E697F622C3E096F008A3E096F008A3CF
:100EA000E096F008A3E096F022E056F608A3E0569C
:100EB000F608A3E056F608A3E056F622E056F0083E
:100EC000A3E056F008A3E056F008A3E056F022E0B5
:100ED000F608A3E0F608A3E0F608A3E0F622E6F0A1
:100EE00008A3E6F008A3E6F008A3E6F022E0FAA3E0
:100EF000E0FBA3E0FCA3E0FD22E0F8A3E0F9A3E01F
:100F0000FAA3E0FB22E8F0A3E9F0A3EAF0A3EBF0F8
:100F100022CAC0E0E6F0A308DAFAD0E0FA22CAC09A
:100F2000E0E0A3C582CCC582C583CDC583F0A3C54F
:100F300082CCC582C583CDC583DAE6D0E0CA22C3A0
:100F4000E498F8E499F9120F808026C3E49AFAE451
:100F50009BFBE920E7E9120F80E498F8E499F92275
:100F6000C3E498F8E499F9120F80E498F8E499F949
:100F7000C3E49AFAE49BFB22EB20E7CFE920E7E009
:100F8000B90010BB0008E88AF084F8AAF022E4FB5C
:100F9000C8FA22EB70227B10C833C8C933C933505A
:100FA00007C39AC3DBF280069A50012ADBEAC833F2
:100FB000F4C8C933F4C9FA2275F008E4C833C8C9C3
:100FC00033C933C99AC99B5004C92AC93BD5F0EC2F
:100FD000FBC833F4C8E4C9FA22600D08C6A2E713BF
:100FE000C618C613C6D5E0F322600C08C6C313C6E4
:100FF00018C613C6D5E0F422700422600D18C6C3CB
:1010000033C608C633C6D5E0F41822251A10AF0837
:10101000F51A400C151B8008F51A4002151BD2AFBB
:101020002200C0D0251A10AF08F51A500C051B80FD
:1010300008F51A5002051BD2AFD0D022251AF5822E
:1010400010AF08F51A400C151B8008F51A40021560
:101050001BD2AF851B8322251AF582E4351BF5834D
:1010600022251AF8E4351BF922251AFAE4351BFB70
:1010700022251AFCE4351BFD22E473251AC582C023
:10108000E0E51B34FFC583C0E0E51AC3958224F870
:1010900010AF0885831B85821A800885831B858293
:1010A0001AD2AFCEF0A3E520F0A3780AE608F0A3A9
:1010B000DEFAEFF0A3E58124FAF8E608F0A3E608EB
:1010C000F0A3E608F0A30808E608F0A3E608F0A3FA
:1010D00015811581D0E0FED0E0F8158115811581CC
:1010E000E8C0E0EEC0E022251AC582C0E0E51B346E
:1010F000FFC583C0E0E51AC3958224F910AF0885C7
:10110000831B85821A800885831B85821AD2AFCE05
:10111000F0A3E520F0A3780AE608F0A3DEFAEFF0EA
:10112000A3E58124FBF8E608F0A3E608F0A308088D
:10113000E608F0A3E608F0A315811581D0E0FED003
:10114000E0F815811581E8C0E0EEC0E022851B8340
:10115000851A82E0A3FEE0A3F520780AE0A3F60852
:10116000DFFAE0A3FFE0A3C0E0E0A3C0E0E0A3C09B
:10117000E0E0A3C0E0E0A3C0E010AF0885821A85DC
:10118000831B800885821A85831BD2AFD083D082CF
:10119000020CB5851B83851A82E0A3FEE0A3F5202F
:1011A000780AE0A3F608DFFAE0A3FFE0A3C0E0E0DE
:1011B000A3C0E0E0A3C0E0E0A3C0E010AF088582D8
:1011C0001A85831B800885821A85831BD2AFD08342
:1011D000D08222C0D0251AC582C0E0E51B34FFC5ED
:1011E00083C0E0E51AC3958224F310AF0885831B02
:1011F00085821A800885831B85821AD2AFC8F0A326
:10120000E9F0A3EAF0A3EBF0A3790AE709F0A3D889
:10121000FAECF0A3EDF0A3EEF0A3EFF0A3D0E0F032
:10122000A3D0E0F0A3D0E0F0A3E520F0A3E5F0F038
:10123000A322851B83851A82E0C0E0A3E0F9A3E026
:10124000FAA3E0FBA3780AE0F608A3DFFAE0FCA328
:10125000E0FDA3E0FEA3E0FFA3E0C0E0A3E0C0E068
:10126000A3E0F5D0A3E0F520A3E0A3F5F010AF08CC
:1012700085831B85821A800885831B85821AD2AFDD
:10128000D082D083D0E0F8D0E032740480067402BB
:1012900080027401C0E0F40412103CD0E0120F117F
:1012A000227404800474028000CCC0E0EDC0E0E54C
:1012B0001AC39CCCAD1B50011D10AF068C1A8D1BA0
:1012C00080068C1A8D1BD2AF120F1ED0E0FDD0E02D
:1012D000FC22D083D082E9C0E0E493A3C386F0C5AA
:1012E000F095F0F908E493A386F0C5F095F0700B43
:1012F000E493A3C3994005E9048002A3E475F002D6
:10130000A42582F582E5F03583F583D0E0F9E493F6
:10131000A3C0E0E493C0E022D083D082ECC0E0ED33
:10132000C0E0E493A3FCE493A3FDED4C600D121325
:1013300064EC24FFFCED34FFFD80EFE493A3FCE4B8
:1013400093A3FDED4C600D1213A3EC24FFFCED34D0
:10135000FFFD80EFD0E0FDD0E0FCE493A3C0E0E42B
:1013600093C0E022C0E0C3E49396087401939618FA
:10137000400FE4936670080874019366187000705B
:1013800019A3A3C3E49396087401939618A3A340EA
:101390000DD0E0D0E0D0E0021354A3A3A3A3A3A3F5
:1013A000D0E022C0E0C0F088F0E4936670080874D2
:1013B000019366187000A8F0A3A3700BD0F0D0E0E2
:1013C000D0E0D0E0021354A3A3D0F0D0E022FFFF7E
:1013D00074F61210E7EAFEEBFF8C0A8D0BEE243454
:1013E000F8E43FF9E8FCE9FD121503E0FAEE2437D2
:1013F000F582E43FF583E0F8850AF0A4C885F00C97
:10140000850BF0A4250CF9EA28F8E439F97A257B54
:1014100000120F80EA8C828D83F0FA131313541F8D
:10142000F8EE28F8E43FF9E8245DF582E439F58325
:10143000E0C0E074075AF8D0E0B800028004C3139B
:10144000D8FCA2E05003EA8020EE2436F582E43F87
:10145000F583E0F5F0EA84A8F0EE28F8E43FF9E837
:101460002438F582E439F583E0F97F03021193749F
:10147000F51210E7EAFEEBFFEE2434F582E43FF5C7
:1014800083E0C0E0121503D0E0F08E828F83A3A327
:10149000A3A3A3E0FAA3E0FB8E828F83A3A3A3A35D
:1014A000A3A3A3E0FCA3E0FDECC39AF50CED9BF530
:1014B0000DEE247FF50AE43FF50B850A82F583E003
:1014C0006401702AEE2480F582E43FF5831212A5B0
:1014D00012150D7402121021E960137CAF7D04EE29
:1014E000FAEFFB122897850A82850B83E4F0AC0C97
:1014F000AD0DEEFAEFFB1213D0E9F9121FE57F04F0
:10150000021193EE2435F582E43FF58322C082C0B8
:1015100083851A82851B83E0F8A3E0F9C3EA9CEB7C
:101520009D5010C3EC98ED99401BC3EA98EB99507D
:1015300014800EC3EA98EB994007C3EC98ED9940EC
:1015400004790180027900D083D08222EAC39CFA18
:10155000EB9DFB2274ED1210E7900375E0640860C8
:1015600005E06407702C9061C8E060269003A3E05A
:10157000F874FF68601CE875F00AA4C8AAF02AF99C
:1015800074A528FE740339FF8E828F83A3A3A3E082
:10159000700579000216EDEE2468F510E43FF511B0
:1015A000906060E0851082851183F075121F7513BD
:1015B00005750A00750B00E5D914F50CE5D954033F
:1015C000F50D601FEE2482F50EE43FF50F74036500
:1015D0000D6059E50C6017EE2467F582E43FF58352
:1015E000E0700B793DEEFAEFFB1228C780A490055E
:1015F0001AE064016023850E82850F83E060047A1F
:101600000480027A00E50CC39AFA95E0FB122723C6
:101610008A0A8B0BEA450B7006122B2B021592855A
:101620000E82850F83E070048A128B137A00801477
:10163000E5D9C0E0EAF8E51228F582E43513F58330
:10164000D0E0F00AEAC3950C40E6850E82850F8350
:10165000E0602874FC250CF50C781212128EAC0C8C
:10166000A90DEEFAEFFB1229757402121021E97030
:101670000AAA0AAB0B122FF90215E37403650D6079
:1016800054850C0E750F00780E12128EAC12AD132D
:10169000AA0AAB0B12293974021210218510828517
:1016A0001183E0F87480687005750E7F8002880EE3
:1016B000E50EF50F780F121292780D121292A90C06
:1016C000AC0AAD0B9003A3E0FA7B0012255B740219
:1016D0001210218013900375E06408600BAC12AD0A
:1016E00013EEFAEFFB122A0B122B3779017F0C0253
:1016F000119374F31210E774FC12100BEAFEEBFF67
:10170000890BA2AFE433F50AC2AFEE2463F50CE413
:101710003FF50D8010AA0CAB0D1228F1122FF99095
:1017200004B6E004F0850C82850D83E0F8A3E0F9AF
:10173000E849602DE82402FAE439FBEA2402F50EB8
:10174000E43BF50F780E12128E8A828B83E0FCA3A5
:10175000E0F9EEFAEFFB1228E57402121021E960BD
:10176000B49004B6E0604D9004B7E0F89004B6E0A1
:10177000C398500C7402650B703A9004B8E0603462
:101780008E828F83A3A3A3A3E0851A82851B831275
:1017900017C47402121057E81217C49004B5E02859
:1017A000F07402121071AA1AAB1B79011225AF90C6
:1017B00004B6E4F0E50AA2E092AF74041210217FAF
:1017C00006021193F0A3E4F09004B6E0F822FFFFC4
:1017D0008521878522C622C0E074EB1211D3A2AF07
:1017E000E433F50AC2AF759B00906182E0A2E0503D
:1017F00030E591A2E0502A7591FE740165217021B7
:1018000012196A122A651219581212A1121D8F7428
:1018100004121021E9640170057901122ABF121522
:1018200054906182E0A2E5505DE591A2E5505775C4
:1018300091DF900375E064076005E06408702F1283
:10184000196A74016521703E122A65121958121224
:10185000A1121D8F7404121021E964017005790131
:10186000122ABF7901EEFAEFFB1216F28018E0643B
:101870000D7013900397E004F064287002E4F07A8E
:1018800000E0F9122B3D906182E0A2E640030219CC
:101890002DE591A2E6400302192D7591BF900375C5
:1018A000E064057008122A4D122A598003122A5347
:1018B000752100122ACBE9900376F07900122ABF35
:1018C0001228017A017B00900374E0F9122FC9906D
:1018D0007803E06442705690051EE014F0704EC22A
:1018E000AF1218E400782AD0E0F618D0E0F6E59FB1
:1018F0005407F87005750FFF8003750F7FC4C0E0B3
:101900007829E6F50C08E6550FF50D740B780C12E6
:101910000FE9D0E0250CF8906270E0A2E740F8E80B
:10192000C333906272F0906270E0D2E0F090618117
:10193000E0A2E35009E5E9A2E3500375E9F7A3E06B
:10194000A2E75009E591A2E7500375917FE50AA24D
:10195000E092AF7F080212328E828F83E0F8A3E01C
:10196000C82416F582E438F583229003A3E0F875C5
:10197000F00AA4C8AAF02AF974A528FE740339FF56
:1019800022C0E0C0D0C082C083906183E0A2E0505A
:1019900009E5BFA2E0500375BFFEE0A2E15009E5F2
:1019A000BFA2E1500375BFFDE0A2E25009E5BFA26E
:1019B000E2500375BFFBE0A2E35009E5BFA2E3508C
:1019C0000375BFF7E0A2E45009E5BFA2E450037538
:1019D000BFEFE0A2E55009E5BFA2E5500375BFDF08
:1019E000E0A2E65009E5BFA2E6500375BFBFD08371
:1019F000D082D0D0D0E032C0E074F21211D3E5A78B
:101A0000A2E4500FE5A1A2E4500953A7EF75A1EF9E
:101A1000121A4BE5A7A2E5500CE5A1A2E55006532A
:101A2000A7DF75A1DFE5A7A2E15009E5A1A2E1507A
:101A30000375A1FDE5A7A2E2500CE5A1A2E25006C4
:101A400053A7FB75A1FB7F0102123274F81210E755
:101A5000752101900375E0640670077A007B00121F
:101A60002A35A2AFE433FED2AF90037BE06401706D
:101A7000187A207B00900374E0F91230E37A207B1F
:101A800000900374E0F9122FCF906182E0D2E6F06B
:101A900090051BE0602185C622801690037AE064E1
:101AA000017008E5C654F84405F5C653BEFC12178C
:101AB000D07401652160E4EEA2E092AF7F010211D3
:101AC00093FFFFFF8E238F24858228858327851A25
:101AD00082851B83E0CEA3E0CF852882852783EB18
:101AE000C9EAC8EDCBECCA75F010C3E833C8E933D6
:101AF000C9EA33CAEB33CBC3EA9EF526EB9FF52543
:101B0000B35004AB25AA26EC33CCED33CDD5F0DAB7
:101B1000AE23AF242274E91210E774FA12100BEA14
:101B2000FEEBFF8C0A8D0B122A77EAF8EBF9ECFA40
:101B3000EDFB8E828F83120F05900375E024F7C3AF
:101B400094055006751201021C4C1229AB8A0C8BAD
:101B50000DEA450D7003021C49122A6B8A0E8B0F89
:101B6000122A6BEA650E7003EB650F60ECEEFCEF7A
:101B7000FDAA1AAB1B122A71850C82850D83A3A3C3
:101B8000780E120ECF909065780E120EA9851A82EB
:101B9000851B837816120ECF9090657816120EA9C9
:101BA000780E7916120CE2501F780E7916120E81FB
:101BB000909085780E120D024047850E12850F1306
:101BC000851014851115804590908585161285170E
:101BD000138518148519157812790E120E81781252
:101BE000120D02501C751200751300751400751546
:101BF0000178127916120E817812790E120E488031
:101C00000C751201751300751400751500740978B0
:101C100012120E299090C5780E120ECF7812790EFE
:101C2000120DA1900375E06408600AE06406600587
:101C3000E0640570209090817812120D0250169089
:101C4000907D7812120E5B800C7512007513007572
:101C50001400751500850A82850B837812120EDE3A
:101C600074061210217F1002119374F71210E712FC
:101C70002A89900519E064017010906245E4F0A390
:101C8000F053F4F343FE0C5390F3122A23E5C654A9
:101C9000B84441F5C6E59E5447644170F8906185AB
:101CA000740FF0900517E0F47002A3E0602C750A41
:101CB00001750B00900517E0780A120FF8E50AF499
:101CC000FAA3E0600814600A14600C800DEA5280E8
:101CD0008008EA52908003EA52A079007F02021144
:101CE0009374F71210E7E9FEEAFF74016E700C7A44
:101CF000807B00900374E0F9122FC9903198E4932F
:101D0000F46008E493F91227E3800953C6B8E59E0E
:101D1000544770FA122A29900519E06401700312E1
:101D20002819900517E0F47002A3E0602B750A01F2
:101D3000750B00900517E0780A120FF8E50AFAA370
:101D4000E0600814600A14600C800DEA428080088C
:101D5000EA42908003EA42A01229AB8A0A8B0BA8C0
:101D60000AA90BE8496016E5E170FCE82414F58245
:101D7000E439F583E0F874FF68600288E174016F6C
:101D8000700A7A01900374E0F9123053021CDC747B
:101D9000F11210E78A0A8B0B8C0C8D0D90906578F0
:101DA0000A120EA9740F121057780E120ECF9090CF
:101DB00065780E120EA9780A790E120CE2909085C1
:101DC0005010780A790E120E81780A120D02401412
:101DD000800E780E790A120E81780E120D025004D0
:101DE0007901800279007F0802119374ED1210E7E7
:101DF0008A0A8B0B8C0C8D0D909065780A120EA9B7
:101E00007413121057780E120ECF909065780E1240
:101E10000EA9780E790A120CE24011780A790E1296
:101E20000E81AA0AAB0BAC0CAD0D802275120075A9
:101E300013007514007515017812790E120E817851
:101E400012790A120E48AA12AB13AC14AD157F0C0E
:101E5000021193909065780A120ECF8A828B837854
:101E60000A120EBC7F0402119374F51210E78C82E3
:101E70008D83780A120ECF8A828B83780A120E9590
:101E8000121EBDC3E098F0A3E099121EAF401E9051
:101E9000908D780A120ECF8A828B83780A120E6E8A
:101EA0008E828F83E02420F0A3E0344EF080A4F0F3
:101EB0008E828F83C3E09420A3E0944E22EA240410
:101EC000F8E43BF9E8FEE9FF8C828D83A3A3A3A38A
:101ED000E0F8A3E0F98E828F832274F51210E7E90F
:101EE000FE9004D1E0FAA3E0FBEE29F8E433F974A4
:101EF0003028F582748F39F583E02AF50AA3E03B98
:101F0000F50B780A12128E909089120EED121AC4F7
:101F100074021210218A0A8B0B8C0C8D0D741078B0
:101F20000A120E10AA0AAB0B7F0402119374F1126D
:101F300010E78A0E8B0F8C108D117411121057122E
:101F400012A57411121057E02401F50AA3E0340021
:101F5000F50BE4F50CF50D780E790A120D21909031
:101F600079780A120ECF780E790A120D21AA0EABDB
:101F70000FAC10AD11121AC474021210218B0BEAAF
:101F8000450B60047A0180027A00EC2AFCE43DFDF6
:101F90007413121057E0F8A3E0F9E8FEE9FFECF83B
:101FA000EDF97A717B02120F80880A890BE4F50C37
:101FB000F50D8E828F83780A120EDEECF8EDF97A39
:101FC000717B02120F808A0A8B0B7405780A120F3C
:101FD000F88E828F83A3A3A3A3E50AF0A3E50BF0F9
:101FE0007F08021193C082C083E9906000F0D08323
:101FF000D08222C0E074F21211D3A2AFE433FED239
:10200000AFE589A2E15003122E91758900C2C57512
:102010001C00EEA2E092AF7F01021232C0E074F227
:102020001211D3A2AFE433FED2AFE58BA2E050038E
:10203000122E91758B00C2E880D5C0E0C0D0E8C0F8
:10204000E0E9C0E0A9A8D2AFC2C7751C00E9A2E7C9
:10205000E433F8E9A2E792AFD0E0F9D0E0F8D0D0CD
:10206000D0E032C2AF02000022120CB8379D071236
:102070000CB84A9D07120CB87B9D07120CB8B59D91
:1020800007120CB80E9E07120CB8559E07120CB81A
:102090009D9E07120CB8CC9E07120CB8FB9E07122F
:1020A0000CB8329F07120CB8799F07120CB8929F98
:1020B00007120CB8E79F07120CB800A007120CB863
:1020C0004EA007120CB888A007120CB8D4B606129E
:1020D0000CB8D7B706120CB810B806120CB833B843
:1020E00006120CB845B806120CB883B806120CB824
:1020F000FFB806120CB8C7B906120CB8E9B9061237
:102100000CB880BA06120CB8D2BA06120CB803BBCF
:1021100006120CB810BB06120CB87ABB06120CB82B
:10212000D1BB06120CB8D4BB06120CB80DBC0612FB
:102130000CB810BC06120CB81ABC06120CB86EBC57
:1021400006120CB8AFBC06120CB8E2BC06120CB8F2
:102150001FBD06120CB821BE06120CB8C5BE061271
:102160000CB82EBF06120CB86CBF06120CB88391C7
:1021700007120CB8AB9107120CB8D89107120CB823
:10218000109207120CB86E9207120CB8BA9207128E
:102190000CB8219307120CB8619307120CB89E93E8
:1021A00007120CB8CC9307120CB8769407120CB82F
:1021B000809407120CB88D9407120CB8C0940712C3
:1021C0000CB8CC9407120CB8E49407120CB8EE9437
:1021D00007120CB80DBE07120CB81BBE07120CB8C4
:1021E00033BE07120CB84ABE07120CB814C8051249
:1021F0000CB8BEC805120CB8D1C905120CB84DCA2E
:1022000005120CB86BCB05120CB8A7CB05120CB895
:1022100042CC05120CB826CD05120CB8F2CD051231
:102220000CB880CF05120CB8F1CF05120CB8ABD0AA
:1022300005120CB89DD105120CB8DDD105120CB8F1
:1022400091D205120CB8C3D205120CB8B9D405123C
:102250000CB8FBD405120CB819D505120CB87FD5F3
:1022600005120CB84ED605120CB812D705120CB8D0
:1022700031D905120CB8EEDE06120CB8D8DF061202
:102280000CB883E006120CB8D4E006120CB884E156
:1022900006120CB8F5E106120CB8DAE206120CB818
:1022A0000EE306120CB807E406120CB844E406125A
:1022B0000CB820E506120CB85FE506120CB87BE5F9
:1022C00006120CB8B7AF07120CB83BB007120CB827
:1022D00066B007120CB880B107120CB87C950712D3
:1022E0000CB8929507120CB8B09507120CB8C196AD
:1022F00007120CB8CB9607120CB8F69707120CB859
:10230000ED9807120CB85A9907120CB81CF9041270
:102310000CB84CFA04120CB883FA04120CB8CDFABB
:1023200004120CB890FC04120CB8349105120CB8CD
:10233000C09105120CB8249305120CB83093051205
:102340000CB86B9305120CB8DA9305120CB8E39431
:1023500005120CB8EC9505120CB8B39605120CB822
:10236000109805120CB82E9805120CB84B9805124F
:102370000CB8F89805120CB8759905120CB89D990F
:1023800005120CB8679C05120CB86C9C05120CB8B1
:10239000859E05120CB8D39E05120CB8439F0512FA
:1023A0000CB8819F05120CB85DA005120CB81DA1D8
:1023B00005120CB869A105120CB86CA105120CB875
:1023C000B0A105120CB8F8A105120CB837A205127D
:1023D0000CB859A205120CB88DA205120CB8F0A2C7
:1023E00005120CB8DCE506120CB8EAE506120CB8CA
:1023F0003DE606120CB85CE606120CB8A1E6061221
:102400000CB8E5E706120CB880E806120CB8C4E870
:1024100006120CB8EEE806120CB85DE906120CB80C
:10242000A3E906120CB81AEA06120CB8CBEA061297
:102430000CB800B004120CB810B004120CB8B1B053
:1024400004120CB80DB104120CB8CAB104120CB8C5
:10245000E6B204120CB818B304120CB847B3041255
:102460000CB8F4B404120CB86BB704120CB8DBB996
:1024700004120CB8CDBA04120CB8C6BB04120CB8C6
:10248000CDBD04120CB8C1C004120CB8F0C10412C6
:102490000CB8F4C304120CB804C504120CB893C6EB
:1024A00004120CB884C704120CB8D2C704120CB8BA
:1024B00041C804120CB865C804120CB8B6C804129E
:1024C0000CB857CD04120CB858CE04120CB8B9CEC3
:1024D00004120CB8E4CE04120CB8AACF04120CB843
:1024E000498D07120CB8538D07120CB8988D07123E
:1024F0000CB8AC8D07120CB83C8E07120CB8758E58
:1025000007120CB8B08E07120CB8D98E07120CB88F
:102510002D8F07120CB8428F07120CB8648F071268
:102520000CB8798F07120CB88D8F07120CB8A28FD8
:1025300007120CB8DC8F07120CB8089007120CB801
:10254000519007120CB8C39007120CB806910712ED
:102550000CB8309107120CB85B9107120CB822BA74
:1025600007120CB853F505120CB836F605120CB864
:10257000B1F605120CB8ECF605120CB83DF80512D0
:102580000CB8CBF805120CB85DFB05120CB80FFCAB
:1025900005120CB81BFD05120CB88EFE05120CB806
:1025A000E7FE05120CB8F98807120CB83C8907122F
:1025B0000CB8C08907120CB8978C07120CB845AD3F
:1025C00007120CB8F7AD07120CB8F3AE07120CB82F
:1025D00032AF07120CB88CAF07120CB889B30712D0
:1025E0000CB8ECB307120CB889B407120CB8BEB41F
:1025F00007120CB8EEB407120CB829B507120CB8C4
:1026000049B507120CB886F406120CB812F506127A
:102610000CB8D1F506120CB8E9F606120CB803F99D
:1026200006120CB8458D06120CB86A8D06120CB84D
:10263000378E06120CB80B8F06120CB8788F061264
:102640000CB8B88F06120CB8549006120CB88891CA
:1026500006120CB8639206120CB8C29206120CB89D
:102660004E9306120CB8BC9306120CB8489406128E
:102670000CB88E9406120CB8009506120CB8929500
:1026800006120CB8339606120CB8539606120CB804
:102690009B9606120CB8E49606120CB80097061228
:1026A0000CB8269706120CB8A09706120CB8AE9775
:1026B00006120CB83D9806120CB8A69806120CB873
:1026C0003AF906120CB8BFF906120CB801FA061254
:1026D0000CB8E5FA06120CB852FB06120CB896FBC1
:1026E00006120CB8DAFB06120CB807FC06120CB87E
:1026F0002FFC06120CB867FC06120CB8A5FC0612DB
:102700000CB8CCFC06120CB846FD06120CB890FDB5
:1027100006120CB81CB605120CB8C4B705120CB8DA
:10272000F1B905120CB845BA05120CB870BA051209
:102730000CB842BB05120CB886BB05120CB8CABB5C
:1027400005120CB8DDBB05120CB81EBC05120CB886
:102750004BBC05120CB899BC05120CB8DABC0512BA
:102760000CB808BD05120CB85BBD05120CB8F2BD63
:1027700005120CB8DCC005120CB8F2C205120CB878
:1027800030C305120CB8C3C405120CB808C5051235
:102790000CB87AC505120CB8CBC505120CB805C625
:1027A00005120CB80AC605120CB8AAC605120CB858
:1027B000E0C705120CB8F1C705120CB8D9A3061270
:1027C0000CB858A406120CB851AA06120CB857AB94
:1027D00006120CB8CAAC06120CB861AD06120CB8E1
:1027E000B0E404120CB8F9E404120CB826E50412A3
:1027F0000CB858E504120CB865E504120CB871E584
:1028000004120CB883E504120CB85EE604120CB88E
:10281000BCE604120CB8F1E604120CB828E8041265
:102820000CB875E804120CB899E804120CB809E960
:1028300004120CB8CAE904120CB88DEA04120CB8E0
:10284000FBEA04120CB8B8EB04120CB8CBEB041280
:102850000CB849EC04120CB8DCEC04120CB803ED13
:1028600004120CB86BED04120CB8BCED04120CB8D9
:1028700011EE04120CB8BAEE04120CB865EF041293
:102880000CB811F004120CB883F004120CB8D7F095
:1028900004120CB837F104120CB867F104120CB82A
:1028A000FDF104120CB822F304120CB86AF30412FE
:1028B0000CB887F304120CB8A6F304120CB8D5F3C5
:1028C00004120CB8EAF404120CB870F504120CB837
:1028D00095F504120CB8AAF504120CB81DF60412F2
:1028E0000CB85EF604120CB87AF704120CB81BF898
:1028F00004120CB869F804120CB8D3F804120CB81E
:10290000ECF804120CB88BAD06120CB8DFAD061251
:102910000CB8EBAD06120CB8B5AE06120CB8E2AEB0
:1029200006120CB810AF06120CB87CAF06120CB829
:10293000B2AF06120CB8EBAF06120CB803B0061219
:102940000CB858B006120CB871B006120CB8B6B07C
:1029500006120CB8C9B006120CB8E3B006120CB8D7
:10296000F9B006120CB817B206120CB842B3061230
:102970000CB82CB406120CB81BB506120CB8F53FF7
:1029800000120CB8008006120CB82F8006120CB88A
:10299000F58306120CB84C8506120CB81286061286
:1029A0000CB8918706120CB85B8806120CB8AD887B
:1029B00006120CB8C78806120CB8F98806120CB8B3
:1029C000048906120CB84D8906120CB856890612F5
:1029D0000CB8028A06120CB8DB8A06120CB8228BDD
:1029E00006120CB88A8B06120CB8CC8B06120CB8E7
:1029F000FA8B06120CB8358C06120CB8C8A3051257
:102A00000CB846A705120CB84CA705120CB8A1AD1E
:102A100005120CB8EBB105120CB8D1B505120CB803
:102A2000649907120CB8DA9907120CB8F0990712DA
:102A30000CB8809A07120CB8BD9A07120CB8F79A16
:102A400007120CB8319B07120CB8A49B07120CB8E4
:102A5000E59B07120CB8EE9B07120CB8FA9B071205
:102A60000CB8199C07120CB8439C07120CB8589C60
:102A700007120CB8809C07120CB8E29C07120CB825
:102A8000099D07120CB8C7EF06120CB8DAEF061250
:102A90000CB8F4EF06120CB821F006120CB867F06F
:102AA00006120CB89AF006120CB8D8F006120CB840
:102AB0003DF106120CB852F106120CB85DF1061287
:102AC0000CB86AF106120CB881F106120CB88FF13D
:102AD00006120CB89AF106120CB8A6F106120CB840
:102AE000B9F106120CB8C4F106120CB8E7F10612DF
:102AF0000CB88BF206120CB89BF206120CB8B5F2A9
:102B000006120CB8D2F206120CB8EDF206120CB88E
:102B100012F306120CB81DF306120CB832F30612AB
:102B20000CB846F306120CB8A7F306120CB8ADF3B6
:102B300006120CB8B3F306120CB8B9F306120CB8AF
:102B4000D1F306120CB804F406120CB8D0E7051243
:102B50000CB867E805120CB8FFE805120CB8EFE9ED
:102B600005120CB826EA05120CB839EA05120CB8A1
:102B7000A7EA05120CB842EC05120CB869EC051274
:102B80000CB80BED05120CB840ED05120CB851ED68
:102B900005120CB8CAED05120CB8EBED05120CB815
:102BA00003EE05120CB85BEF05120CB864F10512C8
:102BB0000CB8B4F305120CB8B7F405120CB806F54E
:102BC00005120CB83ED905120CB83BDA05120CB848
:102BD00026DB05120CB830DB05120CB852DB0512EF
:102BE0000CB85EDB05120CB8B0DC05120CB8DFDCEB
:102BF00005120CB80FDE05120CB851DE05120CB828
:102C00007DDF05120CB853E005120CB8A5E00512E3
:102C10000CB804E105120CB83BE105120CB876E1E2
:102C200005120CB811E505120CB82AE505120CB80E
:102C3000ACE505120CB8BAE505120CB80FE60512A2
:102C40000CB81DE605120CB88AE605120CB8FCE6B5
:102C500005120CB842E705120CB8C99806120CB858
:102C6000EB9806120CB8D59A06120CB87A9E06128A
:102C70000CB8BD9F06120CB897A006120CB857B539
:102C800007120CB87CB507120CB8EDB507120CB8DA
:102C900092BF06120CB89BBF06120CB8A4BF061256
:102CA0000CB8D5C006120CB8F4C206120CB82AC370
:102CB00006120CB864C306120CB89AC306120CB8FC
:102CC000D4C306120CB808C406120CB834C40612D9
:102CD0000CB87DC406120CB8B7C406120CB8FFC4F9
:102CE00006120CB855C506120CB88AC506120CB8E7
:102CF000E5C506120CB81FC606120CB870C606123F
:102D00000CB8A6C606120CB8E0C606120CB80EC760
:102D100006120CB831C706120CB88EBF07120CB8D9
:102D2000BABF07120CB815C007120CB81FC00712A3
:102D30000CB82FC007120CB8B3A707120CB8DAA74B
:102D400007120CB804A807120CB838C107120CB847
:102D500016D004120CB87AD204120CB831D4041272
:102D60000CB88ED404120CB890D504120CB818D636
:102D700004120CB89FD604120CB8C4D604120CB8B6
:102D8000B9D904120CB82FDA04120CB81EDB0412E5
:102D90000CB858DB04120CB898DB04120CB838DD00
:102DA00004120CB88DDD04120CB8DADD04120CB874
:102DB00048DE04120CB86EDE04120CB888DE041271
:102DC0000CB89EDF04120CB8AEDF04120CB834E16C
:102DD00004120CB854E104120CB88AE104120CB8C5
:102DE0000EE304120CB84DE304120CB88BE4041289
:102DF0000CB8008007120CB8588007120CB8A081DC
:102E000007120CB80F8207120CB8BE8207120CB85A
:102E1000DD8207120CB8318307120CB86F830712DA
:102E20000CB8DABE07120CB8EBBE07120CB882C1A0
:102E300007120CB8C1C107120CB871C207120CB846
:102E40007DC207120CB8EFFF05120CB830BD071297
:102E50000CB840BD07120CB855BD07120CB807BE20
:102E600007120CB836BB07120CB8BABB07120CB865
:102E700020BC07120CB80DB707120CB836B70712F2
:102E80000CB89CB707120CB8BBB707120CB80FB838
:102E900007120CB868B807120CB8A3B807120CB820
:102EA000A6B807120CB884A407120CB899A407128C
:102EB0000CB8BDA507120CB827A607120CB89BA624
:102EC00007120CB8B5A607120CB8CCA607120CB89E
:102ED000DFA607120CB8F7A607120CB80CA707124A
:102EE0000CB82DA707120CB87EA707120CB889C220
:102EF00007120CB899C207120CB89CC207120CB882
:102F0000F83F00120CB8AFB107120CB825B3071286
:102F10000CB886B307120CB88DD706120CB816D8A9
:102F200006120CB82DD806120CB8EFD806120CB841
:102F3000D0D906120CB839DB06120CB80ADC06121E
:102F40000CB85EDD06120CB8E6DD06120CB8B0B89F
:102F500007120CB8D9B807120CB802B907120CB88E
:102F60009BB907120CB8DDB907120CB8BFC706121F
:102F70000CB8C9C706120CB809C806120CB852C85A
:102F800006120CB88CC806120CB8E2C806120CB8AF
:102F900001C906120CB886CB06120CB88FCB0612EC
:102FA0000CB8E0CB06120CB809CC06120CB81ECC3B
:102FB00006120CB88ECC06120CB81CCD06120CB83A
:102FC00060CD06120CB888CD06120CB807CE0612DA
:102FD0000CB84ACE06120CB887CE06120CB899CEA1
:102FE00006120CB8B8CE06120CB8C1CE06120CB838
:102FF0008BCF06120CB85FFE04120CB8B0FE0412A0
:103000000CB839FF04120CB89FFF04120CB881AA47
:1030100007120CB8ABAA07120CB8A5AB07120CB874
:10302000D4AB07120CB85AAC07120CB839BC071253
:103030000CB8D0FD06120CB806FE06120CB83FFE06
:1030400006120CB898FF06120CB839C007120CB85B
:103050004FC007120CB859C007120CB8AFC0071206
:103060000CB890FF05120CB8B7CF06120CB874D08C
:1030700006120CB8AFD006120CB8D7D006120CB896
:1030800039D106120CB885D106120CB8F0D106124F
:103090000CB86CD206120CB868D306120CB8EFD478
:1030A00006120CB872D506120CB8D6D506120CB89A
:1030B000EDD506120CB8E3D606120CB82FD70612BF
:1030C0000CB8818407120CB8968407120CB8468598
:1030D00007120CB8868507120CB89F8507120CB82A
:1030E000D28507120CB81F8607120CB85386071238
:1030F0000CB8958607120CB8938807120CB89C314F
:1031000000120CB8533500120CB8E53600120CB89A
:103110003C3700120CB85B3700120CB8D9370012DC
:103120000CB86B3900120CB84F3A00120CB8603E64
:1031300000120CB8343F00120CB8DDEA06120CB8CD
:103140001FED06120CB8E1ED06120CB865EF061281
:103150000CB8F0A007120CB858A107120CB875A152
:1031600007120CB840A207120CB893A207120CB8B1
:1031700076A307120CB8CBC107120CB8D2FF061207
:103180000CB811C207120CB848C207120CB8D73FCE
:1031900000FFFFFFFFFFFFFFFFFFFFFF74F21210B2
:1031A0007BE9FF8C0A8D0B7E008F0C8E0D8A0E8BB7
:1031B0000F780E1212D201031A0D35F13108321FA9
:1031C000320D353732FB320C3345338733A433C1EC
:1031D00033E033FD330D351A345C3478348D349C50
:1031E00034B6340D350D350D350D35D2340D3580F1
:1031F0003274106F6003023509750C10780C1212CE
:103200008E7A847B140233D574106F600302350903
:10321000750C10780C12128E7A947B140233D574CC
:10322000046F60030235098C828D83120EF99014AD
:10323000A4120F0502352B74016F6003023509904B
:1032400014AEE0640170030232F6901716E0F88CB9
:10325000828D83E0901716F0E86010E0600302357D
:103260002B901482E06402704B8051E070030235B1
:103270002B901482E06401606EE0640470618067EA
:1032800074016F6003023509901716E064016066EF
:103290009014AEE0F88C828D83E09014AEF0E8607C
:1032A00026E0600302352B901482E06403600DE099
:1032B00064076008E06405600302352B901481E028
:1032C000F912227F02352BE0700302352B90148215
:1032D000E064016012E06404600DE064066008E0F0
:1032E0006405600302352B7A017B00901481E0F9BC
:1032F000122FC902352B7E1202352B74026F600328
:10330000023509123E129017170234B0EFC3942011
:1033100040030235097C1F7D0079007A1A7B171261
:103320002F87780C12128EAC0AAD0B7A1A7B17120B
:103330002F6F7402121021EF901719F07C1A7D176D
:10334000FB7A018037EFC3942040030235097C1FCC
:103350007D0079007AB07B14122F87780C12128EC0
:10336000AC0AAD0B7AB07B14122F6F7402121021CD
:10337000EF9014AFF07CB07D14FB7A00901481E0E4
:10338000F912227902352574016F60030235098C28
:10339000828D83E0F8C394054003023509E8901458
:1033A000CF0234CF74016F60030235098C828D83A4
:1033B000E0F8C394044003023509E89014D00234C5
:1033C000CF74066F6003023509750C06780C121273
:1033D0008E7AD17B14122F6F740212102102352BBA
:1033E00074016F60030235098C828D83E0F8C39409
:1033F000084003023509E89014D70234CF74016FF6
:1034000060030235098C828D83E0F8C39404400385
:10341000023509E89014D80234CF74026F600302B9
:103420003509123E129014D9123DFAE84970030290
:10343000352B901482E06406600302352B9014D97A
:10344000123E4C780A12128A7A027B00901481E0B4
:10345000F91230D7740412102102352B74016F60F9
:10346000030235098C828D83E0F8C3940240030285
:103470003509E89014E1805712354660030235099A
:1034800012353A400302350990173B803E1235460B
:10349000707712353A507290173D802F123E127499
:1034A000026F7065C3E894F4E99401505C9014E2F3
:1034B000E8F0A3E98019123546704EEA24F6123579
:1034C000329477E9940C504190173FEAF0A3EBF067
:1034D000805974016F70328C828D83E06401702991
:1034E0007A087B00901481E0F91230E9EA4B4C4DE8
:1034F0007013790012312B7A047B00901481E0F96B
:103500001230E380267E1680227E18801EC3EA9445
:1035100027EB9400501374026F700E8C828D83120F
:10352000396512216BE9FE80027E02EEF97F060208
:10353000114DF8EB34FFF9C3E822EA24FA123532D0
:10354000947BE9940C228C828D83E0FAA3E0FB74D7
:10355000026F2274F412107BECFEEDFF750A008AF4
:103560000C8B0D780C1212D200031BB436A535ABB0
:1035700035BD35CF35DF35F135FD35033612362112
:103580003627362D363E36433648364D3652365F70
:1035900036643669366E367336903695369A36B45A
:1035A00036AA36F7359014830236AD750C10750DBA
:1035B00000780C12128E7C847D14023682750C10F9
:1035C000750D00780C12128E7C947D140236829058
:1035D00014A4120EF98E828F83120F050236CE7557
:1035E0000C06750D00780C12128E7CA87D14023624
:1035F000829017160236AD9014AE0236AD901717B2
:1036000002369D9017191236D212128E7C1A7D172F
:1036100080709014AF1236D212128E7CB07D14805E
:10362000619014CF0236AD9014D00236AD750C0601
:10363000750D00780C12128E7CD17D14804490148C
:10364000D7806A9014D8806590173980509014D92B
:10365000804B9014E1E08E828F83F0A3E480699028
:10366000173B803990173D80349014E2802F9017DB
:103670003F802A750C06750D00780C12128E7CDBCB
:103680007D14EEFAEFFB122F6F7402121021803EB0
:103690009014E480089014E680039014E8123E161B
:1036A0008E828F83E8F0A3E9801E901482E08E82E0
:1036B0008F838014C3EA9427EB9400500E1221717B
:1036C0008E828F83EAF0A3EBF08003750A02A90AC9
:1036D000800EE0F50C750D00780C22740A12102192
:1036E0007F0402114D74F612107B901482E0703E3C
:1036F000EA4B60089014EBEAF0A3EBF0750AA475AE
:103700000B14780A12128E750A94750B14780A122B
:10371000128E7C847D147B00901483E0FA901481D7
:10372000E0F9122D477404121021790080027911FA
:103730007F0202114DD083D082020CB5C082C083BB
:10374000901482E06406700F7C13123E099014817D
:10375000E0F91221E98002791280DA74F712107B05
:10376000E9901481F0901482E4F090173974FFF01E
:10377000A3F01222D99014837404F07C107D007998
:10378000007A847B14122F877C107D0079007A9454
:103790007B14122F879014A4E4F0A3F0A3F0A3F0FD
:1037A0009014CFF09014D0F09014D77407F09014C8
:1037B000D8E4F07C847D147A1079021230B37C94C2
:1037C0007D147A1079031230B37CA47D147A0479C5
:1037D000041230B37F0102114D74F412107B74F6A1
:1037E00012100BEAFEEBFF54806023901481E0F985
:1037F000122FB18A0A8B0BEA450B600A12311FAAFD
:103800000AAB0B122F9FEEFAEF648002395BEF5484
:103810004060137CA47D147A0479041230ADEEFA72
:10382000EF644002395BEEA2E040030238D8901703
:1038300016E070099014AEE070030238D29014AE16
:10384000E0600B851A82851B837403F08039901425
:10385000CFE0851A82851B83F09014D0E0C0E0741D
:1038600001121057D0E0F0750A06750B00780A12A5
:10387000128E7CD17D147404121057AA82AB83126D
:103880002F6F74021210219014D7E0C0E074081258
:103890001057D0E0F09014D8E0C0E074091210572F
:1038A000D0E0F0AA1AAB1B901481E0F9122273E960
:1038B00060209014827408F0123E576015123E0387
:1038C000123E1688828983E5824583600579081255
:1038D0001079EE640102395954026035901482E087
:1038E00064067028123E091224FB9014D9123E5A25
:1038F000601A9014D9123E4412128A7A027B009008
:103900001481E0F91230D77404121021EE640280A1
:1039100048EE5404600A790012312BEE64048039B9
:10392000EE540860399014EAE0146008147027120D
:10393000310D802290173F1212A59014E21212A5A9
:10394000790190173D12396590173B123E0C1231E8
:10395000317404121021EE6408FAEFFB80047A003F
:103960007B000236DBE0FCA3E0FD2274F412107B46
:10397000EA2405F8E43BF98A828B83E0246F600B2C
:1039800024EF606D24D26064023A4CA3E0640E60C0
:1039900003023A4C8A828B83A3A3A3E064057004DC
:1039A000A3E064146003023A4C88828983123E00CB
:1039B000A3A3A3E0F9901482E064066003023A4CEA
:1039C000747F697003023A4C9014EB123E0CEA4B80
:1039D000607A9014EB123E00A3A3123E0C8A828BF5
:1039E00083E58245836065121079806012312580FD
:1039F0005B88828983E0641370528A828B83A3A3DD
:103A0000A3A3A3A3E064017002A3E070199014EAD9
:103A1000E0640270117A087B00901481E0F91230A2
:103A2000E312310D80267A057B001221718A0A8B00
:103A30000BE4F50CF50D780A12128A7A087B0090D7
:103A40001481E0F91230D774041210210236E074A8
:103A5000EC12107BEAFEEBFF8E828F83A3A3E0F8CB
:103A6000EE2403F50EE43FF50FEE240AF50CE43FD7
:103A7000F50D8E828F83A385820A85830BE86027EC
:103A800024FE7003023B1E147003023B8414700377
:103A9000023B84147003023BF3147003023D0214D2
:103AA0007003023D778072E0704B7C847D147A1045
:103AB00079021230AD7C947D147A1079031230AD06
:103AC000750A06750B00780A12128EAC0EAD0F7ACD
:103AD000A87B14122F6F74021210219014827401AB
:103AE000F07C1A7D17901719E0FB7A01901481E0A1
:103AF000F9122279E96003023B7B123E57601A12E9
:103B00003E03123E16E8FAE9FBEA4B600C90148281
:103B1000E0F98A828B831210797F0C02114DE070DC
:103B200051850E82850F83E0601D7CB07D1490145A
:103B3000AFE0FB7A00901481E0F9122279E9850A5E
:103B400082850B83F0802B901482E064026023E076
:103B50006407601E7A017B00901481E0F91230E95D
:103B6000EA4B4C4D700C7A017B00901481E0F91205
:103B70002FC9850A82850B83E0609E9014827408A9
:103B8000F0023AFAE070F4740368701D901482E059
:103B900064067004740780E8901716E09014826041
:103BA00004740280DB740380D7901717123E5A907A
:103BB00017166025E070069014AEE0602690171787
:103BC000123E4412128A7A017B00901481E0F912AD
:103BD00030D77404121021800AE06401600390144D
:103BE000AEE4F0901482E06407700474068091746F
:103BF00004808DE0F86003023CEFEE2404F50AE453
:103C00003FF50B751006751100781012128EAC0A74
:103C1000AD0B7ADB7B14122F6F7402121021850C0E
:103C200082850D83123E16901739123DFA90148248
:103C30007406F09014D9123E5A60259014D9E0F51C
:103C400012A3E0F513E4F514F515781212128A7A2E
:103C5000027B00901481E0F91230D7740412102115
:103C6000EE240DF582E43FF583123E38EE240FF585
:103C700082E43FF583123E2CEE2411F582E43FF5F9
:103C800083123E209014E1E06401703B7A1F7B00B8
:103C90001221718A12EA75F0E8A4C512A8F075F035
:103CA00003A428F875F0E8EBA428F513E4F514F55F
:103CB00015781212128A7A047B00901481E0F912AE
:103CC00030D77404121021751004781012129285E6
:103CD0000C82850D83123965AA0AAB0B850E82858D
:103CE0000F83E0F9122D537401121021023AFA7475
:103CF00031686003023B7B901716E4F09014820257
:103D00003BEF122D777C067D0079007ADB7B141265
:103D10002F879014E4E4F0A3F09014E6F0A3F09061
:103D200014E8F0A3F07A04FB901481E0F91230E378
:103D30007A087B00901481E0F91230E3901739740F
:103D4000FFF0A3F09014AEE06006901482023BA551
:103D50008E828F83A3A3A3A3A3E064089014827030
:103D600004740580027404F07A017B00901481E0F1
:103D7000F9122FC9023AFA7A087B00901481E0F90F
:103D80001230E3850A82850B83E06003023B198EC3
:103D9000828F83A3A3A3A3A3A3123E388E828F8313
:103DA000A3A3A3A3A3A3A3A3123E2C850C82850DDA
:103DB00083123E207A047B00901481E0F91230E9EE
:103DC000EA4B4C4D6003023B199014ED123E5A70C1
:103DD00003023B199014E81212A59014E6123965FB
:103DE0009014E4123E0C9014ED123E00123E0012AC
:103DF00010797402121021023B19E8F0A3E9F022B5
:103E0000E0F8A3E0F583888222901739E0FAA3E076
:103E1000FB228C828D83123E1A22E0F8A3E0F92265
:103E2000123E1A9014E8E8F0A3E9F022123E1A902C
:103E300014E6E8F0A3E9F022123E1A9014E4E8F048
:103E4000A3E9F022123E4CF50D780A22E0F50AA310
:103E5000E0F50BE4F50C229014EB123E1AE849222F
:103E600074F412107B74F612100BE9FE90173B12DB
:103E70003E167583147582E4C3E098A3E099403838
:103E80009014E4123E1675831775823DC3E098A323
:103E9000E09940249014E6123E169014E2E0687017
:103EA00003A3E06970129014E8123E1690173FE0E9
:103EB000687003A3E06960797A057B001221718A3A
:103EC0000A8B0B901739123E16851A82851B8312B6
:103ED0003DFA90173B123E167402121057123DFA2B
:103EE00090173D123E167404121057123DFA9014AA
:103EF000E2123E167406121057123DFA90173F1246
:103F00003E167408121057123DFAAA1AAB1B122162
:103F1000EFEE9014EAF0E4F50CF50D780A12128A2F
:103F20007A087B00901481E0F91230D774041210E3
:103F3000210236DB74F412107BE9FE901482E064F7
:103F40000660057914023FCBEA24FAF8EB123FCE63
:103F50005077EC24FAF8ED123FCE506D740C12102D
:103F600057E0F50CA3E0F50DC3E50C94F4E50D94D2
:103F7000015056740E121057E0F50AA3E0F50BE558
:103F80000A24F6F8E50B1235349476E9940C50398E
:103F900090173BEAF0A3EBF090173DECF0A3EDF0A7
:103FA0009014E2E50CF0A3E50DF090173FE50AF060
:103FB000A3E50BF0EEF912312B7A047B009014810B
:103FC000E0F91230E37900800279180236E0123508
:103FD00034947AE9940C22C082C0838A828B8380D5
:103FE00001A3E070FCE582C39AFAE5839BFBD083D2
:103FF000D082020CB5020CB5851C87C2AF020CB58D
:020000040002F8
:10300000C082C083E99015D4F0D083D082020CB581
:1030100074F612107BE99002E7F0900347E0F50A9E
:10302000750B007402780A120FF8AA0AAB0B123063
:103030003B9002E812B9C39002E812BDB0606F90F5
:103040000347E075F003A4FAABF012303B900305A0
:1030500012B9C390030512BDB0700B9002E812BD07
:1030600081123041804890030512CD157AFF7BFF15
:10307000122DEF7A0080198A0A750B007402780A03
:10308000120FF812C7BD74FF12B1C3E4F0A3F00A27
:10309000900347E0F8EAC39840DD79051224479091
:1030A00002E7E0F91223337AD17B241226C302C847
:1030B0006074F412107B8A0A8B0BEB54806047908B
:1030C00002E7E0F9122FB18A0C8B0DAE0CAF0DEEBA
:1030D0004F602A8E828F83E064B0701A122459E9FF
:1030E00060148E828F83A3A3A3A3E0F9EE2405FAD4
:1030F000E43FFB122429EEFAEFFB122F9FAA0AE508
:103100000B6480FB80047A007B0002B31374F2121C
:10311000107B74FB12100BEAFEEBFFEE4F60457460
:1031200003121057EEF0A3EFF0851A82851B83EC93
:10313000F0A3EDF07402121057E9F0AA1AAB1B12BB
:10314000232DE9F50A70757413121057E0F50CA3DE
:10315000E0F50DE50C450D60638E828F8312B74C50
:10316000EE4F7005750A0280537A067B0012303BE1
:103170008A0E8B0FA80EA90FE8497005750A1380F7
:103180003B88828983E412B1C3EEF0A3EF12B2DF71
:10319000E50CF0A3E50DF09002EB12B2D89002EB33
:1031A0006017E0FCA3E08003EAFCEBFD8C828D83DA
:1031B00012B2D870F38C828D8312C3D8A90A740519
:1031C00002CF95F0A312CCF7A32274F212107B89E0
:1031D0000A890E750F007403780E120FF8850E0C15
:1031E000850F0D9002EAF09002E812C1E312B2D608
:1031F000602E1230417900801D890E750F00740217
:10320000780E120FF89002E812C67C8882F583A32C
:10321000A3E4F0A3F009900347E0F8E9C39840D98C
:10322000900347E0FA850CF0A4CAA8F0850DF0A43D
:1032300028FB12303B8A0E8B0FAE0EAF0FEE4F7095
:103240000302B2CC900347E0FC850CF0A4CCA8F0BC
:10325000850DF0A428FD7900122F877C0080318D28
:103260000E750F007403780E120FF88A828B83128A
:10327000B2D188828983E4F012B2DEA3A3F0A3F076
:103280000DEDC3950A40D8EE250CFEEF350DFF0C71
:10329000900347E0F8ECC39850288C0E750F00742B
:1032A00002780E120FF89002E812B2D1E824025010
:1032B0000109FAE9FB8A828B83EEF0A3EFF07D002F
:1032C00080BFE50A9002EAF079008002791302CF0C
:1032D0009812C680F922A3A312BD85EA4B22A3123D
:1032E000CCF7A3A3A32274F412107B7900EAA2E026
:1032F000501F750A46750B90780A12128E79107C51
:10330000047D007AD67B151224417402121021E943
:10331000F980007F0402114DC082C0839002EB123D
:10332000BDB0601C88828983A3A3E06A7003A3E018
:103330006B8882898370E8A3A3A3A312BD81800454
:103340007A007B0002B00974F212107B74FD121037
:103350000BEAFEEBFF851A82851B83E4F0A3F07471
:10336000021210577401F012BDAD70141225FD1237
:10337000303B9002EE12B9C312BDAD700302B4D956
:1033800012BAC3EE2404F50CE43FF50D850C82F56A
:1033900083E024FE603C24FC607424FE607E24FEF6
:1033A000700302B42924FE700302B43624FE7003B5
:1033B00002B44324FE700302B45024FE700302B42E
:1033C0005D24FC700302B47E24FE700302B49602F6
:1033D000B4D21225FD9002F0EAF0A3EB12B4E5128C
:1033E0002075E9600302B4D29002F01212A58E8219
:1033F0008F83A3A3A3A3A312CD15850A82850B8374
:1034000012BD81122411740212102102B4D2AC1A1E
:10341000AD1BEEFAEFFB12245F02B4A1AC1AAD1B98
:10342000EEFAEFFB1224658078AC1AAD1BEEFAEFD2
:10343000FB12246B806BAC1AAD1BEEFAEFFB12246F
:1034400071805EAC1AAD1BEEFAEFFB12247780514F
:10345000AC1AAD1BEEFAEFFB12247D80447402120D
:103460001061880E890F780E12128E74021210717C
:10347000EEFAEFFB12248374021210218023AC1A9F
:10348000AD1BEEFAEFFB122489E9F87016740212F4
:103490001057E4F0803CAC1AAD1BEEFAEFFB12249F
:1034A0008FE9F8E8602C8E828F83A3E06414602299
:1034B000850C82850D83E09002F0F0851A82851BD1
:1034C0008312BD819002F112B9C3E8A312B4E512D0
:1034D000206FEEFAEFFB1223E77402121057E0F9A7
:1034E000740302CF95F07CF07D02850A82850B8300
:1034F00012BD852274E812107B74FA12100B74044A
:10350000121057ECF0A3EDF08A148B15EA2405F5A0
:1035100010E43515F511EA2402F512E43515F5131A
:10352000851282F58312BD811221658A0C8B0D757F
:103530000A007C037D0079007AF07B02122F87E578
:10354000102402F518E43511F5197402121061887F
:103550000E890F780E12128E851082851183A3A317
:10356000A3A3E0F50E750F00780E12128EE510245D
:1035700005F50EE43511F50F780E12128E851882BE
:1035800085198312C08812234B74061210218A0EEB
:103590008B0FE50E450F700302B7158020851A8248
:1035A000851B83E088828983F0050A851A82851B42
:1035B00083A3E0C0E012B756D0E0F0050AE50C2482
:1035C000FBFAE50D34FFFBC3E50A9AE49B400302D6
:1035D000B7157E007F00851482851583A3A3A3A35E
:1035E000E0F50B780B121292E4F516F51778161227
:1035F000128E7516ED751702781612128E9002EE65
:103600001212A574091210571212A5E50C24F9F92B
:10361000AC0EAD0F85128285138312BD811224B9C1
:103620007409121021E9600302B6B6851082851173
:1036300083A3A3A3A3A3A3A3E0F89002EDE0687083
:1036400075E0F5168E17781612128E12CD128510AF
:1036500082851183A3A3A3A3A3A3A3A312BD811255
:103660002F817402121021E9604C9002F112BDB05A
:10367000703BE4F516781612128E7CFF7DFF7907F9
:1036800085128285138312BD8112242374021210C5
:103690002112BDB6701785108285118312CEAF74CA
:1036A0000412105712C77012C0B902B749850E82B2
:1036B000850F8312B74CA81AA91B8816891778168C
:1036C00012128E74041210571212A58518828519D1
:1036D0008312B9B912235774041210218A0E8B0F6A
:1036E000EE4F700302B59212B756EE12B76112C0D8
:1036F0006FEF12B761F8A3E03400F9E50E450F60F3
:103700000302B59D8882898374FFF0050A12B756BB
:1037100074FFF0050AE50A601A1313543F12B9C981
:10372000122081E960099002F112BD81122FF9790E
:1037300000801685108285118312CEAF740412109A
:103740005712C77012C3D8790A02C042A3A3A3A319
:10375000E0FEA3E0FF22A80A9002F1E02812C06F69
:1037600022F0050A089002F1E0282274E812107B8A
:1037700074FA12100B740212105712B9C3740412A7
:103780001057ECF0A3EDF07402121057E02405126C
:10379000C058E0F50EA3E0F50F7402121057E024B4
:1037A00002F512A3E03400F513851282F58312BDF1
:1037B00081122165750A00750B00EA24FCFEEB34CA
:1037C000FFFF8008050EE50E7002050FA80AC3EE84
:1037D00098EF9400500302B975A81AA91B881089A4
:1037E00011781012128E851682851783A3A3A3A3C6
:1037F00012CD1912128EE5162405F510E43517F5D1
:1038000011781012128E85168285178312B9B7129D
:10381000234B74061210218A108B11EA4511700394
:1038200002B975EA2404F518E43511F519851882F2
:10383000F583E0F50EA3E0F50F851A82851B831250
:10384000CD158A828B83A3A3A3E0F9851282851309
:103850008312BD81122339E9F50B600302B9757437
:103860000212105712C07FF50B780B121292E4F57A
:1038700014F515781412128E7514ED75150278145E
:1038800012128E9002EE1212A57407121057121225
:10389000A5EEF9AC10AD1185128285138312BD819E
:1038A0001224B97409121021E9F50B600302B975ED
:1038B000E50A703FE4F510F511781012128E7CFFC6
:1038C0007DFF790985128285138312BD811224231D
:1038D000740212102112C0A5700D74041210571238
:1038E000B9AC791102B9A99002EDE024029002F17D
:1038F000F080149002F1E0FA9002EDE079002402E9
:103900005001096A497072A80A9002EDE0FAE82AAB
:10391000FAE43400FBEE9AEF9B405A851882851931
:1039200083E0C0E09002F212B75BD0E0F0050A85B8
:103930001882851983A3E0C0E0089002F212B75BF9
:10394000D0E0F0050A9002ED12CD1912128E12CDC0
:1039500012A80A12C04C122F6F740212102190028A
:10396000EDE0250AF50A74FF650E700474FF650F1B
:10397000600302B7C4E50A601F9002F1E0F5F0E5CC
:103980000A8412B9C9122087E960099002F212BDB7
:1039900081122FF979008011E50B7003750B0A7401
:1039A0000412105712B9ACA90B02C04212C1E7E5CC
:1039B0000EF0A3E50FF022A3A312CFA4AA0EAB0F23
:1039C00022A3A3EAF0A3EBF0229002F0F07CF07DBA
:1039D0000285128285138312BD852274EC12107B3E
:1039E00074FC12100B12C4E8740212107112BD7B29
:1039F0001223518A0E8B0FEA450F700302BAB312DD
:103A0000BAC3A81AA91B88128913781212128E7CC5
:103A1000FF7DFF790B850A82850B8312BD811224FD
:103A200023740212102112BBB9700C850C82850D13
:103A30008312C0B602BAC08E828F83A3A3A3A3E071
:103A4000F5147814121292E4F514F5157814121284
:103A50008E7514F0751502781412128E78121212E7
:103A60008E74091210571212A57409121057E0F93A
:103A7000AC0EAD0F850A82850B8312BD811224B96D
:103A80007409121021E9FE70157CF07D02850A820E
:103A9000850B8312BD8112208DE970098020741678
:103AA0006E70027E009002F112BD81122FF9EE704D
:103AB00004800B7E01850C82850D8312C3D5EEF93F
:103AC00002C3EAEE2402F50AE43FF50B2274EC127D
:103AD000107B74FC12100BEAFEEBFF8C108D11EEC4
:103AE0002405F50AE43FF50B7402121071850A8271
:103AF000850B8312BD811223518A0E8B0FEA450F6D
:103B0000700302BBA9EE2402F50CE43FF50DA81AE0
:103B1000A91B88128913781212128E7CFF7DFF79FF
:103B20000D12BD7B122423740212102112BBB97036
:103B30000B850A82850B8312C0B6807A8E828F83B2
:103B4000A3A3A3A3E0F5147814121292850A828528
:103B50000B83A3A31212A57514F075150278141225
:103B6000128E781212128E74091210571212A57446
:103B700009121057E0F912BD771224B97409121016
:103B800021E9FE700F7CF07D0212BD7B122093E9CB
:103B90007009802074166E70027E009002F112BDD2
:103BA00081122FF9EE7004800B7E01850A82850B4D
:103BB0008312C3D5EEF902C3EA12BDC0F512A3E029
:103BC000F513EA45132274E812107B74FE12100BF1
:103BD0008A188B198C168D17EA2405F50EE4351911
:103BE000F50FEA2402F510E43519F511851082F578
:103BF0008312BD811221658A0A8B0B750D007C032F
:103C00007D0079007AF07B02122F87750C00E50A9F
:103C100014F5120424FFF50AE50B34FFF50B80546C
:103C20009002F0E0FA9002EDE0F8EA28F8E43400BF
:103C3000F9E50A98E50B99500D9002F0E0F8E512CD
:103C4000C3989002EDF0E0F5147515007814121287
:103C50008E12CD129002F1E02AFAA3E03400FB129A
:103C60002F6F74021210219002EDE0F89002F0E044
:103C700028F0050C850E82850F83A3A312C68C4005
:103C80000302BD5C9002F0E0C3950AE4950B40038B
:103C900002BD5CAE0CEE2EFEE433FF12BD9BAC1AEF
:103CA000AD1B12CD2DE439FB1223518A148B15ACB8
:103CB00014AD15EC4D701B750D0112BD8B12C3D9DF
:103CC0009002F112B2D86003122FF9A90D7402020A
:103CD000C044851882851983A3A3A3A3E0F50D78BA
:103CE0000D121292E4F514F515781412128E751453
:103CF000ED751502781412128E9002EE1212A57450
:103D0000071210571212A5A912851082851183126D
:103D1000BD811224B97409121021E9F50D709B9030
:103D200002F112BDB0600302BC20E4F514F5157871
:103D30001412128E7CFF7DFF790F8510828511830E
:103D400012BD81122423740212102112BDB6600329
:103D500002BC2012BD8B12C0BA02BCCD7CF07D0229
:103D600085108285118312BD81122099E9600302BA
:103D7000BCC0790002BCCDAC0EAD0F850C82850DA8
:103D80008312BD8522E0FAA3E0FB2212BD9BE0FA7C
:103D9000A3E0F9EA85168285178322850E82850FB6
:103DA00083E02EF8A3E03FF988828983229002EE17
:103DB00012CEB3E8492212BDC0F8A3E0F9E84922C7
:103DC0009002F1EAF0A3EBF09002F1E02274E81225
:103DD000107B74FA12100B740412105712B9C38CB2
:103DE000188D197404121057E02405F510A3E0345F
:103DF00000F5117404121057E0240212C05812BDCD
:103E0000811221658A0C8B0D7F007E00A81AA91BE8
:103E1000880A890B780A12128E851082851183A375
:103E2000A3A3A3E0F50A8E0B780A12128EE51024E4
:103E300005F50AE43511F50B780A12128E85108209
:103E4000851183A3A312C08812234B74061210217C
:103E50008A0E8B0F802912C079F00F12C079F00FF3
:103E60009002ED12C3C412128E12CD12EFF812C0DE
:103E70004C122F6F74021210219002EDE02FFFE51B
:103E80000E450F700302BF08851A82851B8312C47A
:103E9000FAA3A3A3E0F985168285178312BD8112C8
:103EA0002339E9FEE50E2404F512E4350FF513EE8F
:103EB0007050740412105712C07FF50A780A12125B
:103EC00092E4F50AF50B780A12128E750AED750B5D
:103ED00002780A12128E9002EE1212A574071210C6
:103EE000571212A5E50C24FAF9AC0EAD0F85168217
:103EF00085178312BD811224B97409121021E9FEBD
:103F0000603912C09512C3D8EF700302C02F90021F
:103F1000F1E0F5F0EF849002F0F07CF07D02851680
:103F20008285178312BD8112209FE960099002F2F9
:103F300012BD81122FF9790002C0428F0AEF703B47
:103F4000E4F514F515781412128E7CFF7DFF7911BB
:103F500085168285178312BD8112242374021210E4
:103F60002112C0A5700912C09512C0B902C04290BA
:103F700002EDE024049002F1F080359002EDE0F8CB
:103F80009002F1E0FAE82404FCE43400FDEC6A4D10
:103F9000600302BF0EE50C24FAFAE50D34FFFBE5E1
:103FA0000A28F8E43400F9EA98EB99500302BF0EAE
:103FB000851282851383E0C0E09002F2E02FF8A31F
:103FC000E034008882F583D0E0F00F8512828513FB
:103FD00083A3E0C0E012C066D0E0F00F74021210BC
:103FE00061880A890B780A12128E74021210571215
:103FF00012A585108285118312B9B7122357740454
:104000001210218A0E8B0FEA450F700302BE567400
:1040100002121057E0C0E012C066D0E0F00F740248
:10402000121057A3E0C0E012C066D0E002BE5EEE00
:1040300070027E0A85108285118312C09B12C3D83C
:10404000EEF974061210217F1002114D9002F2E079
:1040500028FAA3E03400FB22F516A3E03400F5179C
:10406000851682F5832212C06A229002F2E02FFAAE
:10407000A3E034008A82F5832212C06A74FF221200
:10408000C1E7A3A3A3A3E02212CFA48510828511C8
:104090008312BD852285128285138312CEB38518C3
:1040A00082851983229002F2EAF0A3EBF09002F2EB
:1040B00012CEB3E8492212C3DEE8F0A3E9F0791189
:1040C0002274EA12107B74FE12100B8A0A8B0B8C7E
:1040D000148D15EA2405FEE4350BFFAC1AAD1B8EDA
:1040E000828F8312BD811223518A0E8B0FEE24061C
:1040F000F510E43FF511EA450F700302C1B9E50A76
:104100002402F50CE4350BF50D8A828B83A3A3A35F
:10411000E0A2E55028851A82851B8312BD811224F6
:10412000AD8A128B13EA45136020791212BD778590
:104130001282851383121079E9F50E707F85108243
:10414000851183E0600979528011750E0E806D85AE
:104150000A82850B83A3A3A3A3E0F9E4F50AF50B78
:10416000780A12128E8E828F83A3A3E0F50A780A52
:1041700012128E8E828F83A3A3A31212A58E828F1A
:104180008312CD1512BD7B1224BF7406121021E9D3
:10419000F50E7011851082851183E0702D12BD7BA4
:1041A0001220A580257416650E7011750E00741806
:1041B00012105712C1E3E48010750E0112CEAB85C8
:1041C0001482851583E8F0A3E9F0851082851183B8
:1041D000E0600479008002A90E74021210217F0EA3
:1041E00002114D12C1E722E0F8A3E0F58388822294
:1041F00074EC12107B74F712100B8A0C8B0D8C125E
:104200008D13EA2405FEE4350DFF750E00AC1AADE2
:104210001B8E828F8312BD811223518A0A8B0BEA77
:10422000450B700302C3AFE50C2402F50C500205E8
:104230000D8A828B83A3A3A3E0A2E5502F851A8267
:10424000851B8312BD811224AD8A0E8B0FEA450FA8
:10425000604F7912AC0AAD0B12BD7B850E82850FC3
:1042600083121079E9F50E600302C3B2850C8285D2
:104270000D83E0F50AA3E0F50BAA0AFB1224A1EADC
:104280004B70197AFF7BFF1224A1EA4B700302C323
:10429000A58A828B83E50AF0A3E50BF0750A0080FE
:1042A00008750E0E02C3B2050A9002EAE0F8E50AAC
:1042B000C398400302C3A5850A10751100740378E2
:1042C00010120FF88A828B83A3A3E02510F8A3E0D5
:1042D000351112C77970D08E828F8312C3CD12B977
:1042E000C38E828F83A3A312C3CD12B9C1EE24045F
:1042F000F50AE43FF50B850A82F583E0888289831D
:10430000A3A3A3A3F0A3E4F0EE2405F510E43FF586
:1043100011851082F58312C3CDA3A3A3A312B9C143
:10432000751407751500781412128EEEFCEFFD74EB
:1043300004121069122F6F7402121021E4F5147820
:104340001412128E850A82850B83E0FC7D0079179A
:1043500012BD7B122423740212102174071210570D
:1043600012B9C37407121057E0FA4B603D850A82F8
:10437000850B8312C3C412128E851082851183129D
:10438000CD15122F6F7402121021740212107112C7
:10439000BD7B1220ABE96026740712105712BD8155
:1043A000122FF98019750E098008750E118003759A
:1043B0000E0112CEAB85128285138312C3D8A90ECB
:1043C00074098028E0F50A750B00780A2212BD8571
:1043D000888289832212C3DEE8F0A3E9F022E0F8A4
:1043E000A3E0F98510828511832274041210217FC5
:1043F0000C02114D74EC12107B12C4E8751200EE21
:104400002402F50EE43FF50F850E82F58312BD817F
:104410001224A18A0A8B0BEA450B700302C4CC85D7
:104420000C82850D83E06401600302C4C1AC0AAD57
:104430000BAA0CAB0D122495E9606E850A82850BE0
:104440008312B74EEE2406F50CE43FF50D8E828FF5
:1044500083A3A31212A58E828F83A3A3A3A31212F8
:10446000A5850C82850D831212A579188E828F8303
:1044700012C4FA12BD811224BF7406121021E9F889
:10448000741668700B850C82850D83E4F0A380148C
:10449000E860128E828F8312BD8185108285118320
:1044A000EAF0A3EBF088128018781012128EAC0A92
:1044B000AD0BEEFAEFFB12249B7402121021E9F50A
:1044C00012AA0AAB0B1224A7E512700E850E828584
:1044D0000F8312BD811220B180097416651270031A
:1044E000751200A91202C3EFEAFEEBFF8C108D11CA
:1044F000EE2405F50CE43FF50D2212CFA4850E82C3
:10450000850F832274EA12107B750A00750B007EFA
:10451000007F00750C00EC2402F512E43DF51380D9
:1045200035EC650A7003ED650B600302C5B988823E
:104530008983A3A3E06A7003A3E06B707C888289FF
:1045400083A3A3A3A312CEAFEE28FEEF39FFEA2880
:10455000FAEB39FB050C12C689503A850C0E750F23
:10456000007403780E120FF885128285138312C629
:104570007C12C779601FE50A450B70A58C0A8D0B6C
:104580008882898312B74C88828983A3A3E02EFA9C
:10459000A3E03F80BEE50CC39402500302C67775CA
:1045A0000A00750B00EE4F6010EEFAEFFB122FF3CE
:1045B0008A108B11EA45117005790002C679750DD4
:1045C0000002C64C850D0E750F007403780E120F95
:1045D000F8851282851383E0250EF50EA3E0350FD2
:1045E000F50FE50E2406F516E4350FF5178516824E
:1045F000F58312C77E6042E50E2404F514E4350FFE
:10460000F515851482F5831212A5E510250AFAE541
:1046100011350BFB122F6F74021210218514828545
:104620001583E0250AF50AA3E0350BF50B85168204
:1046300085178312BD81122FF9E50D600D7C087D71
:10464000007900AA0EAB0F122F87050DE50DC3955B
:104650000C500302C5C485128285138312CEAF8825
:10466000828983A3A3A3A3A3A3E510F0A3E511125A
:10467000B2DFEEF0A3EFF0790102C1DE12C68022B4
:10468000E0250EF8A3E0350F229002EAE0F8E50CF1
:10469000C3982274F012107B8A108B118C0C8D0D34
:1046A000750F00750E0080507916EE2406F50AE4A9
:1046B0003FF50B8E828F83A3A31212A58E828F8368
:1046C000A3A3A3A31212A5850A82850B831212A5A8
:1046D000851082851183A3A312BD811224BF7406A5
:1046E000121021E9F50F7416650F706C850A82852A
:1046F0000B83E4F0A3F0050E9002EAE0F8E50EC3A8
:10470000985066AA0E8A0A750B007403780A120F75
:10471000F8850C82850D83A3A312C7C8E8FEE9FFC4
:104720008E828F8312C77E6040EA2401F50AE4344A
:1047300000F50B9002EAE0650A7002E50B60148850
:10474000828983A3A3A3A3A3A3A3A312BDB06003E1
:1047500002C6A8791802C6AAE9609B12CEAB7410F3
:1047600012105712C77012C3D8A90F7F0802114D3B
:10477000E0FAA3E0F5838A8222F98882898312CF46
:10478000A4EC4D2274F612107B7C0080010C900387
:1047900047E0F8ECC398501E8C0A750B0074027841
:1047A0000A120FF812C7BDE06A7003A3E06B70DD58
:1047B000E8FAE9FB80047A007B0002C8609002E816
:1047C00012C7C88882898322E0250AF8A3E0350B46
:1047D000F92274F212107B8A0A8B0B750C00802769
:1047E0008E828F83A3A3A3A312B2D66003122FF9E4
:1047F0007C087D007900EEFAEFFB122F878E828F06
:1048000083E4F0A3F0050C12C6895027850C0E75C1
:104810000F007403780E120FF8850A82850B83A3AC
:10482000A3E0250EFEA3E0350FFF8E828F8312BD1D
:10483000B070AD850A82850B8374FFF0A3F002CFC0
:104840009874F612107B1224538A828B83E582457A
:104850008370067A007B008007A3A3A3A312BD8107
:104860007F0202114D74F412107B890A8C828D83B1
:10487000E06402703C12CE4EFEA3E0F9EEF8740242
:104880006870037429697029750C02750D00780C25
:1048900012128E74101210571212A57410121057A3
:1048A0001212A5A90A122E017406121021E9F9802C
:1048B00002790102B31374E812107B74FB12100B1F
:1048C000E9851A82851B83F08A188B19ECFEEDFFAF
:1048D0007512008E828F83A3A3A3E0A2E4502D74EF
:1048E0001D12105712BD811224AD8A828B83E5827E
:1048F0004583700302CCED790AEEFCEFFDAA18ABFC
:1049000019121079E9F512600302CCF0741F12102D
:1049100057E0F50AA3E0F50B7421121057E0F50CEF
:10492000A3E0F50D7423121057E0F510A3E0F51184
:104930008E828F83E06402600302CC8EA312CEAF1E
:10494000850A82850B83A3858214858315EE240650
:10495000F50EE43FF50F8882898312CD2DF516E41C
:1049600039F517781612131801000028012890C98C
:104970000700022855CA0328C3C9002984CB01298E
:10498000AFCB022950CB032984CB042928CC8ECC71
:10499000E5104511600302CC89850E82850F8312D4
:1049A000CEAFE8FAE9FB8A828B83E0850C82850D25
:1049B0008312CD3812128E8A828B83A3E0FCA3E08F
:1049C00002CC12E5104511600302CC89850C82856A
:1049D0000D837401F012CD22850A82850B83F07C51
:1049E000007D008E828F83A3A3A3A3E02401FAA3FA
:1049F000E03400FB122351EA4B60408A828B83E053
:104A00002402F8850C82850D83E028F0EA2404F85E
:104A1000E43BF988828983E085148285158312CD71
:104A20004612CD3812128E8A828B83A312CD15E5E1
:104A30000A2403FAE4350BFB02CC17850C82850DA2
:104A400083E02404F07C047D007900AA14AB1512E5
:104A50002F8702CCF0E5104511600302CC8912CDFE
:104A600022FEA3E0FF850C82850D837404F0EE85A1
:104A70000A82850B83F0EF851482851583F0740319
:104A8000121071EEFAEFFB1223518A0E8B0FEA45DA
:104A90000F700302CB338A828B83A3A312B74C74AB
:104AA0000112106188108911781012128E7405128B
:104AB00010571212A57CFF7DFF12235774041210A9
:104AC000218B11EA45117033850E82850F8312CD3B
:104AD0001912128E850E82850F83A31212A57C02F5
:104AE0007D007A187B911221537404121021E97011
:104AF0000A740112105774FFF0A3F08E828F83E0C6
:104B000064027039750E02750F00780E12128E8EC7
:104B1000828F83A312CD15E50A2404FAE4350BFB3A
:104B2000122F6F7402121021850C82850D83E024F0
:104B30000280097401121057EEF0A3EFF074011215
:104B4000105712CD07740112105712CCFE02CC83FD
:104B5000E5104511600302CC89850E82850F831212
:104B6000CF9DAA18AB19122E07850C82850D837470
:104B700002F0850A82850B83EAF08514828515830D
:104B8000EB02CC86E5104511600302CC8912CD22E0
:104B9000F8A3E0F9850C82850D837402F0E8850A9C
:104BA00082850B83F0E985148285158302CC868586
:104BB0000E82850F8312BD81122F69EAFAF8C39520
:104BC00010E49511405CE86510451170047A00808E
:104BD00021851A82851B83E0FCE5102CFCE435114D
:104BE000FDC3EC98ED94005003E08005E510CAC3C6
:104BF0009AFAEA850C82850D83F08A0C750D00788F
:104C00000C12128E850E82850F83E02510FCA3E026
:104C10003511FDAA0AAB0B122F6F7402121021027C
:104C2000CCF075120702CCF0E5104511705B850ED3
:104C300082850F8312CEAF850C82850D837407F0B9
:104C40008882898312CCFF12CCF7E0851482851507
:104C500083F0E82402FAE439FB8A828B8312CD07C1
:104C60008A828B8312CCFEA3A312B2DE12CD0CF08B
:104C7000E82405F85001098882898312CD0CA3121B
:104C8000CD46A3A3A3A3F0806775120B8062741DA9
:104C900012105712BD811224538A828B83E58245FC
:104CA00083604A12CEAF880E890FE8450F603E74CC
:104CB00025121057E0F51278121212927810121283
:104CC0008E780C12128E780A12128E7407121057F8
:104CD000E0F9EEFCEFFDAA18AB19850E82850F8373
:104CE0001210797407121021E9F512800375120E63
:104CF000A912740502C044F088828983A322A3E02C
:104D0000850A82850B832212CD4DF02212CD4DA350
:104D1000A3229002EE12CFA422E0F51075110078C4
:104D20001022850E82850F8312C1E7E022E0FAA3EC
:104D3000E0F8E4C8F9EA2822F08A828B83E0F50CD7
:104D4000750D00780C2212CCF712CD4D22E0850AA9
:104D500082850B83A3A32274EE12107B74FE1210C3
:104D60000B8A0A8B0BECFEEDFF890CAC1AAD1BEE27
:104D7000FAEFFB1223518A0E8B0FEA450F700302E4
:104D8000CE3F851A82851B8312BD811224538A82ED
:104D90008B83E5824583700302CE3AA3A312CEAF84
:104DA00088108911E84511700302CE3A741412106C
:104DB00057E0F512A3E0F513E50CF50D780D12128E
:104DC0009274191210571212A5781212128E741BB7
:104DD000121057E0F9AC0EAD0FAA0AAB0B8510828A
:104DE0008511831210797405121021E9F50D7052A6
:104DF00074FE650C604C850E82850F83E064027042
:104E00004112CE4EFAA3E0F9EAF874026870037416
:104E10002969702E85128285138312CD2DF50EE43B
:104E200039F50F780E12128EEEFCEFFDAA0AAB0BCD
:104E30001224D774021210218008750D0E8003759C
:104E40000D01A90D74021210217F0A02114DA31247
:104E5000CEB388828983E02274F612107B74FE122E
:104E6000100B740C12105712CEAFE8851A82851BF6
:104E700083F07401121057E9F0E4F50AF50B780A93
:104E800012128E750A02780A12128E7404121061C0
:104E9000880A890B780A12128E79FE1224BF7406D2
:104EA000121021740212102102C8608E828F8312A8
:104EB000CEB322E0F8A3E0F92274F712107BEAFEE9
:104EC000EBFF890A90030512CD15122E07EA540252
:104ED000600BA90AEEFAEFFB122345800279017FED
:104EE0000102114D74F212107B74FE12100BEAFED7
:104EF000EBFF890C7401650C60147402650C60038F
:104F000002CF9379011226E1E9600302CF93EEFA12
:104F1000EFFB1224A1EA4B60031224A7A81AA91BD5
:104F2000880A890B780A12128E750A02750B0078AE
:104F30000A12128E750AFA750B90780A12128E7C7C
:104F4000FF7DFF7A017B0012234B74061210218033
:104F500038850A82850B83A3A3A3A3A3A312CF9DA5
:104F6000EEFAEFFB122DEFE4F50EF50F780E1212AC
:104F70008E74021210571212A57CFF7DFFAA0AAB95
:104F80000B12235774041210218A0A8B0BE50A4571
:104F90000B70BE74021210217F0602114D12C1E780
:104FA00012CFA422E0FCA3E0FD2274F412107B8A4D
:104FB0000A8B0BECFEEDFF9015D4E0F4604B7A0900
:104FC0007B00122F99EA4B60408A828B8374B1F088
:104FD000A3E412D00CF08A828B83A3A3E50AF0A38A
:104FE000E50B12D00CA3EEF0A3EFF0740C121057E7
:104FF00012CEAF8A828B83A3A3A3A3A3A3A312C3BE
:10500000D89015D4E0F9122FA502B313F08A828B41
:1050100083A3A3A3A32274F012107B74FA12100BC3
:10502000890BECFEEDFF750A008A0C8B0D780C12D3
:1050300012D20004103CD259D077D091D0A9D0C759
:10504000D0DFD002D11AD12ED158D1D3D1E4D1FBA7
:10505000D116D23CD23CD26ED17401650B600302F2
:10506000D2378E828F83E0F8C39403400302D23795
:10507000E89016C002D2137402650B600302D237A7
:105080008E828F8312D99A9016C1E8F0A3E902D2DA
:10509000137401650B600302D23712D2644003021D
:1050A000D237E890072B02D2137401650B6003021C
:1050B000D2378E828F83E0F8C39405400302D23743
:1050C000E890072C02D2137401650B600302D237FB
:1050D00012D264400302D237E890072D02D2137433
:1050E00010650B600302D237750C10750D00780C3B
:1050F00012128E7A2E7B07122F6F74021210210269
:10510000D25D7401650B600302D23712D264400392
:1051100002D237E890073E02D2137401650B600398
:1051200002D2378E828F83E09016C402D2137404A9
:10513000650B600302D2378E828F83780E120ECFFA
:10514000909089780E120D02500302D237900740DA
:10515000780E120EDE02D25DE9600302D23712220F
:10516000EBE97005122DB380559007D38061740769
:10517000650B600302D237750C06750D00780C12B2
:10518000128E8E828F83A3AC82AD8374021210695B
:10519000122F7574021210217C007D00AA1AAB1B1D
:1051A0008E828F83E0F9122D5FE9FEC3940A4003DB
:1051B00002D25A1222EBE9700CEEF9122DB9795095
:1051C0001230B9806D74D42EF582E43407F58374FF
:1051D0000180407401650B705E12D2645059E890F2
:1051E000073F802F7401650B704D8E828F83E0F82E
:1051F000C3940A5042E89016C380187401650B707E
:10520000368E828F83E0F874F928C3940A5028E818
:105210009016C5F080477401650B701B9007D2E0B3
:10522000F88E828F83E09007D2F0E87030E064015E
:10523000702B122DA78026750A188021C3EA9427A7
:10524000EB940050157402650B700F8E828F8312E1
:10525000E47A12216BE9F50A8003750A02A90A743F
:105260000602D5888E828F83E0F8C3940222A90AB1
:1052700080031210217F0402114D74F012107B7410
:10528000B112100B8C0C8D0D909034742012107193
:105290007406120F1E7420121071122D5FE9FF7434
:1052A0005F121057E0F50BEFC3940A400302D3FCE2
:1052B00075F006EFA4F50A74411210717A0E74208D
:1052C000250AF91230B3E97009744D121057E0FE47
